{
  "contractName": "EatherSale",
  "abi": [
    {
      "anonymous": false,
      "inputs": [
        {
          "indexed": true,
          "internalType": "address",
          "name": "_newOwner",
          "type": "address"
        }
      ],
      "name": "ContractAdminUpdated",
      "type": "event"
    },
    {
      "anonymous": false,
      "inputs": [
        {
          "indexed": true,
          "internalType": "address",
          "name": "_user",
          "type": "address"
        },
        {
          "indexed": false,
          "internalType": "uint256[]",
          "name": "_tokenIds",
          "type": "uint256[]"
        },
        {
          "indexed": false,
          "internalType": "enum IMarketPlace.PaymentCurrency",
          "name": "_paymentCurrency",
          "type": "uint8"
        },
        {
          "indexed": false,
          "internalType": "uint256",
          "name": "_totalAmount",
          "type": "uint256"
        },
        {
          "indexed": false,
          "internalType": "uint256",
          "name": "timestamp",
          "type": "uint256"
        }
      ],
      "name": "ItemBought",
      "type": "event"
    },
    {
      "anonymous": false,
      "inputs": [
        {
          "indexed": false,
          "internalType": "uint256",
          "name": "totalSale",
          "type": "uint256"
        }
      ],
      "name": "MaxQuantityPerOrderUpdated",
      "type": "event"
    },
    {
      "anonymous": false,
      "inputs": [
        {
          "indexed": true,
          "internalType": "address",
          "name": "_previousOwner",
          "type": "address"
        },
        {
          "indexed": true,
          "internalType": "address",
          "name": "_newOwner",
          "type": "address"
        }
      ],
      "name": "OwnershipTransferred",
      "type": "event"
    },
    {
      "anonymous": false,
      "inputs": [
        {
          "indexed": false,
          "internalType": "address",
          "name": "account",
          "type": "address"
        }
      ],
      "name": "Paused",
      "type": "event"
    },
    {
      "anonymous": false,
      "inputs": [
        {
          "indexed": false,
          "internalType": "enum IMarketPlace.PaymentType",
          "name": "_newMethod",
          "type": "uint8"
        }
      ],
      "name": "PaymentTypeChanged",
      "type": "event"
    },
    {
      "anonymous": false,
      "inputs": [
        {
          "indexed": false,
          "internalType": "uint256",
          "name": "totalSale",
          "type": "uint256"
        }
      ],
      "name": "TotalSaleUpdated",
      "type": "event"
    },
    {
      "anonymous": false,
      "inputs": [
        {
          "indexed": false,
          "internalType": "address",
          "name": "account",
          "type": "address"
        }
      ],
      "name": "Unpaused",
      "type": "event"
    },
    {
      "inputs": [],
      "name": "_isContractAdmin",
      "outputs": [
        {
          "internalType": "bool",
          "name": "",
          "type": "bool"
        }
      ],
      "stateMutability": "view",
      "type": "function"
    },
    {
      "inputs": [],
      "name": "_isMainAdmin",
      "outputs": [
        {
          "internalType": "bool",
          "name": "",
          "type": "bool"
        }
      ],
      "stateMutability": "view",
      "type": "function"
    },
    {
      "inputs": [],
      "name": "busdToken",
      "outputs": [
        {
          "internalType": "contract IBEP20",
          "name": "",
          "type": "address"
        }
      ],
      "stateMutability": "view",
      "type": "function"
    },
    {
      "inputs": [],
      "name": "citizen",
      "outputs": [
        {
          "internalType": "contract ICitizen",
          "name": "",
          "type": "address"
        }
      ],
      "stateMutability": "view",
      "type": "function"
    },
    {
      "inputs": [],
      "name": "contractAdmin",
      "outputs": [
        {
          "internalType": "address",
          "name": "",
          "type": "address"
        }
      ],
      "stateMutability": "view",
      "type": "function"
    },
    {
      "inputs": [
        {
          "internalType": "uint256",
          "name": "",
          "type": "uint256"
        }
      ],
      "name": "farmContracts",
      "outputs": [
        {
          "internalType": "contract IFarm",
          "name": "",
          "type": "address"
        }
      ],
      "stateMutability": "view",
      "type": "function"
    },
    {
      "inputs": [],
      "name": "fotaPricer",
      "outputs": [
        {
          "internalType": "contract IFOTAPricer",
          "name": "",
          "type": "address"
        }
      ],
      "stateMutability": "view",
      "type": "function"
    },
    {
      "inputs": [],
      "name": "fotaToken",
      "outputs": [
        {
          "internalType": "contract IBEP20",
          "name": "",
          "type": "address"
        }
      ],
      "stateMutability": "view",
      "type": "function"
    },
    {
      "inputs": [],
      "name": "itemPrice",
      "outputs": [
        {
          "internalType": "uint256",
          "name": "",
          "type": "uint256"
        }
      ],
      "stateMutability": "view",
      "type": "function"
    },
    {
      "inputs": [],
      "name": "itemToken",
      "outputs": [
        {
          "internalType": "contract IGameNFT",
          "name": "",
          "type": "address"
        }
      ],
      "stateMutability": "view",
      "type": "function"
    },
    {
      "inputs": [],
      "name": "mainAdmin",
      "outputs": [
        {
          "internalType": "address",
          "name": "",
          "type": "address"
        }
      ],
      "stateMutability": "view",
      "type": "function"
    },
    {
      "inputs": [],
      "name": "marketPlace",
      "outputs": [
        {
          "internalType": "contract IMarketPlace",
          "name": "",
          "type": "address"
        }
      ],
      "stateMutability": "view",
      "type": "function"
    },
    {
      "inputs": [],
      "name": "maxQuantityPerOrder",
      "outputs": [
        {
          "internalType": "uint256",
          "name": "",
          "type": "uint256"
        }
      ],
      "stateMutability": "view",
      "type": "function"
    },
    {
      "inputs": [],
      "name": "paused",
      "outputs": [
        {
          "internalType": "bool",
          "name": "",
          "type": "bool"
        }
      ],
      "stateMutability": "view",
      "type": "function"
    },
    {
      "inputs": [],
      "name": "paymentType",
      "outputs": [
        {
          "internalType": "enum IMarketPlace.PaymentType",
          "name": "",
          "type": "uint8"
        }
      ],
      "stateMutability": "view",
      "type": "function"
    },
    {
      "inputs": [
        {
          "internalType": "uint256",
          "name": "",
          "type": "uint256"
        }
      ],
      "name": "pools",
      "outputs": [
        {
          "internalType": "address",
          "name": "",
          "type": "address"
        }
      ],
      "stateMutability": "view",
      "type": "function"
    },
    {
      "inputs": [],
      "name": "totalSale",
      "outputs": [
        {
          "internalType": "uint256",
          "name": "",
          "type": "uint256"
        }
      ],
      "stateMutability": "view",
      "type": "function"
    },
    {
      "inputs": [
        {
          "internalType": "address",
          "name": "_newOwner",
          "type": "address"
        }
      ],
      "name": "transferOwnership",
      "outputs": [],
      "stateMutability": "nonpayable",
      "type": "function"
    },
    {
      "inputs": [
        {
          "internalType": "address",
          "name": "_newAdmin",
          "type": "address"
        }
      ],
      "name": "updateContractAdmin",
      "outputs": [],
      "stateMutability": "nonpayable",
      "type": "function"
    },
    {
      "inputs": [],
      "name": "usdtToken",
      "outputs": [
        {
          "internalType": "contract IBEP20",
          "name": "",
          "type": "address"
        }
      ],
      "stateMutability": "view",
      "type": "function"
    },
    {
      "inputs": [
        {
          "internalType": "address",
          "name": "_mainAdmin",
          "type": "address"
        },
        {
          "internalType": "address",
          "name": "_marketPlace",
          "type": "address"
        },
        {
          "internalType": "address",
          "name": "_fotaPricer",
          "type": "address"
        },
        {
          "internalType": "address",
          "name": "_itemNFT",
          "type": "address"
        },
        {
          "internalType": "uint256",
          "name": "_itemPrice",
          "type": "uint256"
        },
        {
          "internalType": "address[]",
          "name": "_pools",
          "type": "address[]"
        }
      ],
      "name": "initialize",
      "outputs": [],
      "stateMutability": "nonpayable",
      "type": "function"
    },
    {
      "inputs": [
        {
          "internalType": "address",
          "name": "_mainAdmin",
          "type": "address"
        }
      ],
      "name": "initialize",
      "outputs": [],
      "stateMutability": "nonpayable",
      "type": "function"
    },
    {
      "inputs": [
        {
          "internalType": "enum IMarketPlace.PaymentType",
          "name": "_type",
          "type": "uint8"
        }
      ],
      "name": "updatePaymentType",
      "outputs": [],
      "stateMutability": "nonpayable",
      "type": "function"
    },
    {
      "inputs": [
        {
          "internalType": "uint256",
          "name": "_itemPrice",
          "type": "uint256"
        }
      ],
      "name": "updateItemPrice",
      "outputs": [],
      "stateMutability": "nonpayable",
      "type": "function"
    },
    {
      "inputs": [
        {
          "internalType": "address[]",
          "name": "_pools",
          "type": "address[]"
        }
      ],
      "name": "updatePoolAddress",
      "outputs": [],
      "stateMutability": "nonpayable",
      "type": "function"
    },
    {
      "inputs": [
        {
          "internalType": "contract IFarm[]",
          "name": "_farms",
          "type": "address[]"
        }
      ],
      "name": "updateFarmContractAddress",
      "outputs": [],
      "stateMutability": "nonpayable",
      "type": "function"
    },
    {
      "inputs": [
        {
          "internalType": "uint256",
          "name": "_totalSale",
          "type": "uint256"
        }
      ],
      "name": "updateTotalSale",
      "outputs": [],
      "stateMutability": "nonpayable",
      "type": "function"
    },
    {
      "inputs": [
        {
          "internalType": "uint256",
          "name": "_maxQuantityPerOrder",
          "type": "uint256"
        }
      ],
      "name": "updateMaxQuantityPerOrder",
      "outputs": [],
      "stateMutability": "nonpayable",
      "type": "function"
    },
    {
      "inputs": [
        {
          "internalType": "bool",
          "name": "_paused",
          "type": "bool"
        }
      ],
      "name": "updatePauseStatus",
      "outputs": [],
      "stateMutability": "nonpayable",
      "type": "function"
    },
    {
      "inputs": [
        {
          "internalType": "uint256",
          "name": "_quantity",
          "type": "uint256"
        },
        {
          "internalType": "enum IMarketPlace.PaymentCurrency",
          "name": "_paymentCurrency",
          "type": "uint8"
        }
      ],
      "name": "buy",
      "outputs": [],
      "stateMutability": "nonpayable",
      "type": "function"
    }
  ],
  "bytecode": "0x608060405234801561001057600080fd5b506122f8806100206000396000f3fe608060405234801561001057600080fd5b50600436106101da5760003560e01c8063a00245fa11610104578063bc6e6830116100a2578063e90bc7b111610071578063e90bc7b114610372578063ea4ce23914610385578063f2fde38b1461038d578063fb6b04ba146103a0576101da565b8063bc6e68301461033c578063c4d66de81461034f578063dac6db1c14610362578063de0e70141461036a576101da565b8063ac4afa38116100de578063ac4afa38146102fb578063b47e19081461030e578063b60d185614610321578063b7d6caec14610334576101da565b8063a00245fa146102cd578063a01f0478146102e0578063a98ad46c146102f3576101da565b806348d002f21161017c578063777f54401161014b578063777f544014610297578063779552451461029f57806382a6f7ad146102a7578063928cf604146102ba576101da565b806348d002f21461026a5780635c975abb146102725780635e1c2f0a1461027a578063764d0bbe14610282576101da565b80632763b8da116101b85780632763b8da146102255780632bbc49711461023a5780632e25d2a61461024f5780633952b4c714610257576101da565b806302e65b8a146101df5780630ae24354146101f457806311541ce014610207575b600080fd5b6101f26101ed366004611b2a565b6103a8565b005b6101f2610202366004611c93565b610432565b61020f61045b565b60405161021c9190611df4565b60405180910390f35b61022d610472565b60405161021c9190611dff565b610242610482565b60405161021c9190611cf2565b610242610491565b6101f2610265366004611b69565b6104a0565b610242610689565b61020f610698565b6102426106a1565b61028a6106b0565b60405161021c91906121cc565b6102426106b6565b6102426106c5565b6102426102b5366004611c93565b6106d4565b6101f26102c8366004611c93565b6106fe565b6101f26102db366004611c77565b610762565b6101f26102ee366004611bff565b610808565b610242610960565b610242610309366004611c93565b61096f565b6101f261031c366004611c93565b61097f565b6101f261032f366004611bff565b6109d8565b61020f610a31565b6101f261034a366004611c3f565b610a42565b6101f261035d366004611b2a565b610a84565b61028a610b42565b610242610b48565b6101f2610380366004611cc3565b610b57565b61028a610e39565b6101f261039b366004611b2a565b610e3f565b610242610ed8565b6103b061045b565b6103d55760405162461bcd60e51b81526004016103cc9061215e565b60405180910390fd5b6001600160a01b0381166103e857600080fd5b600180546001600160a01b0319166001600160a01b0383169081179091556040517fe3f4a4b5b74aa6830627cb87c50cf7d4ed56e9b246729179ba634bbdc873177a90600090a250565b61043a61045b565b6104565760405162461bcd60e51b81526004016103cc9061215e565b606e55565b6000546201000090046001600160a01b0316331490565b606b54600160a01b900460ff1681565b606b546001600160a01b031681565b6069546001600160a01b031681565b600054610100900460ff16806104b9575060005460ff16155b6104d55760405162461bcd60e51b81526004016103cc906120a4565b600054610100900460ff16158015610500576000805460ff1961ff0019909116610100171660011790555b61050988610a84565b606980546001600160a01b03808a166001600160a01b03199283161792839055606a80548a8316931692909217909155604080517f2bbc497100000000000000000000000000000000000000000000000000000000815290519290911691632bbc497191600480820192602092909190829003018186803b15801561058d57600080fd5b505afa1580156105a1573d6000803e3d6000fd5b505050506040513d601f19601f820116820180604052508101906105c59190611b4d565b606b80546001600160a01b039283166001600160a01b031991821617909155606c8054928816928216929092179091556066805482167369c3ff5f466757bf99fef916ae9a191d7c13696c17905560678054821673d8ad05ff852ae4eb264089c377501494ea1d03c91790556068805490911673a1d3c78f0f98f6ba7b08ec15df48e22880a0024c179055606e849055610661606d8484611a69565b50612710606f556064607055801561067f576000805461ff00191690555b5050505050505050565b6066546001600160a01b031681565b60345460ff1690565b606a546001600160a01b031681565b60705481565b606c546001600160a01b031681565b6001546001600160a01b031681565b607181815481106106e457600080fd5b6000918252602090912001546001600160a01b0316905081565b61070661045b565b6107225760405162461bcd60e51b81526004016103cc9061215e565b606f8190556040517f912ee7bc5d578a4545d9a776001d4242c06651adc745413d152240f63b07ce4b906107579083906121cc565b60405180910390a150565b61076a61045b565b6107865760405162461bcd60e51b81526004016103cc9061215e565b606b80548291907fffffffffffffffffffffff00ffffffffffffffffffffffffffffffffffffffff16600160a01b8360028111156107d457634e487b7160e01b600052602160045260246000fd5b02179055507f42d1d4a3df940c5fa3c262d3d5b271a206cfc2e3da70683f81854b3f52f8f5d5816040516107579190611dff565b61081061045b565b61082c5760405162461bcd60e51b81526004016103cc9061215e565b8061085057606d546108505760405162461bcd60e51b81526004016103cc90611eb5565b61085c60718383611a69565b5060001960005b60715481101561095a57606654607180546001600160a01b039092169163095ea7b39190849081106108a557634e487b7160e01b600052603260045260246000fd5b6000918252602090912001546040517fffffffff0000000000000000000000000000000000000000000000000000000060e084901b1681526108f5916001600160a01b0316908690600401611d44565b602060405180830381600087803b15801561090f57600080fd5b505af1158015610923573d6000803e3d6000fd5b505050506040513d601f19601f820116820180604052508101906109479190611c5b565b508061095281612243565b915050610863565b50505050565b6068546001600160a01b031681565b606d81815481106106e457600080fd5b61098761045b565b6109a35760405162461bcd60e51b81526004016103cc9061215e565b60708190556040517fad4a5c5e0e6e746ad67309f0262070d271ac2156d683aee8505d18dac15a5808906107579083906121cc565b6109e061045b565b6109fc5760405162461bcd60e51b81526004016103cc9061215e565b80610a2057607154610a205760405162461bcd60e51b81526004016103cc90611eb5565b610a2c606d8383611a69565b505050565b6001546001600160a01b0316331490565b610a4a61045b565b610a665760405162461bcd60e51b81526004016103cc9061215e565b8015610a7957610a74610eed565b610a81565b610a81610f5f565b50565b600054610100900460ff1680610a9d575060005460ff16155b610ab95760405162461bcd60e51b81526004016103cc906120a4565b600054610100900460ff16158015610ae4576000805460ff1961ff0019909116610100171660011790555b6000805475ffffffffffffffffffffffffffffffffffffffff00001916620100006001600160a01b03851690810291909117909155600180546001600160a01b03191690911790558015610b3e576000805461ff00191690555b5050565b606e5481565b6067546001600160a01b031681565b610b5f610698565b15610b7c5760405162461bcd60e51b81526004016103cc90612010565b607054821115610b9e5760405162461bcd60e51b81526004016103cc90612195565b81606f541015610bc05760405162461bcd60e51b81526004016103cc90612047565b606b546040517ff3caad030000000000000000000000000000000000000000000000000000000081526001600160a01b039091169063f3caad0390610c09903390600401611cf2565b60206040518083038186803b158015610c2157600080fd5b505afa158015610c35573d6000803e3d6000fd5b505050506040513d601f19601f82011682018060405250810190610c599190611c5b565b610c755760405162461bcd60e51b81526004016103cc90611e49565b610c7e81610fb6565b81606f6000828254610c90919061222c565b9091555060009050610ca2838361109d565b905060008367ffffffffffffffff811115610ccd57634e487b7160e01b600052604160045260246000fd5b604051908082528060200260200182016040528015610cf6578160200160208202803683370190505b50905060005b84811015610deb57606c54606e546040517f882c3b0e0000000000000000000000000000000000000000000000000000000081526000926001600160a01b03169163882c3b0e91610d5891339186916001918990600401611d5d565b602060405180830381600087803b158015610d7257600080fd5b505af1158015610d86573d6000803e3d6000fd5b505050506040513d601f19601f82011682018060405250810190610daa9190611cab565b905080838381518110610dcd57634e487b7160e01b600052603260045260246000fd5b60209081029190910101525080610de381612243565b915050610cfc565b50336001600160a01b03167f21559ef735d2bf864ae58942cf33252bb44881f9ce1c20d160cd3121c3a8871182858542604051610e2b9493929190611d92565b60405180910390a250505050565b606f5481565b610e4761045b565b610e635760405162461bcd60e51b81526004016103cc9061215e565b6001600160a01b038116610e7657600080fd5b6000805475ffffffffffffffffffffffffffffffffffffffff00001916620100006001600160a01b038416908102919091178255604051909133917f8be0079c531659141344cd1fd0a4f28419497f9722a3daafe3b4186f6b6457e09190a350565b6000546201000090046001600160a01b031681565b610ef5610698565b15610f125760405162461bcd60e51b81526004016103cc90612010565b6034805460ff191660011790557f62e78cea01bee320cd4e420270b5ea74000d11b0c9f74754ebdbfc544b05a258610f48611161565b604051610f559190611cf2565b60405180910390a1565b610f67610698565b610f835760405162461bcd60e51b81526004016103cc90611e12565b6034805460ff191690557f5db9ee0a495bf2e6ff9c91a7834c1ba4fdd244a5e8aa4e537bd38aeae4b073aa610f48611161565b6000606b54600160a01b900460ff166002811115610fe457634e487b7160e01b600052602160045260246000fd5b141561102957600081600281111561100c57634e487b7160e01b600052602160045260246000fd5b14610a745760405162461bcd60e51b81526004016103cc90611eec565b6001606b54600160a01b900460ff16600281111561105757634e487b7160e01b600052602160045260246000fd5b1415610a8157600081600281111561107f57634e487b7160e01b600052602160045260246000fd5b1415610a815760405162461bcd60e51b81526004016103cc90611eec565b600080606b54600160a01b900460ff1660028111156110cc57634e487b7160e01b600052602160045260246000fd5b14156110e2576110db83611165565b905061115b565b6001606b54600160a01b900460ff16600281111561111057634e487b7160e01b600052602160045260246000fd5b1415611120576110db8383611603565b600082600281111561114257634e487b7160e01b600052602160045260246000fd5b1415611151576110db83611165565b6110db8383611603565b92915050565b3390565b606a54604080517fce11434800000000000000000000000000000000000000000000000000000000815290516000926001600160a01b03169163ce114348916004808301926020929190829003018186803b1580156111c357600080fd5b505afa1580156111d7573d6000803e3d6000fd5b505050506040513d601f19601f820116820180604052508101906111fb9190611cab565b6103e8606e548461120c919061220d565b611216919061220d565b61122091906121ed565b6066546040517fdd62ed3e00000000000000000000000000000000000000000000000000000000815291925082916001600160a01b039091169063dd62ed3e906112709033903090600401611d06565b60206040518083038186803b15801561128857600080fd5b505afa15801561129c573d6000803e3d6000fd5b505050506040513d601f19601f820116820180604052508101906112c09190611cab565b10156112de5760405162461bcd60e51b81526004016103cc90612101565b6066546040516370a0823160e01b815282916001600160a01b0316906370a082319061130e903390600401611cf2565b60206040518083038186803b15801561132657600080fd5b505afa15801561133a573d6000803e3d6000fd5b505050506040513d601f19601f8201168201806040525081019061135e9190611cab565b101561137c5760405162461bcd60e51b81526004016103cc90611e80565b6066546040516323b872dd60e01b81526001600160a01b03909116906323b872dd906113b090339030908690600401611d20565b602060405180830381600087803b1580156113ca57600080fd5b505af11580156113de573d6000803e3d6000fd5b505050506040513d601f19601f820116820180604052508101906114029190611c5b565b61141e5760405162461bcd60e51b81526004016103cc90611f7e565b607154606d54600091611430916121d5565b61143a90836121ed565b905060005b606d5481101561153657606654606d80546001600160a01b039092169163a9059cbb91908490811061148157634e487b7160e01b600052603260045260246000fd5b6000918252602090912001546040517fffffffff0000000000000000000000000000000000000000000000000000000060e084901b1681526114d1916001600160a01b0316908690600401611d44565b602060405180830381600087803b1580156114eb57600080fd5b505af11580156114ff573d6000803e3d6000fd5b505050506040513d601f19601f820116820180604052508101906115239190611c5b565b508061152e81612243565b91505061143f565b5060005b6071548110156115fc576071818154811061156557634e487b7160e01b600052603260045260246000fd5b6000918252602090912001546040517fea102eda0000000000000000000000000000000000000000000000000000000081526001600160a01b039091169063ea102eda906115b79085906004016121cc565b600060405180830381600087803b1580156115d157600080fd5b505af11580156115e5573d6000803e3d6000fd5b5050505080806115f490612243565b91505061153a565b5050919050565b6000606e5483611613919061220d565b90506000600183600281111561163957634e487b7160e01b600052602160045260246000fd5b1461164f576068546001600160a01b031661165c565b6067546001600160a01b03165b905081816001600160a01b031663dd62ed3e33306040518363ffffffff1660e01b815260040161168d929190611d06565b60206040518083038186803b1580156116a557600080fd5b505afa1580156116b9573d6000803e3d6000fd5b505050506040513d601f19601f820116820180604052508101906116dd9190611cab565b10156116fb5760405162461bcd60e51b81526004016103cc90611f21565b6040516370a0823160e01b815282906001600160a01b038316906370a0823190611729903390600401611cf2565b60206040518083038186803b15801561174157600080fd5b505afa158015611755573d6000803e3d6000fd5b505050506040513d601f19601f820116820180604052508101906117799190611cab565b10156117975760405162461bcd60e51b81526004016103cc90611e80565b6040516323b872dd60e01b81526001600160a01b038216906323b872dd906117c790339030908790600401611d20565b602060405180830381600087803b1580156117e157600080fd5b505af11580156117f5573d6000803e3d6000fd5b505050506040513d601f19601f820116820180604052508101906118199190611c5b565b6118355760405162461bcd60e51b81526004016103cc90611fb3565b60005b606d54811015611a6157606d546118519060019061222c565b81101561192257816001600160a01b031663a9059cbb606d838154811061188857634e487b7160e01b600052603260045260246000fd5b600091825260209091200154606d546001600160a01b03909116906118ad90876121ed565b6040518363ffffffff1660e01b81526004016118ca929190611d44565b602060405180830381600087803b1580156118e457600080fd5b505af11580156118f8573d6000803e3d6000fd5b505050506040513d601f19601f8201168201806040525081019061191c9190611c5b565b50611a4f565b816001600160a01b031663a9059cbb606d838154811061195257634e487b7160e01b600052603260045260246000fd5b6000918252602090912001546040516370a0823160e01b81526001600160a01b03918216918616906370a082319061198e903090600401611cf2565b60206040518083038186803b1580156119a657600080fd5b505afa1580156119ba573d6000803e3d6000fd5b505050506040513d601f19601f820116820180604052508101906119de9190611cab565b6040518363ffffffff1660e01b81526004016119fb929190611d44565b602060405180830381600087803b158015611a1557600080fd5b505af1158015611a29573d6000803e3d6000fd5b505050506040513d601f19601f82011682018060405250810190611a4d9190611c5b565b505b80611a5981612243565b915050611838565b505092915050565b828054828255906000526020600020908101928215611abc579160200282015b82811115611abc5781546001600160a01b0319166001600160a01b03843516178255602090920191600190910190611a89565b50611ac8929150611acc565b5090565b5b80821115611ac85760008155600101611acd565b60008083601f840112611af2578182fd5b50813567ffffffffffffffff811115611b09578182fd5b6020830191508360208083028501011115611b2357600080fd5b9250929050565b600060208284031215611b3b578081fd5b8135611b4681612292565b9392505050565b600060208284031215611b5e578081fd5b8151611b4681612292565b600080600080600080600060c0888a031215611b83578283fd5b8735611b8e81612292565b96506020880135611b9e81612292565b95506040880135611bae81612292565b94506060880135611bbe81612292565b93506080880135925060a088013567ffffffffffffffff811115611be0578283fd5b611bec8a828b01611ae1565b989b979a50959850939692959293505050565b60008060208385031215611c11578182fd5b823567ffffffffffffffff811115611c27578283fd5b611c3385828601611ae1565b90969095509350505050565b600060208284031215611c50578081fd5b8135611b46816122a7565b600060208284031215611c6c578081fd5b8151611b46816122a7565b600060208284031215611c88578081fd5b8135611b46816122b5565b600060208284031215611ca4578081fd5b5035919050565b600060208284031215611cbc578081fd5b5051919050565b60008060408385031215611cd5578182fd5b823591506020830135611ce7816122b5565b809150509250929050565b6001600160a01b0391909116815260200190565b6001600160a01b0392831681529116602082015260400190565b6001600160a01b039384168152919092166020820152604081019190915260600190565b6001600160a01b03929092168252602082015260400190565b6001600160a01b0395909516855260ff93909316602085015261ffff9190911660408401526060830152608082015260a00190565b6080808252855190820181905260009060209060a0840190828901845b82811015611dcb57815184529284019290840190600101611daf565b50505080925050611ddb86612274565b8201949094526040810192909252606090910152919050565b901515815260200190565b60208101611e0c83612274565b91905290565b60208082526014908201527f5061757361626c653a206e6f7420706175736564000000000000000000000000604082015260600190565b6020808252601d908201527f45617468657253616c653a207265676973746572207265717569726564000000604082015260600190565b6020808252818101527f45617468657253616c653a20696e73756666696369656e742062616c616e6365604082015260600190565b60208082526016908201527f45617468657253616c653a20656d707479206461746100000000000000000000604082015260600190565b6020808252818101527f45617468657253616c653a2077726f6e67207061796d656e74206d6574686f64604082015260600190565b6020808252602a908201527f45617468657253616c653a20706c6561736520617070726f766520757364207460408201527f6f6b656e20666972737400000000000000000000000000000000000000000000606082015260800190565b6020808252818101527f45617468657253616c653a207472616e7366657220666f7461206661696c6564604082015260600190565b60208082526025908201527f45617468657253616c653a207472616e736665722075736420746f6b656e206660408201527f61696c6564000000000000000000000000000000000000000000000000000000606082015260800190565b60208082526010908201527f5061757361626c653a2070617573656400000000000000000000000000000000604082015260600190565b60208082526029908201527f45617468657253616c653a20736f6c64206f7574206f72206e6f7420656e6f7560408201527f676820746f206275790000000000000000000000000000000000000000000000606082015260800190565b6020808252602e908201527f496e697469616c697a61626c653a20636f6e747261637420697320616c72656160408201527f647920696e697469616c697a6564000000000000000000000000000000000000606082015260800190565b60208082526025908201527f45617468657253616c653a20706c6561736520617070726f766520666f74612060408201527f6669727374000000000000000000000000000000000000000000000000000000606082015260800190565b6020808252600d908201527f6f6e6c794d61696e41646d696e00000000000000000000000000000000000000604082015260600190565b6020808252601c908201527f45617468657253616c653a207175616e7469747920696e76616c696400000000604082015260600190565b90815260200190565b600082198211156121e8576121e861225e565b500190565b60008261220857634e487b7160e01b81526012600452602481fd5b500490565b60008160001904831182151516156122275761222761225e565b500290565b60008282101561223e5761223e61225e565b500390565b60006000198214156122575761225761225e565b5060010190565b634e487b7160e01b600052601160045260246000fd5b60038110610a8157634e487b7160e01b600052602160045260246000fd5b6001600160a01b0381168114610a8157600080fd5b8015158114610a8157600080fd5b60038110610a8157600080fdfea2646970667358221220e3f069be47066198763e30dbab05a514093300f16cc11bc6fc333b8bd116f04e64736f6c63430008000033",
  "immutableReferences": {},
  "source": "// SPDX-License-Identifier: GPL\n\npragma solidity 0.8.0;\n\nimport \"@openzeppelin/contracts-upgradeable/security/PausableUpgradeable.sol\";\nimport \"../libs/zeppelin/token/BEP20/IBEP20.sol\";\nimport \"../interfaces/IGameNFT.sol\";\nimport \"../interfaces/IMarketPlace.sol\";\nimport \"../interfaces/ICitizen.sol\";\nimport \"../interfaces/IFOTAPricer.sol\";\nimport \"../libs/fota/Auth.sol\";\nimport \"../interfaces/IFarm.sol\";\n\ncontract EatherSale is Auth, PausableUpgradeable {\n  IBEP20 public fotaToken;\n  IBEP20 public busdToken;\n  IBEP20 public usdtToken;\n  IMarketPlace public marketPlace;\n  IFOTAPricer public fotaPricer;\n  ICitizen public citizen;\n  IMarketPlace.PaymentType public paymentType;\n  IGameNFT public itemToken;\n  address[] public pools;\n  uint public itemPrice;\n  uint public totalSale;\n  uint public maxQuantityPerOrder;\n  uint8 constant EATHER_GENE = 0;\n  uint16 constant EATHER_CLASS = 1;\n  uint constant decimal3 = 1000;\n\n  IFarm[] public farmContracts;\n\n  event PaymentTypeChanged(IMarketPlace.PaymentType _newMethod);\n  event ItemBought(address indexed _user, uint[] _tokenIds, IMarketPlace.PaymentCurrency _paymentCurrency, uint _totalAmount, uint timestamp);\n  event TotalSaleUpdated(uint totalSale);\n  event MaxQuantityPerOrderUpdated(uint totalSale);\n\n  function initialize(\n    address _mainAdmin,\n    address _marketPlace,\n    address _fotaPricer,\n    address _itemNFT,\n    uint _itemPrice,\n    address[] calldata _pools\n  ) public initializer {\n    Auth.initialize(_mainAdmin);\n    marketPlace = IMarketPlace(_marketPlace);\n    fotaPricer = IFOTAPricer(_fotaPricer);\n    citizen = ICitizen(marketPlace.citizen());\n    itemToken = IGameNFT(_itemNFT);\n    fotaToken = IBEP20(0x69c3FF5F466757BF99feF916aE9a191d7c13696c);\n    busdToken = IBEP20(0xD8aD05ff852ae4EB264089c377501494EA1D03C9);\n    usdtToken = IBEP20(0xa1D3c78f0f98f6ba7b08ec15df48E22880a0024c);\n    itemPrice = _itemPrice;\n    pools = _pools;\n    totalSale = 10000;\n    maxQuantityPerOrder = 100;\n  }\n\n  // ADMIN FUNCTIONS\n\n  function updatePaymentType(IMarketPlace.PaymentType _type) external onlyMainAdmin {\n    paymentType = _type;\n    emit PaymentTypeChanged(_type);\n  }\n\n  function updateItemPrice(uint _itemPrice) external onlyMainAdmin {\n    itemPrice = _itemPrice;\n  }\n\n  function updatePoolAddress(address[] calldata _pools) external onlyMainAdmin {\n    if (_pools.length == 0) {\n      require(farmContracts.length > 0, \"EatherSale: empty data\");\n    }\n    pools = _pools;\n  }\n\n  function updateFarmContractAddress(IFarm[] calldata _farms) external onlyMainAdmin {\n    if (_farms.length == 0) {\n      require(pools.length > 0, \"EatherSale: empty data\");\n    }\n    farmContracts = _farms;\n    uint256 MAX_INT = 2**256 - 1;\n    for(uint i = 0; i < farmContracts.length; i++) {\n      fotaToken.approve(address(farmContracts[i]), MAX_INT);\n    }\n  }\n\n  function updateTotalSale(uint _totalSale) external onlyMainAdmin {\n    totalSale = _totalSale;\n    emit TotalSaleUpdated(totalSale);\n  }\n\n  function updateMaxQuantityPerOrder(uint _maxQuantityPerOrder) external onlyMainAdmin {\n    maxQuantityPerOrder = _maxQuantityPerOrder;\n    emit MaxQuantityPerOrderUpdated(maxQuantityPerOrder);\n  }\n\n  function updatePauseStatus(bool _paused) external onlyMainAdmin {\n    if(_paused) {\n      _pause();\n    } else {\n      _unpause();\n    }\n  }\n\n  // PUBLIC FUNCTIONS\n\n  function buy(uint _quantity, IMarketPlace.PaymentCurrency _paymentCurrency) external whenNotPaused {\n    require(_quantity <= maxQuantityPerOrder, \"EatherSale: quantity invalid\");\n    require(totalSale >= _quantity, \"EatherSale: sold out or not enough to buy\");\n    require(citizen.isCitizen(msg.sender), \"EatherSale: register required\");\n    _validatePaymentMethod(_paymentCurrency);\n    totalSale -= _quantity;\n    uint totalAmount = _takeFund(_quantity, _paymentCurrency);\n    uint[] memory tokenIds = new uint[](_quantity);\n    for(uint i = 0; i < _quantity; i++) {\n      uint _tokenId = itemToken.mintItem(msg.sender, EATHER_GENE, EATHER_CLASS, itemPrice, i);\n      tokenIds[i] = _tokenId;\n    }\n    emit ItemBought(msg.sender, tokenIds, _paymentCurrency, totalAmount, block.timestamp);\n  }\n\n  // PRIVATE FUNCTIONS\n\n  function _validatePaymentMethod(IMarketPlace.PaymentCurrency _paymentCurrency) private view {\n    if (paymentType == IMarketPlace.PaymentType.fota) {\n      require(_paymentCurrency == IMarketPlace.PaymentCurrency.fota, \"EatherSale: wrong payment method\");\n    } else if (paymentType == IMarketPlace.PaymentType.usd) {\n      require(_paymentCurrency != IMarketPlace.PaymentCurrency.fota, \"EatherSale: wrong payment method\");\n    }\n  }\n\n  function _takeFund(uint _quantity, IMarketPlace.PaymentCurrency _paymentCurrency) private returns (uint) {\n    if (paymentType == IMarketPlace.PaymentType.fota) {\n      return _takeFundFOTA(_quantity);\n    } else if (paymentType == IMarketPlace.PaymentType.usd) {\n      return _takeFundUSD(_quantity, _paymentCurrency);\n    } else if (_paymentCurrency == IMarketPlace.PaymentCurrency.fota) {\n      return _takeFundFOTA(_quantity);\n    } else {\n      return _takeFundUSD(_quantity, _paymentCurrency);\n    }\n  }\n\n  function _takeFundUSD(uint _quantity, IMarketPlace.PaymentCurrency _paymentCurrency) private returns (uint _amount) {\n    _amount = _quantity * itemPrice;\n    IBEP20 usdToken = _paymentCurrency == IMarketPlace.PaymentCurrency.busd ? busdToken : usdtToken;\n    require(usdToken.allowance(msg.sender, address(this)) >= _amount, \"EatherSale: please approve usd token first\");\n    require(usdToken.balanceOf(msg.sender) >= _amount, \"EatherSale: insufficient balance\");\n    require(usdToken.transferFrom(msg.sender, address(this), _amount), \"EatherSale: transfer usd token failed\");\n    for(uint i = 0; i < pools.length; i++) {\n      if (i < pools.length - 1) {\n        usdToken.transfer(pools[i], _amount / pools.length);\n      } else {\n        usdToken.transfer(pools[i], usdToken.balanceOf(address(this)));\n      }\n    }\n  }\n\n  function _takeFundFOTA(uint _quantity) private returns (uint _amount) {\n    _amount = _quantity * itemPrice * decimal3 / fotaPricer.fotaPrice();\n    require(fotaToken.allowance(msg.sender, address(this)) >= _amount, \"EatherSale: please approve fota first\");\n    require(fotaToken.balanceOf(msg.sender) >= _amount, \"EatherSale: insufficient balance\");\n    require(fotaToken.transferFrom(msg.sender, address(this), _amount), \"EatherSale: transfer fota failed\");\n    uint dividend = _amount / (pools.length + farmContracts.length);\n    for(uint i = 0; i < pools.length; i++) {\n      fotaToken.transfer(pools[i], dividend);\n    }\n    for(uint i = 0; i < farmContracts.length; i++) {\n      farmContracts[i].fundFOTA(dividend);\n    }\n  }\n}\n",
  "sourcePath": "/Users/dung/Documents/sources/fota-dapp/contracts/sales/EatherSale.sol",
  "compiler": {
    "name": "solc",
    "version": "0.8.0+commit.c7dfd78e.Emscripten.clang"
  },
  "schemaVersion": "3.3.4",
  "updatedAt": "2022-03-03T04:57:24.176Z",
  "networkType": "ethereum",
  "devdoc": {
    "kind": "dev",
    "methods": {
      "paused()": {
        "details": "Returns true if the contract is paused, and false otherwise."
      }
    },
    "version": 1
  },
  "userdoc": {
    "kind": "user",
    "methods": {},
    "version": 1
  }
}