{
  "contractName": "EnergyManager",
  "abi": [
    {
      "inputs": [],
      "name": "initialize",
      "outputs": [],
      "stateMutability": "nonpayable",
      "type": "function"
    },
    {
      "inputs": [
        {
          "internalType": "address",
          "name": "_user",
          "type": "address"
        },
        {
          "internalType": "int256",
          "name": "_point",
          "type": "int256"
        }
      ],
      "name": "updatePoint",
      "outputs": [],
      "stateMutability": "nonpayable",
      "type": "function"
    }
  ],
  "bytecode": "0x608060405234801561001057600080fd5b506101ca806100206000396000f3fe608060405234801561001057600080fd5b50600436106100365760003560e01c80631ff9f0341461003b5780638129fc1c14610050575b600080fd5b61004e6100493660046100f4565b610058565b005b61004e61005c565b5050565b600054610100900460ff1680610075575060005460ff16155b6100b4576040517f08c379a00000000000000000000000000000000000000000000000000000000081526004016100ab90610137565b60405180910390fd5b600054610100900460ff161580156100df576000805460ff1961ff0019909116610100171660011790555b80156100f1576000805461ff00191690555b50565b60008060408385031215610106578182fd5b823573ffffffffffffffffffffffffffffffffffffffff81168114610129578283fd5b946020939093013593505050565b6020808252602e908201527f496e697469616c697a61626c653a20636f6e747261637420697320616c72656160408201527f647920696e697469616c697a656400000000000000000000000000000000000060608201526080019056fea2646970667358221220c289a97adde54778224d21ebecfddde609ae09c1b3f1c775dc60f8308050c6cb64736f6c63430008000033",
  "immutableReferences": {},
  "source": "// SPDX-License-Identifier: GPL\n\npragma solidity 0.8.0;\n\nimport \"@openzeppelin/contracts-upgradeable/proxy/utils/Initializable.sol\";\n\ncontract EnergyManager is Initializable {\n\n  function initialize() public initializer {\n  }\n\n\n  function updatePoint(address _user, int _point) external {\n  }\n}\n",
  "sourcePath": "/Users/dung/Documents/sources/fota-dapp/contracts/utils/EnergyManager2.sol",
  "compiler": {
    "name": "solc",
    "version": "0.8.0+commit.c7dfd78e.Emscripten.clang"
  },
  "schemaVersion": "3.3.4",
  "updatedAt": "2022-03-03T04:57:24.644Z",
  "networkType": "ethereum",
  "devdoc": {
    "kind": "dev",
    "methods": {},
    "version": 1
  },
  "userdoc": {
    "kind": "user",
    "methods": {},
    "version": 1
  }
}