{
  "contractName": "EnergyManagerBak",
  "abi": [
    {
      "anonymous": false,
      "inputs": [
        {
          "indexed": true,
          "internalType": "address",
          "name": "_newOwner",
          "type": "address"
        }
      ],
      "name": "ContractAdminUpdated",
      "type": "event"
    },
    {
      "anonymous": false,
      "inputs": [
        {
          "indexed": false,
          "internalType": "uint256",
          "name": "amount",
          "type": "uint256"
        },
        {
          "indexed": false,
          "internalType": "uint256",
          "name": "timestamp",
          "type": "uint256"
        }
      ],
      "name": "EnergyMultiplicationUpdated",
      "type": "event"
    },
    {
      "anonymous": false,
      "inputs": [
        {
          "indexed": true,
          "internalType": "address",
          "name": "user",
          "type": "address"
        },
        {
          "indexed": false,
          "internalType": "uint256",
          "name": "remainingEnergy",
          "type": "uint256"
        },
        {
          "indexed": false,
          "internalType": "bool",
          "name": "firstConsumeInDay",
          "type": "bool"
        },
        {
          "indexed": false,
          "internalType": "address",
          "name": "gameAddress",
          "type": "address"
        }
      ],
      "name": "EnergyUpdated",
      "type": "event"
    },
    {
      "anonymous": false,
      "inputs": [
        {
          "indexed": false,
          "internalType": "uint256",
          "name": "amount",
          "type": "uint256"
        },
        {
          "indexed": false,
          "internalType": "uint256",
          "name": "timestamp",
          "type": "uint256"
        }
      ],
      "name": "MaxEnergyUpdated",
      "type": "event"
    },
    {
      "anonymous": false,
      "inputs": [
        {
          "indexed": true,
          "internalType": "address",
          "name": "_previousOwner",
          "type": "address"
        },
        {
          "indexed": true,
          "internalType": "address",
          "name": "_newOwner",
          "type": "address"
        }
      ],
      "name": "OwnershipTransferred",
      "type": "event"
    },
    {
      "inputs": [],
      "name": "_isContractAdmin",
      "outputs": [
        {
          "internalType": "bool",
          "name": "",
          "type": "bool"
        }
      ],
      "stateMutability": "view",
      "type": "function"
    },
    {
      "inputs": [],
      "name": "_isMainAdmin",
      "outputs": [
        {
          "internalType": "bool",
          "name": "",
          "type": "bool"
        }
      ],
      "stateMutability": "view",
      "type": "function"
    },
    {
      "inputs": [],
      "name": "contractAdmin",
      "outputs": [
        {
          "internalType": "address",
          "name": "",
          "type": "address"
        }
      ],
      "stateMutability": "view",
      "type": "function"
    },
    {
      "inputs": [
        {
          "internalType": "address",
          "name": "",
          "type": "address"
        }
      ],
      "name": "energies",
      "outputs": [
        {
          "internalType": "uint256",
          "name": "amount",
          "type": "uint256"
        },
        {
          "internalType": "uint256",
          "name": "from",
          "type": "uint256"
        },
        {
          "internalType": "uint256",
          "name": "to",
          "type": "uint256"
        }
      ],
      "stateMutability": "view",
      "type": "function"
    },
    {
      "inputs": [],
      "name": "energyMultiplication",
      "outputs": [
        {
          "internalType": "uint256",
          "name": "",
          "type": "uint256"
        }
      ],
      "stateMutability": "view",
      "type": "function"
    },
    {
      "inputs": [],
      "name": "heroNft",
      "outputs": [
        {
          "internalType": "contract IGameNFT",
          "name": "",
          "type": "address"
        }
      ],
      "stateMutability": "view",
      "type": "function"
    },
    {
      "inputs": [],
      "name": "mainAdmin",
      "outputs": [
        {
          "internalType": "address",
          "name": "",
          "type": "address"
        }
      ],
      "stateMutability": "view",
      "type": "function"
    },
    {
      "inputs": [],
      "name": "marketPlace",
      "outputs": [
        {
          "internalType": "contract IMarketPlace",
          "name": "",
          "type": "address"
        }
      ],
      "stateMutability": "view",
      "type": "function"
    },
    {
      "inputs": [],
      "name": "maxEnergy",
      "outputs": [
        {
          "internalType": "uint256",
          "name": "",
          "type": "uint256"
        }
      ],
      "stateMutability": "view",
      "type": "function"
    },
    {
      "inputs": [
        {
          "internalType": "address",
          "name": "_newOwner",
          "type": "address"
        }
      ],
      "name": "transferOwnership",
      "outputs": [],
      "stateMutability": "nonpayable",
      "type": "function"
    },
    {
      "inputs": [
        {
          "internalType": "address",
          "name": "_newAdmin",
          "type": "address"
        }
      ],
      "name": "updateContractAdmin",
      "outputs": [],
      "stateMutability": "nonpayable",
      "type": "function"
    },
    {
      "inputs": [
        {
          "internalType": "address",
          "name": "_contract",
          "type": "address"
        },
        {
          "internalType": "bool",
          "name": "_status",
          "type": "bool"
        }
      ],
      "name": "updateGameContract",
      "outputs": [],
      "stateMutability": "nonpayable",
      "type": "function"
    },
    {
      "inputs": [
        {
          "internalType": "address",
          "name": "_contract",
          "type": "address"
        },
        {
          "internalType": "bool",
          "name": "_status",
          "type": "bool"
        }
      ],
      "name": "updatePointContract",
      "outputs": [],
      "stateMutability": "nonpayable",
      "type": "function"
    },
    {
      "inputs": [
        {
          "internalType": "address",
          "name": "",
          "type": "address"
        }
      ],
      "name": "userTempPoint",
      "outputs": [
        {
          "internalType": "int256",
          "name": "",
          "type": "int256"
        }
      ],
      "stateMutability": "view",
      "type": "function"
    },
    {
      "inputs": [
        {
          "internalType": "address",
          "name": "_mainAdmin",
          "type": "address"
        }
      ],
      "name": "initialize",
      "outputs": [],
      "stateMutability": "nonpayable",
      "type": "function"
    },
    {
      "inputs": [
        {
          "internalType": "address",
          "name": "_user",
          "type": "address"
        },
        {
          "internalType": "uint256",
          "name": "_consumeAmount",
          "type": "uint256"
        }
      ],
      "name": "updateEnergy",
      "outputs": [
        {
          "internalType": "bool",
          "name": "",
          "type": "bool"
        }
      ],
      "stateMutability": "nonpayable",
      "type": "function"
    },
    {
      "inputs": [
        {
          "internalType": "address",
          "name": "_user",
          "type": "address"
        },
        {
          "internalType": "int256",
          "name": "_point",
          "type": "int256"
        }
      ],
      "name": "updatePoint",
      "outputs": [],
      "stateMutability": "nonpayable",
      "type": "function"
    },
    {
      "inputs": [
        {
          "internalType": "address",
          "name": "_user",
          "type": "address"
        }
      ],
      "name": "getUserCurrentEnergy",
      "outputs": [
        {
          "internalType": "uint256",
          "name": "",
          "type": "uint256"
        }
      ],
      "stateMutability": "view",
      "type": "function"
    },
    {
      "inputs": [
        {
          "internalType": "uint256",
          "name": "_amount",
          "type": "uint256"
        }
      ],
      "name": "updateMaxEnergy",
      "outputs": [],
      "stateMutability": "nonpayable",
      "type": "function"
    },
    {
      "inputs": [
        {
          "internalType": "uint256",
          "name": "_multiplication",
          "type": "uint256"
        }
      ],
      "name": "updateEnergyMultiplication",
      "outputs": [],
      "stateMutability": "nonpayable",
      "type": "function"
    },
    {
      "inputs": [
        {
          "internalType": "address",
          "name": "_heroNft",
          "type": "address"
        },
        {
          "internalType": "address",
          "name": "_marketplace",
          "type": "address"
        }
      ],
      "name": "setContracts",
      "outputs": [],
      "stateMutability": "nonpayable",
      "type": "function"
    }
  ],
  "bytecode": "0x608060405234801561001057600080fd5b5061116e806100206000396000f3fe608060405234801561001057600080fd5b50600436106101775760003560e01c8063b7d6caec116100d8578063d0ae37c71161008c578063e021b69311610066578063e021b693146102c6578063f2fde38b146102d9578063fb6b04ba146102ec57610177565b8063d0ae37c714610298578063d8952a49146102ab578063dcb2072d146102be57610177565b8063c4d66de8116100bd578063c4d66de81461026a578063cd92cb3b1461027d578063ce18290a1461028557610177565b8063b7d6caec14610240578063ba0380b21461024857610177565b806346c029d01161012f57806377955245116101145780637795524514610212578063a15f7e451461021a578063b26c44e31461022d57610177565b806346c029d0146101ec5780635d1a0500146101ff57610177565b80631ff9f034116101605780631ff9f034146101af5780632cde84a9146101c25780632e25d2a6146101d757610177565b806302e65b8a1461017c57806311541ce014610191575b600080fd5b61018f61018a366004610ca2565b6102f4565b005b61019961038b565b6040516101a69190610d9c565b60405180910390f35b61018f6101bd366004610d2f565b6103a2565b6101ca610446565b6040516101a69190610da7565b6101df61044c565b6040516101a69190610d88565b61018f6101fa366004610cf5565b61045b565b61019961020d366004610d2f565b6104d0565b6101df6105e7565b6101ca610228366004610ca2565b6105f6565b6101ca61023b366004610ca2565b610645565b610199610657565b61025b610256366004610ca2565b610668565b6040516101a693929190610faa565b61018f610278366004610ca2565b610689565b6101ca610712565b61018f610293366004610d58565b610718565b61018f6102a6366004610d58565b61079f565b61018f6102b9366004610cc3565b6107fa565b6101df610859565b61018f6102d4366004610cf5565b610868565b61018f6102e7366004610ca2565b6108dd565b6101df610976565b6102fc61038b565b6103215760405162461bcd60e51b815260040161031890610e44565b60405180910390fd5b6001600160a01b03811661033457600080fd5b6001805473ffffffffffffffffffffffffffffffffffffffff19166001600160a01b0383169081179091556040517fe3f4a4b5b74aa6830627cb87c50cf7d4ed56e9b246729179ba634bbdc873177a90600090a250565b6000546201000090046001600160a01b0316331490565b6103aa61098b565b806103b857506103b861038b565b6103d45760405162461bcd60e51b815260040161031890610f0f565b6001600160a01b0382166000908152603860205260409020600281015442118015610413576001600160a01b0384166000908152603960205260408120555b6001600160a01b0384166000908152603960205260408120805485929061043b908490610fc0565b909155505050505050565b603a5481565b6037546001600160a01b031681565b61046361038b565b61047f5760405162461bcd60e51b815260040161031890610e44565b6001600160a01b0382166104a55760405162461bcd60e51b815260040161031890610e7b565b6001600160a01b03919091166000908152603560205260409020805460ff1916911515919091179055565b60006104da6109bb565b806104e857506104e861038b565b6105045760405162461bcd60e51b815260040161031890610db0565b33600090815260386020526040902060028101544211801561055b57836105296109c9565b61053391906110eb565b825561053d610b94565b600183018190556105519061070890611018565b6002830155610596565b815484111561057c5760405162461bcd60e51b815260040161031890610eb2565b8382600001600082825461059091906110eb565b90915550505b846001600160a01b03167ff9554ca0edea53a0c7adf135b8cb44321e8b6b4ff62099bee1cb32378b69379a836000015483336040516105d793929190610f7d565b60405180910390a2949350505050565b6001546001600160a01b031681565b3360009081526038602052604081206002810154421180156106235761061a6109c9565b92505050610640565b5050506001600160a01b0381166000908152603860205260409020545b919050565b60396020526000908152604090205481565b6001546001600160a01b0316331490565b60386020526000908152604090208054600182015460029092015490919083565b600054610100900460ff16806106a2575060005460ff16155b6106be5760405162461bcd60e51b815260040161031890610de7565b600054610100900460ff161580156106e9576000805460ff1961ff0019909116610100171660011790555b6106f282610bb1565b601e603a556001603b55801561070e576000805461ff00191690555b5050565b603b5481565b61072061038b565b61073c5760405162461bcd60e51b815260040161031890610e44565b600181101561075d5760405162461bcd60e51b815260040161031890610f46565b603b8190556040517fef527a04fa3f22a0bf8e15a67c38ed629cbe8688528f749e0aa7ad90a5156567906107949083904290610f9c565b60405180910390a150565b6107a761038b565b6107c35760405162461bcd60e51b815260040161031890610e44565b603a8190556040517fad517e465ea65d51ea388d3f1d1ae5db596e3d85e384ed63a2fa1cf6c12acce3906107949083904290610f9c565b61080261038b565b61081e5760405162461bcd60e51b815260040161031890610e44565b603680546001600160a01b0393841673ffffffffffffffffffffffffffffffffffffffff199182161790915560378054929093169116179055565b6036546001600160a01b031681565b61087061038b565b61088c5760405162461bcd60e51b815260040161031890610e44565b6001600160a01b0382166108b25760405162461bcd60e51b815260040161031890610e7b565b6001600160a01b03919091166000908152603460205260409020805460ff1916911515919091179055565b6108e561038b565b6109015760405162461bcd60e51b815260040161031890610e44565b6001600160a01b03811661091457600080fd5b6000805475ffffffffffffffffffffffffffffffffffffffff00001916620100006001600160a01b038416908102919091178255604051909133917f8be0079c531659141344cd1fd0a4f28419497f9722a3daafe3b4186f6b6457e09190a350565b6000546201000090046001600160a01b031681565b600060356000610999610bbd565b6001600160a01b0316815260208101919091526040016000205460ff16905090565b600060346000610999610bbd565b6036546040517f70a0823100000000000000000000000000000000000000000000000000000000815260009182916001600160a01b03909116906370a0823190610a17903390600401610d88565b60206040518083038186803b158015610a2f57600080fd5b505afa158015610a43573d6000803e3d6000fd5b505050506040513d601f19601f82011682018060405250810190610a679190610d70565b6037546040517f47a0c85e0000000000000000000000000000000000000000000000000000000081529192506000916001600160a01b03909116906347a0c85e90610ab6903390600401610d88565b60206040518083038186803b158015610ace57600080fd5b505afa158015610ae2573d6000803e3d6000fd5b505050506040513d601f19601f82011682018060405250810190610b069190610d70565b3360009081526039602052604081205491925090811315610b425733600090815260396020526040902054610b3d90600019611030565b610b53565b336000908152603960205260409020545b90506000603b54828486610b679190611018565b610b7191906110eb565b610b7b91906110cc565b9050603a54811115610b8c5750603a545b935050505090565b6000610ba261070842611102565b610bac90426110eb565b905090565b610bba81610bc1565b50565b3390565b600054610100900460ff1680610bda575060005460ff16155b610bf65760405162461bcd60e51b815260040161031890610de7565b600054610100900460ff16158015610c21576000805460ff1961ff0019909116610100171660011790555b6000805475ffffffffffffffffffffffffffffffffffffffff00001916620100006001600160a01b038516908102919091179091556001805473ffffffffffffffffffffffffffffffffffffffff19169091179055801561070e576000805461ff00191690555050565b80356001600160a01b038116811461064057600080fd5b600060208284031215610cb3578081fd5b610cbc82610c8b565b9392505050565b60008060408385031215610cd5578081fd5b610cde83610c8b565b9150610cec60208401610c8b565b90509250929050565b60008060408385031215610d07578182fd5b610d1083610c8b565b915060208301358015158114610d24578182fd5b809150509250929050565b60008060408385031215610d41578182fd5b610d4a83610c8b565b946020939093013593505050565b600060208284031215610d69578081fd5b5035919050565b600060208284031215610d81578081fd5b5051919050565b6001600160a01b0391909116815260200190565b901515815260200190565b90815260200190565b6020808252601b908201527f4e4654417574683a204f6e6c792067616d6520636f6e74726163740000000000604082015260600190565b6020808252602e908201527f496e697469616c697a61626c653a20636f6e747261637420697320616c72656160408201527f647920696e697469616c697a6564000000000000000000000000000000000000606082015260800190565b6020808252600d908201527f6f6e6c794d61696e41646d696e00000000000000000000000000000000000000604082015260600190565b60208082526018908201527f4e4654417574683a204164647265737320696e76616c69640000000000000000604082015260600190565b60208082526025908201527f456e657267794d616e616765723a20636f6e73756d6520616d6f756e7420696e60408201527f76616c6964000000000000000000000000000000000000000000000000000000606082015260800190565b6020808252601c908201527f4e4654417574683a204f6e6c7920706f696e7420636f6e747261637400000000604082015260600190565b6020808252601b908201527f456e657267794d616e616765723a20696e76616c696420646174610000000000604082015260600190565b92835290151560208301526001600160a01b0316604082015260600190565b918252602082015260400190565b9283526020830191909152604082015260600190565b6000808212827f7fffffffffffffffffffffffffffffffffffffffffffffffffffffffffffffff03841381151615610ffa57610ffa611122565b82600160ff1b03841281161561101257611012611122565b50500190565b6000821982111561102b5761102b611122565b500190565b60007f7fffffffffffffffffffffffffffffffffffffffffffffffffffffffffffffff8184138284138583048511828216161561106f5761106f611122565b600160ff1b8487128682058812818416161561108d5761108d611122565b8587129250878205871284841616156110a8576110a8611122565b878505871281841616156110be576110be611122565b505050929093029392505050565b60008160001904831182151516156110e6576110e6611122565b500290565b6000828210156110fd576110fd611122565b500390565b60008261111d57634e487b7160e01b81526012600452602481fd5b500690565b634e487b7160e01b600052601160045260246000fdfea264697066735822122020d7c12bcd97e1d90f2377308fb7ff8097139f65d010b7d29e97e4d50fba29cd64736f6c63430008000033",
  "immutableReferences": {},
  "source": "// SPDX-License-Identifier: GPL\n\npragma solidity 0.8.0;\n\nimport \"../libs/fota/Auth.sol\";\nimport \"@openzeppelin/contracts-upgradeable/utils/ContextUpgradeable.sol\";\nimport \"../interfaces/IGameNFT.sol\";\nimport \"../interfaces/IMarketPlace.sol\";\nimport \"../interfaces/IEnergyManager.sol\";\nimport \"../interfaces/IEnergyManager.sol\";\n\nabstract contract EnergyAuth is Auth, ContextUpgradeable {\n  mapping(address => bool) gameContracts;\n  mapping(address => bool) pointContracts;\n\n  function initialize(address _mainAdmin) virtual override public {\n    Auth.initialize(_mainAdmin);\n  }\n\n  modifier onlyGameContract() {\n    require(_isGameContracts() || _isMainAdmin(), \"NFTAuth: Only game contract\");\n    _;\n  }\n\n  modifier onlyPointContract() {\n    require(_isPointContracts() || _isMainAdmin(), \"NFTAuth: Only point contract\");\n    _;\n  }\n\n  function _isGameContracts() internal view returns (bool) {\n    return gameContracts[_msgSender()];\n  }\n\n  function _isPointContracts() internal view returns (bool) {\n    return pointContracts[_msgSender()];\n  }\n\n  function updateGameContract(address _contract, bool _status) onlyMainAdmin external {\n    require(_contract != address(0), \"NFTAuth: Address invalid\");\n    gameContracts[_contract] = _status;\n  }\n\n  function updatePointContract(address _contract, bool _status) onlyMainAdmin external {\n    require(_contract != address(0), \"NFTAuth: Address invalid\");\n    pointContracts[_contract] = _status;\n  }\n}\n\ncontract EnergyManagerBak is EnergyAuth {\n  struct Energy {\n    uint amount;\n    uint from;\n    uint to;\n  }\n  IGameNFT public heroNft;\n  IMarketPlace public marketPlace;\n  mapping (address => Energy) public energies;\n  mapping (address => int) public userTempPoint;\n  uint public maxEnergy;\n  uint public energyMultiplication;\n//  uint constant secondInADay = 86400; // 24 * 60 * 60\n  uint constant secondInADay = 1800; // 24 * 60 * 60\n\n  event MaxEnergyUpdated(uint amount, uint timestamp);\n  event EnergyMultiplicationUpdated(uint amount, uint timestamp);\n  event EnergyUpdated(\n    address indexed user,\n    uint remainingEnergy,\n    bool firstConsumeInDay,\n    address gameAddress\n  );\n\n  function initialize(address _mainAdmin) override public initializer {\n    super.initialize(_mainAdmin);\n    maxEnergy = 30;\n    energyMultiplication = 1;\n//    heroNft = IGameNFT(0x9F007C4Ef2fCFaacA5f135680Df4b596195ed61d); TODO mainnet\n//    marketPlace = IMarketPlace(0x57573e2239C0A9E67E74D8AC8EA590E8FD99fA63);\n  }\n\n  function updateEnergy(address _user, uint _consumeAmount) external onlyGameContract returns (bool) {\n    Energy storage energy = energies[msg.sender];\n    bool firstConsumeInDay = block.timestamp > energy.to;\n    if (firstConsumeInDay) {\n      energy.amount = _calculateUserTodayEnergy() - _consumeAmount;\n      energy.from = _getStartOfDay();\n      energy.to = energy.from + secondInADay;\n    } else {\n      require(energy.amount >= _consumeAmount, \"EnergyManager: consume amount invalid\");\n      energy.amount -= _consumeAmount;\n    }\n    emit EnergyUpdated(_user, energy.amount, firstConsumeInDay, msg.sender);\n    return firstConsumeInDay;\n  }\n\n  function updatePoint(address _user, int _point) external onlyPointContract {\n    Energy storage energy = energies[_user];\n    bool firstPointInDay = block.timestamp > energy.to;\n    if (firstPointInDay) {\n      userTempPoint[_user] = 0;\n    }\n    userTempPoint[_user] += _point;\n  }\n\n  function getUserCurrentEnergy(address _user) external view returns (uint) {\n    Energy storage energy = energies[msg.sender];\n    bool firstConsumeInDay = block.timestamp > energy.to;\n    if (firstConsumeInDay) {\n      return _calculateUserTodayEnergy();\n    }\n    return energies[_user].amount;\n  }\n\n  // PRIVATE FUNCTIONS\n\n  function _getStartOfDay() private view returns (uint) {\n    return block.timestamp - block.timestamp % secondInADay;\n  }\n\n  function _calculateUserTodayEnergy() private view returns (uint) {\n    uint owned = heroNft.balanceOf(msg.sender);\n    uint rented = marketPlace.currentRentedHeroCounter(msg.sender);\n    uint point = userTempPoint[msg.sender] >= 0 ? uint(userTempPoint[msg.sender]) : uint (userTempPoint[msg.sender] * -1);\n    uint energy = (owned + rented - point) * energyMultiplication;\n    if (energy > maxEnergy) {\n      energy = maxEnergy;\n    }\n    return energy;\n  }\n\n  // ADMIN FUNCTIONS\n\n  function updateMaxEnergy(uint _amount) external onlyMainAdmin {\n    maxEnergy = _amount;\n    emit MaxEnergyUpdated(maxEnergy, block.timestamp);\n  }\n\n  function updateEnergyMultiplication(uint _multiplication) external onlyMainAdmin {\n    require(_multiplication >= 1, \"EnergyManager: invalid data\");\n    energyMultiplication = _multiplication;\n    emit EnergyMultiplicationUpdated(_multiplication, block.timestamp);\n  }\n\n  // TODO for testing purpose\n\n  function setContracts(address _heroNft, address _marketplace) external onlyMainAdmin {\n    heroNft = IGameNFT(_heroNft);\n    marketPlace = IMarketPlace(_marketplace);\n  }\n}\n",
  "sourcePath": "/Users/dung/Documents/sources/fota-dapp/contracts/utils/EnergyManager.sol",
  "compiler": {
    "name": "solc",
    "version": "0.8.0+commit.c7dfd78e.Emscripten.clang"
  },
  "schemaVersion": "3.3.4",
  "updatedAt": "2022-03-03T04:51:26.709Z",
  "devdoc": {
    "kind": "dev",
    "methods": {},
    "version": 1
  },
  "userdoc": {
    "kind": "user",
    "methods": {},
    "version": 1
  }
}