{
  "contractName": "FOTAGamePVE",
  "abi": [
    {
      "anonymous": false,
      "inputs": [
        {
          "indexed": true,
          "internalType": "address",
          "name": "_newOwner",
          "type": "address"
        }
      ],
      "name": "ContractAdminUpdated",
      "type": "event"
    },
    {
      "anonymous": false,
      "inputs": [
        {
          "indexed": false,
          "internalType": "uint256",
          "name": "energyConsumption",
          "type": "uint256"
        }
      ],
      "name": "EnergyConsumptionUpdated",
      "type": "event"
    },
    {
      "anonymous": false,
      "inputs": [
        {
          "indexed": false,
          "internalType": "uint256",
          "name": "amount",
          "type": "uint256"
        },
        {
          "indexed": false,
          "internalType": "uint256",
          "name": "timestamp",
          "type": "uint256"
        }
      ],
      "name": "MaxRewardUpdated",
      "type": "event"
    },
    {
      "anonymous": false,
      "inputs": [
        {
          "indexed": false,
          "internalType": "uint256",
          "name": "id",
          "type": "uint256"
        },
        {
          "indexed": false,
          "internalType": "uint256",
          "name": "reward",
          "type": "uint256"
        },
        {
          "indexed": false,
          "internalType": "address",
          "name": "owner",
          "type": "address"
        },
        {
          "indexed": false,
          "internalType": "uint256",
          "name": "timestamp",
          "type": "uint256"
        }
      ],
      "name": "MissionAdded",
      "type": "event"
    },
    {
      "anonymous": false,
      "inputs": [
        {
          "indexed": false,
          "internalType": "uint256",
          "name": "id",
          "type": "uint256"
        },
        {
          "indexed": false,
          "internalType": "uint256",
          "name": "reward",
          "type": "uint256"
        },
        {
          "indexed": false,
          "internalType": "address",
          "name": "owner",
          "type": "address"
        },
        {
          "indexed": false,
          "internalType": "uint256",
          "name": "timestamp",
          "type": "uint256"
        }
      ],
      "name": "MissionUpdated",
      "type": "event"
    },
    {
      "anonymous": false,
      "inputs": [
        {
          "indexed": false,
          "internalType": "enum FOTAGamePVE.Mode",
          "name": "mode",
          "type": "uint8"
        },
        {
          "indexed": false,
          "internalType": "uint256",
          "name": "timestamp",
          "type": "uint256"
        }
      ],
      "name": "ModeUpdated",
      "type": "event"
    },
    {
      "anonymous": false,
      "inputs": [
        {
          "indexed": true,
          "internalType": "address",
          "name": "_previousOwner",
          "type": "address"
        },
        {
          "indexed": true,
          "internalType": "address",
          "name": "_newOwner",
          "type": "address"
        }
      ],
      "name": "OwnershipTransferred",
      "type": "event"
    },
    {
      "inputs": [],
      "name": "_isContractAdmin",
      "outputs": [
        {
          "internalType": "bool",
          "name": "",
          "type": "bool"
        }
      ],
      "stateMutability": "view",
      "type": "function"
    },
    {
      "inputs": [],
      "name": "_isMainAdmin",
      "outputs": [
        {
          "internalType": "bool",
          "name": "",
          "type": "bool"
        }
      ],
      "stateMutability": "view",
      "type": "function"
    },
    {
      "inputs": [],
      "name": "contractAdmin",
      "outputs": [
        {
          "internalType": "address",
          "name": "",
          "type": "address"
        }
      ],
      "stateMutability": "view",
      "type": "function"
    },
    {
      "inputs": [],
      "name": "energyConsumption",
      "outputs": [
        {
          "internalType": "uint256",
          "name": "",
          "type": "uint256"
        }
      ],
      "stateMutability": "view",
      "type": "function"
    },
    {
      "inputs": [],
      "name": "energyManager",
      "outputs": [
        {
          "internalType": "contract IEnergyManager",
          "name": "",
          "type": "address"
        }
      ],
      "stateMutability": "view",
      "type": "function"
    },
    {
      "inputs": [],
      "name": "mainAdmin",
      "outputs": [
        {
          "internalType": "address",
          "name": "",
          "type": "address"
        }
      ],
      "stateMutability": "view",
      "type": "function"
    },
    {
      "inputs": [],
      "name": "maxReward",
      "outputs": [
        {
          "internalType": "uint256",
          "name": "",
          "type": "uint256"
        }
      ],
      "stateMutability": "view",
      "type": "function"
    },
    {
      "inputs": [
        {
          "internalType": "uint256",
          "name": "",
          "type": "uint256"
        }
      ],
      "name": "missions",
      "outputs": [
        {
          "internalType": "uint256",
          "name": "id",
          "type": "uint256"
        },
        {
          "internalType": "uint256",
          "name": "reward",
          "type": "uint256"
        },
        {
          "internalType": "address",
          "name": "owner",
          "type": "address"
        }
      ],
      "stateMutability": "view",
      "type": "function"
    },
    {
      "inputs": [],
      "name": "mode",
      "outputs": [
        {
          "internalType": "enum FOTAGamePVE.Mode",
          "name": "",
          "type": "uint8"
        }
      ],
      "stateMutability": "view",
      "type": "function"
    },
    {
      "inputs": [
        {
          "internalType": "address",
          "name": "",
          "type": "address"
        }
      ],
      "name": "nonces",
      "outputs": [
        {
          "internalType": "uint256",
          "name": "",
          "type": "uint256"
        }
      ],
      "stateMutability": "view",
      "type": "function"
    },
    {
      "inputs": [],
      "name": "rewardManager",
      "outputs": [
        {
          "internalType": "contract IRewardManager",
          "name": "",
          "type": "address"
        }
      ],
      "stateMutability": "view",
      "type": "function"
    },
    {
      "inputs": [
        {
          "internalType": "address",
          "name": "",
          "type": "address"
        }
      ],
      "name": "rewarded",
      "outputs": [
        {
          "internalType": "uint256",
          "name": "",
          "type": "uint256"
        }
      ],
      "stateMutability": "view",
      "type": "function"
    },
    {
      "inputs": [],
      "name": "totalMissions",
      "outputs": [
        {
          "internalType": "uint256",
          "name": "",
          "type": "uint256"
        }
      ],
      "stateMutability": "view",
      "type": "function"
    },
    {
      "inputs": [
        {
          "internalType": "address",
          "name": "_newOwner",
          "type": "address"
        }
      ],
      "name": "transferOwnership",
      "outputs": [],
      "stateMutability": "nonpayable",
      "type": "function"
    },
    {
      "inputs": [
        {
          "internalType": "address",
          "name": "_newAdmin",
          "type": "address"
        }
      ],
      "name": "updateContractAdmin",
      "outputs": [],
      "stateMutability": "nonpayable",
      "type": "function"
    },
    {
      "inputs": [
        {
          "internalType": "string",
          "name": "_name",
          "type": "string"
        },
        {
          "internalType": "string",
          "name": "_version",
          "type": "string"
        },
        {
          "internalType": "address",
          "name": "_mainAdmin",
          "type": "address"
        },
        {
          "internalType": "address",
          "name": "_energyManager",
          "type": "address"
        }
      ],
      "name": "initialize",
      "outputs": [],
      "stateMutability": "nonpayable",
      "type": "function"
    },
    {
      "inputs": [
        {
          "internalType": "address",
          "name": "_mainAdmin",
          "type": "address"
        }
      ],
      "name": "initialize",
      "outputs": [],
      "stateMutability": "nonpayable",
      "type": "function"
    },
    {
      "inputs": [
        {
          "internalType": "address",
          "name": "_inviter",
          "type": "address"
        }
      ],
      "name": "validateInviter",
      "outputs": [
        {
          "internalType": "bool",
          "name": "",
          "type": "bool"
        }
      ],
      "stateMutability": "view",
      "type": "function"
    },
    {
      "inputs": [
        {
          "internalType": "uint256",
          "name": "_mission",
          "type": "uint256"
        },
        {
          "internalType": "bytes",
          "name": "_signature",
          "type": "bytes"
        }
      ],
      "name": "finishGame",
      "outputs": [],
      "stateMutability": "nonpayable",
      "type": "function"
    },
    {
      "inputs": [
        {
          "internalType": "uint256",
          "name": "_reward",
          "type": "uint256"
        },
        {
          "internalType": "address",
          "name": "_owner",
          "type": "address"
        }
      ],
      "name": "addMission",
      "outputs": [],
      "stateMutability": "nonpayable",
      "type": "function"
    },
    {
      "inputs": [
        {
          "internalType": "uint256",
          "name": "_id",
          "type": "uint256"
        },
        {
          "internalType": "uint256",
          "name": "_reward",
          "type": "uint256"
        },
        {
          "internalType": "address",
          "name": "_owner",
          "type": "address"
        }
      ],
      "name": "updateMission",
      "outputs": [],
      "stateMutability": "nonpayable",
      "type": "function"
    },
    {
      "inputs": [
        {
          "internalType": "uint256",
          "name": "_energyConsumption",
          "type": "uint256"
        }
      ],
      "name": "updateEnergyConsumption",
      "outputs": [],
      "stateMutability": "nonpayable",
      "type": "function"
    },
    {
      "inputs": [
        {
          "internalType": "enum FOTAGamePVE.Mode",
          "name": "_mode",
          "type": "uint8"
        }
      ],
      "name": "updateMode",
      "outputs": [],
      "stateMutability": "nonpayable",
      "type": "function"
    },
    {
      "inputs": [
        {
          "internalType": "uint256",
          "name": "_maxReward",
          "type": "uint256"
        }
      ],
      "name": "updateMaxReward",
      "outputs": [],
      "stateMutability": "nonpayable",
      "type": "function"
    }
  ],
  "bytecode": "0x608060405234801561001057600080fd5b50611b81806100206000396000f3fe608060405234801561001057600080fd5b50600436106101985760003560e01c806377955245116100e3578063c18bcb0e1161008c578063d303059811610066578063d303059814610317578063f2fde38b1461032a578063fb6b04ba1461033d57610198565b8063c18bcb0e146102de578063c2890305146102f1578063c4d66de81461030457610198565b80638f15b414116100bd5780638f15b414146102bb578063afb6354a146102ce578063b7d6caec146102d657610198565b8063779552451461028d5780637ecebe00146102955780638726e5d1146102a857610198565b8063307a22a21161014557806366a78e6c1161011f57806366a78e6c1461026a57806368bb26661461027257806373e330d61461027a57610198565b8063307a22a214610231578063379f53e31461024457806344cf7f5e1461025757610198565b8063295a521211610176578063295a5212146101e55780632c8fe526146101fa5780632f5761ac1461021c57610198565b806302e65b8a1461019d5780630f4ef8a6146101b257806311541ce0146101d0575b600080fd5b6101b06101ab3660046114a0565b610345565b005b6101ba6103cf565b6040516101c791906116ba565b60405180910390f35b6101d86103de565b6040516101c791906116e7565b6101ed6103f5565b6040516101c79190611760565b61020d61020836600461157b565b6103fe565b6040516101c793929190611a72565b610224610428565b6040516101c79190611a5b565b6101d861023f3660046114a0565b61042e565b6102246102523660046114a0565b610448565b6101b06102653660046115ab565b61045a565b610224610532565b610224610538565b6101b061028836600461162e565b61053e565b6101ba6105d6565b6102246102a33660046114a0565b6105e5565b6101b06102b63660046114da565b6105f7565b6101b06102c93660046114f9565b610690565b6101ba61073f565b6101d861074e565b6101b06102ec3660046115d6565b61075f565b6101b06102ff36600461157b565b610929565b6101b06103123660046114a0565b6109a4565b6101b061032536600461157b565b610a62565b6101b06103383660046114a0565b610abb565b6101ba610b54565b61034d6103de565b6103725760405162461bcd60e51b8152600401610369906119ed565b60405180910390fd5b6001600160a01b03811661038557600080fd5b600180546001600160a01b0319166001600160a01b0383169081179091556040517fe3f4a4b5b74aa6830627cb87c50cf7d4ed56e9b246729179ba634bbdc873177a90600090a250565b6037546001600160a01b031681565b6000546201000090046001600160a01b0316331490565b603b5460ff1681565b603e602052600090815260409020805460018201546002909201549091906001600160a01b031683565b60385481565b6000546201000090046001600160a01b031615155b919050565b603d6020526000908152604090205481565b6104626103de565b61047e5760405162461bcd60e51b8152600401610369906119ed565b6038805490600061048e83611b04565b9091555050604080516060810182526038805480835260208084018781526001600160a01b038781168688019081526000948552603e909352928690209451855551600185015551600290930180546001600160a01b03191693909116929092179091555490517f4508214f7b13f6aecf587d661d148462acaa59f77de77b6f4e1bded6cd73d1da9161052691859085904290611a91565b60405180910390a15050565b603a5481565b60395481565b6105466103de565b6105625760405162461bcd60e51b8152600401610369906119ed565b6000838152603e6020526040908190206001810184905560020180546001600160a01b0319166001600160a01b038416179055517f5b480602d7597722f7d5b8bb84ad0d87266c9e03ebeaf4d8cfc4d772f9a25c8d906105c9908590859085904290611a91565b60405180910390a1505050565b6001546001600160a01b031681565b603c6020526000908152604090205481565b6105ff6103de565b61061b5760405162461bcd60e51b8152600401610369906119ed565b603b805482919060ff19166001838181111561064757634e487b7160e01b600052602160045260246000fd5b0217905550603b546040517fba4099f51923722627240d3fa3e5b16ccbc999865af55d9db3eacffd91344865916106859160ff90911690429061176e565b60405180910390a150565b600054610100900460ff16806106a9575060005460ff16155b6106c55760405162461bcd60e51b81526004016103699061194e565b600054610100900460ff161580156106f0576000805460ff1961ff0019909116610100171660011790555b6106f9836109a4565b6107038585610b69565b603680546001600160a01b0319166001600160a01b038416179055610726610bea565b8015610738576000805461ff00191690555b5050505050565b6036546001600160a01b031681565b6001546001600160a01b0316331490565b6107698282610c8f565b6036546040517fa15f7e450000000000000000000000000000000000000000000000000000000081526000916001600160a01b03169063a15f7e45906107b39033906004016116ba565b60206040518083038186803b1580156107cb57600080fd5b505afa1580156107df573d6000803e3d6000fd5b505050506040513d601f19601f820116820180604052508101906108039190611593565b6036546039546040517f5d1a05000000000000000000000000000000000000000000000000000000000081529293506000926001600160a01b0390921691635d1a050091610856913391906004016116ce565b602060405180830381600087803b15801561087057600080fd5b505af1158015610884573d6000803e3d6000fd5b505050506040513d601f19601f820116820180604052508101906108a891906114ba565b905080806108b857506039548210155b156108d4576108c78482610d9b565b6108cf610efd565b610923565b6000603b5460ff1660018111156108fb57634e487b7160e01b600052602160045260246000fd5b14156109195760405162461bcd60e51b81526004016103699061181b565b6109238482610d9b565b50505050565b6109316103de565b61094d5760405162461bcd60e51b8152600401610369906119ed565b6000811161096d5760405162461bcd60e51b81526004016103699061181b565b603a8190556040517f64cc8b0bc5d539e03bf1ff414d078447028c16f47fc95ef5b7612a6a0b723607906106859083904290611a64565b600054610100900460ff16806109bd575060005460ff16155b6109d95760405162461bcd60e51b81526004016103699061194e565b600054610100900460ff16158015610a04576000805460ff1961ff0019909116610100171660011790555b6000805475ffffffffffffffffffffffffffffffffffffffff00001916620100006001600160a01b03851690810291909117909155600180546001600160a01b03191690911790558015610a5e576000805461ff00191690555b5050565b610a6a6103de565b610a865760405162461bcd60e51b8152600401610369906119ed565b60398190556040517f7ad2b960432511b8013a982dcfddc0a451d666f7533e76214c6dc9bd722fd25890610685908390611a5b565b610ac36103de565b610adf5760405162461bcd60e51b8152600401610369906119ed565b6001600160a01b038116610af257600080fd5b6000805475ffffffffffffffffffffffffffffffffffffffff00001916620100006001600160a01b038416908102919091178255604051909133917f8be0079c531659141344cd1fd0a4f28419497f9722a3daafe3b4186f6b6457e09190a350565b6000546201000090046001600160a01b031681565b600054610100900460ff1680610b82575060005460ff16155b610b9e5760405162461bcd60e51b81526004016103699061194e565b600054610100900460ff16158015610bc9576000805460ff1961ff0019909116610100171660011790555b610bd38383610eff565b8015610be5576000805461ff00191690555b505050565b603b805460ff19169055601e60385560016039819055603780546001600160a01b03191690555b6038548111610c8c5760408051606081018252828152670de0b6b3a764000060208083019182526000838501818152868252603e90925293909320915182555160018201559051600290910180546001600160a01b0319166001600160a01b0390921691909117905580610c8481611b04565b915050610c11565b50565b603854821115610cb15760405162461bcd60e51b815260040161036990611a24565b336000818152603c602090815260408083205490519293610d1693610cfb937f8d55157429ceb286e61b5951aff4a5e01bbbd917f057e95b085fdde40f27509b93918991016116f2565b60405160208183030381529060405280519060200120610f92565b336000908152603c60205260408120805492935090610d3483611b04565b91905055506000610d458284610fab565b6001549091506001600160a01b03808316911614610d755760405162461bcd60e51b8152600401610369906118f1565b6001600160a01b0381166109235760405162461bcd60e51b815260040161036990611894565b6000610da78383610fcf565b6000848152603e60205260409020600201549091506001600160a01b031615610e78576000610dd7606483611acd565b9050610de38183611aed565b6037546000868152603e6020526040908190206002015490517f9fc16f950000000000000000000000000000000000000000000000000000000081529294506001600160a01b0391821692639fc16f9592610e4492169085906004016116ce565b600060405180830381600087803b158015610e5e57600080fd5b505af1158015610e72573d6000803e3d6000fd5b50505050505b6037546040517f2c21d3250000000000000000000000000000000000000000000000000000000081526001600160a01b0390911690632c21d32590610ec69060019033908690600401611789565b600060405180830381600087803b158015610ee057600080fd5b505af1158015610ef4573d6000803e3d6000fd5b50505050505050565b565b600054610100900460ff1680610f18575060005460ff16155b610f345760405162461bcd60e51b81526004016103699061194e565b600054610100900460ff16158015610f5f576000805460ff1961ff0019909116610100171660011790555b82516020808501919091208351918401919091206002919091556003558015610be5576000805461ff0019169055505050565b6000610fa5610f9f61107c565b836110bc565b92915050565b6000806000610fba85856110ef565b91509150610fc78161115f565b509392505050565b6000828152603e6020526040812060010154821561100d57603a54811115610ff65750603a545b336000908152603d60205260409020819055611075565b603a54336000908152603d602052604090205461102b908390611ab5565b1061105057336000908152603d6020526040902054603a5461104d9190611aed565b90505b336000908152603d60205260408120805483929061106f908490611ab5565b90915550505b9392505050565b60006110b77f8b73c3c69bb8fe3d512ecc4cf759cc79239f7b179b0ffacaa9a75d522b39400f6110aa61128c565b6110b2611292565b611298565b905090565b600082826040516020016110d1929190611684565b60405160208183030381529060405280519060200120905092915050565b6000808251604114156111265760208301516040840151606085015160001a61111a878285856112d2565b94509450505050611158565b82516040141561115057602083015160408401516111458683836113b2565b935093505050611158565b506000905060025b9250929050565b600081600481111561118157634e487b7160e01b600052602160045260246000fd5b141561118c57610c8c565b60018160048111156111ae57634e487b7160e01b600052602160045260246000fd5b14156111cc5760405162461bcd60e51b8152600401610369906117ad565b60028160048111156111ee57634e487b7160e01b600052602160045260246000fd5b141561120c5760405162461bcd60e51b8152600401610369906117e4565b600381600481111561122e57634e487b7160e01b600052602160045260246000fd5b141561124c5760405162461bcd60e51b815260040161036990611852565b600481600481111561126e57634e487b7160e01b600052602160045260246000fd5b1415610c8c5760405162461bcd60e51b8152600401610369906119ab565b60025490565b60035490565b600083838346306040516020016112b3959493929190611716565b6040516020818303038152906040528051906020012090509392505050565b6000807f7fffffffffffffffffffffffffffffff5d576e7357a4501ddfe92f46681b20a083111561130957506000905060036113a9565b8460ff16601b1415801561132157508460ff16601c14155b1561133257506000905060046113a9565b6000600187878787604051600081526020016040526040516113579493929190611742565b6020604051602081039080840390855afa158015611379573d6000803e3d6000fd5b5050604051601f1901519150506001600160a01b0381166113a2576000600192509250506113a9565b9150600090505b94509492505050565b6000807f7fffffffffffffffffffffffffffffffffffffffffffffffffffffffffffffff831660ff84901c601b016113ec878288856112d2565b935093505050935093915050565b600067ffffffffffffffff8084111561141557611415611b35565b604051601f8501601f19168101602001828111828210171561143957611439611b35565b60405284815291508183850186101561145157600080fd5b8484602083013760006020868301015250509392505050565b80356001600160a01b038116811461044357600080fd5b600082601f830112611491578081fd5b611075838335602085016113fa565b6000602082840312156114b1578081fd5b6110758261146a565b6000602082840312156114cb578081fd5b81518015158114611075578182fd5b6000602082840312156114eb578081fd5b813560028110611075578182fd5b6000806000806080858703121561150e578283fd5b843567ffffffffffffffff80821115611525578485fd5b61153188838901611481565b95506020870135915080821115611546578485fd5b5061155387828801611481565b9350506115626040860161146a565b91506115706060860161146a565b905092959194509250565b60006020828403121561158c578081fd5b5035919050565b6000602082840312156115a4578081fd5b5051919050565b600080604083850312156115bd578182fd5b823591506115cd6020840161146a565b90509250929050565b600080604083850312156115e8578182fd5b82359150602083013567ffffffffffffffff811115611605578182fd5b8301601f81018513611615578182fd5b611624858235602084016113fa565b9150509250929050565b600080600060608486031215611642578283fd5b83359250602084013591506116596040850161146a565b90509250925092565b6002811061168057634e487b7160e01b600052602160045260246000fd5b9052565b7f190100000000000000000000000000000000000000000000000000000000000081526002810192909252602282015260420190565b6001600160a01b0391909116815260200190565b6001600160a01b03929092168252602082015260400190565b901515815260200190565b9384526001600160a01b039290921660208401526040830152606082015260800190565b9485526020850193909352604084019190915260608301526001600160a01b0316608082015260a00190565b93845260ff9290921660208401526040830152606082015260800190565b60208101610fa58284611662565b6040810161177c8285611662565b8260208301529392505050565b60ff9390931683526001600160a01b03919091166020830152604082015260600190565b60208082526018908201527f45434453413a20696e76616c6964207369676e61747572650000000000000000604082015260600190565b6020808252601f908201527f45434453413a20696e76616c6964207369676e6174757265206c656e67746800604082015260600190565b60208082526003908201527f3430310000000000000000000000000000000000000000000000000000000000604082015260600190565b60208082526022908201527f45434453413a20696e76616c6964207369676e6174757265202773272076616c604082015261756560f01b606082015260800190565b60208082526023908201527f45434453415570677261646561626c653a20696e76616c6964207369676e617460408201527f7572650000000000000000000000000000000000000000000000000000000000606082015260800190565b60208082526022908201527f4d65737361676556657269666965723a20696e76616c6964207369676e61747560408201527f7265000000000000000000000000000000000000000000000000000000000000606082015260800190565b6020808252602e908201527f496e697469616c697a61626c653a20636f6e747261637420697320616c72656160408201527f647920696e697469616c697a6564000000000000000000000000000000000000606082015260800190565b60208082526022908201527f45434453413a20696e76616c6964207369676e6174757265202776272076616c604082015261756560f01b606082015260800190565b6020808252600d908201527f6f6e6c794d61696e41646d696e00000000000000000000000000000000000000604082015260600190565b6020808252600f908201527f4d697373696f6e20696e76616c69640000000000000000000000000000000000604082015260600190565b90815260200190565b918252602082015260400190565b92835260208301919091526001600160a01b0316604082015260600190565b93845260208401929092526001600160a01b03166040830152606082015260800190565b60008219821115611ac857611ac8611b1f565b500190565b600082611ae857634e487b7160e01b81526012600452602481fd5b500490565b600082821015611aff57611aff611b1f565b500390565b6000600019821415611b1857611b18611b1f565b5060010190565b634e487b7160e01b600052601160045260246000fd5b634e487b7160e01b600052604160045260246000fdfea2646970667358221220499d53b72bf80ae0d1dec39c1a21585608c33572a412ea2fef322e038aaca9d664736f6c63430008000033",
  "immutableReferences": {},
  "source": "// SPDX-License-Identifier: GPL\n\npragma solidity 0.8.0;\n\nimport \"@openzeppelin/contracts-upgradeable/utils/cryptography/ECDSAUpgradeable.sol\";\nimport \"@openzeppelin/contracts-upgradeable/utils/cryptography/draft-EIP712Upgradeable.sol\";\nimport \"../libs/fota/Auth.sol\";\nimport \"../interfaces/IEnergyManager.sol\";\nimport \"../interfaces/IRewardManager.sol\";\n\ncontract FOTAGamePVE is Auth, EIP712Upgradeable {\n\n  struct Mission {\n    uint id;\n    uint reward;\n    address owner;\n  }\n  enum Mode {\n    FREE,\n    NOT_FREE\n  }\n  IEnergyManager public energyManager;\n  IRewardManager public rewardManager;\n\n  uint public totalMissions;\n  uint public energyConsumption;\n  uint public maxReward;\n  Mode public mode;\n  mapping (address => uint) public nonces;\n  mapping (address => uint) public rewarded;\n  mapping (uint => Mission) public missions;\n\n  event MissionAdded(uint id, uint reward, address owner, uint timestamp);\n  event MissionUpdated(uint id, uint reward, address owner, uint timestamp);\n  event EnergyConsumptionUpdated(uint energyConsumption);\n  event ModeUpdated(Mode mode, uint timestamp);\n  event MaxRewardUpdated(uint amount, uint timestamp);\n\n  function initialize(\n    string memory _name,\n    string memory _version,\n    address _mainAdmin,\n    address _energyManager\n  ) public initializer {\n    Auth.initialize(_mainAdmin);\n    EIP712Upgradeable.__EIP712_init(_name, _version);\n    energyManager = IEnergyManager(_energyManager);\n    _initData();\n  }\n\n  function validateInviter(address _inviter) external view returns (bool) {\n    _inviter;\n    return mainAdmin != address(0);\n  }\n\n  function finishGame(uint _mission, bytes memory _signature) external {\n    _validateFinishGame(_mission, _signature);\n    uint energy = energyManager.getUserCurrentEnergy(msg.sender);\n    bool firstConsumeInDay = energyManager.updateEnergy(msg.sender, energyConsumption);\n    if (firstConsumeInDay || energy >= energyConsumption) {\n      _giveReward(_mission, firstConsumeInDay);\n      _experienceUp();\n    } else {\n      require(mode != Mode.FREE, \"401\");\n      _giveReward(_mission, firstConsumeInDay);\n    }\n  }\n\n  // PRIVATE FUNCTIONS\n\n  function _giveReward(uint _mission, bool _firstConsumeInDay) private {\n    uint reward = _calculateReward(_mission, _firstConsumeInDay);\n    if (missions[_mission].owner != address(0)) {\n      uint shared = reward / 100;\n      reward -= shared;\n      rewardManager.addLandShared(missions[_mission].owner, shared);\n    }\n\n    rewardManager.addReward(1, msg.sender, reward);\n  }\n\n  function _calculateReward(uint _mission, bool _firstConsumeInDay) private returns (uint) {\n    uint reward = missions[_mission].reward;\n    if (_firstConsumeInDay) {\n      if (reward > maxReward) {\n        reward = maxReward;\n      }\n      rewarded[msg.sender] = reward;\n    } else {\n      if (rewarded[msg.sender] + reward >= maxReward) {\n        reward = maxReward - rewarded[msg.sender];\n      }\n      rewarded[msg.sender] += reward;\n    }\n    return reward;\n  }\n\n  function _experienceUp() private {\n    // TODO\n  }\n\n  function _validateFinishGame(uint _mission, bytes memory _signature) private {\n    require(_mission <= totalMissions, \"Mission invalid\");\n    bytes32 digest = _hashTypedDataV4(keccak256(abi.encode(\n        keccak256(\"FinishGamePVE(address user,uint256 nonce,uint256 mission)\"),\n        msg.sender,\n        nonces[msg.sender],\n        _mission\n      )));\n    nonces[msg.sender]++;\n    address signer = ECDSAUpgradeable.recover(digest, _signature);\n    require(signer == contractAdmin, \"MessageVerifier: invalid signature\");\n    require(signer != address(0), \"ECDSAUpgradeable: invalid signature\");\n  }\n\n  function _initData() private {\n    mode = Mode.FREE;\n    totalMissions = 30;\n    energyConsumption = 1;\n    rewardManager = IRewardManager(address(0)); // TODO\n    for(uint i = 1; i <= totalMissions; i++) {\n      missions[i] = Mission(i, 1e18, address(0));\n    }\n  }\n\n  // ADMIN FUNCTIONS\n\n  function addMission(uint _reward, address _owner) external onlyMainAdmin {\n    totalMissions++;\n    missions[totalMissions] = Mission(totalMissions, _reward, _owner);\n    emit MissionAdded(totalMissions, _reward, _owner, block.timestamp);\n  }\n\n  function updateMission(uint _id, uint _reward, address _owner) external onlyMainAdmin {\n    missions[_id].reward = _reward;\n    missions[_id].owner = _owner;\n    emit MissionUpdated(_id, _reward, _owner, block.timestamp);\n  }\n\n  function updateEnergyConsumption(uint _energyConsumption) external onlyMainAdmin {\n    energyConsumption = _energyConsumption;\n    emit EnergyConsumptionUpdated(energyConsumption);\n  }\n\n  function updateMode(Mode _mode) external onlyMainAdmin {\n    mode = _mode;\n    emit ModeUpdated(mode, block.timestamp);\n  }\n\n  function updateMaxReward(uint _maxReward) external onlyMainAdmin {\n    require(_maxReward > 0, \"401\");\n    maxReward = _maxReward;\n    emit MaxRewardUpdated(maxReward, block.timestamp);\n  }\n}\n",
  "sourcePath": "/Users/dung/Documents/sources/fota-dapp/contracts/games/pve.sol",
  "compiler": {
    "name": "solc",
    "version": "0.8.0+commit.c7dfd78e.Emscripten.clang"
  },
  "schemaVersion": "3.3.4",
  "updatedAt": "2022-03-03T04:57:24.619Z",
  "networkType": "ethereum",
  "devdoc": {
    "kind": "dev",
    "methods": {},
    "version": 1
  },
  "userdoc": {
    "kind": "user",
    "methods": {},
    "version": 1
  }
}