{
  "contractName": "FOTAFarm",
  "abi": [
    {
      "anonymous": false,
      "inputs": [
        {
          "indexed": true,
          "internalType": "address",
          "name": "farmer",
          "type": "address"
        },
        {
          "indexed": false,
          "internalType": "uint256",
          "name": "dayPassed",
          "type": "uint256"
        },
        {
          "indexed": false,
          "internalType": "uint256",
          "name": "reward",
          "type": "uint256"
        },
        {
          "indexed": false,
          "internalType": "uint256",
          "name": "timestamp",
          "type": "uint256"
        }
      ],
      "name": "CheckedIn",
      "type": "event"
    },
    {
      "anonymous": false,
      "inputs": [
        {
          "indexed": true,
          "internalType": "address",
          "name": "farmer",
          "type": "address"
        },
        {
          "indexed": false,
          "internalType": "uint256",
          "name": "day",
          "type": "uint256"
        },
        {
          "indexed": false,
          "internalType": "uint256",
          "name": "amount",
          "type": "uint256"
        },
        {
          "indexed": false,
          "internalType": "uint256",
          "name": "timestamp",
          "type": "uint256"
        }
      ],
      "name": "Claimed",
      "type": "event"
    },
    {
      "anonymous": false,
      "inputs": [
        {
          "indexed": true,
          "internalType": "address",
          "name": "_newOwner",
          "type": "address"
        }
      ],
      "name": "ContractAdminUpdated",
      "type": "event"
    },
    {
      "anonymous": false,
      "inputs": [
        {
          "indexed": true,
          "internalType": "address",
          "name": "farmer",
          "type": "address"
        },
        {
          "indexed": false,
          "internalType": "uint256",
          "name": "amount",
          "type": "uint256"
        },
        {
          "indexed": false,
          "internalType": "uint256",
          "name": "point",
          "type": "uint256"
        }
      ],
      "name": "FOTADeposited",
      "type": "event"
    },
    {
      "anonymous": false,
      "inputs": [
        {
          "indexed": false,
          "internalType": "uint256",
          "name": "amount",
          "type": "uint256"
        },
        {
          "indexed": false,
          "internalType": "uint256",
          "name": "timestamp",
          "type": "uint256"
        }
      ],
      "name": "FOTAFunded",
      "type": "event"
    },
    {
      "anonymous": false,
      "inputs": [
        {
          "indexed": false,
          "internalType": "uint256",
          "name": "rate",
          "type": "uint256"
        }
      ],
      "name": "LPBonusRateUpdated",
      "type": "event"
    },
    {
      "anonymous": false,
      "inputs": [
        {
          "indexed": true,
          "internalType": "address",
          "name": "farmer",
          "type": "address"
        },
        {
          "indexed": false,
          "internalType": "uint256",
          "name": "amount",
          "type": "uint256"
        },
        {
          "indexed": false,
          "internalType": "uint256",
          "name": "point",
          "type": "uint256"
        }
      ],
      "name": "LPDeposited",
      "type": "event"
    },
    {
      "anonymous": false,
      "inputs": [
        {
          "indexed": true,
          "internalType": "address",
          "name": "farmer",
          "type": "address"
        },
        {
          "indexed": false,
          "internalType": "uint256",
          "name": "day",
          "type": "uint256"
        },
        {
          "indexed": false,
          "internalType": "uint256",
          "name": "amount",
          "type": "uint256"
        }
      ],
      "name": "Missed",
      "type": "event"
    },
    {
      "anonymous": false,
      "inputs": [
        {
          "indexed": true,
          "internalType": "address",
          "name": "_previousOwner",
          "type": "address"
        },
        {
          "indexed": true,
          "internalType": "address",
          "name": "_newOwner",
          "type": "address"
        }
      ],
      "name": "OwnershipTransferred",
      "type": "event"
    },
    {
      "anonymous": false,
      "inputs": [
        {
          "indexed": false,
          "internalType": "uint256",
          "name": "rewardingDays",
          "type": "uint256"
        }
      ],
      "name": "RewardingDaysUpdated",
      "type": "event"
    },
    {
      "anonymous": false,
      "inputs": [
        {
          "indexed": true,
          "internalType": "address",
          "name": "farmer",
          "type": "address"
        },
        {
          "indexed": false,
          "internalType": "uint256",
          "name": "fotaDeposited",
          "type": "uint256"
        },
        {
          "indexed": false,
          "internalType": "uint256",
          "name": "lpDeposited",
          "type": "uint256"
        },
        {
          "indexed": false,
          "internalType": "uint256",
          "name": "timestamp",
          "type": "uint256"
        }
      ],
      "name": "Withdrew",
      "type": "event"
    },
    {
      "inputs": [],
      "name": "_isContractAdmin",
      "outputs": [
        {
          "internalType": "bool",
          "name": "",
          "type": "bool"
        }
      ],
      "stateMutability": "view",
      "type": "function"
    },
    {
      "inputs": [],
      "name": "_isMainAdmin",
      "outputs": [
        {
          "internalType": "bool",
          "name": "",
          "type": "bool"
        }
      ],
      "stateMutability": "view",
      "type": "function"
    },
    {
      "inputs": [
        {
          "internalType": "address",
          "name": "",
          "type": "address"
        },
        {
          "internalType": "uint256",
          "name": "",
          "type": "uint256"
        }
      ],
      "name": "checkinTracker",
      "outputs": [
        {
          "internalType": "bool",
          "name": "",
          "type": "bool"
        }
      ],
      "stateMutability": "view",
      "type": "function"
    },
    {
      "inputs": [],
      "name": "contractAdmin",
      "outputs": [
        {
          "internalType": "address",
          "name": "",
          "type": "address"
        }
      ],
      "stateMutability": "view",
      "type": "function"
    },
    {
      "inputs": [
        {
          "internalType": "uint256",
          "name": "",
          "type": "uint256"
        }
      ],
      "name": "dailyCheckinPoint",
      "outputs": [
        {
          "internalType": "uint256",
          "name": "",
          "type": "uint256"
        }
      ],
      "stateMutability": "view",
      "type": "function"
    },
    {
      "inputs": [
        {
          "internalType": "uint256",
          "name": "",
          "type": "uint256"
        }
      ],
      "name": "dailyReward",
      "outputs": [
        {
          "internalType": "uint256",
          "name": "",
          "type": "uint256"
        }
      ],
      "stateMutability": "view",
      "type": "function"
    },
    {
      "inputs": [
        {
          "internalType": "uint256",
          "name": "",
          "type": "uint256"
        }
      ],
      "name": "dailyTotalPoint",
      "outputs": [
        {
          "internalType": "uint256",
          "name": "",
          "type": "uint256"
        }
      ],
      "stateMutability": "view",
      "type": "function"
    },
    {
      "inputs": [
        {
          "internalType": "address",
          "name": "",
          "type": "address"
        }
      ],
      "name": "farmers",
      "outputs": [
        {
          "internalType": "uint256",
          "name": "fotaDeposited",
          "type": "uint256"
        },
        {
          "internalType": "uint256",
          "name": "lpDeposited",
          "type": "uint256"
        },
        {
          "internalType": "uint256",
          "name": "point",
          "type": "uint256"
        },
        {
          "internalType": "uint256",
          "name": "totalEarned",
          "type": "uint256"
        },
        {
          "internalType": "uint256",
          "name": "totalMissed",
          "type": "uint256"
        }
      ],
      "stateMutability": "view",
      "type": "function"
    },
    {
      "inputs": [],
      "name": "fotaToken",
      "outputs": [
        {
          "internalType": "contract IFOTAToken",
          "name": "",
          "type": "address"
        }
      ],
      "stateMutability": "view",
      "type": "function"
    },
    {
      "inputs": [],
      "name": "lastActiveDay",
      "outputs": [
        {
          "internalType": "uint256",
          "name": "",
          "type": "uint256"
        }
      ],
      "stateMutability": "view",
      "type": "function"
    },
    {
      "inputs": [],
      "name": "lpBonus",
      "outputs": [
        {
          "internalType": "uint256",
          "name": "",
          "type": "uint256"
        }
      ],
      "stateMutability": "view",
      "type": "function"
    },
    {
      "inputs": [],
      "name": "lpToken",
      "outputs": [
        {
          "internalType": "contract ILPToken",
          "name": "",
          "type": "address"
        }
      ],
      "stateMutability": "view",
      "type": "function"
    },
    {
      "inputs": [],
      "name": "mainAdmin",
      "outputs": [
        {
          "internalType": "address",
          "name": "",
          "type": "address"
        }
      ],
      "stateMutability": "view",
      "type": "function"
    },
    {
      "inputs": [
        {
          "internalType": "uint256",
          "name": "",
          "type": "uint256"
        }
      ],
      "name": "missProcessed",
      "outputs": [
        {
          "internalType": "bool",
          "name": "",
          "type": "bool"
        }
      ],
      "stateMutability": "view",
      "type": "function"
    },
    {
      "inputs": [],
      "name": "rewardingDays",
      "outputs": [
        {
          "internalType": "uint256",
          "name": "",
          "type": "uint256"
        }
      ],
      "stateMutability": "view",
      "type": "function"
    },
    {
      "inputs": [],
      "name": "startTime",
      "outputs": [
        {
          "internalType": "uint256",
          "name": "",
          "type": "uint256"
        }
      ],
      "stateMutability": "view",
      "type": "function"
    },
    {
      "inputs": [],
      "name": "totalEarned",
      "outputs": [
        {
          "internalType": "uint256",
          "name": "",
          "type": "uint256"
        }
      ],
      "stateMutability": "view",
      "type": "function"
    },
    {
      "inputs": [],
      "name": "totalFotaDeposited",
      "outputs": [
        {
          "internalType": "uint256",
          "name": "",
          "type": "uint256"
        }
      ],
      "stateMutability": "view",
      "type": "function"
    },
    {
      "inputs": [],
      "name": "totalLPDeposited",
      "outputs": [
        {
          "internalType": "uint256",
          "name": "",
          "type": "uint256"
        }
      ],
      "stateMutability": "view",
      "type": "function"
    },
    {
      "inputs": [
        {
          "internalType": "address",
          "name": "_newOwner",
          "type": "address"
        }
      ],
      "name": "transferOwnership",
      "outputs": [],
      "stateMutability": "nonpayable",
      "type": "function"
    },
    {
      "inputs": [
        {
          "internalType": "address",
          "name": "_newAdmin",
          "type": "address"
        }
      ],
      "name": "updateContractAdmin",
      "outputs": [],
      "stateMutability": "nonpayable",
      "type": "function"
    },
    {
      "inputs": [
        {
          "internalType": "address",
          "name": "_mainAdmin",
          "type": "address"
        }
      ],
      "name": "initialize",
      "outputs": [],
      "stateMutability": "nonpayable",
      "type": "function"
    },
    {
      "inputs": [
        {
          "internalType": "uint256",
          "name": "_amount",
          "type": "uint256"
        }
      ],
      "name": "depositFOTA",
      "outputs": [],
      "stateMutability": "nonpayable",
      "type": "function"
    },
    {
      "inputs": [
        {
          "internalType": "uint256",
          "name": "_amount",
          "type": "uint256"
        }
      ],
      "name": "depositLP",
      "outputs": [],
      "stateMutability": "nonpayable",
      "type": "function"
    },
    {
      "inputs": [],
      "name": "checkin",
      "outputs": [],
      "stateMutability": "nonpayable",
      "type": "function"
    },
    {
      "inputs": [],
      "name": "claim",
      "outputs": [],
      "stateMutability": "nonpayable",
      "type": "function"
    },
    {
      "inputs": [],
      "name": "withdraw",
      "outputs": [],
      "stateMutability": "nonpayable",
      "type": "function"
    },
    {
      "inputs": [
        {
          "internalType": "uint256",
          "name": "_amount",
          "type": "uint256"
        }
      ],
      "name": "fundFOTA",
      "outputs": [],
      "stateMutability": "nonpayable",
      "type": "function"
    },
    {
      "inputs": [],
      "name": "getDaysPassed",
      "outputs": [
        {
          "internalType": "uint256",
          "name": "",
          "type": "uint256"
        }
      ],
      "stateMutability": "view",
      "type": "function"
    },
    {
      "inputs": [],
      "name": "getTotalRewarded",
      "outputs": [
        {
          "internalType": "uint256",
          "name": "",
          "type": "uint256"
        }
      ],
      "stateMutability": "view",
      "type": "function"
    },
    {
      "inputs": [],
      "name": "getTodayReward",
      "outputs": [
        {
          "internalType": "uint256",
          "name": "",
          "type": "uint256"
        }
      ],
      "stateMutability": "view",
      "type": "function"
    },
    {
      "inputs": [],
      "name": "getProfitRate",
      "outputs": [
        {
          "internalType": "uint256",
          "name": "",
          "type": "uint256"
        }
      ],
      "stateMutability": "view",
      "type": "function"
    },
    {
      "inputs": [
        {
          "internalType": "address",
          "name": "_user",
          "type": "address"
        }
      ],
      "name": "getUserStats",
      "outputs": [
        {
          "internalType": "uint256",
          "name": "",
          "type": "uint256"
        },
        {
          "internalType": "uint256",
          "name": "",
          "type": "uint256"
        }
      ],
      "stateMutability": "view",
      "type": "function"
    },
    {
      "inputs": [
        {
          "internalType": "uint256",
          "name": "_lpAmount",
          "type": "uint256"
        }
      ],
      "name": "_getPointWhenDepositViaLP",
      "outputs": [
        {
          "internalType": "uint256",
          "name": "",
          "type": "uint256"
        }
      ],
      "stateMutability": "view",
      "type": "function"
    },
    {
      "inputs": [
        {
          "internalType": "uint256",
          "name": "_startTime",
          "type": "uint256"
        }
      ],
      "name": "start",
      "outputs": [],
      "stateMutability": "nonpayable",
      "type": "function"
    },
    {
      "inputs": [
        {
          "internalType": "uint256",
          "name": "_days",
          "type": "uint256"
        }
      ],
      "name": "updateRewardingDays",
      "outputs": [],
      "stateMutability": "nonpayable",
      "type": "function"
    },
    {
      "inputs": [
        {
          "internalType": "uint256",
          "name": "_rate",
          "type": "uint256"
        }
      ],
      "name": "updateLPBonusRate",
      "outputs": [],
      "stateMutability": "nonpayable",
      "type": "function"
    },
    {
      "inputs": [
        {
          "internalType": "address",
          "name": "_tokenAddress",
          "type": "address"
        }
      ],
      "name": "drainToken",
      "outputs": [],
      "stateMutability": "nonpayable",
      "type": "function"
    },
    {
      "inputs": [
        {
          "internalType": "address",
          "name": "_fota",
          "type": "address"
        },
        {
          "internalType": "address",
          "name": "_lp",
          "type": "address"
        }
      ],
      "name": "setContracts",
      "outputs": [],
      "stateMutability": "nonpayable",
      "type": "function"
    }
  ],
  "bytecode": "0x608060405234801561001057600080fd5b5061268e806100206000396000f3fe608060405234801561001057600080fd5b50600436106102ad5760003560e01c80637d58efb91161017b578063c4d66de8116100d8578063eb37acfc1161008c578063fb6b04ba11610071578063fb6b04ba146104f4578063fd94edc7146104fc578063ff4f745814610504576102ad565b8063eb37acfc146104ce578063f2fde38b146104e1576102ad565b8063d8952a49116100bd578063d8952a4914610495578063e0b22c4c146104a8578063ea102eda146104bb576102ad565b8063c4d66de81461046f578063cf95210f14610482576102ad565b8063a103f4e11161012f578063b7d6caec11610114578063b7d6caec14610457578063baeb07181461045f578063bf0034f614610467576102ad565b8063a103f4e11461043c578063b74fe99c1461044f576102ad565b806395805dad1161016057806395805dad1461040357806395d3d00514610416578063a0f3d97814610429576102ad565b80637d58efb9146103e8578063944447c0146103fb576102ad565b806348d002f2116102295780636dfa8d99116101dd57806376ee9c1f116101c257806376ee9c1f146103c557806377955245146103d857806378e97925146103e0576102ad565b80636dfa8d99146103aa5780636e8313a2146103b2576102ad565b80634e71d92d1161020e5780634e71d92d146103925780635fcbd2851461039a578063621f9c0a146103a2576102ad565b806348d002f21461035c5780634e43603a14610371576102ad565b806311541ce011610280578063241f96fb11610265578063241f96fb1461031d5780633ccfd60b14610330578063401b216814610338576102ad565b806311541ce0146102f557806323daf5201461030a576102ad565b806302e65b8a146102b257806303da3582146102c75780630698b20e146102e55780630e5ee5ee146102ed575b600080fd5b6102c56102c0366004611f07565b61050c565b005b6102cf6105a3565b6040516102dc9190612569565b60405180910390f35b6102cf6105dd565b6102cf610656565b6102fd6106b5565b6040516102dc9190612061565b6102cf610318366004611fa3565b6106cc565b6102cf61032b366004611fa3565b6106de565b6102c56106f0565b61034b610346366004611f07565b6109f2565b6040516102dc959493929190612596565b610364610a21565b6040516102dc9190611ff6565b61038461037f366004611f07565b610a30565b6040516102dc929190612572565b6102c5610ac7565b610364610b0f565b6102cf610b1e565b6102cf610b24565b6102c56103c0366004611fa3565b610b2a565b6102c56103d3366004611fa3565b610bae565b610364610c27565b6102cf610c36565b6102cf6103f6366004611fa3565b610c3c565b6102cf610c4e565b6102c5610411366004611fa3565b610c54565b6102fd610424366004611f5a565b610cc7565b6102cf610437366004611fa3565b610ce7565b6102c561044a366004611fa3565b610dd1565b6102cf610ed6565b6102fd610edc565b6102c5610eed565b6102cf610f2f565b6102c561047d366004611f07565b610f92565b6102fd610490366004611fa3565b611060565b6102c56104a3366004611f28565b611075565b6102c56104b6366004611f07565b6110d4565b6102c56104c9366004611fa3565b6111f4565b6102c56104dc366004611fa3565b611235565b6102c56104ef366004611f07565b611358565b6103646113f1565b6102cf611406565b6102cf61140c565b6105146106b5565b6105395760405162461bcd60e51b815260040161053090612217565b60405180910390fd5b6001600160a01b03811661054c57600080fd5b6001805473ffffffffffffffffffffffffffffffffffffffff19166001600160a01b0383169081179091556040517fe3f4a4b5b74aa6830627cb87c50cf7d4ed56e9b246729179ba634bbdc873177a90600090a250565b6000600554600014156105b8575060006105da565b6000600554426105c89190612610565b90506105d661012c826125d1565b9150505b90565b600080600e60006105ec6105a3565b8152602001908152602001600020549050806000141561063057600e600060016106146105a3565b61061e9190612610565b81526020019081526020016000205490505b670de0b6b3a764000081610642610656565b61064c91906125d1565b6105d691906125d1565b600080806106626105a3565b905060005b6009548110156106ad57600c600061067f83856125b9565b8152602001908152602001600020548361069991906125b9565b9250806106a581612627565b915050610667565b509091505090565b6000546201000090046001600160a01b0316331490565b600d6020526000908152604090205481565b600e6020526000908152604090205481565b3360009081526002602052604090205415158061071e57503360009081526002602052604090206001015415155b61073a5760405162461bcd60e51b81526004016105309061249e565b60006107446105a3565b905061074f81611412565b3360009081526002602052604081208054600190910154600680549293919284929061077c908490612610565b90915550503360009081526002602052604081206001015460078054919290916107a7908490612610565b90915550503360009081526002602052604081208181556001908101919091556009546107d3916125b9565b8311156107e3576107e38361160c565b33600090815260106020908152604080832086845290915290205460ff161561083e5733600090815260026020818152604080842090920154868452600d909152908220805491929091610838908490612610565b90915550505b610847836116f8565b33600090815260026020818152604080842090920154868452600e909152908220805491929091610879908490612610565b909155505033600090815260026020819052604082200155811561091d5760035460405163a9059cbb60e01b81526001600160a01b039091169063a9059cbb906108c99033908690600401612048565b602060405180830381600087803b1580156108e357600080fd5b505af11580156108f7573d6000803e3d6000fd5b505050506040513d601f19601f8201168201806040525081019061091b9190611f83565b505b80156109a8576004805460405163a9059cbb60e01b81526001600160a01b039091169163a9059cbb91610954913391869101612048565b602060405180830381600087803b15801561096e57600080fd5b505af1158015610982573d6000803e3d6000fd5b505050506040513d601f19601f820116820180604052508101906109a69190611f83565b505b336001600160a01b03167f84557df06a9cf3a49d0c3fb7e6ed5a54d316659c8d62d269901c3dfccf741fd88383426040516109e593929190612580565b60405180910390a2505050565b600260208190526000918252604090912080546001820154928201546004830154600590930154919392909185565b6003546001600160a01b031681565b600080600080610a3e6105a3565b905060005b6009548111610aa0576001600160a01b038616600090815260026020526040812060030190610a728385612610565b81526020019081526020016000205483610a8c91906125b9565b925080610a9881612627565b915050610a43565b50506001600160a01b03939093166000908152600260205260409020600501549293915050565b3360009081526002602081905260409091200154610af75760405162461bcd60e51b8152600401610530906124d5565b6000610b016105a3565b9050610b0c81611412565b50565b6004546001600160a01b031681565b600a5481565b60085481565b610b326106b5565b610b4e5760405162461bcd60e51b815260040161053090612217565b60008111610b6e5760405162461bcd60e51b8152600401610530906120c9565b60098190556040517fc46353c8027fd3699f9095b46d9998749f7fa987dc04c0b463513c863a4cab6690610ba3908390612569565b60405180910390a150565b610bb66106b5565b610bd25760405162461bcd60e51b815260040161053090612217565b60008111610bf25760405162461bcd60e51b81526004016105309061240a565b600a8190556040517f1376c7ed701183fd27f5bb51f587f9bd3eeb3c7de646a1cbd8dd658cdabe981a90610ba3908390612569565b6001546001600160a01b031681565b60055481565b600c6020526000908152604090205481565b600b5481565b610c5c6106b5565b610c785760405162461bcd60e51b815260040161053090612217565b60055415610c985760405162461bcd60e51b8152600401610530906121ba565b610ca461012c42612610565b8110610cc25760405162461bcd60e51b815260040161053090612100565b600555565b601060209081526000928352604080842090915290825290205460ff1681565b6000806000600460009054906101000a90046001600160a01b03166001600160a01b0316630902f1ac6040518163ffffffff1660e01b8152600401604080518083038186803b158015610d3957600080fd5b505afa158015610d4d573d6000803e3d6000fd5b505050506040513d601f19601f82011682018060405250810190610d719190611fd3565b9092509050600082610d8b670de0b6b3a7640000846125f1565b610d9591906125d1565b9050633b9aca00610da582611737565b600a54610db290886125f1565b610dbc91906125d1565b610dc691906125d1565b93505050505b919050565b600060055411610df35760405162461bcd60e51b815260040161053090612532565b610dfc81611790565b336000908152600260205260408120805490918391839190610e1f9084906125b9565b9250508190555081816002016000828254610e3a91906125b9565b9091555060009050610e4a6105a3565b9050610e55816116f8565b6000818152600e602052604081208054859290610e739084906125b9565b925050819055508260066000828254610e8c91906125b9565b90915550610e9b905081611970565b336001600160a01b03167f0b0aaed50533b373d9820285de6cb52b7191eaae6d851f3155ee4d5914dd83b484856040516109e5929190612572565b60075481565b6001546001600160a01b0316331490565b3360009081526002602081905260409091200154610f1d5760405162461bcd60e51b8152600401610530906124d5565b610f2d610f286105a3565b611970565b565b6000806001610f3c6105a3565b610f469190612610565b6000818152600e6020526040902054909150610f665760009150506105da565b6000818152600e6020908152604080832054600d835281842054600c90935292205461064c91906125f1565b600054610100900460ff1680610fab575060005460ff16155b610fc75760405162461bcd60e51b81526004016105309061215d565b600054610100900460ff16158015610ff2576000805460ff1961ff0019909116610100171660011790555b610ffb82611b46565b60038054730a4e1bdfa75292a98c15870aef24bd94bffe0bd473ffffffffffffffffffffffffffffffffffffffff1991821681178355600480549092161790556009556722b1c8c1227a0000600a55801561105c576000805461ff00191690555b5050565b600f6020526000908152604090205460ff1681565b61107d6106b5565b6110995760405162461bcd60e51b815260040161053090612217565b600380546001600160a01b0393841673ffffffffffffffffffffffffffffffffffffffff199182161790915560048054929093169116179055565b6110dc6106b5565b6110f85760405162461bcd60e51b815260040161053090612217565b6040516370a0823160e01b815281906001600160a01b0382169063a9059cbb90339083906370a0823190611130903090600401611ff6565b60206040518083038186803b15801561114857600080fd5b505afa15801561115c573d6000803e3d6000fd5b505050506040513d601f19601f820116820180604052508101906111809190611fbb565b6040518363ffffffff1660e01b815260040161119d929190612048565b602060405180830381600087803b1580156111b757600080fd5b505af11580156111cb573d6000803e3d6000fd5b505050506040513d601f19601f820116820180604052508101906111ef9190611f83565b505050565b6000600554116112165760405162461bcd60e51b815260040161053090612532565b61121f81611790565b60006112296105a3565b905061105c8282611c10565b6000600554116112575760405162461bcd60e51b815260040161053090612532565b61126081611d0f565b600061126b82610ce7565b33600090815260026020526040812060018101805493945090928592906112939084906125b9565b92505081905550818160020160008282546112ae91906125b9565b90915550600090506112be6105a3565b90506112c9816116f8565b6000818152600e6020526040812080548592906112e79084906125b9565b92505081905550836007600082825461130091906125b9565b9091555061130f905081611970565b336001600160a01b03167f68110eff112678c2b41e26b6f6fb09e80adcf42e4c096268137d5633787b0715858560405161134a929190612572565b60405180910390a250505050565b6113606106b5565b61137c5760405162461bcd60e51b815260040161053090612217565b6001600160a01b03811661138f57600080fd5b6000805475ffffffffffffffffffffffffffffffffffffffff00001916620100006001600160a01b038416908102919091178255604051909133917f8be0079c531659141344cd1fd0a4f28419497f9722a3daafe3b4186f6b6457e09190a350565b6000546201000090046001600160a01b031681565b60065481565b60095481565b6009548110156114345760405162461bcd60e51b815260040161053090612319565b6000600954826114449190612610565b3360009081526002602090815260408083208484526003019091528120805491905590915080611475575050610b0c565b33600090815260026020526040812060040180548392906114979084906125b9565b90915550506003546040516370a0823160e01b815282916001600160a01b0316906370a08231906114cc903090600401611ff6565b60206040518083038186803b1580156114e457600080fd5b505afa1580156114f8573d6000803e3d6000fd5b505050506040513d601f19601f8201168201806040525081019061151c9190611fbb565b101561153a5760405162461bcd60e51b81526004016105309061206c565b60035460405163a9059cbb60e01b81526001600160a01b039091169063a9059cbb9061156c9033908590600401612048565b602060405180830381600087803b15801561158657600080fd5b505af115801561159a573d6000803e3d6000fd5b505050506040513d601f19601f820116820180604052508101906115be9190611f83565b5080600860008282546115d191906125b9565b909155505060405133907f9cdcf2f7714cca3508c7f0110b04a90a80a3a8dd0e35de99689db74d28c5383e906109e590869085904290612580565b6000600954600161161d91906125b9565b9050600061162b8284612610565b905060005b336000908152600260209081526040808320858452600301909152902054156116c05733600090815260026020908152604080832085845260030190915290205461167b90826125b9565b3360009081526002602090815260408083208684526003019091528120559050838310156116bb576116ac83612627565b92506116b88385612610565b91505b611630565b33600090815260026020526040812060050180548392906116e29084906125b9565b909155506116f290508185611c10565b50505050565b6000818152600e60205260409020541580156117155750600b5481115b15610b0c57600b80546000908152600e60205260408082205484835291205555565b60008060026117478460016125b9565b61175191906125d1565b90508291505b8181101561178a5790508060028161176f81866125d1565b61177991906125b9565b61178391906125d1565b9050611757565b50919050565b600354604051636eb1769f60e11b815282916001600160a01b03169063dd62ed3e906117c2903390309060040161200a565b60206040518083038186803b1580156117da57600080fd5b505afa1580156117ee573d6000803e3d6000fd5b505050506040513d601f19601f820116820180604052508101906118129190611fbb565b10156118305760405162461bcd60e51b81526004016105309061224e565b6003546040516370a0823160e01b815282916001600160a01b0316906370a0823190611860903390600401611ff6565b60206040518083038186803b15801561187857600080fd5b505afa15801561188c573d6000803e3d6000fd5b505050506040513d601f19601f820116820180604052508101906118b09190611fbb565b10156118ce5760405162461bcd60e51b815260040161053090612376565b6003546040516323b872dd60e01b81526001600160a01b03909116906323b872dd9061190290339030908690600401612024565b602060405180830381600087803b15801561191c57600080fd5b505af1158015611930573d6000803e3d6000fd5b505050506040513d601f19601f820116820180604052508101906119549190611f83565b610b0c5760405162461bcd60e51b8152600401610530906122e2565b33600090815260106020908152604080832084845290915290205460ff16156119ab5760405162461bcd60e51b8152600401610530906122ab565b3360008181526010602090815260408083208584528252808320805460ff1916600117905592825260028082528383200154848352600d90915291812080549091906119f89084906125b9565b90915550611a079050816116f8565b6000818152600e6020526040902054611a1f57610b0c565b6000818152600e6020908152604080832054600c83528184205433855260029384905291842090920154611a5391906125f1565b611a5d91906125d1565b33600090815260106020908152604080832086845290915290205490915060ff1615611ae45733600081815260026020908152604080832086845260030190915290819020839055517f7e4c1be4a7f9736334ae1a21a54b75fe0b8ac49d1c72b89a21ec4802d4f6fabb90611ad790859085904290612580565b60405180910390a2611b28565b336001600160a01b03167fb7a6538c809af24fa079898786799f1e34f038fba1b96689d435ce54293e58ac8383604051611b1f929190612572565b60405180910390a25b600954611b369060016125b9565b82111561105c5761105c8261160c565b600054610100900460ff1680611b5f575060005460ff16155b611b7b5760405162461bcd60e51b81526004016105309061215d565b600054610100900460ff16158015611ba6576000805460ff1961ff0019909116610100171660011790555b6000805475ffffffffffffffffffffffffffffffffffffffff00001916620100006001600160a01b038516908102919091179091556001805473ffffffffffffffffffffffffffffffffffffffff19169091179055801561105c576000805461ff00191690555050565b6009548290600090611c2290836125d1565b905060005b6001600954611c369190612610565b811015611c8d5781600c6000611c4c84886125b9565b81526020019081526020016000206000828254611c6991906125b9565b90915550611c7990508284612610565b925080611c8581612627565b915050611c27565b5081600c6000600160095487611ca391906125b9565b611cad9190612610565b81526020019081526020016000206000828254611cca91906125b9565b90915550506040517f38d306a8dd75e8497f11fc6ba471e118694ff6640055607f38f1224e62708eae90611d019086904290612572565b60405180910390a150505050565b60048054604051636eb1769f60e11b815283926001600160a01b039092169163dd62ed3e91611d4291339130910161200a565b60206040518083038186803b158015611d5a57600080fd5b505afa158015611d6e573d6000803e3d6000fd5b505050506040513d601f19601f82011682018060405250810190611d929190611fbb565b1015611db05760405162461bcd60e51b815260040161053090612441565b600480546040516370a0823160e01b815283926001600160a01b03909216916370a0823191611de191339101611ff6565b60206040518083038186803b158015611df957600080fd5b505afa158015611e0d573d6000803e3d6000fd5b505050506040513d601f19601f82011682018060405250810190611e319190611fbb565b1015611e4f5760405162461bcd60e51b815260040161053090612376565b600480546040516323b872dd60e01b81526001600160a01b03909116916323b872dd91611e829133913091879101612024565b602060405180830381600087803b158015611e9c57600080fd5b505af1158015611eb0573d6000803e3d6000fd5b505050506040513d601f19601f82011682018060405250810190611ed49190611f83565b610b0c5760405162461bcd60e51b8152600401610530906123ad565b80356001600160a01b0381168114610dcc57600080fd5b600060208284031215611f18578081fd5b611f2182611ef0565b9392505050565b60008060408385031215611f3a578081fd5b611f4383611ef0565b9150611f5160208401611ef0565b90509250929050565b60008060408385031215611f6c578182fd5b611f7583611ef0565b946020939093013593505050565b600060208284031215611f94578081fd5b81518015158114611f21578182fd5b600060208284031215611fb4578081fd5b5035919050565b600060208284031215611fcc578081fd5b5051919050565b60008060408385031215611fe5578182fd5b505080516020909101519092909150565b6001600160a01b0391909116815260200190565b6001600160a01b0392831681529116602082015260400190565b6001600160a01b039384168152919092166020820152604081019190915260600190565b6001600160a01b03929092168252602082015260400190565b901515815260200190565b6020808252602a908201527f464f54414661726d3a20636f6e747261637420697320696e737566666963696560408201527f6e742062616c616e636500000000000000000000000000000000000000000000606082015260800190565b60208082526016908201527f464f54414661726d3a206461797320696e76616c696400000000000000000000604082015260600190565b60208082526023908201527f464f54414661726d3a206d757374206265206561726c6965722079657374657260408201527f6461790000000000000000000000000000000000000000000000000000000000606082015260800190565b6020808252602e908201527f496e697469616c697a61626c653a20636f6e747261637420697320616c72656160408201527f647920696e697469616c697a6564000000000000000000000000000000000000606082015260800190565b60208082526028908201527f464f54414661726d3a20737461727454696d6520686164206265656e20696e6960408201527f7469616c697a6564000000000000000000000000000000000000000000000000606082015260800190565b6020808252600d908201527f6f6e6c794d61696e41646d696e00000000000000000000000000000000000000604082015260600190565b60208082526023908201527f464f54414661726d3a20706c6561736520617070726f766520666f746120666960408201527f7273740000000000000000000000000000000000000000000000000000000000606082015260800190565b60208082526014908201527f464f54414661726d3a20636865636b656420696e000000000000000000000000604082015260600190565b6020808252601e908201527f464f54414661726d3a207472616e7366657220666f7461206661696c65640000604082015260600190565b60208082526023908201527f464f54414661726d3a20706c65617365207761697420666f72206d6f7265207460408201527f696d650000000000000000000000000000000000000000000000000000000000606082015260800190565b6020808252601e908201527f464f54414661726d3a20696e73756666696369656e742062616c616e63650000604082015260600190565b60208082526022908201527f464f54414661726d3a207472616e73666572204c5020746f6b656e206661696c60408201527f6564000000000000000000000000000000000000000000000000000000000000606082015260800190565b60208082526016908201527f464f54414661726d3a207261746520696e76616c696400000000000000000000604082015260600190565b60208082526027908201527f464f54414661726d3a20706c6561736520617070726f7665204c5020746f6b6560408201527f6e20666972737400000000000000000000000000000000000000000000000000606082015260800190565b60208082526003908201527f3430340000000000000000000000000000000000000000000000000000000000604082015260600190565b60208082526024908201527f464f54414661726d3a20706c65617365206a6f696e20746865206661726d206660408201527f6972737400000000000000000000000000000000000000000000000000000000606082015260800190565b60208082526015908201527f506c6561736520696e697420737461727454696d650000000000000000000000604082015260600190565b90815260200190565b918252602082015260400190565b9283526020830191909152604082015260600190565b948552602085019390935260408401919091526060830152608082015260a00190565b600082198211156125cc576125cc612642565b500190565b6000826125ec57634e487b7160e01b81526012600452602481fd5b500490565b600081600019048311821515161561260b5761260b612642565b500290565b60008282101561262257612622612642565b500390565b600060001982141561263b5761263b612642565b5060010190565b634e487b7160e01b600052601160045260246000fdfea2646970667358221220ca7093fa3be4484198c2fb63273a00d689518e66b28002c01a81c56f885c7fdc64736f6c63430008000033",
  "immutableReferences": {},
  "source": "// SPDX-License-Identifier: GPL\n\npragma solidity 0.8.0;\n\nimport \"./libs/fota/Auth.sol\";\nimport \"./libs/zeppelin/token/BEP20/IBEP20.sol\";\nimport \"./interfaces/IFOTAToken.sol\";\nimport \"./interfaces/ILPToken.sol\";\n\ncontract FOTAFarm is Auth {\n  struct Farmer {\n    uint fotaDeposited;\n    uint lpDeposited;\n    uint point;\n    mapping(uint => uint) pendingRewards;\n    uint totalEarned;\n    uint totalMissed;\n  }\n  mapping (address => Farmer) public farmers;\n  IFOTAToken public fotaToken;\n  ILPToken public lpToken;\n  uint public startTime;\n  uint public totalFotaDeposited;\n  uint public totalLPDeposited;\n  uint public totalEarned;\n  uint public rewardingDays;\n  uint public lpBonus;\n  uint public lastActiveDay;\n//  uint constant secondInADay = 86400; // 24 * 60 * 60\n  uint constant secondInADay = 5 * 60; // TODO\n  uint constant decimal18 = 1e18;\n  uint constant decimal9 = 1e9;\n\n  mapping(uint => uint) public dailyReward;\n  mapping(uint => uint) public dailyCheckinPoint;\n  mapping(uint => uint) public dailyTotalPoint;\n  mapping(uint => bool) public missProcessed;\n  mapping(address => mapping (uint => bool)) public checkinTracker;\n\n  event FOTADeposited(address indexed farmer, uint amount, uint point);\n  event LPDeposited(address indexed farmer, uint amount, uint point);\n  event RewardingDaysUpdated(uint rewardingDays);\n  event LPBonusRateUpdated(uint rate);\n  event FOTAFunded(uint amount, uint timestamp);\n  event Claimed(address indexed farmer, uint day, uint amount, uint timestamp);\n  event Missed(address indexed farmer, uint day, uint amount);\n  event Withdrew(address indexed farmer, uint fotaDeposited, uint lpDeposited, uint timestamp);\n  event CheckedIn(address indexed farmer, uint dayPassed, uint reward, uint timestamp);\n\n  modifier initStartTime() {\n    require(startTime > 0, \"Please init startTime\");\n    _;\n  }\n\n  function initialize(address _mainAdmin) override public initializer {\n    super.initialize(_mainAdmin);\n    fotaToken = IFOTAToken(0x0A4E1BdFA75292A98C15870AeF24bd94BFFe0Bd4);\n    lpToken = ILPToken(0x0A4E1BdFA75292A98C15870AeF24bd94BFFe0Bd4); // TODO\n    rewardingDays = 3;\n    lpBonus = 25e17;\n  }\n\n  function depositFOTA(uint _amount) external initStartTime {\n    _takeFundFOTA(_amount);\n    Farmer storage farmer = farmers[msg.sender];\n    farmer.fotaDeposited += _amount;\n    farmer.point += _amount;\n    uint dayPassed = getDaysPassed();\n    _syncDailyTotalPoint(dayPassed);\n    dailyTotalPoint[dayPassed] += _amount;\n    totalFotaDeposited += _amount;\n    _checkin(dayPassed);\n    emit FOTADeposited(msg.sender, _amount, _amount);\n  }\n\n  function depositLP(uint _amount) external initStartTime {\n    _takeFundLP(_amount);\n    uint point = _getPointWhenDepositViaLP(_amount);\n    Farmer storage farmer = farmers[msg.sender];\n    farmer.lpDeposited += _amount;\n    farmer.point += point;\n    uint dayPassed = getDaysPassed();\n    _syncDailyTotalPoint(dayPassed);\n    dailyTotalPoint[dayPassed] += point;\n    totalLPDeposited += _amount;\n    _checkin(dayPassed);\n    emit LPDeposited(msg.sender, _amount, point);\n  }\n\n  function checkin() external {\n    require(farmers[msg.sender].point > 0, \"FOTAFarm: please join the farm first\");\n    _checkin(getDaysPassed());\n  }\n\n  function claim() external {\n    require(farmers[msg.sender].point > 0, \"FOTAFarm: please join the farm first\");\n    uint dayPassed = getDaysPassed();\n    _checkClaim(dayPassed);\n  }\n\n  function withdraw() external {\n    require(farmers[msg.sender].fotaDeposited > 0 || farmers[msg.sender].lpDeposited > 0, \"404\");\n    uint dayPassed = getDaysPassed();\n    _checkClaim(dayPassed);\n    uint fotaDeposited = farmers[msg.sender].fotaDeposited;\n    uint lpDeposited = farmers[msg.sender].lpDeposited;\n    totalFotaDeposited -= farmers[msg.sender].fotaDeposited;\n    totalLPDeposited -= farmers[msg.sender].lpDeposited;\n    farmers[msg.sender].fotaDeposited = 0;\n    farmers[msg.sender].lpDeposited = 0;\n    if (dayPassed > rewardingDays + 1) {\n      _checkMissedClaim(dayPassed);\n    }\n    if (checkinTracker[msg.sender][dayPassed]) {\n      dailyCheckinPoint[dayPassed] -= farmers[msg.sender].point;\n    }\n    _syncDailyTotalPoint(dayPassed);\n    dailyTotalPoint[dayPassed] -= farmers[msg.sender].point;\n    farmers[msg.sender].point = 0;\n    if (fotaDeposited > 0) {\n      fotaToken.transfer(msg.sender, fotaDeposited);\n    }\n    if (lpDeposited > 0) {\n      lpToken.transfer(msg.sender, lpDeposited);\n    }\n    emit Withdrew(msg.sender, fotaDeposited, lpDeposited, block.timestamp);\n  }\n\n  function fundFOTA(uint _amount) external initStartTime {\n    _takeFundFOTA(_amount);\n    uint dayPassed = getDaysPassed();\n    _fundFOTA(_amount, dayPassed);\n  }\n\n  function getDaysPassed() public view returns (uint) {\n    if (startTime == 0) {\n      return 0;\n    }\n    uint timePassed = block.timestamp - startTime;\n    return timePassed / secondInADay;\n  }\n\n  function getTotalRewarded() public view returns (uint) {\n    uint totalRewarded = 0;\n    uint dayPassed = getDaysPassed();\n    for (uint i = 0; i < rewardingDays; i++) {\n      totalRewarded += dailyReward[dayPassed + i];\n    }\n    return totalRewarded;\n  }\n\n  function getTodayReward() external view returns (uint) {\n    uint dateToReward = getDaysPassed() - 1;\n    if (dailyTotalPoint[dateToReward] == 0) {\n      return 0;\n    }\n    return dailyReward[dateToReward] * dailyCheckinPoint[dateToReward] / dailyTotalPoint[dateToReward];\n  }\n\n  function getProfitRate() external view returns (uint) {\n    uint dailyPoint = dailyTotalPoint[getDaysPassed()];\n    if (dailyPoint == 0) {\n      dailyPoint = dailyTotalPoint[getDaysPassed() - 1];\n    }\n    return getTotalRewarded() / dailyPoint / 1e18;\n  }\n\n  function getUserStats(address _user) external view returns (uint, uint) {\n    uint pendingReward;\n    uint dayPassed = getDaysPassed();\n    for (uint i = 0; i <= rewardingDays; i++) {\n      pendingReward += farmers[_user].pendingRewards[dayPassed - i];\n    }\n    return (pendingReward, farmers[_user].totalMissed);\n  }\n\n  // PRIVATE FUNCTIONS\n\n  function _syncDailyTotalPoint(uint _dateToClaim) private {\n    if (dailyTotalPoint[_dateToClaim] == 0 && _dateToClaim > lastActiveDay) {\n      dailyTotalPoint[_dateToClaim] = dailyTotalPoint[lastActiveDay];\n      lastActiveDay = _dateToClaim;\n    }\n  }\n\n  function _checkin(uint _dayPassed) private {\n    require(!checkinTracker[msg.sender][_dayPassed], \"FOTAFarm: checked in\");\n    checkinTracker[msg.sender][_dayPassed] = true;\n    dailyCheckinPoint[_dayPassed] += farmers[msg.sender].point;\n\n    _syncDailyTotalPoint(_dayPassed);\n    if (dailyTotalPoint[_dayPassed] == 0) {\n      return;\n    }\n    uint reward = farmers[msg.sender].point * dailyReward[_dayPassed] / dailyTotalPoint[_dayPassed];\n    if (checkinTracker[msg.sender][_dayPassed]) {\n      farmers[msg.sender].pendingRewards[_dayPassed] = reward;\n      emit CheckedIn(msg.sender, _dayPassed, reward, block.timestamp);\n    } else {\n      emit Missed(msg.sender, _dayPassed, reward);\n    }\n    if (_dayPassed > rewardingDays + 1) {\n      _checkMissedClaim(_dayPassed);\n    }\n  }\n\n  function _checkMissedClaim(uint _dayPassed) private {\n    uint i = rewardingDays + 1;\n    uint index = _dayPassed - i;\n    uint missedAmount;\n    while (farmers[msg.sender].pendingRewards[index] > 0) {\n      missedAmount += farmers[msg.sender].pendingRewards[index];\n      farmers[msg.sender].pendingRewards[index] = 0;\n      if (i < _dayPassed) {\n        index = _dayPassed - ++i;\n      }\n    }\n    farmers[msg.sender].totalMissed += missedAmount;\n    _fundFOTA(missedAmount, _dayPassed);\n  }\n\n  function _checkClaim(uint _dayPassed) private {\n    require(_dayPassed >= rewardingDays, \"FOTAFarm: please wait for more time\");\n    uint index = _dayPassed - rewardingDays;\n    uint reward = farmers[msg.sender].pendingRewards[index];\n    farmers[msg.sender].pendingRewards[index] = 0;\n    if (reward == 0) {\n      return;\n    }\n    farmers[msg.sender].totalEarned += reward;\n    require(fotaToken.balanceOf(address(this)) >= reward, \"FOTAFarm: contract is insufficient balance\");\n    fotaToken.transfer(msg.sender, reward);\n    totalEarned += reward;\n    emit Claimed(msg.sender, _dayPassed, reward, block.timestamp);\n  }\n\n  function _fundFOTA(uint _amount, uint _dayPassed) private {\n    uint restAmount = _amount;\n    uint eachDayAmount = _amount / rewardingDays;\n    for(uint i = 0; i < rewardingDays - 1; i++) {\n      dailyReward[_dayPassed + i] += eachDayAmount;\n      restAmount -= eachDayAmount;\n    }\n    dailyReward[_dayPassed + rewardingDays - 1] += restAmount;\n    emit FOTAFunded(_amount, block.timestamp);\n  }\n\n//  function _getPointWhenDepositViaLP(uint _lpAmount) private view returns (uint) {\n  function _getPointWhenDepositViaLP(uint _lpAmount) public view returns (uint) { // TODO\n    (uint reserve0, uint reserve1) = lpToken.getReserves();\n    uint rateInDecimal18 = reserve1 * decimal18 / reserve0;\n    // n = _lpAmount / _sqrt(rate)\n    // sqrt(1e18) = 1e9\n    return _lpAmount * lpBonus / _sqrt(rateInDecimal18) / decimal9;\n  }\n\n  function _takeFundFOTA(uint _amount) private {\n    require(fotaToken.allowance(msg.sender, address(this)) >= _amount, \"FOTAFarm: please approve fota first\");\n    require(fotaToken.balanceOf(msg.sender) >= _amount, \"FOTAFarm: insufficient balance\");\n    require(fotaToken.transferFrom(msg.sender, address(this), _amount), \"FOTAFarm: transfer fota failed\");\n  }\n\n  function _takeFundLP(uint _amount) private {\n    require(lpToken.allowance(msg.sender, address(this)) >= _amount, \"FOTAFarm: please approve LP token first\");\n    require(lpToken.balanceOf(msg.sender) >= _amount, \"FOTAFarm: insufficient balance\");\n    require(lpToken.transferFrom(msg.sender, address(this), _amount), \"FOTAFarm: transfer LP token failed\");\n  }\n\n  function _sqrt(uint x) private pure returns (uint y) {\n    uint z = (x + 1) / 2;\n    y = x;\n    while (z < y) {\n      y = z;\n      z = (x / z + z) / 2;\n    }\n  }\n\n  // ADMIN FUNCTIONS\n  function start(uint _startTime) external onlyMainAdmin {\n    require(startTime == 0, \"FOTAFarm: startTime had been initialized\");\n    require(_startTime >= 0 && _startTime < block.timestamp - secondInADay, \"FOTAFarm: must be earlier yesterday\");\n    startTime = _startTime;\n  }\n\n  function updateRewardingDays(uint _days) external onlyMainAdmin {\n    require(_days > 0, \"FOTAFarm: days invalid\");\n    rewardingDays = _days;\n    emit RewardingDaysUpdated(_days);\n  }\n\n  function updateLPBonusRate(uint _rate) external onlyMainAdmin {\n    require(_rate > 0, \"FOTAFarm: rate invalid\");\n    lpBonus = _rate;\n    emit LPBonusRateUpdated(_rate);\n  }\n\n  function drainToken(address _tokenAddress) external onlyMainAdmin {\n    IBEP20 token = IBEP20(_tokenAddress);\n    token.transfer(msg.sender, token.balanceOf(address(this)));\n  }\n\n  // TODO for testing purpose\n  function setContracts(address _fota, address _lp) external onlyMainAdmin {\n    fotaToken = IFOTAToken(_fota);\n    lpToken = ILPToken(_lp);\n  }\n}\n",
  "sourcePath": "/Users/dung/Documents/sources/fota-dapp/contracts/FOTAFarm.sol",
  "compiler": {
    "name": "solc",
    "version": "0.8.0+commit.c7dfd78e.Emscripten.clang"
  },
  "schemaVersion": "3.3.4",
  "updatedAt": "2022-03-03T04:57:24.232Z",
  "networkType": "ethereum",
  "devdoc": {
    "kind": "dev",
    "methods": {},
    "version": 1
  },
  "userdoc": {
    "kind": "user",
    "methods": {},
    "version": 1
  }
}