{
  "contractName": "FOTAToken",
  "abi": [
    {
      "inputs": [
        {
          "internalType": "address",
          "name": "_liquidityPoolAddress",
          "type": "address"
        }
      ],
      "stateMutability": "nonpayable",
      "type": "constructor"
    },
    {
      "anonymous": false,
      "inputs": [
        {
          "indexed": true,
          "internalType": "address",
          "name": "owner",
          "type": "address"
        },
        {
          "indexed": true,
          "internalType": "address",
          "name": "spender",
          "type": "address"
        },
        {
          "indexed": false,
          "internalType": "uint256",
          "name": "value",
          "type": "uint256"
        }
      ],
      "name": "Approval",
      "type": "event"
    },
    {
      "anonymous": false,
      "inputs": [
        {
          "indexed": true,
          "internalType": "address",
          "name": "_previousOwner",
          "type": "address"
        },
        {
          "indexed": true,
          "internalType": "address",
          "name": "_newOwner",
          "type": "address"
        }
      ],
      "name": "OwnershipTransferred",
      "type": "event"
    },
    {
      "anonymous": false,
      "inputs": [
        {
          "indexed": true,
          "internalType": "address",
          "name": "from",
          "type": "address"
        },
        {
          "indexed": true,
          "internalType": "address",
          "name": "to",
          "type": "address"
        },
        {
          "indexed": false,
          "internalType": "uint256",
          "name": "value",
          "type": "uint256"
        }
      ],
      "name": "Transfer",
      "type": "event"
    },
    {
      "inputs": [
        {
          "internalType": "address",
          "name": "",
          "type": "address"
        }
      ],
      "name": "advisorAddresses",
      "outputs": [
        {
          "internalType": "uint256",
          "name": "",
          "type": "uint256"
        }
      ],
      "stateMutability": "view",
      "type": "function"
    },
    {
      "inputs": [],
      "name": "blockInOneMonth",
      "outputs": [
        {
          "internalType": "uint256",
          "name": "",
          "type": "uint256"
        }
      ],
      "stateMutability": "view",
      "type": "function"
    },
    {
      "inputs": [],
      "name": "decimals",
      "outputs": [
        {
          "internalType": "uint256",
          "name": "",
          "type": "uint256"
        }
      ],
      "stateMutability": "view",
      "type": "function"
    },
    {
      "inputs": [
        {
          "internalType": "address",
          "name": "",
          "type": "address"
        }
      ],
      "name": "founderAddresses",
      "outputs": [
        {
          "internalType": "uint256",
          "name": "",
          "type": "uint256"
        }
      ],
      "stateMutability": "view",
      "type": "function"
    },
    {
      "inputs": [
        {
          "internalType": "address",
          "name": "",
          "type": "address"
        }
      ],
      "name": "gameAddresses",
      "outputs": [
        {
          "internalType": "bool",
          "name": "",
          "type": "bool"
        }
      ],
      "stateMutability": "view",
      "type": "function"
    },
    {
      "inputs": [],
      "name": "gamingAllocation",
      "outputs": [
        {
          "internalType": "uint256",
          "name": "",
          "type": "uint256"
        }
      ],
      "stateMutability": "view",
      "type": "function"
    },
    {
      "inputs": [],
      "name": "ido1stAllocation",
      "outputs": [
        {
          "internalType": "uint256",
          "name": "",
          "type": "uint256"
        }
      ],
      "stateMutability": "view",
      "type": "function"
    },
    {
      "inputs": [],
      "name": "ido2ndAllocation",
      "outputs": [
        {
          "internalType": "uint256",
          "name": "",
          "type": "uint256"
        }
      ],
      "stateMutability": "view",
      "type": "function"
    },
    {
      "inputs": [],
      "name": "idoReleaseCounter",
      "outputs": [
        {
          "internalType": "uint8",
          "name": "",
          "type": "uint8"
        }
      ],
      "stateMutability": "view",
      "type": "function"
    },
    {
      "inputs": [],
      "name": "isBackup",
      "outputs": [
        {
          "internalType": "bool",
          "name": "",
          "type": "bool"
        }
      ],
      "stateMutability": "view",
      "type": "function"
    },
    {
      "inputs": [],
      "name": "isOwner",
      "outputs": [
        {
          "internalType": "bool",
          "name": "",
          "type": "bool"
        }
      ],
      "stateMutability": "view",
      "type": "function"
    },
    {
      "inputs": [
        {
          "internalType": "address",
          "name": "",
          "type": "address"
        }
      ],
      "name": "lastReleaseAdvisorBlocks",
      "outputs": [
        {
          "internalType": "uint256",
          "name": "",
          "type": "uint256"
        }
      ],
      "stateMutability": "view",
      "type": "function"
    },
    {
      "inputs": [
        {
          "internalType": "address",
          "name": "",
          "type": "address"
        }
      ],
      "name": "lastReleaseFounderBlocks",
      "outputs": [
        {
          "internalType": "uint256",
          "name": "",
          "type": "uint256"
        }
      ],
      "stateMutability": "view",
      "type": "function"
    },
    {
      "inputs": [],
      "name": "lastReleaseLiquidityPoolBlock",
      "outputs": [
        {
          "internalType": "uint256",
          "name": "",
          "type": "uint256"
        }
      ],
      "stateMutability": "view",
      "type": "function"
    },
    {
      "inputs": [],
      "name": "lastReleaseMarketingBlock",
      "outputs": [
        {
          "internalType": "uint256",
          "name": "",
          "type": "uint256"
        }
      ],
      "stateMutability": "view",
      "type": "function"
    },
    {
      "inputs": [],
      "name": "liquidityPoolAllocation",
      "outputs": [
        {
          "internalType": "uint256",
          "name": "",
          "type": "uint256"
        }
      ],
      "stateMutability": "view",
      "type": "function"
    },
    {
      "inputs": [],
      "name": "lockingFunctionEnabled",
      "outputs": [
        {
          "internalType": "bool",
          "name": "",
          "type": "bool"
        }
      ],
      "stateMutability": "view",
      "type": "function"
    },
    {
      "inputs": [],
      "name": "marketingAllocation",
      "outputs": [
        {
          "internalType": "uint256",
          "name": "",
          "type": "uint256"
        }
      ],
      "stateMutability": "view",
      "type": "function"
    },
    {
      "inputs": [],
      "name": "maxSupply",
      "outputs": [
        {
          "internalType": "uint256",
          "name": "",
          "type": "uint256"
        }
      ],
      "stateMutability": "view",
      "type": "function"
    },
    {
      "inputs": [],
      "name": "name",
      "outputs": [
        {
          "internalType": "string",
          "name": "",
          "type": "string"
        }
      ],
      "stateMutability": "view",
      "type": "function"
    },
    {
      "inputs": [],
      "name": "paused",
      "outputs": [
        {
          "internalType": "bool",
          "name": "",
          "type": "bool"
        }
      ],
      "stateMutability": "view",
      "type": "function"
    },
    {
      "inputs": [],
      "name": "privateSaleAllocation",
      "outputs": [
        {
          "internalType": "uint256",
          "name": "",
          "type": "uint256"
        }
      ],
      "stateMutability": "view",
      "type": "function"
    },
    {
      "inputs": [
        {
          "internalType": "address",
          "name": "",
          "type": "address"
        }
      ],
      "name": "saleAddresses",
      "outputs": [
        {
          "internalType": "bool",
          "name": "",
          "type": "bool"
        }
      ],
      "stateMutability": "view",
      "type": "function"
    },
    {
      "inputs": [],
      "name": "seedSaleAllocation",
      "outputs": [
        {
          "internalType": "uint256",
          "name": "",
          "type": "uint256"
        }
      ],
      "stateMutability": "view",
      "type": "function"
    },
    {
      "inputs": [
        {
          "internalType": "address",
          "name": "_address",
          "type": "address"
        },
        {
          "internalType": "uint256",
          "name": "_allocation",
          "type": "uint256"
        }
      ],
      "name": "setAdvisorAddress",
      "outputs": [],
      "stateMutability": "nonpayable",
      "type": "function"
    },
    {
      "inputs": [
        {
          "internalType": "address",
          "name": "_address",
          "type": "address"
        },
        {
          "internalType": "uint256",
          "name": "_allocation",
          "type": "uint256"
        }
      ],
      "name": "setFounderAddress",
      "outputs": [],
      "stateMutability": "nonpayable",
      "type": "function"
    },
    {
      "inputs": [
        {
          "internalType": "address",
          "name": "_gameAddress",
          "type": "address"
        },
        {
          "internalType": "bool",
          "name": "_status",
          "type": "bool"
        }
      ],
      "name": "setGameAddress",
      "outputs": [],
      "stateMutability": "nonpayable",
      "type": "function"
    },
    {
      "inputs": [
        {
          "internalType": "address",
          "name": "_address",
          "type": "address"
        }
      ],
      "name": "setLiquidityPoolAddress",
      "outputs": [],
      "stateMutability": "nonpayable",
      "type": "function"
    },
    {
      "inputs": [
        {
          "internalType": "address",
          "name": "_address",
          "type": "address"
        }
      ],
      "name": "setMarketingAddress",
      "outputs": [],
      "stateMutability": "nonpayable",
      "type": "function"
    },
    {
      "inputs": [
        {
          "internalType": "address",
          "name": "_address",
          "type": "address"
        },
        {
          "internalType": "bool",
          "name": "_status",
          "type": "bool"
        }
      ],
      "name": "setSaleAddress",
      "outputs": [],
      "stateMutability": "nonpayable",
      "type": "function"
    },
    {
      "inputs": [],
      "name": "startVestingAdvisorBlock",
      "outputs": [
        {
          "internalType": "uint256",
          "name": "",
          "type": "uint256"
        }
      ],
      "stateMutability": "view",
      "type": "function"
    },
    {
      "inputs": [],
      "name": "startVestingFounderBlock",
      "outputs": [
        {
          "internalType": "uint256",
          "name": "",
          "type": "uint256"
        }
      ],
      "stateMutability": "view",
      "type": "function"
    },
    {
      "inputs": [],
      "name": "startVestingLiquidityPoolBlock",
      "outputs": [
        {
          "internalType": "uint256",
          "name": "",
          "type": "uint256"
        }
      ],
      "stateMutability": "view",
      "type": "function"
    },
    {
      "inputs": [],
      "name": "startVestingMarketingBlock",
      "outputs": [
        {
          "internalType": "uint256",
          "name": "",
          "type": "uint256"
        }
      ],
      "stateMutability": "view",
      "type": "function"
    },
    {
      "inputs": [],
      "name": "strategicSaleAllocation",
      "outputs": [
        {
          "internalType": "uint256",
          "name": "",
          "type": "uint256"
        }
      ],
      "stateMutability": "view",
      "type": "function"
    },
    {
      "inputs": [],
      "name": "symbol",
      "outputs": [
        {
          "internalType": "string",
          "name": "",
          "type": "string"
        }
      ],
      "stateMutability": "view",
      "type": "function"
    },
    {
      "inputs": [],
      "name": "totalSupply",
      "outputs": [
        {
          "internalType": "uint256",
          "name": "",
          "type": "uint256"
        }
      ],
      "stateMutability": "view",
      "type": "function"
    },
    {
      "inputs": [
        {
          "internalType": "address",
          "name": "_newOwner",
          "type": "address"
        }
      ],
      "name": "transferOwnership",
      "outputs": [],
      "stateMutability": "nonpayable",
      "type": "function"
    },
    {
      "inputs": [
        {
          "internalType": "address",
          "name": "_newBackup",
          "type": "address"
        }
      ],
      "name": "updateBackup",
      "outputs": [],
      "stateMutability": "nonpayable",
      "type": "function"
    },
    {
      "inputs": [],
      "name": "startVestingMarketing",
      "outputs": [],
      "stateMutability": "nonpayable",
      "type": "function"
    },
    {
      "inputs": [],
      "name": "startVestingLiquidityPool",
      "outputs": [],
      "stateMutability": "nonpayable",
      "type": "function"
    },
    {
      "inputs": [],
      "name": "startVestingFounder",
      "outputs": [],
      "stateMutability": "nonpayable",
      "type": "function"
    },
    {
      "inputs": [],
      "name": "startVestingAdvisor",
      "outputs": [],
      "stateMutability": "nonpayable",
      "type": "function"
    },
    {
      "inputs": [
        {
          "internalType": "address",
          "name": "_gamerAddress",
          "type": "address"
        },
        {
          "internalType": "uint256",
          "name": "_amount",
          "type": "uint256"
        }
      ],
      "name": "releaseGameAllocation",
      "outputs": [
        {
          "internalType": "bool",
          "name": "",
          "type": "bool"
        }
      ],
      "stateMutability": "nonpayable",
      "type": "function"
    },
    {
      "inputs": [
        {
          "internalType": "address",
          "name": "_buyerAddress",
          "type": "address"
        },
        {
          "internalType": "uint256",
          "name": "_amount",
          "type": "uint256"
        }
      ],
      "name": "releaseSeedSaleAllocation",
      "outputs": [
        {
          "internalType": "bool",
          "name": "",
          "type": "bool"
        }
      ],
      "stateMutability": "nonpayable",
      "type": "function"
    },
    {
      "inputs": [
        {
          "internalType": "address",
          "name": "_buyerAddress",
          "type": "address"
        },
        {
          "internalType": "uint256",
          "name": "_amount",
          "type": "uint256"
        }
      ],
      "name": "releaseStrategicSaleAllocation",
      "outputs": [
        {
          "internalType": "bool",
          "name": "",
          "type": "bool"
        }
      ],
      "stateMutability": "nonpayable",
      "type": "function"
    },
    {
      "inputs": [
        {
          "internalType": "address",
          "name": "_buyerAddress",
          "type": "address"
        },
        {
          "internalType": "uint256",
          "name": "_amount",
          "type": "uint256"
        }
      ],
      "name": "releasePrivateSaleAllocation",
      "outputs": [
        {
          "internalType": "bool",
          "name": "",
          "type": "bool"
        }
      ],
      "stateMutability": "nonpayable",
      "type": "function"
    },
    {
      "inputs": [
        {
          "internalType": "address",
          "name": "_address",
          "type": "address"
        }
      ],
      "name": "releaseIDOAllocation",
      "outputs": [],
      "stateMutability": "nonpayable",
      "type": "function"
    },
    {
      "inputs": [],
      "name": "releaseMarketing",
      "outputs": [],
      "stateMutability": "nonpayable",
      "type": "function"
    },
    {
      "inputs": [],
      "name": "releaseLiquidityPoolAllocation",
      "outputs": [],
      "stateMutability": "nonpayable",
      "type": "function"
    },
    {
      "inputs": [],
      "name": "releaseFounderAllocation",
      "outputs": [],
      "stateMutability": "nonpayable",
      "type": "function"
    },
    {
      "inputs": [],
      "name": "releaseAdvisorAllocation",
      "outputs": [],
      "stateMutability": "nonpayable",
      "type": "function"
    },
    {
      "inputs": [
        {
          "internalType": "address",
          "name": "_owner",
          "type": "address"
        }
      ],
      "name": "balanceOf",
      "outputs": [
        {
          "internalType": "uint256",
          "name": "",
          "type": "uint256"
        }
      ],
      "stateMutability": "view",
      "type": "function"
    },
    {
      "inputs": [
        {
          "internalType": "address",
          "name": "_owner",
          "type": "address"
        },
        {
          "internalType": "address",
          "name": "_spender",
          "type": "address"
        }
      ],
      "name": "allowance",
      "outputs": [
        {
          "internalType": "uint256",
          "name": "",
          "type": "uint256"
        }
      ],
      "stateMutability": "view",
      "type": "function"
    },
    {
      "inputs": [
        {
          "internalType": "address",
          "name": "_to",
          "type": "address"
        },
        {
          "internalType": "uint256",
          "name": "_value",
          "type": "uint256"
        }
      ],
      "name": "transfer",
      "outputs": [
        {
          "internalType": "bool",
          "name": "",
          "type": "bool"
        }
      ],
      "stateMutability": "nonpayable",
      "type": "function"
    },
    {
      "inputs": [
        {
          "internalType": "address",
          "name": "_spender",
          "type": "address"
        },
        {
          "internalType": "uint256",
          "name": "_value",
          "type": "uint256"
        }
      ],
      "name": "approve",
      "outputs": [
        {
          "internalType": "bool",
          "name": "",
          "type": "bool"
        }
      ],
      "stateMutability": "nonpayable",
      "type": "function"
    },
    {
      "inputs": [
        {
          "internalType": "address",
          "name": "_from",
          "type": "address"
        },
        {
          "internalType": "address",
          "name": "_to",
          "type": "address"
        },
        {
          "internalType": "uint256",
          "name": "_value",
          "type": "uint256"
        }
      ],
      "name": "transferFrom",
      "outputs": [
        {
          "internalType": "bool",
          "name": "",
          "type": "bool"
        }
      ],
      "stateMutability": "nonpayable",
      "type": "function"
    },
    {
      "inputs": [
        {
          "internalType": "address",
          "name": "_spender",
          "type": "address"
        },
        {
          "internalType": "uint256",
          "name": "_addedValue",
          "type": "uint256"
        }
      ],
      "name": "increaseAllowance",
      "outputs": [
        {
          "internalType": "bool",
          "name": "",
          "type": "bool"
        }
      ],
      "stateMutability": "nonpayable",
      "type": "function"
    },
    {
      "inputs": [
        {
          "internalType": "address",
          "name": "_spender",
          "type": "address"
        },
        {
          "internalType": "uint256",
          "name": "_subtractedValue",
          "type": "uint256"
        }
      ],
      "name": "decreaseAllowance",
      "outputs": [
        {
          "internalType": "bool",
          "name": "",
          "type": "bool"
        }
      ],
      "stateMutability": "nonpayable",
      "type": "function"
    },
    {
      "inputs": [
        {
          "internalType": "uint256",
          "name": "_amount",
          "type": "uint256"
        }
      ],
      "name": "burn",
      "outputs": [],
      "stateMutability": "nonpayable",
      "type": "function"
    },
    {
      "inputs": [
        {
          "internalType": "bool",
          "name": "_paused",
          "type": "bool"
        }
      ],
      "name": "updatePauseStatus",
      "outputs": [],
      "stateMutability": "nonpayable",
      "type": "function"
    },
    {
      "inputs": [
        {
          "internalType": "address",
          "name": "_address",
          "type": "address"
        },
        {
          "internalType": "bool",
          "name": "_locked",
          "type": "bool"
        }
      ],
      "name": "updateLockStatus",
      "outputs": [],
      "stateMutability": "nonpayable",
      "type": "function"
    },
    {
      "inputs": [],
      "name": "disableLockingFunction",
      "outputs": [],
      "stateMutability": "nonpayable",
      "type": "function"
    },
    {
      "inputs": [
        {
          "internalType": "address",
          "name": "_address",
          "type": "address"
        }
      ],
      "name": "checkLockStatus",
      "outputs": [
        {
          "internalType": "bool",
          "name": "",
          "type": "bool"
        }
      ],
      "stateMutability": "view",
      "type": "function"
    },
    {
      "inputs": [
        {
          "internalType": "address",
          "name": "_oldAddress",
          "type": "address"
        },
        {
          "internalType": "address",
          "name": "_newAddress",
          "type": "address"
        }
      ],
      "name": "updateFounderAddress",
      "outputs": [],
      "stateMutability": "nonpayable",
      "type": "function"
    },
    {
      "inputs": [
        {
          "internalType": "address",
          "name": "_oldAddress",
          "type": "address"
        },
        {
          "internalType": "address",
          "name": "_newAddress",
          "type": "address"
        }
      ],
      "name": "updateAdvisorAddress",
      "outputs": [],
      "stateMutability": "nonpayable",
      "type": "function"
    }
  ],
  "bytecode": "0x6080604052600b805461ff0019166101001790553480156200002057600080fd5b5060405162002b5738038062002b57833981016040819052620000439162000084565b60018054336001600160a01b03199182168117909255600080548216909217909155600780549091166001600160a01b0392909216919091179055620000b4565b60006020828403121562000096578081fd5b81516001600160a01b0381168114620000ad578182fd5b9392505050565b612a9380620000c46000396000f3fe608060405234801561001057600080fd5b50600436106104065760003560e01c80637c22ef6f1161021a578063c560aa3811610135578063e605f751116100c8578063e7d7853f11610097578063f2fde38b1161007c578063f2fde38b14610784578063f739810c14610797578063fea292e1146107aa57610406565b8063e7d7853f14610774578063e899b2901461077c57610406565b8063e605f75114610746578063e77063f014610759578063e780377e1461052a578063e79523f21461076c57610406565b8063d768e12111610104578063d768e12114610710578063dd4d616614610723578063dd62ed3e1461072b578063dda370ac1461073e57610406565b8063c560aa38146106f0578063c8aad250146106f8578063cf95833e14610700578063d5abeb011461070857610406565b8063a457c2d7116101ad578063ba9c26671161017c578063ba9c2667146106ba578063bc6e6830146106cd578063c211cd8c146106e0578063c446c45c146106e857610406565b8063a457c2d714610679578063a9059cbb1461068c578063b0c6a1cf1461069f578063b6ab0530146106a757610406565b8063906e9dd0116101e9578063906e9dd01461064e57806395d89b4114610661578063982af2b3146106695780639ef16f191461067157610406565b80637c22ef6f146106185780637ec5e4371461062b5780638cf7ad231461063e5780638f32d59b1461064657610406565b80634911f87c1161032557806363986aba116102b85780636b6cb11f116102875780636da36f291161026c5780636da36f29146105df57806370a08231146105f2578063786a1e211461060557610406565b80636b6cb11f146105c45780636c345a28146105cc57610406565b806363986aba146105785780636435a4fa1461058b5780636757a2ba1461059e57806368b8adbc146105b157610406565b80635c975abb116102f45780635c975abb14610542578063613417221461054a57806362fcf5901461055d5780636318813d1461056557610406565b80634911f87c146105175780634e3b7bc61461052a578063534562501461053257806355855d341461053a57610406565b806323b872dd1161039d57806343d53d4c1161036c57806343d53d4c146104df5780634605089a146104f45780634660fc5c146104fc57806346d78ca11461050f57610406565b806323b872dd1461049e578063313ce567146104b157806339509351146104b957806342966c68146104cc57610406565b806310efc990116103d957806310efc9901461046657806315f0c2201461046e57806316afd7b41461048357806318160ddd1461049657610406565b806303c01e681461040b57806306fdde03146104295780630708fec41461043e578063095ea7b314610453575b600080fd5b6104136107b2565b60405161042091906120dd565b60405180910390f35b6104316107d6565b60405161042091906120e8565b61045161044c366004611fcb565b61080f565b005b610413610461366004612082565b610891565b6104516108a7565b6104766108f1565b60405161042091906129a2565b610451610491366004611fcb565b610900565b6104766109cf565b6104136104ac36600461201e565b6109d5565b610476610a27565b6104136104c7366004612082565b610a2c565b6104516104da3660046120c5565b610a63565b6104e7610adf565b60405161042091906129ab565b610476610aee565b61045161050a366004611fec565b610afd565b610451610b35565b610451610525366004612082565b610cf5565b610476610da7565b610476610db6565b610476610dc5565b610413610dcb565b610451610558366004612059565b610dd4565b610476610e49565b610413610573366004612082565b610e4f565b610451610586366004611fcb565b610ef2565b610413610599366004612082565b610f6b565b6104136105ac366004612082565b61100e565b6104766105bf366004611fcb565b6110b2565b6104516110c4565b6104766105da366004611fcb565b61110e565b6104516105ed366004612059565b611120565b610476610600366004611fcb565b611195565b610451610613366004611fec565b6111b4565b610476610626366004611fcb565b6111ec565b610451610639366004612059565b6111fe565b610476611274565b61041361127a565b61045161065c366004611fcb565b611291565b61043161130a565b610413611343565b610451611351565b610413610687366004612082565b6114f5565b61041361069a366004612082565b61152c565b610476611539565b6104766106b5366004611fcb565b61153f565b6104136106c8366004611fcb565b611551565b6104516106db3660046120ab565b61156f565b6104766115a6565b6104766115ac565b6104516115bb565b61047661165a565b610451611669565b6104766117a1565b61041361071e366004611fcb565b6117b1565b6104766117c6565b610476610739366004611fec565b6117d6565b610451611801565b610413610754366004612082565b611936565b610413610767366004611fcb565b6119d9565b6104766119ee565b6104516119f4565b610451611a25565b610451610792366004611fcb565b611a8d565b6104516107a5366004612082565b611b42565b610476611bf4565b600080546001600160a01b03166107c7611bfb565b6001600160a01b031614905090565b6040518060400160405280601181526020017f4669676874204f6620546865204167657300000000000000000000000000000081525081565b6108176107b2565b61083c5760405162461bcd60e51b8152600401610833906122a5565b60405180910390fd5b6001600160a01b0381166108625760405162461bcd60e51b815260040161083390612450565b6000805473ffffffffffffffffffffffffffffffffffffffff19166001600160a01b0392909216919091179055565b600061089e338484611bff565b50600192915050565b6108af61127a565b6108cb5760405162461bcd60e51b81526004016108339061290e565b601154156108eb5760405162461bcd60e51b815260040161083390612198565b43601155565b6a17293b0a9e69fd9c00000081565b61090861127a565b6109245760405162461bcd60e51b81526004016108339061290e565b601854610100900460ff161561094c5760405162461bcd60e51b8152600401610833906125fa565b600b5462010000900460ff166109a857600b805462010000900460ff1690600261097583612a27565b91906101000a81548160ff021916908360ff160217905550506109a3816a05ca4ec2a79a7f67000000611c8d565b6109cc565b6018805461ff0019166101001790556109cc816a02e5276153cd3fb3800000611c8d565b50565b600a5481565b60006109e2848484611d67565b6001600160a01b0384166000908152601a6020908152604080832033808552925290912054610a1d918691610a18908690612a10565b611bff565b5060019392505050565b601281565b336000818152601a602090815260408083206001600160a01b0387168452909152812054909161089e918590610a189086906129b9565b33600090815260196020526040902054610a7e908290612a10565b33600090815260196020526040902055600a54610a9c908290612a10565b600a5560405160009033907fddf252ad1be2c89b69c2b068fc378daa952ba7f163c4a11628f55a4df523b3ef90610ad49085906129a2565b60405180910390a350565b600b5462010000900460ff1681565b6a02e5276153cd3fb380000081565b610b078282611e39565b6001600160a01b03918216600081815260126020526040808220805494909516825281209290925581529055565b600060056000610b43611bfb565b6001600160a01b03166001600160a01b031681526020019081526020016000205411610b815760405162461bcd60e51b81526004016108339061272d565b6000610b91620d2f00600c6129f1565b601054610b9e91906129b9565b90506000601054118015610bb157508043115b610bcd5760405162461bcd60e51b81526004016108339061279b565b6000610bdd620d2f0060186129f1565b601054610bea91906129b9565b336000908152601360205260409020549091508111610c1b5760405162461bcd60e51b8152600401610833906125c3565b33600090815260136020526040902054610c42573360009081526013602052604090208290555b600081431015610c7f5733600090815260136020526040902054610c669043612a10565b3360009081526013602052604090204390559050610cae565b33600090815260136020526040902054610c999083612a10565b33600090815260136020526040902083905590505b6000610cbe620d2f00600c6129f1565b33600090815260056020526040902054610cd99084906129f1565b610ce391906129d1565b9050610cef3382611c8d565b50505050565b610cfd61127a565b610d195760405162461bcd60e51b81526004016108339061290e565b6001600160a01b038216610d3f5760405162461bcd60e51b815260040161083390612631565b6a39e7139a8c08fa0600000081600954610d5991906129b9565b1115610d775760405162461bcd60e51b81526004016108339061226e565b6001600160a01b0382166000908152600560205260409020819055600954610da09082906129b9565b6009555050565b6a1cf389cd46047d0300000081565b6a05ca4ec2a79a7f6700000081565b600e5481565b600b5460ff1681565b610ddc61127a565b610df85760405162461bcd60e51b81526004016108339061290e565b6001600160a01b038216610e1e5760405162461bcd60e51b815260040161083390612578565b6001600160a01b03919091166000908152600260205260409020805460ff1916911515919091179055565b60105481565b600060036000610e5d611bfb565b6001600160a01b0316815260208101919091526040016000205460ff16610e965760405162461bcd60e51b81526004016108339061272d565b6a1cf389cd46047d0300000082601654610eb091906129b9565b1115610ece5760405162461bcd60e51b81526004016108339061213b565b610ed88383611c8d565b81601654610ee691906129b9565b60165550600192915050565b610efa61127a565b610f165760405162461bcd60e51b81526004016108339061290e565b6001600160a01b038116610f3c5760405162461bcd60e51b81526004016108339061251b565b6007805473ffffffffffffffffffffffffffffffffffffffff19166001600160a01b0392909216919091179055565b600060036000610f79611bfb565b6001600160a01b0316815260208101919091526040016000205460ff16610fb25760405162461bcd60e51b81526004016108339061272d565b6a115eec47f6cf7e3500000082601754610fcc91906129b9565b1115610fea5760405162461bcd60e51b815260040161083390612945565b610ff48383611c8d565b8160175461100291906129b9565b60175550600192915050565b60006002600061101c611bfb565b6001600160a01b0316815260208101919091526040016000205460ff166110555760405162461bcd60e51b81526004016108339061272d565b6b01785dff6c8e3a59270000008260145461107091906129b9565b111561108e5760405162461bcd60e51b8152600401610833906123f3565b6110988383611c8d565b816014546110a691906129b9565b60145550600192915050565b60046020526000908152604090205481565b6110cc61127a565b6110e85760405162461bcd60e51b81526004016108339061290e565b601054156111085760405162461bcd60e51b8152600401610833906126eb565b43601055565b60056020526000908152604090205481565b61112861127a565b6111445760405162461bcd60e51b81526004016108339061290e565b6001600160a01b03821661116a5760405162461bcd60e51b81526004016108339061282f565b6001600160a01b03919091166000908152600360205260409020805460ff1916911515919091179055565b6001600160a01b0381166000908152601960205260409020545b919050565b6111be8282611eb1565b6001600160a01b03918216600081815260136020526040808220805494909516825281209290925581529055565b60136020526000908152604090205481565b61120661127a565b6112225760405162461bcd60e51b81526004016108339061290e565b600b54610100900460ff166112495760405162461bcd60e51b8152600401610833906124e4565b6001600160a01b03919091166000908152601b60205260409020805460ff1916911515919091179055565b600d5481565b6001546000906001600160a01b03166107c7611bfb565b61129961127a565b6112b55760405162461bcd60e51b81526004016108339061290e565b6001600160a01b0381166112db5760405162461bcd60e51b8152600401610833906127d2565b6006805473ffffffffffffffffffffffffffffffffffffffff19166001600160a01b0392909216919091179055565b6040518060400160405280600481526020017f464f54410000000000000000000000000000000000000000000000000000000081525081565b600b54610100900460ff1681565b60006004600061135f611bfb565b6001600160a01b03166001600160a01b03168152602001908152602001600020541161139d5760405162461bcd60e51b81526004016108339061272d565b60006113ad620d2f0060066129f1565b6011546113ba91906129b9565b905060006011541180156113cd57508043115b6113e95760405162461bcd60e51b81526004016108339061279b565b60006113f9620d2f0060126129f1565b60115461140691906129b9565b33600090815260126020526040902054909150611430573360009081526012602052604090208290555b33600090815260126020526040902054811161145e5760405162461bcd60e51b815260040161083390612237565b60008143101561149b57336000908152601260205260409020546114829043612a10565b33600090815260126020526040902043905590506114ca565b336000908152601260205260409020546114b59083612a10565b33600090815260126020526040902083905590505b60006114da620d2f00600c6129f1565b33600090815260046020526040902054610cd99084906129f1565b336000818152601a602090815260408083206001600160a01b0387168452909152812054909161089e918590610a18908690612a10565b600061089e338484611d67565b600f5481565b60126020526000908152604090205481565b6001600160a01b03166000908152601b602052604090205460ff1690565b61157761127a565b6115935760405162461bcd60e51b81526004016108339061290e565b600b805460ff1916911515919091179055565b600c5481565b6a08af7623fb67bf1a80000081565b6115c361127a565b6115df5760405162461bcd60e51b81526004016108339061290e565b600f54156115ff5760405162461bcd60e51b8152600401610833906128b1565b43600f55611611620d2f0060036129f1565b600f5461161e91906129b9565b600d55600754611658906001600160a01b031660646116496a1cf389cd46047d03000000600a6129f1565b61165391906129d1565b611c8d565b565b6a115eec47f6cf7e3500000081565b6006546001600160a01b031661167d611bfb565b6001600160a01b0316146116a35760405162461bcd60e51b81526004016108339061272d565b6000600e541180156116ce57506116be620d2f0060036129f1565b600e546116cb91906129b9565b43115b6116ea5760405162461bcd60e51b81526004016108339061279b565b60006116fa620d2f00600f6129f1565b600e5461170791906129b9565b9050600c54811161172a5760405162461bcd60e51b815260040161083390612487565b60008143101561174c57600c546117419043612a10565b43600c559050611761565b600c546117599083612a10565b600c83905590505b6000611771620d2f00600c6129f1565b611786836a17293b0a9e69fd9c0000006129f1565b61179091906129d1565b905061179c3382611c8d565b505050565b6b024306c4097859c43c00000081565b60026020526000908152604090205460ff1681565b6b01785dff6c8e3a592700000081565b6001600160a01b039182166000908152601a6020908152604080832093909416825291909152205490565b6007546001600160a01b0316611815611bfb565b6001600160a01b03161461183b5760405162461bcd60e51b81526004016108339061272d565b6000600f541180156118665750611856620d2f0060036129f1565b600f5461186391906129b9565b43115b6118825760405162461bcd60e51b81526004016108339061279b565b6000611892620d2f00600f6129f1565b600f5461189f91906129b9565b9050600d5481116118c25760405162461bcd60e51b8152600401610833906121da565b6000814310156118e457600d546118d99043612a10565b43600d5590506118f9565b600d546118f19083612a10565b600d83905590505b6000611909620d2f00600c6129f1565b8260646119226a1cf389cd46047d03000000605a6129f1565b61192c91906129d1565b61178691906129f1565b600060036000611944611bfb565b6001600160a01b0316815260208101919091526040016000205460ff1661197d5760405162461bcd60e51b81526004016108339061272d565b6a08af7623fb67bf1a8000008260155461199791906129b9565b11156119b55760405162461bcd60e51b8152600401610833906122dc565b6119bf8383611c8d565b816015546119cd91906129b9565b60155550600192915050565b60036020526000908152604090205460ff1681565b60115481565b6119fc61127a565b611a185760405162461bcd60e51b81526004016108339061290e565b600b805461ff0019169055565b611a2d61127a565b611a495760405162461bcd60e51b81526004016108339061290e565b600e5415611a695760405162461bcd60e51b815260040161083390612339565b43600e55611a7b620d2f0060036129f1565b600e54611a8891906129b9565b600c55565b611a956107b2565b611ab15760405162461bcd60e51b8152600401610833906122a5565b6001600160a01b038116611ad75760405162461bcd60e51b81526004016108339061287a565b6001805473ffffffffffffffffffffffffffffffffffffffff19166001600160a01b038316908117909155611b0a611bfb565b6001600160a01b03167f8be0079c531659141344cd1fd0a4f28419497f9722a3daafe3b4186f6b6457e060405160405180910390a350565b611b4a61127a565b611b665760405162461bcd60e51b81526004016108339061290e565b6001600160a01b038216611b8c5760405162461bcd60e51b815260040161083390612396565b6a1cf389cd46047d0300000081600854611ba691906129b9565b1115611bc45760405162461bcd60e51b81526004016108339061226e565b6001600160a01b0382166000908152600460205260409020819055600854611bed9082906129b9565b6008555050565b620d2f0081565b3390565b6001600160a01b038216611c1257600080fd5b6001600160a01b038316611c2557600080fd5b6001600160a01b038084166000818152601a602090815260408083209487168084529490915290819020849055517f8c5be1e5ebec7d5bd14f71427d1e84f3dd0314c0f7b2291e5b200ac8c7c3b92590611c809085906129a2565b60405180910390a3505050565b611c9682611f29565b6b024306c4097859c43c00000081600a54611cb191906129b9565b1115611ccf5760405162461bcd60e51b815260040161083390612764565b6001600160a01b038216600090815260196020526040902054611cf39082906129b9565b6001600160a01b038316600090815260196020526040902055600a54611d1a9082906129b9565b600a556040516001600160a01b038316906000907fddf252ad1be2c89b69c2b068fc378daa952ba7f163c4a11628f55a4df523b3ef90611d5b9085906129a2565b60405180910390a35050565b611d7083611f29565b6001600160a01b038316600090815260196020526040902054611d94908290612a10565b6001600160a01b038085166000908152601960205260408082209390935590841681522054611dc49082906129b9565b6001600160a01b038316600081815260196020526040902091909155611df65780600a54611df29190612a10565b600a555b816001600160a01b0316836001600160a01b03167fddf252ad1be2c89b69c2b068fc378daa952ba7f163c4a11628f55a4df523b3ef83604051611c8091906129a2565b611e4161127a565b611e5d5760405162461bcd60e51b81526004016108339061290e565b6001600160a01b038216611e835760405162461bcd60e51b815260040161083390612396565b6001600160a01b03918216600081815260046020526040808220805494909516825281209290925581529055565b611eb961127a565b611ed55760405162461bcd60e51b81526004016108339061290e565b6001600160a01b038216611efb5760405162461bcd60e51b815260040161083390612631565b6001600160a01b03918216600081815260056020526040808220805494909516825281209290925581529055565b600b54610100900460ff1615611f81576001600160a01b0381166000908152601b602052604090205460ff16158015611f655750600b5460ff16155b6109a35760405162461bcd60e51b81526004016108339061268e565b600b5460ff16156109cc5760405162461bcd60e51b81526004016108339061268e565b80356001600160a01b03811681146111af57600080fd5b803580151581146111af57600080fd5b600060208284031215611fdc578081fd5b611fe582611fa4565b9392505050565b60008060408385031215611ffe578081fd5b61200783611fa4565b915061201560208401611fa4565b90509250929050565b600080600060608486031215612032578081fd5b61203b84611fa4565b925061204960208501611fa4565b9150604084013590509250925092565b6000806040838503121561206b578182fd5b61207483611fa4565b915061201560208401611fbb565b60008060408385031215612094578182fd5b61209d83611fa4565b946020939093013593505050565b6000602082840312156120bc578081fd5b611fe582611fbb565b6000602082840312156120d6578081fd5b5035919050565b901515815260200190565b6000602080835283518082850152825b81811015612114578581018301518582016040015282016120f8565b818111156121255783604083870101525b50601f01601f1916929092016040019392505050565b6020808252602a908201527f4d6178207374726174656769632073616c6520616c6c6f636174696f6e20686160408201527f642072656c656173656400000000000000000000000000000000000000000000606082015260800190565b60208082526022908201527f56657374696e6741647669736f7220686164207374617274656420616c726561604082015261647960f01b606082015260800190565b60208082526026908201527f4c697175696469747920706f6f6c20616c6c6f636174696f6e2068616420726560408201527f6c65617365640000000000000000000000000000000000000000000000000000606082015260800190565b6020808252601f908201527f41647669736f7220616c6c6f636174696f6e206861642072656c656173656400604082015260600190565b6020808252600e908201527f496e76616c696420616d6f756e74000000000000000000000000000000000000604082015260600190565b6020808252600a908201527f6f6e6c794261636b757000000000000000000000000000000000000000000000604082015260600190565b60208082526025908201527f4d617820736565642073616c6520616c6c6f636174696f6e206861642072656c60408201527f6561736564000000000000000000000000000000000000000000000000000000606082015260800190565b60208082526024908201527f56657374696e674d61726b6574696e6720686164207374617274656420616c7260408201527f6561647900000000000000000000000000000000000000000000000000000000606082015260800190565b6020808252602e908201527f546f6b656e417574683a2061647669736f72206164647265737320697320746860408201527f65207a65726f2061646472657373000000000000000000000000000000000000606082015260800190565b60208082526022908201527f4d61782067616d696e6720616c6c6f636174696f6e206861642072656c65617360408201527f6564000000000000000000000000000000000000000000000000000000000000606082015260800190565b6020808252601d908201527f546f6b656e417574683a20696e76616c6964206e6577206261636b7570000000604082015260600190565b60208082526021908201527f4d61726b6574696e6720616c6c6f636174696f6e206861642072656c6561736560408201527f6400000000000000000000000000000000000000000000000000000000000000606082015260800190565b6020808252601c908201527f4c6f636b696e672066756e6374696f6e2069732064697361626c656400000000604082015260600190565b60208082526030908201527f546f6b656e417574683a206c697175696469747920616464726573732069732060408201527f746865207a65726f206164647265737300000000000000000000000000000000606082015260800190565b6020808252602b908201527f546f6b656e417574683a2067616d65206164647265737320697320746865207a60408201526a65726f206164647265737360a81b606082015260800190565b6020808252601f908201527f466f756e64657220616c6c6f636174696f6e206861642072656c656173656400604082015260600190565b6020808252601b908201527f49444f20416c6c6f636174696f6e206861642072656c65617365640000000000604082015260600190565b6020808252602e908201527f546f6b656e417574683a20666f756e646572206164647265737320697320746860408201527f65207a65726f2061646472657373000000000000000000000000000000000000606082015260800190565b60208082526021908201527f596f752063616e206e6f7420646f207468697320617420746865206d6f6d656e60408201527f7400000000000000000000000000000000000000000000000000000000000000606082015260800190565b60208082526022908201527f56657374696e67466f756e64657220686164207374617274656420616c726561604082015261647960f01b606082015260800190565b60208082526019908201527f546f6b656e417574683a20696e76616c69642063616c6c657200000000000000604082015260600190565b6020808252600e908201527f416d6f756e7420696e76616c6964000000000000000000000000000000000000604082015260600190565b60208082526015908201527f506c656173652077616974206d6f72652074696d650000000000000000000000604082015260600190565b60208082526030908201527f546f6b656e417574683a206d61726b6574696e6720616464726573732069732060408201527f746865207a65726f206164647265737300000000000000000000000000000000606082015260800190565b6020808252602b908201527f546f6b656e417574683a2073616c65206164647265737320697320746865207a60408201526a65726f206164647265737360a81b606082015260800190565b6020808252601c908201527f546f6b656e417574683a20696e76616c6964206e6577206f776e657200000000604082015260600190565b60208082526028908201527f56657374696e674c6971756964697479506f6f6c20686164207374617274656460408201527f20616c7265616479000000000000000000000000000000000000000000000000606082015260800190565b60208082526009908201527f6f6e6c794f776e65720000000000000000000000000000000000000000000000604082015260600190565b60208082526028908201527f4d617820707269766174652073616c6520616c6c6f636174696f6e206861642060408201527f72656c6561736564000000000000000000000000000000000000000000000000606082015260800190565b90815260200190565b60ff91909116815260200190565b600082198211156129cc576129cc612a47565b500190565b6000826129ec57634e487b7160e01b81526012600452602481fd5b500490565b6000816000190483118215151615612a0b57612a0b612a47565b500290565b600082821015612a2257612a22612a47565b500390565b600060ff821660ff811415612a3e57612a3e612a47565b60010192915050565b634e487b7160e01b600052601160045260246000fdfea26469706673582212206f15973380467066dbf56e85ef76bc01662b67bf539e6a5dde7723b40ff5cbfa64736f6c63430008000033",
  "immutableReferences": {},
  "source": "// SPDX-License-Identifier: MIT\n\npragma solidity 0.8.0;\n\nimport \"./libs/zeppelin/token/BEP20/IBEP20.sol\";\nimport \"./libs/fota/TokenAuth.sol\";\n\ncontract FOTAToken is IBEP20, TokenAuth {\n  string public constant name = \"Fight Of The Ages\";\n  string public constant symbol = \"FOTA\";\n  uint public constant decimals = 18;\n\n  uint public constant gamingAllocation = 455e24;\n  uint public constant seedSaleAllocation = 105e23;\n  uint public constant strategicSaleAllocation = 35e24;\n  uint public constant privateSaleAllocation = 21e24;\n  uint public constant ido1stAllocation = 7e24;\n  uint public constant ido2ndAllocation = 35e23;\n  uint public constant marketingAllocation = 28e24;\n  uint public constant liquidityPoolAllocation = 35e24;\n\n  uint public constant maxSupply = 700e24;\n  uint public constant blockInOneMonth = 864000; // 30 * 24 * 60 * 20\n  uint public totalSupply;\n  bool public paused;\n  bool public lockingFunctionEnabled = true;\n  uint8 public idoReleaseCounter;\n  uint public lastReleaseMarketingBlock;\n  uint public lastReleaseLiquidityPoolBlock;\n  uint public startVestingMarketingBlock;\n  uint public startVestingLiquidityPoolBlock;\n  uint public startVestingFounderBlock;\n  uint public startVestingAdvisorBlock;\n  mapping (address => uint) public lastReleaseAdvisorBlocks;\n  mapping (address => uint) public lastReleaseFounderBlocks;\n\n  uint private gamingReleased;\n  uint private seedSaleReleased;\n  uint private strategicSaleReleased;\n  uint private privateSaleReleased;\n\n  bool releasePrivateSale;\n  bool releaseIDO;\n  bool releaseLiquidityPool;\n\n  mapping (address => uint) internal _balances;\n  mapping (address => mapping (address => uint)) private _allowed;\n  mapping (address => bool) lock;\n\n  constructor(address _liquidityPoolAddress) TokenAuth(msg.sender, _liquidityPoolAddress) {\n  }\n\n  function startVestingMarketing() onlyOwner external {\n    require(startVestingMarketingBlock == 0, \"VestingMarketing had started already\");\n    startVestingMarketingBlock = block.number;\n    lastReleaseMarketingBlock = startVestingMarketingBlock + blockInOneMonth * 3;\n  }\n\n  function startVestingLiquidityPool() onlyOwner external {\n    require(startVestingLiquidityPoolBlock == 0, \"VestingLiquidityPool had started already\");\n    startVestingLiquidityPoolBlock = block.number;\n    lastReleaseLiquidityPoolBlock = startVestingLiquidityPoolBlock + blockInOneMonth * 3;\n    _mint(liquidityPoolAddress, liquidityPoolAllocation * 10 / 100);\n  }\n\n  function startVestingFounder() onlyOwner external {\n    require(startVestingFounderBlock == 0, \"VestingFounder had started already\");\n    startVestingFounderBlock = block.number;\n  }\n\n  function startVestingAdvisor() onlyOwner external {\n    require(startVestingAdvisorBlock == 0, \"VestingAdvisor had started already\");\n    startVestingAdvisorBlock = block.number;\n  }\n\n  function releaseGameAllocation(address _gamerAddress, uint _amount) external onlyGameContract returns (bool) {\n    require(gamingReleased + _amount <= gamingAllocation, \"Max gaming allocation had released\");\n    _mint(_gamerAddress, _amount);\n    gamingReleased = gamingReleased + _amount;\n    return true;\n  }\n\n  function releaseSeedSaleAllocation(address _buyerAddress, uint _amount) external onlySaleContract returns (bool) {\n    require(seedSaleReleased + _amount <= seedSaleAllocation, \"Max seed sale allocation had released\");\n    _mint(_buyerAddress, _amount);\n    seedSaleReleased = seedSaleReleased + _amount;\n    return true;\n  }\n\n  function releaseStrategicSaleAllocation(address _buyerAddress, uint _amount) external onlySaleContract returns (bool) {\n    require(strategicSaleReleased + _amount <= strategicSaleAllocation, \"Max strategic sale allocation had released\");\n    _mint(_buyerAddress, _amount);\n    strategicSaleReleased = strategicSaleReleased + _amount;\n    return true;\n  }\n\n  function releasePrivateSaleAllocation(address _buyerAddress, uint _amount) external onlySaleContract returns (bool) {\n    require(privateSaleReleased + _amount <= privateSaleAllocation, \"Max private sale allocation had released\");\n    _mint(_buyerAddress, _amount);\n    privateSaleReleased = privateSaleReleased + _amount;\n    return true;\n  }\n\n  function releaseIDOAllocation(address _address) external onlyOwner {\n    require(!releaseIDO, \"IDO Allocation had released\");\n    if (idoReleaseCounter == 0) {\n      idoReleaseCounter++;\n      _mint(_address, ido1stAllocation);\n    } else {\n      releaseIDO = true;\n      _mint(_address, ido2ndAllocation);\n    }\n  }\n\n  function releaseMarketing() external onlyMarketingAddress {\n    require(startVestingMarketingBlock > 0 && block.number > startVestingMarketingBlock + blockInOneMonth * 3, \"Please wait more time\");\n    uint maxBlockNumber = startVestingMarketingBlock + blockInOneMonth * 15;\n    require(maxBlockNumber > lastReleaseMarketingBlock, \"Marketing allocation had released\");\n    uint blockPass;\n    if (block.number < maxBlockNumber) {\n      blockPass = block.number - lastReleaseMarketingBlock;\n\t    lastReleaseMarketingBlock = block.number;\n    } else {\n      blockPass = maxBlockNumber - lastReleaseMarketingBlock;\n\t    lastReleaseMarketingBlock = maxBlockNumber;\n    }\n    uint releaseAmount = marketingAllocation * blockPass / (blockInOneMonth * 12);\n    _mint(msg.sender, releaseAmount);\n  }\n\n  function releaseLiquidityPoolAllocation() external onlyLiquidityPoolAddress {\n    require(startVestingLiquidityPoolBlock > 0 && block.number > startVestingLiquidityPoolBlock + blockInOneMonth * 3, \"Please wait more time\");\n    uint maxBlockNumber = startVestingLiquidityPoolBlock + blockInOneMonth * 15;\n    require(maxBlockNumber > lastReleaseLiquidityPoolBlock, \"Liquidity pool allocation had released\");\n    uint blockPass;\n    if (block.number < maxBlockNumber) {\n      blockPass = block.number - lastReleaseLiquidityPoolBlock;\n      lastReleaseLiquidityPoolBlock = block.number;\n    } else {\n      blockPass = maxBlockNumber - lastReleaseLiquidityPoolBlock;\n      lastReleaseLiquidityPoolBlock = maxBlockNumber;\n    }\n    uint releaseAmount = liquidityPoolAllocation * 90 / 100 * blockPass / (blockInOneMonth * 12);\n    _mint(msg.sender, releaseAmount);\n  }\n\n  function releaseFounderAllocation() external onlyFounderAddress {\n    uint canReleaseAtBlock = startVestingFounderBlock + blockInOneMonth * 12;\n    require(startVestingFounderBlock > 0 && block.number > canReleaseAtBlock, \"Please wait more time\");\n    uint maxBlockNumber = startVestingFounderBlock + blockInOneMonth * 24;\n    require(maxBlockNumber > lastReleaseFounderBlocks[msg.sender], \"Founder allocation had released\");\n    if (lastReleaseFounderBlocks[msg.sender] == 0) {\n      lastReleaseFounderBlocks[msg.sender] = canReleaseAtBlock;\n    }\n    uint blockPass;\n    if (block.number < maxBlockNumber) {\n      blockPass = block.number - lastReleaseFounderBlocks[msg.sender];\n      lastReleaseFounderBlocks[msg.sender] = block.number;\n    } else {\n      blockPass = maxBlockNumber - lastReleaseFounderBlocks[msg.sender];\n      lastReleaseFounderBlocks[msg.sender] = maxBlockNumber;\n    }\n    uint releaseAmount = founderAddresses[msg.sender] * blockPass / (blockInOneMonth * 12);\n    _mint(msg.sender, releaseAmount);\n  }\n\n  function releaseAdvisorAllocation() external onlyAdvisorAddress {\n    uint canReleaseAtBlock = startVestingAdvisorBlock + blockInOneMonth * 6;\n    require(startVestingAdvisorBlock > 0 && block.number > canReleaseAtBlock, \"Please wait more time\");\n    uint maxBlockNumber = startVestingAdvisorBlock + blockInOneMonth * 18;\n    if (lastReleaseAdvisorBlocks[msg.sender] == 0) {\n      lastReleaseAdvisorBlocks[msg.sender] = canReleaseAtBlock;\n    }\n    require(maxBlockNumber > lastReleaseAdvisorBlocks[msg.sender], \"Advisor allocation had released\");\n    uint blockPass;\n    if (block.number < maxBlockNumber) {\n      blockPass = block.number - lastReleaseAdvisorBlocks[msg.sender];\n      lastReleaseAdvisorBlocks[msg.sender] = block.number;\n    } else {\n      blockPass = maxBlockNumber - lastReleaseAdvisorBlocks[msg.sender];\n      lastReleaseAdvisorBlocks[msg.sender] = maxBlockNumber;\n    }\n    uint releaseAmount = advisorAddresses[msg.sender] * blockPass / (blockInOneMonth * 12);\n    _mint(msg.sender, releaseAmount);\n  }\n\n  function balanceOf(address _owner) override external view returns (uint) {\n    return _balances[_owner];\n  }\n\n  function allowance(address _owner, address _spender) override external view returns (uint) {\n    return _allowed[_owner][_spender];\n  }\n\n  function transfer(address _to, uint _value) override external returns (bool) {\n    _transfer(msg.sender, _to, _value);\n    return true;\n  }\n\n  function approve(address _spender, uint _value) override external returns (bool) {\n    _approve(msg.sender, _spender, _value);\n    return true;\n  }\n\n  function transferFrom(address _from, address _to, uint _value) override external returns (bool) {\n    _transfer(_from, _to, _value);\n    _approve(_from, msg.sender, _allowed[_from][msg.sender] - _value);\n    return true;\n  }\n\n  function increaseAllowance(address _spender, uint _addedValue) external returns (bool) {\n    _approve(msg.sender, _spender, _allowed[msg.sender][_spender] + _addedValue);\n    return true;\n  }\n\n  function decreaseAllowance(address _spender, uint _subtractedValue) external returns (bool) {\n    _approve(msg.sender, _spender, _allowed[msg.sender][_spender] - _subtractedValue);\n    return true;\n  }\n\n  function burn(uint _amount) external {\n    _balances[msg.sender] = _balances[msg.sender] - _amount;\n    totalSupply = totalSupply - _amount;\n    emit Transfer(msg.sender, address(0), _amount);\n  }\n\n  function updatePauseStatus(bool _paused) onlyOwner external {\n    paused = _paused;\n  }\n\n  function updateLockStatus(address _address, bool _locked) onlyOwner external {\n    require(lockingFunctionEnabled, \"Locking function is disabled\");\n    lock[_address] = _locked;\n  }\n\n  function disableLockingFunction() onlyOwner external {\n    lockingFunctionEnabled = false;\n  }\n\n  function checkLockStatus(address _address) external view returns (bool) {\n    return lock[_address];\n  }\n\n  function updateFounderAddress(address _oldAddress, address _newAddress) public override {\n    super.updateFounderAddress(_oldAddress, _newAddress);\n    lastReleaseFounderBlocks[_newAddress] = lastReleaseFounderBlocks[_oldAddress];\n    delete lastReleaseFounderBlocks[_oldAddress];\n  }\n\n  function updateAdvisorAddress(address _oldAddress, address _newAddress) public override {\n    super.updateAdvisorAddress(_oldAddress, _newAddress);\n    lastReleaseAdvisorBlocks[_newAddress] = lastReleaseAdvisorBlocks[_oldAddress];\n    delete lastReleaseAdvisorBlocks[_oldAddress];\n  }\n\n  function _transfer(address _from, address _to, uint _value) private {\n    _validateAbility(_from);\n    _balances[_from] = _balances[_from] - _value;\n    _balances[_to] = _balances[_to] + _value;\n    if (_to == address(0)) {\n      totalSupply = totalSupply - _value;\n    }\n    emit Transfer(_from, _to, _value);\n  }\n\n  function _approve(address _owner, address _spender, uint _value) private {\n    require(_spender != address(0));\n    require(_owner != address(0));\n\n    _allowed[_owner][_spender] = _value;\n    emit Approval(_owner, _spender, _value);\n  }\n\n  function _mint(address _owner, uint _amount) private {\n    _validateAbility(_owner);\n    require(totalSupply + _amount <= maxSupply, \"Amount invalid\");\n    _balances[_owner] = _balances[_owner] + _amount;\n    totalSupply = totalSupply + _amount;\n    emit Transfer(address(0), _owner, _amount);\n  }\n\n  function _validateAbility(address _owner) private view {\n    if (lockingFunctionEnabled) {\n      require(!lock[_owner] && !paused, \"You can not do this at the moment\");\n    } else {\n      require(!paused, \"You can not do this at the moment\");\n    }\n  }\n}\n\n",
  "sourcePath": "/Users/dung/Documents/sources/fota-dapp/contracts/FOTAToken.sol",
  "compiler": {
    "name": "solc",
    "version": "0.8.0+commit.c7dfd78e.Emscripten.clang"
  },
  "schemaVersion": "3.3.4",
  "updatedAt": "2022-03-03T04:57:24.198Z",
  "networkType": "ethereum",
  "devdoc": {
    "kind": "dev",
    "methods": {},
    "version": 1
  },
  "userdoc": {
    "kind": "user",
    "methods": {},
    "version": 1
  }
}