{
  "contractName": "Game",
  "abi": [
    {
      "inputs": [
        {
          "internalType": "address",
          "name": "",
          "type": "address"
        }
      ],
      "name": "nonces",
      "outputs": [
        {
          "internalType": "uint256",
          "name": "",
          "type": "uint256"
        }
      ],
      "stateMutability": "view",
      "type": "function"
    },
    {
      "inputs": [
        {
          "internalType": "string",
          "name": "_eip712Name",
          "type": "string"
        },
        {
          "internalType": "string",
          "name": "_eip712Version",
          "type": "string"
        }
      ],
      "name": "initialize",
      "outputs": [],
      "stateMutability": "nonpayable",
      "type": "function"
    },
    {
      "inputs": [
        {
          "internalType": "bytes",
          "name": "_signature",
          "type": "bytes"
        },
        {
          "internalType": "uint256",
          "name": "_nftId",
          "type": "uint256"
        },
        {
          "internalType": "uint256",
          "name": "_level",
          "type": "uint256"
        },
        {
          "internalType": "uint256",
          "name": "_deadline",
          "type": "uint256"
        }
      ],
      "name": "finishGame",
      "outputs": [],
      "stateMutability": "nonpayable",
      "type": "function"
    }
  ],
  "bytecode": "0x608060405234801561001057600080fd5b506104ab806100206000396000f3fe608060405234801561001057600080fd5b50600436106100415760003560e01c806309888a1b146100465780634cd88b761461005b5780637ecebe001461006e575b600080fd5b6100596100543660046102c1565b610097565b005b610059610069366004610377565b61009d565b61008161007c366004610286565b610110565b60405161008e919061043d565b60405180910390f35b50505050565b61009784848080601f01602080910402602001604051908101604052809392919081815260200183838082843760009201919091525050604080516020601f8801819004810282018101909252868152925086915085908190840183828082843760009201919091525061012292505050565b60356020526000908152604090205481565b600054610100900460ff168061013b575060005460ff16155b6101605760405162461bcd60e51b8152600401610157906103e0565b60405180910390fd5b600054610100900460ff1615801561018b576000805460ff1961ff0019909116610100171660011790555b61019583836101ac565b80156101a7576000805461ff00191690555b505050565b600054610100900460ff16806101c5575060005460ff16155b6101e15760405162461bcd60e51b8152600401610157906103e0565b600054610100900460ff1615801561020c576000805460ff1961ff0019909116610100171660011790555b825160208085019190912083519184019190912060019190915560025580156101a7576000805461ff0019169055505050565b60008083601f840112610250578081fd5b50813567ffffffffffffffff811115610267578182fd5b60208301915083602082850101111561027f57600080fd5b9250929050565b600060208284031215610297578081fd5b813573ffffffffffffffffffffffffffffffffffffffff811681146102ba578182fd5b9392505050565b600080600080608085870312156102d6578283fd5b843567ffffffffffffffff808211156102ed578485fd5b818701915087601f830112610300578485fd5b813560208282111561031457610314610446565b604051601f8301601f191681018201848111828210171561033757610337610446565b60405282815284830182018b101561034d578788fd5b82828601838301379182018101969096529894870135975050506040850135946060013593505050565b6000806000806040858703121561038c578384fd5b843567ffffffffffffffff808211156103a3578586fd5b6103af8883890161023f565b909650945060208701359150808211156103c7578384fd5b506103d48782880161023f565b95989497509550505050565b6020808252602e908201527f496e697469616c697a61626c653a20636f6e747261637420697320616c72656160408201527f647920696e697469616c697a6564000000000000000000000000000000000000606082015260800190565b90815260200190565b7f4e487b7100000000000000000000000000000000000000000000000000000000600052604160045260246000fdfea26469706673582212202aa6b6a149f2b9ef319dd7a2b1e227851dedf26e6b59b8b29e49cd04b7998d7764736f6c63430008000033",
  "immutableReferences": {},
  "source": "// SPDX-License-Identifier: GPL\n\npragma solidity 0.8.0;\n\nimport \"@openzeppelin/contracts-upgradeable/utils/cryptography/ECDSAUpgradeable.sol\";\nimport \"@openzeppelin/contracts-upgradeable/utils/cryptography/draft-EIP712Upgradeable.sol\";\n\ncontract Game is EIP712Upgradeable {\n\n  mapping (address => uint) public nonces;\n\n  function initialize(\n//    address _mainAdmin,\n    string calldata _eip712Name,\n    string calldata _eip712Version\n  ) virtual public {\n//    NFTAuth.initialize(_mainAdmin);\n    EIP712Upgradeable.__EIP712_init(_eip712Name, _eip712Version);\n  }\n\n  function finishGame(\n    bytes memory _signature,\n    uint _nftId,\n    uint _level,\n    uint _deadline\n  ) external {\n//    bytes32 digest = _hashTypedDataV4(keccak256(abi.encode(\n//        keccak256(\"FinishGame(address user,uint256 nftId,uint256 level,uint256 nonce,uint256 deadline)\"),\n//        msg.sender,\n//        _nftId,\n//        _level,\n//        nonces[msg.sender],\n//        _deadline\n//      )));\n//    require(block.number < _deadline, \"MessageVerifier: signed transaction expired\");\n//    address signer = ECDSAUpgradeable.recover(digest, _signature);\n//    require(signer == mainAdmin, \"MessageVerifier: invalid signature\");\n//    require(signer != address(0), \"ECDSAUpgradeable: invalid signature\");\n//    nonces[msg.sender]++;\n  }\n}\n",
  "sourcePath": "/Users/dung/Documents/sources/fota-dapp/contracts/Game.sol",
  "compiler": {
    "name": "solc",
    "version": "0.8.0+commit.c7dfd78e.Emscripten.clang"
  },
  "schemaVersion": "3.3.4",
  "updatedAt": "2022-03-03T04:51:26.360Z",
  "devdoc": {
    "kind": "dev",
    "methods": {},
    "version": 1
  },
  "userdoc": {
    "kind": "user",
    "methods": {},
    "version": 1
  }
}