{
  "contractName": "HeroAirdropDistributor",
  "abi": [
    {
      "anonymous": false,
      "inputs": [
        {
          "indexed": false,
          "internalType": "uint256",
          "name": "_index",
          "type": "uint256"
        },
        {
          "indexed": false,
          "internalType": "address",
          "name": "_address",
          "type": "address"
        },
        {
          "indexed": false,
          "internalType": "uint256",
          "name": "_tokenId",
          "type": "uint256"
        }
      ],
      "name": "Claimed",
      "type": "event"
    },
    {
      "anonymous": false,
      "inputs": [
        {
          "indexed": true,
          "internalType": "address",
          "name": "_newOwner",
          "type": "address"
        }
      ],
      "name": "ContractAdminUpdated",
      "type": "event"
    },
    {
      "anonymous": false,
      "inputs": [
        {
          "indexed": true,
          "internalType": "address",
          "name": "_previousOwner",
          "type": "address"
        },
        {
          "indexed": true,
          "internalType": "address",
          "name": "_newOwner",
          "type": "address"
        }
      ],
      "name": "OwnershipTransferred",
      "type": "event"
    },
    {
      "inputs": [],
      "name": "_isContractAdmin",
      "outputs": [
        {
          "internalType": "bool",
          "name": "",
          "type": "bool"
        }
      ],
      "stateMutability": "view",
      "type": "function"
    },
    {
      "inputs": [],
      "name": "_isMainAdmin",
      "outputs": [
        {
          "internalType": "bool",
          "name": "",
          "type": "bool"
        }
      ],
      "stateMutability": "view",
      "type": "function"
    },
    {
      "inputs": [],
      "name": "contractAdmin",
      "outputs": [
        {
          "internalType": "address",
          "name": "",
          "type": "address"
        }
      ],
      "stateMutability": "view",
      "type": "function"
    },
    {
      "inputs": [],
      "name": "heroClassId",
      "outputs": [
        {
          "internalType": "uint16",
          "name": "",
          "type": "uint16"
        }
      ],
      "stateMutability": "view",
      "type": "function"
    },
    {
      "inputs": [],
      "name": "heroNFT",
      "outputs": [
        {
          "internalType": "contract IGameNFT",
          "name": "",
          "type": "address"
        }
      ],
      "stateMutability": "view",
      "type": "function"
    },
    {
      "inputs": [],
      "name": "heroPrice",
      "outputs": [
        {
          "internalType": "uint256",
          "name": "",
          "type": "uint256"
        }
      ],
      "stateMutability": "view",
      "type": "function"
    },
    {
      "inputs": [],
      "name": "mainAdmin",
      "outputs": [
        {
          "internalType": "address",
          "name": "",
          "type": "address"
        }
      ],
      "stateMutability": "view",
      "type": "function"
    },
    {
      "inputs": [],
      "name": "rootHash",
      "outputs": [
        {
          "internalType": "bytes32",
          "name": "",
          "type": "bytes32"
        }
      ],
      "stateMutability": "view",
      "type": "function"
    },
    {
      "inputs": [
        {
          "internalType": "address",
          "name": "_newOwner",
          "type": "address"
        }
      ],
      "name": "transferOwnership",
      "outputs": [],
      "stateMutability": "nonpayable",
      "type": "function"
    },
    {
      "inputs": [
        {
          "internalType": "address",
          "name": "_newAdmin",
          "type": "address"
        }
      ],
      "name": "updateContractAdmin",
      "outputs": [],
      "stateMutability": "nonpayable",
      "type": "function"
    },
    {
      "inputs": [
        {
          "internalType": "address",
          "name": "_mainAdmin",
          "type": "address"
        },
        {
          "internalType": "address",
          "name": "_heroNFT",
          "type": "address"
        }
      ],
      "name": "initialize",
      "outputs": [],
      "stateMutability": "nonpayable",
      "type": "function"
    },
    {
      "inputs": [
        {
          "internalType": "address",
          "name": "_mainAdmin",
          "type": "address"
        }
      ],
      "name": "initialize",
      "outputs": [],
      "stateMutability": "nonpayable",
      "type": "function"
    },
    {
      "inputs": [
        {
          "internalType": "bytes32",
          "name": "_rootHash",
          "type": "bytes32"
        }
      ],
      "name": "setRootHash",
      "outputs": [],
      "stateMutability": "nonpayable",
      "type": "function"
    },
    {
      "inputs": [
        {
          "internalType": "uint256",
          "name": "_heroPrice",
          "type": "uint256"
        }
      ],
      "name": "setHeroPrice",
      "outputs": [],
      "stateMutability": "nonpayable",
      "type": "function"
    },
    {
      "inputs": [
        {
          "internalType": "uint16",
          "name": "_heroClassId",
          "type": "uint16"
        }
      ],
      "name": "setHeroClassId",
      "outputs": [],
      "stateMutability": "nonpayable",
      "type": "function"
    },
    {
      "inputs": [
        {
          "internalType": "uint256",
          "name": "index",
          "type": "uint256"
        }
      ],
      "name": "isClaimed",
      "outputs": [
        {
          "internalType": "bool",
          "name": "",
          "type": "bool"
        }
      ],
      "stateMutability": "view",
      "type": "function"
    },
    {
      "inputs": [
        {
          "internalType": "uint256",
          "name": "_index",
          "type": "uint256"
        },
        {
          "internalType": "bytes32[]",
          "name": "_path",
          "type": "bytes32[]"
        }
      ],
      "name": "claim",
      "outputs": [],
      "stateMutability": "nonpayable",
      "type": "function"
    }
  ],
  "bytecode": "0x608060405234801561001057600080fd5b50610cdd806100206000396000f3fe608060405234801561001057600080fd5b506004361061011b5760003560e01c8063858c6a87116100b2578063c4d66de811610081578063d43f75ff11610066578063d43f75ff1461021c578063f2fde38b1461022f578063fb6b04ba146102425761011b565b8063c4d66de8146101f6578063d16d839c146102095761011b565b8063858c6a87146101be5780638909d3a4146101d35780639e34070f146101db578063b7d6caec146101ee5761011b565b80632f52ebb7116100ee5780632f52ebb71461017b57806331a8bfc31461018e578063485cc955146101a357806377955245146101b65761011b565b806302e65b8a1461012057806311541ce0146101355780631d80009a146101535780632d7eae6614610168575b600080fd5b61013361012e36600461094c565b61024a565b005b61013d6102e1565b60405161014a9190610ad8565b60405180910390f35b61015b6102f8565b60405161014a9190610ae3565b61013361017636600461099f565b6102fe565b6101336101893660046109f1565b610327565b6101966104d3565b60405161014a9190610a9a565b6101336101b136600461096d565b6104e2565b6101966105da565b6101c66105e9565b60405161014a9190610c14565b61015b6105fa565b61013d6101e936600461099f565b610600565b61013d610643565b61013361020436600461094c565b610654565b61013361021736600461099f565b61071f565b61013361022a3660046109b7565b610748565b61013361023d36600461094c565b61078e565b610196610827565b6102526102e1565b6102775760405162461bcd60e51b815260040161026e90610ba6565b60405180910390fd5b6001600160a01b03811661028a57600080fd5b6001805473ffffffffffffffffffffffffffffffffffffffff19166001600160a01b0383169081179091556040517fe3f4a4b5b74aa6830627cb87c50cf7d4ed56e9b246729179ba634bbdc873177a90600090a250565b6000546201000090046001600160a01b0316331490565b60045481565b6103066102e1565b6103225760405162461bcd60e51b815260040161026e90610ba6565b600455565b61033083610600565b1561034d5760405162461bcd60e51b815260040161026e90610aec565b60003384604051602001610362929190610a6a565b6040516020818303038152906040528051906020012090506103bb83838080602002602001604051908101604052809392919081815260200183836020028082843760009201919091525050600454915084905061083c565b6103d75760405162461bcd60e51b815260040161026e90610bdd565b6103e0846108f7565b6002546003546040517fa045ae980000000000000000000000000000000000000000000000000000000081526000926001600160a01b0381169263a045ae989261043d923392600160a01b90910461ffff16918790600401610aae565b602060405180830381600087803b15801561045757600080fd5b505af115801561046b573d6000803e3d6000fd5b505050506040513d601f19601f8201168201806040525081019061048f91906109d9565b90507f4ec90e965519d92681267467f775ada5bd214aa92c0dc93d90a5e880ce9ed0268533836040516104c493929190610c23565b60405180910390a15050505050565b6002546001600160a01b031681565b600054610100900460ff16806104fb575060005460ff16155b6105175760405162461bcd60e51b815260040161026e90610b49565b600054610100900460ff16158015610542576000805460ff1961ff0019909116610100171660011790555b61054b83610654565b6002805468097c9ce4cf6d5c00006003557f8627ae73ef8bb3d092704dcc557d590277bf54ecf53a3d801346b176e9fb683c60045561ffff60a01b1916741100000000000000000000000000000000000000001773ffffffffffffffffffffffffffffffffffffffff19166001600160a01b03841617905580156105d5576000805461ff00191690555b505050565b6001546001600160a01b031681565b600254600160a01b900461ffff1681565b60035481565b60008061060f61010084610c42565b9050600061061f61010085610c7d565b60009283526005602052604090922054600190921b9182169091149150505b919050565b6001546001600160a01b0316331490565b600054610100900460ff168061066d575060005460ff16155b6106895760405162461bcd60e51b815260040161026e90610b49565b600054610100900460ff161580156106b4576000805460ff1961ff0019909116610100171660011790555b6000805475ffffffffffffffffffffffffffffffffffffffff00001916620100006001600160a01b038516908102919091179091556001805473ffffffffffffffffffffffffffffffffffffffff19169091179055801561071b576000805461ff00191690555b5050565b6107276102e1565b6107435760405162461bcd60e51b815260040161026e90610ba6565b600355565b6107506102e1565b61076c5760405162461bcd60e51b815260040161026e90610ba6565b6002805461ffff909216600160a01b0261ffff60a01b19909216919091179055565b6107966102e1565b6107b25760405162461bcd60e51b815260040161026e90610ba6565b6001600160a01b0381166107c557600080fd5b6000805475ffffffffffffffffffffffffffffffffffffffff00001916620100006001600160a01b038416908102919091178255604051909133917f8be0079c531659141344cd1fd0a4f28419497f9722a3daafe3b4186f6b6457e09190a350565b6000546201000090046001600160a01b031681565b600081815b85518110156108ec57600086828151811061086c57634e487b7160e01b600052603260045260246000fd5b602002602001015190508083116108ad578281604051602001610890929190610a8c565b6040516020818303038152906040528051906020012092506108d9565b80836040516020016108c0929190610a8c565b6040516020818303038152906040528051906020012092505b50806108e481610c56565b915050610841565b509092149392505050565b600061090561010083610c42565b9050600061091561010084610c7d565b6000928352600560205260409092208054600190931b9092179091555050565b80356001600160a01b038116811461063e57600080fd5b60006020828403121561095d578081fd5b61096682610935565b9392505050565b6000806040838503121561097f578081fd5b61098883610935565b915061099660208401610935565b90509250929050565b6000602082840312156109b0578081fd5b5035919050565b6000602082840312156109c8578081fd5b813561ffff81168114610966578182fd5b6000602082840312156109ea578081fd5b5051919050565b600080600060408486031215610a05578081fd5b83359250602084013567ffffffffffffffff80821115610a23578283fd5b818601915086601f830112610a36578283fd5b813581811115610a44578384fd5b8760208083028501011115610a57578384fd5b6020830194508093505050509250925092565b60609290921b6bffffffffffffffffffffffff19168252601482015260340190565b918252602082015260400190565b6001600160a01b0391909116815260200190565b6001600160a01b0394909416845261ffff9290921660208401526040830152606082015260800190565b901515815260200190565b90815260200190565b60208082526029908201527f41697264726f704469737472696275746f723a2044726f7020616c726561647960408201527f20636c61696d65642e0000000000000000000000000000000000000000000000606082015260800190565b6020808252602e908201527f496e697469616c697a61626c653a20636f6e747261637420697320616c72656160408201527f647920696e697469616c697a6564000000000000000000000000000000000000606082015260800190565b6020808252600d908201527f6f6e6c794d61696e41646d696e00000000000000000000000000000000000000604082015260600190565b60208082526017908201527f41697264726f704469737472696275746f723a20343030000000000000000000604082015260600190565b61ffff91909116815260200190565b9283526001600160a01b03919091166020830152604082015260600190565b600082610c5157610c51610c91565b500490565b6000600019821415610c7657634e487b7160e01b81526011600452602481fd5b5060010190565b600082610c8c57610c8c610c91565b500690565b634e487b7160e01b600052601260045260246000fdfea26469706673582212207c0dd33097446cb95d9b3d3ddeeaac700f7ec88c0eab6bef967a07452ee31b8264736f6c63430008000033",
  "immutableReferences": {},
  "source": "// SPDX-License-Identifier: MIT\n\npragma solidity 0.8.0;\n\nimport \"../libs/fota/Auth.sol\";\nimport \"../libs/fota/MerkelProof.sol\";\nimport \"../interfaces/IGameNFT.sol\";\n\ncontract HeroAirdropDistributor is Auth {\n\n  IGameNFT public heroNFT;\n  uint16 public heroClassId;\n  uint public heroPrice;\n\n  bytes32 public rootHash;\n  mapping(uint => uint) private claimedBitMap;\n\n  event Claimed(uint _index, address _address, uint _tokenId);\n\n  function initialize(\n    address _mainAdmin,\n    address _heroNFT\n  ) public initializer {\n    Auth.initialize(_mainAdmin);\n    heroClassId = 17;\n    heroPrice = 175e18;\n    rootHash = 0x8627ae73ef8bb3d092704dcc557d590277bf54ecf53a3d801346b176e9fb683c;\n    heroNFT = IGameNFT(_heroNFT);\n  }\n\n  // OWNER FUNCTIONS\n\n  function setRootHash(bytes32 _rootHash) onlyMainAdmin external {\n    rootHash = _rootHash;\n  }\n\n  function setHeroPrice(uint _heroPrice) onlyMainAdmin external {\n    heroPrice = _heroPrice;\n  }\n\n  function setHeroClassId(uint16 _heroClassId) onlyMainAdmin external {\n    heroClassId = _heroClassId;\n  }\n\n  // PUBLIC FUNCTIONS\n\n  function isClaimed(uint index) public view returns (bool) {\n    uint claimedWordIndex = index / 256;\n    uint claimedBitIndex = index % 256;\n    uint claimedWord = claimedBitMap[claimedWordIndex];\n    uint mask = (1 << claimedBitIndex);\n    return claimedWord & mask == mask;\n  }\n\n  function claim(uint _index, bytes32[] calldata _path) external {\n    require(!isClaimed(_index), 'AirdropDistributor: Drop already claimed.');\n    bytes32 hash = keccak256(abi.encodePacked(msg.sender, _index));\n    require(MerkleProof.verify(_path, rootHash, hash), 'AirdropDistributor: 400');\n    _setClaimed(_index);\n    uint tokenId = heroNFT.mintHero(msg.sender, heroClassId, heroPrice, 0);\n    emit Claimed(_index, msg.sender, tokenId);\n  }\n\n  // PRIVATE FUNCTIONS\n\n  function _setClaimed(uint index) private {\n    uint claimedWordIndex = index / 256;\n    uint claimedBitIndex = index % 256;\n    claimedBitMap[claimedWordIndex] = claimedBitMap[claimedWordIndex] | (1 << claimedBitIndex);\n  }\n}\n",
  "sourcePath": "/Users/dung/Documents/sources/fota-dapp/contracts/airdrop/HeroAirdropDistributor.sol",
  "compiler": {
    "name": "solc",
    "version": "0.8.0+commit.c7dfd78e.Emscripten.clang"
  },
  "schemaVersion": "3.3.4",
  "updatedAt": "2022-03-03T04:57:24.288Z",
  "networkType": "ethereum",
  "devdoc": {
    "kind": "dev",
    "methods": {},
    "version": 1
  },
  "userdoc": {
    "kind": "user",
    "methods": {},
    "version": 1
  }
}