{
  "contractName": "HeroNFT",
  "abi": [
    {
      "anonymous": false,
      "inputs": [
        {
          "indexed": true,
          "internalType": "address",
          "name": "owner",
          "type": "address"
        },
        {
          "indexed": true,
          "internalType": "address",
          "name": "approved",
          "type": "address"
        },
        {
          "indexed": true,
          "internalType": "uint256",
          "name": "tokenId",
          "type": "uint256"
        }
      ],
      "name": "Approval",
      "type": "event"
    },
    {
      "anonymous": false,
      "inputs": [
        {
          "indexed": true,
          "internalType": "address",
          "name": "owner",
          "type": "address"
        },
        {
          "indexed": true,
          "internalType": "address",
          "name": "operator",
          "type": "address"
        },
        {
          "indexed": false,
          "internalType": "bool",
          "name": "approved",
          "type": "bool"
        }
      ],
      "name": "ApprovalForAll",
      "type": "event"
    },
    {
      "anonymous": false,
      "inputs": [
        {
          "indexed": false,
          "internalType": "uint16",
          "name": "classId",
          "type": "uint16"
        },
        {
          "indexed": false,
          "internalType": "uint256[7]",
          "name": "baseStrength",
          "type": "uint256[7]"
        }
      ],
      "name": "BaseStrengthUpdated",
      "type": "event"
    },
    {
      "anonymous": false,
      "inputs": [
        {
          "indexed": true,
          "internalType": "address",
          "name": "_newOwner",
          "type": "address"
        }
      ],
      "name": "ContractAdminUpdated",
      "type": "event"
    },
    {
      "anonymous": false,
      "inputs": [
        {
          "indexed": false,
          "internalType": "uint16",
          "name": "level",
          "type": "uint16"
        },
        {
          "indexed": false,
          "internalType": "uint32",
          "name": "experience",
          "type": "uint32"
        }
      ],
      "name": "ExperienceCheckpointUpdated",
      "type": "event"
    },
    {
      "anonymous": false,
      "inputs": [
        {
          "indexed": false,
          "internalType": "uint256",
          "name": "tokenId",
          "type": "uint256"
        },
        {
          "indexed": false,
          "internalType": "uint32",
          "name": "experience",
          "type": "uint32"
        }
      ],
      "name": "ExperienceUp",
      "type": "event"
    },
    {
      "anonymous": false,
      "inputs": [
        {
          "indexed": false,
          "internalType": "uint256",
          "name": "tokenId",
          "type": "uint256"
        },
        {
          "indexed": false,
          "internalType": "uint256",
          "name": "amount",
          "type": "uint256"
        }
      ],
      "name": "FailedUpgradingAmountUpdated",
      "type": "event"
    },
    {
      "anonymous": false,
      "inputs": [
        {
          "indexed": false,
          "internalType": "uint16",
          "name": "classId",
          "type": "uint16"
        },
        {
          "indexed": false,
          "internalType": "string",
          "name": "klass",
          "type": "string"
        }
      ],
      "name": "HeroClassUpdated",
      "type": "event"
    },
    {
      "anonymous": false,
      "inputs": [
        {
          "indexed": false,
          "internalType": "uint256",
          "name": "tokenId",
          "type": "uint256"
        },
        {
          "indexed": false,
          "internalType": "uint8",
          "name": "level",
          "type": "uint8"
        },
        {
          "indexed": false,
          "internalType": "uint32",
          "name": "experience",
          "type": "uint32"
        },
        {
          "indexed": false,
          "internalType": "uint256[3]",
          "name": "skills",
          "type": "uint256[3]"
        }
      ],
      "name": "HeroInfoUpdated",
      "type": "event"
    },
    {
      "anonymous": false,
      "inputs": [
        {
          "indexed": false,
          "internalType": "uint16",
          "name": "classId",
          "type": "uint16"
        },
        {
          "indexed": false,
          "internalType": "string",
          "name": "name",
          "type": "string"
        }
      ],
      "name": "HeroNameUpdated",
      "type": "event"
    },
    {
      "anonymous": false,
      "inputs": [
        {
          "indexed": false,
          "internalType": "uint16",
          "name": "classId",
          "type": "uint16"
        },
        {
          "indexed": false,
          "internalType": "string",
          "name": "race",
          "type": "string"
        }
      ],
      "name": "HeroRaceUpdated",
      "type": "event"
    },
    {
      "anonymous": false,
      "inputs": [
        {
          "indexed": false,
          "internalType": "uint256",
          "name": "tokenId",
          "type": "uint256"
        },
        {
          "indexed": false,
          "internalType": "uint256",
          "name": "level",
          "type": "uint256"
        }
      ],
      "name": "LevelUp",
      "type": "event"
    },
    {
      "anonymous": false,
      "inputs": [
        {
          "indexed": false,
          "internalType": "uint256",
          "name": "tokenId",
          "type": "uint256"
        },
        {
          "indexed": false,
          "internalType": "uint256",
          "name": "minPrice",
          "type": "uint256"
        }
      ],
      "name": "MinPriceUpdated",
      "type": "event"
    },
    {
      "anonymous": false,
      "inputs": [
        {
          "indexed": false,
          "internalType": "uint16",
          "name": "classId",
          "type": "uint16"
        },
        {
          "indexed": false,
          "internalType": "string",
          "name": "klass",
          "type": "string"
        },
        {
          "indexed": false,
          "internalType": "uint256[7]",
          "name": "strengths",
          "type": "uint256[7]"
        }
      ],
      "name": "NewClassAdded",
      "type": "event"
    },
    {
      "anonymous": false,
      "inputs": [
        {
          "indexed": false,
          "internalType": "uint256",
          "name": "tokenId",
          "type": "uint256"
        },
        {
          "indexed": false,
          "internalType": "uint256",
          "name": "ownPrice",
          "type": "uint256"
        }
      ],
      "name": "OwnPriceUpdated",
      "type": "event"
    },
    {
      "anonymous": false,
      "inputs": [
        {
          "indexed": true,
          "internalType": "address",
          "name": "_previousOwner",
          "type": "address"
        },
        {
          "indexed": true,
          "internalType": "address",
          "name": "_newOwner",
          "type": "address"
        }
      ],
      "name": "OwnershipTransferred",
      "type": "event"
    },
    {
      "anonymous": false,
      "inputs": [
        {
          "indexed": false,
          "internalType": "uint256",
          "name": "tokenId",
          "type": "uint256"
        },
        {
          "indexed": false,
          "internalType": "uint256",
          "name": "index",
          "type": "uint256"
        },
        {
          "indexed": false,
          "internalType": "uint256",
          "name": "level",
          "type": "uint256"
        }
      ],
      "name": "SkillUp",
      "type": "event"
    },
    {
      "anonymous": false,
      "inputs": [
        {
          "indexed": false,
          "internalType": "uint16",
          "name": "classId",
          "type": "uint16"
        },
        {
          "indexed": false,
          "internalType": "uint256[7]",
          "name": "strengthBonus",
          "type": "uint256[7]"
        }
      ],
      "name": "StrengthBonusUpdated",
      "type": "event"
    },
    {
      "anonymous": false,
      "inputs": [
        {
          "indexed": true,
          "internalType": "address",
          "name": "from",
          "type": "address"
        },
        {
          "indexed": true,
          "internalType": "address",
          "name": "to",
          "type": "address"
        },
        {
          "indexed": true,
          "internalType": "uint256",
          "name": "tokenId",
          "type": "uint256"
        }
      ],
      "name": "Transfer",
      "type": "event"
    },
    {
      "inputs": [],
      "name": "_isContractAdmin",
      "outputs": [
        {
          "internalType": "bool",
          "name": "",
          "type": "bool"
        }
      ],
      "stateMutability": "view",
      "type": "function"
    },
    {
      "inputs": [],
      "name": "_isMainAdmin",
      "outputs": [
        {
          "internalType": "bool",
          "name": "",
          "type": "bool"
        }
      ],
      "stateMutability": "view",
      "type": "function"
    },
    {
      "inputs": [
        {
          "internalType": "address",
          "name": "to",
          "type": "address"
        },
        {
          "internalType": "uint256",
          "name": "tokenId",
          "type": "uint256"
        }
      ],
      "name": "approve",
      "outputs": [],
      "stateMutability": "nonpayable",
      "type": "function"
    },
    {
      "inputs": [
        {
          "internalType": "address",
          "name": "owner",
          "type": "address"
        }
      ],
      "name": "balanceOf",
      "outputs": [
        {
          "internalType": "uint256",
          "name": "",
          "type": "uint256"
        }
      ],
      "stateMutability": "view",
      "type": "function"
    },
    {
      "inputs": [
        {
          "internalType": "uint256",
          "name": "tokenId",
          "type": "uint256"
        }
      ],
      "name": "burn",
      "outputs": [],
      "stateMutability": "nonpayable",
      "type": "function"
    },
    {
      "inputs": [],
      "name": "contractAdmin",
      "outputs": [
        {
          "internalType": "address",
          "name": "",
          "type": "address"
        }
      ],
      "stateMutability": "view",
      "type": "function"
    },
    {
      "inputs": [],
      "name": "countId",
      "outputs": [
        {
          "internalType": "uint16",
          "name": "",
          "type": "uint16"
        }
      ],
      "stateMutability": "view",
      "type": "function"
    },
    {
      "inputs": [
        {
          "internalType": "uint16",
          "name": "",
          "type": "uint16"
        }
      ],
      "name": "creators",
      "outputs": [
        {
          "internalType": "address",
          "name": "",
          "type": "address"
        }
      ],
      "stateMutability": "view",
      "type": "function"
    },
    {
      "inputs": [],
      "name": "energyManager",
      "outputs": [
        {
          "internalType": "contract IEnergyManager",
          "name": "",
          "type": "address"
        }
      ],
      "stateMutability": "view",
      "type": "function"
    },
    {
      "inputs": [
        {
          "internalType": "uint8",
          "name": "",
          "type": "uint8"
        }
      ],
      "name": "experienceCheckpoint",
      "outputs": [
        {
          "internalType": "uint32",
          "name": "",
          "type": "uint32"
        }
      ],
      "stateMutability": "view",
      "type": "function"
    },
    {
      "inputs": [
        {
          "internalType": "address",
          "name": "",
          "type": "address"
        }
      ],
      "name": "gameContracts",
      "outputs": [
        {
          "internalType": "bool",
          "name": "",
          "type": "bool"
        }
      ],
      "stateMutability": "view",
      "type": "function"
    },
    {
      "inputs": [
        {
          "internalType": "uint256",
          "name": "tokenId",
          "type": "uint256"
        }
      ],
      "name": "getApproved",
      "outputs": [
        {
          "internalType": "address",
          "name": "",
          "type": "address"
        }
      ],
      "stateMutability": "view",
      "type": "function"
    },
    {
      "inputs": [
        {
          "internalType": "uint256",
          "name": "",
          "type": "uint256"
        }
      ],
      "name": "heroes",
      "outputs": [
        {
          "internalType": "uint16",
          "name": "id",
          "type": "uint16"
        },
        {
          "internalType": "uint256",
          "name": "createdAt",
          "type": "uint256"
        },
        {
          "internalType": "uint8",
          "name": "level",
          "type": "uint8"
        },
        {
          "internalType": "uint32",
          "name": "experience",
          "type": "uint32"
        },
        {
          "internalType": "uint256",
          "name": "ownPrice",
          "type": "uint256"
        },
        {
          "internalType": "uint256",
          "name": "failedUpgradingAmount",
          "type": "uint256"
        }
      ],
      "stateMutability": "view",
      "type": "function"
    },
    {
      "inputs": [
        {
          "internalType": "address",
          "name": "owner",
          "type": "address"
        },
        {
          "internalType": "address",
          "name": "operator",
          "type": "address"
        }
      ],
      "name": "isApprovedForAll",
      "outputs": [
        {
          "internalType": "bool",
          "name": "",
          "type": "bool"
        }
      ],
      "stateMutability": "view",
      "type": "function"
    },
    {
      "inputs": [],
      "name": "mainAdmin",
      "outputs": [
        {
          "internalType": "address",
          "name": "",
          "type": "address"
        }
      ],
      "stateMutability": "view",
      "type": "function"
    },
    {
      "inputs": [
        {
          "internalType": "uint16",
          "name": "",
          "type": "uint16"
        }
      ],
      "name": "mappingHeroClass",
      "outputs": [
        {
          "internalType": "string",
          "name": "",
          "type": "string"
        }
      ],
      "stateMutability": "view",
      "type": "function"
    },
    {
      "inputs": [
        {
          "internalType": "uint16",
          "name": "",
          "type": "uint16"
        }
      ],
      "name": "mappingHeroName",
      "outputs": [
        {
          "internalType": "string",
          "name": "",
          "type": "string"
        }
      ],
      "stateMutability": "view",
      "type": "function"
    },
    {
      "inputs": [
        {
          "internalType": "uint16",
          "name": "",
          "type": "uint16"
        }
      ],
      "name": "mappingHeroRace",
      "outputs": [
        {
          "internalType": "string",
          "name": "",
          "type": "string"
        }
      ],
      "stateMutability": "view",
      "type": "function"
    },
    {
      "inputs": [
        {
          "internalType": "address",
          "name": "",
          "type": "address"
        }
      ],
      "name": "mintAdmins",
      "outputs": [
        {
          "internalType": "bool",
          "name": "",
          "type": "bool"
        }
      ],
      "stateMutability": "view",
      "type": "function"
    },
    {
      "inputs": [],
      "name": "name",
      "outputs": [
        {
          "internalType": "string",
          "name": "",
          "type": "string"
        }
      ],
      "stateMutability": "view",
      "type": "function"
    },
    {
      "inputs": [
        {
          "internalType": "address",
          "name": "",
          "type": "address"
        }
      ],
      "name": "nonces",
      "outputs": [
        {
          "internalType": "uint256",
          "name": "",
          "type": "uint256"
        }
      ],
      "stateMutability": "view",
      "type": "function"
    },
    {
      "inputs": [
        {
          "internalType": "uint256",
          "name": "tokenId",
          "type": "uint256"
        }
      ],
      "name": "ownerOf",
      "outputs": [
        {
          "internalType": "address",
          "name": "",
          "type": "address"
        }
      ],
      "stateMutability": "view",
      "type": "function"
    },
    {
      "inputs": [
        {
          "internalType": "address",
          "name": "from",
          "type": "address"
        },
        {
          "internalType": "address",
          "name": "to",
          "type": "address"
        },
        {
          "internalType": "uint256",
          "name": "tokenId",
          "type": "uint256"
        }
      ],
      "name": "safeTransferFrom",
      "outputs": [],
      "stateMutability": "nonpayable",
      "type": "function"
    },
    {
      "inputs": [
        {
          "internalType": "address",
          "name": "from",
          "type": "address"
        },
        {
          "internalType": "address",
          "name": "to",
          "type": "address"
        },
        {
          "internalType": "uint256",
          "name": "tokenId",
          "type": "uint256"
        },
        {
          "internalType": "bytes",
          "name": "_data",
          "type": "bytes"
        }
      ],
      "name": "safeTransferFrom",
      "outputs": [],
      "stateMutability": "nonpayable",
      "type": "function"
    },
    {
      "inputs": [
        {
          "internalType": "address",
          "name": "operator",
          "type": "address"
        },
        {
          "internalType": "bool",
          "name": "approved",
          "type": "bool"
        }
      ],
      "name": "setApprovalForAll",
      "outputs": [],
      "stateMutability": "nonpayable",
      "type": "function"
    },
    {
      "inputs": [
        {
          "internalType": "uint16",
          "name": "_class",
          "type": "uint16"
        },
        {
          "internalType": "address",
          "name": "_creator",
          "type": "address"
        }
      ],
      "name": "setCreator",
      "outputs": [],
      "stateMutability": "nonpayable",
      "type": "function"
    },
    {
      "inputs": [
        {
          "internalType": "bytes4",
          "name": "interfaceId",
          "type": "bytes4"
        }
      ],
      "name": "supportsInterface",
      "outputs": [
        {
          "internalType": "bool",
          "name": "",
          "type": "bool"
        }
      ],
      "stateMutability": "view",
      "type": "function"
    },
    {
      "inputs": [],
      "name": "symbol",
      "outputs": [
        {
          "internalType": "string",
          "name": "",
          "type": "string"
        }
      ],
      "stateMutability": "view",
      "type": "function"
    },
    {
      "inputs": [
        {
          "internalType": "uint256",
          "name": "tokenId",
          "type": "uint256"
        }
      ],
      "name": "tokenURI",
      "outputs": [
        {
          "internalType": "string",
          "name": "",
          "type": "string"
        }
      ],
      "stateMutability": "view",
      "type": "function"
    },
    {
      "inputs": [
        {
          "internalType": "address",
          "name": "from",
          "type": "address"
        },
        {
          "internalType": "address",
          "name": "to",
          "type": "address"
        },
        {
          "internalType": "uint256",
          "name": "tokenId",
          "type": "uint256"
        }
      ],
      "name": "transferFrom",
      "outputs": [],
      "stateMutability": "nonpayable",
      "type": "function"
    },
    {
      "inputs": [
        {
          "internalType": "address",
          "name": "_newOwner",
          "type": "address"
        }
      ],
      "name": "transferOwnership",
      "outputs": [],
      "stateMutability": "nonpayable",
      "type": "function"
    },
    {
      "inputs": [
        {
          "internalType": "address",
          "name": "",
          "type": "address"
        }
      ],
      "name": "transferable",
      "outputs": [
        {
          "internalType": "bool",
          "name": "",
          "type": "bool"
        }
      ],
      "stateMutability": "view",
      "type": "function"
    },
    {
      "inputs": [
        {
          "internalType": "address",
          "name": "_newAdmin",
          "type": "address"
        }
      ],
      "name": "updateContractAdmin",
      "outputs": [],
      "stateMutability": "nonpayable",
      "type": "function"
    },
    {
      "inputs": [
        {
          "internalType": "address",
          "name": "_contract",
          "type": "address"
        },
        {
          "internalType": "bool",
          "name": "_status",
          "type": "bool"
        }
      ],
      "name": "updateGameContract",
      "outputs": [],
      "stateMutability": "nonpayable",
      "type": "function"
    },
    {
      "inputs": [
        {
          "internalType": "address",
          "name": "_address",
          "type": "address"
        },
        {
          "internalType": "bool",
          "name": "_mintAble",
          "type": "bool"
        }
      ],
      "name": "updateMintAdmin",
      "outputs": [],
      "stateMutability": "nonpayable",
      "type": "function"
    },
    {
      "inputs": [
        {
          "internalType": "address",
          "name": "_address",
          "type": "address"
        },
        {
          "internalType": "bool",
          "name": "_transferable",
          "type": "bool"
        }
      ],
      "name": "updateTransferable",
      "outputs": [],
      "stateMutability": "nonpayable",
      "type": "function"
    },
    {
      "inputs": [
        {
          "internalType": "address",
          "name": "_contract",
          "type": "address"
        }
      ],
      "name": "updateUpgradingContract",
      "outputs": [],
      "stateMutability": "nonpayable",
      "type": "function"
    },
    {
      "inputs": [],
      "name": "upgradingContract",
      "outputs": [
        {
          "internalType": "address",
          "name": "",
          "type": "address"
        }
      ],
      "stateMutability": "view",
      "type": "function"
    },
    {
      "inputs": [
        {
          "internalType": "address",
          "name": "_mainAdmin",
          "type": "address"
        },
        {
          "internalType": "string",
          "name": "_name",
          "type": "string"
        },
        {
          "internalType": "string",
          "name": "_symbol",
          "type": "string"
        }
      ],
      "name": "initialize",
      "outputs": [],
      "stateMutability": "nonpayable",
      "type": "function"
    },
    {
      "inputs": [
        {
          "internalType": "address",
          "name": "_mainAdmin",
          "type": "address"
        }
      ],
      "name": "initialize",
      "outputs": [],
      "stateMutability": "nonpayable",
      "type": "function"
    },
    {
      "inputs": [
        {
          "internalType": "address",
          "name": "_owner",
          "type": "address"
        },
        {
          "internalType": "uint16",
          "name": "_classId",
          "type": "uint16"
        },
        {
          "internalType": "uint256",
          "name": "_price",
          "type": "uint256"
        },
        {
          "internalType": "uint256",
          "name": "_index",
          "type": "uint256"
        }
      ],
      "name": "mintHero",
      "outputs": [
        {
          "internalType": "uint256",
          "name": "",
          "type": "uint256"
        }
      ],
      "stateMutability": "nonpayable",
      "type": "function"
    },
    {
      "inputs": [
        {
          "internalType": "address",
          "name": "_owner",
          "type": "address"
        },
        {
          "internalType": "uint16",
          "name": "_classId",
          "type": "uint16"
        },
        {
          "internalType": "uint256",
          "name": "_price",
          "type": "uint256"
        },
        {
          "internalType": "uint256",
          "name": "_quantity",
          "type": "uint256"
        }
      ],
      "name": "mintHeroes",
      "outputs": [],
      "stateMutability": "nonpayable",
      "type": "function"
    },
    {
      "inputs": [
        {
          "internalType": "uint256",
          "name": "_tokenId",
          "type": "uint256"
        }
      ],
      "name": "getHero",
      "outputs": [
        {
          "internalType": "string",
          "name": "",
          "type": "string"
        },
        {
          "internalType": "string",
          "name": "",
          "type": "string"
        },
        {
          "internalType": "string",
          "name": "",
          "type": "string"
        },
        {
          "internalType": "uint16",
          "name": "",
          "type": "uint16"
        },
        {
          "internalType": "uint256",
          "name": "",
          "type": "uint256"
        },
        {
          "internalType": "uint8",
          "name": "",
          "type": "uint8"
        },
        {
          "internalType": "uint32",
          "name": "",
          "type": "uint32"
        }
      ],
      "stateMutability": "view",
      "type": "function"
    },
    {
      "inputs": [
        {
          "internalType": "uint256",
          "name": "_tokenId",
          "type": "uint256"
        }
      ],
      "name": "getHeroSkills",
      "outputs": [
        {
          "internalType": "uint256",
          "name": "",
          "type": "uint256"
        },
        {
          "internalType": "uint256",
          "name": "",
          "type": "uint256"
        },
        {
          "internalType": "uint256",
          "name": "",
          "type": "uint256"
        }
      ],
      "stateMutability": "view",
      "type": "function"
    },
    {
      "inputs": [
        {
          "internalType": "uint256",
          "name": "_tokenId",
          "type": "uint256"
        }
      ],
      "name": "getHeroPrices",
      "outputs": [
        {
          "internalType": "uint256",
          "name": "",
          "type": "uint256"
        },
        {
          "internalType": "uint256",
          "name": "",
          "type": "uint256"
        }
      ],
      "stateMutability": "view",
      "type": "function"
    },
    {
      "inputs": [
        {
          "internalType": "uint256",
          "name": "_tokenId",
          "type": "uint256"
        }
      ],
      "name": "getClassId",
      "outputs": [
        {
          "internalType": "uint16",
          "name": "",
          "type": "uint16"
        }
      ],
      "stateMutability": "view",
      "type": "function"
    },
    {
      "inputs": [
        {
          "internalType": "uint256",
          "name": "_tokenId",
          "type": "uint256"
        }
      ],
      "name": "getCreator",
      "outputs": [
        {
          "internalType": "address",
          "name": "",
          "type": "address"
        }
      ],
      "stateMutability": "view",
      "type": "function"
    },
    {
      "inputs": [
        {
          "internalType": "uint16",
          "name": "_classId",
          "type": "uint16"
        }
      ],
      "name": "getStrengthIndexReferences",
      "outputs": [
        {
          "internalType": "uint256",
          "name": "",
          "type": "uint256"
        },
        {
          "internalType": "uint256",
          "name": "",
          "type": "uint256"
        },
        {
          "internalType": "uint256",
          "name": "",
          "type": "uint256"
        },
        {
          "internalType": "uint256",
          "name": "",
          "type": "uint256"
        },
        {
          "internalType": "uint256",
          "name": "",
          "type": "uint256"
        },
        {
          "internalType": "uint256",
          "name": "",
          "type": "uint256"
        },
        {
          "internalType": "uint256",
          "name": "",
          "type": "uint256"
        }
      ],
      "stateMutability": "view",
      "type": "function"
    },
    {
      "inputs": [
        {
          "internalType": "uint16",
          "name": "_classId",
          "type": "uint16"
        }
      ],
      "name": "getStrengthBonuses",
      "outputs": [
        {
          "internalType": "uint256",
          "name": "",
          "type": "uint256"
        },
        {
          "internalType": "uint256",
          "name": "",
          "type": "uint256"
        },
        {
          "internalType": "uint256",
          "name": "",
          "type": "uint256"
        },
        {
          "internalType": "uint256",
          "name": "",
          "type": "uint256"
        },
        {
          "internalType": "uint256",
          "name": "",
          "type": "uint256"
        },
        {
          "internalType": "uint256",
          "name": "",
          "type": "uint256"
        },
        {
          "internalType": "uint256",
          "name": "",
          "type": "uint256"
        }
      ],
      "stateMutability": "view",
      "type": "function"
    },
    {
      "inputs": [
        {
          "internalType": "uint16",
          "name": "_classId",
          "type": "uint16"
        },
        {
          "internalType": "uint256[7]",
          "name": "_strengths",
          "type": "uint256[7]"
        }
      ],
      "name": "updateBaseStrengths",
      "outputs": [],
      "stateMutability": "nonpayable",
      "type": "function"
    },
    {
      "inputs": [
        {
          "internalType": "uint16",
          "name": "_classId",
          "type": "uint16"
        },
        {
          "internalType": "uint256[7]",
          "name": "_strengthBonuses",
          "type": "uint256[7]"
        }
      ],
      "name": "updateStrengthBonus",
      "outputs": [],
      "stateMutability": "nonpayable",
      "type": "function"
    },
    {
      "inputs": [
        {
          "internalType": "uint8",
          "name": "_level",
          "type": "uint8"
        },
        {
          "internalType": "uint32",
          "name": "_experience",
          "type": "uint32"
        }
      ],
      "name": "updateExperienceCheckpoint",
      "outputs": [],
      "stateMutability": "nonpayable",
      "type": "function"
    },
    {
      "inputs": [
        {
          "internalType": "uint256",
          "name": "_tokenId",
          "type": "uint256"
        },
        {
          "internalType": "uint256",
          "name": "_ownPrice",
          "type": "uint256"
        }
      ],
      "name": "updateOwnPrice",
      "outputs": [],
      "stateMutability": "nonpayable",
      "type": "function"
    },
    {
      "inputs": [
        {
          "internalType": "uint256",
          "name": "_tokenId",
          "type": "uint256"
        },
        {
          "internalType": "uint256",
          "name": "_amount",
          "type": "uint256"
        }
      ],
      "name": "updateFailedUpgradingAmount",
      "outputs": [],
      "stateMutability": "nonpayable",
      "type": "function"
    },
    {
      "inputs": [
        {
          "internalType": "uint256",
          "name": "_tokenId",
          "type": "uint256"
        },
        {
          "internalType": "uint32",
          "name": "_experience",
          "type": "uint32"
        }
      ],
      "name": "experienceUp",
      "outputs": [],
      "stateMutability": "nonpayable",
      "type": "function"
    },
    {
      "inputs": [
        {
          "internalType": "uint256",
          "name": "_tokenId",
          "type": "uint256"
        },
        {
          "internalType": "uint8",
          "name": "_index",
          "type": "uint8"
        }
      ],
      "name": "skillUp",
      "outputs": [],
      "stateMutability": "nonpayable",
      "type": "function"
    },
    {
      "inputs": [
        {
          "internalType": "string",
          "name": "_race",
          "type": "string"
        },
        {
          "internalType": "string",
          "name": "_class",
          "type": "string"
        },
        {
          "internalType": "string",
          "name": "_name",
          "type": "string"
        },
        {
          "internalType": "uint256[7]",
          "name": "_strengths",
          "type": "uint256[7]"
        },
        {
          "internalType": "address",
          "name": "_creator",
          "type": "address"
        }
      ],
      "name": "addHeroClass",
      "outputs": [],
      "stateMutability": "nonpayable",
      "type": "function"
    },
    {
      "inputs": [
        {
          "internalType": "uint16",
          "name": "_classId",
          "type": "uint16"
        },
        {
          "internalType": "string",
          "name": "_race",
          "type": "string"
        }
      ],
      "name": "updateHeroRace",
      "outputs": [],
      "stateMutability": "nonpayable",
      "type": "function"
    },
    {
      "inputs": [
        {
          "internalType": "uint16",
          "name": "_classId",
          "type": "uint16"
        },
        {
          "internalType": "string",
          "name": "_class",
          "type": "string"
        }
      ],
      "name": "updateHeroClass",
      "outputs": [],
      "stateMutability": "nonpayable",
      "type": "function"
    },
    {
      "inputs": [
        {
          "internalType": "uint16",
          "name": "_classId",
          "type": "uint16"
        },
        {
          "internalType": "string",
          "name": "_name",
          "type": "string"
        }
      ],
      "name": "updateHeroName",
      "outputs": [],
      "stateMutability": "nonpayable",
      "type": "function"
    },
    {
      "inputs": [
        {
          "internalType": "uint256",
          "name": "_tokenId",
          "type": "uint256"
        },
        {
          "internalType": "uint8",
          "name": "_level",
          "type": "uint8"
        },
        {
          "internalType": "uint32",
          "name": "_experience",
          "type": "uint32"
        },
        {
          "internalType": "uint256[3]",
          "name": "_skills",
          "type": "uint256[3]"
        }
      ],
      "name": "updateHeroInfo",
      "outputs": [],
      "stateMutability": "nonpayable",
      "type": "function"
    },
    {
      "inputs": [
        {
          "internalType": "address",
          "name": "_energyManager",
          "type": "address"
        }
      ],
      "name": "updateEnergyManager",
      "outputs": [],
      "stateMutability": "nonpayable",
      "type": "function"
    }
  ],
  "bytecode": "0x608060405234801561001057600080fd5b50615da080620000216000396000f3fe608060405234801561001057600080fd5b50600436106103ba5760003560e01c806390657147116101f4578063b123f7ea1161011a578063d48e638a116100ad578063e985e9c51161007c578063e985e9c514610863578063f2fde38b14610876578063fb6b04ba14610889578063fc9ebda114610891576103ba565b8063d48e638a14610817578063e021b6931461082a578063e24994371461083d578063e8778d8b14610850576103ba565b8063c4d66de8116100e9578063c4d66de8146107d6578063c86b685e146107e9578063c87b56dd146107f1578063cc96cfe414610804576103ba565b8063b123f7ea14610788578063b7d6caec146107a8578063b88d4fde146107b0578063c47bc35f146107c3576103ba565b8063a045ae9811610192578063a8d4a03b11610161578063a8d4a03b14610735578063acb1e61f1461075a578063ae58e7091461076d578063afb6354a14610780576103ba565b8063a045ae98146106e9578063a22cb465146106fc578063a6621b351461070f578063a71d1a2514610722576103ba565b80639656d466116101ce5780639656d4661461068e578063965b5905146106b057806399052acd146106c35780639bbf653a146106d6576103ba565b8063906571471461066b578063922670431461067e57806395d89b4114610686576103ba565b806339dcb0b9116102e45780636ddd474d116102775780637b03ae13116102465780637b03ae13146106125780637ecebe001461062557806388e4a10f146106385780638a8e17301461064b576103ba565b80636ddd474d146105c457806370a08231146105d757806373ef7bac146105f7578063779552451461060a576103ba565b80634437c771116102b35780634437c7711461056a5780635569dfd61461058b5780636352211e1461059e578063666c9239146105b1576103ba565b806339dcb0b91461051e5780633ade8c681461053157806342842e0e1461054457806342966c6814610557576103ba565b806311541ce01161035c57806323b872dd1161032b57806323b872dd146104d2578063299dce66146104e557806336214046146104f8578063385ea57c1461050b576103ba565b806311541ce01461047e57806317581de7146104865780631ab5f3a31461049957806321d80111146104ac576103ba565b8063081812fc11610398578063081812fc14610412578063095ea7b3146104325780630d876656146104455780630f8da3421461046b576103ba565b806301ffc9a7146103bf57806302e65b8a146103e857806306fdde03146103fd575b600080fd5b6103d26103cd366004614dcb565b6108a4565b6040516103df919061516e565b60405180910390f35b6103fb6103f6366004614b56565b61091e565b005b6104056109a8565b6040516103df9190615179565b610425610420366004614f6e565b610a3a565b6040516103df9190615105565b6103fb610440366004614da2565b610a7d565b610458610453366004614ebd565b610b15565b6040516103df9796959493929190615aad565b6103fb610479366004615057565b610b75565b6103d2610bfc565b6103d2610494366004614b56565b610c13565b6103fb6104a7366004614f86565b610c28565b6104bf6104ba366004614f6e565b610ca0565b6040516103df979695949392919061518c565b6103fb6104e0366004614ba2565b610ec5565b6104056104f3366004614ebd565b610efd565b6103fb610506366004614ed7565b610f97565b610405610519366004614ebd565b610fef565b61045861052c366004614ebd565b611008565b61042561053f366004614ebd565b611053565b6103fb610552366004614ba2565b61106e565b6103fb610565366004614f6e565b611089565b61057d610578366004614f6e565b6110d3565b6040516103df929190615a89565b610405610599366004614ebd565b6110f0565b6104256105ac366004614f6e565b611109565b6103fb6105bf366004614f1d565b61113e565b6103d26105d2366004614b56565b6111c1565b6105ea6105e5366004614b56565b6111d6565b6040516103df9190615a80565b6103fb610605366004614f1d565b61121a565b610425611290565b6103fb610620366004614b56565b61129f565b6105ea610633366004614b56565b61130b565b6103fb610646366004614ca9565b61131d565b61065e610659366004614f6e565b611392565b6040516103df91906159c5565b6103fb610679366004614ce3565b6113a8565b61065e611437565b610405611441565b6106a161069c366004614f6e565b611450565b6040516103df93929190615a97565b6103fb6106be366004614ef2565b611472565b6103fb6106d1366004614d61565b6114e7565b6103fb6106e4366004614b56565b61154a565b6105ea6106f7366004614d61565b6115cb565b6103fb61070a366004614ca9565b611616565b6103fb61071d366004614f86565b6116e4565b6103fb610730366004614fa7565b61175e565b610748610743366004614f6e565b61195f565b6040516103df96959493929190615a49565b6103d2610768366004614b56565b6119a3565b6103fb61077b366004614f1d565b6119b8565b610425611c03565b61079b61079636600461503d565b611c18565b6040516103df9190615b4b565b6103d2611c30565b6103fb6107be366004614bdd565b611c41565b6103fb6107d1366004614e03565b611c80565b6103fb6107e4366004614b56565b611e57565b610425611e63565b6104056107ff366004614f6e565b611e72565b6103fb610812366004614fc9565b611ef5565b610425610825366004614f6e565b612048565b6103fb610838366004614ca9565b612074565b6103fb61084b366004614ca9565b6120e9565b6103fb61085e366004614ef2565b61215e565b6103d2610871366004614b70565b6121d3565b6103fb610884366004614b56565b612203565b61042561229c565b6103fb61089f366004614feb565b6122b1565b60006001600160e01b031982167f80ac58cd00000000000000000000000000000000000000000000000000000000148061090757506001600160e01b031982167f5b5e139f00000000000000000000000000000000000000000000000000000000145b8061091657506109168261235b565b90505b919050565b610926610bfc565b61094b5760405162461bcd60e51b815260040161094290615697565b60405180910390fd5b6001600160a01b03811661095e57600080fd5b600180546001600160a01b0319166001600160a01b0383169081179091556040517fe3f4a4b5b74aa6830627cb87c50cf7d4ed56e9b246729179ba634bbdc873177a90600090a250565b6060606a80546109b790615c64565b80601f01602080910402602001604051908101604052809291908181526020018280546109e390615c64565b8015610a305780601f10610a0557610100808354040283529160200191610a30565b820191906000526020600020905b815481529060010190602001808311610a1357829003601f168201915b5050505050905090565b6000610a458261238d565b610a615760405162461bcd60e51b815260040161094290615703565b506000908152606e60205260409020546001600160a01b031690565b6000610a8882611109565b9050806001600160a01b0316836001600160a01b03161415610abc5760405162461bcd60e51b815260040161094290615877565b806001600160a01b0316610ace6123aa565b6001600160a01b03161480610aea5750610aea816108716123aa565b610b065760405162461bcd60e51b8152600401610942906154b7565b610b1083836123ae565b505050565b61ffff8116600090815260a5602052604081208054600182015460028301546003840154600485015460058601548796879687968796879687969395929491939092909160065b0154959e949d50929b5090995097509550909350915050565b610b7d610bfc565b610b995760405162461bcd60e51b815260040161094290615697565b60ff8216600090815260a6602052604090819020805463ffffffff191663ffffffff8416179055517f17d2bf124429a62e9b1d2b2d50c99a0644acc1b995842c5d7ac0c5f3fc6a28a390610bf09084908490615b5c565b60405180910390a15050565b6000546201000090046001600160a01b0316331490565b60346020526000908152604090205460ff1681565b610c3061241c565b80610c3e5750610c3e610bfc565b610c5a5760405162461bcd60e51b815260040161094290615480565b6000828152609f602052604090819020600401829055517f8f21cd2a7841e8779d88a0b8dff3a4627b5fd4ead98b161abf5a398d6c8b8f8d90610bf09084908490615a89565b6000818152609f60208181526040808420805461ffff1680865260a1845282862060a2855283872060a38652938720888852959094526001820154600290920154845460609788978897919687968796879694959294909260ff821691610100900463ffffffff16908790610d1490615c64565b80601f0160208091040260200160405190810160405280929190818152602001828054610d4090615c64565b8015610d8d5780601f10610d6257610100808354040283529160200191610d8d565b820191906000526020600020905b815481529060010190602001808311610d7057829003601f168201915b50505050509650858054610da090615c64565b80601f0160208091040260200160405190810160405280929190818152602001828054610dcc90615c64565b8015610e195780601f10610dee57610100808354040283529160200191610e19565b820191906000526020600020905b815481529060010190602001808311610dfc57829003601f168201915b50505050509550848054610e2c90615c64565b80601f0160208091040260200160405190810160405280929190818152602001828054610e5890615c64565b8015610ea55780601f10610e7a57610100808354040283529160200191610ea5565b820191906000526020600020905b815481529060010190602001808311610e8857829003601f168201915b505050505094509650965096509650965096509650919395979092949650565b610ed6610ed06123aa565b8261244c565b610ef25760405162461bcd60e51b81526004016109429061590b565b610b108383836124c9565b60a16020526000908152604090208054610f1690615c64565b80601f0160208091040260200160405190810160405280929190818152602001828054610f4290615c64565b8015610f8f5780601f10610f6457610100808354040283529160200191610f8f565b820191906000526020600020905b815481529060010190602001808311610f7257829003601f168201915b505050505081565b610f9f610bfc565b610fbb5760405162461bcd60e51b815260040161094290615697565b61ffff919091166000908152609c6020526040902080546001600160a01b0319166001600160a01b03909216919091179055565b60a26020526000908152604090208054610f1690615c64565b61ffff8116600090815260a460205260408120805460018201546002830154600384015460048501546005860154879687968796879687968796939592949193909290916006610b5c565b609c602052600090815260409020546001600160a01b031681565b610b1083838360405180602001604052806000815250611c41565b611094610ed06123aa565b6110b05760405162461bcd60e51b815260040161094290615968565b609e805460ff191660011790556110c6816125f6565b50609e805460ff19169055565b6000908152609f6020526040902060038101546004909101549091565b60a36020526000908152604090208054610f1690615c64565b6000818152606c60205260408120546001600160a01b0316806109165760405162461bcd60e51b8152600401610942906155a8565b611146610bfc565b6111625760405162461bcd60e51b815260040161094290615697565b61ffff8316600090815260a260205260409020611180908383614901565b507fc0c4650245eb76bdf6e4d23dbc9343f027bb4659dced9b44907fa9ed143847d78383836040516111b4939291906159f3565b60405180910390a1505050565b60366020526000908152604090205460ff1681565b60006001600160a01b0382166111fe5760405162461bcd60e51b81526004016109429061554b565b506001600160a01b03166000908152606d602052604090205490565b611222610bfc565b61123e5760405162461bcd60e51b815260040161094290615697565b61ffff8316600090815260a16020526040902061125c908383614901565b507fa1c87fa45ec62d5c157eb1210185e696c95a64268c29fe19fa936710de1dba158383836040516111b4939291906159f3565b6001546001600160a01b031681565b6112a7610bfc565b6112c35760405162461bcd60e51b815260040161094290615697565b6001600160a01b0381166112e95760405162461bcd60e51b815260040161094290615840565b603780546001600160a01b0319166001600160a01b0392909216919091179055565b609d6020526000908152604090205481565b611325610bfc565b6113415760405162461bcd60e51b815260040161094290615697565b6001600160a01b0382166113675760405162461bcd60e51b815260040161094290615840565b6001600160a01b03919091166000908152603460205260409020805460ff1916911515919091179055565b6000908152609f602052604090205461ffff1690565b600054610100900460ff16806113c1575060005460ff16155b6113dd5760405162461bcd60e51b81526004016109429061563a565b600054610100900460ff16158015611408576000805460ff1961ff0019909116610100171660011790555b611415868686868661269d565b61141d612719565b801561142f576000805461ff00191690555b505050505050565b60a75461ffff1681565b6060606b80546109b790615c64565b6000908152609f60205260409020600581015460068201546007909201549092565b61147a610bfc565b6114965760405162461bcd60e51b815260040161094290615697565b61ffff8216600090815260a4602052604090206114b590826007614985565b507fe28874ac083fe20865bff06ca188c28fac7a0c98eb80a54c811f384df9b4609f8282604051610bf09291906159d4565b6114ef61241c565b806114fd57506114fd610bfc565b6115195760405162461bcd60e51b815260040161094290615480565b60005b818110156115435761153085858584613e6f565b508061153b81615cc1565b91505061151c565b5050505050565b611552610bfc565b61156e5760405162461bcd60e51b815260040161094290615697565b6001600160a01b0381166115945760405162461bcd60e51b8152600401610942906151f9565b60a780546001600160a01b03909216620100000275ffffffffffffffffffffffffffffffffffffffff000019909216919091179055565b60006115d561241c565b806115e357506115e3610bfc565b6115ff5760405162461bcd60e51b815260040161094290615480565b61160b85858585613e6f565b90505b949350505050565b61161e6123aa565b6001600160a01b0316826001600160a01b0316141561164f5760405162461bcd60e51b81526004016109429061538f565b80606f600061165c6123aa565b6001600160a01b03908116825260208083019390935260409182016000908120918716808252919093529120805460ff1916921515929092179091556116a06123aa565b6001600160a01b03167f17307eab39ab6107e8899845ad3d59bd9653f200f220920489ca2b5937696c31836040516116d8919061516e565b60405180910390a35050565b6116ec61241c565b806116fa57506116fa610bfc565b6117165760405162461bcd60e51b815260040161094290615480565b6000828152609f6020526040908190206003810183905590517ffdaaf93720302021b7d6406c19b136fef68421732d76d76d21761176f8e2a563906111b49085908590615a89565b611766613ef8565b806117745750611774610bfc565b6117905760405162461bcd60e51b8152600401610942906152c4565b6000828152609f602052604081206002015460a691906117b49060ff166001615bc9565b60ff1681526020808201929092526040908101600090812054858252609f909352206002015463ffffffff918216916117f591849161010090910416615baa565b63ffffffff16106118c2576000828152609f602052604081206002015460a691906118249060ff166001615bc9565b60ff90811682526020808301939093526040918201600090812054868252609f90945291909120600201805463ffffffff9093166101000264ffffffff0019909316929092179182905561187b9160059116615cf0565b60ff16600114806118af57506000828152609f60205260409020600201546118a89060059060ff16615cf0565b60ff166003145b156118bd576118bd82613f06565b611910565b6000828152609f6020526040902060020180548291906001906118f1908490610100900463ffffffff16615baa565b92506101000a81548163ffffffff021916908363ffffffff1602179055505b6000828152609f6020526040908190206002015490517ffccf24a600777b3047c29a150be1f41197ea19f7680cfe4844626cdecfdc709f91610bf0918591610100900463ffffffff1690615add565b609f602052600090815260409020805460018201546002830154600384015460049094015461ffff90931693919260ff82169261010090920463ffffffff16919086565b60356020526000908152604090205460ff1681565b6119c0610bfc565b6119dc5760405162461bcd60e51b815260040161094290615697565b60a06000611a1f84848080601f016020809104026020016040519081016040528093929190818152602001838380828437600092019190915250613f9692505050565b67ffffffffffffffff1916815260208101919091526040016000205460ff1615611a5b5760405162461bcd60e51b8152600401610942906153fd565b61ffff8316600090815260a360205260408120805460a0918391611b069190611a8390615c64565b80601f0160208091040260200160405190810160405280929190818152602001828054611aaf90615c64565b8015611afc5780601f10611ad157610100808354040283529160200191611afc565b820191906000526020600020905b815481529060010190602001808311611adf57829003601f168201915b5050505050613f96565b67ffffffffffffffff191667ffffffffffffffff1916815260200190815260200160002060006101000a81548160ff021916908315150217905550600160a06000611b8685858080601f016020809104026020016040519081016040528093929190818152602001838380828437600092019190915250613f9692505050565b67ffffffffffffffff1916815260208082019290925260409081016000908120805460ff19169415159490941790935561ffff8616835260a39091529020611bcf908383614901565b507fea8e4848802a06a3dd2c7a7a958ed834e0124bb6d042d18961bac05ee68b076f8383836040516111b4939291906159f3565b60a7546201000090046001600160a01b031681565b60a66020526000908152604090205463ffffffff1681565b6001546001600160a01b0316331490565b611c52611c4c6123aa565b8361244c565b611c6e5760405162461bcd60e51b81526004016109429061590b565b611c7a84848484613fb4565b50505050565b611c88610bfc565b611ca45760405162461bcd60e51b815260040161094290615697565b60a06000611ce786868080601f016020809104026020016040519081016040528093929190818152602001838380828437600092019190915250613f9692505050565b67ffffffffffffffff1916815260208101919091526040016000205460ff1615611d235760405162461bcd60e51b8152600401610942906153fd565b60a7805460019190600090611d3d90849061ffff16615b75565b82546101009290920a61ffff81810219909316918316021790915560a75416600090815260a160205260409020611d7691508989614901565b5060a75461ffff16600090815260a260205260409020611d97908787614901565b5060a75461ffff16600090815260a360205260409020611db8908585614901565b5060a75461ffff16600090815260a460205260409020611dda90836007614985565b5060a7805461ffff9081166000908152609c60205260409081902080546001600160a01b0319166001600160a01b038616179055915491517fd316c87265ab991f6379db3e2c0786809efc0917382fa02644539cf37e1d14e992611e45921690899089908790615a11565b60405180910390a15050505050505050565b611e6081613fe7565b50565b6037546001600160a01b031681565b6060611e7d8261238d565b611e995760405162461bcd60e51b8152600401610942906157e3565b6000611ea36140a5565b90506000815111611ec35760405180602001604052806000815250611eee565b80611ecd846140b7565b604051602001611ede9291906150d6565b6040516020818303038152906040525b9392505050565b611efd614206565b80611f0b5750611f0b610bfc565b611f275760405162461bcd60e51b815260040161094290615605565b611f31828261422c565b6000828152609f6020526040902060019060050160ff831660038110611f6757634e487b7160e01b600052603260045260246000fd5b016000828254611f779190615b92565b90915550611f86905082613f06565b6000828152609f602052604090206004015415611fde576000828152609f6020526040812060048101546003909101805491929091611fc6908490615b92565b90915550506000828152609f60205260408120600401555b6000828152609f602052604090207f8a4ef40b2cb3f34b9f898452db4fbaa756201df8aac4125202379465f2f1ec51908390839060050160ff82166003811061203757634e487b7160e01b600052603260045260246000fd5b0154604051610bf093929190615b02565b6000908152609f602090815260408083205461ffff168352609c9091529020546001600160a01b031690565b61207c610bfc565b6120985760405162461bcd60e51b815260040161094290615697565b6001600160a01b0382166120be5760405162461bcd60e51b815260040161094290615840565b6001600160a01b03919091166000908152603660205260409020805460ff1916911515919091179055565b6120f1610bfc565b61210d5760405162461bcd60e51b815260040161094290615697565b6001600160a01b0382166121335760405162461bcd60e51b815260040161094290615840565b6001600160a01b03919091166000908152603560205260409020805460ff1916911515919091179055565b612166610bfc565b6121825760405162461bcd60e51b815260040161094290615697565b61ffff8216600090815260a5602052604090206121a190826007614985565b507fa63e2e8dc8661729f4af2a8aaace34092ebf727c2bbccb18a0c4e4e6fe852fb28282604051610bf09291906159d4565b6001600160a01b038083166000908152606f602090815260408083209385168352929052205460ff165b92915050565b61220b610bfc565b6122275760405162461bcd60e51b815260040161094290615697565b6001600160a01b03811661223a57600080fd5b6000805475ffffffffffffffffffffffffffffffffffffffff00001916620100006001600160a01b038416908102919091178255604051909133917f8be0079c531659141344cd1fd0a4f28419497f9722a3daafe3b4186f6b6457e09190a350565b6000546201000090046001600160a01b031681565b6122b9610bfc565b6122d55760405162461bcd60e51b815260040161094290615697565b6000848152609f6020526040902060028101805460ff191660ff86161764ffffffff00191661010063ffffffff861602179055612317906005018260036149b2565b507f9907bd1bed2835301ca12e8bce0fa3026c52d7f88f819b4786ec5ba771fc10a38484848460405161234d9493929190615b1b565b60405180910390a150505050565b6001600160e01b031981167f01ffc9a70000000000000000000000000000000000000000000000000000000014919050565b6000908152606c60205260409020546001600160a01b0316151590565b3390565b6000818152606e6020526040902080546001600160a01b0319166001600160a01b03841690811790915581906123e382611109565b6001600160a01b03167f8c5be1e5ebec7d5bd14f71427d1e84f3dd0314c0f7b2291e5b200ac8c7c3b92560405160405180910390a45050565b60006034600061242a6123aa565b6001600160a01b0316815260208101919091526040016000205460ff16905090565b60006124578261238d565b6124735760405162461bcd60e51b815260040161094290615434565b600061247e83611109565b9050806001600160a01b0316846001600160a01b031614806124b95750836001600160a01b03166124ae84610a3a565b6001600160a01b0316145b8061160e575061160e81856121d3565b826001600160a01b03166124dc82611109565b6001600160a01b0316146125025760405162461bcd60e51b815260040161094290615786565b6001600160a01b0382166125285760405162461bcd60e51b815260040161094290615332565b612533838383614348565b61253e6000826123ae565b6001600160a01b0383166000908152606d60205260408120805460019290612567908490615c21565b90915550506001600160a01b0382166000908152606d60205260408120805460019290612595908490615b92565b90915550506000818152606c602052604080822080546001600160a01b0319166001600160a01b0386811691821790925591518493918716917fddf252ad1be2c89b69c2b068fc378daa952ba7f163c4a11628f55a4df523b3ef91a4505050565b600061260182611109565b905061260f81600084614348565b61261a6000836123ae565b6001600160a01b0381166000908152606d60205260408120805460019290612643908490615c21565b90915550506000828152606c602052604080822080546001600160a01b0319169055518391906001600160a01b038416907fddf252ad1be2c89b69c2b068fc378daa952ba7f163c4a11628f55a4df523b3ef908390a45050565b6126a685611e57565b61154384848080601f01602080910402602001604051908101604052809392919081815260200183838082843760009201919091525050604080516020601f8801819004810282018101909252868152925086915085908190840183828082843760009201919091525061449c92505050565b60a7805461ffff19166012179055604080518082019091526005815264243ab6b0b760d91b6020808301918252600160005260a19052905161277c917ff4875fff8b0cf986238a93aa5a1c4dd6cdbe2f1045b9974e1f43ef715569af66916149df565b50604080518082019091526005815264243ab6b0b760d91b6020808301918252600260005260a1905290516127d2917f56cd10bd7c5a283404157adf2ba847ac6f7bfee0953fbdea6cae6f66ee17d9ce916149df565b50604080518082019091526005815264243ab6b0b760d91b6020808301918252600360005260a190529051612828917f82810f81d5d6068ad5b62b5073b1161d037affd3559d84ef47a831e06ad04e86916149df565b50604080518082019091526005815264243ab6b0b760d91b6020808301918252600460005260a19052905161287e917f452a9a645b43619dc9681d051339fd2836f59d845037283e59145a406fad0d00916149df565b50604080518082019091526005808252642232b6b7b760d91b602080840191825260009290925260a190915290516128d7917f22c173befadc645641c2fbf3c64efe326bc6b625704f0b91377e02a9612c49a7916149df565b506040805180820190915260058152642232b6b7b760d91b6020808301918252600660005260a19052905161292d917fc1c5dc6072b055a41c3c3bebcb56b9915ea1e7010445708f9466212b669eb28f916149df565b506040805180820190915260058152642232b6b7b760d91b6020808301918252600760005260a190529051612983917f972b9fbe2803a99ac215e0c6e4560de6fe83a715440f9b03a9c488f7782a5567916149df565b506040805180820190915260058152641099585cdd60da1b6020808301918252600860005260a1905290516129d9917f46bc0982185ead238d259b5fb68c5315571a787559af7bdd54fc3ac84a6967aa916149df565b506040805180820190915260058152641099585cdd60da1b6020808301918252600960005260a190529051612a2f917fb621ae302217d8caf68b8ab9d73fec6a0bced048c3063caa6363fa737aaad446916149df565b506040805180820190915260058152641099585cdd60da1b6020808301918252600a60005260a190529051612a85917f89b628aec863dfce1cf6e4090e0d6de0c16a7e93e77fd28ffd7467b9aaec3010916149df565b506040805180820190915260058152641099585cdd60da1b6020808301918252600b60005260a190529051612adb917fd1a456f010e12da9d139498d7be2b4a5c4709546152435b3449ddcfe75c6f772916149df565b506040805180820190915260058152641099585cdd60da1b6020808301918252600c60005260a190529051612b31917f910b1f9a81c069d8b384fe11a08d0bc2b03af86d1f067e49e9617fde18b4f9e5916149df565b506040805180820190915260058152641099585cdd60da1b6020808301918252600d60005260a190529051612b87917f288f81a07dd6654bb815a4765f70f1707f3522b7590e63d9ca4b457e71e28e1d916149df565b5060408051808201909152600481527f4b65656e000000000000000000000000000000000000000000000000000000006020808301918252600e60005260a190529051612bf5917f781bd649b66653a84756ac62d315238a0b554eff1b9a312b98db7ee5b0787cd6916149df565b5060408051808201909152600481527f4f726765000000000000000000000000000000000000000000000000000000006020808301918252600f60005260a190529051612c63917f320a9a8e1c9c11809358e13dde6f368908feef308358eee895841e9be29de9e6916149df565b5060408051808201909152600381527f456c6600000000000000000000000000000000000000000000000000000000006020808301918252601060005260a190529051612cd1917f56f7cad68f8ece78a8811753a671dd98890dc05baf0c9a8d2ee19b284b2379ca916149df565b5060408051808201909152600681527f447261676f6e00000000000000000000000000000000000000000000000000006020808301918252601160005260a190529051612d3f917fceeeb62d75682cb6ca962beeeddf8eda071dacf9d68f9e27f42a295f7e366a3a916149df565b5060408051808201909152600481527f4f6d6e69000000000000000000000000000000000000000000000000000000006020808301918252601260005260a190529051612dad917fd54995677f87050d3a3fb2530b30a14d19b83f587275ec496c8017570dd1817a916149df565b50604080518082019091526006815265243ab73a32b960d11b6020808301918252600160005260a290529051612e04917f87286cc7b9cf8a377e677776b2644ce858185998d33108f493bdc3c2f07b9836916149df565b5060408051808201909152600681527f50726965737400000000000000000000000000000000000000000000000000006020808301918252600260005260a290529051612e72917f984fb507cc15174c9c2666d8998832bf192b808658c1b8547c17c86e40ea5814916149df565b506040805180820190915260078152665761726c6f636b60c81b6020808301918252600360005260a290529051612eca917f4ed878d3ddcb61d84861a74cb3bb4189ee298a8a85e8f1b99bcffb157f7e1884916149df565b5060408051808201909152600881526720b9b9b0b9b9b4b760c11b6020808301918252600460005260a290529051612f23917f01923f2d31549987f5214f443c82ee326b286bb7c04d654ba4ca621265188970916149df565b5060408051808201909152600881526720b9b9b0b9b9b4b760c11b6020808301918252600560005260a290529051612f7c917fc33083533384e347980833407d2d9e9cdf9dbacc3663d0e1f554ee105709e826916149df565b5060408051808201909152600881526720b9b9b0b9b9b4b760c11b6020808301918252600660005260a290529051612fd5917f71fd0a8440c921e3cd1a788064382f9a5d9669403a7360a6f2d84698ec31bc44916149df565b50604080518082019091526007808252665761726c6f636b60c81b602080840191825260009290925260a29091529051613030917fb6696057ec70a0333ac924b34ed9ce9e2c42634949b0b683443ca73ef03ae363916149df565b506040805180820190915260078152662bb0b93934b7b960c91b6020808301918252600860005260a290529051613088917f26337e1e70fcbbb2fc6283c0a90c86f29b90368ec7d360cbe8fc7b6e67fc112f916149df565b5060408051808201909152600781527f4368656d697374000000000000000000000000000000000000000000000000006020808301918252600960005260a2905290516130f6917fdf2cd8d7fef74acb9909cc52cf86c25964c90c53448c2d76e7453598a3a8c9c8916149df565b506040805180820190915260078152662bb0b93934b7b960c91b6020808301918252600a60005260a29052905161314e917f82795cab62bdd4cda89f328945816f18b250bf249e52f6b4b15b2afcda6744a0916149df565b506040805180820190915260078152662bb0b93934b7b960c91b6020808301918252600b60005260a2905290516131a6917ff4770b11b73703c4f0fd1218f47fc971cd10cb8526e369acb604337d47605a39916149df565b50604080518082019091526006815265243ab73a32b960d11b6020808301918252600c60005260a2905290516131fd917f6d0a9d2c0cce1a71e8308ad7e5573fa18a88bc35737aea28ce6beffb8aa3b02f916149df565b506040805180820190915260078152662bb0b93934b7b960c91b6020808301918252600d60005260a290529051613255917f4da184b8a7787c1ce801ea0b32ecfffe19e6af9c1a5ea1d0af0d869d7020d894916149df565b5060408051808201909152600481527f4d656368000000000000000000000000000000000000000000000000000000006020808301918252600e60005260a2905290516132c3917f4ab3fdd8de8d7d6b96a6b8dab8f10298567d2687732142d1204a020c644e3fee916149df565b506040805180820190915260078152662bb0b93934b7b960c91b6020808301918252600f60005260a29052905161331b917f4bcfba7bd467851385dc6a49aede9e2dc010f251fe0cd0a79ebd7e8ce704d4ad916149df565b506040805180820190915260048152634d61676560e01b6020808301918252601060005260a290529051613370917f8f0950f06770b52af44444279dc64409ee82ec0732746ce59f3911e4d22bbce9916149df565b506040805180820190915260048152634d61676560e01b6020808301918252601160005260a2905290516133c5917f86cbf699bc1d56789c39166d6347288e5e086fc8dd82a01897ab98d47dd62eda916149df565b506040805180820190915260048152634d61676560e01b6020808301918252601260005260a29052905161341a917fe74158bccccfd2d764705bb0edfae8b9f9310e5c7f6c292e4db982f94c7fb56f916149df565b5060408051808201909152600481527f45697261000000000000000000000000000000000000000000000000000000006020808301918252600160005260a390529051613488917fc3869149e653ab70ab3abed8edc49ed99ccd0c8cf7ca81486b7adbd034773b10916149df565b5060408051808201909152600581527f41656475730000000000000000000000000000000000000000000000000000006020808301918252600260005260a3905290516134f6917fe262b42e4ca35e2f1e405b90c91327b65c89bdbf5dd51dedc3459002050f6b7b916149df565b5060408051808201909152600781527f4d616c68656c61000000000000000000000000000000000000000000000000006020808301918252600360005260a390529051613564917fe9af58d115897398a1f35176114f462ebaa379402284755e74d53e3847c6a970916149df565b5060408051808201909152600681527f4b656973686100000000000000000000000000000000000000000000000000006020808301918252600460005260a3905290516135d2917fe706244977ef2ec74fcd9d874225747978d4bd47f3242d5481f8a8879f40b4b5916149df565b506040805180820190915260058082527f437972696c000000000000000000000000000000000000000000000000000000602080840191825260009290925260a39091529051613643917fcbada046dc901828fd2d28a24cf93e580e11702593054d26a781b85637098511916149df565b5060408051808201909152600581527f43696172610000000000000000000000000000000000000000000000000000006020808301918252600660005260a3905290516136b1917fd30f387f8bde2b80d4f7a061a6de091056bdb5d1bbbd4946470ef0879c947601916149df565b5060408051808201909152600581527f4772696d6d0000000000000000000000000000000000000000000000000000006020808301918252600760005260a39052905161371f917f78b7dd6d11476f4003d973a619bd8573c0ca4d407bb9fcefc1aac871c868caf3916149df565b5060408051808201909152600581527f4f72736f6e0000000000000000000000000000000000000000000000000000006020808301918252600860005260a39052905161378d917f9abf6d086948ee9fcb117451e82b69d4c7fce51366110176bb6a3a2cac1fb628916149df565b5060408051808201909152600381527f5a656c00000000000000000000000000000000000000000000000000000000006020808301918252600960005260a3905290516137fb917f25ed38933b46ca7b3edcca2dcb64f22887fd8d856672307fb900376cd64c8978916149df565b5060408051808201909152600581527f417072756d0000000000000000000000000000000000000000000000000000006020808301918252600a60005260a390529051613869917f43aa3b3db02da9f4807c40c9a0d4f97c59067d080ac515f56dce49e73b7c33c4916149df565b5060408051808201909152600781527f4f63746f6e7573000000000000000000000000000000000000000000000000006020808301918252600b60005260a3905290516138d7917f478ece678e81dd49796676a492d870c92c56a38f58dc384b8d9bc0ece67c4d43916149df565b5060408051808201909152600981527f416d616c746865757300000000000000000000000000000000000000000000006020808301918252600c60005260a390529051613945917fd55fe29bdc7ca0bb081feeef63a76eeacfecfe820fe093ad9e0d806c88a28af8916149df565b5060408051808201909152600681527f54696772697300000000000000000000000000000000000000000000000000006020808301918252600d60005260a3905290516139b3917f821a0f1c735e06361d76da0563d2c050fe2ff49c5e877a042bf79a79c1e4d72e916149df565b5060408051808201909152600681527f46617272657200000000000000000000000000000000000000000000000000006020808301918252600e60005260a390529051613a21917f6f0af4bfad55f1e976e24c7d05e6d5e5226f33056214cb6b3d2954af58d4c503916149df565b5060408051808201909152600581527f4b656b6f720000000000000000000000000000000000000000000000000000006020808301918252600f60005260a390529051613a8f917fafb81c9605eb29dec5265f247985f4a7ca9b7d234a1c60dac1070909f74d207b916149df565b5060408051808201909152600481527f416c7661000000000000000000000000000000000000000000000000000000006020808301918252601060005260a390529051613afd917f2b2e1306cd20252a8ea518ba42dbe98b8cd834293b7e8698cadcccdbfe52cca8916149df565b5060408051808201909152600481527f4b796c61000000000000000000000000000000000000000000000000000000006020808301918252601160005260a390529051613b6b917fb1b0075c5cce15db6312c5ac54cb9231f6dfc5182e76ae00b13aad607a97b565916149df565b5060408051808201909152600681527f476964656f6e00000000000000000000000000000000000000000000000000006020808301918252601260005260a390529051613bd9917f6385344b117ae482c5fc1c893dc25b0fb22e82b6de66146a2f2ae3f3c01bd59f916149df565b5060015b60128161ffff1611613c5457600160a06000613c1860a360008661ffff1661ffff1681526020019081526020016000208054611a8390615c64565b67ffffffffffffffff191681526020810191909152604001600020805460ff191691151591909117905580613c4c81615c9f565b915050613bdd565b506040805160e08101825260648082526020808301829052928201819052606082018190526080820181905260a0820181905260c0820152600160005260a4909152613cc3907f3ab5dcf47126747c0704cb686c5b362a3f19c34c1a7f9e61bd557bb2aac5bcac906007614a53565b506040805160e08101825260648082526020808301829052928201819052606082018190526080820181905260a0820181905260c0820152600160005260a5909152613d32907f3cdd87bd16aed04484229287c5bc39384778a2cba3efb90ce9f23f83f81cfedb906007614a53565b5060a66020527fdac15aa8ef163b63c452ddefab2459748cd1ad9a971362007811cc356a135b34805463ffffffff19908116600a179091557f6d30e138cfb0797549657eb46e2b31f97aaa0a372b79cdb420024a6f6cee6eed80548216601e1790557fb46def45b6ec4c7e4aa8915adbe3bd82b1cdc668ec77b2cb4339042f5ad5b26d80548216603c1790557f05044ec828900e2dd4926afa36ccf95636a99a34522d399aecfc9482081088988054821660641790557fb7d4028083da13f0945434d8fef7f47a4fd2f2a6cb6e55c9e3d83cb390b5bdc28054821660961790557fa711f124b41308cccb827b5ead65f8e1c4d985daf5bef30dc321cc4d734a090f8054821660d217905560076000527f7bd5f8539171d2d4a6aa7fbae25410c990eea27a69c5fee2554cb88700848b678054909116610118179055565b600060018461ffff1610158015613e90575060a75461ffff90811690851611155b613eac5760405162461bcd60e51b8152600401610942906152fb565b6000613eb78361452c565b9050613ec3868261458f565b6000818152609f60205260409020805461ffff871661ffff199091161781554260018201556003018490559050949350505050565b60006036600061242a6123aa565b6000818152609f60205260408120600201805460019290613f2b90849060ff16615bc9565b82546101009290920a60ff8181021990931691831602179091556000838152609f6020526040908190206002015490517f3b7ca85b5e3d1ebb3a81e8d9e27bfeb9ef2f447026c115421132a20b0733b73f9350613f8b9285921690615af1565b60405180910390a150565b80516000908290613fab575060009050610919565b50506018015190565b613fbf8484846124c9565b613fcb8484848461466e565b611c7a5760405162461bcd60e51b815260040161094290615230565b600054610100900460ff1680614000575060005460ff16155b61401c5760405162461bcd60e51b81526004016109429061563a565b600054610100900460ff16158015614047576000805460ff1961ff0019909116610100171660011790555b6000805475ffffffffffffffffffffffffffffffffffffffff00001916620100006001600160a01b03851690810291909117909155600180546001600160a01b031916909117905580156140a1576000805461ff00191690555b5050565b60408051602081019091526000815290565b6060816140f8575060408051808201909152600181527f30000000000000000000000000000000000000000000000000000000000000006020820152610919565b8160005b8115614122578061410c81615cc1565b915061411b9050600a83615bee565b91506140fc565b60008167ffffffffffffffff81111561414b57634e487b7160e01b600052604160045260246000fd5b6040519080825280601f01601f191660200182016040528015614175576020820181803683370190505b5090505b841561160e5761418a600183615c21565b9150614197600a86615cdc565b6141a2906030615b92565b60f81b8183815181106141c557634e487b7160e01b600052603260045260246000fd5b60200101907effffffffffffffffffffffffffffffffffffffffffffffffffffffffffffff1916908160001a9053506141ff600a86615bee565b9450614179565b6037546000906001600160a01b031661421d6123aa565b6001600160a01b031614905090565b6000828152609f602052604081206002015461424d9060059060ff16615cf0565b90508060ff1660011415801561426757508060ff16600314155b6142835760405162461bcd60e51b8152600401610942906153c6565b600060ff8216156142a8578160ff166002146142a05760026142a3565b60015b6142ab565b60005b90508060ff168360ff16146142d25760405162461bcd60e51b81526004016109429061574f565b6000848152609f602052604081206002015460a691906142f69060ff166001615bc9565b60ff1681526020808201929092526040908101600090812054878252609f9093522060020154610100900463ffffffff908116911614611c7a5760405162461bcd60e51b815260040161094290615514565b61435383838361479f565b6001600160a01b038316156143ce5760a7546040516307fe7c0d60e21b8152620100009091046001600160a01b031690631ff9f0349061439b90869060001990600401615155565b600060405180830381600087803b1580156143b557600080fd5b505af11580156143c9573d6000803e3d6000fd5b505050505b6001600160a01b03821661442d576000818152609f60205260408120805461ffff191681556001810182905560028101805464ffffffffff191690556003810182905560048101829055906144266005830182614a86565b5050610b10565b60a7546040516307fe7c0d60e21b8152620100009091046001600160a01b031690631ff9f03490614465908590600190600401615155565b600060405180830381600087803b15801561447f57600080fd5b505af1158015614493573d6000803e3d6000fd5b50505050505050565b600054610100900460ff16806144b5575060005460ff16155b6144d15760405162461bcd60e51b81526004016109429061563a565b600054610100900460ff161580156144fc576000805460ff1961ff0019909116610100171660011790555b6145046147db565b61450c6147db565b614516838361484f565b8015610b10576000805461ff0019169055505050565b6000808261453e6305f5e10042615cdc565b6145489190615b92565b90505b6145548161238d565b156109165761456283615cc1565b9250826145736305f5e10042615cdc565b61457e90600a615c02565b6145889190615b92565b905061454b565b6001600160a01b0382166145b55760405162461bcd60e51b8152600401610942906156ce565b6145be8161238d565b156145db5760405162461bcd60e51b81526004016109429061528d565b6145e760008383614348565b6001600160a01b0382166000908152606d60205260408120805460019290614610908490615b92565b90915550506000818152606c602052604080822080546001600160a01b0319166001600160a01b03861690811790915590518392907fddf252ad1be2c89b69c2b068fc378daa952ba7f163c4a11628f55a4df523b3ef908290a45050565b6000614682846001600160a01b03166148ed565b1561479757836001600160a01b031663150b7a0261469e6123aa565b8786866040518563ffffffff1660e01b81526004016146c09493929190615119565b602060405180830381600087803b1580156146da57600080fd5b505af192505050801561470a575060408051601f3d908101601f1916820190925261470791810190614de7565b60015b614764573d808015614738576040519150601f19603f3d011682016040523d82523d6000602084013e61473d565b606091505b50805161475c5760405162461bcd60e51b815260040161094290615230565b805181602001fd5b6001600160e01b0319167f150b7a020000000000000000000000000000000000000000000000000000000014905061160e565b50600161160e565b609e5460ff16610b10576147b161241c565b806147bf57506147bf6148f3565b610b105760405162461bcd60e51b8152600401610942906158d4565b600054610100900460ff16806147f4575060005460ff16155b6148105760405162461bcd60e51b81526004016109429061563a565b600054610100900460ff1615801561483b576000805460ff1961ff0019909116610100171660011790555b8015611e60576000805461ff001916905550565b600054610100900460ff1680614868575060005460ff16155b6148845760405162461bcd60e51b81526004016109429061563a565b600054610100900460ff161580156148af576000805460ff1961ff0019909116610100171660011790555b82516148c290606a9060208601906149df565b5081516148d690606b9060208501906149df565b508015610b10576000805461ff0019169055505050565b3b151590565b60006035600061242a6123aa565b82805461490d90615c64565b90600052602060002090601f01602090048101928261492f5760008555614975565b82601f106149485782800160ff19823516178555614975565b82800160010185558215614975579182015b8281111561497557823582559160200191906001019061495a565b50614981929150614a9b565b5090565b8260078101928215614975579160200282018281111561497557823582559160200191906001019061495a565b8260038101928215614975579160200282018281111561497557823582559160200191906001019061495a565b8280546149eb90615c64565b90600052602060002090601f016020900481019282614a0d5760008555614975565b82601f10614a2657805160ff1916838001178555614975565b82800160010185558215614975579182015b82811115614975578251825591602001919060010190614a38565b8260078101928215614975579160200282015b82811115614975578251829060ff16905591602001919060010190614a66565b50600081556001016000815560010160009055565b5b808211156149815760008155600101614a9c565b80356001600160a01b038116811461091957600080fd5b8060e081018310156121fd57600080fd5b60008083601f840112614ae9578182fd5b50813567ffffffffffffffff811115614b00578182fd5b602083019150836020828501011115614b1857600080fd5b9250929050565b803561ffff8116811461091957600080fd5b803563ffffffff8116811461091957600080fd5b803560ff8116811461091957600080fd5b600060208284031215614b67578081fd5b611eee82614ab0565b60008060408385031215614b82578081fd5b614b8b83614ab0565b9150614b9960208401614ab0565b90509250929050565b600080600060608486031215614bb6578081fd5b614bbf84614ab0565b9250614bcd60208501614ab0565b9150604084013590509250925092565b60008060008060808587031215614bf2578081fd5b614bfb85614ab0565b93506020614c0a818701614ab0565b935060408601359250606086013567ffffffffffffffff80821115614c2d578384fd5b818801915088601f830112614c40578384fd5b813581811115614c5257614c52615d3e565b604051601f8201601f1916810185018381118282101715614c7557614c75615d3e565b60405281815283820185018b1015614c8b578586fd5b81858501868301379081019093019390935250939692955090935050565b60008060408385031215614cbb578182fd5b614cc483614ab0565b915060208301358015158114614cd8578182fd5b809150509250929050565b600080600080600060608688031215614cfa578081fd5b614d0386614ab0565b9450602086013567ffffffffffffffff80821115614d1f578283fd5b614d2b89838a01614ad8565b90965094506040880135915080821115614d43578283fd5b50614d5088828901614ad8565b969995985093965092949392505050565b60008060008060808587031215614d76578384fd5b614d7f85614ab0565b9350614d8d60208601614b1f565b93969395505050506040820135916060013590565b60008060408385031215614db4578182fd5b614dbd83614ab0565b946020939093013593505050565b600060208284031215614ddc578081fd5b8135611eee81615d54565b600060208284031215614df8578081fd5b8151611eee81615d54565b600080600080600080600080610160898b031215614e1f578586fd5b883567ffffffffffffffff80821115614e36578788fd5b614e428c838d01614ad8565b909a50985060208b0135915080821115614e5a578788fd5b614e668c838d01614ad8565b909850965060408b0135915080821115614e7e578485fd5b50614e8b8b828c01614ad8565b9095509350614e9f90508a60608b01614ac7565b9150614eae6101408a01614ab0565b90509295985092959890939650565b600060208284031215614ece578081fd5b611eee82614b1f565b60008060408385031215614ee9578182fd5b614b8b83614b1f565b6000806101008385031215614f05578182fd5b614f0e83614b1f565b9150614b998460208501614ac7565b600080600060408486031215614f31578081fd5b614f3a84614b1f565b9250602084013567ffffffffffffffff811115614f55578182fd5b614f6186828701614ad8565b9497909650939450505050565b600060208284031215614f7f578081fd5b5035919050565b60008060408385031215614f98578182fd5b50508035926020909101359150565b60008060408385031215614fb9578182fd5b82359150614b9960208401614b31565b60008060408385031215614fdb578182fd5b82359150614b9960208401614b45565b60008060008060c08587031215615000578182fd5b8435935061501060208601614b45565b925061501e60408601614b31565b91508560c08601111561502f578081fd5b509194909350909160600190565b60006020828403121561504e578081fd5b611eee82614b45565b60008060408385031215615069578182fd5b61507283614b45565b9150614b9960208401614b31565b60008151808452615098816020860160208601615c38565b601f01601f19169290920160200192915050565b60008284528282602086013780602084860101526020601f19601f85011685010190509392505050565b600083516150e8818460208801615c38565b8351908301906150fc818360208801615c38565b01949350505050565b6001600160a01b0391909116815260200190565b60006001600160a01b0380871683528086166020840152508360408301526080606083015261514b6080830184615080565b9695505050505050565b6001600160a01b03929092168252602082015260400190565b901515815260200190565b600060208252611eee6020830184615080565b600060e0825261519f60e083018a615080565b82810360208401526151b1818a615080565b905082810360408401526151c58189615080565b91505061ffff8616606083015284608083015260ff841660a083015263ffffffff831660c083015298975050505050505050565b6020808252600f908201527f496e76616c696420616464726573730000000000000000000000000000000000604082015260600190565b60208082526032908201527f4552433732313a207472616e7366657220746f206e6f6e20455243373231526560408201527f63656976657220696d706c656d656e7465720000000000000000000000000000606082015260800190565b6020808252601c908201527f4552433732313a20746f6b656e20616c7265616479206d696e74656400000000604082015260600190565b6020808252601b908201527f4e4654417574683a204f6e6c792067616d6520636f6e74726163740000000000604082015260600190565b60208082526012908201527f4e46543a20496e76616c696420636c6173730000000000000000000000000000604082015260600190565b60208082526024908201527f4552433732313a207472616e7366657220746f20746865207a65726f2061646460408201527f7265737300000000000000000000000000000000000000000000000000000000606082015260800190565b60208082526019908201527f4552433732313a20617070726f766520746f2063616c6c657200000000000000604082015260600190565b6020808252600d908201527f4c6576656c20696e76616c696400000000000000000000000000000000000000604082015260600190565b6020808252600b908201527f4e616d6520657869737473000000000000000000000000000000000000000000604082015260600190565b6020808252602c908201527f4552433732313a206f70657261746f7220717565727920666f72206e6f6e657860408201526b34b9ba32b73a103a37b5b2b760a11b606082015260800190565b60208082526018908201527f4e4654417574683a204f6e6c79206d696e742061646d696e0000000000000000604082015260600190565b60208082526038908201527f4552433732313a20617070726f76652063616c6c6572206973206e6f74206f7760408201527f6e6572206e6f7220617070726f76656420666f7220616c6c0000000000000000606082015260800190565b60208082526012908201527f457870657269656e636520696e76616c69640000000000000000000000000000604082015260600190565b6020808252602a908201527f4552433732313a2062616c616e636520717565727920666f7220746865207a6560408201527f726f206164647265737300000000000000000000000000000000000000000000606082015260800190565b60208082526029908201527f4552433732313a206f776e657220717565727920666f72206e6f6e657869737460408201527f656e7420746f6b656e0000000000000000000000000000000000000000000000606082015260800190565b6020808252818101527f4e4654417574683a204f6e6c7920757067726164696e6720436f6e7472616374604082015260600190565b6020808252602e908201527f496e697469616c697a61626c653a20636f6e747261637420697320616c72656160408201527f647920696e697469616c697a6564000000000000000000000000000000000000606082015260800190565b6020808252600d908201527f6f6e6c794d61696e41646d696e00000000000000000000000000000000000000604082015260600190565b6020808252818101527f4552433732313a206d696e7420746f20746865207a65726f2061646472657373604082015260600190565b6020808252602c908201527f4552433732313a20617070726f76656420717565727920666f72206e6f6e657860408201526b34b9ba32b73a103a37b5b2b760a11b606082015260800190565b60208082526012908201527f536b696c6c207479706520696e76616c69640000000000000000000000000000604082015260600190565b60208082526029908201527f4552433732313a207472616e73666572206f6620746f6b656e2074686174206960408201527f73206e6f74206f776e0000000000000000000000000000000000000000000000606082015260800190565b6020808252602f908201527f4552433732314d657461646174613a2055524920717565727920666f72206e6f60408201527f6e6578697374656e7420746f6b656e0000000000000000000000000000000000606082015260800190565b60208082526018908201527f4e4654417574683a204164647265737320696e76616c69640000000000000000604082015260600190565b60208082526021908201527f4552433732313a20617070726f76616c20746f2063757272656e74206f776e6560408201527f7200000000000000000000000000000000000000000000000000000000000000606082015260800190565b6020808252601a908201527f4e46543a206e6f207472616e7366657261626c65207269676874000000000000604082015260600190565b60208082526031908201527f4552433732313a207472616e736665722063616c6c6572206973206e6f74206f60408201527f776e6572206e6f7220617070726f766564000000000000000000000000000000606082015260800190565b60208082526030908201527f4552433732314275726e61626c653a2063616c6c6572206973206e6f74206f7760408201527f6e6572206e6f7220617070726f76656400000000000000000000000000000000606082015260800190565b61ffff91909116815260200190565b61ffff83168152610100810160e0836020840137600081529392505050565b600061ffff851682526040602083015261160b6040830184866150ac565b600061012080830161ffff88168452816020850152615a318187896150ac565b925060e0856040860137600090525095945050505050565b61ffff969096168652602086019490945260ff92909216604085015263ffffffff166060840152608083015260a082015260c00190565b90815260200190565b918252602082015260400190565b9283526020830191909152604082015260600190565b968752602087019590955260408601939093526060850191909152608084015260a083015260c082015260e00190565b91825263ffffffff16602082015260400190565b91825260ff16602082015260400190565b92835260ff919091166020830152604082015260600190565b84815260ff8416602082015263ffffffff8316604082015260c08101606083818401376000815295945050505050565b63ffffffff91909116815260200190565b60ff92909216825263ffffffff16602082015260400190565b600061ffff8083168185168083038211156150fc576150fc615d12565b60008219821115615ba557615ba5615d12565b500190565b600063ffffffff8083168185168083038211156150fc576150fc615d12565b600060ff821660ff84168060ff03821115615be657615be6615d12565b019392505050565b600082615bfd57615bfd615d28565b500490565b6000816000190483118215151615615c1c57615c1c615d12565b500290565b600082821015615c3357615c33615d12565b500390565b60005b83811015615c53578181015183820152602001615c3b565b83811115611c7a5750506000910152565b600281046001821680615c7857607f821691505b60208210811415615c9957634e487b7160e01b600052602260045260246000fd5b50919050565b600061ffff80831681811415615cb757615cb7615d12565b6001019392505050565b6000600019821415615cd557615cd5615d12565b5060010190565b600082615ceb57615ceb615d28565b500690565b600060ff831680615d0357615d03615d28565b8060ff84160691505092915050565b634e487b7160e01b600052601160045260246000fd5b634e487b7160e01b600052601260045260246000fd5b634e487b7160e01b600052604160045260246000fd5b6001600160e01b031981168114611e6057600080fdfea26469706673582212203ccb4ce7d5970641507d240336e906470fc7d0b7f89d7f111dd93bc99b8367c564736f6c63430008000033",
  "immutableReferences": {},
  "source": "// SPDX-License-Identifier: MIT\n\npragma solidity 0.8.0;\n\nimport \"../libs/fota/ArrayUtil.sol\";\nimport \"./BaseNFT.sol\";\nimport \"../libs/fota/StringUtil.sol\";\nimport \"../interfaces/IEnergyManager.sol\";\n\ncontract HeroNFT is BaseNFT {\n  using StringUtil for string;\n\n  struct Hero {\n    uint16 id;\n    uint createdAt;\n    uint8 level;\n    uint32 experience;\n    uint ownPrice;\n    uint failedUpgradingAmount;\n    uint[3] skills;\n  }\n\n  mapping (uint => Hero) public heroes;\n  mapping (bytes24 => bool) private heroNames;\n  mapping (uint16 => string) public mappingHeroRace;\n  mapping (uint16 => string) public mappingHeroClass;\n  mapping (uint16 => string) public mappingHeroName;\n  mapping (uint16 => uint[7]) private strengthIndexReferences;\n  mapping (uint16 => uint[7]) private strengthBonuses;\n  mapping (uint8 => uint32) public experienceCheckpoint;\n\n  uint16 public countId;\n  IEnergyManager public energyManager;\n\n  event NewClassAdded(\n    uint16 classId,\n    string klass,\n    uint[7] strengths\n  );\n  event LevelUp(\n    uint tokenId,\n    uint level\n  );\n  event ExperienceUp(\n    uint tokenId,\n    uint32 experience\n  );\n  event ExperienceCheckpointUpdated(\n    uint16 level,\n    uint32 experience\n  );\n  event BaseStrengthUpdated(\n    uint16 classId,\n    uint[7] baseStrength\n  );\n  event StrengthBonusUpdated(\n    uint16 classId,\n    uint[7] strengthBonus\n  );\n  event SkillUp(\n    uint tokenId,\n    uint index,\n    uint level\n  );\n  event HeroRaceUpdated(\n    uint16 classId,\n    string race\n  );\n  event HeroClassUpdated(\n    uint16 classId,\n    string klass\n  );\n  event HeroNameUpdated(\n    uint16 classId,\n    string name\n  );\n  event HeroInfoUpdated(\n    uint tokenId,\n    uint8 level,\n    uint32 experience,\n    uint[3] skills\n  );\n\n  function initialize(\n    address _mainAdmin,\n    string calldata _name,\n    string calldata _symbol\n  ) override public initializer {\n    BaseNFT.initialize(_mainAdmin, _name, _symbol);\n    _initData();\n  }\n\n  function mintHero(address _owner, uint16 _classId, uint _price, uint _index) onlyMintAdmin public returns (uint) {\n    return _mint(_owner, _classId, _price, _index);\n  }\n\n  function mintHeroes(address _owner, uint16 _classId, uint _price, uint _quantity) onlyMintAdmin external {\n    for(uint i = 0; i < _quantity; i++) {\n      _mint(_owner, _classId, _price, i);\n    }\n  }\n\n  function getHero(uint _tokenId) external view returns (string memory, string memory, string memory, uint16, uint, uint8, uint32) {\n    return (\n      mappingHeroRace[heroes[_tokenId].id],\n      mappingHeroClass[heroes[_tokenId].id],\n      mappingHeroName[heroes[_tokenId].id],\n      heroes[_tokenId].id,\n      heroes[_tokenId].createdAt,\n      heroes[_tokenId].level,\n      heroes[_tokenId].experience\n    );\n  }\n\n  function getHeroSkills(uint _tokenId) external view returns (uint, uint, uint) {\n    return (\n      heroes[_tokenId].skills[0],\n      heroes[_tokenId].skills[1],\n      heroes[_tokenId].skills[2]\n    );\n  }\n\n  function getHeroPrices(uint _tokenId) external view returns (uint, uint) {\n    return (\n      heroes[_tokenId].ownPrice,\n      heroes[_tokenId].failedUpgradingAmount\n    );\n  }\n\n  function getClassId(uint _tokenId) external view returns (uint16) {\n    return heroes[_tokenId].id;\n  }\n\n  function getCreator(uint _tokenId) override external view returns (address) {\n    return creators[heroes[_tokenId].id];\n  }\n\n  function getStrengthIndexReferences(uint16 _classId) external view returns (uint, uint, uint, uint, uint, uint, uint) {\n    return (\n      strengthIndexReferences[_classId][0],\n      strengthIndexReferences[_classId][1],\n      strengthIndexReferences[_classId][2],\n      strengthIndexReferences[_classId][3],\n      strengthIndexReferences[_classId][4],\n      strengthIndexReferences[_classId][5],\n      strengthIndexReferences[_classId][6]\n    );\n  }\n\n  function getStrengthBonuses(uint16 _classId) external view returns (uint, uint, uint, uint, uint, uint, uint) {\n    return (\n      strengthBonuses[_classId][0],\n      strengthBonuses[_classId][1],\n      strengthBonuses[_classId][2],\n      strengthBonuses[_classId][3],\n      strengthBonuses[_classId][4],\n      strengthBonuses[_classId][5],\n      strengthBonuses[_classId][6]\n    );\n  }\n\n  function _beforeTokenTransfer(\n    address _from,\n    address _to,\n    uint256 _tokenId\n  ) internal override {\n    super._beforeTokenTransfer(_from, _to, _tokenId);\n    if (_from != address(0)) {\n      energyManager.updatePoint(_from, -1);\n    }\n    if (_to == address(0)) {\n      delete heroes[_tokenId];\n    } else {\n      energyManager.updatePoint(_to, 1);\n    }\n  }\n\n  // PRIVATE FUNCTIONS\n\n  function _mint(address _owner, uint16 _classId, uint _price, uint _index) private returns (uint) {\n    require(_classId >= 1 && _classId <= countId, 'NFT: Invalid class');\n    uint newId = _genNewId(_index);\n    _mint(_owner, newId);\n\n    heroes[newId].id = _classId;\n    heroes[newId].createdAt = block.timestamp;\n    heroes[newId].ownPrice = _price;\n    return newId;\n  }\n\n  function _levelUp(uint _tokenId) private {\n    heroes[_tokenId].level += 1;\n    emit LevelUp(_tokenId, heroes[_tokenId].level);\n  }\n\n  function _initData() private {\n    countId = 18;\n\n    mappingHeroRace[1] = 'Human';\n    mappingHeroRace[2] = 'Human';\n    mappingHeroRace[3] = 'Human';\n    mappingHeroRace[4] = 'Human';\n    mappingHeroRace[5] = 'Demon';\n    mappingHeroRace[6] = 'Demon';\n    mappingHeroRace[7] = 'Demon';\n    mappingHeroRace[8] = 'Beast';\n    mappingHeroRace[9] = 'Beast';\n    mappingHeroRace[10] = 'Beast';\n    mappingHeroRace[11] = 'Beast';\n    mappingHeroRace[12] = 'Beast';\n    mappingHeroRace[13] = 'Beast';\n    mappingHeroRace[14] = 'Keen';\n    mappingHeroRace[15] = 'Orge';\n    mappingHeroRace[16] = 'Elf';\n    mappingHeroRace[17] = 'Dragon';\n    mappingHeroRace[18] = 'Omni';\n\n    mappingHeroClass[1] = 'Hunter';\n    mappingHeroClass[2] = 'Priest';\n    mappingHeroClass[3] = 'Warlock';\n    mappingHeroClass[4] = 'Assassin';\n    mappingHeroClass[5] = 'Assassin';\n    mappingHeroClass[6] = 'Assassin';\n    mappingHeroClass[7] = 'Warlock';\n    mappingHeroClass[8] = 'Warrior';\n    mappingHeroClass[9] = 'Chemist';\n    mappingHeroClass[10] = 'Warrior';\n    mappingHeroClass[11] = 'Warrior';\n    mappingHeroClass[12] = 'Hunter';\n    mappingHeroClass[13] = 'Warrior';\n    mappingHeroClass[14] = 'Mech';\n    mappingHeroClass[15] = 'Warrior';\n    mappingHeroClass[16] = 'Mage';\n    mappingHeroClass[17] = 'Mage';\n    mappingHeroClass[18] = 'Mage';\n\n    mappingHeroName[1] = 'Eira';\n    mappingHeroName[2] = 'Aedus';\n    mappingHeroName[3] = 'Malhela';\n    mappingHeroName[4] = 'Keisha';\n    mappingHeroName[5] = 'Cyril';\n    mappingHeroName[6] = 'Ciara';\n    mappingHeroName[7] = 'Grimm';\n    mappingHeroName[8] = 'Orson';\n    mappingHeroName[9] = 'Zel';\n    mappingHeroName[10] = 'Aprum';\n    mappingHeroName[11] = 'Octonus';\n    mappingHeroName[12] = 'Amaltheus';\n    mappingHeroName[13] = 'Tigris';\n    mappingHeroName[14] = 'Farrer';\n    mappingHeroName[15] = 'Kekor';\n    mappingHeroName[16] = 'Alva';\n    mappingHeroName[17] = 'Kyla';\n    mappingHeroName[18] = 'Gideon';\n    for (uint16 i = 1; i <= 18; i++) {\n      heroNames[mappingHeroName[i].toBytes24()] = true;\n    }\n\n    strengthIndexReferences[1] = [100, 100, 100, 100, 100, 100, 100];\n\n    strengthBonuses[1] = [100, 100, 100, 100, 100, 100, 100];\n\n    experienceCheckpoint[1] = 10;\n    experienceCheckpoint[2] = 30;\n    experienceCheckpoint[3] = 60;\n    experienceCheckpoint[4] = 100;\n    experienceCheckpoint[5] = 150;\n    experienceCheckpoint[6] = 210;\n    experienceCheckpoint[7] = 280;\n  }\n\n  // ADMIN FUNCTIONS\n\n  function updateBaseStrengths(uint16 _classId, uint[7] calldata _strengths) external onlyMainAdmin {\n    strengthIndexReferences[_classId] = _strengths;\n    emit BaseStrengthUpdated(_classId, _strengths);\n  }\n\n  function updateStrengthBonus(uint16 _classId, uint[7] calldata _strengthBonuses) external onlyMainAdmin {\n    strengthBonuses[_classId] = _strengthBonuses;\n    emit StrengthBonusUpdated(_classId, _strengthBonuses);\n  }\n\n  function updateExperienceCheckpoint(uint8 _level, uint32 _experience) external onlyMainAdmin {\n    experienceCheckpoint[_level] = _experience;\n    emit ExperienceCheckpointUpdated(_level, _experience);\n  }\n\n  function updateOwnPrice(uint _tokenId, uint _ownPrice) override onlyMintAdmin external {\n    Hero storage hero = heroes[_tokenId];\n    hero.ownPrice = _ownPrice;\n    emit OwnPriceUpdated(_tokenId, _ownPrice);\n  }\n\n  function updateFailedUpgradingAmount(uint _tokenId, uint _amount) override onlyMintAdmin external {\n    heroes[_tokenId].failedUpgradingAmount = _amount;\n    emit FailedUpgradingAmountUpdated(_tokenId, _amount);\n  }\n\n  function experienceUp(uint _tokenId, uint32 _experience) external onlyGameContract {\n    if (heroes[_tokenId].experience + _experience >= experienceCheckpoint[heroes[_tokenId].level + 1]) {\n      heroes[_tokenId].experience = experienceCheckpoint[heroes[_tokenId].level + 1];\n      if (heroes[_tokenId].level % 5 == 1 || heroes[_tokenId].level % 5 == 3) {\n        _levelUp(_tokenId);\n      }\n    } else {\n      heroes[_tokenId].experience += _experience;\n    }\n    emit ExperienceUp(_tokenId, heroes[_tokenId].experience);\n  }\n\n  function skillUp(uint _tokenId, uint8 _index) external onlyUpgradingContract {\n    _validateSkillIndex(_tokenId, _index);\n    heroes[_tokenId].skills[_index] += 1;\n    _levelUp(_tokenId);\n    if (heroes[_tokenId].failedUpgradingAmount > 0) {\n      heroes[_tokenId].ownPrice += heroes[_tokenId].failedUpgradingAmount;\n      heroes[_tokenId].failedUpgradingAmount = 0;\n    }\n    emit SkillUp(_tokenId, _index, heroes[_tokenId].skills[_index]);\n  }\n\n  function addHeroClass(string calldata _race, string calldata _class, string calldata _name, uint[7] calldata _strengths, address _creator) external onlyMainAdmin {\n    require(!heroNames[_name.toBytes24()], \"Name exists\");\n    countId += 1;\n\n    mappingHeroRace[countId] = _race;\n    mappingHeroClass[countId] = _class;\n    mappingHeroName[countId] = _name;\n    strengthIndexReferences[countId] = _strengths;\n    creators[countId] = _creator;\n    emit NewClassAdded(countId, _class, _strengths);\n  }\n\n  function updateHeroRace(uint16 _classId, string calldata _race) external onlyMainAdmin {\n    mappingHeroRace[_classId] = _race;\n    emit HeroRaceUpdated(_classId, _race);\n  }\n\n  function updateHeroClass(uint16 _classId, string calldata _class) external onlyMainAdmin {\n    mappingHeroClass[_classId] = _class;\n    emit HeroClassUpdated(_classId, _class);\n  }\n\n  function updateHeroName(uint16 _classId, string calldata _name) external onlyMainAdmin {\n    require(!heroNames[_name.toBytes24()], \"Name exists\");\n    heroNames[mappingHeroName[_classId].toBytes24()] = false;\n    heroNames[_name.toBytes24()] = true;\n    mappingHeroName[_classId] = _name;\n    emit HeroNameUpdated(_classId, _name);\n  }\n\n  function updateHeroInfo(uint _tokenId, uint8 _level, uint32 _experience, uint[3] calldata _skills) external onlyMainAdmin {\n    heroes[_tokenId].level = _level;\n    heroes[_tokenId].experience = _experience;\n    heroes[_tokenId].skills = _skills;\n    emit HeroInfoUpdated(_tokenId, _level, _experience, _skills);\n  }\n\n  function updateEnergyManager(address _energyManager) external onlyMainAdmin {\n    require(_energyManager != address(0), \"Invalid address\");\n    energyManager = IEnergyManager(_energyManager);\n  }\n\n  // PRIVATE FUNCTIONS\n\n  function _validateSkillIndex(uint _tokenId, uint8 _index) private view {\n    uint8 levelMod5 = uint8(heroes[_tokenId].level % 5);\n    require(levelMod5 != 1 && levelMod5 != 3, \"Level invalid\");\n    uint8 skillIndex = levelMod5 == 0 ? 0 : levelMod5 == 2 ? 1 : 2;\n    require(_index == skillIndex, \"Skill type invalid\");\n    require(heroes[_tokenId].experience == experienceCheckpoint[heroes[_tokenId].level + 1], \"Experience invalid\");\n  }\n}\n",
  "sourcePath": "/Users/dung/Documents/sources/fota-dapp/contracts/NFTs/HeroNFT.sol",
  "compiler": {
    "name": "solc",
    "version": "0.8.0+commit.c7dfd78e.Emscripten.clang"
  },
  "schemaVersion": "3.3.4",
  "updatedAt": "2022-03-03T04:57:24.262Z",
  "networkType": "ethereum",
  "devdoc": {
    "kind": "dev",
    "methods": {
      "approve(address,uint256)": {
        "details": "See {IERC721-approve}."
      },
      "balanceOf(address)": {
        "details": "See {IERC721-balanceOf}."
      },
      "getApproved(uint256)": {
        "details": "See {IERC721-getApproved}."
      },
      "isApprovedForAll(address,address)": {
        "details": "See {IERC721-isApprovedForAll}."
      },
      "name()": {
        "details": "See {IERC721Metadata-name}."
      },
      "ownerOf(uint256)": {
        "details": "See {IERC721-ownerOf}."
      },
      "safeTransferFrom(address,address,uint256)": {
        "details": "See {IERC721-safeTransferFrom}."
      },
      "safeTransferFrom(address,address,uint256,bytes)": {
        "details": "See {IERC721-safeTransferFrom}."
      },
      "setApprovalForAll(address,bool)": {
        "details": "See {IERC721-setApprovalForAll}."
      },
      "supportsInterface(bytes4)": {
        "details": "See {IERC165-supportsInterface}."
      },
      "symbol()": {
        "details": "See {IERC721Metadata-symbol}."
      },
      "tokenURI(uint256)": {
        "details": "See {IERC721Metadata-tokenURI}."
      },
      "transferFrom(address,address,uint256)": {
        "details": "See {IERC721-transferFrom}."
      }
    },
    "version": 1
  },
  "userdoc": {
    "kind": "user",
    "methods": {},
    "version": 1
  }
}