{
  "contractName": "IDO",
  "abi": [
    {
      "anonymous": false,
      "inputs": [
        {
          "indexed": true,
          "internalType": "address",
          "name": "buyer",
          "type": "address"
        },
        {
          "indexed": false,
          "internalType": "uint256",
          "name": "amount",
          "type": "uint256"
        },
        {
          "indexed": false,
          "internalType": "uint256",
          "name": "price",
          "type": "uint256"
        },
        {
          "indexed": false,
          "internalType": "uint256",
          "name": "timestamp",
          "type": "uint256"
        }
      ],
      "name": "Bought",
      "type": "event"
    },
    {
      "anonymous": false,
      "inputs": [
        {
          "indexed": true,
          "internalType": "address",
          "name": "buyer",
          "type": "address"
        },
        {
          "indexed": false,
          "internalType": "uint256",
          "name": "amount",
          "type": "uint256"
        },
        {
          "indexed": false,
          "internalType": "uint256",
          "name": "timestamp",
          "type": "uint256"
        }
      ],
      "name": "Claimed",
      "type": "event"
    },
    {
      "anonymous": false,
      "inputs": [
        {
          "indexed": true,
          "internalType": "address",
          "name": "_newOwner",
          "type": "address"
        }
      ],
      "name": "ContractAdminUpdated",
      "type": "event"
    },
    {
      "anonymous": false,
      "inputs": [
        {
          "indexed": true,
          "internalType": "address",
          "name": "_previousOwner",
          "type": "address"
        },
        {
          "indexed": true,
          "internalType": "address",
          "name": "_newOwner",
          "type": "address"
        }
      ],
      "name": "OwnershipTransferred",
      "type": "event"
    },
    {
      "anonymous": false,
      "inputs": [
        {
          "indexed": false,
          "internalType": "uint256",
          "name": "timestamp",
          "type": "uint256"
        }
      ],
      "name": "VestingStated",
      "type": "event"
    },
    {
      "inputs": [],
      "name": "_isContractAdmin",
      "outputs": [
        {
          "internalType": "bool",
          "name": "",
          "type": "bool"
        }
      ],
      "stateMutability": "view",
      "type": "function"
    },
    {
      "inputs": [],
      "name": "_isMainAdmin",
      "outputs": [
        {
          "internalType": "bool",
          "name": "",
          "type": "bool"
        }
      ],
      "stateMutability": "view",
      "type": "function"
    },
    {
      "inputs": [],
      "name": "adminCanUpdateAllocation",
      "outputs": [
        {
          "internalType": "bool",
          "name": "",
          "type": "bool"
        }
      ],
      "stateMutability": "view",
      "type": "function"
    },
    {
      "inputs": [],
      "name": "blockInOneMonth",
      "outputs": [
        {
          "internalType": "uint256",
          "name": "",
          "type": "uint256"
        }
      ],
      "stateMutability": "view",
      "type": "function"
    },
    {
      "inputs": [],
      "name": "busdToken",
      "outputs": [
        {
          "internalType": "contract IBEP20",
          "name": "",
          "type": "address"
        }
      ],
      "stateMutability": "view",
      "type": "function"
    },
    {
      "inputs": [],
      "name": "contractAdmin",
      "outputs": [
        {
          "internalType": "address",
          "name": "",
          "type": "address"
        }
      ],
      "stateMutability": "view",
      "type": "function"
    },
    {
      "inputs": [],
      "name": "eachSlotAllocated",
      "outputs": [
        {
          "internalType": "uint256",
          "name": "",
          "type": "uint256"
        }
      ],
      "stateMutability": "view",
      "type": "function"
    },
    {
      "inputs": [],
      "name": "fotaToken",
      "outputs": [
        {
          "internalType": "contract IFOTAToken",
          "name": "",
          "type": "address"
        }
      ],
      "stateMutability": "view",
      "type": "function"
    },
    {
      "inputs": [],
      "name": "fundAdmin",
      "outputs": [
        {
          "internalType": "address",
          "name": "",
          "type": "address"
        }
      ],
      "stateMutability": "view",
      "type": "function"
    },
    {
      "inputs": [],
      "name": "mainAdmin",
      "outputs": [
        {
          "internalType": "address",
          "name": "",
          "type": "address"
        }
      ],
      "stateMutability": "view",
      "type": "function"
    },
    {
      "inputs": [],
      "name": "price",
      "outputs": [
        {
          "internalType": "uint256",
          "name": "",
          "type": "uint256"
        }
      ],
      "stateMutability": "view",
      "type": "function"
    },
    {
      "inputs": [],
      "name": "remainingToken",
      "outputs": [
        {
          "internalType": "uint256",
          "name": "",
          "type": "uint256"
        }
      ],
      "stateMutability": "view",
      "type": "function"
    },
    {
      "inputs": [],
      "name": "rootHash",
      "outputs": [
        {
          "internalType": "bytes32",
          "name": "",
          "type": "bytes32"
        }
      ],
      "stateMutability": "view",
      "type": "function"
    },
    {
      "inputs": [],
      "name": "startVestingBlock",
      "outputs": [
        {
          "internalType": "uint256",
          "name": "",
          "type": "uint256"
        }
      ],
      "stateMutability": "view",
      "type": "function"
    },
    {
      "inputs": [],
      "name": "tgeRatio",
      "outputs": [
        {
          "internalType": "uint256",
          "name": "",
          "type": "uint256"
        }
      ],
      "stateMutability": "view",
      "type": "function"
    },
    {
      "inputs": [
        {
          "internalType": "address",
          "name": "_newOwner",
          "type": "address"
        }
      ],
      "name": "transferOwnership",
      "outputs": [],
      "stateMutability": "nonpayable",
      "type": "function"
    },
    {
      "inputs": [
        {
          "internalType": "address",
          "name": "_newAdmin",
          "type": "address"
        }
      ],
      "name": "updateContractAdmin",
      "outputs": [],
      "stateMutability": "nonpayable",
      "type": "function"
    },
    {
      "inputs": [],
      "name": "usdtToken",
      "outputs": [
        {
          "internalType": "contract IBEP20",
          "name": "",
          "type": "address"
        }
      ],
      "stateMutability": "view",
      "type": "function"
    },
    {
      "inputs": [],
      "name": "vestingTime",
      "outputs": [
        {
          "internalType": "uint256",
          "name": "",
          "type": "uint256"
        }
      ],
      "stateMutability": "view",
      "type": "function"
    },
    {
      "inputs": [
        {
          "internalType": "address",
          "name": "_mainAdmin",
          "type": "address"
        },
        {
          "internalType": "address",
          "name": "_fundAdmin",
          "type": "address"
        },
        {
          "internalType": "address",
          "name": "_fotaToken",
          "type": "address"
        }
      ],
      "name": "initialize",
      "outputs": [],
      "stateMutability": "nonpayable",
      "type": "function"
    },
    {
      "inputs": [
        {
          "internalType": "address",
          "name": "_mainAdmin",
          "type": "address"
        }
      ],
      "name": "initialize",
      "outputs": [],
      "stateMutability": "nonpayable",
      "type": "function"
    },
    {
      "inputs": [
        {
          "internalType": "bytes32",
          "name": "_rootHash",
          "type": "bytes32"
        }
      ],
      "name": "setRootHash",
      "outputs": [],
      "stateMutability": "nonpayable",
      "type": "function"
    },
    {
      "inputs": [],
      "name": "startVesting",
      "outputs": [],
      "stateMutability": "nonpayable",
      "type": "function"
    },
    {
      "inputs": [
        {
          "internalType": "uint256",
          "name": "_remainingToken",
          "type": "uint256"
        }
      ],
      "name": "updateRemainingToken",
      "outputs": [],
      "stateMutability": "nonpayable",
      "type": "function"
    },
    {
      "inputs": [
        {
          "internalType": "uint256",
          "name": "_month",
          "type": "uint256"
        }
      ],
      "name": "updateVestingTime",
      "outputs": [],
      "stateMutability": "nonpayable",
      "type": "function"
    },
    {
      "inputs": [
        {
          "internalType": "uint256",
          "name": "_ratio",
          "type": "uint256"
        }
      ],
      "name": "updateTGERatio",
      "outputs": [],
      "stateMutability": "nonpayable",
      "type": "function"
    },
    {
      "inputs": [
        {
          "internalType": "address",
          "name": "_address",
          "type": "address"
        }
      ],
      "name": "updateFundAdmin",
      "outputs": [],
      "stateMutability": "nonpayable",
      "type": "function"
    },
    {
      "inputs": [
        {
          "internalType": "enum IDO.USDCurrency",
          "name": "_usdCurrency",
          "type": "uint8"
        },
        {
          "internalType": "bytes32[]",
          "name": "_path",
          "type": "bytes32[]"
        }
      ],
      "name": "buy",
      "outputs": [],
      "stateMutability": "nonpayable",
      "type": "function"
    },
    {
      "inputs": [],
      "name": "claim",
      "outputs": [],
      "stateMutability": "nonpayable",
      "type": "function"
    },
    {
      "inputs": [
        {
          "internalType": "address",
          "name": "_address",
          "type": "address"
        }
      ],
      "name": "getBuyer",
      "outputs": [
        {
          "internalType": "uint256",
          "name": "",
          "type": "uint256"
        },
        {
          "internalType": "uint256",
          "name": "",
          "type": "uint256"
        },
        {
          "internalType": "uint256",
          "name": "",
          "type": "uint256"
        }
      ],
      "stateMutability": "view",
      "type": "function"
    },
    {
      "inputs": [],
      "name": "soldOut",
      "outputs": [
        {
          "internalType": "bool",
          "name": "",
          "type": "bool"
        }
      ],
      "stateMutability": "view",
      "type": "function"
    },
    {
      "inputs": [
        {
          "internalType": "address",
          "name": "_busd",
          "type": "address"
        },
        {
          "internalType": "address",
          "name": "_usdt",
          "type": "address"
        }
      ],
      "name": "setContracts",
      "outputs": [],
      "stateMutability": "nonpayable",
      "type": "function"
    },
    {
      "inputs": [
        {
          "internalType": "address",
          "name": "_user",
          "type": "address"
        },
        {
          "internalType": "bytes32[]",
          "name": "_path",
          "type": "bytes32[]"
        }
      ],
      "name": "verifyCode",
      "outputs": [],
      "stateMutability": "view",
      "type": "function"
    }
  ],
  "bytecode": "0x608060405234801561001057600080fd5b50611a22806100206000396000f3fe608060405234801561001057600080fd5b506004361061020b5760003560e01c8063a98ad46c1161012a578063c4d66de8116100bd578063de0e70141161008c578063f2fde38b11610071578063f2fde38b146103c5578063fb6b04ba146103d8578063fea292e1146103e05761020b565b8063de0e7014146103b5578063deb36e32146103bd5761020b565b8063c4d66de814610374578063c7dab43614610387578063ca1ba0e31461038f578063d8952a49146103a25761020b565b8063b01774af116100f9578063b01774af14610333578063b7d28a6914610346578063b7d6caec14610359578063c0c53b8b146103615761020b565b8063a98ad46c14610308578063ac9d159714610310578063aca986c814610318578063af2d0b6d1461032b5761020b565b80634e71d92d116101a25780638ed76287116101715780638ed76287146102dd5780639c456583146102e5578063a035b1fe146102ed578063a2df9bf5146102f55761020b565b80634e71d92d146102a35780635721e419146102ab57806377955245146102cd578063893da6c9146102d55761020b565b80631d80009a116101de5780631d80009a1461026b5780632d7eae661461027357806335e451421461028657806348d002f21461028e5761020b565b806302e65b8a14610210578063091061df1461022557806311541ce01461023857806316e6099114610256575b600080fd5b61022361021e3660046112d0565b6103e8565b005b6102236102333660046113ee565b610472565b61024061054e565b60405161024d91906114be565b60405180910390f35b61025e610565565b60405161024d91906114c9565b61025e61056b565b6102236102813660046113d6565b610571565b61025e61059a565b6102966105a0565b60405161024d9190611453565b6102236105af565b6102be6102b93660046112d0565b610897565b60405161024d93929190611937565b6102966108bf565b6102406108ce565b61025e6108d8565b6102966108de565b61025e6108ed565b6102236103033660046113d6565b6108f3565b61029661095e565b61024061096d565b6102236103263660046112d0565b610976565b61025e6109e2565b6102236103413660046113d6565b6109e8565b610223610354366004611365565b610a11565b610240610a9f565b61022361036f366004611323565b610ab0565b6102236103823660046112d0565b610bf9565b61025e610cb7565b61022361039d3660046113d6565b610cbd565b6102236103b03660046112f1565b610d08565b610296610d5a565b610223610d69565b6102236103d33660046112d0565b610deb565b610296610e84565b61025e610e99565b6103f061054e565b6104155760405162461bcd60e51b815260040161040c90611759565b60405180910390fd5b6001600160a01b03811661042857600080fd5b600180546001600160a01b0319166001600160a01b0383169081179091556040517fe3f4a4b5b74aa6830627cb87c50cf7d4ed56e9b246729179ba634bbdc873177a90600090a250565b336000908152600e6020526040902061048c818484610e9f565b600b5460075410156104b05760405162461bcd60e51b815260040161040c906118c9565b600b54600760008282546104c491906119a4565b9091555050600d5460ff16156104df57600d805460ff191690555b610505846103e8600c54600b546104f69190611985565b6105009190611965565b610ed1565b438155600b54600c5460405133927fedba86fd2b22962d534e70ad9b0ff8730de46f636146f2bab6a72cbb1ebbcc5392610540924290611937565b60405180910390a250505050565b6000546201000090046001600160a01b0316331490565b60085481565b60035481565b61057961054e565b6105955760405162461bcd60e51b815260040161040c90611759565b600355565b600a5481565b6004546001600160a01b031681565b6000600a54116105d15760405162461bcd60e51b815260040161040c90611790565b336000908152600e6020526040902080546105fe5760405162461bcd60e51b815260040161040c9061159d565b60006009546102586106109190611985565b600a5461061d919061194d565b9050816001015481116106425760405162461bcd60e51b815260040161040c906117c7565b60008083600101546000141561067d57600a546001850155600854600b5460649161066c91611985565b6106769190611965565b9050610709565b824310156106a157600184015461069490436119a4565b43600186015591506106ba565b60018401546106b090846119a4565b6001850184905591505b6009546106c990610258611985565b82606460085460646106db91906119a4565b600b546106e89190611985565b6106f29190611965565b6106fc9190611985565b6107069190611965565b90505b808460020154610719919061194d565b6002850155600480546040516370a0823160e01b815283926001600160a01b03909216916370a082319161074f91309101611453565b60206040518083038186803b15801561076757600080fd5b505afa15801561077b573d6000803e3d6000fd5b505050506040513d601f19601f8201168201806040525081019061079f9190611410565b10156107bd5760405162461bcd60e51b815260040161040c906115d4565b6004805460405163a9059cbb60e01b81526001600160a01b039091169163a9059cbb916107ee9133918691016114a5565b602060405180830381600087803b15801561080857600080fd5b505af115801561081c573d6000803e3d6000fd5b505050506040513d601f19601f8201168201806040525081019061084091906113b6565b61085c5760405162461bcd60e51b815260040161040c90611900565b336001600160a01b03167f987d620f307ff6b94d58743cb7a7509f24071586a77759b77c2d4e29f75a2f9a8242604051610540929190611445565b6001600160a01b03166000908152600e60205260409020805460018201546002909201549092565b6001546001600160a01b031681565b600b546007541090565b60075481565b6002546001600160a01b031681565b600c5481565b6108fb61054e565b6109175760405162461bcd60e51b815260040161040c90611759565b600d5460ff166109395760405162461bcd60e51b815260040161040c90611566565b606481106109595760405162461bcd60e51b815260040161040c906114d2565b600855565b6006546001600160a01b031681565b600d5460ff1681565b61097e61054e565b61099a5760405162461bcd60e51b815260040161040c90611759565b6001600160a01b0381166109c05760405162461bcd60e51b815260040161040c9061185b565b600280546001600160a01b0319166001600160a01b0392909216919091179055565b600b5481565b6109f061054e565b610a0c5760405162461bcd60e51b815260040161040c90611759565b600755565b600083604051602001610a249190611428565b604051602081830303815290604052805190602001209050610a7d8383808060200260200160405190810160405280939291908181526020018383602002808284376000920191909152505060035491508490506111b0565b610a995760405162461bcd60e51b815260040161040c9061168e565b50505050565b6001546001600160a01b0316331490565b600054610100900460ff1680610ac9575060005460ff16155b610ae55760405162461bcd60e51b815260040161040c90611631565b600054610100900460ff16158015610b10576000805460ff1961ff0019909116610100171660011790555b610b1984610bf9565b600280546001600160a01b038086166001600160a01b03199283161790925560048054928516928216929092179091556a08af7623fb67bf1a800000600755600560098190556014600855683fc0474948f3600000600b5560c8600c55600d805460ff191660011790558054821673d8ad05ff852ae4eb264089c377501494ea1d03c91790556006805490911673f5ed09f4b0e89dff27fe48aadf559463505fbac41790557f673a79ecaed9ed602a27ce985b1da73cf54e07a9f9980a7af1cf7e8bdd941eac6003558015610a99576000805461ff001916905550505050565b600054610100900460ff1680610c12575060005460ff16155b610c2e5760405162461bcd60e51b815260040161040c90611631565b600054610100900460ff16158015610c59576000805460ff1961ff0019909116610100171660011790555b6000805475ffffffffffffffffffffffffffffffffffffffff00001916620100006001600160a01b03851690810291909117909155600180546001600160a01b03191690911790558015610cb3576000805461ff00191690555b5050565b60095481565b610cc561054e565b610ce15760405162461bcd60e51b815260040161040c90611759565b600d5460ff16610d035760405162461bcd60e51b815260040161040c90611566565b600955565b610d1061054e565b610d2c5760405162461bcd60e51b815260040161040c90611759565b600580546001600160a01b039384166001600160a01b03199182161790915560068054929093169116179055565b6005546001600160a01b031681565b610d7161054e565b610d8d5760405162461bcd60e51b815260040161040c90611759565b600a5415610dad5760405162461bcd60e51b815260040161040c906116c5565b43600a8190556040517fcf0c05ef6ac1fd901d248ded4b25d0c600775561270421a7ffb012e55e4016ba91610de1916114c9565b60405180910390a1565b610df361054e565b610e0f5760405162461bcd60e51b815260040161040c90611759565b6001600160a01b038116610e2257600080fd5b6000805475ffffffffffffffffffffffffffffffffffffffff00001916620100006001600160a01b038416908102919091178255604051909133917f8be0079c531659141344cd1fd0a4f28419497f9722a3daafe3b4186f6b6457e09190a350565b6000546201000090046001600160a01b031681565b61025881565b825415610ebe5760405162461bcd60e51b815260040161040c90611824565b600033604051602001610a249190611428565b600080836001811115610ef457634e487b7160e01b600052602160045260246000fd5b14610f0a576006546001600160a01b0316610f17565b6005546001600160a01b03165b905081816001600160a01b031663dd62ed3e33306040518363ffffffff1660e01b8152600401610f48929190611467565b60206040518083038186803b158015610f6057600080fd5b505afa158015610f74573d6000803e3d6000fd5b505050506040513d601f19601f82011682018060405250810190610f989190611410565b1015610fb65760405162461bcd60e51b815260040161040c906116fc565b6040516370a0823160e01b815282906001600160a01b038316906370a0823190610fe4903390600401611453565b60206040518083038186803b158015610ffc57600080fd5b505afa158015611010573d6000803e3d6000fd5b505050506040513d601f19601f820116820180604052508101906110349190611410565b10156110525760405162461bcd60e51b815260040161040c90611509565b6040517f23b872dd0000000000000000000000000000000000000000000000000000000081526001600160a01b038216906323b872dd9061109b90339030908790600401611481565b602060405180830381600087803b1580156110b557600080fd5b505af11580156110c9573d6000803e3d6000fd5b505050506040513d601f19601f820116820180604052508101906110ed91906113b6565b6111095760405162461bcd60e51b815260040161040c90611892565b60025460405163a9059cbb60e01b81526001600160a01b038381169263a9059cbb9261113d929091169086906004016114a5565b602060405180830381600087803b15801561115757600080fd5b505af115801561116b573d6000803e3d6000fd5b505050506040513d601f19601f8201168201806040525081019061118f91906113b6565b6111ab5760405162461bcd60e51b815260040161040c90611892565b505050565b600081815b85518110156112605760008682815181106111e057634e487b7160e01b600052603260045260246000fd5b60200260200101519050808311611221578281604051602001611204929190611445565b60405160208183030381529060405280519060200120925061124d565b8083604051602001611234929190611445565b6040516020818303038152906040528051906020012092505b5080611258816119bb565b9150506111b5565b509092149392505050565b80356001600160a01b038116811461128257600080fd5b919050565b60008083601f840112611298578182fd5b50813567ffffffffffffffff8111156112af578182fd5b60208301915083602080830285010111156112c957600080fd5b9250929050565b6000602082840312156112e1578081fd5b6112ea8261126b565b9392505050565b60008060408385031215611303578081fd5b61130c8361126b565b915061131a6020840161126b565b90509250929050565b600080600060608486031215611337578081fd5b6113408461126b565b925061134e6020850161126b565b915061135c6040850161126b565b90509250925092565b600080600060408486031215611379578283fd5b6113828461126b565b9250602084013567ffffffffffffffff81111561139d578283fd5b6113a986828701611287565b9497909650939450505050565b6000602082840312156113c7578081fd5b815180151581146112ea578182fd5b6000602082840312156113e7578081fd5b5035919050565b600080600060408486031215611402578283fd5b833560028110611382578384fd5b600060208284031215611421578081fd5b5051919050565b60609190911b6bffffffffffffffffffffffff1916815260140190565b918252602082015260400190565b6001600160a01b0391909116815260200190565b6001600160a01b0392831681529116602082015260400190565b6001600160a01b039384168152919092166020820152604081019190915260600190565b6001600160a01b03929092168252602082015260400190565b901515815260200190565b90815260200190565b60208082526012908201527f49444f3a20696e76616c696420726174696f0000000000000000000000000000604082015260600190565b60208082526027908201527f53747261746567696353616c653a20706c656173652066756e6420796f75722060408201527f6163636f756e7400000000000000000000000000000000000000000000000000606082015260800190565b60208082526014908201527f49444f3a20757365722068616420626f75676874000000000000000000000000604082015260600190565b6020808252601b908201527f49444f3a20596f752068617665206e6f20616c6c6f636174696f6e0000000000604082015260600190565b60208082526025908201527f49444f3a20636f6e747261637420697320696e73756666696369656e7420626160408201527f6c616e6365000000000000000000000000000000000000000000000000000000606082015260800190565b6020808252602e908201527f496e697469616c697a61626c653a20636f6e747261637420697320616c72656160408201527f647920696e697469616c697a6564000000000000000000000000000000000000606082015260800190565b60208082526008908201527f49444f3a20343030000000000000000000000000000000000000000000000000604082015260600190565b60208082526018908201527f49444f3a2076657374696e672068616420737461727465640000000000000000604082015260600190565b60208082526023908201527f49444f3a20706c6561736520617070726f76652075736420746f6b656e20666960408201527f7273740000000000000000000000000000000000000000000000000000000000606082015260800190565b6020808252600d908201527f6f6e6c794d61696e41646d696e00000000000000000000000000000000000000604082015260600190565b6020808252601a908201527f49444f3a20706c656173652077616974206d6f72652074696d65000000000000604082015260600190565b60208082526021908201527f49444f3a20796f757220616c6c6f636174696f6e206861642072656c6561736560408201527f6400000000000000000000000000000000000000000000000000000000000000606082015260800190565b60208082526013908201527f49444f3a20596f752068616420626f7567687400000000000000000000000000604082015260600190565b60208082526014908201527f49444f3a20696e76616c69642061646472657373000000000000000000000000604082015260600190565b6020808252601e908201527f49444f3a207472616e736665722075736420746f6b656e206661696c65640000604082015260600190565b6020808252600d908201527f49444f3a20736f6c64206f757400000000000000000000000000000000000000604082015260600190565b6020808252601a908201527f49444f3a207472616e7366657220746f6b656e206661696c6564000000000000604082015260600190565b9283526020830191909152604082015260600190565b60008219821115611960576119606119d6565b500190565b60008261198057634e487b7160e01b81526012600452602481fd5b500490565b600081600019048311821515161561199f5761199f6119d6565b500290565b6000828210156119b6576119b66119d6565b500390565b60006000198214156119cf576119cf6119d6565b5060010190565b634e487b7160e01b600052601160045260246000fdfea2646970667358221220ce7622ef08bd56709b135a70bf0a6fd098521312aec140bd4bb1422a867dbbd064736f6c63430008000033",
  "immutableReferences": {},
  "source": "// SPDX-License-Identifier: GPL\n\npragma solidity 0.8.0;\n\nimport \"../libs/fota/Auth.sol\";\nimport \"../libs/fota/MerkelProof.sol\";\nimport \"../libs/zeppelin/token/BEP20/IBEP20.sol\";\nimport \"../interfaces/IFOTAToken.sol\";\n\ncontract IDO is Auth {\n\n  struct Buyer {\n    uint boughtAtBlock;\n    uint lastClaimed;\n    uint totalClaimed;\n  }\n  enum USDCurrency {\n    busd,\n    usdt\n  }\n\n  address public fundAdmin;\n  bytes32 public rootHash;\n  IFOTAToken public fotaToken;\n  IBEP20 public busdToken;\n  IBEP20 public usdtToken;\n//  uint public constant blockInOneMonth = 864000; // 30 * 24 * 60 * 20\n  uint public constant blockInOneMonth = 600; // 30 * 24 * 60 * 20\n  uint constant decimal3 = 1000;\n  uint public remainingToken;\n  uint public tgeRatio;\n  uint public vestingTime;\n  uint public startVestingBlock;\n  uint public eachSlotAllocated;\n  uint public price;\n  bool public adminCanUpdateAllocation;\n  mapping(address => Buyer) buyers;\n\n  event Bought(address indexed buyer, uint amount, uint price, uint timestamp);\n  event Claimed(address indexed buyer, uint amount, uint timestamp);\n  event VestingStated(uint timestamp);\n\n  function initialize(address _mainAdmin, address _fundAdmin, address _fotaToken) public initializer {\n    Auth.initialize(_mainAdmin);\n    fundAdmin = _fundAdmin;\n    fotaToken = IFOTAToken(_fotaToken);\n    remainingToken = 105e23;\n    vestingTime = 5;\n    tgeRatio = 20;\n    eachSlotAllocated = 1176e18;\n    price = 200;\n    adminCanUpdateAllocation = true;\n    busdToken = IBEP20(0xD8aD05ff852ae4EB264089c377501494EA1D03C9);\n    usdtToken = IBEP20(0xF5ed09f4b0E89Dff27fe48AaDf559463505fbac4);\n    rootHash = 0x673a79ecaed9ed602a27ce985b1da73cf54e07a9f9980a7af1cf7e8bdd941eac;\n  }\n\n  function setRootHash(bytes32 _rootHash) onlyMainAdmin external {\n    rootHash = _rootHash;\n  }\n\n  function startVesting() onlyMainAdmin external {\n    require(startVestingBlock == 0, \"IDO: vesting had started\");\n    startVestingBlock = block.number;\n    emit VestingStated(startVestingBlock);\n  }\n\n  function updateRemainingToken(uint _remainingToken) onlyMainAdmin external {\n    remainingToken = _remainingToken;\n  }\n\n  function updateVestingTime(uint _month) onlyMainAdmin external {\n    require(adminCanUpdateAllocation, \"IDO: user had bought\");\n    vestingTime = _month;\n  }\n\n  function updateTGERatio(uint _ratio) onlyMainAdmin external {\n    require(adminCanUpdateAllocation, \"IDO: user had bought\");\n    require(_ratio < 100, \"IDO: invalid ratio\");\n    tgeRatio = _ratio;\n  }\n\n  function updateFundAdmin(address _address) onlyMainAdmin external {\n    require(_address != address(0), \"IDO: invalid address\");\n    fundAdmin = _address;\n  }\n\n  function buy(USDCurrency _usdCurrency, bytes32[] calldata _path) external {\n    Buyer storage buyer = buyers[msg.sender];\n    _verifyBuyer(buyer, _path);\n    require(remainingToken >= eachSlotAllocated, \"IDO: sold out\");\n    remainingToken -= eachSlotAllocated;\n    if (adminCanUpdateAllocation) {\n      adminCanUpdateAllocation = false;\n    }\n    _takeFund(_usdCurrency, eachSlotAllocated * price / decimal3);\n    buyer.boughtAtBlock = block.number;\n    emit Bought(msg.sender, eachSlotAllocated, price, block.timestamp);\n  }\n\n  function claim() external {\n    require(startVestingBlock > 0, \"IDO: please wait more time\");\n    Buyer storage buyer = buyers[msg.sender];\n    require(buyer.boughtAtBlock > 0, \"IDO: You have no allocation\");\n    uint maxBlockNumber = startVestingBlock + blockInOneMonth * vestingTime;\n    require(maxBlockNumber > buyer.lastClaimed, \"IDO: your allocation had released\");\n    uint blockPass;\n    uint releaseAmount;\n    if (buyer.lastClaimed == 0) {\n      buyer.lastClaimed = startVestingBlock;\n      releaseAmount = eachSlotAllocated * tgeRatio / 100;\n    } else {\n      if (block.number < maxBlockNumber) {\n        blockPass = block.number - buyer.lastClaimed;\n        buyer.lastClaimed = block.number;\n      } else {\n        blockPass = maxBlockNumber - buyer.lastClaimed;\n        buyer.lastClaimed = maxBlockNumber;\n      }\n      releaseAmount = eachSlotAllocated * (100 - tgeRatio) / 100 * blockPass / (blockInOneMonth * vestingTime);\n    }\n    buyer.totalClaimed = buyer.totalClaimed + releaseAmount;\n    require(fotaToken.balanceOf(address(this)) >= releaseAmount, \"IDO: contract is insufficient balance\");\n    require(fotaToken.transfer(msg.sender, releaseAmount), \"IDO: transfer token failed\");\n    emit Claimed(msg.sender, releaseAmount, block.timestamp);\n  }\n\n  function getBuyer(address _address) external view returns (uint, uint, uint) {\n    Buyer storage buyer = buyers[_address];\n    return(\n      buyer.boughtAtBlock,\n      buyer.lastClaimed,\n      buyer.totalClaimed\n    );\n  }\n\n  function soldOut() external view returns (bool) {\n    return remainingToken < eachSlotAllocated;\n  }\n\n  // PRIVATE FUNCTIONS\n\n  function _verifyBuyer(Buyer storage _buyer, bytes32[] calldata _path) private view {\n    require(_buyer.boughtAtBlock == 0, \"IDO: You had bought\");\n    bytes32 hash = keccak256(abi.encodePacked(msg.sender));\n    require(MerkleProof.verify(_path, rootHash, hash), 'IDO: 400');\n  }\n\n  function _takeFund(USDCurrency _usdCurrency, uint _amount) private {\n    IBEP20 usdToken = _usdCurrency == USDCurrency.busd ? busdToken : usdtToken;\n    require(usdToken.allowance(msg.sender, address(this)) >= _amount, \"IDO: please approve usd token first\");\n    require(usdToken.balanceOf(msg.sender) >= _amount, \"StrategicSale: please fund your account\");\n    require(usdToken.transferFrom(msg.sender, address(this), _amount), \"IDO: transfer usd token failed\");\n    require(usdToken.transfer(fundAdmin, _amount), \"IDO: transfer usd token failed\");\n  }\n\n  // TODO for testing purpose\n  function setContracts(address _busd, address _usdt) external onlyMainAdmin {\n    busdToken = IBEP20(_busd);\n    usdtToken = IBEP20(_usdt);\n  }\n\n  function verifyCode(address _user, bytes32[] calldata _path) external view {\n    bytes32 hash = keccak256(abi.encodePacked(_user));\n    require(MerkleProof.verify(_path, rootHash, hash), 'IDO: 400');\n  }\n}\n",
  "sourcePath": "/Users/dung/Documents/sources/fota-dapp/contracts/sales/IDO.sol",
  "compiler": {
    "name": "solc",
    "version": "0.8.0+commit.c7dfd78e.Emscripten.clang"
  },
  "schemaVersion": "3.3.4",
  "updatedAt": "2022-03-03T04:57:24.482Z",
  "networkType": "ethereum",
  "devdoc": {
    "kind": "dev",
    "methods": {},
    "version": 1
  },
  "userdoc": {
    "kind": "user",
    "methods": {},
    "version": 1
  }
}