{
  "contractName": "IGO",
  "abi": [
    {
      "anonymous": false,
      "inputs": [
        {
          "indexed": true,
          "internalType": "address",
          "name": "user",
          "type": "address"
        },
        {
          "indexed": false,
          "internalType": "uint256",
          "name": "id",
          "type": "uint256"
        },
        {
          "indexed": false,
          "internalType": "enum IMarketPlace.PaymentCurrency",
          "name": "paymentCurrency",
          "type": "uint8"
        },
        {
          "indexed": false,
          "internalType": "uint16[]",
          "name": "nftClassIds",
          "type": "uint16[]"
        },
        {
          "indexed": false,
          "internalType": "uint256[]",
          "name": "nftIds",
          "type": "uint256[]"
        },
        {
          "indexed": false,
          "internalType": "uint256",
          "name": "amount",
          "type": "uint256"
        }
      ],
      "name": "Claimed",
      "type": "event"
    },
    {
      "anonymous": false,
      "inputs": [
        {
          "indexed": true,
          "internalType": "address",
          "name": "_newOwner",
          "type": "address"
        }
      ],
      "name": "ContractAdminUpdated",
      "type": "event"
    },
    {
      "anonymous": false,
      "inputs": [
        {
          "indexed": false,
          "internalType": "uint256",
          "name": "id",
          "type": "uint256"
        },
        {
          "indexed": false,
          "internalType": "string",
          "name": "name",
          "type": "string"
        },
        {
          "indexed": false,
          "internalType": "uint16[]",
          "name": "heroes",
          "type": "uint16[]"
        },
        {
          "indexed": false,
          "internalType": "uint256",
          "name": "price",
          "type": "uint256"
        },
        {
          "indexed": false,
          "internalType": "uint8",
          "name": "quantityPerNFT",
          "type": "uint8"
        },
        {
          "indexed": false,
          "internalType": "uint8",
          "name": "maxBuyPerUserPerClassId",
          "type": "uint8"
        }
      ],
      "name": "OrganizationAdded",
      "type": "event"
    },
    {
      "anonymous": false,
      "inputs": [
        {
          "indexed": true,
          "internalType": "address",
          "name": "_previousOwner",
          "type": "address"
        },
        {
          "indexed": true,
          "internalType": "address",
          "name": "_newOwner",
          "type": "address"
        }
      ],
      "name": "OwnershipTransferred",
      "type": "event"
    },
    {
      "anonymous": false,
      "inputs": [
        {
          "indexed": false,
          "internalType": "address",
          "name": "account",
          "type": "address"
        }
      ],
      "name": "Paused",
      "type": "event"
    },
    {
      "anonymous": false,
      "inputs": [
        {
          "indexed": false,
          "internalType": "enum IMarketPlace.PaymentType",
          "name": "_newMethod",
          "type": "uint8"
        }
      ],
      "name": "PaymentTypeChanged",
      "type": "event"
    },
    {
      "anonymous": false,
      "inputs": [
        {
          "indexed": false,
          "internalType": "uint256",
          "name": "id",
          "type": "uint256"
        },
        {
          "indexed": false,
          "internalType": "uint256",
          "name": "price",
          "type": "uint256"
        }
      ],
      "name": "PricesUpdated",
      "type": "event"
    },
    {
      "anonymous": false,
      "inputs": [
        {
          "indexed": false,
          "internalType": "address",
          "name": "account",
          "type": "address"
        }
      ],
      "name": "Unpaused",
      "type": "event"
    },
    {
      "inputs": [],
      "name": "_isContractAdmin",
      "outputs": [
        {
          "internalType": "bool",
          "name": "",
          "type": "bool"
        }
      ],
      "stateMutability": "view",
      "type": "function"
    },
    {
      "inputs": [],
      "name": "_isMainAdmin",
      "outputs": [
        {
          "internalType": "bool",
          "name": "",
          "type": "bool"
        }
      ],
      "stateMutability": "view",
      "type": "function"
    },
    {
      "inputs": [],
      "name": "busdToken",
      "outputs": [
        {
          "internalType": "contract IBEP20",
          "name": "",
          "type": "address"
        }
      ],
      "stateMutability": "view",
      "type": "function"
    },
    {
      "inputs": [],
      "name": "contractAdmin",
      "outputs": [
        {
          "internalType": "address",
          "name": "",
          "type": "address"
        }
      ],
      "stateMutability": "view",
      "type": "function"
    },
    {
      "inputs": [],
      "name": "fotaPricer",
      "outputs": [
        {
          "internalType": "contract IFOTAPricer",
          "name": "",
          "type": "address"
        }
      ],
      "stateMutability": "view",
      "type": "function"
    },
    {
      "inputs": [],
      "name": "fotaToken",
      "outputs": [
        {
          "internalType": "contract IBEP20",
          "name": "",
          "type": "address"
        }
      ],
      "stateMutability": "view",
      "type": "function"
    },
    {
      "inputs": [],
      "name": "heroToken",
      "outputs": [
        {
          "internalType": "contract IGameNFT",
          "name": "",
          "type": "address"
        }
      ],
      "stateMutability": "view",
      "type": "function"
    },
    {
      "inputs": [],
      "name": "itemToken",
      "outputs": [
        {
          "internalType": "contract IGameNFT",
          "name": "",
          "type": "address"
        }
      ],
      "stateMutability": "view",
      "type": "function"
    },
    {
      "inputs": [],
      "name": "mainAdmin",
      "outputs": [
        {
          "internalType": "address",
          "name": "",
          "type": "address"
        }
      ],
      "stateMutability": "view",
      "type": "function"
    },
    {
      "inputs": [
        {
          "internalType": "uint256",
          "name": "",
          "type": "uint256"
        }
      ],
      "name": "organizations",
      "outputs": [
        {
          "internalType": "uint256",
          "name": "id",
          "type": "uint256"
        },
        {
          "internalType": "string",
          "name": "name",
          "type": "string"
        },
        {
          "internalType": "bytes32",
          "name": "rootHash",
          "type": "bytes32"
        },
        {
          "internalType": "uint256",
          "name": "price",
          "type": "uint256"
        },
        {
          "internalType": "uint8",
          "name": "quantityPerNFT",
          "type": "uint8"
        },
        {
          "internalType": "uint8",
          "name": "maxBuyPerUserPerClassId",
          "type": "uint8"
        }
      ],
      "stateMutability": "view",
      "type": "function"
    },
    {
      "inputs": [],
      "name": "paused",
      "outputs": [
        {
          "internalType": "bool",
          "name": "",
          "type": "bool"
        }
      ],
      "stateMutability": "view",
      "type": "function"
    },
    {
      "inputs": [],
      "name": "paymentType",
      "outputs": [
        {
          "internalType": "enum IMarketPlace.PaymentType",
          "name": "",
          "type": "uint8"
        }
      ],
      "stateMutability": "view",
      "type": "function"
    },
    {
      "inputs": [],
      "name": "totalOrganizations",
      "outputs": [
        {
          "internalType": "uint256",
          "name": "",
          "type": "uint256"
        }
      ],
      "stateMutability": "view",
      "type": "function"
    },
    {
      "inputs": [
        {
          "internalType": "address",
          "name": "_newOwner",
          "type": "address"
        }
      ],
      "name": "transferOwnership",
      "outputs": [],
      "stateMutability": "nonpayable",
      "type": "function"
    },
    {
      "inputs": [
        {
          "internalType": "address",
          "name": "_newAdmin",
          "type": "address"
        }
      ],
      "name": "updateContractAdmin",
      "outputs": [],
      "stateMutability": "nonpayable",
      "type": "function"
    },
    {
      "inputs": [],
      "name": "usdtToken",
      "outputs": [
        {
          "internalType": "contract IBEP20",
          "name": "",
          "type": "address"
        }
      ],
      "stateMutability": "view",
      "type": "function"
    },
    {
      "inputs": [
        {
          "internalType": "address",
          "name": "_mainAdmin",
          "type": "address"
        }
      ],
      "name": "initialize",
      "outputs": [],
      "stateMutability": "nonpayable",
      "type": "function"
    },
    {
      "inputs": [
        {
          "internalType": "address",
          "name": "_mainAdmin",
          "type": "address"
        },
        {
          "internalType": "address",
          "name": "_fotaPricer",
          "type": "address"
        },
        {
          "internalType": "address",
          "name": "_itemNFT",
          "type": "address"
        },
        {
          "internalType": "address",
          "name": "_heroNFT",
          "type": "address"
        }
      ],
      "name": "initialize",
      "outputs": [],
      "stateMutability": "nonpayable",
      "type": "function"
    },
    {
      "inputs": [
        {
          "internalType": "enum IMarketPlace.PaymentType",
          "name": "_type",
          "type": "uint8"
        }
      ],
      "name": "updatePaymentType",
      "outputs": [],
      "stateMutability": "nonpayable",
      "type": "function"
    },
    {
      "inputs": [
        {
          "internalType": "string",
          "name": "_name",
          "type": "string"
        },
        {
          "internalType": "bytes32",
          "name": "_rootHash",
          "type": "bytes32"
        },
        {
          "internalType": "uint16[]",
          "name": "_nftClassIds",
          "type": "uint16[]"
        },
        {
          "internalType": "uint256",
          "name": "_price",
          "type": "uint256"
        },
        {
          "internalType": "uint8",
          "name": "_quantityPerNFT",
          "type": "uint8"
        },
        {
          "internalType": "uint8",
          "name": "_maxBuyPerUserPerClassId",
          "type": "uint8"
        }
      ],
      "name": "addOrganization",
      "outputs": [],
      "stateMutability": "nonpayable",
      "type": "function"
    },
    {
      "inputs": [
        {
          "internalType": "uint256",
          "name": "_id",
          "type": "uint256"
        },
        {
          "internalType": "uint256",
          "name": "_price",
          "type": "uint256"
        }
      ],
      "name": "updatePrice",
      "outputs": [],
      "stateMutability": "nonpayable",
      "type": "function"
    },
    {
      "inputs": [
        {
          "internalType": "uint256",
          "name": "_id",
          "type": "uint256"
        },
        {
          "internalType": "bytes32",
          "name": "_rootHash",
          "type": "bytes32"
        }
      ],
      "name": "updateRootHash",
      "outputs": [],
      "stateMutability": "nonpayable",
      "type": "function"
    },
    {
      "inputs": [
        {
          "internalType": "bool",
          "name": "_paused",
          "type": "bool"
        }
      ],
      "name": "updatePauseStatus",
      "outputs": [],
      "stateMutability": "nonpayable",
      "type": "function"
    },
    {
      "inputs": [
        {
          "internalType": "address",
          "name": "_address",
          "type": "address"
        }
      ],
      "name": "updateFundAdmin",
      "outputs": [],
      "stateMutability": "nonpayable",
      "type": "function"
    },
    {
      "inputs": [
        {
          "internalType": "uint256",
          "name": "_id",
          "type": "uint256"
        },
        {
          "internalType": "uint256",
          "name": "_index",
          "type": "uint256"
        }
      ],
      "name": "isClaimed",
      "outputs": [
        {
          "internalType": "bool",
          "name": "",
          "type": "bool"
        }
      ],
      "stateMutability": "view",
      "type": "function"
    },
    {
      "inputs": [
        {
          "internalType": "uint256",
          "name": "_id",
          "type": "uint256"
        },
        {
          "internalType": "uint256",
          "name": "_index",
          "type": "uint256"
        },
        {
          "internalType": "bytes32[]",
          "name": "_path",
          "type": "bytes32[]"
        },
        {
          "internalType": "enum IMarketPlace.PaymentCurrency",
          "name": "_paymentCurrency",
          "type": "uint8"
        }
      ],
      "name": "claim",
      "outputs": [],
      "stateMutability": "nonpayable",
      "type": "function"
    },
    {
      "inputs": [
        {
          "internalType": "uint256",
          "name": "_id",
          "type": "uint256"
        }
      ],
      "name": "getClassIds",
      "outputs": [
        {
          "internalType": "uint16[]",
          "name": "",
          "type": "uint16[]"
        }
      ],
      "stateMutability": "view",
      "type": "function"
    },
    {
      "inputs": [
        {
          "internalType": "uint16[]",
          "name": "_arrayIds",
          "type": "uint16[]"
        }
      ],
      "name": "_shuffle",
      "outputs": [
        {
          "internalType": "uint16[]",
          "name": "",
          "type": "uint16[]"
        }
      ],
      "stateMutability": "view",
      "type": "function"
    }
  ],
  "bytecode": "0x608060405234801561001057600080fd5b50612dd5806100206000396000f3fe608060405234801561001057600080fd5b50600436106101c45760003560e01c8063aca986c8116100f9578063de0e701411610097578063f364c90c11610071578063f364c90c1461036b578063f8c8765e1461037e578063fa43871814610391578063fb6b04ba146103a4576101c4565b8063de0e70141461032b578063e792dd8a14610333578063f2fde38b14610358576101c4565b8063bc6e6830116100d3578063bc6e6830146102df578063c4d66de8146102f2578063c578f61b14610305578063d5e0bb6614610318576101c4565b8063aca986c8146102bc578063b7d6caec146102cf578063bbca5715146102d7576101c4565b80635c975abb116101665780637795524511610140578063779552451461028657806382367b2d1461028e578063a00245fa146102a1578063a98ad46c146102b4576101c4565b80635c975abb1461026e5780635e1c2f0a14610276578063777f54401461027e576101c4565b80632763b8da116101a25780632763b8da1461020f5780632aca07c11461022457806348d002f2146102445780634cf5d55214610259576101c4565b806302e65b8a146101c957806311541ce0146101de5780631da7dff0146101fc575b600080fd5b6101dc6101d736600461222f565b6103ac565b005b6101e6610443565b6040516101f391906126a5565b60405180910390f35b6101dc61020a3660046123b1565b61045a565b6102176106ba565b6040516101f391906126b0565b610237610232366004612479565b6106ca565b6040516101f39190612692565b61024c61077a565b6040516101f391906125c8565b610261610789565b6040516101f39190612a48565b6101e661078f565b61024c610798565b61024c6107a7565b61024c6107b6565b6101dc61029c3660046124a9565b6107c5565b6101dc6102af366004612395565b61085d565b61024c6108f3565b6101dc6102ca36600461222f565b610902565b6101e661097b565b61024c61098c565b6101dc6102ed36600461235d565b61099b565b6101dc61030036600461222f565b6109dd565b6101dc6103133660046124ca565b610aa8565b6101dc6103263660046124a9565b610d41565b61024c610d9c565b610346610341366004612479565b610dab565b6040516101f396959493929190612b68565b6101dc61036636600461222f565b610e70565b6101e66103793660046124a9565b610f09565b6101dc61038c366004612249565b610f54565b61023761039f36600461229c565b611094565b61024c6111e8565b6103b4610443565b6103d95760405162461bcd60e51b81526004016103d0906127fc565b60405180910390fd5b6001600160a01b0381166103ec57600080fd5b6001805473ffffffffffffffffffffffffffffffffffffffff19166001600160a01b0383169081179091556040517fe3f4a4b5b74aa6830627cb87c50cf7d4ed56e9b246729179ba634bbdc873177a90600090a250565b6000546201000090046001600160a01b0316331490565b610462610443565b61047e5760405162461bcd60e51b81526004016103d0906127fc565b606860006104c18a8a8080601f0160208091040260200160405190810160405280939291908181526020018383808284376000920191909152506111fd92505050565b67ffffffffffffffff1916815260208101919091526040016000205460ff16156104fd5760405162461bcd60e51b81526004016103d0906126fa565b600061050c60ff831686612c62565b11801561051c575060ff81168410155b6105385760405162461bcd60e51b81526004016103d090612946565b60016068600061057d8b8b8080601f0160208091040260200160405190810160405280939291908181526020018383808284376000920191909152506111fd92505050565b67ffffffffffffffff1916815260208101919091526040016000908120805460ff19169215159290921790915560668054600192906105bd908490612c15565b909155505060665460008181526067602052604090209081556105e4906001018989612076565b506066805460009081526067602052604080822060020189905591548152206106119060030186866120fa565b50606680546000908152606760205260408082206005908101805460ff191660ff8881169190911790915584548452828420909101805461ff001916610100928716929092029190911790558254825290819020600401859055905490517fcf57d528723f0f6db3958115dff0b795a6246739877c1a4c8b8c371b0e658019916106a8918b908b908a908a908a908a908a90612ac4565b60405180910390a15050505050505050565b606d54600160a01b900460ff1681565b60606066548211156106ee5760405162461bcd60e51b81526004016103d090612731565b6000828152606760209081526040918290206003018054835181840281018401909452808452909183018282801561076d57602002820191906000526020600020906000905b82829054906101000a900461ffff1661ffff16815260200190600201906020826001010492830192600103820291508084116107345790505b505050505090505b919050565b606a546001600160a01b031681565b60665481565b60345460ff1690565b606d546001600160a01b031681565b606e546001600160a01b031681565b6001546001600160a01b031681565b6107cd610443565b6107e95760405162461bcd60e51b81526004016103d0906127fc565b60665482111561080b5760405162461bcd60e51b81526004016103d090612731565b60008281526067602052604090819020600401829055517f6546f60f34df611fa42503098acc39d5ab88bc73febe64b3cc14e5a92e3a66a790610851908490849061259a565b60405180910390a15050565b610865610443565b6108815760405162461bcd60e51b81526004016103d0906127fc565b606d805482919060ff60a01b1916600160a01b8360028111156108b457634e487b7160e01b600052602160045260246000fd5b02179055507f42d1d4a3df940c5fa3c262d3d5b271a206cfc2e3da70683f81854b3f52f8f5d5816040516108e891906126b0565b60405180910390a150565b606c546001600160a01b031681565b61090a610443565b6109265760405162461bcd60e51b81526004016103d0906127fc565b6001600160a01b03811661094c5760405162461bcd60e51b81526004016103d09061290f565b6070805473ffffffffffffffffffffffffffffffffffffffff19166001600160a01b0392909216919091179055565b6001546001600160a01b0316331490565b606f546001600160a01b031681565b6109a3610443565b6109bf5760405162461bcd60e51b81526004016103d0906127fc565b80156109d2576109cd61121b565b6109da565b6109da61128d565b50565b600054610100900460ff16806109f6575060005460ff16155b610a125760405162461bcd60e51b81526004016103d09061279f565b600054610100900460ff16158015610a3d576000805460ff1961ff0019909116610100171660011790555b6000805475ffffffffffffffffffffffffffffffffffffffff00001916620100006001600160a01b038516908102919091179091556001805473ffffffffffffffffffffffffffffffffffffffff191690911790558015610aa4576000805461ff00191690555b5050565b610ab061078f565b15610acd5760405162461bcd60e51b81526004016103d090612768565b610ad78585610f09565b15610af45760405162461bcd60e51b81526004016103d0906128a1565b610afe85856112e4565b60003385604051602001610b13929190612578565b604051602081830303815290604052805190602001209050610b7984848080602002602001604051908101604052809392919081815260200183836020028082843760009201829052508b815260676020526040902060020154925085915061132d9050565b610b955760405162461bcd60e51b81526004016103d09061286a565b600086815260676020908152604080832060030180548251818502810185019093528083529192909190830182828015610c1657602002820191906000526020600020906000905b82829054906101000a900461ffff1661ffff1681526020019060020190602082600101049283019260010382029150808411610bdd5790505b50505060008a8152606760205260409020600381015460059091015493945061010090930460ff16929092109150508015610ccc57610c5482611094565b600089815260676020526040902060050154909250610100900460ff165b600089815260676020526040902060030154811015610cca57828181518110610cab57634e487b7160e01b600052603260045260246000fd5b6000602091820292909201015280610cc281612cf5565b915050610c72565b505b6000610cd889866113e8565b9050600080610ce78b8661159e565b91509150336001600160a01b03167fe31a2f9f77188997abaa803e7fa0038e6487e571a082a1d2e134afc6886b66638c89858588604051610d2c959493929190612a51565b60405180910390a25050505050505050505050565b610d49610443565b610d655760405162461bcd60e51b81526004016103d0906127fc565b606654821115610d875760405162461bcd60e51b81526004016103d090612731565b60009182526067602052604090912060020155565b606b546001600160a01b031681565b60676020526000908152604090208054600182018054919291610dcd90612c98565b80601f0160208091040260200160405190810160405280929190818152602001828054610df990612c98565b8015610e465780601f10610e1b57610100808354040283529160200191610e46565b820191906000526020600020905b815481529060010190602001808311610e2957829003601f168201915b50505050600283015460048401546005909401549293909290915060ff8082169161010090041686565b610e78610443565b610e945760405162461bcd60e51b81526004016103d0906127fc565b6001600160a01b038116610ea757600080fd5b6000805475ffffffffffffffffffffffffffffffffffffffff00001916620100006001600160a01b038416908102919091178255604051909133917f8be0079c531659141344cd1fd0a4f28419497f9722a3daafe3b4186f6b6457e09190a350565b600080610f1861010084612c4e565b90506000610f2861010085612d10565b60009586526069602090815260408088209488529390529190942054600190911b908116149392505050565b600054610100900460ff1680610f6d575060005460ff16155b610f895760405162461bcd60e51b81526004016103d09061279f565b600054610100900460ff16158015610fb4576000805460ff1961ff0019909116610100171660011790555b610fbd856109dd565b607080546001600160a01b0387811673ffffffffffffffffffffffffffffffffffffffff1992831617909255606d8054606e8054888616908516179055606f8054878616908516179055606a805484167369c3ff5f466757bf99fef916ae9a191d7c13696c179055606b8054841673d8ad05ff852ae4eb264089c377501494ea1d03c9179055606c8054841673a1d3c78f0f98f6ba7b08ec15df48e22880a0024c179055928716929091169190911760ff60a01b1916600160a01b179055801561108d576000805461ff00191690555b5050505050565b606060005b82518161ffff1610156111e15760008161ffff1684516110b99190612c81565b42336040516020016110cc9291906125a8565b6040516020818303038152906040528051906020012060001c6110ef9190612d10565b6110f99083612bef565b90506000848261ffff168151811061112157634e487b7160e01b600052603260045260246000fd5b60200260200101519050848361ffff168151811061114f57634e487b7160e01b600052603260045260246000fd5b6020026020010151858361ffff168151811061117b57634e487b7160e01b600052603260045260246000fd5b602002602001019061ffff16908161ffff168152505080858461ffff16815181106111b657634e487b7160e01b600052603260045260246000fd5b602002602001019061ffff16908161ffff1681525050505080806111d990612cd3565b915050611099565b5090919050565b6000546201000090046001600160a01b031681565b80516000908290611212575060009050610775565b50506018015190565b61122361078f565b156112405760405162461bcd60e51b81526004016103d090612768565b6034805460ff191660011790557f62e78cea01bee320cd4e420270b5ea74000d11b0c9f74754ebdbfc544b05a258611276611a5d565b60405161128391906125c8565b60405180910390a1565b61129561078f565b6112b15760405162461bcd60e51b81526004016103d0906126c3565b6034805460ff191690557f5db9ee0a495bf2e6ff9c91a7834c1ba4fdd244a5e8aa4e537bd38aeae4b073aa611276611a5d565b60006112f261010083612c4e565b9050600061130261010084612d10565b6000948552606960209081526040808720948752939052919093208054600190921b90911790555050565b600081815b85518110156113dd57600086828151811061135d57634e487b7160e01b600052603260045260246000fd5b6020026020010151905080831161139e57828160405160200161138192919061259a565b6040516020818303038152906040528051906020012092506113ca565b80836040516020016113b192919061259a565b6040516020818303038152906040528051906020012092505b50806113d581612cf5565b915050611332565b509092149392505050565b60008281526067602052604081206004015481606d54600160a01b900460ff16600281111561142757634e487b7160e01b600052602160045260246000fd5b14156114d957606d60009054906101000a90046001600160a01b03166001600160a01b031663ce1143486040518163ffffffff1660e01b815260040160206040518083038186803b15801561147b57600080fd5b505afa15801561148f573d6000803e3d6000fd5b505050506040513d601f19601f820116820180604052508101906114b39190612491565b6114bf6103e883612c62565b6114c99190612c4e565b90506114d481611a61565b611597565b6001606d54600160a01b900460ff16600281111561150757634e487b7160e01b600052602160045260246000fd5b1415611517576114d48184611d56565b600083600281111561153957634e487b7160e01b600052602160045260246000fd5b141561158d57606d60009054906101000a90046001600160a01b03166001600160a01b031663ce1143486040518163ffffffff1660e01b815260040160206040518083038186803b15801561147b57600080fd5b6115978184611d56565b9392505050565b6000828152606760205260408120600501548251606092839290916115c69160ff1690612c62565b67ffffffffffffffff8111156115ec57634e487b7160e01b600052604160045260246000fd5b604051908082528060200260200182016040528015611615578160200160208202803683370190505b506000868152606760205260408120600501548651929350909161163c9160ff1690612c62565b67ffffffffffffffff81111561166257634e487b7160e01b600052604160045260246000fd5b60405190808252806020026020018201604052801561168b578160200160208202803683370190505b508551600088815260676020526040812060040154929350916116ae9190612c4e565b905060005b8651811015611a4e5760005b60008981526067602052604090206005015460ff16811015611a3b5760008981526067602052604081206005015482906116fc9060ff1685612c62565b6117069190612c15565b9050606489848151811061172a57634e487b7160e01b600052603260045260246000fd5b602002602001015161ffff1611156118b557606e5489516001600160a01b039091169063882c3b0e9033906064908d908890811061177857634e487b7160e01b600052603260045260246000fd5b602002602001015161178a9190612c2d565b8c87815181106117aa57634e487b7160e01b600052603260045260246000fd5b602002602001015188866040518663ffffffff1660e01b81526004016117d495949392919061265d565b602060405180830381600087803b1580156117ee57600080fd5b505af1158015611802573d6000803e3d6000fd5b505050506040513d601f19601f820116820180604052508101906118269190612491565b85828151811061184657634e487b7160e01b600052603260045260246000fd5b60200260200101818152505088838151811061187257634e487b7160e01b600052603260045260246000fd5b602002602001015186828151811061189a57634e487b7160e01b600052603260045260246000fd5b602002602001019061ffff16908161ffff1681525050611a28565b60008984815181106118d757634e487b7160e01b600052603260045260246000fd5b602002602001015161ffff161115611a2857606f5489516001600160a01b039091169063a045ae989033908c908790811061192257634e487b7160e01b600052603260045260246000fd5b602002602001015187856040518563ffffffff1660e01b815260040161194b949392919061261a565b602060405180830381600087803b15801561196557600080fd5b505af1158015611979573d6000803e3d6000fd5b505050506040513d601f19601f8201168201806040525081019061199d9190612491565b8582815181106119bd57634e487b7160e01b600052603260045260246000fd5b6020026020010181815250508883815181106119e957634e487b7160e01b600052603260045260246000fd5b6020026020010151868281518110611a1157634e487b7160e01b600052603260045260246000fd5b602002602001019061ffff16908161ffff16815250505b5080611a3381612cf5565b9150506116bf565b5080611a4681612cf5565b9150506116b3565b509193509150505b9250929050565b3390565b606a546040517fdd62ed3e00000000000000000000000000000000000000000000000000000000815282916001600160a01b03169063dd62ed3e90611aac90339030906004016125dc565b60206040518083038186803b158015611ac457600080fd5b505afa158015611ad8573d6000803e3d6000fd5b505050506040513d601f19601f82011682018060405250810190611afc9190612491565b1015611b1a5760405162461bcd60e51b81526004016103d0906128d8565b606a546040516370a0823160e01b815282916001600160a01b0316906370a0823190611b4a9033906004016125c8565b60206040518083038186803b158015611b6257600080fd5b505afa158015611b76573d6000803e3d6000fd5b505050506040513d601f19601f82011682018060405250810190611b9a9190612491565b1015611bb85760405162461bcd60e51b81526004016103d090612833565b606a546040516323b872dd60e01b81526001600160a01b03909116906323b872dd90611bec903390309086906004016125f6565b602060405180830381600087803b158015611c0657600080fd5b505af1158015611c1a573d6000803e3d6000fd5b505050506040513d601f19601f82011682018060405250810190611c3e9190612379565b611c5a5760405162461bcd60e51b81526004016103d0906129b4565b606a546070546040516370a0823160e01b81526001600160a01b039283169263a9059cbb92169083906370a0823190611c979030906004016125c8565b60206040518083038186803b158015611caf57600080fd5b505afa158015611cc3573d6000803e3d6000fd5b505050506040513d601f19601f82011682018060405250810190611ce79190612491565b6040518363ffffffff1660e01b8152600401611d04929190612644565b602060405180830381600087803b158015611d1e57600080fd5b505af1158015611d32573d6000803e3d6000fd5b505050506040513d601f19601f82011682018060405250810190610aa49190612379565b60006001826002811115611d7a57634e487b7160e01b600052602160045260246000fd5b14611d9057606c546001600160a01b0316611d9d565b606b546001600160a01b03165b905082816001600160a01b031663dd62ed3e33306040518363ffffffff1660e01b8152600401611dce9291906125dc565b60206040518083038186803b158015611de657600080fd5b505afa158015611dfa573d6000803e3d6000fd5b505050506040513d601f19601f82011682018060405250810190611e1e9190612491565b1015611e3c5760405162461bcd60e51b81526004016103d0906129eb565b6040516370a0823160e01b815283906001600160a01b038316906370a0823190611e6a9033906004016125c8565b60206040518083038186803b158015611e8257600080fd5b505afa158015611e96573d6000803e3d6000fd5b505050506040513d601f19601f82011682018060405250810190611eba9190612491565b1015611ed85760405162461bcd60e51b81526004016103d090612833565b6040516323b872dd60e01b81526001600160a01b038216906323b872dd90611f08903390309088906004016125f6565b602060405180830381600087803b158015611f2257600080fd5b505af1158015611f36573d6000803e3d6000fd5b505050506040513d601f19601f82011682018060405250810190611f5a9190612379565b611f765760405162461bcd60e51b81526004016103d09061297d565b6070546040516370a0823160e01b81526001600160a01b038084169263a9059cbb9291169083906370a0823190611fb19030906004016125c8565b60206040518083038186803b158015611fc957600080fd5b505afa158015611fdd573d6000803e3d6000fd5b505050506040513d601f19601f820116820180604052508101906120019190612491565b6040518363ffffffff1660e01b815260040161201e929190612644565b602060405180830381600087803b15801561203857600080fd5b505af115801561204c573d6000803e3d6000fd5b505050506040513d601f19601f820116820180604052508101906120709190612379565b50505050565b82805461208290612c98565b90600052602060002090601f0160209004810192826120a457600085556120ea565b82601f106120bd5782800160ff198235161785556120ea565b828001600101855582156120ea579182015b828111156120ea5782358255916020019190600101906120cf565b506120f692915061219e565b5090565b82805482825590600052602060002090600f016010900481019282156120ea5791602002820160005b8382111561216757833561ffff1683826101000a81548161ffff021916908361ffff1602179055509260200192600201602081600101049283019260010302612123565b80156121955782816101000a81549061ffff0219169055600201602081600101049283019260010302612167565b50506120f69291505b5b808211156120f6576000815560010161219f565b80356001600160a01b038116811461077557600080fd5b60008083601f8401126121db578081fd5b50813567ffffffffffffffff8111156121f2578182fd5b6020830191508360208083028501011115611a5657600080fd5b803561ffff8116811461077557600080fd5b803560ff8116811461077557600080fd5b600060208284031215612240578081fd5b611597826121b3565b6000806000806080858703121561225e578283fd5b612267856121b3565b9350612275602086016121b3565b9250612283604086016121b3565b9150612291606086016121b3565b905092959194509250565b600060208083850312156122ae578182fd5b823567ffffffffffffffff808211156122c5578384fd5b818501915085601f8301126122d8578384fd5b8135818111156122ea576122ea612d50565b8381026040518582820101818110858211171561230957612309612d50565b604052828152858101935084860182860187018a1015612327578788fd5b8795505b838610156123505761233c8161220c565b85526001959095019493860193860161232b565b5098975050505050505050565b60006020828403121561236e578081fd5b813561159781612d84565b60006020828403121561238a578081fd5b815161159781612d84565b6000602082840312156123a6578081fd5b813561159781612d92565b60008060008060008060008060c0898b0312156123cc578384fd5b883567ffffffffffffffff808211156123e3578586fd5b818b0191508b601f8301126123f6578586fd5b813581811115612404578687fd5b8c6020828501011115612415578687fd5b60209283019a509850908a0135965060408a01359080821115612436578586fd5b506124438b828c016121ca565b9096509450506060890135925061245c60808a0161221e565b915061246a60a08a0161221e565b90509295985092959890939650565b60006020828403121561248a578081fd5b5035919050565b6000602082840312156124a2578081fd5b5051919050565b600080604083850312156124bb578182fd5b50508035926020909101359150565b6000806000806000608086880312156124e1578283fd5b8535945060208601359350604086013567ffffffffffffffff811115612505578384fd5b612511888289016121ca565b909450925050606086013561252581612d92565b809150509295509295909350565b6000815180845260208085019450808401835b8381101561256657815161ffff1687529582019590820190600101612546565b509495945050505050565b60ff169052565b60609290921b6bffffffffffffffffffffffff19168252601482015260340190565b918252602082015260400190565b91825260601b6bffffffffffffffffffffffff1916602082015260340190565b6001600160a01b0391909116815260200190565b6001600160a01b0392831681529116602082015260400190565b6001600160a01b039384168152919092166020820152604081019190915260600190565b6001600160a01b0394909416845261ffff9290921660208401526040830152606082015260800190565b6001600160a01b03929092168252602082015260400190565b6001600160a01b0395909516855260ff93909316602085015261ffff9190911660408401526060830152608082015260a00190565b6000602082526115976020830184612533565b901515815260200190565b602081016126bd83612d66565b91905290565b60208082526014908201527f5061757361626c653a206e6f7420706175736564000000000000000000000000604082015260600190565b6020808252601d908201527f49474f3a204f7267616e697a6174696f6e204e616d6520657869737473000000604082015260600190565b6020808252600f908201527f49474f3a20696420696e76616c69640000000000000000000000000000000000604082015260600190565b60208082526010908201527f5061757361626c653a2070617573656400000000000000000000000000000000604082015260600190565b6020808252602e908201527f496e697469616c697a61626c653a20636f6e747261637420697320616c72656160408201527f647920696e697469616c697a6564000000000000000000000000000000000000606082015260800190565b6020808252600d908201527f6f6e6c794d61696e41646d696e00000000000000000000000000000000000000604082015260600190565b60208082526019908201527f49474f3a20696e73756666696369656e742062616c616e636500000000000000604082015260600190565b60208082526008908201527f49474f3a20343030000000000000000000000000000000000000000000000000604082015260600190565b6020808252601e908201527f49474f3a20557365206861766520616c726561647920636c61696d65642e0000604082015260600190565b6020808252601e908201527f49474f3a20706c6561736520617070726f766520666f74612066697273740000604082015260600190565b6020808252601a908201527f57686974656c6973743a206164647265737320696e76616c6964000000000000604082015260600190565b6020808252601d908201527f49474f3a206d61782062757920706572207573657220696e76616c6964000000604082015260600190565b6020808252601e908201527f49474f3a207472616e736665722075736420746f6b656e206661696c65640000604082015260600190565b60208082526019908201527f49474f3a207472616e7366657220666f7461206661696c656400000000000000604082015260600190565b60208082526023908201527f49474f3a20706c6561736520617070726f76652075736420746f6b656e20666960408201527f7273740000000000000000000000000000000000000000000000000000000000606082015260800190565b90815260200190565b60008682526020612a6187612d66565b868184015260a06040840152612a7a60a0840187612533565b8381036060850152855180825282870191830190845b81811015612aac57835183529284019291840191600101612a90565b50508093505050508260808301529695505050505050565b6000898252602060c0818401528860c0840152888a60e085013760e08984018101839052601f19601f8b011684018481038201604086015290810188905288908390610100015b89821015612b345761ffff612b1f8461220c565b16815291830191600191909101908301612b0b565b80945050505050846060830152612b4e6080830185612571565b612b5b60a0830184612571565b9998505050505050505050565b6000878252602060c08184015287518060c0850152825b81811015612b9b5789810183015185820160e001528201612b7f565b81811115612bac578360e083870101525b5060e0601f19601f83011685010192505050856040830152846060830152612bd76080830185612571565b612be460a0830184612571565b979650505050505050565b600061ffff808316818516808303821115612c0c57612c0c612d24565b01949350505050565b60008219821115612c2857612c28612d24565b500190565b600061ffff80841680612c4257612c42612d3a565b92169190910492915050565b600082612c5d57612c5d612d3a565b500490565b6000816000190483118215151615612c7c57612c7c612d24565b500290565b600082821015612c9357612c93612d24565b500390565b600281046001821680612cac57607f821691505b60208210811415612ccd57634e487b7160e01b600052602260045260246000fd5b50919050565b600061ffff80831681811415612ceb57612ceb612d24565b6001019392505050565b6000600019821415612d0957612d09612d24565b5060010190565b600082612d1f57612d1f612d3a565b500690565b634e487b7160e01b600052601160045260246000fd5b634e487b7160e01b600052601260045260246000fd5b634e487b7160e01b600052604160045260246000fd5b600381106109da57634e487b7160e01b600052602160045260246000fd5b80151581146109da57600080fd5b600381106109da57600080fdfea2646970667358221220f762f41ce14f5f2f38eb8e1f6b1f470cbc3c79852714e5031250ee4814e3d0ba64736f6c63430008000033",
  "immutableReferences": {},
  "source": "// SPDX-License-Identifier: GPL\n\npragma solidity 0.8.0;\n\nimport \"@openzeppelin/contracts-upgradeable/security/PausableUpgradeable.sol\";\nimport \"../libs/zeppelin/token/BEP20/IBEP20.sol\";\nimport \"../interfaces/IGameNFT.sol\";\nimport \"../interfaces/IFOTAPricer.sol\";\nimport \"../interfaces/IMarketPlace.sol\";\nimport \"../libs/fota/Auth.sol\";\nimport \"../libs/fota/MerkelProof.sol\";\nimport \"../libs/fota/StringUtil.sol\";\n\ncontract IGO is Auth, PausableUpgradeable {\n  using StringUtil for string;\n  struct Organization {\n    uint id;\n    string name;\n    bytes32 rootHash;\n    uint16[] nftClassIds;\n    uint price;\n    uint8 quantityPerNFT;\n    uint8 maxBuyPerUserPerClassId;\n  }\n  uint public totalOrganizations;\n  mapping (uint => Organization) public organizations;\n  mapping (bytes24 => bool) private organizationNames;\n  mapping(uint => mapping(uint => uint)) private claimedBitMap;\n\n  IBEP20 public fotaToken;\n  IBEP20 public busdToken;\n  IBEP20 public usdtToken;\n  IFOTAPricer public fotaPricer;\n  IMarketPlace.PaymentType public paymentType;\n  IGameNFT public itemToken;\n  IGameNFT public heroToken;\n  uint constant decimal3 = 1000;\n  address private fundAdmin;\n\n  event OrganizationAdded(\n    uint id,\n    string name,\n    uint16[] heroes,\n    uint price,\n    uint8 quantityPerNFT,\n    uint8 maxBuyPerUserPerClassId\n  );\n  event PricesUpdated(uint id, uint price);\n  event PaymentTypeChanged(IMarketPlace.PaymentType _newMethod);\n  event Claimed(\n    address indexed user,\n    uint id,\n    IMarketPlace.PaymentCurrency paymentCurrency,\n    uint16[] nftClassIds,\n    uint[] nftIds,\n    uint amount\n  );\n\n  function initialize(\n    address _mainAdmin,\n    address _fotaPricer,\n    address _itemNFT,\n    address _heroNFT\n  ) public initializer {\n    Auth.initialize(_mainAdmin);\n    fundAdmin = _mainAdmin;\n    fotaPricer = IFOTAPricer(_fotaPricer);\n    itemToken = IGameNFT(_itemNFT);\n    heroToken = IGameNFT(_heroNFT);\n    fotaToken = IBEP20(0x69c3FF5F466757BF99feF916aE9a191d7c13696c);\n    busdToken = IBEP20(0xD8aD05ff852ae4EB264089c377501494EA1D03C9);\n    usdtToken = IBEP20(0xa1D3c78f0f98f6ba7b08ec15df48E22880a0024c);\n    paymentType = IMarketPlace.PaymentType.usd;\n  }\n\n  // ADMIN FUNCTIONS\n\n  function updatePaymentType(IMarketPlace.PaymentType _type) external onlyMainAdmin {\n    paymentType = _type;\n    emit PaymentTypeChanged(_type);\n  }\n\n  function addOrganization(\n    string calldata _name,\n    bytes32 _rootHash,\n    uint16[] calldata _nftClassIds,\n    uint _price,\n    uint8 _quantityPerNFT,\n    uint8 _maxBuyPerUserPerClassId\n  ) external onlyMainAdmin {\n    require(!organizationNames[_name.toBytes24()], \"IGO: Organization Name exists\");\n    require(_nftClassIds.length * uint(_maxBuyPerUserPerClassId) > 0 && uint(_maxBuyPerUserPerClassId) <= _nftClassIds.length, \"IGO: max buy per user invalid\");\n    organizationNames[_name.toBytes24()] = true;\n    totalOrganizations += 1;\n\n    organizations[totalOrganizations].id = totalOrganizations;\n    organizations[totalOrganizations].name = _name;\n    organizations[totalOrganizations].rootHash = _rootHash;\n    organizations[totalOrganizations].nftClassIds = _nftClassIds;\n    organizations[totalOrganizations].quantityPerNFT = _quantityPerNFT;\n    organizations[totalOrganizations].maxBuyPerUserPerClassId = _maxBuyPerUserPerClassId;\n    organizations[totalOrganizations].price = _price;\n    emit OrganizationAdded(totalOrganizations, _name, _nftClassIds, _price, _quantityPerNFT, _maxBuyPerUserPerClassId);\n  }\n\n  function updatePrice(uint _id, uint _price) external onlyMainAdmin {\n    require(_id <= totalOrganizations, \"IGO: id invalid\");\n    organizations[_id].price = _price;\n    emit PricesUpdated(_id, _price);\n  }\n\n  function updateRootHash(uint _id, bytes32 _rootHash) external onlyMainAdmin {\n    require(_id <= totalOrganizations, \"IGO: id invalid\");\n    organizations[_id].rootHash = _rootHash;\n  }\n\n  function updatePauseStatus(bool _paused) external onlyMainAdmin {\n    if(_paused) {\n      _pause();\n    } else {\n      _unpause();\n    }\n  }\n\n  function updateFundAdmin(address _address) external onlyMainAdmin {\n    require(_address != address(0), \"Whitelist: address invalid\");\n    fundAdmin = _address;\n  }\n\n  // PUBLIC FUNCTIONS\n\n  function isClaimed(uint _id, uint _index) public view returns (bool) {\n    uint claimedWordIndex = _index / 256;\n    uint claimedBitIndex = _index % 256;\n    uint claimedWord = claimedBitMap[_id][claimedWordIndex];\n    uint mask = (1 << claimedBitIndex);\n    return claimedWord & mask == mask;\n  }\n\n  function claim(uint _id, uint _index, bytes32[] calldata _path, IMarketPlace.PaymentCurrency _paymentCurrency) external whenNotPaused {\n    require(!isClaimed(_id, _index), 'IGO: Use have already claimed.');\n    _setClaimed(_id, _index);\n\n    bytes32 hash = keccak256(abi.encodePacked(msg.sender, _index));\n    require(MerkleProof.verify(_path, organizations[_id].rootHash, hash), 'IGO: 400');\n    uint16[] memory ids = organizations[_id].nftClassIds;\n    bool haveRandom = organizations[_id].maxBuyPerUserPerClassId < organizations[_id].nftClassIds.length;\n    if (haveRandom) {\n      ids = _shuffle(ids);\n      for(uint i = organizations[_id].maxBuyPerUserPerClassId; i < organizations[_id].nftClassIds.length; i++) {\n        delete ids[i];\n      }\n    }\n    uint amount = _takeFund(_id, _paymentCurrency);\n    (uint16[] memory nftClassIds, uint[] memory nftIds) = _mintNFT(_id, ids);\n    emit Claimed(msg.sender, _id, _paymentCurrency, nftClassIds, nftIds, amount);\n  }\n\n  function getClassIds(uint _id) external view returns (uint16[] memory) {\n    require(_id <= totalOrganizations, \"IGO: id invalid\");\n    return organizations[_id].nftClassIds;\n  }\n\n  // PRIVATE FUNCTIONS\n\n  function _setClaimed(uint _id, uint _index) private {\n    uint claimedWordIndex = _index / 256;\n    uint claimedBitIndex = _index % 256;\n    claimedBitMap[_id][claimedWordIndex] = claimedBitMap[_id][claimedWordIndex] | (1 << claimedBitIndex);\n  }\n\n  function _shuffle(uint16[] memory _arrayIds) public view returns (uint16[] memory) {\n    for (uint16 i = 0; i < _arrayIds.length; i++) {\n      uint16 n = i + uint16(\n        uint(\n          keccak256(\n            abi.encodePacked(\n              block.timestamp,\n              msg.sender\n            )\n          )\n        ) % (_arrayIds.length - i)\n      );\n      uint16 temp = _arrayIds[n];\n      _arrayIds[n] = _arrayIds[i];\n      _arrayIds[i] = temp;\n    }\n    return _arrayIds;\n  }\n\n  function _takeFund(uint _id, IMarketPlace.PaymentCurrency _paymentCurrency) private returns (uint) {\n    uint amount = organizations[_id].price;\n    if (paymentType == IMarketPlace.PaymentType.fota) {\n      amount = amount * decimal3 / fotaPricer.fotaPrice();\n      _takeFundFOTA(amount);\n    } else if (paymentType == IMarketPlace.PaymentType.usd) {\n      _takeFundUSD(amount, _paymentCurrency);\n    } else if (_paymentCurrency == IMarketPlace.PaymentCurrency.fota) {\n      amount = amount * decimal3 / fotaPricer.fotaPrice();\n      _takeFundFOTA(amount);\n    } else {\n      _takeFundUSD(amount, _paymentCurrency);\n    }\n    return amount;\n  }\n\n  function _takeFundFOTA(uint _amount) private {\n    require(fotaToken.allowance(msg.sender, address(this)) >= _amount, \"IGO: please approve fota first\");\n    require(fotaToken.balanceOf(msg.sender) >= _amount, \"IGO: insufficient balance\");\n    require(fotaToken.transferFrom(msg.sender, address(this), _amount), \"IGO: transfer fota failed\");\n    fotaToken.transfer(fundAdmin, fotaToken.balanceOf(address(this)));\n  }\n\n  function _takeFundUSD(uint _amount, IMarketPlace.PaymentCurrency _paymentCurrency) private {\n    IBEP20 usdToken = _paymentCurrency == IMarketPlace.PaymentCurrency.busd ? busdToken : usdtToken;\n    require(usdToken.allowance(msg.sender, address(this)) >= _amount, \"IGO: please approve usd token first\");\n    require(usdToken.balanceOf(msg.sender) >= _amount, \"IGO: insufficient balance\");\n    require(usdToken.transferFrom(msg.sender, address(this), _amount), \"IGO: transfer usd token failed\");\n    usdToken.transfer(fundAdmin, usdToken.balanceOf(address(this)));\n  }\n\n  function _mintNFT(uint _id, uint16[] memory _ids) private returns (uint16[] memory, uint[] memory){\n    uint16[] memory classIds = new uint16[](_ids.length * organizations[_id].quantityPerNFT);\n    uint[] memory tokenIds = new uint[](_ids.length * organizations[_id].quantityPerNFT);\n    uint price = organizations[_id].price / _ids.length;\n    for(uint i = 0; i < _ids.length; i++) {\n      for (uint j = 0; j < organizations[_id].quantityPerNFT; j++) {\n        uint index = i * organizations[_id].quantityPerNFT + j;\n        if (_ids[i] > 100) {\n          tokenIds[index] = itemToken.mintItem(msg.sender, uint8(_ids[i] / 100), _ids[i], price, index);\n          classIds[index] = _ids[i];\n        } else if (_ids[i] > 0) {\n          tokenIds[index] = heroToken.mintHero(msg.sender, _ids[i], price, index);\n          classIds[index] = _ids[i];\n        }\n      }\n    }\n    return (classIds, tokenIds);\n  }\n}\n",
  "sourcePath": "/Users/dung/Documents/sources/fota-dapp/contracts/sales/IGO.sol",
  "compiler": {
    "name": "solc",
    "version": "0.8.0+commit.c7dfd78e.Emscripten.clang"
  },
  "schemaVersion": "3.3.4",
  "updatedAt": "2022-03-03T04:57:24.511Z",
  "networkType": "ethereum",
  "devdoc": {
    "kind": "dev",
    "methods": {
      "paused()": {
        "details": "Returns true if the contract is paused, and false otherwise."
      }
    },
    "version": 1
  },
  "userdoc": {
    "kind": "user",
    "methods": {},
    "version": 1
  }
}