{
  "contractName": "ItemUpgrading",
  "abi": [
    {
      "anonymous": false,
      "inputs": [
        {
          "indexed": true,
          "internalType": "address",
          "name": "_newOwner",
          "type": "address"
        }
      ],
      "name": "ContractAdminUpdated",
      "type": "event"
    },
    {
      "anonymous": false,
      "inputs": [
        {
          "indexed": true,
          "internalType": "address",
          "name": "_previousOwner",
          "type": "address"
        },
        {
          "indexed": true,
          "internalType": "address",
          "name": "_newOwner",
          "type": "address"
        }
      ],
      "name": "OwnershipTransferred",
      "type": "event"
    },
    {
      "anonymous": false,
      "inputs": [
        {
          "indexed": false,
          "internalType": "enum IMarketPlace.PaymentType",
          "name": "newMethod",
          "type": "uint8"
        }
      ],
      "name": "PaymentTypeChanged",
      "type": "event"
    },
    {
      "anonymous": false,
      "inputs": [
        {
          "indexed": true,
          "internalType": "address",
          "name": "_user",
          "type": "address"
        },
        {
          "indexed": false,
          "internalType": "uint8",
          "name": "_gene",
          "type": "uint8"
        },
        {
          "components": [
            {
              "internalType": "uint16",
              "name": "itemClass",
              "type": "uint16"
            },
            {
              "internalType": "uint256[]",
              "name": "materials",
              "type": "uint256[]"
            },
            {
              "internalType": "uint256",
              "name": "eatherId",
              "type": "uint256"
            },
            {
              "internalType": "enum IMarketPlace.PaymentCurrency",
              "name": "paymentCurrency",
              "type": "uint8"
            },
            {
              "internalType": "uint8",
              "name": "acceptedRatio",
              "type": "uint8"
            }
          ],
          "indexed": false,
          "internalType": "struct ItemUpgrading.UpgradingInfo",
          "name": "upgradingInfo",
          "type": "tuple"
        },
        {
          "indexed": false,
          "internalType": "uint256",
          "name": "_newTokenId",
          "type": "uint256"
        },
        {
          "indexed": false,
          "internalType": "uint256",
          "name": "_fee",
          "type": "uint256"
        },
        {
          "indexed": false,
          "internalType": "uint8",
          "name": "_acceptedRatio",
          "type": "uint8"
        },
        {
          "indexed": false,
          "internalType": "bool",
          "name": "success",
          "type": "bool"
        }
      ],
      "name": "Upgraded",
      "type": "event"
    },
    {
      "inputs": [],
      "name": "_isContractAdmin",
      "outputs": [
        {
          "internalType": "bool",
          "name": "",
          "type": "bool"
        }
      ],
      "stateMutability": "view",
      "type": "function"
    },
    {
      "inputs": [],
      "name": "_isMainAdmin",
      "outputs": [
        {
          "internalType": "bool",
          "name": "",
          "type": "bool"
        }
      ],
      "stateMutability": "view",
      "type": "function"
    },
    {
      "inputs": [],
      "name": "busdToken",
      "outputs": [
        {
          "internalType": "contract IBEP20",
          "name": "",
          "type": "address"
        }
      ],
      "stateMutability": "view",
      "type": "function"
    },
    {
      "inputs": [],
      "name": "contractAdmin",
      "outputs": [
        {
          "internalType": "address",
          "name": "",
          "type": "address"
        }
      ],
      "stateMutability": "view",
      "type": "function"
    },
    {
      "inputs": [
        {
          "internalType": "address",
          "name": "_tokenAddress",
          "type": "address"
        }
      ],
      "name": "drainToken",
      "outputs": [],
      "stateMutability": "nonpayable",
      "type": "function"
    },
    {
      "inputs": [],
      "name": "farmContract",
      "outputs": [
        {
          "internalType": "contract IFarm",
          "name": "",
          "type": "address"
        }
      ],
      "stateMutability": "view",
      "type": "function"
    },
    {
      "inputs": [],
      "name": "fotaPricer",
      "outputs": [
        {
          "internalType": "contract IFOTAPricer",
          "name": "",
          "type": "address"
        }
      ],
      "stateMutability": "view",
      "type": "function"
    },
    {
      "inputs": [],
      "name": "fotaToken",
      "outputs": [
        {
          "internalType": "contract IBEP20",
          "name": "",
          "type": "address"
        }
      ],
      "stateMutability": "view",
      "type": "function"
    },
    {
      "inputs": [],
      "name": "fundAdmin",
      "outputs": [
        {
          "internalType": "address",
          "name": "",
          "type": "address"
        }
      ],
      "stateMutability": "view",
      "type": "function"
    },
    {
      "inputs": [],
      "name": "itemNft",
      "outputs": [
        {
          "internalType": "contract IGameNFT",
          "name": "",
          "type": "address"
        }
      ],
      "stateMutability": "view",
      "type": "function"
    },
    {
      "inputs": [],
      "name": "mainAdmin",
      "outputs": [
        {
          "internalType": "address",
          "name": "",
          "type": "address"
        }
      ],
      "stateMutability": "view",
      "type": "function"
    },
    {
      "inputs": [
        {
          "internalType": "address",
          "name": "",
          "type": "address"
        }
      ],
      "name": "nonces",
      "outputs": [
        {
          "internalType": "uint256",
          "name": "",
          "type": "uint256"
        }
      ],
      "stateMutability": "view",
      "type": "function"
    },
    {
      "inputs": [],
      "name": "paymentType",
      "outputs": [
        {
          "internalType": "enum IMarketPlace.PaymentType",
          "name": "",
          "type": "uint8"
        }
      ],
      "stateMutability": "view",
      "type": "function"
    },
    {
      "inputs": [
        {
          "internalType": "bytes32",
          "name": "requestId",
          "type": "bytes32"
        },
        {
          "internalType": "uint256",
          "name": "randomness",
          "type": "uint256"
        }
      ],
      "name": "rawFulfillRandomness",
      "outputs": [],
      "stateMutability": "nonpayable",
      "type": "function"
    },
    {
      "inputs": [
        {
          "internalType": "address",
          "name": "_newOwner",
          "type": "address"
        }
      ],
      "name": "transferOwnership",
      "outputs": [],
      "stateMutability": "nonpayable",
      "type": "function"
    },
    {
      "inputs": [
        {
          "internalType": "address",
          "name": "_newAdmin",
          "type": "address"
        }
      ],
      "name": "updateContractAdmin",
      "outputs": [],
      "stateMutability": "nonpayable",
      "type": "function"
    },
    {
      "inputs": [
        {
          "internalType": "address",
          "name": "_farmContract",
          "type": "address"
        }
      ],
      "name": "updateFarmContract",
      "outputs": [],
      "stateMutability": "nonpayable",
      "type": "function"
    },
    {
      "inputs": [
        {
          "internalType": "address",
          "name": "_address",
          "type": "address"
        }
      ],
      "name": "updateFundAdmin",
      "outputs": [],
      "stateMutability": "nonpayable",
      "type": "function"
    },
    {
      "inputs": [
        {
          "internalType": "enum IMarketPlace.PaymentType",
          "name": "_type",
          "type": "uint8"
        }
      ],
      "name": "updatePaymentType",
      "outputs": [],
      "stateMutability": "nonpayable",
      "type": "function"
    },
    {
      "inputs": [],
      "name": "usdtToken",
      "outputs": [
        {
          "internalType": "contract IBEP20",
          "name": "",
          "type": "address"
        }
      ],
      "stateMutability": "view",
      "type": "function"
    },
    {
      "inputs": [
        {
          "internalType": "address",
          "name": "_mainAdmin",
          "type": "address"
        }
      ],
      "name": "initialize",
      "outputs": [],
      "stateMutability": "nonpayable",
      "type": "function"
    },
    {
      "inputs": [
        {
          "internalType": "string",
          "name": "_name",
          "type": "string"
        },
        {
          "internalType": "string",
          "name": "_version",
          "type": "string"
        },
        {
          "internalType": "address",
          "name": "_mainAdmin",
          "type": "address"
        },
        {
          "internalType": "address",
          "name": "_fundAdmin",
          "type": "address"
        },
        {
          "internalType": "address",
          "name": "_itemNft",
          "type": "address"
        },
        {
          "internalType": "address",
          "name": "_itemMap",
          "type": "address"
        },
        {
          "internalType": "address",
          "name": "_fotaPricer",
          "type": "address"
        }
      ],
      "name": "initialize",
      "outputs": [],
      "stateMutability": "nonpayable",
      "type": "function"
    },
    {
      "inputs": [
        {
          "internalType": "uint16",
          "name": "_itemClass",
          "type": "uint16"
        },
        {
          "internalType": "uint256[]",
          "name": "_materials",
          "type": "uint256[]"
        },
        {
          "internalType": "uint256",
          "name": "_eatherId",
          "type": "uint256"
        },
        {
          "internalType": "enum IMarketPlace.PaymentCurrency",
          "name": "_paymentCurrency",
          "type": "uint8"
        },
        {
          "internalType": "uint8",
          "name": "_acceptedRatio",
          "type": "uint8"
        },
        {
          "internalType": "string",
          "name": "_seed",
          "type": "string"
        },
        {
          "internalType": "bytes",
          "name": "_signature",
          "type": "bytes"
        }
      ],
      "name": "upgradeItem",
      "outputs": [],
      "stateMutability": "nonpayable",
      "type": "function"
    },
    {
      "inputs": [
        {
          "internalType": "address",
          "name": "_busdToken",
          "type": "address"
        },
        {
          "internalType": "address",
          "name": "_usdtToken",
          "type": "address"
        }
      ],
      "name": "setUsdToken",
      "outputs": [],
      "stateMutability": "nonpayable",
      "type": "function"
    },
    {
      "inputs": [
        {
          "internalType": "address",
          "name": "_fotaToken",
          "type": "address"
        }
      ],
      "name": "setFOTAToken",
      "outputs": [],
      "stateMutability": "nonpayable",
      "type": "function"
    }
  ],
  "bytecode": "0x608060405234801561001057600080fd5b50613cb1806100206000396000f3fe608060405234801561001057600080fd5b50600436106101a35760003560e01c80639eb0e965116100ee578063c91f0c5311610097578063e5e20f5d11610071578063e5e20f5d146102fd578063f2fde38b14610310578063fb6b04ba14610323578063fc87c4071461032b576101a3565b8063c91f0c53146102cf578063de0e7014146102e2578063e0b22c4c146102ea576101a3565b8063aca986c8116100c8578063aca986c8146102a1578063b7d6caec146102b4578063c4d66de8146102bc576101a3565b80639eb0e9651461027e578063a00245fa14610286578063a98ad46c14610299576101a3565b806348d002f2116101505780637ecebe001161012a5780637ecebe001461024357806394985ddd146102635780639c45658314610276576101a3565b806348d002f21461022b5780635e1c2f0a14610233578063779552451461023b576101a3565b8063141734821161018157806314173482146101f05780632763b8da1461020357806343a98b9b14610218576101a3565b806302e65b8a146101a85780630b39217e146101bd57806311541ce0146101db575b600080fd5b6101bb6101b6366004612c06565b61033e565b005b6101c56103c8565b6040516101d2919061310c565b60405180910390f35b6101e36103d7565b6040516101d29190613217565b6101bb6101fe366004612c06565b6103ee565b61020b6104d1565b6040516101d291906132b4565b6101bb610226366004612c06565b6104e1565b6101c5610527565b6101c5610536565b6101c5610545565b610256610251366004612c06565b610554565b6040516101d2919061306a565b6101bb610271366004612d6c565b610566565b6101c561059e565b6101c56105ad565b6101bb610294366004612d8d565b6105bc565b6101c561066d565b6101bb6102af366004612c06565b61067c565b6101e36106e8565b6101bb6102ca366004612c06565b6106f9565b6101bb6102dd366004612da9565b6107b6565b6101c561086f565b6101bb6102f8366004612c06565b61087e565b6101bb61030b366004612c45565b610947565b6101bb61031e366004612c06565b610999565b6101c5610a32565b6101bb610339366004612e69565b610a47565b6103466103d7565b61036b5760405162461bcd60e51b8152600401610362906137da565b60405180910390fd5b6001600160a01b03811661037e57600080fd5b600180546001600160a01b0319166001600160a01b0383169081179091556040517fe3f4a4b5b74aa6830627cb87c50cf7d4ed56e9b246729179ba634bbdc873177a90600090a250565b6041546001600160a01b031681565b6000546201000090046001600160a01b0316331490565b6103f66103d7565b6104125760405162461bcd60e51b8152600401610362906137da565b603e80546001600160a01b0319166001600160a01b0383811691909117909155603c546040517f095ea7b300000000000000000000000000000000000000000000000000000000815260001992919091169063095ea7b39061047a908590859060040161315e565b602060405180830381600087803b15801561049457600080fd5b505af11580156104a8573d6000803e3d6000fd5b505050506040513d601f19601f820116820180604052508101906104cc9190612d4c565b505050565b603d54600160a01b900460ff1681565b6104e96103d7565b6105055760405162461bcd60e51b8152600401610362906137da565b603c80546001600160a01b0319166001600160a01b0392909216919091179055565b603c546001600160a01b031681565b603d546001600160a01b031681565b6001546001600160a01b031681565b60396020526000908152604090205481565b6037546001600160a01b031633146105905760405162461bcd60e51b815260040161036290613996565b61059a8282610b62565b5050565b603f546001600160a01b031681565b603e546001600160a01b031681565b6105c46103d7565b6105e05760405162461bcd60e51b8152600401610362906137da565b603d80548291907fffffffffffffffffffffff00ffffffffffffffffffffffffffffffffffffffff16600160a01b83600281111561062e57634e487b7160e01b600052602160045260246000fd5b02179055507f42d1d4a3df940c5fa3c262d3d5b271a206cfc2e3da70683f81854b3f52f8f5d58160405161066291906132b4565b60405180910390a150565b603b546001600160a01b031681565b6106846103d7565b6106a05760405162461bcd60e51b8152600401610362906137da565b6001600160a01b0381166106c65760405162461bcd60e51b815260040161036290613483565b603f80546001600160a01b0319166001600160a01b0392909216919091179055565b6001546001600160a01b0316331490565b600054610100900460ff1680610712575060005460ff16155b61072e5760405162461bcd60e51b8152600401610362906136de565b600054610100900460ff16158015610759576000805460ff1961ff0019909116610100171660011790555b6000805475ffffffffffffffffffffffffffffffffffffffff00001916620100006001600160a01b03851690810291909117909155600180546001600160a01b0319169091179055801561059a576000805461ff00191690555050565b600054610100900460ff16806107cf575060005460ff16155b6107eb5760405162461bcd60e51b8152600401610362906136de565b600054610100900460ff16158015610816576000805460ff1961ff0019909116610100171660011790555b6108238888888886610b68565b604180546001600160a01b038087166001600160a01b03199283161790925560428054928616929091169190911790558015610865576000805461ff00191690555b5050505050505050565b603a546001600160a01b031681565b6108866103d7565b6108a25760405162461bcd60e51b8152600401610362906137da565b6040516370a0823160e01b815281906001600160a01b0382169063a9059cbb90339083906370a08231906108da90309060040161310c565b60206040518083038186803b1580156108f257600080fd5b505afa158015610906573d6000803e3d6000fd5b505050506040513d601f19601f8201168201806040525081019061092a9190612f60565b6040518363ffffffff1660e01b815260040161047a92919061315e565b61094f6103d7565b61096b5760405162461bcd60e51b8152600401610362906137da565b603a80546001600160a01b039384166001600160a01b031991821617909155603b8054929093169116179055565b6109a16103d7565b6109bd5760405162461bcd60e51b8152600401610362906137da565b6001600160a01b0381166109d057600080fd5b6000805475ffffffffffffffffffffffffffffffffffffffff00001916620100006001600160a01b038416908102919091178255604051909133917f8be0079c531659141344cd1fd0a4f28419497f9722a3daafe3b4186f6b6457e09190a350565b6000546201000090046001600160a01b031681565b610a52838383610cb2565b610a5c8985610dbb565b600080600080610a708d8d8d8d8d8d610e6a565b935093509350935060006040518060a001604052808f61ffff1681526020018e8e80806020026020016040519081016040528093929190818152602001838360200280828437600092019190915250505090825250602081018d90526040018b6002811115610aef57634e487b7160e01b600052602160045260246000fd5b81526020018a60ff1681525090506000610b0d828b8b8b8a8a611287565b9050610b51818f8f808060200260200160405190810160405280939291908181526020018383602002808284376000920191909152508a925089915088905061147c565b505050505050505050505050505050565b60405550565b600054610100900460ff1680610b81575060005460ff16155b610b9d5760405162461bcd60e51b8152600401610362906136de565b600054610100900460ff16158015610bc8576000805460ff1961ff0019909116610100171660011790555b610bd1846106f9565b610bdb8686611775565b603f80546001600160a01b038086166001600160a01b031992831617909255603d805492851692821692909217909155603c805482167369c3ff5f466757bf99fef916ae9a191d7c13696c179055603a8054821673d8ad05ff852ae4eb264089c377501494ea1d03c9179055603b805490911673a1d3c78f0f98f6ba7b08ec15df48e22880a0024c179055610c9873a555fc018435bef5a13c6c6870a9d4c11dec329c7384b9b910527ad5c03a9ca831909e21e236ea7b066117f5565b8015610caa576000805461ff00191690555b505050505050565b6000610d2f7f3542463edeca86467f10ee54f802a00104ee498b45b3e447642f9c71d079861b338686604051610ce9929190613081565b604080519182900382203360009081526039602090815292902054610d149594939192909101613222565b6040516020818303038152906040528051906020012061189b565b336000908152603960205260408120805492935090610d4d83613bab565b91905055506000610d5e82846118b6565b6001549091506001600160a01b03808316911614610d8e5760405162461bcd60e51b815260040161036290613681565b6001600160a01b038116610db45760405162461bcd60e51b815260040161036290613533565b5050505050565b604254604051634086f4ef60e11b81526000916001600160a01b03169063810de9de90610dec908690600401613aa9565b60006040518083038186803b158015610e0457600080fd5b505afa158015610e18573d6000803e3d6000fd5b505050506040513d6000823e601f3d908101601f19168201604052610e409190810190612c7d565b925050508060ff168260ff1611156104cc5760405162461bcd60e51b81526004016103629061364a565b604254604051634086f4ef60e11b815260009182918291829182916001600160a01b03169063810de9de90610ea3908e90600401613aa9565b60006040518083038186803b158015610ebb57600080fd5b505afa158015610ecf573d6000803e3d6000fd5b505050506040513d6000823e601f3d908101601f19168201604052610ef79190810190612c7d565b505080519091508914610f1c5760405162461bcd60e51b815260040161036290613a3b565b60005b898110156112485760008b8b83818110610f4957634e487b7160e01b600052603260045260246000fd5b6041546040516331a9108f60e11b815260209092029390930135935033926001600160a01b03169150636352211e90610f8690859060040161306a565b60206040518083038186803b158015610f9e57600080fd5b505afa158015610fb2573d6000803e3d6000fd5b505050506040513d601f19601f82011682018060405250810190610fd69190612c29565b6001600160a01b031614610ffc5760405162461bcd60e51b8152600401610362906134fc565b604154604051633129e77360e01b8152600091829182916001600160a01b031690633129e7739061103190879060040161306a565b60a06040518083038186803b15801561104957600080fd5b505afa15801561105d573d6000803e3d6000fd5b505050506040513d601f19601f820116820180604052508101906110819190612f78565b9450945050935050818a6110959190613b28565b99506110a1818b613b28565b99506110ad8289613b28565b97508585815181106110cf57634e487b7160e01b600052603260045260246000fd5b602002602001015161ffff168361ffff16146110fd5760405162461bcd60e51b8152600401610362906133ef565b60415460405163e985e9c560e01b81526000916001600160a01b03169063e985e9c5906111309033903090600401613120565b60206040518083038186803b15801561114857600080fd5b505afa15801561115c573d6000803e3d6000fd5b505050506040513d601f19601f820116820180604052508101906111809190612d4c565b80611211575060415460405163020604bf60e21b815230916001600160a01b03169063081812fc906111b690899060040161306a565b60206040518083038186803b1580156111ce57600080fd5b505afa1580156111e2573d6000803e3d6000fd5b505050506040513d601f19601f820116820180604052508101906112069190612c29565b6001600160a01b0316145b9050806112305760405162461bcd60e51b81526004016103629061373b565b5050505050808061124090613bab565b915050610f1f565b50611252886118da565b915061125f878c88611b6b565b935061126b8286613b28565b94506112778486613b28565b9450509650965096509692505050565b8551600090611297868689611c2d565b915060006112a6606483613b40565b905082156113a5576041546040517f882c3b0e0000000000000000000000000000000000000000000000000000000081526000916001600160a01b03169063882c3b0e90611300903390869088908c9088906004016131e2565b602060405180830381600087803b15801561131a57600080fd5b505af115801561132e573d6000803e3d6000fd5b505050506040513d601f19601f820116820180604052508101906113529190612f60565b9050336001600160a01b03167fac35545a2ae29c06c94502607d8260fcb37a86af0fc5e14103e7f91d4a5fd8fa838c84898e8a60405161139796959493929190613ab8565b60405180910390a2506113f2565b336001600160a01b03167fac35545a2ae29c06c94502607d8260fcb37a86af0fc5e14103e7f91d4a5fd8fa828b6000888d896040516113e996959493929190613ab8565b60405180910390a25b6041546040808b015190517f42966c680000000000000000000000000000000000000000000000000000000081526001600160a01b03909216916342966c689161143e9160040161306a565b600060405180830381600087803b15801561145857600080fd5b505af115801561146c573d6000803e3d6000fd5b5050505050509695505050505050565b84156115c75760005b84518110156115c15760415485516001600160a01b03909116906323b872dd90339030908990869081106114c957634e487b7160e01b600052603260045260246000fd5b60200260200101516040518463ffffffff1660e01b81526004016114ef9392919061313a565b600060405180830381600087803b15801561150957600080fd5b505af115801561151d573d6000803e3d6000fd5b505060415487516001600160a01b0390911692506342966c68915087908490811061155857634e487b7160e01b600052603260045260246000fd5b60200260200101516040518263ffffffff1660e01b815260040161157c919061306a565b600060405180830381600087803b15801561159657600080fd5b505af11580156115aa573d6000803e3d6000fd5b5050505080806115b990613bab565b915050611485565b50610db4565b60006115d38285613b28565b905060005b855181101561176c5760415486516000916001600160a01b031690633129e7739089908590811061161957634e487b7160e01b600052603260045260246000fd5b60200260200101516040518263ffffffff1660e01b815260040161163d919061306a565b60a06040518083038186803b15801561165557600080fd5b505afa158015611669573d6000803e3d6000fd5b505050506040513d601f19601f8201168201806040525081019061168d9190612f78565b509350505050600085116116b35760405162461bcd60e51b81526004016103629061386e565b60415487516001600160a01b0390911690631ab5f3a3908990859081106116ea57634e487b7160e01b600052603260045260246000fd5b60200260200101518784876116ff9190613b75565b6117099190613b61565b6040518363ffffffff1660e01b8152600401611726929190613073565b600060405180830381600087803b15801561174057600080fd5b505af1158015611754573d6000803e3d6000fd5b5050505050808061176490613bab565b9150506115d8565b50505050505050565b600054610100900460ff168061178e575060005460ff16155b6117aa5760405162461bcd60e51b8152600401610362906136de565b600054610100900460ff161580156117d5576000805460ff1961ff0019909116610100171660011790555b6117df8383611c59565b80156104cc576000805461ff0019169055505050565b600054610100900460ff168061180e575060005460ff16155b61182a5760405162461bcd60e51b8152600401610362906136de565b600054610100900460ff16158015611855576000805460ff1961ff0019909116610100171660011790555b603780546001600160a01b038086166001600160a01b031992831617909255603680549285169290911691909117905580156104cc576000805461ff0019169055505050565b60006118ae6118a8611cec565b83611d2c565b90505b919050565b60008060006118c58585611d5f565b915091506118d281611dcf565b509392505050565b6041546040516331a9108f60e11b815260009133916001600160a01b0390911690636352211e9061190f90869060040161306a565b60206040518083038186803b15801561192757600080fd5b505afa15801561193b573d6000803e3d6000fd5b505050506040513d601f19601f8201168201806040525081019061195f9190612c29565b6001600160a01b0316146119855760405162461bcd60e51b815260040161036290613590565b604154604051633129e77360e01b815260009182916001600160a01b0390911690633129e773906119ba90879060040161306a565b60a06040518083038186803b1580156119d257600080fd5b505afa1580156119e6573d6000803e3d6000fd5b505050506040513d601f19601f82011682018060405250810190611a0a9190612f78565b509350505060ff1691508161ffff16600014611a385760405162461bcd60e51b81526004016103629061335b565b60415460405163e985e9c560e01b81526000916001600160a01b03169063e985e9c590611a6b9033903090600401613120565b60206040518083038186803b158015611a8357600080fd5b505afa158015611a97573d6000803e3d6000fd5b505050506040513d601f19601f82011682018060405250810190611abb9190612d4c565b80611b4c575060415460405163020604bf60e21b815230916001600160a01b03169063081812fc90611af190899060040161306a565b60206040518083038186803b158015611b0957600080fd5b505afa158015611b1d573d6000803e3d6000fd5b505050506040513d601f19601f82011682018060405250810190611b419190612c29565b6001600160a01b0316145b9050806118d25760405162461bcd60e51b815260040161036290613426565b604254604051634086f4ef60e11b8152600091829182916001600160a01b03169063810de9de90611ba0908890600401613aa9565b60006040518083038186803b158015611bb857600080fd5b505afa158015611bcc573d6000803e3d6000fd5b505050506040513d6000823e601f3d908101601f19168201604052611bf49190810190612c7d565b92509250508060ff168460ff1683611c0c9190613b75565b611c169190613b61565b9250611c2486846000611eff565b50509392505050565b600080611c3d8585604054612088565b9050611c476120a1565b5060ff80841691161090509392505050565b600054610100900460ff1680611c72575060005460ff16155b611c8e5760405162461bcd60e51b8152600401610362906136de565b600054610100900460ff16158015611cb9576000805460ff1961ff0019909116610100171660011790555b825160208085019190912083519184019190912060029190915560035580156104cc576000805461ff0019169055505050565b6000611d277f8b73c3c69bb8fe3d512ecc4cf759cc79239f7b179b0ffacaa9a75d522b39400f611d1a61217e565b611d22612184565b61218a565b905090565b60008282604051602001611d41929190613091565b60405160208183030381529060405280519060200120905092915050565b600080825160411415611d965760208301516040840151606085015160001a611d8a878285856121c4565b94509450505050611dc8565b825160401415611dc05760208301516040840151611db58683836122a4565b935093505050611dc8565b506000905060025b9250929050565b6000816004811115611df157634e487b7160e01b600052602160045260246000fd5b1415611dfc57611efc565b6001816004811115611e1e57634e487b7160e01b600052602160045260246000fd5b1415611e3c5760405162461bcd60e51b8152600401610362906132c7565b6002816004811115611e5e57634e487b7160e01b600052602160045260246000fd5b1415611e7c5760405162461bcd60e51b8152600401610362906133b8565b6003816004811115611e9e57634e487b7160e01b600052602160045260246000fd5b1415611ebc5760405162461bcd60e51b8152600401610362906134ba565b6004816004811115611ede57634e487b7160e01b600052602160045260246000fd5b1415611efc5760405162461bcd60e51b815260040161036290613798565b50565b6000603d54600160a01b900460ff166002811115611f2d57634e487b7160e01b600052602160045260246000fd5b1415611fd257603d54604080516319c2286960e31b81529051611fcd926001600160a01b03169163ce114348916004808301926020929190829003018186803b158015611f7957600080fd5b505afa158015611f8d573d6000803e3d6000fd5b505050506040513d601f19601f82011682018060405250810190611fb19190612f60565b611fbd6103e885613b75565b611fc79190613b61565b826122ec565b6104cc565b6001603d54600160a01b900460ff16600281111561200057634e487b7160e01b600052602160045260246000fd5b141561201057611fcd838361262d565b600083600281111561203257634e487b7160e01b600052602160045260246000fd5b141561207e57603d54604080516319c2286960e31b81529051611fcd926001600160a01b03169163ce114348916004808301926020929190829003018186803b158015611f7957600080fd5b6104cc838361262d565b60006120998484846000606361292f565b949350505050565b6036546040516370a0823160e01b815260009167016345785d8a0000916001600160a01b03909116906370a08231906120de90309060040161310c565b60206040518083038186803b1580156120f657600080fd5b505afa15801561210a573d6000803e3d6000fd5b505050506040513d601f19601f8201168201806040525081019061212e9190612f60565b101561214c5760405162461bcd60e51b8152600401610362906132fe565b611d277fcaf3c3727e033261d383b315559476f48034c13b18f8cafed4d871abe504918667016345785d8a00006129e4565b60025490565b60035490565b600083838346306040516020016121a5959493929190613246565b6040516020818303038152906040528051906020012090509392505050565b6000807f7fffffffffffffffffffffffffffffff5d576e7357a4501ddfe92f46681b20a08311156121fb575060009050600361229b565b8460ff16601b1415801561221357508460ff16601c14155b15612224575060009050600461229b565b6000600187878787604051600081526020016040526040516122499493929190613296565b6020604051602081039080840390855afa15801561226b573d6000803e3d6000fd5b5050604051601f1901519150506001600160a01b0381166122945760006001925092505061229b565b9150600090505b94509492505050565b6000807f7fffffffffffffffffffffffffffffffffffffffffffffffffffffffffffffff831660ff84901c601b016122de878288856121c4565b935093505050935093915050565b603c546040517fdd62ed3e00000000000000000000000000000000000000000000000000000000815283916001600160a01b03169063dd62ed3e906123379033903090600401613120565b60206040518083038186803b15801561234f57600080fd5b505afa158015612363573d6000803e3d6000fd5b505050506040513d601f19601f820116820180604052508101906123879190612f60565b10156123a55760405162461bcd60e51b815260040161036290613a72565b603c546040516370a0823160e01b815283916001600160a01b0316906370a08231906123d590339060040161310c565b60206040518083038186803b1580156123ed57600080fd5b505afa158015612401573d6000803e3d6000fd5b505050506040513d601f19601f820116820180604052508101906124259190612f60565b10156124435760405162461bcd60e51b8152600401610362906139cd565b603c546040516323b872dd60e01b81526001600160a01b03909116906323b872dd906124779033903090879060040161313a565b602060405180830381600087803b15801561249157600080fd5b505af11580156124a5573d6000803e3d6000fd5b505050506040513d601f19601f820116820180604052508101906124c99190612d4c565b6124e55760405162461bcd60e51b81526004016103629061395f565b600081600181111561250757634e487b7160e01b600052602160045260246000fd5b14156125b657603c54603f5460405163a9059cbb60e01b81526001600160a01b039283169263a9059cbb9261254392911690869060040161315e565b602060405180830381600087803b15801561255d57600080fd5b505af1158015612571573d6000803e3d6000fd5b505050506040513d601f19601f820116820180604052508101906125959190612d4c565b6125b15760405162461bcd60e51b8152600401610362906135ed565b61059a565b603e546040517fea102eda0000000000000000000000000000000000000000000000000000000081526001600160a01b039091169063ea102eda906125ff90859060040161306a565b600060405180830381600087803b15801561261957600080fd5b505af1158015610caa573d6000803e3d6000fd5b600082600281111561264f57634e487b7160e01b600052602160045260246000fd5b141561266d5760405162461bcd60e51b8152600401610362906138cb565b6000600183600281111561269157634e487b7160e01b600052602160045260246000fd5b146126a757603b546001600160a01b03166126b4565b603a546001600160a01b03165b905081816001600160a01b031663dd62ed3e33306040518363ffffffff1660e01b81526004016126e5929190613120565b60206040518083038186803b1580156126fd57600080fd5b505afa158015612711573d6000803e3d6000fd5b505050506040513d601f19601f820116820180604052508101906127359190612f60565b10156127535760405162461bcd60e51b815260040161036290613811565b6040516370a0823160e01b815282906001600160a01b038316906370a082319061278190339060040161310c565b60206040518083038186803b15801561279957600080fd5b505afa1580156127ad573d6000803e3d6000fd5b505050506040513d601f19601f820116820180604052508101906127d19190612f60565b10156127ef5760405162461bcd60e51b815260040161036290613902565b6040516323b872dd60e01b81526001600160a01b038216906323b872dd9061281f9033903090879060040161313a565b602060405180830381600087803b15801561283957600080fd5b505af115801561284d573d6000803e3d6000fd5b505050506040513d601f19601f820116820180604052508101906128719190612d4c565b61288d5760405162461bcd60e51b8152600401610362906135ed565b603f5460405163a9059cbb60e01b81526001600160a01b038381169263a9059cbb926128c19290911690869060040161315e565b602060405180830381600087803b1580156128db57600080fd5b505af11580156128ef573d6000803e3d6000fd5b505050506040513d601f19601f820116820180604052508101906129139190612d4c565b6104cc5760405162461bcd60e51b8152600401610362906135ed565b60008282116129505760405162461bcd60e51b815260040161036290613a04565b600061295c8484613b94565b612967906001613b28565b434442338b8b8b60405160200161298497969594939291906130c7565b604051602081830303815290604052805190602001206040516020016129aa919061306a565b6040516020818303038152906040528051906020012060001c6129cd9190613bc6565b90506129d98482613b28565b979650505050505050565b6036546037546040516000926001600160a01b0390811692634000aea0929116908590612a179088908790602001613073565b6040516020818303038152906040526040518463ffffffff1660e01b8152600401612a4493929190613177565b602060405180830381600087803b158015612a5e57600080fd5b505af1158015612a72573d6000803e3d6000fd5b505050506040513d601f19601f82011682018060405250810190612a969190612d4c565b50600083815260386020526040812054612ab590859083903090612aeb565b600085815260386020526040902054909150612ad2906001613b28565b6000858152603860205260409020556120998482612b25565b600084848484604051602001612b049493929190613272565b60408051601f19818403018152919052805160209091012095945050505050565b60008282604051602001611d41929190613073565b600082601f830112612b4a578081fd5b813567ffffffffffffffff811115612b6457612b64613c06565b612b77601f8201601f1916602001613afe565b818152846020838601011115612b8b578283fd5b816020850160208301379081016020019190915292915050565b80356118b181613c4f565b60008083601f840112612bc1578182fd5b50813567ffffffffffffffff811115612bd8578182fd5b602083019150836020828501011115611dc857600080fd5b80356118b181613c6c565b80516118b181613c6c565b600060208284031215612c17578081fd5b8135612c2281613c3a565b9392505050565b600060208284031215612c3a578081fd5b8151612c2281613c3a565b60008060408385031215612c57578081fd5b8235612c6281613c3a565b91506020830135612c7281613c3a565b809150509250929050565b600080600060608486031215612c91578081fd5b835167ffffffffffffffff80821115612ca8578283fd5b818601915086601f830112612cbb578283fd5b8151602082821115612ccf57612ccf613c06565b8082029250612cdf818401613afe565b8281528181019085830185870184018c1015612cf9578788fd5b8796505b84871015612d275780519550612d1286613c5c565b85835260019690960195918301918301612cfd565b50809850505080880151955050505050612d4360408501612bfb565b90509250925092565b600060208284031215612d5d578081fd5b81518015158114612c22578182fd5b60008060408385031215612d7e578182fd5b50508035926020909101359150565b600060208284031215612d9e578081fd5b8135612c2281613c4f565b600080600080600080600060e0888a031215612dc3578485fd5b873567ffffffffffffffff80821115612dda578687fd5b612de68b838c01612b3a565b985060208a0135915080821115612dfb578687fd5b50612e088a828b01612b3a565b9650506040880135612e1981613c3a565b94506060880135612e2981613c3a565b93506080880135612e3981613c3a565b925060a0880135612e4981613c3a565b915060c0880135612e5981613c3a565b8091505092959891949750929550565b600080600080600080600080600060e08a8c031215612e86578283fd5b8935612e9181613c5c565b985060208a013567ffffffffffffffff80821115612ead578485fd5b818c0191508c601f830112612ec0578485fd5b813581811115612ece578586fd5b8d60208083028501011115612ee1578586fd5b602083019a50985060408c01359750612efc60608d01612ba5565b9650612f0a60808d01612bf0565b955060a08c0135915080821115612f1f578485fd5b612f2b8d838e01612bb0565b909550935060c08c0135915080821115612f43578283fd5b50612f508c828d01612b3a565b9150509295985092959850929598565b600060208284031215612f71578081fd5b5051919050565b600080600080600060a08688031215612f8f578283fd5b8551612f9a81613c6c565b6020870151909550612fab81613c5c565b6040870151606088015160809098015196999198509695945092505050565b612fd381613c1c565b9052565b600060a0830161ffff835116845260208084015160a08287015282815180855260c08801915083830194508592505b808310156130265784518252938301936001929092019190830190613006565b5060408601516040880152606086015193506130456060880185612fca565b608086015193506130596080880185613063565b9695505050505050565b60ff169052565b90815260200190565b918252602082015260400190565b6000828483379101908152919050565b7f190100000000000000000000000000000000000000000000000000000000000081526002810192909252602282015260420190565b60008882528760208301528660408301526bffffffffffffffffffffffff198660601b1660608301528385607484013750607492019182015260940195945050505050565b6001600160a01b0391909116815260200190565b6001600160a01b0392831681529116602082015260400190565b6001600160a01b039384168152919092166020820152604081019190915260600190565b6001600160a01b03929092168252602082015260400190565b60006001600160a01b038516825260208481840152606060408401528351806060850152825b818110156131b95785810183015185820160800152820161319d565b818111156131ca5783608083870101525b50601f01601f19169290920160800195945050505050565b6001600160a01b0395909516855260ff93909316602085015261ffff9190911660408401526060830152608082015260a00190565b901515815260200190565b9384526001600160a01b039290921660208401526040830152606082015260800190565b9485526020850193909352604084019190915260608301526001600160a01b0316608082015260a00190565b93845260208401929092526001600160a01b03166040830152606082015260800190565b93845260ff9290921660208401526040830152606082015260800190565b602081016132c183613c1c565b91905290565b60208082526018908201527f45434453413a20696e76616c6964207369676e61747572650000000000000000604082015260600190565b6020808252603a908201527f4e465420557067726164696e673a204e6f7420656e6f756768204c494e4b202d60408201527f2066696c6c20636f6e7472616374207769746820666175636574000000000000606082015260800190565b60208082526023908201527f4974656d20557067726164696e673a20696e76616c696420656174686572206960408201527f74656d0000000000000000000000000000000000000000000000000000000000606082015260800190565b6020808252601f908201527f45434453413a20696e76616c6964207369676e6174757265206c656e67746800604082015260600190565b6020808252601d908201527f4974656d20557067726164696e673a20696e76616c696420636c617373000000604082015260600190565b60208082526031908201527f4974656d20557067726164696e673a20706c6561736520617070726f7665206560408201527f617468657220746f6b656e206669727374000000000000000000000000000000606082015260800190565b6020808252601c908201527f4d61726b6574506c6163653a20696e76616c6964206164647265737300000000604082015260600190565b60208082526022908201527f45434453413a20696e76616c6964207369676e6174757265202773272076616c604082015261756560f01b606082015260800190565b60208082526019908201527f4974656d20557067726164696e673a206e6f74206f776e657200000000000000604082015260600190565b60208082526023908201527f45434453415570677261646561626c653a20696e76616c6964207369676e617460408201527f7572650000000000000000000000000000000000000000000000000000000000606082015260800190565b60208082526029908201527f4974656d20557067726164696e673a206e6f74206f776e6572206f662065617460408201527f68657220746f6b656e0000000000000000000000000000000000000000000000606082015260800190565b60208082526028908201527f4e465420557067726164696e673a207472616e736665722075736420746f6b6560408201527f6e206661696c6564000000000000000000000000000000000000000000000000606082015260800190565b6020808252601d908201527f4974656d20557067726164696e673a20696e76616c696420726174696f000000604082015260600190565b60208082526022908201527f4d65737361676556657269666965723a20696e76616c6964207369676e61747560408201527f7265000000000000000000000000000000000000000000000000000000000000606082015260800190565b6020808252602e908201527f496e697469616c697a61626c653a20636f6e747261637420697320616c72656160408201527f647920696e697469616c697a6564000000000000000000000000000000000000606082015260800190565b6020808252602a908201527f4974656d20557067726164696e673a20706c6561736520617070726f7665207460408201527f6f6b656e20666972737400000000000000000000000000000000000000000000606082015260800190565b60208082526022908201527f45434453413a20696e76616c6964207369676e6174757265202776272076616c604082015261756560f01b606082015260800190565b6020808252600d908201527f6f6e6c794d61696e41646d696e00000000000000000000000000000000000000604082015260600190565b6020808252602d908201527f4e465420557067726164696e673a20706c6561736520617070726f766520757360408201527f6420746f6b656e20666972737400000000000000000000000000000000000000606082015260800190565b6020808252602a908201527f4974656d20557067726164696e673a20746f74616c206f776e2070726963652060408201527f697320696e76616c696400000000000000000000000000000000000000000000606082015260800190565b60208082526018908201527f7061796d656e742063757272656e637920696e76616c69640000000000000000604082015260600190565b60208082526023908201527f4e465420557067726164696e673a20696e73756666696369656e742062616c6160408201527f6e63650000000000000000000000000000000000000000000000000000000000606082015260800190565b60208082526014908201527f7472616e7366657220666f7461206661696c6564000000000000000000000000604082015260600190565b6020808252601f908201527f4f6e6c7920565246436f6f7264696e61746f722063616e2066756c66696c6c00604082015260600190565b60208082526018908201527f706c656173652066756e6420796f7572206163636f756e740000000000000000604082015260600190565b60208082526013908201527f4d6174683a20496e76616c69642072616e676500000000000000000000000000604082015260600190565b6020808252601d908201527f4974656d20557067726164696e673a20696e76616c696420696e707574000000604082015260600190565b60208082526019908201527f706c6561736520617070726f766520666f746120666972737400000000000000604082015260600190565b61ffff91909116815260200190565b600060ff8816825260c06020830152613ad460c0830188612fd7565b905085604083015284606083015260ff8416608083015282151560a0830152979650505050505050565b60405181810167ffffffffffffffff81118282101715613b2057613b20613c06565b604052919050565b60008219821115613b3b57613b3b613bda565b500190565b600061ffff80841680613b5557613b55613bf0565b92169190910492915050565b600082613b7057613b70613bf0565b500490565b6000816000190483118215151615613b8f57613b8f613bda565b500290565b600082821015613ba657613ba6613bda565b500390565b6000600019821415613bbf57613bbf613bda565b5060010190565b600082613bd557613bd5613bf0565b500690565b634e487b7160e01b600052601160045260246000fd5b634e487b7160e01b600052601260045260246000fd5b634e487b7160e01b600052604160045260246000fd5b60038110611efc57634e487b7160e01b600052602160045260246000fd5b6001600160a01b0381168114611efc57600080fd5b60038110611efc57600080fd5b61ffff81168114611efc57600080fd5b60ff81168114611efc57600080fdfea2646970667358221220921bda2ba93aefa2bb00307d77ef47e94d6fbfc6711cf4e0f8a1fb11c3d8276664736f6c63430008000033",
  "immutableReferences": {},
  "source": "// SPDX-License-Identifier: GPL\n\npragma solidity 0.8.0;\n\nimport \"../interfaces/IGameNFT.sol\";\nimport \"../interfaces/IItemUpgradingMap.sol\";\nimport \"../interfaces/IMarketPlace.sol\";\nimport \"./BaseUpgrading.sol\";\n\ncontract ItemUpgrading is BaseUpgrading {\n  IGameNFT public itemNft;\n\n  struct UpgradingInfo {\n    uint16 itemClass;\n    uint[] materials;\n    uint eatherId;\n    IMarketPlace.PaymentCurrency paymentCurrency;\n    uint8 acceptedRatio;\n  }\n\n  IItemUpgradingMap itemMap;\n\n  event Upgraded(address indexed _user, uint8 _gene, UpgradingInfo upgradingInfo, uint _newTokenId, uint _fee, uint8 _acceptedRatio, bool success);\n\n  function initialize(\n    string memory _name,\n    string memory _version,\n    address _mainAdmin,\n    address _fundAdmin,\n    address _itemNft,\n    address _itemMap,\n    address _fotaPricer\n  ) public initializer {\n    super.initialize(_name, _version, _mainAdmin, _fundAdmin, _fotaPricer);\n    itemNft = IGameNFT(_itemNft);\n    itemMap = IItemUpgradingMap(_itemMap);\n  }\n\n  function upgradeItem(\n    uint16 _itemClass,\n    uint[] calldata _materials,\n    uint _eatherId,\n    IMarketPlace.PaymentCurrency _paymentCurrency,\n    uint8 _acceptedRatio,\n    string calldata _seed,\n    bytes memory _signature\n  ) external {\n    _validateSeed(_seed, _signature);\n    _validateRatio(_itemClass, _acceptedRatio);\n    (uint ownPriceFeeWhenSuccess, uint fee, uint totalOwnPrice, uint eatherOwnPrice) = _validateMaterials(_itemClass, _materials, _eatherId, _paymentCurrency, _acceptedRatio);\n    UpgradingInfo memory upgradingInfo = UpgradingInfo(_itemClass, _materials, _eatherId, _paymentCurrency, _acceptedRatio);\n    bool success = _upgradeItem(upgradingInfo, _acceptedRatio, _seed, ownPriceFeeWhenSuccess, fee);\n\n    _finishUpgrade(success, _materials, fee, totalOwnPrice, eatherOwnPrice);\n  }\n\n  // PRIVATE FUNCTIONS\n\n  function _validateSeed(\n    string calldata _seed,\n    bytes memory _signature\n  ) override internal {\n    bytes32 digest = _hashTypedDataV4(keccak256(abi.encode(\n        keccak256(\"UpgradeItem(address user,string seed,uint256 nonce)\"),\n        msg.sender,\n        keccak256(bytes(_seed)),\n        nonces[msg.sender]\n      )));\n    nonces[msg.sender]++;\n    address signer = ECDSAUpgradeable.recover(digest, _signature);\n    require(signer == contractAdmin, \"MessageVerifier: invalid signature\");\n    require(signer != address(0), \"ECDSAUpgradeable: invalid signature\");\n  }\n\n  function _validateMaterials(\n    uint16 _itemClass,\n    uint[] calldata _suppliedMaterialIds,\n    uint _eatherId,\n    IMarketPlace.PaymentCurrency _paymentCurrency,\n    uint8 _acceptedRatio\n  ) private returns (uint ownPriceFeeWhenSuccess, uint fee, uint totalOwnPrice, uint eatherOwnPrice) {\n    ownPriceFeeWhenSuccess = 0;\n    fee = 0;\n    totalOwnPrice = 0;\n    (uint16[] memory materials,,) = itemMap.getItem(_itemClass);\n    require(materials.length == _suppliedMaterialIds.length, \"Item Upgrading: invalid input\");\n    for(uint i = 0; i < _suppliedMaterialIds.length; i++) {\n      uint tokenId = _suppliedMaterialIds[i];\n      require(itemNft.ownerOf(tokenId) == msg.sender, \"Item Upgrading: not owner\");\n      (,uint16 suppliedMaterialClass,,uint suppliedItemOwnPrice,uint suppliedFailedUpgradingAmount) = itemNft.getItem(tokenId);\n      ownPriceFeeWhenSuccess += suppliedItemOwnPrice;\n      ownPriceFeeWhenSuccess += suppliedFailedUpgradingAmount;\n      totalOwnPrice += suppliedItemOwnPrice;\n      require(suppliedMaterialClass == materials[i], \"Item Upgrading: invalid class\");\n      bool approvedItem = itemNft.isApprovedForAll(msg.sender, address(this)) || itemNft.getApproved(tokenId) == address(this);\n      require(approvedItem, \"Item Upgrading: please approve token first\");\n    }\n    eatherOwnPrice = _validateEather(_eatherId);\n    fee = _takeFund(_paymentCurrency, _itemClass, _acceptedRatio);\n    ownPriceFeeWhenSuccess += eatherOwnPrice;\n    ownPriceFeeWhenSuccess += fee;\n  }\n\n  function _validateEather(uint _eatherId) private view returns (uint) {\n    require(itemNft.ownerOf(_eatherId) == msg.sender, \"Item Upgrading: not owner of eather token\");\n    (uint16 eatherGene,,,uint eatherOwnPrice,) = itemNft.getItem(_eatherId);\n    require(eatherGene == 0, \"Item Upgrading: invalid eather item\");\n    bool approvedEather = itemNft.isApprovedForAll(msg.sender, address(this)) || itemNft.getApproved(_eatherId) == address(this);\n    require(approvedEather, \"Item Upgrading: please approve eather token first\");\n    return eatherOwnPrice;\n  }\n\n  function _takeFund(IMarketPlace.PaymentCurrency _paymentCurrency, uint16 _itemClass, uint8 _acceptedRatio) private returns (uint _upgradingFee){\n    (,uint fee,uint8 successRatio) = itemMap.getItem(_itemClass);\n    _upgradingFee = fee * uint(_acceptedRatio) / uint(successRatio);\n    takeFund(_paymentCurrency, _upgradingFee, Implementation.Item);\n  }\n\n  function _upgradeItem(\n    UpgradingInfo memory _upgradingInfo,\n    uint8 _acceptedRatio,\n    string calldata _seed,\n    uint _ownPrice,\n    uint _fee\n  ) private returns (bool success) {\n    uint16 itemClass = _upgradingInfo.itemClass;\n\n    success = isSuccess(_seed, _acceptedRatio);\n    uint8 gene = uint8(itemClass / 100);\n    if (success) {\n      uint newTokenId = itemNft.mintItem(msg.sender, gene, itemClass, _ownPrice, 0);\n      emit Upgraded(msg.sender, gene, _upgradingInfo, newTokenId, _fee, _acceptedRatio, success);\n    } else {\n      emit Upgraded(msg.sender, gene, _upgradingInfo, 0, _fee, _acceptedRatio, success);\n    }\n    itemNft.burn(_upgradingInfo.eatherId);\n  }\n\n  function _validateRatio(uint16 _itemClass, uint8 _acceptedRatio) private view {\n    (,,uint8 successRatio) = itemMap.getItem(_itemClass);\n    require(_acceptedRatio <= successRatio, \"Item Upgrading: invalid ratio\");\n  }\n\n  function _finishUpgrade(\n    bool _success,\n    uint[] memory _materials,\n    uint _fee,\n    uint _totalMaterialOwnPrice,\n    uint _eatherOwnPrice\n  ) private {\n    if (_success) {\n      for(uint i = 0; i < _materials.length; i++) {\n        itemNft.transferFrom(msg.sender, address(this), _materials[i]);\n        itemNft.burn(_materials[i]);\n      }\n    } else {\n      uint _totalFee = _fee + _eatherOwnPrice;\n      for(uint i = 0; i < _materials.length; i++) {\n        (,,,uint suppliedItemOwnPrice,) = itemNft.getItem(_materials[i]);\n        require(_totalMaterialOwnPrice > 0, \"Item Upgrading: total own price is invalid\");\n        itemNft.updateFailedUpgradingAmount(_materials[i], _totalFee * suppliedItemOwnPrice / _totalMaterialOwnPrice);\n      }\n    }\n  }\n\n  // TODO for testing purpose\n  function setUsdToken(address _busdToken, address _usdtToken) external onlyMainAdmin {\n    busdToken = IBEP20(_busdToken);\n    usdtToken = IBEP20(_usdtToken);\n  }\n\n  function setFOTAToken(address _fotaToken) external onlyMainAdmin {\n    fotaToken = IBEP20(_fotaToken);\n  }\n}\n",
  "sourcePath": "/Users/dung/Documents/sources/fota-dapp/contracts/upgradings/ItemUpgrading.sol",
  "compiler": {
    "name": "solc",
    "version": "0.8.0+commit.c7dfd78e.Emscripten.clang"
  },
  "schemaVersion": "3.3.4",
  "updatedAt": "2022-03-03T04:57:24.325Z",
  "networkType": "ethereum",
  "devdoc": {
    "kind": "dev",
    "methods": {},
    "version": 1
  },
  "userdoc": {
    "kind": "user",
    "methods": {},
    "version": 1
  }
}