{
  "contractName": "ItemNFT",
  "abi": [
    {
      "anonymous": false,
      "inputs": [
        {
          "indexed": true,
          "internalType": "address",
          "name": "owner",
          "type": "address"
        },
        {
          "indexed": true,
          "internalType": "address",
          "name": "approved",
          "type": "address"
        },
        {
          "indexed": true,
          "internalType": "uint256",
          "name": "tokenId",
          "type": "uint256"
        }
      ],
      "name": "Approval",
      "type": "event"
    },
    {
      "anonymous": false,
      "inputs": [
        {
          "indexed": true,
          "internalType": "address",
          "name": "owner",
          "type": "address"
        },
        {
          "indexed": true,
          "internalType": "address",
          "name": "operator",
          "type": "address"
        },
        {
          "indexed": false,
          "internalType": "bool",
          "name": "approved",
          "type": "bool"
        }
      ],
      "name": "ApprovalForAll",
      "type": "event"
    },
    {
      "anonymous": false,
      "inputs": [
        {
          "indexed": false,
          "internalType": "uint16",
          "name": "classId",
          "type": "uint16"
        },
        {
          "indexed": false,
          "internalType": "uint256[7]",
          "name": "baseStrength",
          "type": "uint256[7]"
        }
      ],
      "name": "BaseStrengthUpdated",
      "type": "event"
    },
    {
      "anonymous": false,
      "inputs": [
        {
          "indexed": true,
          "internalType": "address",
          "name": "_newOwner",
          "type": "address"
        }
      ],
      "name": "ContractAdminUpdated",
      "type": "event"
    },
    {
      "anonymous": false,
      "inputs": [
        {
          "indexed": false,
          "internalType": "uint256",
          "name": "tokenId",
          "type": "uint256"
        },
        {
          "indexed": false,
          "internalType": "uint256",
          "name": "amount",
          "type": "uint256"
        }
      ],
      "name": "FailedUpgradingAmountUpdated",
      "type": "event"
    },
    {
      "anonymous": false,
      "inputs": [
        {
          "indexed": false,
          "internalType": "uint256",
          "name": "tokenId",
          "type": "uint256"
        },
        {
          "indexed": false,
          "internalType": "uint256",
          "name": "minPrice",
          "type": "uint256"
        }
      ],
      "name": "MinPriceUpdated",
      "type": "event"
    },
    {
      "anonymous": false,
      "inputs": [
        {
          "indexed": false,
          "internalType": "uint16",
          "name": "_gene",
          "type": "uint16"
        },
        {
          "indexed": false,
          "internalType": "uint16",
          "name": "_classId",
          "type": "uint16"
        }
      ],
      "name": "NewClassAdded",
      "type": "event"
    },
    {
      "anonymous": false,
      "inputs": [
        {
          "indexed": false,
          "internalType": "uint256",
          "name": "tokenId",
          "type": "uint256"
        },
        {
          "indexed": false,
          "internalType": "uint256",
          "name": "ownPrice",
          "type": "uint256"
        }
      ],
      "name": "OwnPriceUpdated",
      "type": "event"
    },
    {
      "anonymous": false,
      "inputs": [
        {
          "indexed": true,
          "internalType": "address",
          "name": "_previousOwner",
          "type": "address"
        },
        {
          "indexed": true,
          "internalType": "address",
          "name": "_newOwner",
          "type": "address"
        }
      ],
      "name": "OwnershipTransferred",
      "type": "event"
    },
    {
      "anonymous": false,
      "inputs": [
        {
          "indexed": true,
          "internalType": "address",
          "name": "from",
          "type": "address"
        },
        {
          "indexed": true,
          "internalType": "address",
          "name": "to",
          "type": "address"
        },
        {
          "indexed": true,
          "internalType": "uint256",
          "name": "tokenId",
          "type": "uint256"
        }
      ],
      "name": "Transfer",
      "type": "event"
    },
    {
      "inputs": [],
      "name": "_isContractAdmin",
      "outputs": [
        {
          "internalType": "bool",
          "name": "",
          "type": "bool"
        }
      ],
      "stateMutability": "view",
      "type": "function",
      "constant": true
    },
    {
      "inputs": [],
      "name": "_isMainAdmin",
      "outputs": [
        {
          "internalType": "bool",
          "name": "",
          "type": "bool"
        }
      ],
      "stateMutability": "view",
      "type": "function",
      "constant": true
    },
    {
      "inputs": [
        {
          "internalType": "address",
          "name": "to",
          "type": "address"
        },
        {
          "internalType": "uint256",
          "name": "tokenId",
          "type": "uint256"
        }
      ],
      "name": "approve",
      "outputs": [],
      "stateMutability": "nonpayable",
      "type": "function"
    },
    {
      "inputs": [
        {
          "internalType": "address",
          "name": "owner",
          "type": "address"
        }
      ],
      "name": "balanceOf",
      "outputs": [
        {
          "internalType": "uint256",
          "name": "",
          "type": "uint256"
        }
      ],
      "stateMutability": "view",
      "type": "function",
      "constant": true
    },
    {
      "inputs": [
        {
          "internalType": "uint256",
          "name": "tokenId",
          "type": "uint256"
        }
      ],
      "name": "burn",
      "outputs": [],
      "stateMutability": "nonpayable",
      "type": "function"
    },
    {
      "inputs": [
        {
          "internalType": "uint16",
          "name": "",
          "type": "uint16"
        }
      ],
      "name": "classIds",
      "outputs": [
        {
          "internalType": "bool",
          "name": "",
          "type": "bool"
        }
      ],
      "stateMutability": "view",
      "type": "function",
      "constant": true
    },
    {
      "inputs": [],
      "name": "contractAdmin",
      "outputs": [
        {
          "internalType": "address",
          "name": "",
          "type": "address"
        }
      ],
      "stateMutability": "view",
      "type": "function",
      "constant": true
    },
    {
      "inputs": [
        {
          "internalType": "uint16",
          "name": "",
          "type": "uint16"
        }
      ],
      "name": "creators",
      "outputs": [
        {
          "internalType": "address",
          "name": "",
          "type": "address"
        }
      ],
      "stateMutability": "view",
      "type": "function",
      "constant": true
    },
    {
      "inputs": [
        {
          "internalType": "address",
          "name": "",
          "type": "address"
        }
      ],
      "name": "gameContracts",
      "outputs": [
        {
          "internalType": "bool",
          "name": "",
          "type": "bool"
        }
      ],
      "stateMutability": "view",
      "type": "function",
      "constant": true
    },
    {
      "inputs": [
        {
          "internalType": "uint256",
          "name": "tokenId",
          "type": "uint256"
        }
      ],
      "name": "getApproved",
      "outputs": [
        {
          "internalType": "address",
          "name": "",
          "type": "address"
        }
      ],
      "stateMutability": "view",
      "type": "function",
      "constant": true
    },
    {
      "inputs": [
        {
          "internalType": "address",
          "name": "owner",
          "type": "address"
        },
        {
          "internalType": "address",
          "name": "operator",
          "type": "address"
        }
      ],
      "name": "isApprovedForAll",
      "outputs": [
        {
          "internalType": "bool",
          "name": "",
          "type": "bool"
        }
      ],
      "stateMutability": "view",
      "type": "function",
      "constant": true
    },
    {
      "inputs": [
        {
          "internalType": "uint256",
          "name": "",
          "type": "uint256"
        }
      ],
      "name": "items",
      "outputs": [
        {
          "internalType": "uint8",
          "name": "gene",
          "type": "uint8"
        },
        {
          "internalType": "uint16",
          "name": "class",
          "type": "uint16"
        },
        {
          "internalType": "uint256",
          "name": "createdAt",
          "type": "uint256"
        },
        {
          "internalType": "uint256",
          "name": "ownPrice",
          "type": "uint256"
        },
        {
          "internalType": "uint256",
          "name": "failedUpgradingAmount",
          "type": "uint256"
        }
      ],
      "stateMutability": "view",
      "type": "function",
      "constant": true
    },
    {
      "inputs": [],
      "name": "mainAdmin",
      "outputs": [
        {
          "internalType": "address",
          "name": "",
          "type": "address"
        }
      ],
      "stateMutability": "view",
      "type": "function",
      "constant": true
    },
    {
      "inputs": [
        {
          "internalType": "address",
          "name": "",
          "type": "address"
        }
      ],
      "name": "mintAdmins",
      "outputs": [
        {
          "internalType": "bool",
          "name": "",
          "type": "bool"
        }
      ],
      "stateMutability": "view",
      "type": "function",
      "constant": true
    },
    {
      "inputs": [],
      "name": "name",
      "outputs": [
        {
          "internalType": "string",
          "name": "",
          "type": "string"
        }
      ],
      "stateMutability": "view",
      "type": "function",
      "constant": true
    },
    {
      "inputs": [
        {
          "internalType": "address",
          "name": "",
          "type": "address"
        }
      ],
      "name": "nonces",
      "outputs": [
        {
          "internalType": "uint256",
          "name": "",
          "type": "uint256"
        }
      ],
      "stateMutability": "view",
      "type": "function",
      "constant": true
    },
    {
      "inputs": [
        {
          "internalType": "uint256",
          "name": "tokenId",
          "type": "uint256"
        }
      ],
      "name": "ownerOf",
      "outputs": [
        {
          "internalType": "address",
          "name": "",
          "type": "address"
        }
      ],
      "stateMutability": "view",
      "type": "function",
      "constant": true
    },
    {
      "inputs": [
        {
          "internalType": "address",
          "name": "from",
          "type": "address"
        },
        {
          "internalType": "address",
          "name": "to",
          "type": "address"
        },
        {
          "internalType": "uint256",
          "name": "tokenId",
          "type": "uint256"
        }
      ],
      "name": "safeTransferFrom",
      "outputs": [],
      "stateMutability": "nonpayable",
      "type": "function"
    },
    {
      "inputs": [
        {
          "internalType": "address",
          "name": "from",
          "type": "address"
        },
        {
          "internalType": "address",
          "name": "to",
          "type": "address"
        },
        {
          "internalType": "uint256",
          "name": "tokenId",
          "type": "uint256"
        },
        {
          "internalType": "bytes",
          "name": "_data",
          "type": "bytes"
        }
      ],
      "name": "safeTransferFrom",
      "outputs": [],
      "stateMutability": "nonpayable",
      "type": "function"
    },
    {
      "inputs": [
        {
          "internalType": "address",
          "name": "operator",
          "type": "address"
        },
        {
          "internalType": "bool",
          "name": "approved",
          "type": "bool"
        }
      ],
      "name": "setApprovalForAll",
      "outputs": [],
      "stateMutability": "nonpayable",
      "type": "function"
    },
    {
      "inputs": [
        {
          "internalType": "uint16",
          "name": "_class",
          "type": "uint16"
        },
        {
          "internalType": "address",
          "name": "_creator",
          "type": "address"
        }
      ],
      "name": "setCreator",
      "outputs": [],
      "stateMutability": "nonpayable",
      "type": "function"
    },
    {
      "inputs": [
        {
          "internalType": "bytes4",
          "name": "interfaceId",
          "type": "bytes4"
        }
      ],
      "name": "supportsInterface",
      "outputs": [
        {
          "internalType": "bool",
          "name": "",
          "type": "bool"
        }
      ],
      "stateMutability": "view",
      "type": "function",
      "constant": true
    },
    {
      "inputs": [],
      "name": "symbol",
      "outputs": [
        {
          "internalType": "string",
          "name": "",
          "type": "string"
        }
      ],
      "stateMutability": "view",
      "type": "function",
      "constant": true
    },
    {
      "inputs": [
        {
          "internalType": "uint256",
          "name": "tokenId",
          "type": "uint256"
        }
      ],
      "name": "tokenURI",
      "outputs": [
        {
          "internalType": "string",
          "name": "",
          "type": "string"
        }
      ],
      "stateMutability": "view",
      "type": "function",
      "constant": true
    },
    {
      "inputs": [
        {
          "internalType": "address",
          "name": "from",
          "type": "address"
        },
        {
          "internalType": "address",
          "name": "to",
          "type": "address"
        },
        {
          "internalType": "uint256",
          "name": "tokenId",
          "type": "uint256"
        }
      ],
      "name": "transferFrom",
      "outputs": [],
      "stateMutability": "nonpayable",
      "type": "function"
    },
    {
      "inputs": [
        {
          "internalType": "address",
          "name": "_newOwner",
          "type": "address"
        }
      ],
      "name": "transferOwnership",
      "outputs": [],
      "stateMutability": "nonpayable",
      "type": "function"
    },
    {
      "inputs": [
        {
          "internalType": "address",
          "name": "",
          "type": "address"
        }
      ],
      "name": "transferable",
      "outputs": [
        {
          "internalType": "bool",
          "name": "",
          "type": "bool"
        }
      ],
      "stateMutability": "view",
      "type": "function",
      "constant": true
    },
    {
      "inputs": [
        {
          "internalType": "address",
          "name": "_newAdmin",
          "type": "address"
        }
      ],
      "name": "updateContractAdmin",
      "outputs": [],
      "stateMutability": "nonpayable",
      "type": "function"
    },
    {
      "inputs": [
        {
          "internalType": "address",
          "name": "_contract",
          "type": "address"
        },
        {
          "internalType": "bool",
          "name": "_status",
          "type": "bool"
        }
      ],
      "name": "updateGameContract",
      "outputs": [],
      "stateMutability": "nonpayable",
      "type": "function"
    },
    {
      "inputs": [
        {
          "internalType": "address",
          "name": "_address",
          "type": "address"
        },
        {
          "internalType": "bool",
          "name": "_mintAble",
          "type": "bool"
        }
      ],
      "name": "updateMintAdmin",
      "outputs": [],
      "stateMutability": "nonpayable",
      "type": "function"
    },
    {
      "inputs": [
        {
          "internalType": "address",
          "name": "_address",
          "type": "address"
        },
        {
          "internalType": "bool",
          "name": "_transferable",
          "type": "bool"
        }
      ],
      "name": "updateTransferable",
      "outputs": [],
      "stateMutability": "nonpayable",
      "type": "function"
    },
    {
      "inputs": [
        {
          "internalType": "address",
          "name": "_contract",
          "type": "address"
        }
      ],
      "name": "updateUpgradingContract",
      "outputs": [],
      "stateMutability": "nonpayable",
      "type": "function"
    },
    {
      "inputs": [],
      "name": "upgradingContract",
      "outputs": [
        {
          "internalType": "address",
          "name": "",
          "type": "address"
        }
      ],
      "stateMutability": "view",
      "type": "function",
      "constant": true
    },
    {
      "inputs": [
        {
          "internalType": "address",
          "name": "_mainAdmin",
          "type": "address"
        }
      ],
      "name": "initialize",
      "outputs": [],
      "stateMutability": "nonpayable",
      "type": "function"
    },
    {
      "inputs": [
        {
          "internalType": "address",
          "name": "_mainAdmin",
          "type": "address"
        },
        {
          "internalType": "string",
          "name": "_name",
          "type": "string"
        },
        {
          "internalType": "string",
          "name": "_symbol",
          "type": "string"
        }
      ],
      "name": "initialize",
      "outputs": [],
      "stateMutability": "nonpayable",
      "type": "function"
    },
    {
      "inputs": [
        {
          "internalType": "address",
          "name": "_owner",
          "type": "address"
        },
        {
          "internalType": "uint8",
          "name": "_gene",
          "type": "uint8"
        },
        {
          "internalType": "uint16",
          "name": "_class",
          "type": "uint16"
        },
        {
          "internalType": "uint256",
          "name": "_price",
          "type": "uint256"
        },
        {
          "internalType": "uint256",
          "name": "_index",
          "type": "uint256"
        }
      ],
      "name": "mintItem",
      "outputs": [
        {
          "internalType": "uint256",
          "name": "",
          "type": "uint256"
        }
      ],
      "stateMutability": "nonpayable",
      "type": "function"
    },
    {
      "inputs": [
        {
          "internalType": "address",
          "name": "_owner",
          "type": "address"
        },
        {
          "internalType": "uint8",
          "name": "_gene",
          "type": "uint8"
        },
        {
          "internalType": "uint16",
          "name": "_class",
          "type": "uint16"
        },
        {
          "internalType": "uint256",
          "name": "_price",
          "type": "uint256"
        },
        {
          "internalType": "uint256",
          "name": "_quantity",
          "type": "uint256"
        }
      ],
      "name": "mintItems",
      "outputs": [],
      "stateMutability": "nonpayable",
      "type": "function"
    },
    {
      "inputs": [
        {
          "internalType": "uint256",
          "name": "_tokenId",
          "type": "uint256"
        }
      ],
      "name": "getItem",
      "outputs": [
        {
          "internalType": "uint8",
          "name": "",
          "type": "uint8"
        },
        {
          "internalType": "uint16",
          "name": "",
          "type": "uint16"
        },
        {
          "internalType": "uint256",
          "name": "",
          "type": "uint256"
        },
        {
          "internalType": "uint256",
          "name": "",
          "type": "uint256"
        },
        {
          "internalType": "uint256",
          "name": "",
          "type": "uint256"
        }
      ],
      "stateMutability": "view",
      "type": "function",
      "constant": true
    },
    {
      "inputs": [
        {
          "internalType": "uint16",
          "name": "_classId",
          "type": "uint16"
        }
      ],
      "name": "getStrengthIndexReferences",
      "outputs": [
        {
          "internalType": "uint256",
          "name": "",
          "type": "uint256"
        },
        {
          "internalType": "uint256",
          "name": "",
          "type": "uint256"
        },
        {
          "internalType": "uint256",
          "name": "",
          "type": "uint256"
        },
        {
          "internalType": "uint256",
          "name": "",
          "type": "uint256"
        },
        {
          "internalType": "uint256",
          "name": "",
          "type": "uint256"
        },
        {
          "internalType": "uint256",
          "name": "",
          "type": "uint256"
        },
        {
          "internalType": "uint256",
          "name": "",
          "type": "uint256"
        }
      ],
      "stateMutability": "view",
      "type": "function",
      "constant": true
    },
    {
      "inputs": [
        {
          "internalType": "uint256",
          "name": "_tokenId",
          "type": "uint256"
        }
      ],
      "name": "getClassId",
      "outputs": [
        {
          "internalType": "uint16",
          "name": "",
          "type": "uint16"
        }
      ],
      "stateMutability": "view",
      "type": "function",
      "constant": true
    },
    {
      "inputs": [
        {
          "internalType": "uint256",
          "name": "_tokenId",
          "type": "uint256"
        }
      ],
      "name": "getCreator",
      "outputs": [
        {
          "internalType": "address",
          "name": "",
          "type": "address"
        }
      ],
      "stateMutability": "view",
      "type": "function",
      "constant": true
    },
    {
      "inputs": [
        {
          "internalType": "uint16",
          "name": "_classId",
          "type": "uint16"
        },
        {
          "internalType": "uint256[7]",
          "name": "_strengths",
          "type": "uint256[7]"
        }
      ],
      "name": "updateBaseStrengths",
      "outputs": [],
      "stateMutability": "nonpayable",
      "type": "function"
    },
    {
      "inputs": [
        {
          "internalType": "uint8",
          "name": "_gene",
          "type": "uint8"
        },
        {
          "internalType": "uint16",
          "name": "_classId",
          "type": "uint16"
        },
        {
          "internalType": "address",
          "name": "_creator",
          "type": "address"
        },
        {
          "internalType": "uint256[7]",
          "name": "_strengths",
          "type": "uint256[7]"
        }
      ],
      "name": "addItemClass",
      "outputs": [],
      "stateMutability": "nonpayable",
      "type": "function"
    },
    {
      "inputs": [
        {
          "internalType": "uint256",
          "name": "_tokenId",
          "type": "uint256"
        },
        {
          "internalType": "uint256",
          "name": "_ownPrice",
          "type": "uint256"
        }
      ],
      "name": "updateOwnPrice",
      "outputs": [],
      "stateMutability": "nonpayable",
      "type": "function"
    },
    {
      "inputs": [
        {
          "internalType": "uint256",
          "name": "_tokenId",
          "type": "uint256"
        },
        {
          "internalType": "uint256",
          "name": "_amount",
          "type": "uint256"
        }
      ],
      "name": "updateFailedUpgradingAmount",
      "outputs": [],
      "stateMutability": "nonpayable",
      "type": "function"
    }
  ],
  "bytecode": "0x608060405234801561001057600080fd5b5061399f806100206000396000f3fe608060405234801561001057600080fd5b50600436106102ff5760003560e01c8063882c3b0e1161019c578063bfb231d2116100ee578063e021b69311610097578063e9ac2d2e11610071578063e9ac2d2e14610650578063f2fde38b14610663578063fb6b04ba14610676576102ff565b8063e021b69314610617578063e24994371461062a578063e985e9c51461063d576102ff565b8063c87b56dd116100c8578063c87b56dd146105de578063c9be0bd8146105f1578063d48e638a14610604576102ff565b8063bfb231d2146105b0578063c4d66de8146105c3578063c86b685e146105d6576102ff565b8063965b590511610150578063acb1e61f1161012a578063acb1e61f14610582578063b7d6caec14610595578063b88d4fde1461059d576102ff565b8063965b590514610549578063a22cb4651461055c578063a6621b351461056f576102ff565b80638a8e1730116101815780638a8e17301461050e578063906571471461052e57806395d89b4114610541576102ff565b8063882c3b0e146104e857806388e4a10f146104fb576102ff565b806339dcb0b9116102555780636ddd474d116102095780637b03ae13116101e35780637b03ae13146104af5780637ecebe00146104c257806382715a3b146104d5576102ff565b80636ddd474d1461047457806370a082311461048757806377955245146104a7576102ff565b806342842e0e1161023a57806342842e0e1461043b57806342966c681461044e5780636352211e14610461576102ff565b806339dcb0b9146104025780633ade8c6814610428576102ff565b806311541ce0116102b757806323b872dd1161029157806323b872dd146103b85780633129e773146103cb57806336214046146103ef576102ff565b806311541ce01461038a57806317581de7146103925780631ab5f3a3146103a5576102ff565b806306fdde03116102e857806306fdde0314610342578063081812fc14610357578063095ea7b314610377576102ff565b806301ffc9a71461030457806302e65b8a1461032d575b600080fd5b610317610312366004612eee565b61067e565b60405161032491906130bf565b60405180910390f35b61034061033b366004612c66565b6106f8565b005b61034a610782565b60405161032491906130ca565b61036a610365366004612f86565b610814565b604051610324919061306f565b610340610385366004612e71565b610857565b6103176108ef565b6103176103a0366004612c66565b610906565b6103406103b3366004612f9e565b61091b565b6103406103c6366004612cb2565b6109a2565b6103de6103d9366004612f86565b6109da565b6040516103249594939291906137ed565b6103406103fd366004612f40565b610a0e565b610415610410366004612f26565b610a66565b60405161032497969594939291906137a6565b61036a610436366004612f26565b610aa7565b610340610449366004612cb2565b610ac2565b61034061045c366004612f86565b610add565b61036a61046f366004612f86565b610b27565b610317610482366004612c66565b610b5c565b61049a610495366004612c66565b610b71565b604051610324919061378f565b61036a610bb5565b6103406104bd366004612c66565b610bc4565b61049a6104d0366004612c66565b610c30565b6103406104e3366004612fbf565b610c42565b61049a6104f6366004612e9a565b610d30565b610340610509366004612db9565b610e32565b61052161051c366004612f86565b610ea7565b6040516103249190613761565b61034061053c366004612df3565b610ec2565b61034a610f51565b610340610557366004612f5b565b610f60565b61034061056a366004612db9565b610fe1565b61034061057d366004612f9e565b6110af565b610317610590366004612c66565b611129565b61031761113e565b6103406105ab366004612ced565b61114f565b6103de6105be366004612f86565b61118e565b6103406105d1366004612c66565b6111c2565b61036a6111ce565b61034a6105ec366004612f86565b6111dd565b6103176105ff366004612f26565b611260565b61036a610612366004612f86565b611275565b610340610625366004612db9565b6112a6565b610340610638366004612db9565b61131b565b61031761064b366004612c80565b611390565b61034061065e366004612e9a565b6113c0565b610340610671366004612c66565b61141d565b61036a6114b6565b60006001600160e01b031982167f80ac58cd0000000000000000000000000000000000000000000000000000000014806106e157506001600160e01b031982167f5b5e139f00000000000000000000000000000000000000000000000000000000145b806106f057506106f0826114cb565b90505b919050565b6107006108ef565b6107255760405162461bcd60e51b815260040161071c9061346a565b60405180910390fd5b6001600160a01b03811661073857600080fd5b600180546001600160a01b0319166001600160a01b0383169081179091556040517fe3f4a4b5b74aa6830627cb87c50cf7d4ed56e9b246729179ba634bbdc873177a90600090a250565b6060606a8054610791906138a7565b80601f01602080910402602001604051908101604052809291908181526020018280546107bd906138a7565b801561080a5780601f106107df5761010080835404028352916020019161080a565b820191906000526020600020905b8154815290600101906020018083116107ed57829003601f168201915b5050505050905090565b600061081f826114fd565b61083b5760405162461bcd60e51b815260040161071c906134d6565b506000908152606e60205260409020546001600160a01b031690565b600061086282610b27565b9050806001600160a01b0316836001600160a01b031614156108965760405162461bcd60e51b815260040161071c90613613565b806001600160a01b03166108a861151a565b6001600160a01b031614806108c457506108c48161064b61151a565b6108e05760405162461bcd60e51b815260040161071c906132bf565b6108ea838361151e565b505050565b6000546201000090046001600160a01b0316331490565b60346020526000908152604090205460ff1681565b61092361158c565b8061093157506109316108ef565b61094d5760405162461bcd60e51b815260040161071c90613288565b6000828152609f6020526040908190206003810183905590517f8f21cd2a7841e8779d88a0b8dff3a4627b5fd4ead98b161abf5a398d6c8b8f8d906109959085908590613798565b60405180910390a1505050565b6109b36109ad61151a565b826115bc565b6109cf5760405162461bcd60e51b815260040161071c906136a7565b6108ea838383611641565b6000908152609f6020526040902080546001820154600283015460039093015460ff83169461010090930461ffff16939192565b610a166108ef565b610a325760405162461bcd60e51b815260040161071c9061346a565b61ffff919091166000908152609c6020526040902080546001600160a01b0319166001600160a01b03909216919091179055565b61ffff16600090815260a160205260409020805460018201546002830154600384015460048501546005860154600690960154949693959294919390929190565b609c602052600090815260409020546001600160a01b031681565b6108ea8383836040518060200160405280600081525061114f565b610ae86109ad61151a565b610b045760405162461bcd60e51b815260040161071c90613704565b609e805460ff19166001179055610b1a8161176e565b50609e805460ff19169055565b6000818152606c60205260408120546001600160a01b0316806106f05760405162461bcd60e51b815260040161071c906133b0565b60366020526000908152604090205460ff1681565b60006001600160a01b038216610b995760405162461bcd60e51b815260040161071c90613353565b506001600160a01b03166000908152606d602052604090205490565b6001546001600160a01b031681565b610bcc6108ef565b610be85760405162461bcd60e51b815260040161071c9061346a565b6001600160a01b038116610c0e5760405162461bcd60e51b815260040161071c906135dc565b603780546001600160a01b0319166001600160a01b0392909216919091179055565b609d6020526000908152604090205481565b610c4a6108ef565b610c665760405162461bcd60e51b815260040161071c9061346a565b61ffff8316600090815260a0602052604090205460ff1615610c9a5760405162461bcd60e51b815260040161071c90613171565b61ffff8316600090815260a060209081526040808320805460ff19166001179055609c825280832080546001600160a01b0387166001600160a01b031990911617905560a19091529020610cf090826007612b0d565b507fbfdbf01f8a327fceb1191908b7a220acec6a68398274c318bc22f118c3e549308484604051610d229291906137d6565b60405180910390a150505050565b6000610d3a61158c565b80610d485750610d486108ef565b610d645760405162461bcd60e51b815260040161071c90613288565b61ffff8416600090815260a0602052604090205460ff16610d975760405162461bcd60e51b815260040161071c9061331c565b6000610da283611815565b9050610dae8782611878565b6040805160a08101825260ff978816815261ffff96871660208083019182524283850190815260608401988952600060808501818152878252609f9093529490942092518354925160ff199093169a169990991762ffff00191661010091909816029690961786555160018601559251600285015550509151600390910155919050565b610e3a6108ef565b610e565760405162461bcd60e51b815260040161071c9061346a565b6001600160a01b038216610e7c5760405162461bcd60e51b815260040161071c906135dc565b6001600160a01b03919091166000908152603460205260409020805460ff1916911515919091179055565b6000908152609f6020526040902054610100900461ffff1690565b600054610100900460ff1680610edb575060005460ff16155b610ef75760405162461bcd60e51b815260040161071c9061340d565b600054610100900460ff16158015610f22576000805460ff1961ff0019909116610100171660011790555b610f2f8686868686611957565b610f376119da565b8015610f49576000805461ff00191690555b505050505050565b6060606b8054610791906138a7565b610f686108ef565b610f845760405162461bcd60e51b815260040161071c9061346a565b61ffff8216600090815260a160205260409020610fa390826007612b0d565b507fe28874ac083fe20865bff06ca188c28fac7a0c98eb80a54c811f384df9b4609f8282604051610fd5929190613770565b60405180910390a15050565b610fe961151a565b6001600160a01b0316826001600160a01b0316141561101a5760405162461bcd60e51b815260040161071c90613205565b80606f600061102761151a565b6001600160a01b03908116825260208083019390935260409182016000908120918716808252919093529120805460ff19169215159290921790915561106b61151a565b6001600160a01b03167f17307eab39ab6107e8899845ad3d59bd9653f200f220920489ca2b5937696c31836040516110a391906130bf565b60405180910390a35050565b6110b761158c565b806110c557506110c56108ef565b6110e15760405162461bcd60e51b815260040161071c90613288565b6000828152609f6020526040908190206002810183905590517ffdaaf93720302021b7d6406c19b136fef68421732d76d76d21761176f8e2a563906109959085908590613798565b60356020526000908152604090205460ff1681565b6001546001600160a01b0316331490565b61116061115a61151a565b836115bc565b61117c5760405162461bcd60e51b815260040161071c906136a7565b6111888484848461254e565b50505050565b609f60205260009081526040902080546001820154600283015460039093015460ff83169361010090930461ffff16929085565b6111cb81612581565b50565b6037546001600160a01b031681565b60606111e8826114fd565b6112045760405162461bcd60e51b815260040161071c9061357f565b600061120e61263f565b9050600081511161122e5760405180602001604052806000815250611259565b8061123884612651565b604051602001611249929190613040565b6040516020818303038152906040525b9392505050565b60a06020526000908152604090205460ff1681565b6000908152609f6020908152604080832054610100900461ffff168352609c9091529020546001600160a01b031690565b6112ae6108ef565b6112ca5760405162461bcd60e51b815260040161071c9061346a565b6001600160a01b0382166112f05760405162461bcd60e51b815260040161071c906135dc565b6001600160a01b03919091166000908152603660205260409020805460ff1916911515919091179055565b6113236108ef565b61133f5760405162461bcd60e51b815260040161071c9061346a565b6001600160a01b0382166113655760405162461bcd60e51b815260040161071c906135dc565b6001600160a01b03919091166000908152603560205260409020805460ff1916911515919091179055565b6001600160a01b038083166000908152606f602090815260408083209385168352929052205460ff165b92915050565b6113c861158c565b806113d657506113d66108ef565b6113f25760405162461bcd60e51b815260040161071c90613288565b60005b81811015610f495761140a8686868685610d30565b5080611415816138e2565b9150506113f5565b6114256108ef565b6114415760405162461bcd60e51b815260040161071c9061346a565b6001600160a01b03811661145457600080fd5b6000805475ffffffffffffffffffffffffffffffffffffffff00001916620100006001600160a01b038416908102919091178255604051909133917f8be0079c531659141344cd1fd0a4f28419497f9722a3daafe3b4186f6b6457e09190a350565b6000546201000090046001600160a01b031681565b6001600160e01b031981167f01ffc9a70000000000000000000000000000000000000000000000000000000014919050565b6000908152606c60205260409020546001600160a01b0316151590565b3390565b6000818152606e6020526040902080546001600160a01b0319166001600160a01b038416908117909155819061155382610b27565b6001600160a01b03167f8c5be1e5ebec7d5bd14f71427d1e84f3dd0314c0f7b2291e5b200ac8c7c3b92560405160405180910390a45050565b60006034600061159a61151a565b6001600160a01b0316815260208101919091526040016000205460ff16905090565b60006115c7826114fd565b6115e35760405162461bcd60e51b815260040161071c9061323c565b60006115ee83610b27565b9050806001600160a01b0316846001600160a01b031614806116295750836001600160a01b031661161e84610814565b6001600160a01b0316145b8061163957506116398185611390565b949350505050565b826001600160a01b031661165482610b27565b6001600160a01b03161461167a5760405162461bcd60e51b815260040161071c90613522565b6001600160a01b0382166116a05760405162461bcd60e51b815260040161071c906131a8565b6116ab8383836127a0565b6116b660008261151e565b6001600160a01b0383166000908152606d602052604081208054600192906116df908490613864565b90915550506001600160a01b0382166000908152606d6020526040812080546001929061170d908490613819565b90915550506000818152606c602052604080822080546001600160a01b0319166001600160a01b0386811691821790925591518493918716917fddf252ad1be2c89b69c2b068fc378daa952ba7f163c4a11628f55a4df523b3ef91a4505050565b600061177982610b27565b9050611787816000846127a0565b61179260008361151e565b6001600160a01b0381166000908152606d602052604081208054600192906117bb908490613864565b90915550506000828152606c602052604080822080546001600160a01b0319169055518391906001600160a01b038416907fddf252ad1be2c89b69c2b068fc378daa952ba7f163c4a11628f55a4df523b3ef908390a45050565b600080826118276305f5e100426138fd565b6118319190613819565b90505b61183d816114fd565b156106f05761184b836138e2565b92508261185c6305f5e100426138fd565b61186790600a613845565b6118719190613819565b9050611834565b6001600160a01b03821661189e5760405162461bcd60e51b815260040161071c906134a1565b6118a7816114fd565b156118c45760405162461bcd60e51b815260040161071c9061313a565b6118d0600083836127a0565b6001600160a01b0382166000908152606d602052604081208054600192906118f9908490613819565b90915550506000818152606c602052604080822080546001600160a01b0319166001600160a01b03861690811790915590518392907fddf252ad1be2c89b69c2b068fc378daa952ba7f163c4a11628f55a4df523b3ef908290a45050565b611960856111c2565b6119d384848080601f01602080910402602001604051908101604052809392919081815260200183838082843760009201919091525050604080516020601f880181900481028201810190925286815292508691508590819084018382808284376000920191909152506127e792505050565b5050505050565b60a06020527f5e4aa62fc514c001129aba2f8cfdadfdbf7b1cca3faf4a1fee3af14b1315f0dd8054600160ff1991821681179092557f4c53427aba8213ac5dcf932aaccfd36dc31821cb115a19ad2296c6295c8e866180548216831790557f9f0cd747497ca8f5bc7db9593e857b81c9375c096424239445786d048db2bcae80548216831790557ff1901c5cdbdebaae8e3ce91ae64a45d2a5545a82acd1eae3edf77e22fdbc4dc880548216831790557f1ffa2dc8cbb45fe3ed77bd207f071c2f1cad9707d3bbf6a435c152b94a9df1a480548216831790557f0b3fd320367c01dff5b4bbc6e982afe99118a419b08dbc48e4bd65a288ad540180548216831790557f466a2fe55725919be618e1e0ba265f51d6eeb33425f271249554886fd9c769ed80548216831790557f12b62654708bc49d940ce1d02414cd3dc5013bb0660208971c44b9e2512cfdc680548216831790557f0a784b3f9834df8bf137be06092fe7535cf5c40ce4615ed5a6636d8dd297d57280548216831790557f4ffc55f1b63f2f2b2fe694c1dd15f74b8450a4b20f938a2e3dfb04a55aa7852d80548216831790557f58290fef829a2955a9750515b55acebcb5763b8c0bfdae0ee1e6201bfb10585f80548216831790557fdbef589d0e5413304729410f8b96a67ae393a006bc57ceb28e7572852b33149580548216831790557f574d3f9ed21b9523351505f5a5f8522a1e5ea29fb72f61041f716b792aee648080548216831790557f0c5c7579e76e6d7b0fc0310a29f0e9d6808b312da40ded671aa8c86ada88a9a680548216831790557f1e69d0e71a8363f9da53a7c73fb02ccd41efb68a2fe06bf78834517189811d7080548216831790557f93528a14b7dd759770ad07c8cdc53f13c78a45ab8144608dc9e66c2eb574a68b80548216831790557f38db1296ed93da28c3e48454bcf996234e23d97a14257acbbeba9152b47223a480548216831790557fd4e3eb33e3b8f9eb654194cabde212124ec0d508bed18675b868fa9cb1429df580548216831790557f227125a779856f5151a31f195e39d1159c58ac8c662372e5cb6f19bafe60365a80548216831790557f3e9acba5e08b1479dc072db8455a9ae1830f5b0ca8facbff903dba0b85388c6f80548216831790557f9f4437a4254744c82bf930ae3272a72efb70e28c0a6bd1e14d019ff307bbc96680548216831790557f58610e8e048e6a8d45fdc2f9f7a180130568a6d4cf53746b2d037370c60862fa80548216831790557f65a0d36eedb273a603fae3d144b9fc89d31d17fa7674e0bf041df355afb1754b80548216831790557fec49ed2cd944dccb361df2876ea29926d371c4d970e48e34b7d9435cd192582980548216831790557f34865362c887cebf0d9e8140383dc9cbc2c913e213baf835cdcea692497f40d180548216831790557f672eec63e42c789b33f8d4f8e8eca50dfbd35c4094f4b83bd49f6adf0a5985ce80548216831790557f859eede500440be4d5fd9f82b8dc51cae7fe047f8b61537d37cdee663818c5d780548216831790557fce18f3f25b67eb0d10551b6cb80e10c3cc0ff60bf0aa34a0bf3c342fa8fd3e6080548216831790557fbd99f8ed80237838981ce7370bb172fb582744a3057877440388a8d5219ebbc880548216831790557f462bdffe4f38c94097b93662913bf1b4bf84fe88ce4537e6605b6bbd5d936ede80548216831790557f7a81bed9d133fda064a5c0bd1bf25907dd3f89765ce100a5a1fcc14e5b87286080548216831790557f656ecbbf0858fbd18f1744e8bfa1b8ada4b890358437e91bb49171c1e163ea7080548216831790557ff3414aa7c3b76a7cb5054edc26068451df6d356dedbf7f0ecab8f0469716f9fc80548216831790557fe3c4d694ff2ebf1f3ee2c7882c37c2409c8b6ba9f2e245c446be6e435484e2e080548216831790557f346b9e0c2f162a29ac171e029389bd35ba209089bf3e7efeb9aae03bb6f7007480548216831790557fe5cca54b924cafc8947954a7fbdb4144bf61c35aeee17934f751a66df690eba680548216831790557fcd203a8617c62d6483f9443ebf24a895a6e2f467addbbaca7b27c9bccb877f0280548216831790557f76639d0f7bb508e1bc3cb9de9c958d03e3ad5263af37ef8db9a2d9310577e1d580548216831790557f6479a21ecc4ffd5259fa5f1a08c94f211f18d7f5ef47408ff6bf7ed1bbafc45a80548216831790557f6f10d9c549fe43509c8ed4f41a630422a76c44b14fa9d005e5409b6795be36a580548216831790557f0588b40ea02f979fb504734fe507f64558295a00c2cfbbfee818938a14f3089880548216831790557f61ea7d42ce9aae120d1650be27d649689564c025f88dc5970f21d5fb5d0f4ab780548216831790557ffa14ad1ffe668e2de447c19e042e61e598534b4613364fbb65ed0240b1eb284380548216831790557fe1694673eb365744c8d0d7042c149f035ec42d132aa607eeed5aeebd21b96c1280548216831790557f290d6c02988e360edde195d110585e92315777765bb68d78911c15aa3534b23f80548216831790557f2d157248f6f5445e20e17a186bbbaae7f2d8d962b2150afe109b19a23e823c9f80548216831790557f57d6c760103a92628b2d205fed44757cb110aa90e4d6cb94f86673199f15299580548216831790557f6045f6dece0f6dd09d7ab6e1ade431b204135cf60eac2777be5f5c6522a12a7480548216831790557f4740d64c75dc1cef3d9c78719c7f7a670518ffd5affe0084214781d17217f1d280548216831790557fc82b84c888ec84de7352ceeb96b752bdd34ca2dacd030aecddd80d5dcc96459180548216831790557f3298b5a36878a72d501d2bde728c4f96823fef6842209b7d7b0e37c14dda2cc880548216831790557f33bcd743dfa29ac3b5a4e64efe540df080bcfaf92c23841df07dbe442a7edd9680548216831790557f8b05885302ff09e4b9e32e9ae4c375465bae5a4cdbde790a78bd2d7f469e9ebb80548216831790557fbb5fd83647e47b9891b14119bde99a362807520c9e2f0c7555be7bf810d21ac680548216831790557facf4f78deef76148e1c76e67cd9a0bf73fe02740f61508115ebb44afd9f692cf80548216831790557f085cf74ab4f736e53b394512ebba27ea66216c49f203474e8613dd882532111880548216831790557faf0683ab0d407c302b4f5e81bb54ffbf4b5313e39c9d775e068ab90b790cb96480548216831790557e20c5438c196455d0f11d269a13f35858e60fe8d84ab510f2a9f6cf1411b38e80548216831790557f4b25b9a699512696d36c88448360abe55ae1fac56cae5035c085c120e4a8aca180548216831790557ffe6084377a6a3d674397fe69a44015484947d164d21a144fd67e10f37684016880548216831790557fc725669f1f3a546cbb7983c7534677b6cec6fb7784f82379989af7f0dc8d10b880548216831790557fb22ec81055f00e30b70003ac51f55a7b65af973e9b8d0f7315939307824e884a80548216831790557f4e65e489f1086b6c14f95963406d37288acaa40b80123bc1da8cf45dae8ab67e80548216831790557f493b6dd42c21b8bf437f2fd386780fe432504b22b581f9709046b04bc2c776f380548216831790557f6b9f072b5c36445ecdc9e44dbd525ce2e0d9d25982d8ede7430449044868a8c080548216831790557fffc1d37f104ff0402e55be14da919dce95be7104911e4a97b3068e963972394c80548216831790557f95029ad947f490ae968848476bedbcfe897480bbf610f07a3c8baf32a17a34d580548216831790557f829c50b03f93d631cc9db835a427fc1faab19277f81c1d7f33779d8e527842a680548216831790557f5c62d14ac9a257a37be975101266ff32b30dbb2006d6e9ea055f9743ac7332e380548216831790557fc2118472877648a04dec0a125c36ff8f2f453d8434c92c29b6c3cd8bf0b880df80548216831790556101a16000527fd9449aa4588ac186c76b95292062b3c21470c0be0b7711da336a98c0665ab3bf80549091169091179055565b612559848484611641565b61256584848484612877565b6111885760405162461bcd60e51b815260040161071c906130dd565b600054610100900460ff168061259a575060005460ff16155b6125b65760405162461bcd60e51b815260040161071c9061340d565b600054610100900460ff161580156125e1576000805460ff1961ff0019909116610100171660011790555b6000805475ffffffffffffffffffffffffffffffffffffffff00001916620100006001600160a01b03851690810291909117909155600180546001600160a01b0319169091179055801561263b576000805461ff00191690555b5050565b60408051602081019091526000815290565b606081612692575060408051808201909152600181527f300000000000000000000000000000000000000000000000000000000000000060208201526106f3565b8160005b81156126bc57806126a6816138e2565b91506126b59050600a83613831565b9150612696565b60008167ffffffffffffffff8111156126e557634e487b7160e01b600052604160045260246000fd5b6040519080825280601f01601f19166020018201604052801561270f576020820181803683370190505b5090505b841561163957612724600183613864565b9150612731600a866138fd565b61273c906030613819565b60f81b81838151811061275f57634e487b7160e01b600052603260045260246000fd5b60200101907effffffffffffffffffffffffffffffffffffffffffffffffffffffffffffff1916908160001a905350612799600a86613831565b9450612713565b6127ab8383836129ab565b6001600160a01b0382166108ea576000908152609f60205260408120805462ffffff191681556001810182905560028101829055600301555050565b600054610100900460ff1680612800575060005460ff16155b61281c5760405162461bcd60e51b815260040161071c9061340d565b600054610100900460ff16158015612847576000805460ff1961ff0019909116610100171660011790555b61284f6129e7565b6128576129e7565b6128618383612a5b565b80156108ea576000805461ff0019169055505050565b600061288b846001600160a01b0316612af9565b156129a057836001600160a01b031663150b7a026128a761151a565b8786866040518563ffffffff1660e01b81526004016128c99493929190613083565b602060405180830381600087803b1580156128e357600080fd5b505af1925050508015612913575060408051601f3d908101601f1916820190925261291091810190612f0a565b60015b61296d573d808015612941576040519150601f19603f3d011682016040523d82523d6000602084013e612946565b606091505b5080516129655760405162461bcd60e51b815260040161071c906130dd565b805181602001fd5b6001600160e01b0319167f150b7a0200000000000000000000000000000000000000000000000000000000149050611639565b506001949350505050565b609e5460ff166108ea576129bd61158c565b806129cb57506129cb612aff565b6108ea5760405162461bcd60e51b815260040161071c90613670565b600054610100900460ff1680612a00575060005460ff16155b612a1c5760405162461bcd60e51b815260040161071c9061340d565b600054610100900460ff16158015612a47576000805460ff1961ff0019909116610100171660011790555b80156111cb576000805461ff001916905550565b600054610100900460ff1680612a74575060005460ff16155b612a905760405162461bcd60e51b815260040161071c9061340d565b600054610100900460ff16158015612abb576000805460ff1961ff0019909116610100171660011790555b8251612ace90606a906020860190612b4b565b508151612ae290606b906020850190612b4b565b5080156108ea576000805461ff0019169055505050565b3b151590565b60006035600061159a61151a565b8260078101928215612b3b579160200282015b82811115612b3b578235825591602001919060010190612b20565b50612b47929150612bbf565b5090565b828054612b57906138a7565b90600052602060002090601f016020900481019282612b795760008555612b3b565b82601f10612b9257805160ff1916838001178555612b3b565b82800160010185558215612b3b579182015b82811115612b3b578251825591602001919060010190612ba4565b5b80821115612b475760008155600101612bc0565b80356001600160a01b03811681146106f357600080fd5b8060e081018310156113ba57600080fd5b60008083601f840112612c0d578182fd5b50813567ffffffffffffffff811115612c24578182fd5b602083019150836020828501011115612c3c57600080fd5b9250929050565b803561ffff811681146106f357600080fd5b803560ff811681146106f357600080fd5b600060208284031215612c77578081fd5b61125982612bd4565b60008060408385031215612c92578081fd5b612c9b83612bd4565b9150612ca960208401612bd4565b90509250929050565b600080600060608486031215612cc6578081fd5b612ccf84612bd4565b9250612cdd60208501612bd4565b9150604084013590509250925092565b60008060008060808587031215612d02578081fd5b612d0b85612bd4565b93506020612d1a818701612bd4565b935060408601359250606086013567ffffffffffffffff80821115612d3d578384fd5b818801915088601f830112612d50578384fd5b813581811115612d6257612d6261393d565b604051601f8201601f1916810185018381118282101715612d8557612d8561393d565b60405281815283820185018b1015612d9b578586fd5b81858501868301379081019093019390935250939692955090935050565b60008060408385031215612dcb578182fd5b612dd483612bd4565b915060208301358015158114612de8578182fd5b809150509250929050565b600080600080600060608688031215612e0a578081fd5b612e1386612bd4565b9450602086013567ffffffffffffffff80821115612e2f578283fd5b612e3b89838a01612bfc565b90965094506040880135915080821115612e53578283fd5b50612e6088828901612bfc565b969995985093965092949392505050565b60008060408385031215612e83578182fd5b612e8c83612bd4565b946020939093013593505050565b600080600080600060a08688031215612eb1578081fd5b612eba86612bd4565b9450612ec860208701612c55565b9350612ed660408701612c43565b94979396509394606081013594506080013592915050565b600060208284031215612eff578081fd5b813561125981613953565b600060208284031215612f1b578081fd5b815161125981613953565b600060208284031215612f37578081fd5b61125982612c43565b60008060408385031215612f52578081fd5b612c9b83612c43565b6000806101008385031215612f6e578182fd5b612f7783612c43565b9150612ca98460208501612beb565b600060208284031215612f97578081fd5b5035919050565b60008060408385031215612fb0578182fd5b50508035926020909101359150565b6000806000806101408587031215612fd5578182fd5b612fde85612c55565b9350612fec60208601612c43565b9250612ffa60408601612bd4565b91506130098660608701612beb565b905092959194509250565b6000815180845261302c81602086016020860161387b565b601f01601f19169290920160200192915050565b6000835161305281846020880161387b565b83519083019061306681836020880161387b565b01949350505050565b6001600160a01b0391909116815260200190565b60006001600160a01b038087168352808616602084015250836040830152608060608301526130b56080830184613014565b9695505050505050565b901515815260200190565b6000602082526112596020830184613014565b60208082526032908201527f4552433732313a207472616e7366657220746f206e6f6e20455243373231526560408201527f63656976657220696d706c656d656e7465720000000000000000000000000000606082015260800190565b6020808252601c908201527f4552433732313a20746f6b656e20616c7265616479206d696e74656400000000604082015260600190565b6020808252600e908201527f436c617373496420657869737473000000000000000000000000000000000000604082015260600190565b60208082526024908201527f4552433732313a207472616e7366657220746f20746865207a65726f2061646460408201527f7265737300000000000000000000000000000000000000000000000000000000606082015260800190565b60208082526019908201527f4552433732313a20617070726f766520746f2063616c6c657200000000000000604082015260600190565b6020808252602c908201527f4552433732313a206f70657261746f7220717565727920666f72206e6f6e657860408201526b34b9ba32b73a103a37b5b2b760a11b606082015260800190565b60208082526018908201527f4e4654417574683a204f6e6c79206d696e742061646d696e0000000000000000604082015260600190565b60208082526038908201527f4552433732313a20617070726f76652063616c6c6572206973206e6f74206f7760408201527f6e6572206e6f7220617070726f76656420666f7220616c6c0000000000000000606082015260800190565b60208082526012908201527f436c6173734964206e6f74206578697374730000000000000000000000000000604082015260600190565b6020808252602a908201527f4552433732313a2062616c616e636520717565727920666f7220746865207a6560408201527f726f206164647265737300000000000000000000000000000000000000000000606082015260800190565b60208082526029908201527f4552433732313a206f776e657220717565727920666f72206e6f6e657869737460408201527f656e7420746f6b656e0000000000000000000000000000000000000000000000606082015260800190565b6020808252602e908201527f496e697469616c697a61626c653a20636f6e747261637420697320616c72656160408201527f647920696e697469616c697a6564000000000000000000000000000000000000606082015260800190565b6020808252600d908201527f6f6e6c794d61696e41646d696e00000000000000000000000000000000000000604082015260600190565b6020808252818101527f4552433732313a206d696e7420746f20746865207a65726f2061646472657373604082015260600190565b6020808252602c908201527f4552433732313a20617070726f76656420717565727920666f72206e6f6e657860408201526b34b9ba32b73a103a37b5b2b760a11b606082015260800190565b60208082526029908201527f4552433732313a207472616e73666572206f6620746f6b656e2074686174206960408201527f73206e6f74206f776e0000000000000000000000000000000000000000000000606082015260800190565b6020808252602f908201527f4552433732314d657461646174613a2055524920717565727920666f72206e6f60408201527f6e6578697374656e7420746f6b656e0000000000000000000000000000000000606082015260800190565b60208082526018908201527f4e4654417574683a204164647265737320696e76616c69640000000000000000604082015260600190565b60208082526021908201527f4552433732313a20617070726f76616c20746f2063757272656e74206f776e6560408201527f7200000000000000000000000000000000000000000000000000000000000000606082015260800190565b6020808252601a908201527f4e46543a206e6f207472616e7366657261626c65207269676874000000000000604082015260600190565b60208082526031908201527f4552433732313a207472616e736665722063616c6c6572206973206e6f74206f60408201527f776e6572206e6f7220617070726f766564000000000000000000000000000000606082015260800190565b60208082526030908201527f4552433732314275726e61626c653a2063616c6c6572206973206e6f74206f7760408201527f6e6572206e6f7220617070726f76656400000000000000000000000000000000606082015260800190565b61ffff91909116815260200190565b61ffff83168152610100810160e0836020840137600081529392505050565b90815260200190565b918252602082015260400190565b968752602087019590955260408601939093526060850191909152608084015260a083015260c082015260e00190565b60ff92909216825261ffff16602082015260400190565b60ff95909516855261ffff93909316602085015260408401919091526060830152608082015260a00190565b6000821982111561382c5761382c613911565b500190565b60008261384057613840613927565b500490565b600081600019048311821515161561385f5761385f613911565b500290565b60008282101561387657613876613911565b500390565b60005b8381101561389657818101518382015260200161387e565b838111156111885750506000910152565b6002810460018216806138bb57607f821691505b602082108114156138dc57634e487b7160e01b600052602260045260246000fd5b50919050565b60006000198214156138f6576138f6613911565b5060010190565b60008261390c5761390c613927565b500690565b634e487b7160e01b600052601160045260246000fd5b634e487b7160e01b600052601260045260246000fd5b634e487b7160e01b600052604160045260246000fd5b6001600160e01b0319811681146111cb57600080fdfea2646970667358221220e26e0d63a52c73be9e7df9e8a653ed7a29b4e983bf77ea8f9b24df8b99dad08064736f6c63430008000033",
  "immutableReferences": {},
  "source": "// SPDX-License-Identifier: MIT\n\npragma solidity 0.8.0;\n\nimport \"../libs/fota/Auth.sol\";\nimport \"../libs/fota/ArrayUtil.sol\";\nimport \"./BaseNFT.sol\";\n\ncontract ItemNFT is BaseNFT {\n  using ArrayUtil for uint[];\n\n  struct Item {\n    uint8 gene;\n    uint16 class;\n    uint createdAt;\n    uint ownPrice;\n    uint failedUpgradingAmount;\n  }\n\n  mapping(uint => Item) public items;\n  mapping(uint16 => bool) public classIds;\n  mapping (uint16 => uint[7]) private strengthIndexReferences;\n\n  event NewClassAdded(\n    uint16 _gene,\n    uint16 _classId\n  );\n  event BaseStrengthUpdated(\n    uint16 classId,\n    uint[7] baseStrength\n  );\n\n  function initialize(\n    address _mainAdmin,\n    string calldata _name,\n    string calldata _symbol\n  ) override public initializer {\n    BaseNFT.initialize(_mainAdmin, _name, _symbol);\n    _initData();\n  }\n\n  function mintItem(address _owner, uint8 _gene, uint16 _class, uint _price, uint _index) onlyMintAdmin public returns (uint) {\n    require(classIds[_class], \"ClassId not exists\");\n    uint newId = _genNewId(_index);\n    _mint(_owner, newId);\n    Item memory item = Item(_gene, _class, block.timestamp, _price, 0);\n    items[newId] = item;\n    return newId;\n  }\n\n  function mintItems(address _owner, uint8 _gene, uint16 _class, uint _price, uint _quantity) onlyMintAdmin external {\n    for(uint i = 0; i < _quantity; i++) {\n      mintItem(_owner, _gene, _class, _price, i);\n    }\n  }\n\n  function _beforeTokenTransfer(\n    address _from,\n    address _to,\n    uint256 _tokenId\n  ) internal override {\n    super._beforeTokenTransfer(_from, _to, _tokenId);\n    if (_to == address(0)) {\n      delete items[_tokenId];\n    }\n  }\n\n  function getItem(uint _tokenId) public view returns (uint8, uint16, uint, uint, uint) {\n    return (\n      items[_tokenId].gene,\n      items[_tokenId].class,\n      items[_tokenId].createdAt,\n      items[_tokenId].ownPrice,\n      items[_tokenId].failedUpgradingAmount\n    );\n  }\n\n  function getStrengthIndexReferences(uint16 _classId) external view returns (uint, uint, uint, uint, uint, uint, uint) {\n    return (\n      strengthIndexReferences[_classId][0],\n      strengthIndexReferences[_classId][1],\n      strengthIndexReferences[_classId][2],\n      strengthIndexReferences[_classId][3],\n      strengthIndexReferences[_classId][4],\n      strengthIndexReferences[_classId][5],\n      strengthIndexReferences[_classId][6]\n    );\n  }\n\n  function getClassId(uint _tokenId) public view returns (uint16) {\n    return items[_tokenId].class;\n  }\n\n  function getCreator(uint _tokenId) override external view returns (address) {\n    return creators[items[_tokenId].class];\n  }\n\n  // ADMIN FUNCTIONS\n\n  function updateBaseStrengths(uint16 _classId, uint[7] calldata _strengths) external onlyMainAdmin {\n    strengthIndexReferences[_classId] = _strengths;\n    emit BaseStrengthUpdated(_classId, _strengths);\n  }\n\n  function addItemClass(uint8 _gene, uint16 _classId, address _creator, uint[7] calldata _strengths) external onlyMainAdmin {\n    require(!classIds[_classId], \"ClassId exists\");\n    classIds[_classId] = true;\n    creators[_classId] = _creator;\n    strengthIndexReferences[_classId] = _strengths;\n    emit NewClassAdded(_gene, _classId);\n  }\n\n  function updateOwnPrice(uint _tokenId, uint _ownPrice) override onlyMintAdmin external {\n    Item storage item = items[_tokenId];\n    item.ownPrice = _ownPrice;\n    emit OwnPriceUpdated(_tokenId, _ownPrice);\n  }\n\n  function updateFailedUpgradingAmount(uint _tokenId, uint _amount) override onlyMintAdmin external {\n    Item storage item = items[_tokenId];\n    item.failedUpgradingAmount = _amount;\n    emit FailedUpgradingAmountUpdated(_tokenId, _amount);\n  }\n\n  function _initData() private {\n    classIds[1] = true;\n    classIds[101] = true;\n    classIds[102] = true;\n    classIds[103] = true;\n    classIds[104] = true;\n    classIds[105] = true;\n    classIds[106] = true;\n    classIds[107] = true;\n    classIds[108] = true;\n    classIds[109] = true;\n    classIds[110] = true;\n    classIds[111] = true;\n    classIds[112] = true;\n    classIds[113] = true;\n    classIds[114] = true;\n    classIds[115] = true;\n    classIds[116] = true;\n    classIds[117] = true;\n    classIds[118] = true;\n    classIds[119] = true;\n    classIds[120] = true;\n    classIds[121] = true;\n    classIds[122] = true;\n    classIds[201] = true;\n    classIds[202] = true;\n    classIds[203] = true;\n    classIds[204] = true;\n    classIds[205] = true;\n    classIds[206] = true;\n    classIds[207] = true;\n    classIds[208] = true;\n    classIds[209] = true;\n    classIds[210] = true;\n    classIds[211] = true;\n    classIds[212] = true;\n    classIds[213] = true;\n    classIds[214] = true;\n    classIds[215] = true;\n    classIds[216] = true;\n    classIds[217] = true;\n    classIds[218] = true;\n    classIds[301] = true;\n    classIds[302] = true;\n    classIds[303] = true;\n    classIds[304] = true;\n    classIds[305] = true;\n    classIds[306] = true;\n    classIds[307] = true;\n    classIds[308] = true;\n    classIds[309] = true;\n    classIds[310] = true;\n    classIds[311] = true;\n    classIds[312] = true;\n    classIds[313] = true;\n    classIds[401] = true;\n    classIds[402] = true;\n    classIds[403] = true;\n    classIds[404] = true;\n    classIds[405] = true;\n    classIds[406] = true;\n    classIds[407] = true;\n    classIds[408] = true;\n    classIds[409] = true;\n    classIds[410] = true;\n    classIds[411] = true;\n    classIds[412] = true;\n    classIds[413] = true;\n    classIds[414] = true;\n    classIds[415] = true;\n    classIds[416] = true;\n    classIds[417] = true;\n  }\n}\n",
  "sourcePath": "/Users/dung/Documents/sources/fota-dapp/contracts/NFTs/ItemNFT.sol",
  "compiler": {
    "name": "solc",
    "version": "0.8.0+commit.c7dfd78e.Emscripten.clang"
  },
  "schemaVersion": "3.3.4",
  "updatedAt": "2022-03-03T04:57:24.303Z",
  "networkType": "ethereum",
  "devdoc": {
    "kind": "dev",
    "methods": {
      "approve(address,uint256)": {
        "details": "See {IERC721-approve}."
      },
      "balanceOf(address)": {
        "details": "See {IERC721-balanceOf}."
      },
      "getApproved(uint256)": {
        "details": "See {IERC721-getApproved}."
      },
      "isApprovedForAll(address,address)": {
        "details": "See {IERC721-isApprovedForAll}."
      },
      "name()": {
        "details": "See {IERC721Metadata-name}."
      },
      "ownerOf(uint256)": {
        "details": "See {IERC721-ownerOf}."
      },
      "safeTransferFrom(address,address,uint256)": {
        "details": "See {IERC721-safeTransferFrom}."
      },
      "safeTransferFrom(address,address,uint256,bytes)": {
        "details": "See {IERC721-safeTransferFrom}."
      },
      "setApprovalForAll(address,bool)": {
        "details": "See {IERC721-setApprovalForAll}."
      },
      "supportsInterface(bytes4)": {
        "details": "See {IERC165-supportsInterface}."
      },
      "symbol()": {
        "details": "See {IERC721Metadata-symbol}."
      },
      "tokenURI(uint256)": {
        "details": "See {IERC721Metadata-tokenURI}."
      },
      "transferFrom(address,address,uint256)": {
        "details": "See {IERC721-transferFrom}."
      }
    },
    "version": 1
  },
  "userdoc": {
    "kind": "user",
    "methods": {},
    "version": 1
  }
}