{
  "contractName": "ItemAirdropDistributor",
  "abi": [
    {
      "anonymous": false,
      "inputs": [
        {
          "indexed": false,
          "internalType": "uint256",
          "name": "_index",
          "type": "uint256"
        },
        {
          "indexed": false,
          "internalType": "address",
          "name": "_address",
          "type": "address"
        },
        {
          "indexed": false,
          "internalType": "uint256",
          "name": "_tokenId",
          "type": "uint256"
        }
      ],
      "name": "Claimed",
      "type": "event"
    },
    {
      "anonymous": false,
      "inputs": [
        {
          "indexed": true,
          "internalType": "address",
          "name": "_newOwner",
          "type": "address"
        }
      ],
      "name": "ContractAdminUpdated",
      "type": "event"
    },
    {
      "anonymous": false,
      "inputs": [
        {
          "indexed": true,
          "internalType": "address",
          "name": "_previousOwner",
          "type": "address"
        },
        {
          "indexed": true,
          "internalType": "address",
          "name": "_newOwner",
          "type": "address"
        }
      ],
      "name": "OwnershipTransferred",
      "type": "event"
    },
    {
      "inputs": [],
      "name": "_isContractAdmin",
      "outputs": [
        {
          "internalType": "bool",
          "name": "",
          "type": "bool"
        }
      ],
      "stateMutability": "view",
      "type": "function"
    },
    {
      "inputs": [],
      "name": "_isMainAdmin",
      "outputs": [
        {
          "internalType": "bool",
          "name": "",
          "type": "bool"
        }
      ],
      "stateMutability": "view",
      "type": "function"
    },
    {
      "inputs": [],
      "name": "contractAdmin",
      "outputs": [
        {
          "internalType": "address",
          "name": "",
          "type": "address"
        }
      ],
      "stateMutability": "view",
      "type": "function"
    },
    {
      "inputs": [],
      "name": "itemClassId",
      "outputs": [
        {
          "internalType": "uint16",
          "name": "",
          "type": "uint16"
        }
      ],
      "stateMutability": "view",
      "type": "function"
    },
    {
      "inputs": [],
      "name": "itemGene",
      "outputs": [
        {
          "internalType": "uint8",
          "name": "",
          "type": "uint8"
        }
      ],
      "stateMutability": "view",
      "type": "function"
    },
    {
      "inputs": [],
      "name": "itemNFT",
      "outputs": [
        {
          "internalType": "contract IGameNFT",
          "name": "",
          "type": "address"
        }
      ],
      "stateMutability": "view",
      "type": "function"
    },
    {
      "inputs": [],
      "name": "itemPrice",
      "outputs": [
        {
          "internalType": "uint256",
          "name": "",
          "type": "uint256"
        }
      ],
      "stateMutability": "view",
      "type": "function"
    },
    {
      "inputs": [],
      "name": "mainAdmin",
      "outputs": [
        {
          "internalType": "address",
          "name": "",
          "type": "address"
        }
      ],
      "stateMutability": "view",
      "type": "function"
    },
    {
      "inputs": [],
      "name": "rootHash",
      "outputs": [
        {
          "internalType": "bytes32",
          "name": "",
          "type": "bytes32"
        }
      ],
      "stateMutability": "view",
      "type": "function"
    },
    {
      "inputs": [
        {
          "internalType": "address",
          "name": "_newOwner",
          "type": "address"
        }
      ],
      "name": "transferOwnership",
      "outputs": [],
      "stateMutability": "nonpayable",
      "type": "function"
    },
    {
      "inputs": [
        {
          "internalType": "address",
          "name": "_newAdmin",
          "type": "address"
        }
      ],
      "name": "updateContractAdmin",
      "outputs": [],
      "stateMutability": "nonpayable",
      "type": "function"
    },
    {
      "inputs": [
        {
          "internalType": "address",
          "name": "_mainAdmin",
          "type": "address"
        },
        {
          "internalType": "address",
          "name": "_itemNFT",
          "type": "address"
        }
      ],
      "name": "initialize",
      "outputs": [],
      "stateMutability": "nonpayable",
      "type": "function"
    },
    {
      "inputs": [
        {
          "internalType": "address",
          "name": "_mainAdmin",
          "type": "address"
        }
      ],
      "name": "initialize",
      "outputs": [],
      "stateMutability": "nonpayable",
      "type": "function"
    },
    {
      "inputs": [
        {
          "internalType": "bytes32",
          "name": "_rootHash",
          "type": "bytes32"
        }
      ],
      "name": "setRootHash",
      "outputs": [],
      "stateMutability": "nonpayable",
      "type": "function"
    },
    {
      "inputs": [
        {
          "internalType": "uint256",
          "name": "_itemPrice",
          "type": "uint256"
        }
      ],
      "name": "setItemPrice",
      "outputs": [],
      "stateMutability": "nonpayable",
      "type": "function"
    },
    {
      "inputs": [
        {
          "internalType": "uint16",
          "name": "_itemClassId",
          "type": "uint16"
        }
      ],
      "name": "setItemClassId",
      "outputs": [],
      "stateMutability": "nonpayable",
      "type": "function"
    },
    {
      "inputs": [
        {
          "internalType": "uint256",
          "name": "index",
          "type": "uint256"
        }
      ],
      "name": "isClaimed",
      "outputs": [
        {
          "internalType": "bool",
          "name": "",
          "type": "bool"
        }
      ],
      "stateMutability": "view",
      "type": "function"
    },
    {
      "inputs": [
        {
          "internalType": "uint256",
          "name": "_index",
          "type": "uint256"
        },
        {
          "internalType": "bytes32[]",
          "name": "_path",
          "type": "bytes32[]"
        }
      ],
      "name": "claim",
      "outputs": [],
      "stateMutability": "nonpayable",
      "type": "function"
    }
  ],
  "bytecode": "0x608060405234801561001057600080fd5b50610d2e806100206000396000f3fe608060405234801561001057600080fd5b50600436106101365760003560e01c806398ca7795116100b2578063c4d66de811610081578063dac6db1c11610066578063dac6db1c14610257578063f2fde38b1461025f578063fb6b04ba1461027257610136565b8063c4d66de81461022f578063d8fca4eb1461024257610136565b806398ca7795146101ee5780639e34070f14610201578063b7d6caec14610214578063c156ef571461021c57610136565b80632f52ebb71161010957806357d1f910116100ee57806357d1f910146101bc57806377955245146101d157806379afde39146101d957610136565b80632f52ebb714610196578063485cc955146101a957610136565b806302e65b8a1461013b57806311541ce0146101505780631d80009a1461016e5780632d7eae6614610183575b600080fd5b61014e610149366004610984565b61027a565b005b610158610311565b6040516101659190610b1b565b60405180910390f35b610176610328565b6040516101659190610b26565b61014e6101913660046109d7565b61032e565b61014e6101a4366004610a29565b610357565b61014e6101b73660046109a5565b610506565b6101c46105fe565b6040516101659190610ad2565b6101c461060d565b6101e161061c565b6040516101659190610c85565b61014e6101fc3660046109d7565b610621565b61015861020f3660046109d7565b61064a565b61015861068d565b61014e61022a3660046109ef565b61069e565b61014e61023d366004610984565b6106e4565b61024a6107af565b6040516101659190610c57565b6101766107c0565b61014e61026d366004610984565b6107c6565b6101c461085f565b610282610311565b6102a75760405162461bcd60e51b815260040161029e90610be9565b60405180910390fd5b6001600160a01b0381166102ba57600080fd5b6001805473ffffffffffffffffffffffffffffffffffffffff19166001600160a01b0383169081179091556040517fe3f4a4b5b74aa6830627cb87c50cf7d4ed56e9b246729179ba634bbdc873177a90600090a250565b6000546201000090046001600160a01b0316331490565b60045481565b610336610311565b6103525760405162461bcd60e51b815260040161029e90610be9565b600455565b6103608361064a565b1561037d5760405162461bcd60e51b815260040161029e90610b2f565b60003384604051602001610392929190610aa2565b6040516020818303038152906040528051906020012090506103eb838380806020026020016040519081016040528093929190818152602001838360200280828437600092019190915250506004549150849050610874565b6104075760405162461bcd60e51b815260040161029e90610c20565b6104108461092f565b6002546003546040517f882c3b0e0000000000000000000000000000000000000000000000000000000081526000926001600160a01b0381169263882c3b0e92610470923392600192600160a01b90920461ffff16918890600401610ae6565b602060405180830381600087803b15801561048a57600080fd5b505af115801561049e573d6000803e3d6000fd5b505050506040513d601f19601f820116820180604052508101906104c29190610a11565b90507f4ec90e965519d92681267467f775ada5bd214aa92c0dc93d90a5e880ce9ed0268533836040516104f793929190610c66565b60405180910390a15050505050565b600054610100900460ff168061051f575060005460ff16155b61053b5760405162461bcd60e51b815260040161029e90610b8c565b600054610100900460ff16158015610566576000805460ff1961ff0019909116610100171660011790555b61056f836106e4565b6002805468056bc75e2d631000006003557f673a79ecaed9ed602a27ce985b1da73cf54e07a9f9980a7af1cf7e8bdd941eac60045561ffff60a01b1916747900000000000000000000000000000000000000001773ffffffffffffffffffffffffffffffffffffffff19166001600160a01b03841617905580156105f9576000805461ff00191690555b505050565b6002546001600160a01b031681565b6001546001600160a01b031681565b600181565b610629610311565b6106455760405162461bcd60e51b815260040161029e90610be9565b600355565b60008061065961010084610c93565b9050600061066961010085610cce565b60009283526005602052604090922054600190921b9182169091149150505b919050565b6001546001600160a01b0316331490565b6106a6610311565b6106c25760405162461bcd60e51b815260040161029e90610be9565b6002805461ffff909216600160a01b0261ffff60a01b19909216919091179055565b600054610100900460ff16806106fd575060005460ff16155b6107195760405162461bcd60e51b815260040161029e90610b8c565b600054610100900460ff16158015610744576000805460ff1961ff0019909116610100171660011790555b6000805475ffffffffffffffffffffffffffffffffffffffff00001916620100006001600160a01b038516908102919091179091556001805473ffffffffffffffffffffffffffffffffffffffff1916909117905580156107ab576000805461ff00191690555b5050565b600254600160a01b900461ffff1681565b60035481565b6107ce610311565b6107ea5760405162461bcd60e51b815260040161029e90610be9565b6001600160a01b0381166107fd57600080fd5b6000805475ffffffffffffffffffffffffffffffffffffffff00001916620100006001600160a01b038416908102919091178255604051909133917f8be0079c531659141344cd1fd0a4f28419497f9722a3daafe3b4186f6b6457e09190a350565b6000546201000090046001600160a01b031681565b600081815b85518110156109245760008682815181106108a457634e487b7160e01b600052603260045260246000fd5b602002602001015190508083116108e55782816040516020016108c8929190610ac4565b604051602081830303815290604052805190602001209250610911565b80836040516020016108f8929190610ac4565b6040516020818303038152906040528051906020012092505b508061091c81610ca7565b915050610879565b509092149392505050565b600061093d61010083610c93565b9050600061094d61010084610cce565b6000928352600560205260409092208054600190931b9092179091555050565b80356001600160a01b038116811461068857600080fd5b600060208284031215610995578081fd5b61099e8261096d565b9392505050565b600080604083850312156109b7578081fd5b6109c08361096d565b91506109ce6020840161096d565b90509250929050565b6000602082840312156109e8578081fd5b5035919050565b600060208284031215610a00578081fd5b813561ffff8116811461099e578182fd5b600060208284031215610a22578081fd5b5051919050565b600080600060408486031215610a3d578081fd5b83359250602084013567ffffffffffffffff80821115610a5b578283fd5b818601915086601f830112610a6e578283fd5b813581811115610a7c578384fd5b8760208083028501011115610a8f578384fd5b6020830194508093505050509250925092565b60609290921b6bffffffffffffffffffffffff19168252601482015260340190565b918252602082015260400190565b6001600160a01b0391909116815260200190565b6001600160a01b0395909516855260ff93909316602085015261ffff9190911660408401526060830152608082015260a00190565b901515815260200190565b90815260200190565b60208082526029908201527f41697264726f704469737472696275746f723a2044726f7020616c726561647960408201527f20636c61696d65642e0000000000000000000000000000000000000000000000606082015260800190565b6020808252602e908201527f496e697469616c697a61626c653a20636f6e747261637420697320616c72656160408201527f647920696e697469616c697a6564000000000000000000000000000000000000606082015260800190565b6020808252600d908201527f6f6e6c794d61696e41646d696e00000000000000000000000000000000000000604082015260600190565b60208082526017908201527f41697264726f704469737472696275746f723a20343030000000000000000000604082015260600190565b61ffff91909116815260200190565b9283526001600160a01b03919091166020830152604082015260600190565b60ff91909116815260200190565b600082610ca257610ca2610ce2565b500490565b6000600019821415610cc757634e487b7160e01b81526011600452602481fd5b5060010190565b600082610cdd57610cdd610ce2565b500690565b634e487b7160e01b600052601260045260246000fdfea2646970667358221220156ca0a51a2ddbe4507650692568bb2778805491d3e843068e19fb892bb9cc1764736f6c63430008000033",
  "immutableReferences": {},
  "source": "// SPDX-License-Identifier: MIT\n\npragma solidity 0.8.0;\n\nimport \"../libs/fota/Auth.sol\";\nimport \"../libs/fota/MerkelProof.sol\";\nimport \"../interfaces/IGameNFT.sol\";\n\ncontract ItemAirdropDistributor is Auth {\n\n  IGameNFT public itemNFT;\n  uint8 constant public itemGene = 1;\n  uint16 public itemClassId;\n  uint public itemPrice;\n\n  bytes32 public rootHash;\n  mapping(uint => uint) private claimedBitMap;\n\n  event Claimed(uint _index, address _address, uint _tokenId);\n\n  function initialize(\n    address _mainAdmin,\n    address _itemNFT\n  ) public initializer {\n    Auth.initialize(_mainAdmin);\n    itemClassId = 121;\n    itemPrice = 100e18;\n    rootHash = 0x673a79ecaed9ed602a27ce985b1da73cf54e07a9f9980a7af1cf7e8bdd941eac;\n    itemNFT = IGameNFT(_itemNFT);\n  }\n\n  // OWNER FUNCTIONS\n\n  function setRootHash(bytes32 _rootHash) onlyMainAdmin external {\n    rootHash = _rootHash;\n  }\n\n  function setItemPrice(uint _itemPrice) onlyMainAdmin external {\n    itemPrice = _itemPrice;\n  }\n\n  function setItemClassId(uint16 _itemClassId) onlyMainAdmin external {\n    itemClassId = _itemClassId;\n  }\n\n  // PUBLIC FUNCTIONS\n\n  function isClaimed(uint index) public view returns (bool) {\n    uint claimedWordIndex = index / 256;\n    uint claimedBitIndex = index % 256;\n    uint claimedWord = claimedBitMap[claimedWordIndex];\n    uint mask = (1 << claimedBitIndex);\n    return claimedWord & mask == mask;\n  }\n\n  function claim(uint _index, bytes32[] calldata _path) external {\n    require(!isClaimed(_index), 'AirdropDistributor: Drop already claimed.');\n    bytes32 hash = keccak256(abi.encodePacked(msg.sender, _index));\n    require(MerkleProof.verify(_path, rootHash, hash), 'AirdropDistributor: 400');\n    _setClaimed(_index);\n    uint tokenId = itemNFT.mintItem(msg.sender, itemGene, itemClassId, itemPrice, 0);\n    emit Claimed(_index, msg.sender, tokenId);\n  }\n\n  // PRIVATE FUNCTIONS\n\n  function _setClaimed(uint index) private {\n    uint claimedWordIndex = index / 256;\n    uint claimedBitIndex = index % 256;\n    claimedBitMap[claimedWordIndex] = claimedBitMap[claimedWordIndex] | (1 << claimedBitIndex);\n  }\n}\n",
  "sourcePath": "/Users/dung/Documents/sources/fota-dapp/contracts/airdrop/ItemAirdropDistributor.sol",
  "compiler": {
    "name": "solc",
    "version": "0.8.0+commit.c7dfd78e.Emscripten.clang"
  },
  "schemaVersion": "3.3.4",
  "updatedAt": "2022-03-03T04:57:24.282Z",
  "networkType": "ethereum",
  "devdoc": {
    "kind": "dev",
    "methods": {},
    "version": 1
  },
  "userdoc": {
    "kind": "user",
    "methods": {},
    "version": 1
  }
}