{
  "contractName": "MockPVE",
  "abi": [
    {
      "inputs": [],
      "stateMutability": "nonpayable",
      "type": "constructor"
    },
    {
      "inputs": [
        {
          "internalType": "address",
          "name": "_inviter",
          "type": "address"
        }
      ],
      "name": "validateInviter",
      "outputs": [
        {
          "internalType": "bool",
          "name": "",
          "type": "bool"
        }
      ],
      "stateMutability": "pure",
      "type": "function"
    }
  ],
  "bytecode": "0x608060405234801561001057600080fd5b5060e48061001f6000396000f3fe6080604052348015600f57600080fd5b506004361060285760003560e01c8063307a22a214602d575b600080fd5b603c6038366004606a565b6050565b6040516047919060a3565b60405180910390f35b73ffffffffffffffffffffffffffffffffffffffff161590565b600060208284031215607a578081fd5b813573ffffffffffffffffffffffffffffffffffffffff81168114609c578182fd5b9392505050565b90151581526020019056fea26469706673582212208a62d9acf6b021c44d575a06a7e77e8843e2880832df8e9180f649707a7e2bb164736f6c63430008000033",
  "immutableReferences": {},
  "source": "// SPDX-License-Identifier: GPL\n\npragma solidity 0.8.0;\n\ncontract MockPVE {\n\n  constructor() {\n  }\n\n  function validateInviter(address _inviter) external pure returns (bool) {\n    return _inviter == address(0);\n  }\n\n}\n",
  "sourcePath": "/Users/dung/Documents/sources/fota-dapp/contracts/games/mockPVE.sol",
  "compiler": {
    "name": "solc",
    "version": "0.8.0+commit.c7dfd78e.Emscripten.clang"
  },
  "schemaVersion": "3.3.4",
  "updatedAt": "2022-03-03T04:57:24.645Z",
  "networkType": "ethereum",
  "devdoc": {
    "kind": "dev",
    "methods": {},
    "version": 1
  },
  "userdoc": {
    "kind": "user",
    "methods": {},
    "version": 1
  }
}