{
  "contractName": "PriceAuth",
  "abi": [
    {
      "anonymous": false,
      "inputs": [
        {
          "indexed": true,
          "internalType": "address",
          "name": "_newOwner",
          "type": "address"
        }
      ],
      "name": "ContractAdminUpdated",
      "type": "event"
    },
    {
      "anonymous": false,
      "inputs": [
        {
          "indexed": true,
          "internalType": "address",
          "name": "_previousOwner",
          "type": "address"
        },
        {
          "indexed": true,
          "internalType": "address",
          "name": "_newOwner",
          "type": "address"
        }
      ],
      "name": "OwnershipTransferred",
      "type": "event"
    },
    {
      "inputs": [],
      "name": "_isContractAdmin",
      "outputs": [
        {
          "internalType": "bool",
          "name": "",
          "type": "bool"
        }
      ],
      "stateMutability": "view",
      "type": "function"
    },
    {
      "inputs": [],
      "name": "_isMainAdmin",
      "outputs": [
        {
          "internalType": "bool",
          "name": "",
          "type": "bool"
        }
      ],
      "stateMutability": "view",
      "type": "function"
    },
    {
      "inputs": [],
      "name": "contractAdmin",
      "outputs": [
        {
          "internalType": "address",
          "name": "",
          "type": "address"
        }
      ],
      "stateMutability": "view",
      "type": "function"
    },
    {
      "inputs": [],
      "name": "mainAdmin",
      "outputs": [
        {
          "internalType": "address",
          "name": "",
          "type": "address"
        }
      ],
      "stateMutability": "view",
      "type": "function"
    },
    {
      "inputs": [
        {
          "internalType": "address",
          "name": "_newOwner",
          "type": "address"
        }
      ],
      "name": "transferOwnership",
      "outputs": [],
      "stateMutability": "nonpayable",
      "type": "function"
    },
    {
      "inputs": [
        {
          "internalType": "address",
          "name": "_newAdmin",
          "type": "address"
        }
      ],
      "name": "updateContractAdmin",
      "outputs": [],
      "stateMutability": "nonpayable",
      "type": "function"
    },
    {
      "inputs": [
        {
          "internalType": "address",
          "name": "_mainAdmin",
          "type": "address"
        }
      ],
      "name": "initialize",
      "outputs": [],
      "stateMutability": "nonpayable",
      "type": "function"
    },
    {
      "inputs": [
        {
          "internalType": "address",
          "name": "_mainAdmin",
          "type": "address"
        },
        {
          "internalType": "address",
          "name": "_normalPriceAdmin",
          "type": "address"
        },
        {
          "internalType": "address",
          "name": "_minMaxPriceAdmin",
          "type": "address"
        },
        {
          "internalType": "address",
          "name": "_absMinMaxPriceAdmin",
          "type": "address"
        }
      ],
      "name": "initialize",
      "outputs": [],
      "stateMutability": "nonpayable",
      "type": "function"
    },
    {
      "inputs": [
        {
          "internalType": "address",
          "name": "_normalPriceAdmin",
          "type": "address"
        }
      ],
      "name": "updateNormalPriceAdmin",
      "outputs": [],
      "stateMutability": "nonpayable",
      "type": "function"
    },
    {
      "inputs": [
        {
          "internalType": "address",
          "name": "_minMaxPriceAdmin",
          "type": "address"
        }
      ],
      "name": "updateMinMaxPriceAdmin",
      "outputs": [],
      "stateMutability": "nonpayable",
      "type": "function"
    },
    {
      "inputs": [
        {
          "internalType": "address",
          "name": "_absMinMaxPriceAdmin",
          "type": "address"
        }
      ],
      "name": "updateAbsMinMaxPriceAdmin",
      "outputs": [],
      "stateMutability": "nonpayable",
      "type": "function"
    },
    {
      "inputs": [],
      "name": "getMainAdmin",
      "outputs": [
        {
          "internalType": "address",
          "name": "",
          "type": "address"
        }
      ],
      "stateMutability": "view",
      "type": "function"
    }
  ],
  "bytecode": "0x608060405234801561001057600080fd5b5061072a806100206000396000f3fe608060405234801561001057600080fd5b50600436106100d45760003560e01c8063a94a557411610081578063f2fde38b1161005b578063f2fde38b1461017d578063f8c8765e14610190578063fb6b04ba146101a3576100d4565b8063a94a55741461014f578063b7d6caec14610162578063c4d66de81461016a576100d4565b806360105076116100b2578063601050761461011f57806370feb170146101325780637795524514610147576100d4565b806302e65b8a146100d957806311541ce0146100ee5780635d5133161461010c575b600080fd5b6100ec6100e7366004610596565b6101ab565b005b6100f6610235565b604051610103919061061e565b60405180910390f35b6100ec61011a366004610596565b61024c565b6100ec61012d366004610596565b6102b8565b61013a610324565b604051610103919061060a565b61013a610339565b6100ec61015d366004610596565b610348565b6100f66103b4565b6100ec610178366004610596565b6103c5565b6100ec61018b366004610596565b610483565b6100ec61019e3660046105b7565b61051c565b61013a610565565b6101b3610235565b6101d85760405162461bcd60e51b81526004016101cf906106bd565b60405180910390fd5b6001600160a01b0381166101eb57600080fd5b600180546001600160a01b0319166001600160a01b0383169081179091556040517fe3f4a4b5b74aa6830627cb87c50cf7d4ed56e9b246729179ba634bbdc873177a90600090a250565b6000546201000090046001600160a01b0316331490565b610254610235565b6102705760405162461bcd60e51b81526004016101cf906106bd565b6001600160a01b0381166102965760405162461bcd60e51b81526004016101cf90610629565b600480546001600160a01b0319166001600160a01b0392909216919091179055565b6102c0610235565b6102dc5760405162461bcd60e51b81526004016101cf906106bd565b6001600160a01b0381166103025760405162461bcd60e51b81526004016101cf90610629565b600280546001600160a01b0319166001600160a01b0392909216919091179055565b6000546201000090046001600160a01b031690565b6001546001600160a01b031681565b610350610235565b61036c5760405162461bcd60e51b81526004016101cf906106bd565b6001600160a01b0381166103925760405162461bcd60e51b81526004016101cf90610629565b600380546001600160a01b0319166001600160a01b0392909216919091179055565b6001546001600160a01b0316331490565b600054610100900460ff16806103de575060005460ff16155b6103fa5760405162461bcd60e51b81526004016101cf90610660565b600054610100900460ff16158015610425576000805460ff1961ff0019909116610100171660011790555b6000805475ffffffffffffffffffffffffffffffffffffffff00001916620100006001600160a01b03851690810291909117909155600180546001600160a01b0319169091179055801561047f576000805461ff00191690555b5050565b61048b610235565b6104a75760405162461bcd60e51b81526004016101cf906106bd565b6001600160a01b0381166104ba57600080fd5b6000805475ffffffffffffffffffffffffffffffffffffffff00001916620100006001600160a01b038416908102919091178255604051909133917f8be0079c531659141344cd1fd0a4f28419497f9722a3daafe3b4186f6b6457e09190a350565b610525846103c5565b600280546001600160a01b039485166001600160a01b03199182161790915560038054938516938216939093179092556004805491909316911617905550565b6000546201000090046001600160a01b031681565b80356001600160a01b038116811461059157600080fd5b919050565b6000602082840312156105a7578081fd5b6105b08261057a565b9392505050565b600080600080608085870312156105cc578283fd5b6105d58561057a565b93506105e36020860161057a565b92506105f16040860161057a565b91506105ff6060860161057a565b905092959194509250565b6001600160a01b0391909116815260200190565b901515815260200190565b6020808252600f908201527f496e76616c696420616464726573730000000000000000000000000000000000604082015260600190565b6020808252602e908201527f496e697469616c697a61626c653a20636f6e747261637420697320616c72656160408201527f647920696e697469616c697a6564000000000000000000000000000000000000606082015260800190565b6020808252600d908201527f6f6e6c794d61696e41646d696e0000000000000000000000000000000000000060408201526060019056fea26469706673582212207676f2925d70a197f29e4515db6b9f4ddc5b3d7bc0f2adf19e91a1270da132f864736f6c63430008000033",
  "immutableReferences": {},
  "source": "// SPDX-License-Identifier: GPL\n\npragma solidity 0.8.0;\n\nimport \"../libs/fota/Auth.sol\";\n\ncontract PriceAuth is Auth {\n  address normalPriceAdmin;\n  address minMaxPriceAdmin;\n  address absMinMaxPriceAdmin;\n\n  function initialize(\n    address _mainAdmin,\n    address _normalPriceAdmin,\n    address _minMaxPriceAdmin,\n    address _absMinMaxPriceAdmin\n  ) public {\n    Auth.initialize(_mainAdmin);\n    normalPriceAdmin = _normalPriceAdmin;\n    minMaxPriceAdmin = _minMaxPriceAdmin;\n    absMinMaxPriceAdmin = _absMinMaxPriceAdmin;\n  }\n\n  modifier onlyNormalPriceAdmin() {\n    require(msg.sender == normalPriceAdmin || _isMainAdmin(), \"onlyNormalPriceAdmin\");\n    _;\n  }\n\n  modifier onlyMinMaxPriceAdmin() {\n    require(msg.sender == minMaxPriceAdmin || _isMainAdmin(), \"onlyMinMaxPriceAdmin\");\n    _;\n  }\n\n  modifier onlyAbsMinMaxPriceAdmin() {\n    require(msg.sender == absMinMaxPriceAdmin || _isMainAdmin(), \"onlyAbsMinMaxPriceAdmin\");\n    _;\n  }\n\n  function updateNormalPriceAdmin(address _normalPriceAdmin) onlyMainAdmin external {\n    require(_normalPriceAdmin != address(0), \"Invalid address\");\n    normalPriceAdmin = _normalPriceAdmin;\n  }\n\n  function updateMinMaxPriceAdmin(address _minMaxPriceAdmin) onlyMainAdmin external {\n    require(_minMaxPriceAdmin != address(0), \"Invalid address\");\n    minMaxPriceAdmin = _minMaxPriceAdmin;\n  }\n\n  function updateAbsMinMaxPriceAdmin(address _absMinMaxPriceAdmin) onlyMainAdmin external {\n    require(_absMinMaxPriceAdmin != address(0), \"Invalid address\");\n    absMinMaxPriceAdmin = _absMinMaxPriceAdmin;\n  }\n\n  function getMainAdmin() external view returns (address) {\n    return mainAdmin;\n  }\n}\n\ncontract FOTAPricer is PriceAuth {\n\n  uint public fotaPrice; // decimal 3\n  uint public minPrice;\n  uint public maxPrice;\n  uint public absMinPrice;\n  uint public absMaxPrice;\n\n  event FOTAPriceSynced(\n    uint newPrice,\n    uint timestamp\n  );\n  event Warning(\n    uint fotaPrice,\n    uint minPrice,\n    uint maxPrice,\n    uint absMinPrice,\n    uint absMaxPrice,\n    uint minPriceSet,\n    uint maxPriceSet\n  );\n\n  function initialize(\n    address _mainAdmin,\n    address _normalPriceAdmin,\n    address _minMaxPriceAdmin,\n    address _absMinMaxPriceAdmin,\n    uint _fotaPrice\n  ) public initializer {\n    PriceAuth.initialize(_mainAdmin, _normalPriceAdmin, _minMaxPriceAdmin, _absMinMaxPriceAdmin);\n    fotaPrice = _fotaPrice;\n    absMinPrice = _fotaPrice / 3;\n    absMaxPrice = _fotaPrice * 3;\n    _updateMinMaxPrice(_fotaPrice * 90 / 100, fotaPrice * 105 / 100);\n  }\n\n  function syncFOTAPrice(uint _fotaPrice) external onlyNormalPriceAdmin {\n    require(\n      _fotaPrice >= minPrice &&\n      _fotaPrice <= maxPrice &&\n      _fotaPrice >= absMinPrice &&\n      _fotaPrice <= absMaxPrice, \"Price is invalid\");\n    fotaPrice = _fotaPrice;\n    emit FOTAPriceSynced(fotaPrice, block.timestamp);\n  }\n\n  function updateMinMaxPrice(uint _minPrice, uint _maxPrice) external onlyMinMaxPriceAdmin {\n    _updateMinMaxPrice(_minPrice, _maxPrice);\n  }\n\n  function updateAbsMinMaxPrice(uint _absMinPrice, uint _absMaxPrice) external onlyAbsMinMaxPriceAdmin {\n    require(_absMaxPrice > _absMinPrice, \"Price is invalid\");\n    absMinPrice = _absMinPrice;\n    absMaxPrice = _absMaxPrice;\n  }\n\n  function _updateMinMaxPrice(uint _minPrice, uint _maxPrice) private {\n    if (_minPrice < absMinPrice || _maxPrice > absMaxPrice) {\n      emit Warning(fotaPrice, minPrice, maxPrice, absMinPrice, absMaxPrice, _minPrice, _maxPrice);\n    } else {\n      minPrice = _minPrice;\n      maxPrice = _maxPrice;\n    }\n  }\n}\n",
  "sourcePath": "/Users/dung/Documents/sources/fota-dapp/contracts/utils/FOTAPricer.sol",
  "compiler": {
    "name": "solc",
    "version": "0.8.0+commit.c7dfd78e.Emscripten.clang"
  },
  "schemaVersion": "3.3.4",
  "updatedAt": "2022-03-03T04:51:26.721Z",
  "devdoc": {
    "kind": "dev",
    "methods": {},
    "version": 1
  },
  "userdoc": {
    "kind": "user",
    "methods": {},
    "version": 1
  }
}