{
  "contractName": "SkillUpgrading",
  "abi": [
    {
      "anonymous": false,
      "inputs": [
        {
          "indexed": true,
          "internalType": "address",
          "name": "_newOwner",
          "type": "address"
        }
      ],
      "name": "ContractAdminUpdated",
      "type": "event"
    },
    {
      "anonymous": false,
      "inputs": [
        {
          "indexed": true,
          "internalType": "address",
          "name": "_previousOwner",
          "type": "address"
        },
        {
          "indexed": true,
          "internalType": "address",
          "name": "_newOwner",
          "type": "address"
        }
      ],
      "name": "OwnershipTransferred",
      "type": "event"
    },
    {
      "anonymous": false,
      "inputs": [
        {
          "indexed": false,
          "internalType": "enum IMarketPlace.PaymentType",
          "name": "newMethod",
          "type": "uint8"
        }
      ],
      "name": "PaymentTypeChanged",
      "type": "event"
    },
    {
      "anonymous": false,
      "inputs": [
        {
          "indexed": true,
          "internalType": "uint8",
          "name": "section",
          "type": "uint8"
        },
        {
          "indexed": false,
          "internalType": "uint256",
          "name": "fee",
          "type": "uint256"
        },
        {
          "indexed": false,
          "internalType": "uint8",
          "name": "successRatio",
          "type": "uint8"
        }
      ],
      "name": "RequirementUpdated",
      "type": "event"
    },
    {
      "anonymous": false,
      "inputs": [
        {
          "indexed": true,
          "internalType": "uint256",
          "name": "tokenId",
          "type": "uint256"
        },
        {
          "indexed": false,
          "internalType": "uint8",
          "name": "acceptedRatio",
          "type": "uint8"
        },
        {
          "indexed": false,
          "internalType": "bool",
          "name": "success",
          "type": "bool"
        }
      ],
      "name": "Upgraded",
      "type": "event"
    },
    {
      "inputs": [],
      "name": "_isContractAdmin",
      "outputs": [
        {
          "internalType": "bool",
          "name": "",
          "type": "bool"
        }
      ],
      "stateMutability": "view",
      "type": "function"
    },
    {
      "inputs": [],
      "name": "_isMainAdmin",
      "outputs": [
        {
          "internalType": "bool",
          "name": "",
          "type": "bool"
        }
      ],
      "stateMutability": "view",
      "type": "function"
    },
    {
      "inputs": [],
      "name": "busdToken",
      "outputs": [
        {
          "internalType": "contract IBEP20",
          "name": "",
          "type": "address"
        }
      ],
      "stateMutability": "view",
      "type": "function"
    },
    {
      "inputs": [],
      "name": "contractAdmin",
      "outputs": [
        {
          "internalType": "address",
          "name": "",
          "type": "address"
        }
      ],
      "stateMutability": "view",
      "type": "function"
    },
    {
      "inputs": [
        {
          "internalType": "address",
          "name": "_tokenAddress",
          "type": "address"
        }
      ],
      "name": "drainToken",
      "outputs": [],
      "stateMutability": "nonpayable",
      "type": "function"
    },
    {
      "inputs": [],
      "name": "farmContract",
      "outputs": [
        {
          "internalType": "contract IFarm",
          "name": "",
          "type": "address"
        }
      ],
      "stateMutability": "view",
      "type": "function"
    },
    {
      "inputs": [],
      "name": "fotaPricer",
      "outputs": [
        {
          "internalType": "contract IFOTAPricer",
          "name": "",
          "type": "address"
        }
      ],
      "stateMutability": "view",
      "type": "function"
    },
    {
      "inputs": [],
      "name": "fotaToken",
      "outputs": [
        {
          "internalType": "contract IBEP20",
          "name": "",
          "type": "address"
        }
      ],
      "stateMutability": "view",
      "type": "function"
    },
    {
      "inputs": [],
      "name": "fundAdmin",
      "outputs": [
        {
          "internalType": "address",
          "name": "",
          "type": "address"
        }
      ],
      "stateMutability": "view",
      "type": "function"
    },
    {
      "inputs": [],
      "name": "heroNft",
      "outputs": [
        {
          "internalType": "contract IGameNFT",
          "name": "",
          "type": "address"
        }
      ],
      "stateMutability": "view",
      "type": "function"
    },
    {
      "inputs": [],
      "name": "itemNft",
      "outputs": [
        {
          "internalType": "contract IGameNFT",
          "name": "",
          "type": "address"
        }
      ],
      "stateMutability": "view",
      "type": "function"
    },
    {
      "inputs": [],
      "name": "mainAdmin",
      "outputs": [
        {
          "internalType": "address",
          "name": "",
          "type": "address"
        }
      ],
      "stateMutability": "view",
      "type": "function"
    },
    {
      "inputs": [
        {
          "internalType": "address",
          "name": "",
          "type": "address"
        }
      ],
      "name": "nonces",
      "outputs": [
        {
          "internalType": "uint256",
          "name": "",
          "type": "uint256"
        }
      ],
      "stateMutability": "view",
      "type": "function"
    },
    {
      "inputs": [],
      "name": "paymentType",
      "outputs": [
        {
          "internalType": "enum IMarketPlace.PaymentType",
          "name": "",
          "type": "uint8"
        }
      ],
      "stateMutability": "view",
      "type": "function"
    },
    {
      "inputs": [
        {
          "internalType": "bytes32",
          "name": "requestId",
          "type": "bytes32"
        },
        {
          "internalType": "uint256",
          "name": "randomness",
          "type": "uint256"
        }
      ],
      "name": "rawFulfillRandomness",
      "outputs": [],
      "stateMutability": "nonpayable",
      "type": "function"
    },
    {
      "inputs": [
        {
          "internalType": "uint8",
          "name": "",
          "type": "uint8"
        }
      ],
      "name": "requirements",
      "outputs": [
        {
          "internalType": "uint256",
          "name": "fee",
          "type": "uint256"
        },
        {
          "internalType": "uint8",
          "name": "successRatio",
          "type": "uint8"
        }
      ],
      "stateMutability": "view",
      "type": "function"
    },
    {
      "inputs": [
        {
          "internalType": "address",
          "name": "_newOwner",
          "type": "address"
        }
      ],
      "name": "transferOwnership",
      "outputs": [],
      "stateMutability": "nonpayable",
      "type": "function"
    },
    {
      "inputs": [
        {
          "internalType": "address",
          "name": "_newAdmin",
          "type": "address"
        }
      ],
      "name": "updateContractAdmin",
      "outputs": [],
      "stateMutability": "nonpayable",
      "type": "function"
    },
    {
      "inputs": [
        {
          "internalType": "address",
          "name": "_farmContract",
          "type": "address"
        }
      ],
      "name": "updateFarmContract",
      "outputs": [],
      "stateMutability": "nonpayable",
      "type": "function"
    },
    {
      "inputs": [
        {
          "internalType": "address",
          "name": "_address",
          "type": "address"
        }
      ],
      "name": "updateFundAdmin",
      "outputs": [],
      "stateMutability": "nonpayable",
      "type": "function"
    },
    {
      "inputs": [
        {
          "internalType": "enum IMarketPlace.PaymentType",
          "name": "_type",
          "type": "uint8"
        }
      ],
      "name": "updatePaymentType",
      "outputs": [],
      "stateMutability": "nonpayable",
      "type": "function"
    },
    {
      "inputs": [],
      "name": "usdtToken",
      "outputs": [
        {
          "internalType": "contract IBEP20",
          "name": "",
          "type": "address"
        }
      ],
      "stateMutability": "view",
      "type": "function"
    },
    {
      "inputs": [
        {
          "internalType": "address",
          "name": "_mainAdmin",
          "type": "address"
        }
      ],
      "name": "initialize",
      "outputs": [],
      "stateMutability": "nonpayable",
      "type": "function"
    },
    {
      "inputs": [
        {
          "internalType": "string",
          "name": "_name",
          "type": "string"
        },
        {
          "internalType": "string",
          "name": "_version",
          "type": "string"
        },
        {
          "internalType": "address",
          "name": "_mainAdmin",
          "type": "address"
        },
        {
          "internalType": "address",
          "name": "_fundAdmin",
          "type": "address"
        },
        {
          "internalType": "address",
          "name": "_heroNft",
          "type": "address"
        },
        {
          "internalType": "address",
          "name": "_itemNft",
          "type": "address"
        },
        {
          "internalType": "address",
          "name": "_fotaPricer",
          "type": "address"
        }
      ],
      "name": "initialize",
      "outputs": [],
      "stateMutability": "nonpayable",
      "type": "function"
    },
    {
      "inputs": [
        {
          "internalType": "uint256",
          "name": "_tokenId",
          "type": "uint256"
        },
        {
          "internalType": "uint256",
          "name": "_eatherId",
          "type": "uint256"
        },
        {
          "internalType": "enum IMarketPlace.PaymentCurrency",
          "name": "_paymentCurrency",
          "type": "uint8"
        },
        {
          "internalType": "uint8",
          "name": "_acceptedRatio",
          "type": "uint8"
        },
        {
          "internalType": "string",
          "name": "_seed",
          "type": "string"
        },
        {
          "internalType": "bytes",
          "name": "_signature",
          "type": "bytes"
        }
      ],
      "name": "skillUp",
      "outputs": [],
      "stateMutability": "nonpayable",
      "type": "function"
    },
    {
      "inputs": [
        {
          "internalType": "uint8",
          "name": "_section",
          "type": "uint8"
        },
        {
          "internalType": "uint256",
          "name": "_fee",
          "type": "uint256"
        },
        {
          "internalType": "uint8",
          "name": "_successRatio",
          "type": "uint8"
        }
      ],
      "name": "updateRequirements",
      "outputs": [],
      "stateMutability": "nonpayable",
      "type": "function"
    },
    {
      "inputs": [
        {
          "internalType": "address",
          "name": "_fotaToken",
          "type": "address"
        },
        {
          "internalType": "address",
          "name": "_busdToken",
          "type": "address"
        },
        {
          "internalType": "address",
          "name": "_usdtToken",
          "type": "address"
        }
      ],
      "name": "setToken",
      "outputs": [],
      "stateMutability": "nonpayable",
      "type": "function"
    }
  ],
  "bytecode": "0x608060405234801561001057600080fd5b5061352e806100206000396000f3fe608060405234801561001057600080fd5b50600436106101b95760003560e01c80639eb0e965116100f9578063c4d66de811610097578063de0e701411610071578063de0e701414610347578063e0b22c4c1461034f578063f2fde38b14610362578063fb6b04ba14610375576101b9565b8063c4d66de814610319578063c91f0c531461032c578063dcb2072d1461033f576101b9565b8063a98ad46c116100d3578063a98ad46c146102e3578063aca986c8146102eb578063b7d6caec146102fe578063be15abdd14610306576101b9565b80639eb0e965146102b5578063a00245fa146102bd578063a1f2fba1146102d0576101b9565b806348d002f211610166578063779552451161014057806377955245146102725780637ecebe001461027a57806394985ddd1461029a5780639c456583146102ad576101b9565b806348d002f21461024f5780635e1c2f0a1461025757806366d0ae5a1461025f576101b9565b8063141734821161019757806314173482146102065780632763b8da1461021957806330e590db1461022e576101b9565b806302e65b8a146101be5780630b39217e146101d357806311541ce0146101f1575b600080fd5b6101d16101cc3660046126c6565b61037d565b005b6101db610407565b6040516101e89190612b5b565b60405180910390f35b6101f9610416565b6040516101e89190612c10565b6101d16102143660046126c6565b61042d565b610221610510565b6040516101e89190612cad565b61024161023c366004612a0d565b610520565b6040516101e892919061330c565b6101db61053c565b6101db61054b565b6101d161026d366004612929565b61055a565b6101db610875565b61028d6102883660046126c6565b610884565b6040516101e89190612ab9565b6101d16102a8366004612749565b610896565b6101db6108ce565b6101db6108dd565b6101d16102cb36600461276a565b6108ec565b6101d16102de3660046126e7565b61099d565b6101db610a00565b6101d16102f93660046126c6565b610a0f565b6101f9610a7b565b6101d1610314366004612a78565b610a8c565b6101d16103273660046126c6565b610b66565b6101d161033a366004612786565b610c23565b6101db610ce4565b6101db610cf3565b6101d161035d3660046126c6565b610d02565b6101d16103703660046126c6565b610dcb565b6101db610e64565b610385610416565b6103aa5760405162461bcd60e51b81526004016103a19061303d565b60405180910390fd5b6001600160a01b0381166103bd57600080fd5b600180546001600160a01b0319166001600160a01b0383169081179091556040517fe3f4a4b5b74aa6830627cb87c50cf7d4ed56e9b246729179ba634bbdc873177a90600090a250565b6042546001600160a01b031681565b6000546201000090046001600160a01b0316331490565b610435610416565b6104515760405162461bcd60e51b81526004016103a19061303d565b603e80546001600160a01b0319166001600160a01b0383811691909117909155603c546040517f095ea7b300000000000000000000000000000000000000000000000000000000815260001992919091169063095ea7b3906104b99085908590600401612bad565b602060405180830381600087803b1580156104d357600080fd5b505af11580156104e7573d6000803e3d6000fd5b505050506040513d601f19601f8201168201806040525081019061050b9190612729565b505050565b603d54600160a01b900460ff1681565b6043602052600090815260409020805460019091015460ff1682565b603c546001600160a01b031681565b603d546001600160a01b031681565b610565838383610e79565b60008061057189610f82565b9150915060008260001461058f5761058a6005846133cf565b610592565b60005b60ff80821660009081526043602052604090206001015491925090811690881611156105d05760405162461bcd60e51b81526004016103a190612f0a565b60006105df8b8989898761116c565b60ff80841660009081526043602052604081206001810154905493945090929082169161060f91908c16906133e3565b61061991906133cf565b905081156106305761062b8a82611242565b6107ec565b6000604160009054906101000a90046001600160a01b03166001600160a01b0316634437c7718e6040518263ffffffff1660e01b81526004016106739190612ab9565b604080518083038186803b15801561068a57600080fd5b505afa15801561069e573d6000803e3d6000fd5b505050506040513d601f19601f820116820180604052508101906106c29190612906565b9150506000604260009054906101000a90046001600160a01b03166001600160a01b0316633129e7738e6040518263ffffffff1660e01b81526004016107089190612ab9565b60a06040518083038186803b15801561072057600080fd5b505afa158015610734573d6000803e3d6000fd5b505050506040513d601f19601f820116820180604052508101906107589190612a29565b509350505050604160009054906101000a90046001600160a01b03166001600160a01b0316631ab5f3a38f8386866107909190613392565b61079a9190613392565b6040518363ffffffff1660e01b81526004016107b7929190612ac2565b600060405180830381600087803b1580156107d157600080fd5b505af11580156107e5573d6000803e3d6000fd5b5050505050505b6042546040517f42966c680000000000000000000000000000000000000000000000000000000081526001600160a01b03909116906342966c6890610835908e90600401612ab9565b600060405180830381600087803b15801561084f57600080fd5b505af1158015610863573d6000803e3d6000fd5b50505050505050505050505050505050565b6001546001600160a01b031681565b60396020526000908152604090205481565b6037546001600160a01b031633146108c05760405162461bcd60e51b81526004016103a1906131d3565b6108ca828261124e565b5050565b603f546001600160a01b031681565b603e546001600160a01b031681565b6108f4610416565b6109105760405162461bcd60e51b81526004016103a19061303d565b603d80548291907fffffffffffffffffffffff00ffffffffffffffffffffffffffffffffffffffff16600160a01b83600281111561095e57634e487b7160e01b600052602160045260246000fd5b02179055507f42d1d4a3df940c5fa3c262d3d5b271a206cfc2e3da70683f81854b3f52f8f5d5816040516109929190612cad565b60405180910390a150565b6109a5610416565b6109c15760405162461bcd60e51b81526004016103a19061303d565b603c80546001600160a01b039485166001600160a01b031991821617909155603a805493851693821693909317909255603b8054919093169116179055565b603b546001600160a01b031681565b610a17610416565b610a335760405162461bcd60e51b81526004016103a19061303d565b6001600160a01b038116610a595760405162461bcd60e51b81526004016103a190612dd7565b603f80546001600160a01b0319166001600160a01b0392909216919091179055565b6001546001600160a01b0316331490565b610a94610416565b610ab05760405162461bcd60e51b81526004016103a19061303d565b60008160ff16118015610ac7575060648160ff1611155b610ae35760405162461bcd60e51b81526004016103a190613108565b60408051808201825283815260ff838116602080840191825287831660008181526043909252908590209351845590516001909301805460ff19169390921692909217905590517f5bae8263be9abe066dd15b389ac9bdf2b4937ed6a90ff640fd74cb022eebc11990610b59908590859061330c565b60405180910390a2505050565b600054610100900460ff1680610b7f575060005460ff16155b610b9b5760405162461bcd60e51b81526004016103a190612f9e565b600054610100900460ff16158015610bc6576000805460ff1961ff0019909116610100171660011790555b6000805475ffffffffffffffffffffffffffffffffffffffff00001916620100006001600160a01b03851690810291909117909155600180546001600160a01b031916909117905580156108ca576000805461ff00191690555050565b600054610100900460ff1680610c3c575060005460ff16155b610c585760405162461bcd60e51b81526004016103a190612f9e565b600054610100900460ff16158015610c83576000805460ff1961ff0019909116610100171660011790555b610c908888888886611254565b604180546001600160a01b038087166001600160a01b0319928316179092556042805492861692909116919091179055610cc861139e565b8015610cda576000805461ff00191690555b5050505050505050565b6041546001600160a01b031681565b603a546001600160a01b031681565b610d0a610416565b610d265760405162461bcd60e51b81526004016103a19061303d565b6040516370a0823160e01b815281906001600160a01b0382169063a9059cbb90339083906370a0823190610d5e903090600401612b5b565b60206040518083038186803b158015610d7657600080fd5b505afa158015610d8a573d6000803e3d6000fd5b505050506040513d601f19601f82011682018060405250810190610dae91906128ee565b6040518363ffffffff1660e01b81526004016104b9929190612bad565b610dd3610416565b610def5760405162461bcd60e51b81526004016103a19061303d565b6001600160a01b038116610e0257600080fd5b6000805475ffffffffffffffffffffffffffffffffffffffff00001916620100006001600160a01b038416908102919091178255604051909133917f8be0079c531659141344cd1fd0a4f28419497f9722a3daafe3b4186f6b6457e09190a350565b6000546201000090046001600160a01b031681565b6000610ef67f1a823066fbc1aa5b66fa1ba3e226098d4e8cb86add37fba146337ee566d7341f338686604051610eb0929190612ad0565b604080519182900382203360009081526039602090815292902054610edb9594939192909101612c1b565b60405160208183030381529060405280519060200120611583565b336000908152603960205260408120805492935090610f1483613449565b91905055506000610f25828461159e565b6001549091506001600160a01b03808316911614610f555760405162461bcd60e51b81526004016103a190612f41565b6001600160a01b038116610f7b5760405162461bcd60e51b81526004016103a190612e50565b5050505050565b6041546040517f21d801110000000000000000000000000000000000000000000000000000000081526000918291829182916001600160a01b03909116906321d8011190610fd4908890600401612ab9565b60006040518083038186803b158015610fec57600080fd5b505afa158015611000573d6000803e3d6000fd5b505050506040513d6000823e601f3d908101601f19168201604052611028919081019061283a565b60415491985063ffffffff169650600095506001600160a01b0316935063b123f7ea925061105b915086905060016133aa565b6040518263ffffffff1660e01b8152600401611077919061331d565b60206040518083038186803b15801561108f57600080fd5b505afa1580156110a3573d6000803e3d6000fd5b505050506040513d601f19601f820116820180604052508101906110c791906129f3565b90508063ffffffff1682146110ee5760405162461bcd60e51b81526004016103a19061320a565b60006110fb600585613478565b90508060ff1660011415801561111557508060ff16600314155b6111315760405162461bcd60e51b81526004016103a190612d0c565b600060ff821615611156578160ff1660021461114e576002611151565b60015b611159565b60005b60ff909516965093945050505050915091565b60006111798484876115c2565b905080156111ff576041546040517fcc96cfe40000000000000000000000000000000000000000000000000000000081526001600160a01b039091169063cc96cfe4906111cc908990869060040161330c565b600060405180830381600087803b1580156111e657600080fd5b505af11580156111fa573d6000803e3d6000fd5b505050505b857f682099bd64984386bd372b5a8d130e3ef91fbb2e267d4d323d252ed0fca789d0868360405161123192919061332b565b60405180910390a295945050505050565b6108ca828260016115ee565b60405550565b600054610100900460ff168061126d575060005460ff16155b6112895760405162461bcd60e51b81526004016103a190612f9e565b600054610100900460ff161580156112b4576000805460ff1961ff0019909116610100171660011790555b6112bd84610b66565b6112c78686611777565b603f80546001600160a01b038086166001600160a01b031992831617909255603d805492851692821692909217909155603c805482167369c3ff5f466757bf99fef916ae9a191d7c13696c179055603a8054821673d8ad05ff852ae4eb264089c377501494ea1d03c9179055603b805490911673a1d3c78f0f98f6ba7b08ec15df48e22880a0024c17905561138473a555fc018435bef5a13c6c6870a9d4c11dec329c7384b9b910527ad5c03a9ca831909e21e236ea7b066117f7565b8015611396576000805461ff00191690555b505050505050565b60408051808201825268056bc75e2d631000008152603260208083019182526000808052604380835293517f8872e3e321618d759d961376a09ede5795255e81a37cc4a6812c4ae68bf2f7cd5591517f8872e3e321618d759d961376a09ede5795255e81a37cc4a6812c4ae68bf2f7ce805460ff92831660ff199182161790915585518087018752681b1ae4d6e2ef5000008152601e8185019081526001865286855290517f7b18867ebd2b04dbe21f520089d61bc882c11b3f5cc506df65457bb01e79629755517f7b18867ebd2b04dbe21f520089d61bc882c11b3f5cc506df65457bb01e796298805491841691831691909117905585518087018752683635c9adc5dea000008152600a8185018181526002875287865291517fb24be977f4ec7a75f89e669b15af271af2f8729c5e9c8c681997633a48b103145590517fb24be977f4ec7a75f89e669b15af271af2f8729c5e9c8c681997633a48b103158054918516918416919091179055865180880190975269010f0cf064dd59200000875286840190815260039094529390915292517f62f6a8d3ed649f412d833373e5344ded5babeca5d7f90d4d90216edfee362f6c55517f62f6a8d3ed649f412d833373e5344ded5babeca5d7f90d4d90216edfee362f6d8054919093169116179055565b600061159661159061189d565b836118dd565b90505b919050565b60008060006115ad8585611910565b915091506115ba81611980565b509392505050565b6000806115d28585604054611ab0565b90506115dc611ac9565b5060ff80841691161090509392505050565b6000603d54600160a01b900460ff16600281111561161c57634e487b7160e01b600052602160045260246000fd5b14156116c157603d54604080516319c2286960e31b815290516116bc926001600160a01b03169163ce114348916004808301926020929190829003018186803b15801561166857600080fd5b505afa15801561167c573d6000803e3d6000fd5b505050506040513d601f19601f820116820180604052508101906116a091906128ee565b6116ac6103e8856133e3565b6116b691906133cf565b82611ba6565b61050b565b6001603d54600160a01b900460ff1660028111156116ef57634e487b7160e01b600052602160045260246000fd5b14156116ff576116bc8383611ee7565b600083600281111561172157634e487b7160e01b600052602160045260246000fd5b141561176d57603d54604080516319c2286960e31b815290516116bc926001600160a01b03169163ce114348916004808301926020929190829003018186803b15801561166857600080fd5b61050b8383611ee7565b600054610100900460ff1680611790575060005460ff16155b6117ac5760405162461bcd60e51b81526004016103a190612f9e565b600054610100900460ff161580156117d7576000805460ff1961ff0019909116610100171660011790555b6117e183836121e9565b801561050b576000805461ff0019169055505050565b600054610100900460ff1680611810575060005460ff16155b61182c5760405162461bcd60e51b81526004016103a190612f9e565b600054610100900460ff16158015611857576000805460ff1961ff0019909116610100171660011790555b603780546001600160a01b038086166001600160a01b0319928316179092556036805492851692909116919091179055801561050b576000805461ff0019169055505050565b60006118d87f8b73c3c69bb8fe3d512ecc4cf759cc79239f7b179b0ffacaa9a75d522b39400f6118cb61227c565b6118d3612282565b612288565b905090565b600082826040516020016118f2929190612ae0565b60405160208183030381529060405280519060200120905092915050565b6000808251604114156119475760208301516040840151606085015160001a61193b878285856122c2565b94509450505050611979565b82516040141561197157602083015160408401516119668683836123a2565b935093505050611979565b506000905060025b9250929050565b60008160048111156119a257634e487b7160e01b600052602160045260246000fd5b14156119ad57611aad565b60018160048111156119cf57634e487b7160e01b600052602160045260246000fd5b14156119ed5760405162461bcd60e51b81526004016103a190612cd5565b6002816004811115611a0f57634e487b7160e01b600052602160045260246000fd5b1415611a2d5760405162461bcd60e51b81526004016103a190612da0565b6003816004811115611a4f57634e487b7160e01b600052602160045260246000fd5b1415611a6d5760405162461bcd60e51b81526004016103a190612e0e565b6004816004811115611a8f57634e487b7160e01b600052602160045260246000fd5b1415611aad5760405162461bcd60e51b81526004016103a190612ffb565b50565b6000611ac1848484600060636123ea565b949350505050565b6036546040516370a0823160e01b815260009167016345785d8a0000916001600160a01b03909116906370a0823190611b06903090600401612b5b565b60206040518083038186803b158015611b1e57600080fd5b505afa158015611b32573d6000803e3d6000fd5b505050506040513d601f19601f82011682018060405250810190611b5691906128ee565b1015611b745760405162461bcd60e51b81526004016103a190612d43565b6118d87fcaf3c3727e033261d383b315559476f48034c13b18f8cafed4d871abe504918667016345785d8a000061249f565b603c546040517fdd62ed3e00000000000000000000000000000000000000000000000000000000815283916001600160a01b03169063dd62ed3e90611bf19033903090600401612b6f565b60206040518083038186803b158015611c0957600080fd5b505afa158015611c1d573d6000803e3d6000fd5b505050506040513d601f19601f82011682018060405250810190611c4191906128ee565b1015611c5f5760405162461bcd60e51b81526004016103a1906132d5565b603c546040516370a0823160e01b815283916001600160a01b0316906370a0823190611c8f903390600401612b5b565b60206040518083038186803b158015611ca757600080fd5b505afa158015611cbb573d6000803e3d6000fd5b505050506040513d601f19601f82011682018060405250810190611cdf91906128ee565b1015611cfd5760405162461bcd60e51b81526004016103a190613267565b603c546040516323b872dd60e01b81526001600160a01b03909116906323b872dd90611d3190339030908790600401612b89565b602060405180830381600087803b158015611d4b57600080fd5b505af1158015611d5f573d6000803e3d6000fd5b505050506040513d601f19601f82011682018060405250810190611d839190612729565b611d9f5760405162461bcd60e51b81526004016103a19061319c565b6000816001811115611dc157634e487b7160e01b600052602160045260246000fd5b1415611e7057603c54603f5460405163a9059cbb60e01b81526001600160a01b039283169263a9059cbb92611dfd929116908690600401612bad565b602060405180830381600087803b158015611e1757600080fd5b505af1158015611e2b573d6000803e3d6000fd5b505050506040513d601f19601f82011682018060405250810190611e4f9190612729565b611e6b5760405162461bcd60e51b81526004016103a190612ead565b6108ca565b603e546040517fea102eda0000000000000000000000000000000000000000000000000000000081526001600160a01b039091169063ea102eda90611eb9908590600401612ab9565b600060405180830381600087803b158015611ed357600080fd5b505af1158015611396573d6000803e3d6000fd5b6000826002811115611f0957634e487b7160e01b600052602160045260246000fd5b1415611f275760405162461bcd60e51b81526004016103a1906130d1565b60006001836002811115611f4b57634e487b7160e01b600052602160045260246000fd5b14611f6157603b546001600160a01b0316611f6e565b603a546001600160a01b03165b905081816001600160a01b031663dd62ed3e33306040518363ffffffff1660e01b8152600401611f9f929190612b6f565b60206040518083038186803b158015611fb757600080fd5b505afa158015611fcb573d6000803e3d6000fd5b505050506040513d601f19601f82011682018060405250810190611fef91906128ee565b101561200d5760405162461bcd60e51b81526004016103a190613074565b6040516370a0823160e01b815282906001600160a01b038316906370a082319061203b903390600401612b5b565b60206040518083038186803b15801561205357600080fd5b505afa158015612067573d6000803e3d6000fd5b505050506040513d601f19601f8201168201806040525081019061208b91906128ee565b10156120a95760405162461bcd60e51b81526004016103a19061313f565b6040516323b872dd60e01b81526001600160a01b038216906323b872dd906120d990339030908790600401612b89565b602060405180830381600087803b1580156120f357600080fd5b505af1158015612107573d6000803e3d6000fd5b505050506040513d601f19601f8201168201806040525081019061212b9190612729565b6121475760405162461bcd60e51b81526004016103a190612ead565b603f5460405163a9059cbb60e01b81526001600160a01b038381169263a9059cbb9261217b92909116908690600401612bad565b602060405180830381600087803b15801561219557600080fd5b505af11580156121a9573d6000803e3d6000fd5b505050506040513d601f19601f820116820180604052508101906121cd9190612729565b61050b5760405162461bcd60e51b81526004016103a190612ead565b600054610100900460ff1680612202575060005460ff16155b61221e5760405162461bcd60e51b81526004016103a190612f9e565b600054610100900460ff16158015612249576000805460ff1961ff0019909116610100171660011790555b8251602080850191909120835191840191909120600291909155600355801561050b576000805461ff0019169055505050565b60025490565b60035490565b600083838346306040516020016122a3959493929190612c3f565b6040516020818303038152906040528051906020012090509392505050565b6000807f7fffffffffffffffffffffffffffffff5d576e7357a4501ddfe92f46681b20a08311156122f95750600090506003612399565b8460ff16601b1415801561231157508460ff16601c14155b156123225750600090506004612399565b6000600187878787604051600081526020016040526040516123479493929190612c8f565b6020604051602081039080840390855afa158015612369573d6000803e3d6000fd5b5050604051601f1901519150506001600160a01b03811661239257600060019250925050612399565b9150600090505b94509492505050565b6000807f7fffffffffffffffffffffffffffffffffffffffffffffffffffffffffffffff831660ff84901c601b016123dc878288856122c2565b935093505050935093915050565b600082821161240b5760405162461bcd60e51b81526004016103a19061329e565b60006124178484613402565b612422906001613392565b434442338b8b8b60405160200161243f9796959493929190612b16565b604051602081830303815290604052805190602001206040516020016124659190612ab9565b6040516020818303038152906040528051906020012060001c6124889190613464565b90506124948482613392565b979650505050505050565b6036546037546040516000926001600160a01b0390811692634000aea09291169085906124d29088908790602001612ac2565b6040516020818303038152906040526040518463ffffffff1660e01b81526004016124ff93929190612bc6565b602060405180830381600087803b15801561251957600080fd5b505af115801561252d573d6000803e3d6000fd5b505050506040513d601f19601f820116820180604052508101906125519190612729565b50600083815260386020526040812054612570908590839030906125a6565b60008581526038602052604090205490915061258d906001613392565b600085815260386020526040902055611ac184826125e0565b6000848484846040516020016125bf9493929190612c6b565b60408051601f19818403018152919052805160209091012095945050505050565b600082826040516020016118f2929190612ac2565b80356001600160a01b038116811461159957600080fd5b600082601f83011261261c578081fd5b813561262f61262a8261336a565b613340565b818152846020838601011115612643578283fd5b816020850160208301379081016020019190915292915050565b600082601f83011261266d578081fd5b815161267b61262a8261336a565b81815284602083860101111561268f578283fd5b611ac1826020830160208701613419565b805161ffff8116811461159957600080fd5b805163ffffffff8116811461159957600080fd5b6000602082840312156126d7578081fd5b6126e0826125f5565b9392505050565b6000806000606084860312156126fb578182fd5b612704846125f5565b9250612712602085016125f5565b9150612720604085016125f5565b90509250925092565b60006020828403121561273a578081fd5b815180151581146126e0578182fd5b6000806040838503121561275b578182fd5b50508035926020909101359150565b60006020828403121561277b578081fd5b81356126e0816134dc565b600080600080600080600060e0888a0312156127a0578283fd5b873567ffffffffffffffff808211156127b7578485fd5b6127c38b838c0161260c565b985060208a01359150808211156127d8578485fd5b506127e58a828b0161260c565b9650506127f4604089016125f5565b9450612802606089016125f5565b9350612810608089016125f5565b925061281e60a089016125f5565b915061282c60c089016125f5565b905092959891949750929550565b600080600080600080600060e0888a031215612854578283fd5b875167ffffffffffffffff8082111561286b578485fd5b6128778b838c0161265d565b985060208a015191508082111561288c578485fd5b6128988b838c0161265d565b975060408a01519150808211156128ad578485fd5b506128ba8a828b0161265d565b9550506128c9606089016126a0565b93506080880151925060a08801516128e0816134e9565b915061282c60c089016126b2565b6000602082840312156128ff578081fd5b5051919050565b60008060408385031215612918578182fd5b505080516020909101519092909150565b600080600080600080600060c0888a031215612943578081fd5b8735965060208801359550604088013561295c816134dc565b9450606088013561296c816134e9565b9350608088013567ffffffffffffffff80821115612988578283fd5b818a0191508a601f83011261299b578283fd5b8135818111156129a9578384fd5b8b60208285010111156129ba578384fd5b6020830195508094505060a08a01359150808211156129d7578283fd5b506129e48a828b0161260c565b91505092959891949750929550565b600060208284031215612a04578081fd5b6126e0826126b2565b600060208284031215612a1e578081fd5b81356126e0816134e9565b600080600080600060a08688031215612a40578283fd5b8551612a4b816134e9565b9450612a59602087016126a0565b6040870151606088015160809098015196999198509695945092505050565b600080600060608486031215612a8c578081fd5b8335612a97816134e9565b9250602084013591506040840135612aae816134e9565b809150509250925092565b90815260200190565b918252602082015260400190565b6000828483379101908152919050565b7f190100000000000000000000000000000000000000000000000000000000000081526002810192909252602282015260420190565b60008882528760208301528660408301526bffffffffffffffffffffffff198660601b1660608301528385607484013750607492019182015260940195945050505050565b6001600160a01b0391909116815260200190565b6001600160a01b0392831681529116602082015260400190565b6001600160a01b039384168152919092166020820152604081019190915260600190565b6001600160a01b03929092168252602082015260400190565b60006001600160a01b0385168252836020830152606060408301528251806060840152612bfa816080850160208701613419565b601f01601f191691909101608001949350505050565b901515815260200190565b9384526001600160a01b039290921660208401526040830152606082015260800190565b9485526020850193909352604084019190915260608301526001600160a01b0316608082015260a00190565b93845260208401929092526001600160a01b03166040830152606082015260800190565b93845260ff9290921660208401526040830152606082015260800190565b6020810160038310612ccf57634e487b7160e01b600052602160045260246000fd5b91905290565b60208082526018908201527f45434453413a20696e76616c6964207369676e61747572650000000000000000604082015260600190565b6020808252601e908201527f536b696c6c20557067726164696e673a204c6576656c20696e76616c69640000604082015260600190565b6020808252603a908201527f4e465420557067726164696e673a204e6f7420656e6f756768204c494e4b202d60408201527f2066696c6c20636f6e7472616374207769746820666175636574000000000000606082015260800190565b6020808252601f908201527f45434453413a20696e76616c6964207369676e6174757265206c656e67746800604082015260600190565b6020808252601c908201527f4d61726b6574506c6163653a20696e76616c6964206164647265737300000000604082015260600190565b60208082526022908201527f45434453413a20696e76616c6964207369676e6174757265202773272076616c604082015261756560f01b606082015260800190565b60208082526023908201527f45434453415570677261646561626c653a20696e76616c6964207369676e617460408201527f7572650000000000000000000000000000000000000000000000000000000000606082015260800190565b60208082526028908201527f4e465420557067726164696e673a207472616e736665722075736420746f6b6560408201527f6e206661696c6564000000000000000000000000000000000000000000000000606082015260800190565b6020808252601e908201527f536b696c6c20557067726164696e673a20696e76616c696420726174696f0000604082015260600190565b60208082526022908201527f4d65737361676556657269666965723a20696e76616c6964207369676e61747560408201527f7265000000000000000000000000000000000000000000000000000000000000606082015260800190565b6020808252602e908201527f496e697469616c697a61626c653a20636f6e747261637420697320616c72656160408201527f647920696e697469616c697a6564000000000000000000000000000000000000606082015260800190565b60208082526022908201527f45434453413a20696e76616c6964207369676e6174757265202776272076616c604082015261756560f01b606082015260800190565b6020808252600d908201527f6f6e6c794d61696e41646d696e00000000000000000000000000000000000000604082015260600190565b6020808252602d908201527f4e465420557067726164696e673a20706c6561736520617070726f766520757360408201527f6420746f6b656e20666972737400000000000000000000000000000000000000606082015260800190565b60208082526018908201527f7061796d656e742063757272656e637920696e76616c69640000000000000000604082015260600190565b6020808252600d908201527f526174696f20696e76616c696400000000000000000000000000000000000000604082015260600190565b60208082526023908201527f4e465420557067726164696e673a20696e73756666696369656e742062616c6160408201527f6e63650000000000000000000000000000000000000000000000000000000000606082015260800190565b60208082526014908201527f7472616e7366657220666f7461206661696c6564000000000000000000000000604082015260600190565b6020808252601f908201527f4f6e6c7920565246436f6f7264696e61746f722063616e2066756c66696c6c00604082015260600190565b60208082526023908201527f536b696c6c20557067726164696e673a20457870657269656e636520696e766160408201527f6c69640000000000000000000000000000000000000000000000000000000000606082015260800190565b60208082526018908201527f706c656173652066756e6420796f7572206163636f756e740000000000000000604082015260600190565b60208082526013908201527f4d6174683a20496e76616c69642072616e676500000000000000000000000000604082015260600190565b60208082526019908201527f706c6561736520617070726f766520666f746120666972737400000000000000604082015260600190565b91825260ff16602082015260400190565b60ff91909116815260200190565b60ff9290921682521515602082015260400190565b60405181810167ffffffffffffffff81118282101715613362576133626134c6565b604052919050565b600067ffffffffffffffff821115613384576133846134c6565b50601f01601f191660200190565b600082198211156133a5576133a561349a565b500190565b600060ff821660ff84168060ff038211156133c7576133c761349a565b019392505050565b6000826133de576133de6134b0565b500490565b60008160001904831182151516156133fd576133fd61349a565b500290565b6000828210156134145761341461349a565b500390565b60005b8381101561343457818101518382015260200161341c565b83811115613443576000848401525b50505050565b600060001982141561345d5761345d61349a565b5060010190565b600082613473576134736134b0565b500690565b600060ff83168061348b5761348b6134b0565b8060ff84160691505092915050565b634e487b7160e01b600052601160045260246000fd5b634e487b7160e01b600052601260045260246000fd5b634e487b7160e01b600052604160045260246000fd5b60038110611aad57600080fd5b60ff81168114611aad57600080fdfea2646970667358221220fc74e58c03682e4a1a6222c6da19f376002467d7a6bba74cf19e2a820d282e9164736f6c63430008000033",
  "immutableReferences": {},
  "source": "// SPDX-License-Identifier: GPL\n\npragma solidity 0.8.0;\n\nimport \"../interfaces/IGameNFT.sol\";\nimport \"./BaseUpgrading.sol\";\n\ncontract SkillUpgrading is BaseUpgrading {\n  IGameNFT public heroNft;\n  IGameNFT public itemNft;\n\n  struct Requirement {\n    uint fee;\n    uint8 successRatio;\n  }\n  mapping (uint8 => Requirement) public requirements;\n\n  event RequirementUpdated(uint8 indexed section, uint fee, uint8 successRatio);\n  event Upgraded(uint indexed tokenId, uint8 acceptedRatio, bool success);\n\n  function initialize(\n    string memory _name,\n    string memory _version,\n    address _mainAdmin,\n    address _fundAdmin,\n    address _heroNft,\n    address _itemNft,\n    address _fotaPricer\n  ) public initializer {\n    super.initialize(_name, _version, _mainAdmin, _fundAdmin, _fotaPricer);\n    heroNft = IGameNFT(_heroNft);\n    itemNft = IGameNFT(_itemNft);\n    _initData();\n  }\n\n  function skillUp(\n    uint _tokenId,\n    uint _eatherId,\n    IMarketPlace.PaymentCurrency _paymentCurrency,\n    uint8 _acceptedRatio,\n    string calldata _seed,\n    bytes memory _signature\n  ) external {\n    _validateSeed(_seed, _signature);\n    (uint level, uint8 skillIndex) = _validateHero(_tokenId);\n    uint8 section = level == 0 ? 0 : uint8(level / 5);\n    require(_acceptedRatio <= requirements[section].successRatio, \"Skill Upgrading: invalid ratio\");\n    bool success = _upgradeSkill(_tokenId, _acceptedRatio, _seed, skillIndex);\n    uint _upgradingFee = requirements[section].fee * uint(_acceptedRatio) / uint(requirements[section].successRatio);\n    if (success) {\n      _takeFee(_paymentCurrency, _upgradingFee);\n    } else {\n      (,uint failedUpgradingAmount) = heroNft.getHeroPrices(_tokenId);\n      (,,, uint eatherPrice,) = itemNft.getItem(_eatherId);\n      heroNft.updateFailedUpgradingAmount(_tokenId, failedUpgradingAmount + _upgradingFee + eatherPrice);\n    }\n    itemNft.burn(_eatherId);\n  }\n\n  // ADMIN FUNCTIONS\n\n  function updateRequirements(uint8 _section, uint _fee, uint8 _successRatio) external onlyMainAdmin {\n    require(_successRatio > 0 && _successRatio <= 100, \"Ratio invalid\");\n    requirements[_section] = Requirement(_fee, _successRatio);\n    emit RequirementUpdated(_section, _fee, _successRatio);\n  }\n\n  // PRIVATE FUNCTIONS\n\n  function _upgradeSkill(\n    uint _tokenId,\n    uint8 _acceptedRatio,\n    string calldata _seed,\n    uint8 _skillIndex\n  ) private returns (bool success) {\n    success = isSuccess(_seed, _acceptedRatio);\n    if (success) {\n      heroNft.skillUp(_tokenId, _skillIndex);\n    }\n    emit Upgraded(_tokenId, _acceptedRatio, success);\n  }\n\n  function _initData() private {\n    requirements[0] = Requirement(100e18, 50);\n    requirements[1] = Requirement(500e18, 30);\n    requirements[2] = Requirement(1000e18, 10);\n    requirements[3] = Requirement(5000e18, 10);\n  }\n\n  function _validateSeed(\n    string calldata _seed,\n    bytes memory _signature\n  ) override internal {\n    bytes32 digest = _hashTypedDataV4(keccak256(abi.encode(\n        keccak256(\"SkillUp(address user,string seed,uint256 nonce)\"),\n        msg.sender,\n        keccak256(bytes(_seed)),\n        nonces[msg.sender]\n      )));\n    nonces[msg.sender]++;\n    address signer = ECDSAUpgradeable.recover(digest, _signature);\n    require(signer == contractAdmin, \"MessageVerifier: invalid signature\");\n    require(signer != address(0), \"ECDSAUpgradeable: invalid signature\");\n  }\n\n  function _validateHero(uint _tokenId) private view returns (uint, uint8) {\n    (,,,,,uint8 level, uint experience) = heroNft.getHero(_tokenId);\n    uint32 experienceCheckpoint = heroNft.experienceCheckpoint(level + 1);\n    require(experience == experienceCheckpoint, \"Skill Upgrading: Experience invalid\");\n    uint8 levelMod5 = uint8(level % 5);\n    require(levelMod5 != 1 && levelMod5 != 3, \"Skill Upgrading: Level invalid\");\n    uint8 skillIndex = levelMod5 == 0 ? 0 : levelMod5 == 2 ? 1 : 2;\n    return (level, skillIndex);\n  }\n\n  function _takeFee(IMarketPlace.PaymentCurrency _paymentCurrency, uint _upgradingFee) private {\n    takeFund(_paymentCurrency, _upgradingFee, Implementation.Hero);\n  }\n\n  // TODO for testing purpose\n  function setToken(address _fotaToken, address _busdToken, address _usdtToken) external onlyMainAdmin {\n    fotaToken = IBEP20(_fotaToken);\n    busdToken = IBEP20(_busdToken);\n    usdtToken = IBEP20(_usdtToken);\n  }\n}\n",
  "sourcePath": "/Users/dung/Documents/sources/fota-dapp/contracts/upgradings/SkillUpgrading.sol",
  "compiler": {
    "name": "solc",
    "version": "0.8.0+commit.c7dfd78e.Emscripten.clang"
  },
  "schemaVersion": "3.3.4",
  "updatedAt": "2022-03-03T04:57:24.580Z",
  "networkType": "ethereum",
  "devdoc": {
    "kind": "dev",
    "methods": {},
    "version": 1
  },
  "userdoc": {
    "kind": "user",
    "methods": {},
    "version": 1
  }
}