{
  "contractName": "StrategicSale",
  "abi": [
    {
      "anonymous": false,
      "inputs": [
        {
          "indexed": true,
          "internalType": "address",
          "name": "buyer",
          "type": "address"
        },
        {
          "indexed": false,
          "internalType": "uint256",
          "name": "amount",
          "type": "uint256"
        },
        {
          "indexed": false,
          "internalType": "uint256",
          "name": "price",
          "type": "uint256"
        },
        {
          "indexed": false,
          "internalType": "uint256",
          "name": "timestamp",
          "type": "uint256"
        }
      ],
      "name": "Bought",
      "type": "event"
    },
    {
      "anonymous": false,
      "inputs": [
        {
          "indexed": true,
          "internalType": "address",
          "name": "buyer",
          "type": "address"
        },
        {
          "indexed": false,
          "internalType": "uint256",
          "name": "amount",
          "type": "uint256"
        },
        {
          "indexed": false,
          "internalType": "uint256",
          "name": "timestamp",
          "type": "uint256"
        }
      ],
      "name": "Claimed",
      "type": "event"
    },
    {
      "anonymous": false,
      "inputs": [
        {
          "indexed": true,
          "internalType": "address",
          "name": "_newOwner",
          "type": "address"
        }
      ],
      "name": "ContractAdminUpdated",
      "type": "event"
    },
    {
      "anonymous": false,
      "inputs": [
        {
          "indexed": true,
          "internalType": "address",
          "name": "_previousOwner",
          "type": "address"
        },
        {
          "indexed": true,
          "internalType": "address",
          "name": "_newOwner",
          "type": "address"
        }
      ],
      "name": "OwnershipTransferred",
      "type": "event"
    },
    {
      "anonymous": false,
      "inputs": [
        {
          "indexed": true,
          "internalType": "address",
          "name": "buyer",
          "type": "address"
        },
        {
          "indexed": false,
          "internalType": "uint256",
          "name": "amount",
          "type": "uint256"
        },
        {
          "indexed": false,
          "internalType": "uint256",
          "name": "price",
          "type": "uint256"
        },
        {
          "indexed": false,
          "internalType": "uint256",
          "name": "timestamp",
          "type": "uint256"
        }
      ],
      "name": "UserAllocated",
      "type": "event"
    },
    {
      "anonymous": false,
      "inputs": [
        {
          "indexed": false,
          "internalType": "uint256",
          "name": "timestamp",
          "type": "uint256"
        }
      ],
      "name": "VestingStated",
      "type": "event"
    },
    {
      "inputs": [],
      "name": "_isContractAdmin",
      "outputs": [
        {
          "internalType": "bool",
          "name": "",
          "type": "bool"
        }
      ],
      "stateMutability": "view",
      "type": "function"
    },
    {
      "inputs": [],
      "name": "_isMainAdmin",
      "outputs": [
        {
          "internalType": "bool",
          "name": "",
          "type": "bool"
        }
      ],
      "stateMutability": "view",
      "type": "function"
    },
    {
      "inputs": [],
      "name": "adminCanUpdateAllocation",
      "outputs": [
        {
          "internalType": "bool",
          "name": "",
          "type": "bool"
        }
      ],
      "stateMutability": "view",
      "type": "function"
    },
    {
      "inputs": [],
      "name": "blockInOneMonth",
      "outputs": [
        {
          "internalType": "uint256",
          "name": "",
          "type": "uint256"
        }
      ],
      "stateMutability": "view",
      "type": "function"
    },
    {
      "inputs": [],
      "name": "busdToken",
      "outputs": [
        {
          "internalType": "contract IBEP20",
          "name": "",
          "type": "address"
        }
      ],
      "stateMutability": "view",
      "type": "function"
    },
    {
      "inputs": [],
      "name": "contractAdmin",
      "outputs": [
        {
          "internalType": "address",
          "name": "",
          "type": "address"
        }
      ],
      "stateMutability": "view",
      "type": "function"
    },
    {
      "inputs": [],
      "name": "fotaToken",
      "outputs": [
        {
          "internalType": "contract IFOTAToken",
          "name": "",
          "type": "address"
        }
      ],
      "stateMutability": "view",
      "type": "function"
    },
    {
      "inputs": [],
      "name": "fundAdmin",
      "outputs": [
        {
          "internalType": "address",
          "name": "",
          "type": "address"
        }
      ],
      "stateMutability": "view",
      "type": "function"
    },
    {
      "inputs": [],
      "name": "mainAdmin",
      "outputs": [
        {
          "internalType": "address",
          "name": "",
          "type": "address"
        }
      ],
      "stateMutability": "view",
      "type": "function"
    },
    {
      "inputs": [],
      "name": "startVestingBlock",
      "outputs": [
        {
          "internalType": "uint256",
          "name": "",
          "type": "uint256"
        }
      ],
      "stateMutability": "view",
      "type": "function"
    },
    {
      "inputs": [],
      "name": "strategicSaleAllocation",
      "outputs": [
        {
          "internalType": "uint256",
          "name": "",
          "type": "uint256"
        }
      ],
      "stateMutability": "view",
      "type": "function"
    },
    {
      "inputs": [],
      "name": "tgeRatio",
      "outputs": [
        {
          "internalType": "uint256",
          "name": "",
          "type": "uint256"
        }
      ],
      "stateMutability": "view",
      "type": "function"
    },
    {
      "inputs": [
        {
          "internalType": "address",
          "name": "_newOwner",
          "type": "address"
        }
      ],
      "name": "transferOwnership",
      "outputs": [],
      "stateMutability": "nonpayable",
      "type": "function"
    },
    {
      "inputs": [
        {
          "internalType": "address",
          "name": "_newAdmin",
          "type": "address"
        }
      ],
      "name": "updateContractAdmin",
      "outputs": [],
      "stateMutability": "nonpayable",
      "type": "function"
    },
    {
      "inputs": [],
      "name": "usdtToken",
      "outputs": [
        {
          "internalType": "contract IBEP20",
          "name": "",
          "type": "address"
        }
      ],
      "stateMutability": "view",
      "type": "function"
    },
    {
      "inputs": [],
      "name": "vestingTime",
      "outputs": [
        {
          "internalType": "uint256",
          "name": "",
          "type": "uint256"
        }
      ],
      "stateMutability": "view",
      "type": "function"
    },
    {
      "inputs": [
        {
          "internalType": "address",
          "name": "_mainAdmin",
          "type": "address"
        },
        {
          "internalType": "address",
          "name": "_fundAdmin",
          "type": "address"
        },
        {
          "internalType": "address",
          "name": "_fotaToken",
          "type": "address"
        }
      ],
      "name": "initialize",
      "outputs": [],
      "stateMutability": "nonpayable",
      "type": "function"
    },
    {
      "inputs": [
        {
          "internalType": "address",
          "name": "_mainAdmin",
          "type": "address"
        }
      ],
      "name": "initialize",
      "outputs": [],
      "stateMutability": "nonpayable",
      "type": "function"
    },
    {
      "inputs": [],
      "name": "startVesting",
      "outputs": [],
      "stateMutability": "nonpayable",
      "type": "function"
    },
    {
      "inputs": [
        {
          "internalType": "uint256",
          "name": "_month",
          "type": "uint256"
        }
      ],
      "name": "updateVestingTime",
      "outputs": [],
      "stateMutability": "nonpayable",
      "type": "function"
    },
    {
      "inputs": [
        {
          "internalType": "uint256",
          "name": "_ratio",
          "type": "uint256"
        }
      ],
      "name": "updateTGERatio",
      "outputs": [],
      "stateMutability": "nonpayable",
      "type": "function"
    },
    {
      "inputs": [
        {
          "internalType": "address",
          "name": "_address",
          "type": "address"
        }
      ],
      "name": "updateFundAdmin",
      "outputs": [],
      "stateMutability": "nonpayable",
      "type": "function"
    },
    {
      "inputs": [
        {
          "internalType": "address[]",
          "name": "_buyers",
          "type": "address[]"
        },
        {
          "internalType": "uint256[]",
          "name": "_amounts",
          "type": "uint256[]"
        },
        {
          "internalType": "uint256[]",
          "name": "_prices",
          "type": "uint256[]"
        }
      ],
      "name": "setUserAllocations",
      "outputs": [],
      "stateMutability": "nonpayable",
      "type": "function"
    },
    {
      "inputs": [
        {
          "internalType": "address",
          "name": "_buyer",
          "type": "address"
        }
      ],
      "name": "removeBuyerAllocation",
      "outputs": [],
      "stateMutability": "nonpayable",
      "type": "function"
    },
    {
      "inputs": [
        {
          "internalType": "enum StrategicSale.USDCurrency",
          "name": "_usdCurrency",
          "type": "uint8"
        }
      ],
      "name": "buy",
      "outputs": [],
      "stateMutability": "nonpayable",
      "type": "function"
    },
    {
      "inputs": [],
      "name": "claim",
      "outputs": [],
      "stateMutability": "nonpayable",
      "type": "function"
    },
    {
      "inputs": [
        {
          "internalType": "address",
          "name": "_address",
          "type": "address"
        }
      ],
      "name": "getBuyer",
      "outputs": [
        {
          "internalType": "uint256",
          "name": "",
          "type": "uint256"
        },
        {
          "internalType": "uint256",
          "name": "",
          "type": "uint256"
        },
        {
          "internalType": "uint256",
          "name": "",
          "type": "uint256"
        },
        {
          "internalType": "uint256",
          "name": "",
          "type": "uint256"
        },
        {
          "internalType": "uint256",
          "name": "",
          "type": "uint256"
        }
      ],
      "stateMutability": "view",
      "type": "function"
    }
  ],
  "bytecode": "0x608060405234801561001057600080fd5b50611c24806100206000396000f3fe608060405234801561001057600080fd5b50600436106101b95760003560e01c8063a2df9bf5116100f9578063c7dab43611610097578063deb36e3211610071578063deb36e3214610327578063f2fde38b1461032f578063fb6b04ba14610342578063fea292e11461034a576101b9565b8063c7dab43614610304578063ca1ba0e31461030c578063de0e70141461031f576101b9565b8063aca986c8116100d3578063aca986c8146102c3578063b7d6caec146102d6578063c0c53b8b146102de578063c4d66de8146102f1576101b9565b8063a2df9bf5146102a0578063a98ad46c146102b3578063ac9d1597146102bb576101b9565b806348d002f2116101665780635721e419116101405780635721e41914610259578063779552451461027d578063989cbd97146102855780639c45658314610298576101b9565b806348d002f2146102345780634e3b7bc6146102495780634e71d92d14610251576101b9565b806314107f3c1161019757806314107f3c1461020457806316e609911461021757806335e451421461022c576101b9565b806302e65b8a146101be578063113b85ba146101d357806311541ce0146101e6575b600080fd5b6101d16101cc36600461137b565b610352565b005b6101d16101e13660046113de565b6103e9565b6101ee6106d6565b6040516101fb919061154e565b60405180910390f35b6101d1610212366004611494565b6106ed565b61021f6107c7565b6040516101fb9190611aff565b61021f6107cd565b61023c6107d3565b6040516101fb91906114e3565b61021f6107e2565b6101d16107f1565b61026c61026736600461137b565b610a67565b6040516101fb959493929190611b2c565b61023c610a9f565b6101d161029336600461137b565b610aae565b61023c610b75565b6101d16102ae3660046114b3565b610b84565b61023c610bef565b6101ee610bfe565b6101d16102d136600461137b565b610c07565b6101ee610c80565b6101d16102ec36600461139c565b610c91565b6101d16102ff36600461137b565b610da3565b61021f610e6e565b6101d161031a3660046114b3565b610e74565b61023c610ebf565b6101d1610ece565b6101d161033d36600461137b565b610f50565b61023c610fe9565b61021f610ffe565b61035a6106d6565b61037f5760405162461bcd60e51b8152600401610376906118af565b60405180910390fd5b6001600160a01b03811661039257600080fd5b6001805473ffffffffffffffffffffffffffffffffffffffff19166001600160a01b0383169081179091556040517fe3f4a4b5b74aa6830627cb87c50cf7d4ed56e9b246729179ba634bbdc873177a90600090a250565b6103f16106d6565b61040d5760405162461bcd60e51b8152600401610376906118af565b848314801561041b57508281145b6104375760405162461bcd60e51b815260040161037690611aa2565b60008080805b8881101561069d5789898281811061046557634e487b7160e01b600052603260045260246000fd5b905060200201602081019061047a919061137b565b935087878281811061049c57634e487b7160e01b600052603260045260246000fd5b9050602002013592508585828181106104c557634e487b7160e01b600052603260045260246000fd5b90506020020135915060006001600160a01b03168a8a838181106104f957634e487b7160e01b600052603260045260246000fd5b905060200201602081019061050e919061137b565b6001600160a01b0316141580156105785750600b60008b8b8481811061054457634e487b7160e01b600052603260045260246000fd5b9050602002016020810190610559919061137b565b6001600160a01b03168152602081019190915260400160002060020154155b1561068b576001600160a01b0384166000908152600b60205260409020546105b75782600a60008282546105ac9190611b4f565b909155506105ec9050565b6001600160a01b0384166000908152600b6020526040902054600a5484916105de91611ba6565b6105e89190611b4f565b600a555b6040805160a0810182528481526020808201858152600083850181815260608501828152608086018381526001600160a01b038c16808552600b909652928790209551865592516001860155516002850155905160038401555160049092019190915590517f1f8c68374bbe101ad16843683bf6f80bed57e98cc982d1cd15e128c425a46bfe9061068290869086904290611b16565b60405180910390a25b8061069581611bbd565b91505061043d565b506a1cf389cd46047d03000000600a5411156106cb5760405162461bcd60e51b8152600401610376906119d7565b505050505050505050565b6000546201000090046001600160a01b0316331490565b336000908152600b60205260409020805461071a5760405162461bcd60e51b815260040161037690611a0e565b60028101541561073c5760405162461bcd60e51b815260040161037690611a6b565b60095460ff1615610752576009805460ff191690555b61077c826103e88360010154846000015461076d9190611b87565b6107779190611b67565b611005565b4360028201558054600182015460405133927fedba86fd2b22962d534e70ad9b0ff8730de46f636146f2bab6a72cbb1ebbcc53926107bb924290611b16565b60405180910390a25050565b60075481565b60065481565b6003546001600160a01b031681565b6a1cf389cd46047d0300000081565b6000600654116108135760405162461bcd60e51b815260040161037690611852565b336000908152600b6020526040902060028101546108435760405162461bcd60e51b815260040161037690611a0e565b6000600854620d2f006108569190611b87565b6006546108639190611b4f565b9050816003015481116108885760405162461bcd60e51b81526004016103769061172a565b6000808360030154600014156108c257600654600385015560075484546064916108b191611b87565b6108bb9190611b67565b905061094e565b824310156108e65760038401546108d99043611ba6565b43600386015591506108ff565b60038401546108f59084611ba6565b6003850184905591505b60085461090f90620d2f00611b87565b82606460075460646109219190611ba6565b875461092d9190611b87565b6109379190611b67565b6109419190611b87565b61094b9190611b67565b90505b80846004015461095e9190611b4f565b6004808601919091556003546040517f6318813d0000000000000000000000000000000000000000000000000000000081526001600160a01b0390911691636318813d916109b0913391869101611535565b602060405180830381600087803b1580156109ca57600080fd5b505af11580156109de573d6000803e3d6000fd5b505050506040513d601f19601f82011682018060405250810190610a029190611474565b610a1e5760405162461bcd60e51b81526004016103769061191d565b336001600160a01b03167f987d620f307ff6b94d58743cb7a7509f24071586a77759b77c2d4e29f75a2f9a8242604051610a59929190611b08565b60405180910390a250505050565b6001600160a01b03166000908152600b6020526040902080546001820154600283015460038401546004909401549294919390929091565b6001546001600160a01b031681565b610ab66106d6565b610ad25760405162461bcd60e51b8152600401610376906118af565b6001600160a01b0381166000908152600b6020526040902054610b075760405162461bcd60e51b8152600401610376906115b6565b6001600160a01b0381166000908152600b602052604090206002015415610b405760405162461bcd60e51b815260040161037690611559565b6001600160a01b03166000908152600b6020526040812081815560018101829055600281018290556003810182905560040155565b6002546001600160a01b031681565b610b8c6106d6565b610ba85760405162461bcd60e51b8152600401610376906118af565b60095460ff16610bca5760405162461bcd60e51b8152600401610376906118e6565b60648110610bea5760405162461bcd60e51b8152600401610376906117be565b600755565b6005546001600160a01b031681565b60095460ff1681565b610c0f6106d6565b610c2b5760405162461bcd60e51b8152600401610376906118af565b6001600160a01b038116610c515760405162461bcd60e51b815260040161037690611787565b6002805473ffffffffffffffffffffffffffffffffffffffff19166001600160a01b0392909216919091179055565b6001546001600160a01b0316331490565b600054610100900460ff1680610caa575060005460ff16155b610cc65760405162461bcd60e51b8152600401610376906117f5565b600054610100900460ff16158015610cf1576000805460ff1961ff0019909116610100171660011790555b610cfa84610da3565b600280546001600160a01b0380861673ffffffffffffffffffffffffffffffffffffffff19928316179092556003805492851692821692909217909155600c60085560146007556009805460ff1916600117905560048054821673d8ad05ff852ae4eb264089c377501494ea1d03c91790556005805490911673f5ed09f4b0e89dff27fe48aadf559463505fbac41790558015610d9d576000805461ff00191690555b50505050565b600054610100900460ff1680610dbc575060005460ff16155b610dd85760405162461bcd60e51b8152600401610376906117f5565b600054610100900460ff16158015610e03576000805460ff1961ff0019909116610100171660011790555b6000805475ffffffffffffffffffffffffffffffffffffffff00001916620100006001600160a01b038516908102919091179091556001805473ffffffffffffffffffffffffffffffffffffffff191690911790558015610e6a576000805461ff00191690555b5050565b60085481565b610e7c6106d6565b610e985760405162461bcd60e51b8152600401610376906118af565b60095460ff16610eba5760405162461bcd60e51b8152600401610376906118e6565b600855565b6004546001600160a01b031681565b610ed66106d6565b610ef25760405162461bcd60e51b8152600401610376906118af565b60065415610f125760405162461bcd60e51b81526004016103769061197a565b4360068190556040517fcf0c05ef6ac1fd901d248ded4b25d0c600775561270421a7ffb012e55e4016ba91610f4691611aff565b60405180910390a1565b610f586106d6565b610f745760405162461bcd60e51b8152600401610376906118af565b6001600160a01b038116610f8757600080fd5b6000805475ffffffffffffffffffffffffffffffffffffffff00001916620100006001600160a01b038416908102919091178255604051909133917f8be0079c531659141344cd1fd0a4f28419497f9722a3daafe3b4186f6b6457e09190a350565b6000546201000090046001600160a01b031681565b620d2f0081565b60008083600181111561102857634e487b7160e01b600052602160045260246000fd5b1461103e576005546001600160a01b031661104b565b6004546001600160a01b03165b905081816001600160a01b031663dd62ed3e33306040518363ffffffff1660e01b815260040161107c9291906114f7565b60206040518083038186803b15801561109457600080fd5b505afa1580156110a8573d6000803e3d6000fd5b505050506040513d601f19601f820116820180604052508101906110cc91906114cb565b10156110ea5760405162461bcd60e51b815260040161037690611613565b6040517f70a0823100000000000000000000000000000000000000000000000000000000815282906001600160a01b038316906370a08231906111319033906004016114e3565b60206040518083038186803b15801561114957600080fd5b505afa15801561115d573d6000803e3d6000fd5b505050506040513d601f19601f8201168201806040525081019061118191906114cb565b101561119f5760405162461bcd60e51b815260040161037690611670565b6040517f23b872dd0000000000000000000000000000000000000000000000000000000081526001600160a01b038216906323b872dd906111e890339030908790600401611511565b602060405180830381600087803b15801561120257600080fd5b505af1158015611216573d6000803e3d6000fd5b505050506040513d601f19601f8201168201806040525081019061123a9190611474565b6112565760405162461bcd60e51b8152600401610376906116cd565b6002546040517fa9059cbb0000000000000000000000000000000000000000000000000000000081526001600160a01b038381169263a9059cbb926112a392909116908690600401611535565b602060405180830381600087803b1580156112bd57600080fd5b505af11580156112d1573d6000803e3d6000fd5b505050506040513d601f19601f820116820180604052508101906112f59190611474565b6113115760405162461bcd60e51b8152600401610376906116cd565b505050565b80356001600160a01b038116811461132d57600080fd5b919050565b60008083601f840112611343578182fd5b50813567ffffffffffffffff81111561135a578182fd5b602083019150836020808302850101111561137457600080fd5b9250929050565b60006020828403121561138c578081fd5b61139582611316565b9392505050565b6000806000606084860312156113b0578182fd5b6113b984611316565b92506113c760208501611316565b91506113d560408501611316565b90509250925092565b600080600080600080606087890312156113f6578182fd5b863567ffffffffffffffff8082111561140d578384fd5b6114198a838b01611332565b90985096506020890135915080821115611431578384fd5b61143d8a838b01611332565b90965094506040890135915080821115611455578384fd5b5061146289828a01611332565b979a9699509497509295939492505050565b600060208284031215611485578081fd5b81518015158114611395578182fd5b6000602082840312156114a5578081fd5b813560028110611395578182fd5b6000602082840312156114c4578081fd5b5035919050565b6000602082840312156114dc578081fd5b5051919050565b6001600160a01b0391909116815260200190565b6001600160a01b0392831681529116602082015260400190565b6001600160a01b039384168152919092166020820152604081019190915260600190565b6001600160a01b03929092168252602082015260400190565b901515815260200190565b60208082526027908201527f53747261746567696353616c653a2055736572206861766520626f756768742060408201527f616c726561647900000000000000000000000000000000000000000000000000606082015260800190565b60208082526026908201527f53747261746567696353616c653a20557365722068617665206e6f20616c6c6f60408201527f636174696f6e0000000000000000000000000000000000000000000000000000606082015260800190565b6020808252602d908201527f53747261746567696353616c653a20706c6561736520617070726f766520757360408201527f6420746f6b656e20666972737400000000000000000000000000000000000000606082015260800190565b60208082526027908201527f53747261746567696353616c653a20706c656173652066756e6420796f75722060408201527f6163636f756e7400000000000000000000000000000000000000000000000000606082015260800190565b60208082526028908201527f53747261746567696353616c653a207472616e736665722075736420746f6b6560408201527f6e206661696c6564000000000000000000000000000000000000000000000000606082015260800190565b6020808252602b908201527f53747261746567696353616c653a20796f757220616c6c6f636174696f6e206860408201527f61642072656c6561736564000000000000000000000000000000000000000000606082015260800190565b6020808252601e908201527f53747261746567696353616c653a20696e76616c696420616464726573730000604082015260600190565b6020808252601c908201527f53747261746567696353616c653a20696e76616c696420726174696f00000000604082015260600190565b6020808252602e908201527f496e697469616c697a61626c653a20636f6e747261637420697320616c72656160408201527f647920696e697469616c697a6564000000000000000000000000000000000000606082015260800190565b60208082526024908201527f53747261746567696353616c653a20706c656173652077616974206d6f72652060408201527f74696d6500000000000000000000000000000000000000000000000000000000606082015260800190565b6020808252600d908201527f6f6e6c794d61696e41646d696e00000000000000000000000000000000000000604082015260600190565b6020808252601e908201527f53747261746567696353616c653a20757365722068616420626f756768740000604082015260600190565b60208082526024908201527f53747261746567696353616c653a207472616e7366657220746f6b656e20666160408201527f696c656400000000000000000000000000000000000000000000000000000000606082015260800190565b60208082526022908201527f53747261746567696353616c653a2076657374696e672068616420737461727460408201527f6564000000000000000000000000000000000000000000000000000000000000606082015260800190565b6020808252601d908201527f53747261746567696353616c653a20616d6f756e7420696e76616c6964000000604082015260600190565b60208082526025908201527f53747261746567696353616c653a20596f752068617665206e6f20616c6c6f6360408201527f6174696f6e000000000000000000000000000000000000000000000000000000606082015260800190565b6020808252601d908201527f53747261746567696353616c653a20596f752068616420626f75676874000000604082015260600190565b60208082526021908201527f53747261746567696353616c653a20696e76616c6964206461746120696e707560408201527f7400000000000000000000000000000000000000000000000000000000000000606082015260800190565b90815260200190565b918252602082015260400190565b9283526020830191909152604082015260600190565b948552602085019390935260408401919091526060830152608082015260a00190565b60008219821115611b6257611b62611bd8565b500190565b600082611b8257634e487b7160e01b81526012600452602481fd5b500490565b6000816000190483118215151615611ba157611ba1611bd8565b500290565b600082821015611bb857611bb8611bd8565b500390565b6000600019821415611bd157611bd1611bd8565b5060010190565b634e487b7160e01b600052601160045260246000fdfea2646970667358221220c111165d03055067618705159ab575761c421bb946235d006f80588d9d19b9a264736f6c63430008000033",
  "immutableReferences": {},
  "source": "// SPDX-License-Identifier: GPL\n\npragma solidity 0.8.0;\n\nimport \"../libs/fota/Auth.sol\";\nimport \"../libs/zeppelin/token/BEP20/IBEP20.sol\";\nimport \"../interfaces/IFOTAToken.sol\";\n\ncontract StrategicSale is Auth {\n\n  struct Buyer {\n    uint allocated;\n    uint price; // decimal 3\n    uint boughtAtBlock;\n    uint lastClaimed;\n    uint totalClaimed;\n  }\n  enum USDCurrency {\n    busd,\n    usdt\n  }\n\n  address public fundAdmin;\n  IFOTAToken public fotaToken;\n  IBEP20 public busdToken;\n  IBEP20 public usdtToken;\n  uint public constant strategicSaleAllocation = 35e24;\n  uint public startVestingBlock;\n  uint public constant blockInOneMonth = 864000; // 30 * 24 * 60 * 20\n//  uint public constant blockInOneMonth = 200; // 30 * 24 * 60 * 20\n  uint constant decimal3 = 1000;\n  uint public tgeRatio;\n  uint public vestingTime;\n  bool public adminCanUpdateAllocation;\n  uint totalAllocated;\n  mapping(address => Buyer) buyers;\n\n  event UserAllocated(address indexed buyer, uint amount, uint price, uint timestamp);\n  event Bought(address indexed buyer, uint amount, uint price, uint timestamp);\n  event Claimed(address indexed buyer, uint amount, uint timestamp);\n  event VestingStated(uint timestamp);\n\n  function initialize(address _mainAdmin, address _fundAdmin, address _fotaToken) public initializer {\n    Auth.initialize(_mainAdmin);\n    fundAdmin = _fundAdmin;\n    fotaToken = IFOTAToken(_fotaToken);\n    vestingTime = 12;\n    tgeRatio = 20;\n    adminCanUpdateAllocation = true;\n    busdToken = IBEP20(0xD8aD05ff852ae4EB264089c377501494EA1D03C9);\n    usdtToken = IBEP20(0xF5ed09f4b0E89Dff27fe48AaDf559463505fbac4);\n  }\n\n  function startVesting() onlyMainAdmin external {\n    require(startVestingBlock == 0, \"StrategicSale: vesting had started\");\n    startVestingBlock = block.number;\n    emit VestingStated(startVestingBlock);\n  }\n\n  function updateVestingTime(uint _month) onlyMainAdmin external {\n    require(adminCanUpdateAllocation, \"StrategicSale: user had bought\");\n    vestingTime = _month;\n  }\n\n  function updateTGERatio(uint _ratio) onlyMainAdmin external {\n    require(adminCanUpdateAllocation, \"StrategicSale: user had bought\");\n    require(_ratio < 100, \"StrategicSale: invalid ratio\");\n    tgeRatio = _ratio;\n  }\n\n  function updateFundAdmin(address _address) onlyMainAdmin external {\n    require(_address != address(0), \"StrategicSale: invalid address\");\n    fundAdmin = _address;\n  }\n\n  function setUserAllocations(address[] calldata _buyers, uint[] calldata _amounts, uint[] calldata _prices) external onlyMainAdmin {\n    require(_buyers.length == _amounts.length && _amounts.length == _prices.length, \"StrategicSale: invalid data input\");\n    address buyer;\n    uint amount;\n    uint price;\n    for(uint i = 0; i < _buyers.length; i++) {\n      buyer = _buyers[i];\n      amount = _amounts[i];\n      price = _prices[i];\n      if (_buyers[i] != address(0) && buyers[_buyers[i]].boughtAtBlock == 0) {\n        if (buyers[buyer].allocated == 0) {\n          totalAllocated += amount;\n        } else {\n          totalAllocated = totalAllocated - buyers[buyer].allocated + amount;\n        }\n        buyers[buyer] = Buyer(amount, price, 0, 0, 0);\n        emit UserAllocated(buyer, amount, price, block.timestamp);\n      }\n    }\n    require(totalAllocated <= strategicSaleAllocation, \"StrategicSale: amount invalid\");\n  }\n\n  function removeBuyerAllocation(address _buyer) external onlyMainAdmin {\n    require(buyers[_buyer].allocated > 0, \"StrategicSale: User have no allocation\");\n    require(buyers[_buyer].boughtAtBlock == 0, \"StrategicSale: User have bought already\");\n    delete buyers[_buyer];\n  }\n\n  function buy(USDCurrency _usdCurrency) external {\n    Buyer storage buyer = buyers[msg.sender];\n    require(buyer.allocated > 0, \"StrategicSale: You have no allocation\");\n    require(buyer.boughtAtBlock == 0, \"StrategicSale: You had bought\");\n    if (adminCanUpdateAllocation) {\n      adminCanUpdateAllocation = false;\n    }\n    _takeFund(_usdCurrency, buyer.allocated * buyer.price / decimal3);\n    buyer.boughtAtBlock = block.number;\n    emit Bought(msg.sender, buyer.allocated, buyer.price, block.timestamp);\n  }\n\n  function claim() external {\n    require(startVestingBlock > 0, \"StrategicSale: please wait more time\");\n    Buyer storage buyer = buyers[msg.sender];\n    require(buyer.boughtAtBlock > 0, \"StrategicSale: You have no allocation\");\n    uint maxBlockNumber = startVestingBlock + blockInOneMonth * vestingTime;\n    require(maxBlockNumber > buyer.lastClaimed, \"StrategicSale: your allocation had released\");\n    uint blockPass;\n    uint releaseAmount;\n    if (buyer.lastClaimed == 0) {\n      buyer.lastClaimed = startVestingBlock;\n      releaseAmount = buyer.allocated * tgeRatio / 100;\n    } else {\n      if (block.number < maxBlockNumber) {\n        blockPass = block.number - buyer.lastClaimed;\n        buyer.lastClaimed = block.number;\n      } else {\n        blockPass = maxBlockNumber - buyer.lastClaimed;\n        buyer.lastClaimed = maxBlockNumber;\n      }\n      releaseAmount = buyer.allocated * (100 - tgeRatio) / 100 * blockPass / (blockInOneMonth * vestingTime);\n    }\n    buyer.totalClaimed = buyer.totalClaimed + releaseAmount;\n    require(fotaToken.releaseStrategicSaleAllocation(msg.sender, releaseAmount), \"StrategicSale: transfer token failed\");\n    emit Claimed(msg.sender, releaseAmount, block.timestamp);\n  }\n\n  function getBuyer(address _address) external view returns (uint, uint, uint, uint, uint) {\n    Buyer storage buyer = buyers[_address];\n    return(\n      buyer.allocated,\n      buyer.price,\n      buyer.boughtAtBlock,\n      buyer.lastClaimed,\n      buyer.totalClaimed\n    );\n  }\n\n  function _takeFund(USDCurrency _usdCurrency, uint _amount) private {\n    IBEP20 usdToken = _usdCurrency == USDCurrency.busd ? busdToken : usdtToken;\n    require(usdToken.allowance(msg.sender, address(this)) >= _amount, \"StrategicSale: please approve usd token first\");\n    require(usdToken.balanceOf(msg.sender) >= _amount, \"StrategicSale: please fund your account\");\n    require(usdToken.transferFrom(msg.sender, address(this), _amount), \"StrategicSale: transfer usd token failed\");\n    require(usdToken.transfer(fundAdmin, _amount), \"StrategicSale: transfer usd token failed\");\n  }\n}\n",
  "sourcePath": "/Users/dung/Documents/sources/fota-dapp/contracts/sales/StrategicSale.sol",
  "compiler": {
    "name": "solc",
    "version": "0.8.0+commit.c7dfd78e.Emscripten.clang"
  },
  "schemaVersion": "3.3.4",
  "updatedAt": "2022-03-03T04:57:24.564Z",
  "networkType": "ethereum",
  "devdoc": {
    "kind": "dev",
    "methods": {},
    "version": 1
  },
  "userdoc": {
    "kind": "user",
    "methods": {},
    "version": 1
  }
}