{
  "contractName": "Test",
  "abi": [
    {
      "inputs": [
        {
          "internalType": "string",
          "name": "name",
          "type": "string"
        },
        {
          "internalType": "string",
          "name": "version",
          "type": "string"
        }
      ],
      "name": "initialize",
      "outputs": [],
      "stateMutability": "nonpayable",
      "type": "function"
    },
    {
      "inputs": [
        {
          "internalType": "string",
          "name": "_seed",
          "type": "string"
        },
        {
          "internalType": "bytes",
          "name": "_signature",
          "type": "bytes"
        }
      ],
      "name": "validateSeed",
      "outputs": [
        {
          "internalType": "address",
          "name": "",
          "type": "address"
        }
      ],
      "stateMutability": "view",
      "type": "function"
    },
    {
      "inputs": [
        {
          "internalType": "string",
          "name": "_seed",
          "type": "string"
        },
        {
          "internalType": "bytes",
          "name": "_signature",
          "type": "bytes"
        }
      ],
      "name": "_validateSeed",
      "outputs": [],
      "stateMutability": "view",
      "type": "function"
    }
  ],
  "bytecode": "0x608060405234801561001057600080fd5b50610c34806100206000396000f3fe608060405234801561001057600080fd5b50600436106100415760003560e01c80630396774e146100465780634cd88b761461006f578063fcc6768514610084575b600080fd5b6100596100543660046108b3565b610097565b604051610066919061095a565b60405180910390f35b61008261007d3660046108b3565b61016c565b005b610082610092366004610825565b610217565b6000806100f77f3542463edeca86467f10ee54f802a00104ee498b45b3e447642f9c71d079861b33868051906020012060006040516020016100dc949392919061096e565b604051602081830303815290604052805190602001206102d3565b9050600061010582856102ec565b6035549091506001600160a01b0380831691161461013e5760405162461bcd60e51b815260040161013590610aec565b60405180910390fd5b6001600160a01b0381166101645760405162461bcd60e51b815260040161013590610a8f565b949350505050565b600054610100900460ff1680610185575060005460ff16155b6101a15760405162461bcd60e51b815260040161013590610b49565b600054610100900460ff161580156101cc576000805460ff1961ff0019909116610100171660011790555b6101d68383610310565b603580547fffffffffffffffffffffffff000000000000000000000000000000000000000016331790558015610212576000805461ff00191690555b505050565b60006102687f3542463edeca86467f10ee54f802a00104ee498b45b3e447642f9c71d079861b33868660405161024e929190610914565b6040519081900381206100dc93929160009060200161096e565b9050600061027682846102ec565b6035549091506001600160a01b038083169116146102a65760405162461bcd60e51b815260040161013590610aec565b6001600160a01b0381166102cc5760405162461bcd60e51b815260040161013590610a8f565b5050505050565b60006102e66102e0610390565b836103d0565b92915050565b60008060006102fb8585610403565b9150915061030881610473565b509392505050565b600054610100900460ff1680610329575060005460ff16155b6103455760405162461bcd60e51b815260040161013590610b49565b600054610100900460ff16158015610370576000805460ff1961ff0019909116610100171660011790555b61037a83836105a3565b8015610212576000805461ff0019169055505050565b60006103cb7f8b73c3c69bb8fe3d512ecc4cf759cc79239f7b179b0ffacaa9a75d522b39400f6103be610636565b6103c661063c565b610642565b905090565b600082826040516020016103e5929190610924565b60405160208183030381529060405280519060200120905092915050565b60008082516041141561043a5760208301516040840151606085015160001a61042e8782858561067c565b9450945050505061046c565b825160401415610464576020830151604084015161045986838361075c565b93509350505061046c565b506000905060025b9250929050565b600081600481111561049557634e487b7160e01b600052602160045260246000fd5b14156104a0576105a0565b60018160048111156104c257634e487b7160e01b600052602160045260246000fd5b14156104e05760405162461bcd60e51b8152600401610135906109df565b600281600481111561050257634e487b7160e01b600052602160045260246000fd5b14156105205760405162461bcd60e51b815260040161013590610a16565b600381600481111561054257634e487b7160e01b600052602160045260246000fd5b14156105605760405162461bcd60e51b815260040161013590610a4d565b600481600481111561058257634e487b7160e01b600052602160045260246000fd5b14156105a05760405162461bcd60e51b815260040161013590610ba6565b50565b600054610100900460ff16806105bc575060005460ff16155b6105d85760405162461bcd60e51b815260040161013590610b49565b600054610100900460ff16158015610603576000805460ff1961ff0019909116610100171660011790555b82516020808501919091208351918401919091206001919091556002558015610212576000805461ff0019169055505050565b60015490565b60025490565b6000838383463060405160200161065d959493929190610995565b6040516020818303038152906040528051906020012090509392505050565b6000807f7fffffffffffffffffffffffffffffff5d576e7357a4501ddfe92f46681b20a08311156106b35750600090506003610753565b8460ff16601b141580156106cb57508460ff16601c14155b156106dc5750600090506004610753565b60006001878787876040516000815260200160405260405161070194939291906109c1565b6020604051602081039080840390855afa158015610723573d6000803e3d6000fd5b5050604051601f1901519150506001600160a01b03811661074c57600060019250925050610753565b9150600090505b94509492505050565b6000807f7fffffffffffffffffffffffffffffffffffffffffffffffffffffffffffffff831660ff84901c601b016107968782888561067c565b935093505050935093915050565b600082601f8301126107b4578081fd5b813567ffffffffffffffff808211156107cf576107cf610be8565b604051601f8301601f1916810160200182811182821017156107f3576107f3610be8565b60405282815284830160200186101561080a578384fd5b82602086016020830137918201602001929092529392505050565b600080600060408486031215610839578283fd5b833567ffffffffffffffff80821115610850578485fd5b818601915086601f830112610863578485fd5b813581811115610871578586fd5b876020828501011115610882578586fd5b60209283019550935090850135908082111561089c578283fd5b506108a9868287016107a4565b9150509250925092565b600080604083850312156108c5578182fd5b823567ffffffffffffffff808211156108dc578384fd5b6108e8868387016107a4565b935060208501359150808211156108fd578283fd5b5061090a858286016107a4565b9150509250929050565b6000828483379101908152919050565b7f190100000000000000000000000000000000000000000000000000000000000081526002810192909252602282015260420190565b6001600160a01b0391909116815260200190565b9384526001600160a01b03929092166020840152604083015260ff16606082015260800190565b9485526020850193909352604084019190915260608301526001600160a01b0316608082015260a00190565b93845260ff9290921660208401526040830152606082015260800190565b60208082526018908201527f45434453413a20696e76616c6964207369676e61747572650000000000000000604082015260600190565b6020808252601f908201527f45434453413a20696e76616c6964207369676e6174757265206c656e67746800604082015260600190565b60208082526022908201527f45434453413a20696e76616c6964207369676e6174757265202773272076616c604082015261756560f01b606082015260800190565b60208082526023908201527f45434453415570677261646561626c653a20696e76616c6964207369676e617460408201527f7572650000000000000000000000000000000000000000000000000000000000606082015260800190565b60208082526022908201527f4d65737361676556657269666965723a20696e76616c6964207369676e61747560408201527f7265000000000000000000000000000000000000000000000000000000000000606082015260800190565b6020808252602e908201527f496e697469616c697a61626c653a20636f6e747261637420697320616c72656160408201527f647920696e697469616c697a6564000000000000000000000000000000000000606082015260800190565b60208082526022908201527f45434453413a20696e76616c6964207369676e6174757265202776272076616c604082015261756560f01b606082015260800190565b634e487b7160e01b600052604160045260246000fdfea264697066735822122088e88358b33bac8b55b10eb4d9f14d61744c5533fc656aabd97077effdc5d42064736f6c63430008000033",
  "immutableReferences": {},
  "source": "// SPDX-License-Identifier: GPL\n\npragma solidity 0.8.0;\n\nimport \"@openzeppelin/contracts-upgradeable/utils/cryptography/ECDSAUpgradeable.sol\";\nimport \"@openzeppelin/contracts-upgradeable/utils/cryptography/draft-EIP712Upgradeable.sol\";\n\ncontract Test is EIP712Upgradeable {\n  address admin;\n  function initialize(string memory name, string memory version) public initializer {\n    EIP712Upgradeable.__EIP712_init(name, version);\n    admin = msg.sender;\n  }\n\n  function validateSeed(\n    string memory _seed,\n    bytes memory _signature\n  ) public view returns (address) {\n    bytes32 hash = _hashTypedDataV4(keccak256(abi.encode(\n        keccak256(\"UpgradeItem(address user,string seed,uint256 nonce)\"),\n        msg.sender,\n        keccak256(bytes(_seed)),\n        0\n      )));\n    address signer = ECDSAUpgradeable.recover(hash, _signature);\n    require(signer == admin, \"MessageVerifier: invalid signature\");\n    require(signer != address(0), \"ECDSAUpgradeable: invalid signature\");\n    return signer;\n  }\n\n  function _validateSeed(\n    string calldata _seed,\n    bytes memory _signature\n  ) external view {\n    bytes32 digest = _hashTypedDataV4(keccak256(abi.encode(\n        keccak256(\"UpgradeItem(address user,string seed,uint256 nonce)\"),\n        msg.sender,\n        keccak256(bytes(_seed)),\n        0\n      )));\n    address signer = ECDSAUpgradeable.recover(digest, _signature);\n    require(signer == admin, \"MessageVerifier: invalid signature\");\n    require(signer != address(0), \"ECDSAUpgradeable: invalid signature\");\n  }\n}\n\n",
  "sourcePath": "/Users/dung/Documents/sources/fota-dapp/contracts/Test.sol",
  "compiler": {
    "name": "solc",
    "version": "0.8.0+commit.c7dfd78e.Emscripten.clang"
  },
  "schemaVersion": "3.3.4",
  "updatedAt": "2022-03-03T04:51:26.481Z",
  "devdoc": {
    "kind": "dev",
    "methods": {},
    "version": 1
  },
  "userdoc": {
    "kind": "user",
    "methods": {},
    "version": 1
  }
}