{
  "contractName": "Treasury",
  "abi": [
    {
      "anonymous": false,
      "inputs": [
        {
          "indexed": true,
          "internalType": "address",
          "name": "_newOwner",
          "type": "address"
        }
      ],
      "name": "ContractAdminUpdated",
      "type": "event"
    },
    {
      "anonymous": false,
      "inputs": [
        {
          "indexed": true,
          "internalType": "address",
          "name": "_previousOwner",
          "type": "address"
        },
        {
          "indexed": true,
          "internalType": "address",
          "name": "_newOwner",
          "type": "address"
        }
      ],
      "name": "OwnershipTransferred",
      "type": "event"
    },
    {
      "inputs": [],
      "name": "_isContractAdmin",
      "outputs": [
        {
          "internalType": "bool",
          "name": "",
          "type": "bool"
        }
      ],
      "stateMutability": "view",
      "type": "function"
    },
    {
      "inputs": [],
      "name": "_isMainAdmin",
      "outputs": [
        {
          "internalType": "bool",
          "name": "",
          "type": "bool"
        }
      ],
      "stateMutability": "view",
      "type": "function"
    },
    {
      "inputs": [],
      "name": "busdToken",
      "outputs": [
        {
          "internalType": "contract IFOTAToken",
          "name": "",
          "type": "address"
        }
      ],
      "stateMutability": "view",
      "type": "function"
    },
    {
      "inputs": [],
      "name": "contractAdmin",
      "outputs": [
        {
          "internalType": "address",
          "name": "",
          "type": "address"
        }
      ],
      "stateMutability": "view",
      "type": "function"
    },
    {
      "inputs": [],
      "name": "fotaToken",
      "outputs": [
        {
          "internalType": "contract IFOTAToken",
          "name": "",
          "type": "address"
        }
      ],
      "stateMutability": "view",
      "type": "function"
    },
    {
      "inputs": [],
      "name": "heroToken",
      "outputs": [
        {
          "internalType": "contract IGameNFT",
          "name": "",
          "type": "address"
        }
      ],
      "stateMutability": "view",
      "type": "function"
    },
    {
      "inputs": [],
      "name": "itemToken",
      "outputs": [
        {
          "internalType": "contract IGameNFT",
          "name": "",
          "type": "address"
        }
      ],
      "stateMutability": "view",
      "type": "function"
    },
    {
      "inputs": [],
      "name": "mainAdmin",
      "outputs": [
        {
          "internalType": "address",
          "name": "",
          "type": "address"
        }
      ],
      "stateMutability": "view",
      "type": "function"
    },
    {
      "inputs": [],
      "name": "marketPlace",
      "outputs": [
        {
          "internalType": "contract IMarketPlace",
          "name": "",
          "type": "address"
        }
      ],
      "stateMutability": "view",
      "type": "function"
    },
    {
      "inputs": [
        {
          "internalType": "address",
          "name": "_newOwner",
          "type": "address"
        }
      ],
      "name": "transferOwnership",
      "outputs": [],
      "stateMutability": "nonpayable",
      "type": "function"
    },
    {
      "inputs": [
        {
          "internalType": "address",
          "name": "_newAdmin",
          "type": "address"
        }
      ],
      "name": "updateContractAdmin",
      "outputs": [],
      "stateMutability": "nonpayable",
      "type": "function"
    },
    {
      "inputs": [],
      "name": "usdtToken",
      "outputs": [
        {
          "internalType": "contract IFOTAToken",
          "name": "",
          "type": "address"
        }
      ],
      "stateMutability": "view",
      "type": "function"
    },
    {
      "inputs": [
        {
          "internalType": "address",
          "name": "_mainAdmin",
          "type": "address"
        }
      ],
      "name": "initialize",
      "outputs": [],
      "stateMutability": "nonpayable",
      "type": "function"
    },
    {
      "inputs": [
        {
          "internalType": "address",
          "name": "_mainAdmin",
          "type": "address"
        },
        {
          "internalType": "address",
          "name": "_heroToken",
          "type": "address"
        },
        {
          "internalType": "address",
          "name": "_itemToken",
          "type": "address"
        }
      ],
      "name": "initialize",
      "outputs": [],
      "stateMutability": "nonpayable",
      "type": "function"
    },
    {
      "inputs": [
        {
          "internalType": "address",
          "name": "_marketPlace",
          "type": "address"
        }
      ],
      "name": "setMarketPlace",
      "outputs": [],
      "stateMutability": "nonpayable",
      "type": "function"
    },
    {
      "inputs": [
        {
          "internalType": "uint256",
          "name": "_amount",
          "type": "uint256"
        }
      ],
      "name": "burnFOTA",
      "outputs": [],
      "stateMutability": "nonpayable",
      "type": "function"
    },
    {
      "inputs": [
        {
          "internalType": "uint256",
          "name": "_amount",
          "type": "uint256"
        }
      ],
      "name": "burnBUSD",
      "outputs": [],
      "stateMutability": "nonpayable",
      "type": "function"
    },
    {
      "inputs": [
        {
          "internalType": "uint256",
          "name": "_amount",
          "type": "uint256"
        }
      ],
      "name": "burnUSDT",
      "outputs": [],
      "stateMutability": "nonpayable",
      "type": "function"
    },
    {
      "inputs": [
        {
          "internalType": "address",
          "name": "_address",
          "type": "address"
        },
        {
          "internalType": "uint256",
          "name": "_amount",
          "type": "uint256"
        }
      ],
      "name": "claimFOTA",
      "outputs": [],
      "stateMutability": "nonpayable",
      "type": "function"
    },
    {
      "inputs": [
        {
          "internalType": "address",
          "name": "_address",
          "type": "address"
        },
        {
          "internalType": "uint256",
          "name": "_amount",
          "type": "uint256"
        }
      ],
      "name": "claimBUSD",
      "outputs": [],
      "stateMutability": "nonpayable",
      "type": "function"
    },
    {
      "inputs": [
        {
          "internalType": "address",
          "name": "_address",
          "type": "address"
        },
        {
          "internalType": "uint256",
          "name": "_amount",
          "type": "uint256"
        }
      ],
      "name": "claimUSDT",
      "outputs": [],
      "stateMutability": "nonpayable",
      "type": "function"
    },
    {
      "inputs": [
        {
          "internalType": "enum IMarketPlace.OrderKind",
          "name": "_kind",
          "type": "uint8"
        },
        {
          "internalType": "uint256[]",
          "name": "_tokenIds",
          "type": "uint256[]"
        },
        {
          "internalType": "enum IMarketPlace.PaymentCurrency",
          "name": "_paymentCurrency",
          "type": "uint8"
        }
      ],
      "name": "buyBack",
      "outputs": [],
      "stateMutability": "nonpayable",
      "type": "function"
    },
    {
      "inputs": [
        {
          "internalType": "address",
          "name": "_fotaToken",
          "type": "address"
        },
        {
          "internalType": "address",
          "name": "_busdToken",
          "type": "address"
        },
        {
          "internalType": "address",
          "name": "_usdtToken",
          "type": "address"
        }
      ],
      "name": "setToken",
      "outputs": [],
      "stateMutability": "nonpayable",
      "type": "function"
    }
  ],
  "bytecode": "0x608060405234801561001057600080fd5b50611479806100206000396000f3fe608060405234801561001057600080fd5b506004361061018d5760003560e01c80637a263b8c116100e3578063c0c53b8b1161008c578063f2fde38b11610066578063f2fde38b146102d0578063f325e04e146102e3578063fb6b04ba146102f65761018d565b8063c0c53b8b146102a2578063c4d66de8146102b5578063de0e7014146102c85761018d565b8063a98ad46c116100bd578063a98ad46c1461028a578063b7d6caec14610292578063bbca57151461029a5761018d565b80637a263b8c146102515780637f8602a414610264578063a1f2fba1146102775761018d565b806346dd89bd1161014557806367f517341161011f57806367f517341461022e578063777f54401461024157806377955245146102495761018d565b806346dd89bd1461020057806348d002f21461021357806356abcd131461021b5761018d565b806311541ce01161017657806311541ce0146101ba5780632e25d2a6146101d857806330568a8d146101ed5761018d565b806302e65b8a146101925780630726edd7146101a7575b600080fd5b6101a56101a036600461110d565b6102fe565b005b6101a56101b5366004611170565b610388565b6101c26104d3565b6040516101cf91906112ab565b60405180910390f35b6101e06104ea565b6040516101cf919061127e565b6101a56101fb36600461110d565b6104f9565b6101a561020e36600461124e565b6106f1565b6101e0610818565b6101a5610229366004611170565b610827565b6101a561023c36600461124e565b61091b565b6101e0610a0d565b6101e0610a1c565b6101a561025f366004611170565b610a2b565b6101a561027236600461124e565b610b1f565b6101a561028536600461112e565b610c11565b6101e0610c74565b6101c2610c83565b6101e0610c94565b6101a56102b036600461112e565b610ca3565b6101a56102c336600461110d565b610ddd565b6101e0610e9a565b6101a56102de36600461110d565b610ea9565b6101a56102f13660046111b9565b610f42565b6101e06110dc565b6103066104d3565b61032b5760405162461bcd60e51b815260040161032290611377565b60405180910390fd5b6001600160a01b03811661033e57600080fd5b600180546001600160a01b0319166001600160a01b0383169081179091556040517fe3f4a4b5b74aa6830627cb87c50cf7d4ed56e9b246729179ba634bbdc873177a90600090a250565b6103906104d3565b6103ac5760405162461bcd60e51b815260040161032290611377565b6005546040516370a0823160e01b815282916001600160a01b0316906370a08231906103dc90309060040161127e565b60206040518083038186803b1580156103f457600080fd5b505afa158015610408573d6000803e3d6000fd5b505050506040513d601f19601f8201168201806040525081019061042c9190611266565b101561044a5760405162461bcd60e51b8152600401610322906113ae565b60055460405163a9059cbb60e01b81526001600160a01b039091169063a9059cbb9061047c9085908590600401611292565b602060405180830381600087803b15801561049657600080fd5b505af11580156104aa573d6000803e3d6000fd5b505050506040513d601f19601f820116820180604052508101906104ce9190611199565b505050565b6000546201000090046001600160a01b0316331490565b6002546001600160a01b031681565b6105016104d3565b61051d5760405162461bcd60e51b815260040161032290611377565b6001600160a01b0381166105435760405162461bcd60e51b8152600401610322906112e3565b600280546001600160a01b0319166001600160a01b038381169190911790915560035460405163095ea7b360e01b815291169063095ea7b39061058e90849060001990600401611292565b602060405180830381600087803b1580156105a857600080fd5b505af11580156105bc573d6000803e3d6000fd5b505050506040513d601f19601f820116820180604052508101906105e09190611199565b506004805460405163095ea7b360e01b81526001600160a01b039091169163095ea7b3916106149185916000199101611292565b602060405180830381600087803b15801561062e57600080fd5b505af1158015610642573d6000803e3d6000fd5b505050506040513d601f19601f820116820180604052508101906106669190611199565b5060055460405163095ea7b360e01b81526001600160a01b039091169063095ea7b39061069b90849060001990600401611292565b602060405180830381600087803b1580156106b557600080fd5b505af11580156106c9573d6000803e3d6000fd5b505050506040513d601f19601f820116820180604052508101906106ed9190611199565b5050565b6106f96104d3565b6107155760405162461bcd60e51b815260040161032290611377565b6003546040516370a0823160e01b815282916001600160a01b0316906370a082319061074590309060040161127e565b60206040518083038186803b15801561075d57600080fd5b505afa158015610771573d6000803e3d6000fd5b505050506040513d601f19601f820116820180604052508101906107959190611266565b10156107b35760405162461bcd60e51b8152600401610322906113ae565b600354604051630852cd8d60e31b81526001600160a01b03909116906342966c68906107e39084906004016113e5565b600060405180830381600087803b1580156107fd57600080fd5b505af1158015610811573d6000803e3d6000fd5b5050505050565b6003546001600160a01b031681565b61082f6104d3565b61084b5760405162461bcd60e51b815260040161032290611377565b600480546040516370a0823160e01b815283926001600160a01b03909216916370a082319161087c9130910161127e565b60206040518083038186803b15801561089457600080fd5b505afa1580156108a8573d6000803e3d6000fd5b505050506040513d601f19601f820116820180604052508101906108cc9190611266565b10156108ea5760405162461bcd60e51b8152600401610322906113ae565b6004805460405163a9059cbb60e01b81526001600160a01b039091169163a9059cbb9161047c918691869101611292565b6109236104d3565b61093f5760405162461bcd60e51b815260040161032290611377565b600480546040516370a0823160e01b815283926001600160a01b03909216916370a08231916109709130910161127e565b60206040518083038186803b15801561098857600080fd5b505afa15801561099c573d6000803e3d6000fd5b505050506040513d601f19601f820116820180604052508101906109c09190611266565b10156109de5760405162461bcd60e51b8152600401610322906113ae565b60048054604051630852cd8d60e31b81526001600160a01b03909116916342966c68916107e3918591016113e5565b6007546001600160a01b031681565b6001546001600160a01b031681565b610a336104d3565b610a4f5760405162461bcd60e51b815260040161032290611377565b6003546040516370a0823160e01b815282916001600160a01b0316906370a0823190610a7f90309060040161127e565b60206040518083038186803b158015610a9757600080fd5b505afa158015610aab573d6000803e3d6000fd5b505050506040513d601f19601f82011682018060405250810190610acf9190611266565b1015610aed5760405162461bcd60e51b8152600401610322906113ae565b60035460405163a9059cbb60e01b81526001600160a01b039091169063a9059cbb9061047c9085908590600401611292565b610b276104d3565b610b435760405162461bcd60e51b815260040161032290611377565b6005546040516370a0823160e01b815282916001600160a01b0316906370a0823190610b7390309060040161127e565b60206040518083038186803b158015610b8b57600080fd5b505afa158015610b9f573d6000803e3d6000fd5b505050506040513d601f19601f82011682018060405250810190610bc39190611266565b1015610be15760405162461bcd60e51b8152600401610322906113ae565b600554604051630852cd8d60e31b81526001600160a01b03909116906342966c68906107e39084906004016113e5565b610c196104d3565b610c355760405162461bcd60e51b815260040161032290611377565b600380546001600160a01b039485166001600160a01b031991821617909155600480549385169382169390931790925560058054919093169116179055565b6005546001600160a01b031681565b6001546001600160a01b0316331490565b6006546001600160a01b031681565b600054610100900460ff1680610cbc575060005460ff16155b610cd85760405162461bcd60e51b81526004016103229061131a565b600054610100900460ff16158015610d03576000805460ff1961ff0019909116610100171660011790555b610d0c84610ddd565b600080546001600160a01b03808716620100000275ffffffffffffffffffffffffffffffffffffffff00001990921691909117909155600380546001600160a01b03199081167369c3ff5f466757bf99fef916ae9a191d7c13696c1790915560048054821673d8ad05ff852ae4eb264089c377501494ea1d03c917905560058054821673a1d3c78f0f98f6ba7b08ec15df48e22880a0024c1790556006805486841690831617905560078054928516929091169190911790558015610dd7576000805461ff00191690555b50505050565b600054610100900460ff1680610df6575060005460ff16155b610e125760405162461bcd60e51b81526004016103229061131a565b600054610100900460ff16158015610e3d576000805460ff1961ff0019909116610100171660011790555b6000805475ffffffffffffffffffffffffffffffffffffffff00001916620100006001600160a01b03851690810291909117909155600180546001600160a01b031916909117905580156106ed576000805461ff00191690555050565b6004546001600160a01b031681565b610eb16104d3565b610ecd5760405162461bcd60e51b815260040161032290611377565b6001600160a01b038116610ee057600080fd5b6000805475ffffffffffffffffffffffffffffffffffffffff00001916620100006001600160a01b038416908102919091178255604051909133917f8be0079c531659141344cd1fd0a4f28419497f9722a3daafe3b4186f6b6457e09190a350565b610f4a6104d3565b610f665760405162461bcd60e51b815260040161032290611377565b6006546001600160a01b03166001856002811115610f9457634e487b7160e01b600052602160045260246000fd5b1415610fa857506007546001600160a01b03165b60005b838110156110d4576002546001600160a01b031663db37dc2787878785818110610fe557634e487b7160e01b600052603260045260246000fd5b90506020020135866040518463ffffffff1660e01b815260040161100b939291906112b6565b600060405180830381600087803b15801561102557600080fd5b505af1158015611039573d6000803e3d6000fd5b50505050816001600160a01b03166342966c6886868481811061106c57634e487b7160e01b600052603260045260246000fd5b905060200201356040518263ffffffff1660e01b815260040161108f91906113e5565b600060405180830381600087803b1580156110a957600080fd5b505af11580156110bd573d6000803e3d6000fd5b5050505080806110cc906113ee565b915050610fab565b505050505050565b6000546201000090046001600160a01b031681565b80356001600160a01b038116811461110857600080fd5b919050565b60006020828403121561111e578081fd5b611127826110f1565b9392505050565b600080600060608486031215611142578182fd5b61114b846110f1565b9250611159602085016110f1565b9150611167604085016110f1565b90509250925092565b60008060408385031215611182578182fd5b61118b836110f1565b946020939093013593505050565b6000602082840312156111aa578081fd5b81518015158114611127578182fd5b600080600080606085870312156111ce578081fd5b84356111d981611436565b9350602085013567ffffffffffffffff808211156111f5578283fd5b818701915087601f830112611208578283fd5b813581811115611216578384fd5b8860208083028501011115611229578384fd5b602083019550809450505050604085013561124381611436565b939692955090935050565b60006020828403121561125f578081fd5b5035919050565b600060208284031215611277578081fd5b5051919050565b6001600160a01b0391909116815260200190565b6001600160a01b03929092168252602082015260400190565b901515815260200190565b606081016112c385611415565b8482528360208301526112d583611415565b826040830152949350505050565b60208082526019908201527f54726561737572793a20696e76616c6964206164647265737300000000000000604082015260600190565b6020808252602e908201527f496e697469616c697a61626c653a20636f6e747261637420697320616c72656160408201527f647920696e697469616c697a6564000000000000000000000000000000000000606082015260800190565b6020808252600d908201527f6f6e6c794d61696e41646d696e00000000000000000000000000000000000000604082015260600190565b60208082526018908201527f54726561737572793a20616d6f756e7420696e76616c69640000000000000000604082015260600190565b90815260200190565b600060001982141561140e57634e487b7160e01b81526011600452602481fd5b5060010190565b6003811061143357634e487b7160e01b600052602160045260246000fd5b50565b6003811061143357600080fdfea26469706673582212200a01626eb143c3d8c7dc370452755670e64d5cae2d670215b7e9696fdf3b865b64736f6c63430008000033",
  "immutableReferences": {},
  "source": "// SPDX-License-Identifier: GPL\n\npragma solidity 0.8.0;\n\nimport \"./interfaces/IMarketPlace.sol\";\nimport \"./libs/fota/Auth.sol\";\nimport \"./interfaces/IFOTAToken.sol\";\nimport \"./MarketPlace.sol\";\n\ncontract Treasury is Auth {\n  IMarketPlace public marketPlace;\n  IFOTAToken public fotaToken;\n  IFOTAToken public busdToken;\n  IFOTAToken public usdtToken;\n  IGameNFT public heroToken;\n  IGameNFT public itemToken;\n\n  function initialize(address _mainAdmin, address _heroToken, address _itemToken) public initializer {\n    Auth.initialize(_mainAdmin);\n    mainAdmin = _mainAdmin;\n    fotaToken = IFOTAToken(0x69c3FF5F466757BF99feF916aE9a191d7c13696c);\n    busdToken = IFOTAToken(0xD8aD05ff852ae4EB264089c377501494EA1D03C9);\n    usdtToken = IFOTAToken(0xa1D3c78f0f98f6ba7b08ec15df48E22880a0024c);\n    heroToken = IGameNFT(_heroToken);\n    itemToken = IGameNFT(_itemToken);\n  }\n\n  function setMarketPlace(address _marketPlace) external onlyMainAdmin {\n    require(_marketPlace != address(0), \"Treasury: invalid address\");\n    marketPlace = IMarketPlace(_marketPlace);\n    fotaToken.approve(_marketPlace, type(uint).max);\n    busdToken.approve(_marketPlace, type(uint).max);\n    usdtToken.approve(_marketPlace, type(uint).max);\n  }\n\n  function burnFOTA(uint _amount) external onlyMainAdmin {\n    require(fotaToken.balanceOf(address(this)) >= _amount, \"Treasury: amount invalid\");\n    fotaToken.burn(_amount);\n  }\n\n  function burnBUSD(uint _amount) external onlyMainAdmin {\n    require(busdToken.balanceOf(address(this)) >= _amount, \"Treasury: amount invalid\");\n    busdToken.burn(_amount);\n  }\n\n  function burnUSDT(uint _amount) external onlyMainAdmin {\n    require(usdtToken.balanceOf(address(this)) >= _amount, \"Treasury: amount invalid\");\n    usdtToken.burn(_amount);\n  }\n\n  function claimFOTA(address _address, uint _amount) external onlyMainAdmin {\n    require(fotaToken.balanceOf(address(this)) >= _amount, \"Treasury: amount invalid\");\n    fotaToken.transfer(_address, _amount);\n  }\n\n  function claimBUSD(address _address, uint _amount) external onlyMainAdmin {\n    require(busdToken.balanceOf(address(this)) >= _amount, \"Treasury: amount invalid\");\n    busdToken.transfer(_address, _amount);\n  }\n\n  function claimUSDT(address _address, uint _amount) external onlyMainAdmin {\n    require(usdtToken.balanceOf(address(this)) >= _amount, \"Treasury: amount invalid\");\n    usdtToken.transfer(_address, _amount);\n  }\n\n  function buyBack(IMarketPlace.OrderKind _kind, uint[] calldata _tokenIds, IMarketPlace.PaymentCurrency _paymentCurrency) external onlyMainAdmin {\n    IGameNFT token = heroToken;\n    if (_kind == IMarketPlace.OrderKind.item) {\n      token = itemToken;\n    }\n    for(uint i = 0; i < _tokenIds.length; i++) {\n      marketPlace.takeOrder(_kind, _tokenIds[i], _paymentCurrency);\n      token.burn(_tokenIds[i]);\n    }\n  }\n\n  // TODO for testing purpose\n  function setToken(address _fotaToken, address _busdToken, address _usdtToken) external onlyMainAdmin {\n    fotaToken = IFOTAToken(_fotaToken);\n    busdToken = IFOTAToken(_busdToken);\n    usdtToken = IFOTAToken(_usdtToken);\n  }\n}\n",
  "sourcePath": "/Users/dung/Documents/sources/fota-dapp/contracts/Treasury.sol",
  "compiler": {
    "name": "solc",
    "version": "0.8.0+commit.c7dfd78e.Emscripten.clang"
  },
  "schemaVersion": "3.3.4",
  "updatedAt": "2022-03-03T04:57:24.593Z",
  "networkType": "ethereum",
  "devdoc": {
    "kind": "dev",
    "methods": {},
    "version": 1
  },
  "userdoc": {
    "kind": "user",
    "methods": {},
    "version": 1
  }
}