{
  "contractName": "Citizen",
  "abi": [
    {
      "anonymous": false,
      "inputs": [
        {
          "indexed": true,
          "internalType": "address",
          "name": "_newOwner",
          "type": "address"
        }
      ],
      "name": "ContractAdminUpdated",
      "type": "event"
    },
    {
      "anonymous": false,
      "inputs": [
        {
          "indexed": true,
          "internalType": "address",
          "name": "user",
          "type": "address"
        },
        {
          "indexed": false,
          "internalType": "address",
          "name": "inviter",
          "type": "address"
        }
      ],
      "name": "InviterUpdated",
      "type": "event"
    },
    {
      "anonymous": false,
      "inputs": [
        {
          "indexed": true,
          "internalType": "address",
          "name": "_previousOwner",
          "type": "address"
        },
        {
          "indexed": true,
          "internalType": "address",
          "name": "_newOwner",
          "type": "address"
        }
      ],
      "name": "OwnershipTransferred",
      "type": "event"
    },
    {
      "anonymous": false,
      "inputs": [
        {
          "indexed": true,
          "internalType": "address",
          "name": "userAddress",
          "type": "address"
        },
        {
          "indexed": false,
          "internalType": "string",
          "name": "userName",
          "type": "string"
        },
        {
          "indexed": true,
          "internalType": "address",
          "name": "inviter",
          "type": "address"
        },
        {
          "indexed": false,
          "internalType": "uint256",
          "name": "timestamp",
          "type": "uint256"
        }
      ],
      "name": "Registered",
      "type": "event"
    },
    {
      "inputs": [],
      "name": "_isContractAdmin",
      "outputs": [
        {
          "internalType": "bool",
          "name": "",
          "type": "bool"
        }
      ],
      "stateMutability": "view",
      "type": "function",
      "constant": true
    },
    {
      "inputs": [],
      "name": "_isMainAdmin",
      "outputs": [
        {
          "internalType": "bool",
          "name": "",
          "type": "bool"
        }
      ],
      "stateMutability": "view",
      "type": "function",
      "constant": true
    },
    {
      "inputs": [],
      "name": "contractAdmin",
      "outputs": [
        {
          "internalType": "address",
          "name": "",
          "type": "address"
        }
      ],
      "stateMutability": "view",
      "type": "function",
      "constant": true
    },
    {
      "inputs": [],
      "name": "mainAdmin",
      "outputs": [
        {
          "internalType": "address",
          "name": "",
          "type": "address"
        }
      ],
      "stateMutability": "view",
      "type": "function",
      "constant": true
    },
    {
      "inputs": [
        {
          "internalType": "address",
          "name": "",
          "type": "address"
        }
      ],
      "name": "residents",
      "outputs": [
        {
          "internalType": "uint256",
          "name": "id",
          "type": "uint256"
        },
        {
          "internalType": "string",
          "name": "userName",
          "type": "string"
        },
        {
          "internalType": "address",
          "name": "inviter",
          "type": "address"
        }
      ],
      "stateMutability": "view",
      "type": "function",
      "constant": true
    },
    {
      "inputs": [
        {
          "internalType": "address",
          "name": "_newOwner",
          "type": "address"
        }
      ],
      "name": "transferOwnership",
      "outputs": [],
      "stateMutability": "nonpayable",
      "type": "function"
    },
    {
      "inputs": [
        {
          "internalType": "address",
          "name": "_newAdmin",
          "type": "address"
        }
      ],
      "name": "updateContractAdmin",
      "outputs": [],
      "stateMutability": "nonpayable",
      "type": "function"
    },
    {
      "inputs": [
        {
          "internalType": "address",
          "name": "",
          "type": "address"
        }
      ],
      "name": "whiteList",
      "outputs": [
        {
          "internalType": "bool",
          "name": "",
          "type": "bool"
        }
      ],
      "stateMutability": "view",
      "type": "function",
      "constant": true
    },
    {
      "inputs": [
        {
          "internalType": "address",
          "name": "_mainAdmin",
          "type": "address"
        }
      ],
      "name": "initialize",
      "outputs": [],
      "stateMutability": "nonpayable",
      "type": "function"
    },
    {
      "inputs": [
        {
          "internalType": "address",
          "name": "_address",
          "type": "address"
        },
        {
          "internalType": "string",
          "name": "_userName",
          "type": "string"
        },
        {
          "internalType": "address",
          "name": "_inviter",
          "type": "address"
        }
      ],
      "name": "register",
      "outputs": [
        {
          "internalType": "uint256",
          "name": "",
          "type": "uint256"
        }
      ],
      "stateMutability": "nonpayable",
      "type": "function"
    },
    {
      "inputs": [
        {
          "internalType": "address",
          "name": "_address",
          "type": "address"
        }
      ],
      "name": "isCitizen",
      "outputs": [
        {
          "internalType": "bool",
          "name": "",
          "type": "bool"
        }
      ],
      "stateMutability": "view",
      "type": "function",
      "constant": true
    },
    {
      "inputs": [
        {
          "internalType": "address",
          "name": "_address",
          "type": "address"
        }
      ],
      "name": "getInviter",
      "outputs": [
        {
          "internalType": "address",
          "name": "",
          "type": "address"
        }
      ],
      "stateMutability": "view",
      "type": "function",
      "constant": true
    },
    {
      "inputs": [
        {
          "internalType": "address",
          "name": "_address",
          "type": "address"
        },
        {
          "internalType": "bool",
          "name": "_status",
          "type": "bool"
        }
      ],
      "name": "setWhiteList",
      "outputs": [],
      "stateMutability": "nonpayable",
      "type": "function"
    },
    {
      "inputs": [
        {
          "internalType": "address[]",
          "name": "_addresses",
          "type": "address[]"
        },
        {
          "internalType": "address",
          "name": "_inviter",
          "type": "address"
        }
      ],
      "name": "updateInviter",
      "outputs": [],
      "stateMutability": "nonpayable",
      "type": "function"
    }
  ],
  "bytecode": "0x608060405234801561001057600080fd5b50611098806100206000396000f3fe608060405234801561001057600080fd5b50600436106100ea5760003560e01c8063b7d6caec1161008c578063e4d65d5411610066578063e4d65d54146101be578063f2fde38b146101e0578063f3caad03146101f3578063fb6b04ba14610206576100ea565b8063b7d6caec14610190578063c4d66de814610198578063d216ce6f146101ab576100ea565b806377955245116100c857806377955245146101355780638a47c8db1461014a5780638d14e1271461015d57806397294e5814610170576100ea565b806302e65b8a146100ef57806311541ce014610104578063372c12b114610122575b600080fd5b6101026100fd366004610be3565b61020e565b005b61010c610298565b6040516101199190610d5f565b60405180910390f35b61010c610130366004610be3565b6102af565b61013d6102c4565b6040516101199190610d4b565b610102610158366004610ccd565b6102d3565b61010261016b366004610c04565b6103fd565b61018361017e366004610c3e565b610472565b6040516101199190610f49565b61010c61067b565b6101026101a6366004610be3565b61068c565b61013d6101b9366004610be3565b61070b565b6101d16101cc366004610be3565b610730565b60405161011993929190610f52565b6101026101ee366004610be3565b6107e4565b61010c610201366004610be3565b61087d565b61013d6108c4565b610216610298565b61023b5760405162461bcd60e51b815260040161023290610edb565b60405180910390fd5b6001600160a01b03811661024e57600080fd5b600180546001600160a01b0319166001600160a01b0383169081179091556040517fe3f4a4b5b74aa6830627cb87c50cf7d4ed56e9b246729179ba634bbdc873177a90600090a250565b6000546201000090046001600160a01b0316331490565b60036020526000908152604090205460ff1681565b6001546001600160a01b031681565b6102db610298565b6102f75760405162461bcd60e51b815260040161023290610edb565b60005b828110156103f757816002600086868581811061032757634e487b7160e01b600052603260045260246000fd5b905060200201602081019061033c9190610be3565b6001600160a01b039081168252602082019290925260400160002060020180546001600160a01b0319169290911691909117905583838281811061039057634e487b7160e01b600052603260045260246000fd5b90506020020160208101906103a59190610be3565b6001600160a01b03167f8aa7320fb44f2f59a6418b8c0ab1dc578b2c4d46f8589c7ab2d0c7c1841c825d836040516103dd9190610d4b565b60405180910390a2806103ef81611011565b9150506102fa565b50505050565b610405610298565b6104215760405162461bcd60e51b815260040161023290610edb565b6001600160a01b0382166104475760405162461bcd60e51b815260040161023290610f12565b6001600160a01b03919091166000908152600360205260409020805460ff1916911515919091179055565b60006001600160a01b038216156104c65761048c8261087d565b80156104aa5750816001600160a01b0316856001600160a01b031614155b6104c65760405162461bcd60e51b815260040161023290610e10565b6104d084846108d9565b6104ec5760405162461bcd60e51b815260040161023290610ea4565b6001600160a01b038516600090815260026020526040902061050d8661087d565b1561052a5760405162461bcd60e51b815260040161023290610da2565b600061056b86868080601f016020809104026020016040519081016040528093929190818152602001838380828437600092019190915250610a5892505050565b67ffffffffffffffff1981166000908152600460205260409020549091506001600160a01b0316156105af5760405162461bcd60e51b815260040161023290610dd9565b67ffffffffffffffff198116600090815260046020526040812080546001600160a01b0319166001600160a01b038a1617905560058054600192906105f5908490610fbe565b9091555050600554825561060d600183018787610b33565b506002820180546001600160a01b0319166001600160a01b0386811691821790925560405190918916907f24219f45621d0dcae1fa0e9b390c65335195bf4454eaf0698eee6a32f5b339cb90610668908a908a904290610d6a565b60405180910390a3505495945050505050565b6001546001600160a01b0316331490565b600054610100900460ff16806106a5575060005460ff16155b6106c15760405162461bcd60e51b815260040161023290610e47565b600054610100900460ff161580156106ec576000805460ff1961ff0019909116610100171660011790555b6106f582610a76565b8015610707576000805461ff00191690555b5050565b6001600160a01b0380821660009081526002602081905260409091200154165b919050565b6002602052600090815260409020805460018201805491929161075290610fd6565b80601f016020809104026020016040519081016040528092919081815260200182805461077e90610fd6565b80156107cb5780601f106107a0576101008083540402835291602001916107cb565b820191906000526020600020905b8154815290600101906020018083116107ae57829003601f168201915b505050600290930154919250506001600160a01b031683565b6107ec610298565b6108085760405162461bcd60e51b815260040161023290610edb565b6001600160a01b03811661081b57600080fd5b6000805475ffffffffffffffffffffffffffffffffffffffff00001916620100006001600160a01b038416908102919091178255604051909133917f8be0079c531659141344cd1fd0a4f28419497f9722a3daafe3b4186f6b6457e09190a350565b6001600160a01b03811660009081526003602052604081205460ff16156108a65750600161072b565b506001600160a01b0316600090815260026020526040902054151590565b6000546201000090046001600160a01b031681565b600081600460ff821610806108f1575060158160ff16115b15610900576000915050610a52565b60005b8160ff168160ff161015610a2057603085858360ff1681811061093657634e487b7160e01b600052603260045260246000fd5b9050013560f81c60f81b60f81c60ff1610806109c15750603985858360ff1681811061097257634e487b7160e01b600052603260045260246000fd5b9050013560f81c60f81b60f81c60ff161180156109c15750604185858360ff168181106109af57634e487b7160e01b600052603260045260246000fd5b9050013560f81c60f81b60f81c60ff16105b806109fe5750605a85858360ff168181106109ec57634e487b7160e01b600052603260045260246000fd5b9050013560f81c60f81b60f81c60ff16115b15610a0e57600092505050610a52565b80610a188161102c565b915050610903565b5083836000818110610a4257634e487b7160e01b600052603260045260246000fd5b9091013560f81c60301415925050505b92915050565b80516000908290610a6d57506000905061072b565b50506018015190565b600054610100900460ff1680610a8f575060005460ff16155b610aab5760405162461bcd60e51b815260040161023290610e47565b600054610100900460ff16158015610ad6576000805460ff1961ff0019909116610100171660011790555b6000805475ffffffffffffffffffffffffffffffffffffffff00001916620100006001600160a01b03851690810291909117909155600180546001600160a01b03191690911790558015610707576000805461ff00191690555050565b828054610b3f90610fd6565b90600052602060002090601f016020900481019282610b615760008555610ba7565b82601f10610b7a5782800160ff19823516178555610ba7565b82800160010185558215610ba7579182015b82811115610ba7578235825591602001919060010190610b8c565b50610bb3929150610bb7565b5090565b5b80821115610bb35760008155600101610bb8565b80356001600160a01b038116811461072b57600080fd5b600060208284031215610bf4578081fd5b610bfd82610bcc565b9392505050565b60008060408385031215610c16578081fd5b610c1f83610bcc565b915060208301358015158114610c33578182fd5b809150509250929050565b60008060008060608587031215610c53578182fd5b610c5c85610bcc565b9350602085013567ffffffffffffffff80821115610c78578384fd5b818701915087601f830112610c8b578384fd5b813581811115610c99578485fd5b886020828501011115610caa578485fd5b602083019550809450505050610cc260408601610bcc565b905092959194509250565b600080600060408486031215610ce1578283fd5b833567ffffffffffffffff80821115610cf8578485fd5b818601915086601f830112610d0b578485fd5b813581811115610d19578586fd5b8760208083028501011115610d2c578586fd5b602092830195509350610d429186019050610bcc565b90509250925092565b6001600160a01b0391909116815260200190565b901515815260200190565b6000604082528360408301528385606084013780606085840101526060601f19601f8601168301019050826020830152949350505050565b6020808252601b908201527f436974697a656e3a20616c726561647920616e20636974697a656e0000000000604082015260600190565b6020808252601f908201527f436974697a656e3a20757365724e616d6520616c726561647920657869737400604082015260600190565b6020808252601b908201527f436974697a656e3a20696e766974657220697320696e76616c69640000000000604082015260600190565b6020808252602e908201527f496e697469616c697a61626c653a20636f6e747261637420697320616c72656160408201527f647920696e697469616c697a6564000000000000000000000000000000000000606082015260800190565b60208082526019908201527f436974697a656e3a20696e76616c696420757365724e616d6500000000000000604082015260600190565b6020808252600d908201527f6f6e6c794d61696e41646d696e00000000000000000000000000000000000000604082015260600190565b60208082526018908201527f436974697a656e3a20696e76616c696420616464726573730000000000000000604082015260600190565b90815260200190565b600084825260206060818401528451806060850152825b81811015610f8557868101830151858201608001528201610f69565b81811115610f965783608083870101525b506001600160a01b039490941660408401525050601f91909101601f19160160800192915050565b60008219821115610fd157610fd161104c565b500190565b600281046001821680610fea57607f821691505b6020821081141561100b57634e487b7160e01b600052602260045260246000fd5b50919050565b60006000198214156110255761102561104c565b5060010190565b600060ff821660ff8114156110435761104361104c565b60010192915050565b634e487b7160e01b600052601160045260246000fdfea264697066735822122001c2227182d8ab722a329c7f5874dba654ab66a801b31f2cefb5ba7d48cfd18564736f6c63430008000033",
  "immutableReferences": {},
  "source": "// SPDX-License-Identifier: GPL\n\npragma solidity 0.8.0;\n\nimport \"./libs/fota/Auth.sol\";\nimport \"./libs/fota/StringUtil.sol\";\n\ncontract Citizen is Auth {\n  using StringUtil for string;\n  struct Resident {\n    uint id;\n    string userName;\n    address inviter;\n  }\n  mapping (address => Resident) public residents;\n  mapping (address => bool) public whiteList;\n  mapping (bytes24 => address) private userNameAddresses;\n  uint totalResident;\n\n  event Registered(address indexed userAddress, string userName, address indexed inviter, uint timestamp);\n  event InviterUpdated(address indexed user, address inviter);\n\n  function initialize(address _mainAdmin) override public initializer {\n    super.initialize(_mainAdmin);\n  }\n\n  function register(address _address, string calldata _userName, address _inviter) external returns (uint) {\n    if (_inviter != address(0)) {\n      require(isCitizen(_inviter) && _address != _inviter, \"Citizen: inviter is invalid\");\n    }\n    require(_userName.validateUserName(), \"Citizen: invalid userName\");\n    Resident storage resident = residents[_address];\n    require(!isCitizen(_address), \"Citizen: already an citizen\");\n    bytes24 _userNameAsKey = _userName.toBytes24();\n    require(userNameAddresses[_userNameAsKey] == address(0), \"Citizen: userName already exist\");\n    userNameAddresses[_userNameAsKey] = _address;\n\n    totalResident += 1;\n    resident.id = totalResident;\n    resident.userName = _userName;\n    resident.inviter = _inviter;\n    emit Registered(_address, _userName, _inviter, block.timestamp);\n    return resident.id;\n  }\n\n  function isCitizen(address _address) view public returns (bool) {\n    if (whiteList[_address]) {\n      return true;\n    }\n    Resident storage resident = residents[_address];\n    return resident.id > 0;\n  }\n\n  function getInviter(address _address) view public returns (address) {\n    Resident storage resident = residents[_address];\n    return resident.inviter;\n  }\n\n  function setWhiteList(address _address, bool _status) external onlyMainAdmin {\n    require(_address != address(0), \"Citizen: invalid address\");\n    whiteList[_address] = _status;\n  }\n\n  function updateInviter(address[] calldata _addresses, address _inviter) external onlyMainAdmin {\n    for(uint i = 0; i < _addresses.length; i++) {\n      residents[_addresses[i]].inviter = _inviter;\n      emit InviterUpdated(_addresses[i], _inviter);\n    }\n  }\n}\n",
  "sourcePath": "/Users/binh/Documents/Development/Solidity/fota-dapp/contracts/Citizen.sol",
  "compiler": {
    "name": "solc",
    "version": "0.8.0+commit.c7dfd78e.Emscripten.clang"
  },
  "schemaVersion": "3.3.4",
  "updatedAt": "2022-01-05T07:37:06.040Z",
  "networkType": "ethereum",
  "devdoc": {
    "kind": "dev",
    "methods": {},
    "version": 1
  },
  "userdoc": {
    "kind": "user",
    "methods": {},
    "version": 1
  }
}