{
  "contractName": "EatherSale",
  "abi": [
    {
      "anonymous": false,
      "inputs": [
        {
          "indexed": true,
          "internalType": "address",
          "name": "_newOwner",
          "type": "address"
        }
      ],
      "name": "ContractAdminUpdated",
      "type": "event"
    },
    {
      "anonymous": false,
      "inputs": [
        {
          "indexed": true,
          "internalType": "address",
          "name": "_user",
          "type": "address"
        },
        {
          "indexed": false,
          "internalType": "uint256[]",
          "name": "_tokenIds",
          "type": "uint256[]"
        },
        {
          "indexed": false,
          "internalType": "enum IMarketPlace.PaymentCurrency",
          "name": "_paymentCurrency",
          "type": "uint8"
        },
        {
          "indexed": false,
          "internalType": "uint256",
          "name": "_totalAmount",
          "type": "uint256"
        },
        {
          "indexed": false,
          "internalType": "uint256",
          "name": "timestamp",
          "type": "uint256"
        }
      ],
      "name": "ItemBought",
      "type": "event"
    },
    {
      "anonymous": false,
      "inputs": [
        {
          "indexed": false,
          "internalType": "uint256",
          "name": "totalSale",
          "type": "uint256"
        }
      ],
      "name": "MaxQuantityPerOrderUpdated",
      "type": "event"
    },
    {
      "anonymous": false,
      "inputs": [
        {
          "indexed": true,
          "internalType": "address",
          "name": "_previousOwner",
          "type": "address"
        },
        {
          "indexed": true,
          "internalType": "address",
          "name": "_newOwner",
          "type": "address"
        }
      ],
      "name": "OwnershipTransferred",
      "type": "event"
    },
    {
      "anonymous": false,
      "inputs": [
        {
          "indexed": false,
          "internalType": "address",
          "name": "account",
          "type": "address"
        }
      ],
      "name": "Paused",
      "type": "event"
    },
    {
      "anonymous": false,
      "inputs": [
        {
          "indexed": false,
          "internalType": "enum IMarketPlace.PaymentType",
          "name": "_newMethod",
          "type": "uint8"
        }
      ],
      "name": "PaymentTypeChanged",
      "type": "event"
    },
    {
      "anonymous": false,
      "inputs": [
        {
          "indexed": false,
          "internalType": "uint256",
          "name": "totalSale",
          "type": "uint256"
        }
      ],
      "name": "TotalSaleUpdated",
      "type": "event"
    },
    {
      "anonymous": false,
      "inputs": [
        {
          "indexed": false,
          "internalType": "address",
          "name": "account",
          "type": "address"
        }
      ],
      "name": "Unpaused",
      "type": "event"
    },
    {
      "inputs": [],
      "name": "_isContractAdmin",
      "outputs": [
        {
          "internalType": "bool",
          "name": "",
          "type": "bool"
        }
      ],
      "stateMutability": "view",
      "type": "function",
      "constant": true
    },
    {
      "inputs": [],
      "name": "_isMainAdmin",
      "outputs": [
        {
          "internalType": "bool",
          "name": "",
          "type": "bool"
        }
      ],
      "stateMutability": "view",
      "type": "function",
      "constant": true
    },
    {
      "inputs": [],
      "name": "busdToken",
      "outputs": [
        {
          "internalType": "contract IBEP20",
          "name": "",
          "type": "address"
        }
      ],
      "stateMutability": "view",
      "type": "function",
      "constant": true
    },
    {
      "inputs": [],
      "name": "citizen",
      "outputs": [
        {
          "internalType": "contract ICitizen",
          "name": "",
          "type": "address"
        }
      ],
      "stateMutability": "view",
      "type": "function",
      "constant": true
    },
    {
      "inputs": [],
      "name": "contractAdmin",
      "outputs": [
        {
          "internalType": "address",
          "name": "",
          "type": "address"
        }
      ],
      "stateMutability": "view",
      "type": "function",
      "constant": true
    },
    {
      "inputs": [],
      "name": "fotaPricer",
      "outputs": [
        {
          "internalType": "contract IFOTAPricer",
          "name": "",
          "type": "address"
        }
      ],
      "stateMutability": "view",
      "type": "function",
      "constant": true
    },
    {
      "inputs": [],
      "name": "fotaToken",
      "outputs": [
        {
          "internalType": "contract IBEP20",
          "name": "",
          "type": "address"
        }
      ],
      "stateMutability": "view",
      "type": "function",
      "constant": true
    },
    {
      "inputs": [],
      "name": "itemPrice",
      "outputs": [
        {
          "internalType": "uint256",
          "name": "",
          "type": "uint256"
        }
      ],
      "stateMutability": "view",
      "type": "function",
      "constant": true
    },
    {
      "inputs": [],
      "name": "itemToken",
      "outputs": [
        {
          "internalType": "contract IGameNFT",
          "name": "",
          "type": "address"
        }
      ],
      "stateMutability": "view",
      "type": "function",
      "constant": true
    },
    {
      "inputs": [],
      "name": "mainAdmin",
      "outputs": [
        {
          "internalType": "address",
          "name": "",
          "type": "address"
        }
      ],
      "stateMutability": "view",
      "type": "function",
      "constant": true
    },
    {
      "inputs": [],
      "name": "marketPlace",
      "outputs": [
        {
          "internalType": "contract IMarketPlace",
          "name": "",
          "type": "address"
        }
      ],
      "stateMutability": "view",
      "type": "function",
      "constant": true
    },
    {
      "inputs": [],
      "name": "maxQuantityPerOrder",
      "outputs": [
        {
          "internalType": "uint256",
          "name": "",
          "type": "uint256"
        }
      ],
      "stateMutability": "view",
      "type": "function",
      "constant": true
    },
    {
      "inputs": [],
      "name": "paused",
      "outputs": [
        {
          "internalType": "bool",
          "name": "",
          "type": "bool"
        }
      ],
      "stateMutability": "view",
      "type": "function",
      "constant": true
    },
    {
      "inputs": [],
      "name": "paymentType",
      "outputs": [
        {
          "internalType": "enum IMarketPlace.PaymentType",
          "name": "",
          "type": "uint8"
        }
      ],
      "stateMutability": "view",
      "type": "function",
      "constant": true
    },
    {
      "inputs": [
        {
          "internalType": "uint256",
          "name": "",
          "type": "uint256"
        }
      ],
      "name": "pools",
      "outputs": [
        {
          "internalType": "address",
          "name": "",
          "type": "address"
        }
      ],
      "stateMutability": "view",
      "type": "function",
      "constant": true
    },
    {
      "inputs": [],
      "name": "totalSale",
      "outputs": [
        {
          "internalType": "uint256",
          "name": "",
          "type": "uint256"
        }
      ],
      "stateMutability": "view",
      "type": "function",
      "constant": true
    },
    {
      "inputs": [
        {
          "internalType": "address",
          "name": "_newOwner",
          "type": "address"
        }
      ],
      "name": "transferOwnership",
      "outputs": [],
      "stateMutability": "nonpayable",
      "type": "function"
    },
    {
      "inputs": [
        {
          "internalType": "address",
          "name": "_newAdmin",
          "type": "address"
        }
      ],
      "name": "updateContractAdmin",
      "outputs": [],
      "stateMutability": "nonpayable",
      "type": "function"
    },
    {
      "inputs": [],
      "name": "usdtToken",
      "outputs": [
        {
          "internalType": "contract IBEP20",
          "name": "",
          "type": "address"
        }
      ],
      "stateMutability": "view",
      "type": "function",
      "constant": true
    },
    {
      "inputs": [
        {
          "internalType": "address",
          "name": "_mainAdmin",
          "type": "address"
        },
        {
          "internalType": "address",
          "name": "_marketPlace",
          "type": "address"
        },
        {
          "internalType": "address",
          "name": "_fotaPricer",
          "type": "address"
        },
        {
          "internalType": "address",
          "name": "_itemNFT",
          "type": "address"
        },
        {
          "internalType": "uint256",
          "name": "_itemPrice",
          "type": "uint256"
        },
        {
          "internalType": "address[]",
          "name": "_pools",
          "type": "address[]"
        }
      ],
      "name": "initialize",
      "outputs": [],
      "stateMutability": "nonpayable",
      "type": "function"
    },
    {
      "inputs": [
        {
          "internalType": "address",
          "name": "_mainAdmin",
          "type": "address"
        }
      ],
      "name": "initialize",
      "outputs": [],
      "stateMutability": "nonpayable",
      "type": "function"
    },
    {
      "inputs": [
        {
          "internalType": "enum IMarketPlace.PaymentType",
          "name": "_type",
          "type": "uint8"
        }
      ],
      "name": "updatePaymentType",
      "outputs": [],
      "stateMutability": "nonpayable",
      "type": "function"
    },
    {
      "inputs": [
        {
          "internalType": "uint256",
          "name": "_itemPrice",
          "type": "uint256"
        }
      ],
      "name": "updateItemPrice",
      "outputs": [],
      "stateMutability": "nonpayable",
      "type": "function"
    },
    {
      "inputs": [
        {
          "internalType": "address[]",
          "name": "_pools",
          "type": "address[]"
        }
      ],
      "name": "updatePoolAddress",
      "outputs": [],
      "stateMutability": "nonpayable",
      "type": "function"
    },
    {
      "inputs": [
        {
          "internalType": "uint256",
          "name": "_totalSale",
          "type": "uint256"
        }
      ],
      "name": "updateTotalSale",
      "outputs": [],
      "stateMutability": "nonpayable",
      "type": "function"
    },
    {
      "inputs": [
        {
          "internalType": "uint256",
          "name": "_maxQuantityPerOrder",
          "type": "uint256"
        }
      ],
      "name": "updateMaxQuantityPerOrder",
      "outputs": [],
      "stateMutability": "nonpayable",
      "type": "function"
    },
    {
      "inputs": [
        {
          "internalType": "bool",
          "name": "_paused",
          "type": "bool"
        }
      ],
      "name": "updatePauseStatus",
      "outputs": [],
      "stateMutability": "nonpayable",
      "type": "function"
    },
    {
      "inputs": [
        {
          "internalType": "uint256",
          "name": "_quantity",
          "type": "uint256"
        },
        {
          "internalType": "enum IMarketPlace.PaymentCurrency",
          "name": "_paymentCurrency",
          "type": "uint8"
        }
      ],
      "name": "buy",
      "outputs": [],
      "stateMutability": "nonpayable",
      "type": "function"
    }
  ],
  "bytecode": "0x608060405234801561001057600080fd5b50612196806100206000396000f3fe608060405234801561001057600080fd5b50600436106101c45760003560e01c8063a00245fa116100f9578063c4d66de811610097578063e90bc7b111610071578063e90bc7b114610336578063ea4ce23914610349578063f2fde38b14610351578063fb6b04ba14610364576101c4565b8063c4d66de814610313578063dac6db1c14610326578063de0e70141461032e576101c4565b8063b47e1908116100d3578063b47e1908146102d2578063b60d1856146102e5578063b7d6caec146102f8578063bc6e683014610300576101c4565b8063a00245fa146102a4578063a98ad46c146102b7578063ac4afa38146102bf576101c4565b806348d002f211610166578063764d0bbe11610140578063764d0bbe1461026c578063777f5440146102815780637795524514610289578063928cf60414610291576101c4565b806348d002f2146102545780635c975abb1461025c5780635e1c2f0a14610264576101c4565b80632763b8da116101a25780632763b8da1461020f5780632bbc4971146102245780632e25d2a6146102395780633952b4c714610241576101c4565b806302e65b8a146101c95780630ae24354146101de57806311541ce0146101f1575b600080fd5b6101dc6101d73660046119e0565b61036c565b005b6101dc6101ec366004611b49565b6103f6565b6101f961041f565b6040516102069190611caa565b60405180910390f35b610217610436565b6040516102069190611cb5565b61022c610446565b6040516102069190611ba8565b61022c610455565b6101dc61024f366004611a1f565b610464565b61022c61064d565b6101f961065c565b61022c610665565b610274610674565b6040516102069190612082565b61022c61067a565b61022c610689565b6101dc61029f366004611b49565b610698565b6101dc6102b2366004611b2d565b6106fc565b61022c6107a2565b61022c6102cd366004611b49565b6107b1565b6101dc6102e0366004611b49565b6107db565b6101dc6102f3366004611ab5565b610834565b6101f9610886565b6101dc61030e366004611af5565b610897565b6101dc6103213660046119e0565b6108d9565b610274610997565b61022c61099d565b6101dc610344366004611b79565b6109ac565b610274610c8e565b6101dc61035f3660046119e0565b610c94565b61022c610d2d565b61037461041f565b6103995760405162461bcd60e51b815260040161039090612014565b60405180910390fd5b6001600160a01b0381166103ac57600080fd5b600180546001600160a01b0319166001600160a01b0383169081179091556040517fe3f4a4b5b74aa6830627cb87c50cf7d4ed56e9b246729179ba634bbdc873177a90600090a250565b6103fe61041f565b61041a5760405162461bcd60e51b815260040161039090612014565b606e55565b6000546201000090046001600160a01b0316331490565b606b54600160a01b900460ff1681565b606b546001600160a01b031681565b6069546001600160a01b031681565b600054610100900460ff168061047d575060005460ff16155b6104995760405162461bcd60e51b815260040161039090611f5a565b600054610100900460ff161580156104c4576000805460ff1961ff0019909116610100171660011790555b6104cd886108d9565b606980546001600160a01b03808a166001600160a01b03199283161792839055606a80548a8316931692909217909155604080517f2bbc497100000000000000000000000000000000000000000000000000000000815290519290911691632bbc497191600480820192602092909190829003018186803b15801561055157600080fd5b505afa158015610565573d6000803e3d6000fd5b505050506040513d601f19601f820116820180604052508101906105899190611a03565b606b80546001600160a01b039283166001600160a01b031991821617909155606c805492881692821692909217909155606680548216730a4e1bdfa75292a98c15870aef24bd94bffe0bd417905560678054821673e9e7cea3dedca5984780bafc599bd69add087d56179055606880549091167355d398326f99059ff775485246999027b3197955179055606e849055610625606d848461191f565b50612710606f5560646070558015610643576000805461ff00191690555b5050505050505050565b6066546001600160a01b031681565b60345460ff1690565b606a546001600160a01b031681565b60705481565b606c546001600160a01b031681565b6001546001600160a01b031681565b6106a061041f565b6106bc5760405162461bcd60e51b815260040161039090612014565b606f8190556040517f912ee7bc5d578a4545d9a776001d4242c06651adc745413d152240f63b07ce4b906106f1908390612082565b60405180910390a150565b61070461041f565b6107205760405162461bcd60e51b815260040161039090612014565b606b80548291907fffffffffffffffffffffff00ffffffffffffffffffffffffffffffffffffffff16600160a01b83600281111561076e57634e487b7160e01b600052602160045260246000fd5b02179055507f42d1d4a3df940c5fa3c262d3d5b271a206cfc2e3da70683f81854b3f52f8f5d5816040516106f19190611cb5565b6068546001600160a01b031681565b606d81815481106107c157600080fd5b6000918252602090912001546001600160a01b0316905081565b6107e361041f565b6107ff5760405162461bcd60e51b815260040161039090612014565b60708190556040517fad4a5c5e0e6e746ad67309f0262070d271ac2156d683aee8505d18dac15a5808906106f1908390612082565b61083c61041f565b6108585760405162461bcd60e51b815260040161039090612014565b806108755760405162461bcd60e51b815260040161039090611d6b565b610881606d838361191f565b505050565b6001546001600160a01b0316331490565b61089f61041f565b6108bb5760405162461bcd60e51b815260040161039090612014565b80156108ce576108c9610d42565b6108d6565b6108d6610db4565b50565b600054610100900460ff16806108f2575060005460ff16155b61090e5760405162461bcd60e51b815260040161039090611f5a565b600054610100900460ff16158015610939576000805460ff1961ff0019909116610100171660011790555b6000805475ffffffffffffffffffffffffffffffffffffffff00001916620100006001600160a01b03851690810291909117909155600180546001600160a01b03191690911790558015610993576000805461ff00191690555b5050565b606e5481565b6067546001600160a01b031681565b6109b461065c565b156109d15760405162461bcd60e51b815260040161039090611ec6565b6070548211156109f35760405162461bcd60e51b81526004016103909061204b565b81606f541015610a155760405162461bcd60e51b815260040161039090611efd565b606b546040517ff3caad030000000000000000000000000000000000000000000000000000000081526001600160a01b039091169063f3caad0390610a5e903390600401611ba8565b60206040518083038186803b158015610a7657600080fd5b505afa158015610a8a573d6000803e3d6000fd5b505050506040513d601f19601f82011682018060405250810190610aae9190611b11565b610aca5760405162461bcd60e51b815260040161039090611cff565b610ad381610e0b565b81606f6000828254610ae591906120ca565b9091555060009050610af78383610ef2565b905060008367ffffffffffffffff811115610b2257634e487b7160e01b600052604160045260246000fd5b604051908082528060200260200182016040528015610b4b578160200160208202803683370190505b50905060005b84811015610c4057606c54606e546040517f882c3b0e0000000000000000000000000000000000000000000000000000000081526000926001600160a01b03169163882c3b0e91610bad91339186916001918990600401611c13565b602060405180830381600087803b158015610bc757600080fd5b505af1158015610bdb573d6000803e3d6000fd5b505050506040513d601f19601f82011682018060405250810190610bff9190611b61565b905080838381518110610c2257634e487b7160e01b600052603260045260246000fd5b60209081029190910101525080610c38816120e1565b915050610b51565b50336001600160a01b03167f21559ef735d2bf864ae58942cf33252bb44881f9ce1c20d160cd3121c3a8871182858542604051610c809493929190611c48565b60405180910390a250505050565b606f5481565b610c9c61041f565b610cb85760405162461bcd60e51b815260040161039090612014565b6001600160a01b038116610ccb57600080fd5b6000805475ffffffffffffffffffffffffffffffffffffffff00001916620100006001600160a01b038416908102919091178255604051909133917f8be0079c531659141344cd1fd0a4f28419497f9722a3daafe3b4186f6b6457e09190a350565b6000546201000090046001600160a01b031681565b610d4a61065c565b15610d675760405162461bcd60e51b815260040161039090611ec6565b6034805460ff191660011790557f62e78cea01bee320cd4e420270b5ea74000d11b0c9f74754ebdbfc544b05a258610d9d610fb6565b604051610daa9190611ba8565b60405180910390a1565b610dbc61065c565b610dd85760405162461bcd60e51b815260040161039090611cc8565b6034805460ff191690557f5db9ee0a495bf2e6ff9c91a7834c1ba4fdd244a5e8aa4e537bd38aeae4b073aa610d9d610fb6565b6000606b54600160a01b900460ff166002811115610e3957634e487b7160e01b600052602160045260246000fd5b1415610e7e576000816002811115610e6157634e487b7160e01b600052602160045260246000fd5b146108c95760405162461bcd60e51b815260040161039090611da2565b6001606b54600160a01b900460ff166002811115610eac57634e487b7160e01b600052602160045260246000fd5b14156108d6576000816002811115610ed457634e487b7160e01b600052602160045260246000fd5b14156108d65760405162461bcd60e51b815260040161039090611da2565b600080606b54600160a01b900460ff166002811115610f2157634e487b7160e01b600052602160045260246000fd5b1415610f3757610f3083610fba565b9050610fb0565b6001606b54600160a01b900460ff166002811115610f6557634e487b7160e01b600052602160045260246000fd5b1415610f7557610f3083836114b9565b6000826002811115610f9757634e487b7160e01b600052602160045260246000fd5b1415610fa657610f3083610fba565b610f3083836114b9565b92915050565b3390565b606a54604080517fce11434800000000000000000000000000000000000000000000000000000000815290516000926001600160a01b03169163ce114348916004808301926020929190829003018186803b15801561101857600080fd5b505afa15801561102c573d6000803e3d6000fd5b505050506040513d601f19601f820116820180604052508101906110509190611b61565b6103e8606e548461106191906120ab565b61106b91906120ab565b611075919061208b565b6066546040517fdd62ed3e00000000000000000000000000000000000000000000000000000000815291925082916001600160a01b039091169063dd62ed3e906110c59033903090600401611bbc565b60206040518083038186803b1580156110dd57600080fd5b505afa1580156110f1573d6000803e3d6000fd5b505050506040513d601f19601f820116820180604052508101906111159190611b61565b10156111335760405162461bcd60e51b815260040161039090611fb7565b6066546040516370a0823160e01b815282916001600160a01b0316906370a0823190611163903390600401611ba8565b60206040518083038186803b15801561117b57600080fd5b505afa15801561118f573d6000803e3d6000fd5b505050506040513d601f19601f820116820180604052508101906111b39190611b61565b10156111d15760405162461bcd60e51b815260040161039090611d36565b6066546040516323b872dd60e01b81526001600160a01b03909116906323b872dd9061120590339030908690600401611bd6565b602060405180830381600087803b15801561121f57600080fd5b505af1158015611233573d6000803e3d6000fd5b505050506040513d601f19601f820116820180604052508101906112579190611b11565b6112735760405162461bcd60e51b815260040161039090611e34565b60005b606d548110156114b357606d5461128f906001906120ca565b81101561136857606654606d80546001600160a01b039092169163a9059cbb9190849081106112ce57634e487b7160e01b600052603260045260246000fd5b600091825260209091200154606d546001600160a01b03909116906112f3908661208b565b6040518363ffffffff1660e01b8152600401611310929190611bfa565b602060405180830381600087803b15801561132a57600080fd5b505af115801561133e573d6000803e3d6000fd5b505050506040513d601f19601f820116820180604052508101906113629190611b11565b506114a1565b606654606d80546001600160a01b039092169163a9059cbb9190849081106113a057634e487b7160e01b600052603260045260246000fd5b6000918252602090912001546066546040516370a0823160e01b81526001600160a01b0392831692909116906370a08231906113e0903090600401611ba8565b60206040518083038186803b1580156113f857600080fd5b505afa15801561140c573d6000803e3d6000fd5b505050506040513d601f19601f820116820180604052508101906114309190611b61565b6040518363ffffffff1660e01b815260040161144d929190611bfa565b602060405180830381600087803b15801561146757600080fd5b505af115801561147b573d6000803e3d6000fd5b505050506040513d601f19601f8201168201806040525081019061149f9190611b11565b505b806114ab816120e1565b915050611276565b50919050565b6000606e54836114c991906120ab565b9050600060018360028111156114ef57634e487b7160e01b600052602160045260246000fd5b14611505576068546001600160a01b0316611512565b6067546001600160a01b03165b905081816001600160a01b031663dd62ed3e33306040518363ffffffff1660e01b8152600401611543929190611bbc565b60206040518083038186803b15801561155b57600080fd5b505afa15801561156f573d6000803e3d6000fd5b505050506040513d601f19601f820116820180604052508101906115939190611b61565b10156115b15760405162461bcd60e51b815260040161039090611dd7565b6040516370a0823160e01b815282906001600160a01b038316906370a08231906115df903390600401611ba8565b60206040518083038186803b1580156115f757600080fd5b505afa15801561160b573d6000803e3d6000fd5b505050506040513d601f19601f8201168201806040525081019061162f9190611b61565b101561164d5760405162461bcd60e51b815260040161039090611d36565b6040516323b872dd60e01b81526001600160a01b038216906323b872dd9061167d90339030908790600401611bd6565b602060405180830381600087803b15801561169757600080fd5b505af11580156116ab573d6000803e3d6000fd5b505050506040513d601f19601f820116820180604052508101906116cf9190611b11565b6116eb5760405162461bcd60e51b815260040161039090611e69565b60005b606d5481101561191757606d54611707906001906120ca565b8110156117d857816001600160a01b031663a9059cbb606d838154811061173e57634e487b7160e01b600052603260045260246000fd5b600091825260209091200154606d546001600160a01b0390911690611763908761208b565b6040518363ffffffff1660e01b8152600401611780929190611bfa565b602060405180830381600087803b15801561179a57600080fd5b505af11580156117ae573d6000803e3d6000fd5b505050506040513d601f19601f820116820180604052508101906117d29190611b11565b50611905565b816001600160a01b031663a9059cbb606d838154811061180857634e487b7160e01b600052603260045260246000fd5b6000918252602090912001546040516370a0823160e01b81526001600160a01b03918216918616906370a0823190611844903090600401611ba8565b60206040518083038186803b15801561185c57600080fd5b505afa158015611870573d6000803e3d6000fd5b505050506040513d601f19601f820116820180604052508101906118949190611b61565b6040518363ffffffff1660e01b81526004016118b1929190611bfa565b602060405180830381600087803b1580156118cb57600080fd5b505af11580156118df573d6000803e3d6000fd5b505050506040513d601f19601f820116820180604052508101906119039190611b11565b505b8061190f816120e1565b9150506116ee565b505092915050565b828054828255906000526020600020908101928215611972579160200282015b828111156119725781546001600160a01b0319166001600160a01b0384351617825560209092019160019091019061193f565b5061197e929150611982565b5090565b5b8082111561197e5760008155600101611983565b60008083601f8401126119a8578182fd5b50813567ffffffffffffffff8111156119bf578182fd5b60208301915083602080830285010111156119d957600080fd5b9250929050565b6000602082840312156119f1578081fd5b81356119fc81612130565b9392505050565b600060208284031215611a14578081fd5b81516119fc81612130565b600080600080600080600060c0888a031215611a39578283fd5b8735611a4481612130565b96506020880135611a5481612130565b95506040880135611a6481612130565b94506060880135611a7481612130565b93506080880135925060a088013567ffffffffffffffff811115611a96578283fd5b611aa28a828b01611997565b989b979a50959850939692959293505050565b60008060208385031215611ac7578182fd5b823567ffffffffffffffff811115611add578283fd5b611ae985828601611997565b90969095509350505050565b600060208284031215611b06578081fd5b81356119fc81612145565b600060208284031215611b22578081fd5b81516119fc81612145565b600060208284031215611b3e578081fd5b81356119fc81612153565b600060208284031215611b5a578081fd5b5035919050565b600060208284031215611b72578081fd5b5051919050565b60008060408385031215611b8b578182fd5b823591506020830135611b9d81612153565b809150509250929050565b6001600160a01b0391909116815260200190565b6001600160a01b0392831681529116602082015260400190565b6001600160a01b039384168152919092166020820152604081019190915260600190565b6001600160a01b03929092168252602082015260400190565b6001600160a01b0395909516855260ff93909316602085015261ffff9190911660408401526060830152608082015260a00190565b6080808252855190820181905260009060209060a0840190828901845b82811015611c8157815184529284019290840190600101611c65565b50505080925050611c9186612112565b8201949094526040810192909252606090910152919050565b901515815260200190565b60208101611cc283612112565b91905290565b60208082526014908201527f5061757361626c653a206e6f7420706175736564000000000000000000000000604082015260600190565b6020808252601d908201527f45617468657253616c653a207265676973746572207265717569726564000000604082015260600190565b6020808252818101527f45617468657253616c653a20696e73756666696369656e742062616c616e6365604082015260600190565b60208082526016908201527f45617468657253616c653a20656d707479206461746100000000000000000000604082015260600190565b6020808252818101527f45617468657253616c653a2077726f6e67207061796d656e74206d6574686f64604082015260600190565b6020808252602a908201527f45617468657253616c653a20706c6561736520617070726f766520757364207460408201527f6f6b656e20666972737400000000000000000000000000000000000000000000606082015260800190565b6020808252818101527f45617468657253616c653a207472616e7366657220666f7461206661696c6564604082015260600190565b60208082526025908201527f45617468657253616c653a207472616e736665722075736420746f6b656e206660408201527f61696c6564000000000000000000000000000000000000000000000000000000606082015260800190565b60208082526010908201527f5061757361626c653a2070617573656400000000000000000000000000000000604082015260600190565b60208082526029908201527f45617468657253616c653a20736f6c64206f7574206f72206e6f7420656e6f7560408201527f676820746f206275790000000000000000000000000000000000000000000000606082015260800190565b6020808252602e908201527f496e697469616c697a61626c653a20636f6e747261637420697320616c72656160408201527f647920696e697469616c697a6564000000000000000000000000000000000000606082015260800190565b60208082526025908201527f45617468657253616c653a20706c6561736520617070726f766520666f74612060408201527f6669727374000000000000000000000000000000000000000000000000000000606082015260800190565b6020808252600d908201527f6f6e6c794d61696e41646d696e00000000000000000000000000000000000000604082015260600190565b6020808252601c908201527f45617468657253616c653a207175616e7469747920696e76616c696400000000604082015260600190565b90815260200190565b6000826120a657634e487b7160e01b81526012600452602481fd5b500490565b60008160001904831182151516156120c5576120c56120fc565b500290565b6000828210156120dc576120dc6120fc565b500390565b60006000198214156120f5576120f56120fc565b5060010190565b634e487b7160e01b600052601160045260246000fd5b600381106108d657634e487b7160e01b600052602160045260246000fd5b6001600160a01b03811681146108d657600080fd5b80151581146108d657600080fd5b600381106108d657600080fdfea2646970667358221220d3ad96a6d3cff02c002221a486f2b785c21845736259ef200ea39a951384436c64736f6c63430008000033",
  "immutableReferences": {},
  "source": "// SPDX-License-Identifier: GPL\n\npragma solidity 0.8.0;\n\nimport \"@openzeppelin/contracts-upgradeable/security/PausableUpgradeable.sol\";\nimport \"../libs/zeppelin/token/BEP20/IBEP20.sol\";\nimport \"../interfaces/IGameNFT.sol\";\nimport \"../interfaces/IMarketPlace.sol\";\nimport \"../interfaces/ICitizen.sol\";\nimport \"../interfaces/IFOTAPricer.sol\";\nimport \"../libs/fota/Auth.sol\";\n\ncontract EatherSale is Auth, PausableUpgradeable {\n  IBEP20 public fotaToken;\n  IBEP20 public busdToken;\n  IBEP20 public usdtToken;\n  IMarketPlace public marketPlace;\n  IFOTAPricer public fotaPricer;\n  ICitizen public citizen;\n  IMarketPlace.PaymentType public paymentType;\n  IGameNFT public itemToken;\n  address[] public pools;\n  uint public itemPrice;\n  uint public totalSale;\n  uint public maxQuantityPerOrder;\n  uint8 constant EATHER_GENE = 0;\n  uint16 constant EATHER_CLASS = 1;\n  uint constant decimal3 = 1000;\n\n  event PaymentTypeChanged(IMarketPlace.PaymentType _newMethod);\n  event ItemBought(address indexed _user, uint[] _tokenIds, IMarketPlace.PaymentCurrency _paymentCurrency, uint _totalAmount, uint timestamp);\n  event TotalSaleUpdated(uint totalSale);\n  event MaxQuantityPerOrderUpdated(uint totalSale);\n\n  function initialize(\n    address _mainAdmin,\n    address _marketPlace,\n    address _fotaPricer,\n    address _itemNFT,\n    uint _itemPrice,\n    address[] calldata _pools\n  ) public initializer {\n    Auth.initialize(_mainAdmin);\n    marketPlace = IMarketPlace(_marketPlace);\n    fotaPricer = IFOTAPricer(_fotaPricer);\n    citizen = ICitizen(marketPlace.citizen());\n    itemToken = IGameNFT(_itemNFT);\n    fotaToken = IBEP20(0x0A4E1BdFA75292A98C15870AeF24bd94BFFe0Bd4);\n    busdToken = IBEP20(0xe9e7CEA3DedcA5984780Bafc599bD69ADd087D56);\n    usdtToken = IBEP20(0x55d398326f99059fF775485246999027B3197955);\n    itemPrice = _itemPrice;\n    pools = _pools;\n    totalSale = 10000;\n    maxQuantityPerOrder = 100;\n  }\n\n  // ADMIN FUNCTIONS\n\n  function updatePaymentType(IMarketPlace.PaymentType _type) external onlyMainAdmin {\n    paymentType = _type;\n    emit PaymentTypeChanged(_type);\n  }\n\n  function updateItemPrice(uint _itemPrice) external onlyMainAdmin {\n    itemPrice = _itemPrice;\n  }\n\n  function updatePoolAddress(address[] calldata _pools) external onlyMainAdmin {\n    require(_pools.length > 0, \"EatherSale: empty data\");\n    pools = _pools;\n  }\n\n  function updateTotalSale(uint _totalSale) external onlyMainAdmin {\n    totalSale = _totalSale;\n    emit TotalSaleUpdated(totalSale);\n  }\n\n  function updateMaxQuantityPerOrder(uint _maxQuantityPerOrder) external onlyMainAdmin {\n    maxQuantityPerOrder = _maxQuantityPerOrder;\n    emit MaxQuantityPerOrderUpdated(maxQuantityPerOrder);\n  }\n\n  function updatePauseStatus(bool _paused) external onlyMainAdmin {\n    if(_paused) {\n      _pause();\n    } else {\n      _unpause();\n    }\n  }\n\n  // PUBLIC FUNCTIONS\n\n  function buy(uint _quantity, IMarketPlace.PaymentCurrency _paymentCurrency) external whenNotPaused {\n    require(_quantity <= maxQuantityPerOrder, \"EatherSale: quantity invalid\");\n    require(totalSale >= _quantity, \"EatherSale: sold out or not enough to buy\");\n    require(citizen.isCitizen(msg.sender), \"EatherSale: register required\");\n    _validatePaymentMethod(_paymentCurrency);\n    totalSale -= _quantity;\n    uint totalAmount = _takeFund(_quantity, _paymentCurrency);\n    uint[] memory tokenIds = new uint[](_quantity);\n    for(uint i = 0; i < _quantity; i++) {\n      uint _tokenId = itemToken.mintItem(msg.sender, EATHER_GENE, EATHER_CLASS, itemPrice, i);\n      tokenIds[i] = _tokenId;\n    }\n    emit ItemBought(msg.sender, tokenIds, _paymentCurrency, totalAmount, block.timestamp);\n  }\n\n  // PRIVATE FUNCTIONS\n\n  function _validatePaymentMethod(IMarketPlace.PaymentCurrency _paymentCurrency) private view {\n    if (paymentType == IMarketPlace.PaymentType.fota) {\n      require(_paymentCurrency == IMarketPlace.PaymentCurrency.fota, \"EatherSale: wrong payment method\");\n    } else if (paymentType == IMarketPlace.PaymentType.usd) {\n      require(_paymentCurrency != IMarketPlace.PaymentCurrency.fota, \"EatherSale: wrong payment method\");\n    }\n  }\n\n  function _takeFund(uint _quantity, IMarketPlace.PaymentCurrency _paymentCurrency) private returns (uint) {\n    if (paymentType == IMarketPlace.PaymentType.fota) {\n      return _takeFundFOTA(_quantity);\n    } else if (paymentType == IMarketPlace.PaymentType.usd) {\n      return _takeFundUSD(_quantity, _paymentCurrency);\n    } else if (_paymentCurrency == IMarketPlace.PaymentCurrency.fota) {\n      return _takeFundFOTA(_quantity);\n    } else {\n      return _takeFundUSD(_quantity, _paymentCurrency);\n    }\n  }\n\n  function _takeFundUSD(uint _quantity, IMarketPlace.PaymentCurrency _paymentCurrency) private returns (uint _amount) {\n    _amount = _quantity * itemPrice;\n    IBEP20 usdToken = _paymentCurrency == IMarketPlace.PaymentCurrency.busd ? busdToken : usdtToken;\n    require(usdToken.allowance(msg.sender, address(this)) >= _amount, \"EatherSale: please approve usd token first\");\n    require(usdToken.balanceOf(msg.sender) >= _amount, \"EatherSale: insufficient balance\");\n    require(usdToken.transferFrom(msg.sender, address(this), _amount), \"EatherSale: transfer usd token failed\");\n    for(uint i = 0; i < pools.length; i++) {\n      if (i < pools.length - 1) {\n        usdToken.transfer(pools[i], _amount / pools.length);\n      } else {\n        usdToken.transfer(pools[i], usdToken.balanceOf(address(this)));\n      }\n    }\n  }\n\n  function _takeFundFOTA(uint _quantity) private returns (uint _amount) {\n    _amount = _quantity * itemPrice * decimal3 / fotaPricer.fotaPrice();\n    require(fotaToken.allowance(msg.sender, address(this)) >= _amount, \"EatherSale: please approve fota first\");\n    require(fotaToken.balanceOf(msg.sender) >= _amount, \"EatherSale: insufficient balance\");\n    require(fotaToken.transferFrom(msg.sender, address(this), _amount), \"EatherSale: transfer fota failed\");\n    for(uint i = 0; i < pools.length; i++) {\n      if (i < pools.length - 1) {\n        fotaToken.transfer(pools[i], _amount / pools.length);\n      } else {\n        fotaToken.transfer(pools[i], fotaToken.balanceOf(address(this)));\n      }\n    }\n  }\n}\n",
  "sourcePath": "/Users/binh/Documents/Development/Solidity/fota-dapp/contracts/sales/EatherSale.sol",
  "compiler": {
    "name": "solc",
    "version": "0.8.0+commit.c7dfd78e.Emscripten.clang"
  },
  "schemaVersion": "3.3.4",
  "updatedAt": "2022-01-05T07:37:06.051Z",
  "networkType": "ethereum",
  "devdoc": {
    "kind": "dev",
    "methods": {
      "paused()": {
        "details": "Returns true if the contract is paused, and false otherwise."
      }
    },
    "version": 1
  },
  "userdoc": {
    "kind": "user",
    "methods": {},
    "version": 1
  }
}