{
  "contractName": "EatherTransporter",
  "abi": [
    {
      "anonymous": false,
      "inputs": [
        {
          "indexed": true,
          "internalType": "address",
          "name": "_newOwner",
          "type": "address"
        }
      ],
      "name": "ContractAdminUpdated",
      "type": "event"
    },
    {
      "anonymous": false,
      "inputs": [
        {
          "indexed": false,
          "internalType": "bool",
          "name": "opened",
          "type": "bool"
        }
      ],
      "name": "OpenEatherUpdated",
      "type": "event"
    },
    {
      "anonymous": false,
      "inputs": [
        {
          "indexed": true,
          "internalType": "address",
          "name": "_previousOwner",
          "type": "address"
        },
        {
          "indexed": true,
          "internalType": "address",
          "name": "_newOwner",
          "type": "address"
        }
      ],
      "name": "OwnershipTransferred",
      "type": "event"
    },
    {
      "inputs": [],
      "name": "_isContractAdmin",
      "outputs": [
        {
          "internalType": "bool",
          "name": "",
          "type": "bool"
        }
      ],
      "stateMutability": "view",
      "type": "function",
      "constant": true
    },
    {
      "inputs": [],
      "name": "_isMainAdmin",
      "outputs": [
        {
          "internalType": "bool",
          "name": "",
          "type": "bool"
        }
      ],
      "stateMutability": "view",
      "type": "function",
      "constant": true
    },
    {
      "inputs": [],
      "name": "contractAdmin",
      "outputs": [
        {
          "internalType": "address",
          "name": "",
          "type": "address"
        }
      ],
      "stateMutability": "view",
      "type": "function",
      "constant": true
    },
    {
      "inputs": [],
      "name": "itemNFT",
      "outputs": [
        {
          "internalType": "contract IGameNFT",
          "name": "",
          "type": "address"
        }
      ],
      "stateMutability": "view",
      "type": "function",
      "constant": true
    },
    {
      "inputs": [],
      "name": "mainAdmin",
      "outputs": [
        {
          "internalType": "address",
          "name": "",
          "type": "address"
        }
      ],
      "stateMutability": "view",
      "type": "function",
      "constant": true
    },
    {
      "inputs": [],
      "name": "openEather",
      "outputs": [
        {
          "internalType": "bool",
          "name": "",
          "type": "bool"
        }
      ],
      "stateMutability": "view",
      "type": "function",
      "constant": true
    },
    {
      "inputs": [
        {
          "internalType": "address",
          "name": "_newOwner",
          "type": "address"
        }
      ],
      "name": "transferOwnership",
      "outputs": [],
      "stateMutability": "nonpayable",
      "type": "function"
    },
    {
      "inputs": [
        {
          "internalType": "address",
          "name": "_newAdmin",
          "type": "address"
        }
      ],
      "name": "updateContractAdmin",
      "outputs": [],
      "stateMutability": "nonpayable",
      "type": "function"
    },
    {
      "inputs": [
        {
          "internalType": "address",
          "name": "_mainAdmin",
          "type": "address"
        },
        {
          "internalType": "address",
          "name": "_itemNFT",
          "type": "address"
        }
      ],
      "name": "initialize",
      "outputs": [],
      "stateMutability": "nonpayable",
      "type": "function"
    },
    {
      "inputs": [
        {
          "internalType": "address",
          "name": "_mainAdmin",
          "type": "address"
        }
      ],
      "name": "initialize",
      "outputs": [],
      "stateMutability": "nonpayable",
      "type": "function"
    },
    {
      "inputs": [
        {
          "internalType": "address",
          "name": "_to",
          "type": "address"
        },
        {
          "internalType": "uint256",
          "name": "_tokenId",
          "type": "uint256"
        }
      ],
      "name": "transferEather",
      "outputs": [],
      "stateMutability": "nonpayable",
      "type": "function"
    },
    {
      "inputs": [
        {
          "internalType": "bool",
          "name": "_opened",
          "type": "bool"
        }
      ],
      "name": "updateOpenEather",
      "outputs": [],
      "stateMutability": "nonpayable",
      "type": "function"
    }
  ],
  "bytecode": "0x608060405234801561001057600080fd5b50610a60806100206000396000f3fe608060405234801561001057600080fd5b50600436106100d45760003560e01c80638a2970a511610081578063e7d0c49c1161005b578063e7d0c49c14610172578063f2fde38b14610185578063fb6b04ba14610198576100d4565b80638a2970a514610144578063b7d6caec14610157578063c4d66de81461015f576100d4565b806357d1f910116100b257806357d1f9101461011f57806377955245146101345780638868ff2b1461013c576100d4565b806302e65b8a146100d957806311541ce0146100ee578063485cc9551461010c575b600080fd5b6100ec6100e736600461076e565b6101a0565b005b6100f6610237565b60405161010391906108c5565b60405180910390f35b6100ec61011a3660046107ad565b61024e565b6101276102f6565b604051610103919061088d565b610127610305565b6100f6610314565b6100ec610152366004610810565b610324565b6100f66103b5565b6100ec61016d36600461076e565b6103c6565b6100ec6101803660046107e5565b610491565b6100ec61019336600461076e565b6106c0565b610127610759565b6101a8610237565b6101cd5760405162461bcd60e51b81526004016101c490610964565b60405180910390fd5b6001600160a01b0381166101e057600080fd5b6001805473ffffffffffffffffffffffffffffffffffffffff19166001600160a01b0383169081179091556040517fe3f4a4b5b74aa6830627cb87c50cf7d4ed56e9b246729179ba634bbdc873177a90600090a250565b6000546201000090046001600160a01b0316331490565b600054610100900460ff1680610267575060005460ff16155b6102835760405162461bcd60e51b81526004016101c490610907565b600054610100900460ff161580156102ae576000805460ff1961ff0019909116610100171660011790555b6102b7836103c6565b6002805473ffffffffffffffffffffffffffffffffffffffff19166001600160a01b03841617905580156102f1576000805461ff00191690555b505050565b6002546001600160a01b031681565b6001546001600160a01b031681565b600154600160a01b900460ff1681565b61032c610237565b6103485760405162461bcd60e51b81526004016101c490610964565b600180547fffffffffffffffffffffff00ffffffffffffffffffffffffffffffffffffffff16600160a01b831515021790556040517fa9d204263c6fffa09b7e30cfaefbf8f62cdcc2ad81a1cc98d36885e670318240906103aa9083906108c5565b60405180910390a150565b6001546001600160a01b0316331490565b600054610100900460ff16806103df575060005460ff16155b6103fb5760405162461bcd60e51b81526004016101c490610907565b600054610100900460ff16158015610426576000805460ff1961ff0019909116610100171660011790555b6000805475ffffffffffffffffffffffffffffffffffffffff00001916620100006001600160a01b038516908102919091179091556001805473ffffffffffffffffffffffffffffffffffffffff19169091179055801561048d576000805461ff00191690555b5050565b600154600160a01b900460ff166104ba5760405162461bcd60e51b81526004016101c4906108d0565b6002546040517f6352211e00000000000000000000000000000000000000000000000000000000815233916001600160a01b031690636352211e90610503908590600401610a09565b60206040518083038186803b15801561051b57600080fd5b505afa15801561052f573d6000803e3d6000fd5b505050506040513d601f19601f820116820180604052508101906105539190610791565b6001600160a01b0316146105795760405162461bcd60e51b81526004016101c4906109d2565b6002546040517f3129e7730000000000000000000000000000000000000000000000000000000081526000916001600160a01b031690633129e773906105c3908590600401610a09565b60a06040518083038186803b1580156105db57600080fd5b505afa1580156105ef573d6000803e3d6000fd5b505050506040513d601f19601f820116820180604052508101906106139190610830565b5050505060ff1690508060001461063c5760405162461bcd60e51b81526004016101c49061099b565b6002546040517f23b872dd0000000000000000000000000000000000000000000000000000000081526001600160a01b03909116906323b872dd90610689903390879087906004016108a1565b600060405180830381600087803b1580156106a357600080fd5b505af11580156106b7573d6000803e3d6000fd5b50505050505050565b6106c8610237565b6106e45760405162461bcd60e51b81526004016101c490610964565b6001600160a01b0381166106f757600080fd5b6000805475ffffffffffffffffffffffffffffffffffffffff00001916620100006001600160a01b038416908102919091178255604051909133917f8be0079c531659141344cd1fd0a4f28419497f9722a3daafe3b4186f6b6457e09190a350565b6000546201000090046001600160a01b031681565b60006020828403121561077f578081fd5b813561078a81610a12565b9392505050565b6000602082840312156107a2578081fd5b815161078a81610a12565b600080604083850312156107bf578081fd5b82356107ca81610a12565b915060208301356107da81610a12565b809150509250929050565b600080604083850312156107f7578182fd5b823561080281610a12565b946020939093013593505050565b600060208284031215610821578081fd5b8135801515811461078a578182fd5b600080600080600060a08688031215610847578081fd5b855160ff81168114610857578182fd5b602087015190955061ffff8116811461086e578182fd5b6040870151606088015160809098015196999198509695945092505050565b6001600160a01b0391909116815260200190565b6001600160a01b039384168152919092166020820152604081019190915260600190565b901515815260200190565b60208082526015908201527f796f752063616e277420646f2074686973206e6f770000000000000000000000604082015260600190565b6020808252602e908201527f496e697469616c697a61626c653a20636f6e747261637420697320616c72656160408201527f647920696e697469616c697a6564000000000000000000000000000000000000606082015260800190565b6020808252600d908201527f6f6e6c794d61696e41646d696e00000000000000000000000000000000000000604082015260600190565b6020808252600c908201527f696e76616c69642067656e650000000000000000000000000000000000000000604082015260600190565b60208082526009908201527f6e6f74206f776e65720000000000000000000000000000000000000000000000604082015260600190565b90815260200190565b6001600160a01b0381168114610a2757600080fd5b5056fea2646970667358221220d109114f949f05af6d47f0e5ab2d7094990cd6a549c0ebaae7358dedd1df786064736f6c63430008000033",
  "immutableReferences": {},
  "source": "// SPDX-License-Identifier: GPL\n\npragma solidity 0.8.0;\n\nimport \"../libs/fota/Auth.sol\";\nimport \"../interfaces/IMarketPlace.sol\";\nimport \"../interfaces/IGameNFT.sol\";\n\ncontract EatherTransporter is Auth {\n  bool public openEather;\n  IGameNFT public itemNFT;\n\n  event OpenEatherUpdated(bool opened);\n\n  function initialize(\n    address _mainAdmin,\n    address _itemNFT\n  ) public initializer {\n    Auth.initialize(_mainAdmin);\n    itemNFT = IGameNFT(_itemNFT);\n  }\n\n  function transferEather(address _to, uint _tokenId) external {\n    require(openEather, \"you can't do this now\");\n    require(itemNFT.ownerOf(_tokenId) == msg.sender, \"not owner\");\n    (uint gene,,,,) = itemNFT.getItem(_tokenId);\n    require(gene == 0, \"invalid gene\");\n    itemNFT.transferFrom(msg.sender, _to, _tokenId);\n  }\n\n  function updateOpenEather(bool _opened) external onlyMainAdmin {\n    openEather = _opened;\n    emit OpenEatherUpdated(_opened);\n  }\n}\n",
  "sourcePath": "/Users/binh/Documents/Development/Solidity/fota-dapp/contracts/utils/EatherTransporter.sol",
  "compiler": {
    "name": "solc",
    "version": "0.8.0+commit.c7dfd78e.Emscripten.clang"
  },
  "schemaVersion": "3.3.4",
  "updatedAt": "2022-01-05T07:37:06.416Z",
  "networkType": "ethereum",
  "devdoc": {
    "kind": "dev",
    "methods": {},
    "version": 1
  },
  "userdoc": {
    "kind": "user",
    "methods": {},
    "version": 1
  }
}