{
  "contractName": "EnergyManager",
  "abi": [
    {
      "anonymous": false,
      "inputs": [
        {
          "indexed": true,
          "internalType": "address",
          "name": "_newOwner",
          "type": "address"
        }
      ],
      "name": "ContractAdminUpdated",
      "type": "event"
    },
    {
      "anonymous": false,
      "inputs": [
        {
          "indexed": true,
          "internalType": "address",
          "name": "user",
          "type": "address"
        },
        {
          "indexed": false,
          "internalType": "uint256",
          "name": "remainingEnergy",
          "type": "uint256"
        },
        {
          "indexed": false,
          "internalType": "bool",
          "name": "firstConsumeInDay",
          "type": "bool"
        },
        {
          "indexed": false,
          "internalType": "address",
          "name": "gameAddress",
          "type": "address"
        }
      ],
      "name": "EnergyUpdated",
      "type": "event"
    },
    {
      "anonymous": false,
      "inputs": [
        {
          "indexed": false,
          "internalType": "uint256",
          "name": "amount",
          "type": "uint256"
        },
        {
          "indexed": false,
          "internalType": "uint256",
          "name": "timestamp",
          "type": "uint256"
        }
      ],
      "name": "MaxEnergyUpdated",
      "type": "event"
    },
    {
      "anonymous": false,
      "inputs": [
        {
          "indexed": true,
          "internalType": "address",
          "name": "_previousOwner",
          "type": "address"
        },
        {
          "indexed": true,
          "internalType": "address",
          "name": "_newOwner",
          "type": "address"
        }
      ],
      "name": "OwnershipTransferred",
      "type": "event"
    },
    {
      "inputs": [],
      "name": "_isContractAdmin",
      "outputs": [
        {
          "internalType": "bool",
          "name": "",
          "type": "bool"
        }
      ],
      "stateMutability": "view",
      "type": "function"
    },
    {
      "inputs": [],
      "name": "_isMainAdmin",
      "outputs": [
        {
          "internalType": "bool",
          "name": "",
          "type": "bool"
        }
      ],
      "stateMutability": "view",
      "type": "function"
    },
    {
      "inputs": [],
      "name": "contractAdmin",
      "outputs": [
        {
          "internalType": "address",
          "name": "",
          "type": "address"
        }
      ],
      "stateMutability": "view",
      "type": "function"
    },
    {
      "inputs": [
        {
          "internalType": "address",
          "name": "",
          "type": "address"
        }
      ],
      "name": "energies",
      "outputs": [
        {
          "internalType": "uint256",
          "name": "amount",
          "type": "uint256"
        },
        {
          "internalType": "uint256",
          "name": "from",
          "type": "uint256"
        },
        {
          "internalType": "uint256",
          "name": "to",
          "type": "uint256"
        }
      ],
      "stateMutability": "view",
      "type": "function"
    },
    {
      "inputs": [],
      "name": "mainAdmin",
      "outputs": [
        {
          "internalType": "address",
          "name": "",
          "type": "address"
        }
      ],
      "stateMutability": "view",
      "type": "function"
    },
    {
      "inputs": [],
      "name": "maxEnergy",
      "outputs": [
        {
          "internalType": "uint256",
          "name": "",
          "type": "uint256"
        }
      ],
      "stateMutability": "view",
      "type": "function"
    },
    {
      "inputs": [
        {
          "internalType": "address",
          "name": "_newOwner",
          "type": "address"
        }
      ],
      "name": "transferOwnership",
      "outputs": [],
      "stateMutability": "nonpayable",
      "type": "function"
    },
    {
      "inputs": [
        {
          "internalType": "address",
          "name": "_newAdmin",
          "type": "address"
        }
      ],
      "name": "updateContractAdmin",
      "outputs": [],
      "stateMutability": "nonpayable",
      "type": "function"
    },
    {
      "inputs": [
        {
          "internalType": "address",
          "name": "_contract",
          "type": "address"
        },
        {
          "internalType": "bool",
          "name": "_status",
          "type": "bool"
        }
      ],
      "name": "updateGameContract",
      "outputs": [],
      "stateMutability": "nonpayable",
      "type": "function"
    },
    {
      "inputs": [
        {
          "internalType": "address",
          "name": "_mainAdmin",
          "type": "address"
        }
      ],
      "name": "initialize",
      "outputs": [],
      "stateMutability": "nonpayable",
      "type": "function"
    },
    {
      "inputs": [
        {
          "internalType": "address",
          "name": "_user",
          "type": "address"
        },
        {
          "internalType": "uint256",
          "name": "_amount",
          "type": "uint256"
        },
        {
          "internalType": "uint256",
          "name": "_consumeAmount",
          "type": "uint256"
        }
      ],
      "name": "updateEnergy",
      "outputs": [],
      "stateMutability": "nonpayable",
      "type": "function"
    },
    {
      "inputs": [
        {
          "internalType": "uint256",
          "name": "_amount",
          "type": "uint256"
        }
      ],
      "name": "updateMaxEnergy",
      "outputs": [],
      "stateMutability": "nonpayable",
      "type": "function"
    }
  ],
  "bytecode": "0x608060405234801561001057600080fd5b50610ad3806100206000396000f3fe608060405234801561001057600080fd5b50600436106100d45760003560e01c8063ba0380b211610081578063e021b6931161005b578063e021b69314610199578063f2fde38b146101ac578063fb6b04ba146101bf576100d4565b8063ba0380b214610151578063c4d66de814610173578063d0ae37c714610186576100d4565b806368de1c47116100b257806368de1c47146101215780637795524514610134578063b7d6caec14610149576100d4565b806302e65b8a146100d957806311541ce0146100ee5780632cde84a91461010c575b600080fd5b6100ec6100e736600461075b565b6101c7565b005b6100f661025e565b6040516101039190610814565b60405180910390f35b610114610275565b60405161010391906109ec565b6100ec61012f3660046107b6565b61027b565b61013c6103c9565b6040516101039190610800565b6100f66103d8565b61016461015f36600461075b565b6103e9565b60405161010393929190610a22565b6100ec61018136600461075b565b61040a565b6100ec6101943660046107e8565b61048e565b6100ec6101a736600461077c565b6104f4565b6100ec6101ba36600461075b565b610569565b61013c610602565b6101cf61025e565b6101f45760405162461bcd60e51b81526004016101eb90610921565b60405180910390fd5b6001600160a01b03811661020757600080fd5b6001805473ffffffffffffffffffffffffffffffffffffffff19166001600160a01b0383169081179091556040517fe3f4a4b5b74aa6830627cb87c50cf7d4ed56e9b246729179ba634bbdc873177a90600090a250565b6000546201000090046001600160a01b0316331490565b60365481565b610283610617565b80610291575061029161025e565b6102ad5760405162461bcd60e51b81526004016101eb9061081f565b6036548211156102cf5760405162461bcd60e51b81526004016101eb9061088d565b33600090815260356020526040902060028101544211801561031e576102f58385610a50565b82556102ff610647565b60018301819055610314906201518090610a38565b6002830155610379565b8154841461033e5760405162461bcd60e51b81526004016101eb90610856565b815483111561035f5760405162461bcd60e51b81526004016101eb9061098f565b828260000160008282546103739190610a50565b90915550505b846001600160a01b03167ff9554ca0edea53a0c7adf135b8cb44321e8b6b4ff62099bee1cb32378b69379a836000015483336040516103ba939291906109f5565b60405180910390a25050505050565b6001546001600160a01b031681565b6001546001600160a01b0316331490565b60356020526000908152604090208054600182015460029092015490919083565b600054610100900460ff1680610423575060005460ff16155b61043f5760405162461bcd60e51b81526004016101eb906108c4565b600054610100900460ff1615801561046a576000805460ff1961ff0019909116610100171660011790555b61047382610665565b601e603655801561048a576000805461ff00191690555b5050565b61049661025e565b6104b25760405162461bcd60e51b81526004016101eb90610921565b60368190556040517fad517e465ea65d51ea388d3f1d1ae5db596e3d85e384ed63a2fa1cf6c12acce3906104e99083904290610a14565b60405180910390a150565b6104fc61025e565b6105185760405162461bcd60e51b81526004016101eb90610921565b6001600160a01b03821661053e5760405162461bcd60e51b81526004016101eb90610958565b6001600160a01b03919091166000908152603460205260409020805460ff1916911515919091179055565b61057161025e565b61058d5760405162461bcd60e51b81526004016101eb90610921565b6001600160a01b0381166105a057600080fd5b6000805475ffffffffffffffffffffffffffffffffffffffff00001916620100006001600160a01b038416908102919091178255604051909133917f8be0079c531659141344cd1fd0a4f28419497f9722a3daafe3b4186f6b6457e09190a350565b6000546201000090046001600160a01b031681565b600060346000610625610671565b6001600160a01b0316815260208101919091526040016000205460ff16905090565b60006106566201518042610a67565b6106609042610a50565b905090565b61066e81610675565b50565b3390565b600054610100900460ff168061068e575060005460ff16155b6106aa5760405162461bcd60e51b81526004016101eb906108c4565b600054610100900460ff161580156106d5576000805460ff1961ff0019909116610100171660011790555b6000805475ffffffffffffffffffffffffffffffffffffffff00001916620100006001600160a01b038516908102919091179091556001805473ffffffffffffffffffffffffffffffffffffffff19169091179055801561048a576000805461ff00191690555050565b80356001600160a01b038116811461075657600080fd5b919050565b60006020828403121561076c578081fd5b6107758261073f565b9392505050565b6000806040838503121561078e578081fd5b6107978361073f565b9150602083013580151581146107ab578182fd5b809150509250929050565b6000806000606084860312156107ca578081fd5b6107d38461073f565b95602085013595506040909401359392505050565b6000602082840312156107f9578081fd5b5035919050565b6001600160a01b0391909116815260200190565b901515815260200190565b6020808252601b908201527f4e4654417574683a204f6e6c792067616d6520636f6e74726163740000000000604082015260600190565b6020808252601d908201527f456e657267794d616e616765723a20456e6572677920696e76616c6964000000604082015260600190565b6020808252601d908201527f456e657267794d616e616765723a20656e6572677920696e76616c6964000000604082015260600190565b6020808252602e908201527f496e697469616c697a61626c653a20636f6e747261637420697320616c72656160408201527f647920696e697469616c697a6564000000000000000000000000000000000000606082015260800190565b6020808252600d908201527f6f6e6c794d61696e41646d696e00000000000000000000000000000000000000604082015260600190565b60208082526018908201527f4e4654417574683a204164647265737320696e76616c69640000000000000000604082015260600190565b60208082526025908201527f456e657267794d616e616765723a20636f6e73756d6520616d6f756e7420696e60408201527f76616c6964000000000000000000000000000000000000000000000000000000606082015260800190565b90815260200190565b92835290151560208301526001600160a01b0316604082015260600190565b918252602082015260400190565b9283526020830191909152604082015260600190565b60008219821115610a4b57610a4b610a87565b500190565b600082821015610a6257610a62610a87565b500390565b600082610a8257634e487b7160e01b81526012600452602481fd5b500690565b634e487b7160e01b600052601160045260246000fdfea264697066735822122061f681ab2ae0a9aa78dfd20f8b21ce06f937e4816828bccd1a451f377e899f1864736f6c63430008000033",
  "immutableReferences": {},
  "source": "// SPDX-License-Identifier: GPL\n\npragma solidity 0.8.0;\n\nimport \"../libs/fota/Auth.sol\";\nimport \"@openzeppelin/contracts-upgradeable/utils/ContextUpgradeable.sol\";\n\nabstract contract EnergyAuth is Auth, ContextUpgradeable {\n  mapping(address => bool) gameContracts;\n\n  function initialize(address _mainAdmin) virtual override public {\n    Auth.initialize(_mainAdmin);\n  }\n\n  modifier onlyGameContract() {\n    require(_isGameContracts() || _isMainAdmin(), \"NFTAuth: Only game contract\");\n    _;\n  }\n\n  function _isGameContracts() internal view returns (bool) {\n    return gameContracts[_msgSender()];\n  }\n\n  function updateGameContract(address _contract, bool _status) onlyMainAdmin external {\n    require(_contract != address(0), \"NFTAuth: Address invalid\");\n    gameContracts[_contract] = _status;\n  }\n}\n\ncontract EnergyManager is EnergyAuth {\n  struct Energy {\n    uint amount;\n    uint from;\n    uint to;\n  }\n  mapping (address => Energy) public energies;\n  uint public maxEnergy;\n  uint constant secondInADay = 86400; // 24 * 60 * 60\n\n  event MaxEnergyUpdated(uint amount, uint timestamp);\n  event EnergyUpdated(\n    address indexed user,\n    uint remainingEnergy,\n    bool firstConsumeInDay,\n    address gameAddress\n  );\n\n  function initialize(address _mainAdmin) override public initializer {\n    super.initialize(_mainAdmin);\n    maxEnergy = 30;\n  }\n\n  function updateEnergy(address _user, uint _amount, uint _consumeAmount) external onlyGameContract {\n    require(_amount <= maxEnergy, \"EnergyManager: energy invalid\");\n    Energy storage energy = energies[msg.sender];\n    bool firstConsumeInDay = block.timestamp > energy.to;\n    if (firstConsumeInDay) {\n      energy.amount = _amount - _consumeAmount;\n      energy.from = _getStartOfDay();\n      energy.to = energy.from + secondInADay;\n    } else {\n      require(_amount == energy.amount, \"EnergyManager: Energy invalid\");\n      require(energy.amount >= _consumeAmount, \"EnergyManager: consume amount invalid\");\n      energy.amount -= _consumeAmount;\n    }\n    emit EnergyUpdated(_user, energy.amount, firstConsumeInDay, msg.sender);\n  }\n\n  // PRIVATE FUNCTIONS\n\n  function _getStartOfDay() private view returns (uint) {\n    return block.timestamp - block.timestamp % secondInADay;\n  }\n\n  // ADMIN FUNCTIONS\n\n  function updateMaxEnergy(uint _amount) external onlyMainAdmin {\n    maxEnergy = _amount;\n    emit MaxEnergyUpdated(maxEnergy, block.timestamp);\n  }\n}\n",
  "sourcePath": "/Users/binh/Documents/Development/Solidity/fota-dapp/contracts/utils/EnergyManager.sol",
  "compiler": {
    "name": "solc",
    "version": "0.8.0+commit.c7dfd78e.Emscripten.clang"
  },
  "schemaVersion": "3.3.4",
  "updatedAt": "2022-01-05T07:37:06.424Z",
  "networkType": "ethereum",
  "devdoc": {
    "kind": "dev",
    "methods": {},
    "version": 1
  },
  "userdoc": {
    "kind": "user",
    "methods": {},
    "version": 1
  }
}