{
  "contractName": "FarmEarth",
  "abi": [
    {
      "anonymous": false,
      "inputs": [
        {
          "indexed": true,
          "internalType": "address",
          "name": "farmer",
          "type": "address"
        },
        {
          "indexed": false,
          "internalType": "uint256",
          "name": "day",
          "type": "uint256"
        },
        {
          "indexed": false,
          "internalType": "uint256",
          "name": "amount",
          "type": "uint256"
        },
        {
          "indexed": false,
          "internalType": "uint256",
          "name": "timestamp",
          "type": "uint256"
        }
      ],
      "name": "Claimed",
      "type": "event"
    },
    {
      "anonymous": false,
      "inputs": [
        {
          "indexed": true,
          "internalType": "address",
          "name": "_newOwner",
          "type": "address"
        }
      ],
      "name": "ContractAdminUpdated",
      "type": "event"
    },
    {
      "anonymous": false,
      "inputs": [
        {
          "indexed": true,
          "internalType": "address",
          "name": "farmer",
          "type": "address"
        },
        {
          "indexed": false,
          "internalType": "uint256",
          "name": "amount",
          "type": "uint256"
        },
        {
          "indexed": false,
          "internalType": "uint256",
          "name": "point",
          "type": "uint256"
        }
      ],
      "name": "FOTADeposited",
      "type": "event"
    },
    {
      "anonymous": false,
      "inputs": [
        {
          "indexed": false,
          "internalType": "uint256",
          "name": "amount",
          "type": "uint256"
        },
        {
          "indexed": false,
          "internalType": "uint256",
          "name": "timestamp",
          "type": "uint256"
        }
      ],
      "name": "FOTAFunded",
      "type": "event"
    },
    {
      "anonymous": false,
      "inputs": [
        {
          "indexed": false,
          "internalType": "uint256",
          "name": "rate",
          "type": "uint256"
        }
      ],
      "name": "LPBonusRateUpdated",
      "type": "event"
    },
    {
      "anonymous": false,
      "inputs": [
        {
          "indexed": true,
          "internalType": "address",
          "name": "farmer",
          "type": "address"
        },
        {
          "indexed": false,
          "internalType": "uint256",
          "name": "amount",
          "type": "uint256"
        },
        {
          "indexed": false,
          "internalType": "uint256",
          "name": "point",
          "type": "uint256"
        }
      ],
      "name": "LPDeposited",
      "type": "event"
    },
    {
      "anonymous": false,
      "inputs": [
        {
          "indexed": true,
          "internalType": "address",
          "name": "farmer",
          "type": "address"
        },
        {
          "indexed": false,
          "internalType": "uint256",
          "name": "day",
          "type": "uint256"
        },
        {
          "indexed": false,
          "internalType": "uint256",
          "name": "amount",
          "type": "uint256"
        }
      ],
      "name": "Missed",
      "type": "event"
    },
    {
      "anonymous": false,
      "inputs": [
        {
          "indexed": true,
          "internalType": "address",
          "name": "_previousOwner",
          "type": "address"
        },
        {
          "indexed": true,
          "internalType": "address",
          "name": "_newOwner",
          "type": "address"
        }
      ],
      "name": "OwnershipTransferred",
      "type": "event"
    },
    {
      "anonymous": false,
      "inputs": [
        {
          "indexed": false,
          "internalType": "uint256",
          "name": "rewardingDays",
          "type": "uint256"
        }
      ],
      "name": "RewardingDaysUpdated",
      "type": "event"
    },
    {
      "anonymous": false,
      "inputs": [
        {
          "indexed": true,
          "internalType": "address",
          "name": "farmer",
          "type": "address"
        },
        {
          "indexed": false,
          "internalType": "uint256",
          "name": "fotaDeposited",
          "type": "uint256"
        },
        {
          "indexed": false,
          "internalType": "uint256",
          "name": "lpDeposited",
          "type": "uint256"
        },
        {
          "indexed": false,
          "internalType": "uint256",
          "name": "timestamp",
          "type": "uint256"
        }
      ],
      "name": "Withdrew",
      "type": "event"
    },
    {
      "inputs": [],
      "name": "_isContractAdmin",
      "outputs": [
        {
          "internalType": "bool",
          "name": "",
          "type": "bool"
        }
      ],
      "stateMutability": "view",
      "type": "function"
    },
    {
      "inputs": [],
      "name": "_isMainAdmin",
      "outputs": [
        {
          "internalType": "bool",
          "name": "",
          "type": "bool"
        }
      ],
      "stateMutability": "view",
      "type": "function"
    },
    {
      "inputs": [
        {
          "internalType": "address",
          "name": "",
          "type": "address"
        },
        {
          "internalType": "uint256",
          "name": "",
          "type": "uint256"
        }
      ],
      "name": "checkin",
      "outputs": [
        {
          "internalType": "bool",
          "name": "",
          "type": "bool"
        }
      ],
      "stateMutability": "view",
      "type": "function"
    },
    {
      "inputs": [],
      "name": "contractAdmin",
      "outputs": [
        {
          "internalType": "address",
          "name": "",
          "type": "address"
        }
      ],
      "stateMutability": "view",
      "type": "function"
    },
    {
      "inputs": [
        {
          "internalType": "address",
          "name": "",
          "type": "address"
        }
      ],
      "name": "farmers",
      "outputs": [
        {
          "internalType": "uint256",
          "name": "fotaDeposited",
          "type": "uint256"
        },
        {
          "internalType": "uint256",
          "name": "lpDeposited",
          "type": "uint256"
        },
        {
          "internalType": "uint256",
          "name": "point",
          "type": "uint256"
        },
        {
          "internalType": "uint256",
          "name": "lastDateClaimed",
          "type": "uint256"
        }
      ],
      "stateMutability": "view",
      "type": "function"
    },
    {
      "inputs": [],
      "name": "fotaToken",
      "outputs": [
        {
          "internalType": "contract IFOTAToken",
          "name": "",
          "type": "address"
        }
      ],
      "stateMutability": "view",
      "type": "function"
    },
    {
      "inputs": [],
      "name": "lpBonus",
      "outputs": [
        {
          "internalType": "uint256",
          "name": "",
          "type": "uint256"
        }
      ],
      "stateMutability": "view",
      "type": "function"
    },
    {
      "inputs": [],
      "name": "lpToken",
      "outputs": [
        {
          "internalType": "contract ILPToken",
          "name": "",
          "type": "address"
        }
      ],
      "stateMutability": "view",
      "type": "function"
    },
    {
      "inputs": [],
      "name": "mainAdmin",
      "outputs": [
        {
          "internalType": "address",
          "name": "",
          "type": "address"
        }
      ],
      "stateMutability": "view",
      "type": "function"
    },
    {
      "inputs": [],
      "name": "rewardingDays",
      "outputs": [
        {
          "internalType": "uint256",
          "name": "",
          "type": "uint256"
        }
      ],
      "stateMutability": "view",
      "type": "function"
    },
    {
      "inputs": [],
      "name": "startTime",
      "outputs": [
        {
          "internalType": "uint256",
          "name": "",
          "type": "uint256"
        }
      ],
      "stateMutability": "view",
      "type": "function"
    },
    {
      "inputs": [],
      "name": "totalEarned",
      "outputs": [
        {
          "internalType": "uint256",
          "name": "",
          "type": "uint256"
        }
      ],
      "stateMutability": "view",
      "type": "function"
    },
    {
      "inputs": [],
      "name": "totalFotaDeposited",
      "outputs": [
        {
          "internalType": "uint256",
          "name": "",
          "type": "uint256"
        }
      ],
      "stateMutability": "view",
      "type": "function"
    },
    {
      "inputs": [],
      "name": "totalLPDeposited",
      "outputs": [
        {
          "internalType": "uint256",
          "name": "",
          "type": "uint256"
        }
      ],
      "stateMutability": "view",
      "type": "function"
    },
    {
      "inputs": [],
      "name": "totalPoint",
      "outputs": [
        {
          "internalType": "uint256",
          "name": "",
          "type": "uint256"
        }
      ],
      "stateMutability": "view",
      "type": "function"
    },
    {
      "inputs": [],
      "name": "totalRewarded",
      "outputs": [
        {
          "internalType": "uint256",
          "name": "",
          "type": "uint256"
        }
      ],
      "stateMutability": "view",
      "type": "function"
    },
    {
      "inputs": [
        {
          "internalType": "address",
          "name": "_newOwner",
          "type": "address"
        }
      ],
      "name": "transferOwnership",
      "outputs": [],
      "stateMutability": "nonpayable",
      "type": "function"
    },
    {
      "inputs": [
        {
          "internalType": "address",
          "name": "_newAdmin",
          "type": "address"
        }
      ],
      "name": "updateContractAdmin",
      "outputs": [],
      "stateMutability": "nonpayable",
      "type": "function"
    },
    {
      "inputs": [
        {
          "internalType": "address",
          "name": "_mainAdmin",
          "type": "address"
        }
      ],
      "name": "initialize",
      "outputs": [],
      "stateMutability": "nonpayable",
      "type": "function"
    },
    {
      "inputs": [
        {
          "internalType": "uint256",
          "name": "_amount",
          "type": "uint256"
        }
      ],
      "name": "depositFOTA",
      "outputs": [],
      "stateMutability": "nonpayable",
      "type": "function"
    },
    {
      "inputs": [
        {
          "internalType": "uint256",
          "name": "_amount",
          "type": "uint256"
        }
      ],
      "name": "depositLP",
      "outputs": [],
      "stateMutability": "nonpayable",
      "type": "function"
    },
    {
      "inputs": [],
      "name": "claim",
      "outputs": [],
      "stateMutability": "nonpayable",
      "type": "function"
    },
    {
      "inputs": [],
      "name": "withdraw",
      "outputs": [],
      "stateMutability": "nonpayable",
      "type": "function"
    },
    {
      "inputs": [
        {
          "internalType": "uint256",
          "name": "_amount",
          "type": "uint256"
        }
      ],
      "name": "fundFOTA",
      "outputs": [],
      "stateMutability": "nonpayable",
      "type": "function"
    },
    {
      "inputs": [],
      "name": "getDaysPassed",
      "outputs": [
        {
          "internalType": "uint256",
          "name": "",
          "type": "uint256"
        }
      ],
      "stateMutability": "view",
      "type": "function"
    },
    {
      "inputs": [
        {
          "internalType": "uint256",
          "name": "_startTime",
          "type": "uint256"
        }
      ],
      "name": "start",
      "outputs": [],
      "stateMutability": "nonpayable",
      "type": "function"
    },
    {
      "inputs": [
        {
          "internalType": "uint256",
          "name": "_days",
          "type": "uint256"
        }
      ],
      "name": "updateRewardingDays",
      "outputs": [],
      "stateMutability": "nonpayable",
      "type": "function"
    },
    {
      "inputs": [
        {
          "internalType": "uint256",
          "name": "_rate",
          "type": "uint256"
        }
      ],
      "name": "updateLPBonusRate",
      "outputs": [],
      "stateMutability": "nonpayable",
      "type": "function"
    },
    {
      "inputs": [
        {
          "internalType": "address",
          "name": "_fota",
          "type": "address"
        },
        {
          "internalType": "address",
          "name": "_lp",
          "type": "address"
        }
      ],
      "name": "setContracts",
      "outputs": [],
      "stateMutability": "nonpayable",
      "type": "function"
    }
  ],
  "bytecode": "0x608060405234801561001057600080fd5b506119f8806100206000396000f3fe608060405234801561001057600080fd5b50600436106101cf5760003560e01c80637b0e79e411610104578063d8952a49116100a2578063f2fde38b11610071578063f2fde38b14610357578063fb6b04ba1461036a578063fd94edc714610372578063ff4f74581461037a576101cf565b8063d8952a4914610316578063dbc4feb614610329578063ea102eda14610331578063eb37acfc14610344576101cf565b8063aed29d07116100de578063aed29d07146102eb578063b74fe99c146102f3578063b7d6caec146102fb578063c4d66de814610303576101cf565b80637b0e79e4146102b257806395805dad146102c5578063a103f4e1146102d8576101cf565b80635fcbd285116101715780636e8313a21161014b5780636e8313a21461027c57806376ee9c1f1461028f57806377955245146102a257806378e97925146102aa576101cf565b80635fcbd28514610264578063621f9c0a1461026c5780636dfa8d9914610274576101cf565b80633ccfd60b116101ad5780633ccfd60b1461021c578063401b21681461022457806348d002f2146102475780634e71d92d1461025c576101cf565b806302e65b8a146101d457806303da3582146101e957806311541ce014610207575b600080fd5b6101e76101e2366004611481565b610382565b005b6101f1610419565b6040516101fe91906118db565b60405180910390f35b61020f61043f565b6040516101fe91906115db565b6101e7610456565b610237610232366004611481565b610638565b6040516101fe9493929190611908565b61024f610661565b6040516101fe9190611570565b6101e7610670565b61024f6107c3565b6101f16107d2565b6101f16107d8565b6101e761028a36600461151d565b6107de565b6101e761029d36600461151d565b610862565b61024f6108db565b6101f16108ea565b61020f6102c03660046114d4565b6108f0565b6101e76102d336600461151d565b610910565b6101e76102e636600461151d565b610984565b6101f1610a50565b6101f1610a56565b61020f610a5c565b6101e7610311366004611481565b610a6d565b6101e76103243660046114a2565b610b3f565b6101f1610b9e565b6101e761033f36600461151d565b610ba4565b6101e761035236600461151d565b610be5565b6101e7610365366004611481565b610cc5565b61024f610d5e565b6101f1610d73565b6101f1610d79565b61038a61043f565b6103af5760405162461bcd60e51b81526004016103a6906117a2565b60405180910390fd5b6001600160a01b0381166103c257600080fd5b6001805473ffffffffffffffffffffffffffffffffffffffff19166001600160a01b0383169081179091556040517fe3f4a4b5b74aa6830627cb87c50cf7d4ed56e9b246729179ba634bbdc873177a90600090a250565b6000806005544261042a919061197a565b9050610439620151808261193b565b91505090565b6000546201000090046001600160a01b0316331490565b336000908152600260205260409020541580159061048557503360009081526002602052604090206001015415155b6104a15760405162461bcd60e51b81526004016103a690611810565b6104a9610d7f565b336000908152600260208190526040822080546001820180548584559085905592820184905560039091019290925581156105645760035460405163a9059cbb60e01b81526001600160a01b039091169063a9059cbb9061051090339086906004016115c2565b602060405180830381600087803b15801561052a57600080fd5b505af115801561053e573d6000803e3d6000fd5b505050506040513d601f19601f8201168201806040525081019061056291906114fd565b505b80156105ef576004805460405163a9059cbb60e01b81526001600160a01b039091169163a9059cbb9161059b9133918691016115c2565b602060405180830381600087803b1580156105b557600080fd5b505af11580156105c9573d6000803e3d6000fd5b505050506040513d601f19601f820116820180604052508101906105ed91906114fd565b505b336001600160a01b03167f84557df06a9cf3a49d0c3fb7e6ed5a54d316659c8d62d269901c3dfccf741fd883834260405161062c939291906118f2565b60405180910390a25050565b600260208190526000918252604090912080546001820154928201546003909201549092919084565b6003546001600160a01b031681565b600061067a610de4565b9050600061068960018361197a565b336000908152600f6020908152604080832084845290915290205490915060ff16156106d95733600090815260026020526040902060030154811180156106d3576106d382610e1a565b5061075c565b6008546000828152600d60209081526040808320543384526002928390529083209091015491929161070b919061195b565b610715919061193b565b9050336001600160a01b03167fb7a6538c809af24fa079898786799f1e34f038fba1b96689d435ce54293e58ac83836040516107529291906118e4565b60405180910390a2505b60008281526010602052604090205460ff166107bf576000828152601060209081526040808320805460ff19166001179055838352600e825280832054600d9092528220546107ab919061197a565b905080156107bd576107bd8184610f3f565b505b5050565b6004546001600160a01b031681565b600c5481565b60095481565b6107e661043f565b6108025760405162461bcd60e51b81526004016103a6906117a2565b600081116108225760405162461bcd60e51b81526004016103a69061170e565b600b8190556040517fc46353c8027fd3699f9095b46d9998749f7fa987dc04c0b463513c863a4cab66906108579083906118db565b60405180910390a150565b61086a61043f565b6108865760405162461bcd60e51b81526004016103a6906117a2565b600081116108a65760405162461bcd60e51b81526004016103a6906117d9565b600c8190556040517f1376c7ed701183fd27f5bb51f587f9bd3eeb3c7de646a1cbd8dd658cdabe981a906108579083906118db565b6001546001600160a01b031681565b60055481565b600f60209081526000928352604080842090915290825290205460ff1681565b61091861043f565b6109345760405162461bcd60e51b81526004016103a6906117a2565b600554156109545760405162461bcd60e51b81526004016103a69061167a565b610961620151804261197a565b811061097f5760405162461bcd60e51b81526004016103a69061161d565b600555565b6000600554116109a65760405162461bcd60e51b81526004016103a690611847565b6109af8161101b565b3360009081526002602052604081208054909183918391906109d2908490611923565b92505081905550818160020160008282546109ed9190611923565b925050819055508160086000828254610a069190611923565b90915550610a149050610de4565b50336001600160a01b03167f0b0aaed50533b373d9820285de6cb52b7191eaae6d851f3155ee4d5914dd83b4838460405161062c9291906118e4565b600a5481565b60075481565b6001546001600160a01b0316331490565b600054610100900460ff1680610a86575060005460ff16155b610aa25760405162461bcd60e51b81526004016103a690611745565b600054610100900460ff16158015610acd576000805460ff1961ff0019909116610100171660011790555b610ad682611249565b60038054730a4e1bdfa75292a98c15870aef24bd94bffe0bd473ffffffffffffffffffffffffffffffffffffffff199182168117909255600480549091169091179055600e600b556722b1c8c1227a0000600c5580156107bf576000805461ff00191690555050565b610b4761043f565b610b635760405162461bcd60e51b81526004016103a6906117a2565b600380546001600160a01b0393841673ffffffffffffffffffffffffffffffffffffffff199182161790915560048054929093169116179055565b60085481565b600060055411610bc65760405162461bcd60e51b81526004016103a690611847565b610bcf8161101b565b6000610bd9610419565b90506107bf8282610f3f565b600060055411610c075760405162461bcd60e51b81526004016103a690611847565b6000610c1282611313565b3360009081526002602052604081206001810180549394509092859290610c3a908490611923565b9250508190555081816002016000828254610c559190611923565b925050819055508160086000828254610c6e9190611923565b90915550610c7c9050610de4565b50336001600160a01b03167f68110eff112678c2b41e26b6f6fb09e80adcf42e4c096268137d5633787b07158484604051610cb89291906118e4565b60405180910390a2505050565b610ccd61043f565b610ce95760405162461bcd60e51b81526004016103a6906117a2565b6001600160a01b038116610cfc57600080fd5b6000805475ffffffffffffffffffffffffffffffffffffffff00001916620100006001600160a01b038416908102919091178255604051909133917f8be0079c531659141344cd1fd0a4f28419497f9722a3daafe3b4186f6b6457e09190a350565b6000546201000090046001600160a01b031681565b60065481565b600b5481565b6000610d89610419565b90506000610d9860018361197a565b336000908152600f6020908152604080832084845290915290205490915060ff168015610dd657503360009081526002602052604090206003015481115b156107bf576107bf81610e1a565b600080610def610419565b336000908152600f602090815260408083208484529091529020805460ff1916600117905591505090565b6008546000828152600d602090815260408083205433845260029283905290832090910154919291610e4c919061195b565b610e56919061193b565b6000838152600e6020908152604080832084905533808452600290925291829020600390810186905554915163a9059cbb60e01b81529293506001600160a01b039091169163a9059cbb91610eaf9185906004016115c2565b602060405180830381600087803b158015610ec957600080fd5b505af1158015610edd573d6000803e3d6000fd5b505050506040513d601f19601f82011682018060405250810190610f0191906114fd565b50336001600160a01b03167f9cdcf2f7714cca3508c7f0110b04a90a80a3a8dd0e35de99689db74d28c5383e83834260405161062c939291906118f2565b600b548290600090610f51908361193b565b905060005b6001600b54610f65919061197a565b811015610faa5781600d6000610f7b8488611923565b8152602081019190915260400160002055610f96828461197a565b925080610fa281611991565b915050610f56565b5081600d60006001600b5487610fc09190611923565b610fca919061197a565b8152602001908152602001600020819055507f38d306a8dd75e8497f11fc6ba471e118694ff6640055607f38f1224e62708eae844260405161100d9291906118e4565b60405180910390a150505050565b6003546040517fdd62ed3e00000000000000000000000000000000000000000000000000000000815282916001600160a01b03169063dd62ed3e906110669033903090600401611584565b60206040518083038186803b15801561107e57600080fd5b505afa158015611092573d6000803e3d6000fd5b505050506040513d601f19601f820116820180604052508101906110b69190611535565b10156110d45760405162461bcd60e51b81526004016103a69061187e565b6003546040517f70a0823100000000000000000000000000000000000000000000000000000000815282916001600160a01b0316906370a082319061111d903390600401611570565b60206040518083038186803b15801561113557600080fd5b505afa158015611149573d6000803e3d6000fd5b505050506040513d601f19601f8201168201806040525081019061116d9190611535565b101561118b5760405162461bcd60e51b81526004016103a6906116d7565b6003546040517f23b872dd0000000000000000000000000000000000000000000000000000000081526001600160a01b03909116906323b872dd906111d89033903090869060040161159e565b602060405180830381600087803b1580156111f257600080fd5b505af1158015611206573d6000803e3d6000fd5b505050506040513d601f19601f8201168201806040525081019061122a91906114fd565b6112465760405162461bcd60e51b81526004016103a6906115e6565b50565b600054610100900460ff1680611262575060005460ff16155b61127e5760405162461bcd60e51b81526004016103a690611745565b600054610100900460ff161580156112a9576000805460ff1961ff0019909116610100171660011790555b6000805475ffffffffffffffffffffffffffffffffffffffff00001916620100006001600160a01b038516908102919091179091556001805473ffffffffffffffffffffffffffffffffffffffff1916909117905580156107bf576000805461ff00191690555050565b6000806000600460009054906101000a90046001600160a01b03166001600160a01b0316630902f1ac6040518163ffffffff1660e01b8152600401604080518083038186803b15801561136557600080fd5b505afa158015611379573d6000803e3d6000fd5b505050506040513d601f19601f8201168201806040525081019061139d919061154d565b90925090506000826113b7670de0b6b3a76400008461195b565b6113c1919061193b565b9050633b9aca006113d182611411565b670de0b6b3a7640000600c54886113e8919061195b565b6113f2919061193b565b6113fc919061193b565b611406919061193b565b93505050505b919050565b6000806002611421846001611923565b61142b919061193b565b90508291505b8181101561146457905080600281611449818661193b565b6114539190611923565b61145d919061193b565b9050611431565b50919050565b80356001600160a01b038116811461140c57600080fd5b600060208284031215611492578081fd5b61149b8261146a565b9392505050565b600080604083850312156114b4578081fd5b6114bd8361146a565b91506114cb6020840161146a565b90509250929050565b600080604083850312156114e6578182fd5b6114ef8361146a565b946020939093013593505050565b60006020828403121561150e578081fd5b8151801515811461149b578182fd5b60006020828403121561152e578081fd5b5035919050565b600060208284031215611546578081fd5b5051919050565b6000806040838503121561155f578182fd5b505080516020909101519092909150565b6001600160a01b0391909116815260200190565b6001600160a01b0392831681529116602082015260400190565b6001600160a01b039384168152919092166020820152604081019190915260600190565b6001600160a01b03929092168252602082015260400190565b901515815260200190565b6020808252601f908201527f4661726d45617274683a207472616e7366657220666f7461206661696c656400604082015260600190565b60208082526024908201527f4661726d45617274683a206d757374206265206561726c69657220796573746560408201527f7264617900000000000000000000000000000000000000000000000000000000606082015260800190565b60208082526029908201527f4661726d45617274683a20737461727454696d6520686164206265656e20696e60408201527f697469616c697a65640000000000000000000000000000000000000000000000606082015260800190565b6020808252601f908201527f4661726d45617274683a20696e73756666696369656e742062616c616e636500604082015260600190565b60208082526017908201527f4661726d45617274683a206461797320696e76616c6964000000000000000000604082015260600190565b6020808252602e908201527f496e697469616c697a61626c653a20636f6e747261637420697320616c72656160408201527f647920696e697469616c697a6564000000000000000000000000000000000000606082015260800190565b6020808252600d908201527f6f6e6c794d61696e41646d696e00000000000000000000000000000000000000604082015260600190565b60208082526017908201527f4661726d45617274683a207261746520696e76616c6964000000000000000000604082015260600190565b60208082526003908201527f3430340000000000000000000000000000000000000000000000000000000000604082015260600190565b60208082526015908201527f506c6561736520696e697420737461727454696d650000000000000000000000604082015260600190565b60208082526024908201527f4661726d45617274683a20706c6561736520617070726f766520666f7461206660408201527f6972737400000000000000000000000000000000000000000000000000000000606082015260800190565b90815260200190565b918252602082015260400190565b9283526020830191909152604082015260600190565b93845260208401929092526040830152606082015260800190565b60008219821115611936576119366119ac565b500190565b60008261195657634e487b7160e01b81526012600452602481fd5b500490565b6000816000190483118215151615611975576119756119ac565b500290565b60008282101561198c5761198c6119ac565b500390565b60006000198214156119a5576119a56119ac565b5060010190565b634e487b7160e01b600052601160045260246000fdfea26469706673582212206a2baef0a8915cf0b08fb934b4e889408b9b689a0c470f32e7f268856298286064736f6c63430008000033",
  "immutableReferences": {},
  "source": "// SPDX-License-Identifier: GPL\n\npragma solidity 0.8.0;\n\nimport \"../libs/fota/Auth.sol\";\nimport \"../libs/zeppelin/token/BEP20/IBEP20.sol\";\nimport \"../interfaces/IFOTAToken.sol\";\nimport \"../interfaces/ILPToken.sol\";\n\ncontract FarmEarth is Auth {\n  struct Farmer {\n    uint fotaDeposited;\n    uint lpDeposited;\n    uint point;\n    uint lastDateClaimed;\n  }\n  mapping (address => Farmer) public farmers;\n  IFOTAToken public fotaToken;\n  ILPToken public lpToken;\n  uint public startTime;\n  uint public totalFotaDeposited;\n  uint public totalLPDeposited;\n  uint public totalPoint;\n  uint public totalEarned;\n  uint public totalRewarded;\n  uint public rewardingDays;\n  uint public lpBonus;\n  uint constant secondInADay = 86400; // 24 * 60 * 60\n  uint constant decimal18 = 1e18;\n  uint constant decimal9 = 1e9;\n\n  mapping(uint => uint) dailyReward;\n  mapping(uint => uint) dailyClaimed;\n  mapping (address => mapping (uint => bool)) public checkin;\n  mapping(uint => bool) missProcessed;\n\n  event FOTADeposited(address indexed farmer, uint amount, uint point);\n  event LPDeposited(address indexed farmer, uint amount, uint point);\n  event RewardingDaysUpdated(uint rewardingDays);\n  event LPBonusRateUpdated(uint rate);\n  event FOTAFunded(uint amount, uint timestamp);\n  event Claimed(address indexed farmer, uint day, uint amount, uint timestamp);\n  event Missed(address indexed farmer, uint day, uint amount);\n  event Withdrew(address indexed farmer, uint fotaDeposited, uint lpDeposited, uint timestamp);\n\n  modifier initStartTime() {\n    require(startTime > 0, \"Please init startTime\");\n    _;\n  }\n\n  function initialize(address _mainAdmin) override public initializer {\n    super.initialize(_mainAdmin);\n    fotaToken = IFOTAToken(0x0A4E1BdFA75292A98C15870AeF24bd94BFFe0Bd4);\n    lpToken = ILPToken(0x0A4E1BdFA75292A98C15870AeF24bd94BFFe0Bd4); // TODO\n    rewardingDays = 14;\n    lpBonus = 25e17;\n  }\n\n  function depositFOTA(uint _amount) external initStartTime {\n    _takeFundFOTA(_amount);\n    Farmer storage farmer = farmers[msg.sender];\n    farmer.fotaDeposited += _amount;\n    farmer.point += _amount;\n    totalPoint += _amount;\n    _checkin();\n    emit FOTADeposited(msg.sender, _amount, _amount);\n  }\n\n  function depositLP(uint _amount) external initStartTime {\n    uint point = _getPointWhenDepositViaLP(_amount);\n    Farmer storage farmer = farmers[msg.sender];\n    farmer.lpDeposited += _amount;\n    farmer.point += point;\n    totalPoint += point;\n    _checkin();\n    emit LPDeposited(msg.sender, _amount, point);\n  }\n\n  function claim() external {\n    uint dayPassed = _checkin();\n    uint dateToClaim = dayPassed - 1;\n    if (checkin[msg.sender][dateToClaim]) {\n      bool notClaimYet = farmers[msg.sender].lastDateClaimed < dateToClaim;\n      if (notClaimYet) {\n        _claim(dateToClaim);\n      }\n    } else {\n      uint reward = farmers[msg.sender].point * dailyReward[dateToClaim] / totalPoint;\n      emit Missed(msg.sender, dateToClaim, reward);\n    }\n    if (!missProcessed[dayPassed]) {\n      missProcessed[dayPassed] = true;\n      uint missedYesterday = dailyReward[dateToClaim] - dailyClaimed[dateToClaim];\n      if (missedYesterday > 0) {\n        _fundFOTA(missedYesterday, dayPassed);\n      }\n    }\n  }\n\n  function withdraw() external {\n    require(farmers[msg.sender].fotaDeposited > 0 && farmers[msg.sender].lpDeposited > 0, \"404\");\n    _checkClaim();\n    uint fotaDeposited = farmers[msg.sender].fotaDeposited;\n    uint lpDeposited = farmers[msg.sender].lpDeposited;\n    farmers[msg.sender].fotaDeposited = 0;\n    farmers[msg.sender].lpDeposited = 0;\n    farmers[msg.sender].point = 0;\n    farmers[msg.sender].lastDateClaimed = 0;\n    if (fotaDeposited > 0) {\n      fotaToken.transfer(msg.sender, fotaDeposited);\n    }\n    if (lpDeposited > 0) {\n      lpToken.transfer(msg.sender, lpDeposited);\n    }\n    emit Withdrew(msg.sender, fotaDeposited, lpDeposited, block.timestamp);\n  }\n\n  function fundFOTA(uint _amount) external initStartTime {\n    _takeFundFOTA(_amount);\n    uint dayPassed = getDaysPassed();\n    _fundFOTA(_amount, dayPassed);\n  }\n\n  function getDaysPassed() public view returns (uint) {\n    uint timePassed = block.timestamp - startTime;\n    return timePassed / secondInADay;\n  }\n\n  // PRIVATE FUNCTIONS\n  function _checkClaim() private {\n    uint dayPassed = getDaysPassed();\n    uint dateToClaim = dayPassed - 1;\n    if (checkin[msg.sender][dateToClaim] && farmers[msg.sender].lastDateClaimed < dateToClaim) {\n      _claim(dateToClaim);\n    }\n  }\n  function _claim(uint _dateToClaim) private {\n    uint reward = farmers[msg.sender].point * dailyReward[_dateToClaim] / totalPoint;\n    dailyClaimed[_dateToClaim] = reward;\n    farmers[msg.sender].lastDateClaimed = _dateToClaim;\n    fotaToken.transfer(msg.sender, reward);\n    emit Claimed(msg.sender, _dateToClaim, reward, block.timestamp);\n  }\n  function _fundFOTA(uint _amount, uint _dayPassed) private {\n    uint restAmount = _amount;\n    uint eachDayAmount = _amount / rewardingDays;\n    for(uint i = 0; i < rewardingDays - 1; i++) {\n      dailyReward[_dayPassed + i] = eachDayAmount;\n      restAmount -= eachDayAmount;\n    }\n    dailyReward[_dayPassed + rewardingDays - 1] = restAmount;\n    emit FOTAFunded(_amount, block.timestamp);\n  }\n\n  function _getPointWhenDepositViaLP(uint _lpAmount) private view returns (uint) {\n    (uint reserve0, uint reserve1) = lpToken.getReserves();\n    uint rateInDecimal18 = reserve1 * decimal18 / reserve0;\n    // n = _lpAmount / _sqrt(rate)\n    // lpBonus / decimal18 = 2.5\n    // sqrt(1e18) = 1e9\n    return _lpAmount * lpBonus / decimal18 / _sqrt(rateInDecimal18) / decimal9;\n  }\n\n  function _takeFundFOTA(uint _amount) private {\n    require(fotaToken.allowance(msg.sender, address(this)) >= _amount, \"FarmEarth: please approve fota first\");\n    require(fotaToken.balanceOf(msg.sender) >= _amount, \"FarmEarth: insufficient balance\");\n    require(fotaToken.transferFrom(msg.sender, address(this), _amount), \"FarmEarth: transfer fota failed\");\n  }\n\n  function _calculateUserTodayReward() private view returns (uint) {\n    uint dayPassed = getDaysPassed();\n    return farmers[msg.sender].point * dailyReward[dayPassed - 1] / totalPoint;\n  }\n\n  function _sqrt(uint x) private pure returns (uint y) {\n    uint z = (x + 1) / 2;\n    y = x;\n    while (z < y) {\n      y = z;\n      z = (x / z + z) / 2;\n    }\n  }\n  function _checkin() private  returns (uint) {\n    uint dayPassed = getDaysPassed();\n    checkin[msg.sender][dayPassed] = true;\n    return dayPassed;\n  }\n\n  // ADMIN FUNCTIONS\n  function start(uint _startTime) external onlyMainAdmin {\n    require(startTime == 0, \"FarmEarth: startTime had been initialized\");\n    require(_startTime >= 0 && _startTime < block.timestamp - secondInADay, \"FarmEarth: must be earlier yesterday\");\n    startTime = _startTime;\n  }\n\n  function updateRewardingDays(uint _days) external onlyMainAdmin {\n    require(_days > 0, \"FarmEarth: days invalid\");\n    rewardingDays = _days;\n    emit RewardingDaysUpdated(_days);\n  }\n\n  function updateLPBonusRate(uint _rate) external onlyMainAdmin {\n    require(_rate > 0, \"FarmEarth: rate invalid\");\n    lpBonus = _rate;\n    emit LPBonusRateUpdated(_rate);\n  }\n\n  // TODO for testing purpose\n  function setContracts(address _fota, address _lp) external onlyMainAdmin {\n    fotaToken = IFOTAToken(_fota);\n    lpToken = ILPToken(_lp);\n  }\n}\n",
  "sourcePath": "/Users/binh/Documents/Development/Solidity/fota-dapp/contracts/farms/FarmEarth.sol",
  "compiler": {
    "name": "solc",
    "version": "0.8.0+commit.c7dfd78e.Emscripten.clang"
  },
  "schemaVersion": "3.3.4",
  "updatedAt": "2022-01-05T07:37:06.088Z",
  "networkType": "ethereum",
  "devdoc": {
    "kind": "dev",
    "methods": {},
    "version": 1
  },
  "userdoc": {
    "kind": "user",
    "methods": {},
    "version": 1
  }
}