{
  "contractName": "FOTAPricer",
  "abi": [
    {
      "anonymous": false,
      "inputs": [
        {
          "indexed": true,
          "internalType": "address",
          "name": "_newOwner",
          "type": "address"
        }
      ],
      "name": "ContractAdminUpdated",
      "type": "event"
    },
    {
      "anonymous": false,
      "inputs": [
        {
          "indexed": false,
          "internalType": "uint256",
          "name": "newPrice",
          "type": "uint256"
        },
        {
          "indexed": false,
          "internalType": "uint256",
          "name": "timestamp",
          "type": "uint256"
        }
      ],
      "name": "FOTAPriceSynced",
      "type": "event"
    },
    {
      "anonymous": false,
      "inputs": [
        {
          "indexed": true,
          "internalType": "address",
          "name": "_previousOwner",
          "type": "address"
        },
        {
          "indexed": true,
          "internalType": "address",
          "name": "_newOwner",
          "type": "address"
        }
      ],
      "name": "OwnershipTransferred",
      "type": "event"
    },
    {
      "anonymous": false,
      "inputs": [
        {
          "indexed": false,
          "internalType": "uint256",
          "name": "fotaPrice",
          "type": "uint256"
        },
        {
          "indexed": false,
          "internalType": "uint256",
          "name": "minPrice",
          "type": "uint256"
        },
        {
          "indexed": false,
          "internalType": "uint256",
          "name": "maxPrice",
          "type": "uint256"
        },
        {
          "indexed": false,
          "internalType": "uint256",
          "name": "absMinPrice",
          "type": "uint256"
        },
        {
          "indexed": false,
          "internalType": "uint256",
          "name": "absMaxPrice",
          "type": "uint256"
        },
        {
          "indexed": false,
          "internalType": "uint256",
          "name": "minPriceSet",
          "type": "uint256"
        },
        {
          "indexed": false,
          "internalType": "uint256",
          "name": "maxPriceSet",
          "type": "uint256"
        }
      ],
      "name": "Warning",
      "type": "event"
    },
    {
      "inputs": [],
      "name": "_isContractAdmin",
      "outputs": [
        {
          "internalType": "bool",
          "name": "",
          "type": "bool"
        }
      ],
      "stateMutability": "view",
      "type": "function",
      "constant": true
    },
    {
      "inputs": [],
      "name": "_isMainAdmin",
      "outputs": [
        {
          "internalType": "bool",
          "name": "",
          "type": "bool"
        }
      ],
      "stateMutability": "view",
      "type": "function",
      "constant": true
    },
    {
      "inputs": [],
      "name": "absMaxPrice",
      "outputs": [
        {
          "internalType": "uint256",
          "name": "",
          "type": "uint256"
        }
      ],
      "stateMutability": "view",
      "type": "function",
      "constant": true
    },
    {
      "inputs": [],
      "name": "absMinPrice",
      "outputs": [
        {
          "internalType": "uint256",
          "name": "",
          "type": "uint256"
        }
      ],
      "stateMutability": "view",
      "type": "function",
      "constant": true
    },
    {
      "inputs": [],
      "name": "contractAdmin",
      "outputs": [
        {
          "internalType": "address",
          "name": "",
          "type": "address"
        }
      ],
      "stateMutability": "view",
      "type": "function",
      "constant": true
    },
    {
      "inputs": [],
      "name": "fotaPrice",
      "outputs": [
        {
          "internalType": "uint256",
          "name": "",
          "type": "uint256"
        }
      ],
      "stateMutability": "view",
      "type": "function",
      "constant": true
    },
    {
      "inputs": [],
      "name": "getMainAdmin",
      "outputs": [
        {
          "internalType": "address",
          "name": "",
          "type": "address"
        }
      ],
      "stateMutability": "view",
      "type": "function",
      "constant": true
    },
    {
      "inputs": [],
      "name": "mainAdmin",
      "outputs": [
        {
          "internalType": "address",
          "name": "",
          "type": "address"
        }
      ],
      "stateMutability": "view",
      "type": "function",
      "constant": true
    },
    {
      "inputs": [],
      "name": "maxPrice",
      "outputs": [
        {
          "internalType": "uint256",
          "name": "",
          "type": "uint256"
        }
      ],
      "stateMutability": "view",
      "type": "function",
      "constant": true
    },
    {
      "inputs": [],
      "name": "minPrice",
      "outputs": [
        {
          "internalType": "uint256",
          "name": "",
          "type": "uint256"
        }
      ],
      "stateMutability": "view",
      "type": "function",
      "constant": true
    },
    {
      "inputs": [
        {
          "internalType": "address",
          "name": "_newOwner",
          "type": "address"
        }
      ],
      "name": "transferOwnership",
      "outputs": [],
      "stateMutability": "nonpayable",
      "type": "function"
    },
    {
      "inputs": [
        {
          "internalType": "address",
          "name": "_absMinMaxPriceAdmin",
          "type": "address"
        }
      ],
      "name": "updateAbsMinMaxPriceAdmin",
      "outputs": [],
      "stateMutability": "nonpayable",
      "type": "function"
    },
    {
      "inputs": [
        {
          "internalType": "address",
          "name": "_newAdmin",
          "type": "address"
        }
      ],
      "name": "updateContractAdmin",
      "outputs": [],
      "stateMutability": "nonpayable",
      "type": "function"
    },
    {
      "inputs": [
        {
          "internalType": "address",
          "name": "_minMaxPriceAdmin",
          "type": "address"
        }
      ],
      "name": "updateMinMaxPriceAdmin",
      "outputs": [],
      "stateMutability": "nonpayable",
      "type": "function"
    },
    {
      "inputs": [
        {
          "internalType": "address",
          "name": "_normalPriceAdmin",
          "type": "address"
        }
      ],
      "name": "updateNormalPriceAdmin",
      "outputs": [],
      "stateMutability": "nonpayable",
      "type": "function"
    },
    {
      "inputs": [
        {
          "internalType": "address",
          "name": "_mainAdmin",
          "type": "address"
        }
      ],
      "name": "initialize",
      "outputs": [],
      "stateMutability": "nonpayable",
      "type": "function"
    },
    {
      "inputs": [
        {
          "internalType": "address",
          "name": "_mainAdmin",
          "type": "address"
        },
        {
          "internalType": "address",
          "name": "_normalPriceAdmin",
          "type": "address"
        },
        {
          "internalType": "address",
          "name": "_minMaxPriceAdmin",
          "type": "address"
        },
        {
          "internalType": "address",
          "name": "_absMinMaxPriceAdmin",
          "type": "address"
        },
        {
          "internalType": "uint256",
          "name": "_fotaPrice",
          "type": "uint256"
        }
      ],
      "name": "initialize",
      "outputs": [],
      "stateMutability": "nonpayable",
      "type": "function"
    },
    {
      "inputs": [
        {
          "internalType": "address",
          "name": "_mainAdmin",
          "type": "address"
        },
        {
          "internalType": "address",
          "name": "_normalPriceAdmin",
          "type": "address"
        },
        {
          "internalType": "address",
          "name": "_minMaxPriceAdmin",
          "type": "address"
        },
        {
          "internalType": "address",
          "name": "_absMinMaxPriceAdmin",
          "type": "address"
        }
      ],
      "name": "initialize",
      "outputs": [],
      "stateMutability": "nonpayable",
      "type": "function"
    },
    {
      "inputs": [
        {
          "internalType": "uint256",
          "name": "_fotaPrice",
          "type": "uint256"
        }
      ],
      "name": "syncFOTAPrice",
      "outputs": [],
      "stateMutability": "nonpayable",
      "type": "function"
    },
    {
      "inputs": [
        {
          "internalType": "uint256",
          "name": "_minPrice",
          "type": "uint256"
        },
        {
          "internalType": "uint256",
          "name": "_maxPrice",
          "type": "uint256"
        }
      ],
      "name": "updateMinMaxPrice",
      "outputs": [],
      "stateMutability": "nonpayable",
      "type": "function"
    },
    {
      "inputs": [
        {
          "internalType": "uint256",
          "name": "_absMinPrice",
          "type": "uint256"
        },
        {
          "internalType": "uint256",
          "name": "_absMaxPrice",
          "type": "uint256"
        }
      ],
      "name": "updateAbsMinMaxPrice",
      "outputs": [],
      "stateMutability": "nonpayable",
      "type": "function"
    }
  ],
  "bytecode": "0x608060405234801561001057600080fd5b50610d2f806100206000396000f3fe608060405234801561001057600080fd5b50600436106101775760003560e01c8063a94a5574116100d8578063e38d6b5c1161008c578063f7013ef611610066578063f7013ef6146102a1578063f8c8765e146102b4578063fb6b04ba146102c757610177565b8063e38d6b5c1461027e578063e45be8eb14610286578063f2fde38b1461028e57610177565b8063bf6c0599116100bd578063bf6c05991461025b578063c4d66de814610263578063ce1143481461027657610177565b8063a94a557414610240578063b7d6caec1461025357610177565b8063601050761161012f5780637795524511610114578063779552451461021257806381b797071461021a57806385c23dfc1461022d57610177565b806360105076146101ea57806370feb170146101fd57610177565b806342bf7da41161016057806342bf7da4146101af57806344c17c5a146101c25780635d513316146101d757610177565b806302e65b8a1461017c57806311541ce014610191575b600080fd5b61018f61018a366004610999565b6102cf565b005b610199610359565b6040516101a69190610ab5565b60405180910390f35b61018f6101bd366004610a68565b610370565b6101ca610436565b6040516101a69190610c67565b61018f6101e5366004610999565b61043c565b61018f6101f8366004610999565b6104a8565b610205610514565b6040516101a69190610aa1565b610205610529565b61018f610228366004610a80565b610538565b61018f61023b366004610a80565b61057e565b61018f61024e366004610999565b6105e0565b61019961064c565b6101ca61065d565b61018f610271366004610999565b610663565b6101ca610720565b6101ca610726565b6101ca61072c565b61018f61029c366004610999565b610732565b61018f6102af366004610a0d565b6107cb565b61018f6102c23660046109ba565b6108ac565b6102056108f5565b6102d7610359565b6102fc5760405162461bcd60e51b81526004016102f390610bf9565b60405180910390fd5b6001600160a01b03811661030f57600080fd5b600180546001600160a01b0319166001600160a01b0383169081179091556040517fe3f4a4b5b74aa6830627cb87c50cf7d4ed56e9b246729179ba634bbdc873177a90600090a250565b6000546201000090046001600160a01b0316331490565b6002546001600160a01b031633148061038c575061038c610359565b6103a85760405162461bcd60e51b81526004016102f390610b2e565b60065481101580156103bc57506007548111155b80156103ca57506008548110155b80156103d857506009548111155b6103f45760405162461bcd60e51b81526004016102f390610af7565b60058190556040517fefafbbf9a76e06d14b42638d0b798258ec61b0a34ba67a8995fac1879ddbe8409061042b9083904290610c70565b60405180910390a150565b60085481565b610444610359565b6104605760405162461bcd60e51b81526004016102f390610bf9565b6001600160a01b0381166104865760405162461bcd60e51b81526004016102f390610ac0565b600480546001600160a01b0319166001600160a01b0392909216919091179055565b6104b0610359565b6104cc5760405162461bcd60e51b81526004016102f390610bf9565b6001600160a01b0381166104f25760405162461bcd60e51b81526004016102f390610ac0565b600280546001600160a01b0319166001600160a01b0392909216919091179055565b6000546201000090046001600160a01b031690565b6001546001600160a01b031681565b6003546001600160a01b03163314806105545750610554610359565b6105705760405162461bcd60e51b81526004016102f390610b65565b61057a828261090a565b5050565b6004546001600160a01b031633148061059a575061059a610359565b6105b65760405162461bcd60e51b81526004016102f390610c30565b8181116105d55760405162461bcd60e51b81526004016102f390610af7565b600891909155600955565b6105e8610359565b6106045760405162461bcd60e51b81526004016102f390610bf9565b6001600160a01b03811661062a5760405162461bcd60e51b81526004016102f390610ac0565b600380546001600160a01b0319166001600160a01b0392909216919091179055565b6001546001600160a01b0316331490565b60095481565b600054610100900460ff168061067c575060005460ff16155b6106985760405162461bcd60e51b81526004016102f390610b9c565b600054610100900460ff161580156106c3576000805460ff1961ff0019909116610100171660011790555b6000805475ffffffffffffffffffffffffffffffffffffffff00001916620100006001600160a01b03851690810291909117909155600180546001600160a01b0319169091179055801561057a576000805461ff00191690555050565b60055481565b60075481565b60065481565b61073a610359565b6107565760405162461bcd60e51b81526004016102f390610bf9565b6001600160a01b03811661076957600080fd5b6000805475ffffffffffffffffffffffffffffffffffffffff00001916620100006001600160a01b038416908102919091178255604051909133917f8be0079c531659141344cd1fd0a4f28419497f9722a3daafe3b4186f6b6457e09190a350565b600054610100900460ff16806107e4575060005460ff16155b6108005760405162461bcd60e51b81526004016102f390610b9c565b600054610100900460ff1615801561082b576000805460ff1961ff0019909116610100171660011790555b610837868686866108ac565b6005829055610847600383610cae565b600855610855826003610cce565b600955610892606461086884605a610cce565b6108729190610cae565b606460055460696108839190610cce565b61088d9190610cae565b61090a565b80156108a4576000805461ff00191690555b505050505050565b6108b584610663565b600280546001600160a01b039485166001600160a01b03199182161790915560038054938516938216939093179092556004805491909316911617905550565b6000546201000090046001600160a01b031681565b60085482108061091b575060095481115b15610972577f9cc1aa9fb6ee4a034eedb152b0e03c1d876db52f4ac506ac48de644e6795d3af60055460065460075460085460095487876040516109659796959493929190610c7e565b60405180910390a161057a565b600691909155600755565b80356001600160a01b038116811461099457600080fd5b919050565b6000602082840312156109aa578081fd5b6109b38261097d565b9392505050565b600080600080608085870312156109cf578283fd5b6109d88561097d565b93506109e66020860161097d565b92506109f46040860161097d565b9150610a026060860161097d565b905092959194509250565b600080600080600060a08688031215610a24578081fd5b610a2d8661097d565b9450610a3b6020870161097d565b9350610a496040870161097d565b9250610a576060870161097d565b949793965091946080013592915050565b600060208284031215610a79578081fd5b5035919050565b60008060408385031215610a92578182fd5b50508035926020909101359150565b6001600160a01b0391909116815260200190565b901515815260200190565b6020808252600f908201527f496e76616c696420616464726573730000000000000000000000000000000000604082015260600190565b60208082526010908201527f507269636520697320696e76616c696400000000000000000000000000000000604082015260600190565b60208082526014908201527f6f6e6c794e6f726d616c507269636541646d696e000000000000000000000000604082015260600190565b60208082526014908201527f6f6e6c794d696e4d6178507269636541646d696e000000000000000000000000604082015260600190565b6020808252602e908201527f496e697469616c697a61626c653a20636f6e747261637420697320616c72656160408201527f647920696e697469616c697a6564000000000000000000000000000000000000606082015260800190565b6020808252600d908201527f6f6e6c794d61696e41646d696e00000000000000000000000000000000000000604082015260600190565b60208082526017908201527f6f6e6c794162734d696e4d6178507269636541646d696e000000000000000000604082015260600190565b90815260200190565b918252602082015260400190565b968752602087019590955260408601939093526060850191909152608084015260a083015260c082015260e00190565b600082610cc957634e487b7160e01b81526012600452602481fd5b500490565b6000816000190483118215151615610cf457634e487b7160e01b81526011600452602481fd5b50029056fea26469706673582212206e6f682d030754b5814e8b67f4a8c565310c018bd0ec84ced7b0e712cb77eb0364736f6c63430008000033",
  "immutableReferences": {},
  "source": "// SPDX-License-Identifier: GPL\n\npragma solidity 0.8.0;\n\nimport \"../libs/fota/Auth.sol\";\n\ncontract PriceAuth is Auth {\n  address normalPriceAdmin;\n  address minMaxPriceAdmin;\n  address absMinMaxPriceAdmin;\n\n  function initialize(\n    address _mainAdmin,\n    address _normalPriceAdmin,\n    address _minMaxPriceAdmin,\n    address _absMinMaxPriceAdmin\n  ) public {\n    Auth.initialize(_mainAdmin);\n    normalPriceAdmin = _normalPriceAdmin;\n    minMaxPriceAdmin = _minMaxPriceAdmin;\n    absMinMaxPriceAdmin = _absMinMaxPriceAdmin;\n  }\n\n  modifier onlyNormalPriceAdmin() {\n    require(msg.sender == normalPriceAdmin || _isMainAdmin(), \"onlyNormalPriceAdmin\");\n    _;\n  }\n\n  modifier onlyMinMaxPriceAdmin() {\n    require(msg.sender == minMaxPriceAdmin || _isMainAdmin(), \"onlyMinMaxPriceAdmin\");\n    _;\n  }\n\n  modifier onlyAbsMinMaxPriceAdmin() {\n    require(msg.sender == absMinMaxPriceAdmin || _isMainAdmin(), \"onlyAbsMinMaxPriceAdmin\");\n    _;\n  }\n\n  function updateNormalPriceAdmin(address _normalPriceAdmin) onlyMainAdmin external {\n    require(_normalPriceAdmin != address(0), \"Invalid address\");\n    normalPriceAdmin = _normalPriceAdmin;\n  }\n\n  function updateMinMaxPriceAdmin(address _minMaxPriceAdmin) onlyMainAdmin external {\n    require(_minMaxPriceAdmin != address(0), \"Invalid address\");\n    minMaxPriceAdmin = _minMaxPriceAdmin;\n  }\n\n  function updateAbsMinMaxPriceAdmin(address _absMinMaxPriceAdmin) onlyMainAdmin external {\n    require(_absMinMaxPriceAdmin != address(0), \"Invalid address\");\n    absMinMaxPriceAdmin = _absMinMaxPriceAdmin;\n  }\n\n  function getMainAdmin() external view returns (address) {\n    return mainAdmin;\n  }\n}\n\ncontract FOTAPricer is PriceAuth {\n\n  uint public fotaPrice; // decimal 3\n  uint public minPrice;\n  uint public maxPrice;\n  uint public absMinPrice;\n  uint public absMaxPrice;\n\n  event FOTAPriceSynced(\n    uint newPrice,\n    uint timestamp\n  );\n  event Warning(\n    uint fotaPrice,\n    uint minPrice,\n    uint maxPrice,\n    uint absMinPrice,\n    uint absMaxPrice,\n    uint minPriceSet,\n    uint maxPriceSet\n  );\n\n  function initialize(\n    address _mainAdmin,\n    address _normalPriceAdmin,\n    address _minMaxPriceAdmin,\n    address _absMinMaxPriceAdmin,\n    uint _fotaPrice\n  ) public initializer {\n    PriceAuth.initialize(_mainAdmin, _normalPriceAdmin, _minMaxPriceAdmin, _absMinMaxPriceAdmin);\n    fotaPrice = _fotaPrice;\n    absMinPrice = _fotaPrice / 3;\n    absMaxPrice = _fotaPrice * 3;\n    _updateMinMaxPrice(_fotaPrice * 90 / 100, fotaPrice * 105 / 100);\n  }\n\n  function syncFOTAPrice(uint _fotaPrice) external onlyNormalPriceAdmin {\n    require(\n      _fotaPrice >= minPrice &&\n      _fotaPrice <= maxPrice &&\n      _fotaPrice >= absMinPrice &&\n      _fotaPrice <= absMaxPrice, \"Price is invalid\");\n    fotaPrice = _fotaPrice;\n    emit FOTAPriceSynced(fotaPrice, block.timestamp);\n  }\n\n  function updateMinMaxPrice(uint _minPrice, uint _maxPrice) external onlyMinMaxPriceAdmin {\n    _updateMinMaxPrice(_minPrice, _maxPrice);\n  }\n\n  function updateAbsMinMaxPrice(uint _absMinPrice, uint _absMaxPrice) external onlyAbsMinMaxPriceAdmin {\n    require(_absMaxPrice > _absMinPrice, \"Price is invalid\");\n    absMinPrice = _absMinPrice;\n    absMaxPrice = _absMaxPrice;\n  }\n\n  function _updateMinMaxPrice(uint _minPrice, uint _maxPrice) private {\n    if (_minPrice < absMinPrice || _maxPrice > absMaxPrice) {\n      emit Warning(fotaPrice, minPrice, maxPrice, absMinPrice, absMaxPrice, _minPrice, _maxPrice);\n    } else {\n      minPrice = _minPrice;\n      maxPrice = _maxPrice;\n    }\n  }\n}\n",
  "sourcePath": "/Users/binh/Documents/Development/Solidity/fota-dapp/contracts/utils/FOTAPricer.sol",
  "compiler": {
    "name": "solc",
    "version": "0.8.0+commit.c7dfd78e.Emscripten.clang"
  },
  "schemaVersion": "3.3.4",
  "updatedAt": "2022-01-05T07:37:06.408Z",
  "networkType": "ethereum",
  "devdoc": {
    "kind": "dev",
    "methods": {},
    "version": 1
  },
  "userdoc": {
    "kind": "user",
    "methods": {},
    "version": 1
  }
}