{
  "contractName": "FOTAGamePVE",
  "abi": [
    {
      "anonymous": false,
      "inputs": [
        {
          "indexed": true,
          "internalType": "address",
          "name": "_newOwner",
          "type": "address"
        }
      ],
      "name": "ContractAdminUpdated",
      "type": "event"
    },
    {
      "anonymous": false,
      "inputs": [
        {
          "indexed": false,
          "internalType": "uint256",
          "name": "energyConsumption",
          "type": "uint256"
        }
      ],
      "name": "EnergyConsumptionUpdated",
      "type": "event"
    },
    {
      "anonymous": false,
      "inputs": [
        {
          "indexed": true,
          "internalType": "address",
          "name": "_previousOwner",
          "type": "address"
        },
        {
          "indexed": true,
          "internalType": "address",
          "name": "_newOwner",
          "type": "address"
        }
      ],
      "name": "OwnershipTransferred",
      "type": "event"
    },
    {
      "anonymous": false,
      "inputs": [
        {
          "indexed": false,
          "internalType": "uint256",
          "name": "totalStations",
          "type": "uint256"
        },
        {
          "indexed": false,
          "internalType": "uint256",
          "name": "timestamp",
          "type": "uint256"
        }
      ],
      "name": "TotalStationsUpdated",
      "type": "event"
    },
    {
      "inputs": [],
      "name": "_isContractAdmin",
      "outputs": [
        {
          "internalType": "bool",
          "name": "",
          "type": "bool"
        }
      ],
      "stateMutability": "view",
      "type": "function",
      "constant": true
    },
    {
      "inputs": [],
      "name": "_isMainAdmin",
      "outputs": [
        {
          "internalType": "bool",
          "name": "",
          "type": "bool"
        }
      ],
      "stateMutability": "view",
      "type": "function",
      "constant": true
    },
    {
      "inputs": [],
      "name": "contractAdmin",
      "outputs": [
        {
          "internalType": "address",
          "name": "",
          "type": "address"
        }
      ],
      "stateMutability": "view",
      "type": "function",
      "constant": true
    },
    {
      "inputs": [],
      "name": "energyConsumption",
      "outputs": [
        {
          "internalType": "uint256",
          "name": "",
          "type": "uint256"
        }
      ],
      "stateMutability": "view",
      "type": "function",
      "constant": true
    },
    {
      "inputs": [],
      "name": "energyManager",
      "outputs": [
        {
          "internalType": "contract IEnergyManager",
          "name": "",
          "type": "address"
        }
      ],
      "stateMutability": "view",
      "type": "function",
      "constant": true
    },
    {
      "inputs": [],
      "name": "mainAdmin",
      "outputs": [
        {
          "internalType": "address",
          "name": "",
          "type": "address"
        }
      ],
      "stateMutability": "view",
      "type": "function",
      "constant": true
    },
    {
      "inputs": [
        {
          "internalType": "address",
          "name": "",
          "type": "address"
        }
      ],
      "name": "nonces",
      "outputs": [
        {
          "internalType": "uint256",
          "name": "",
          "type": "uint256"
        }
      ],
      "stateMutability": "view",
      "type": "function",
      "constant": true
    },
    {
      "inputs": [],
      "name": "totalStations",
      "outputs": [
        {
          "internalType": "uint256",
          "name": "",
          "type": "uint256"
        }
      ],
      "stateMutability": "view",
      "type": "function",
      "constant": true
    },
    {
      "inputs": [
        {
          "internalType": "address",
          "name": "_newOwner",
          "type": "address"
        }
      ],
      "name": "transferOwnership",
      "outputs": [],
      "stateMutability": "nonpayable",
      "type": "function"
    },
    {
      "inputs": [
        {
          "internalType": "address",
          "name": "_newAdmin",
          "type": "address"
        }
      ],
      "name": "updateContractAdmin",
      "outputs": [],
      "stateMutability": "nonpayable",
      "type": "function"
    },
    {
      "inputs": [
        {
          "internalType": "string",
          "name": "_name",
          "type": "string"
        },
        {
          "internalType": "string",
          "name": "_version",
          "type": "string"
        },
        {
          "internalType": "address",
          "name": "_mainAdmin",
          "type": "address"
        },
        {
          "internalType": "address",
          "name": "_energyManager",
          "type": "address"
        }
      ],
      "name": "initialize",
      "outputs": [],
      "stateMutability": "nonpayable",
      "type": "function"
    },
    {
      "inputs": [
        {
          "internalType": "address",
          "name": "_mainAdmin",
          "type": "address"
        }
      ],
      "name": "initialize",
      "outputs": [],
      "stateMutability": "nonpayable",
      "type": "function"
    },
    {
      "inputs": [
        {
          "internalType": "address",
          "name": "_inviter",
          "type": "address"
        }
      ],
      "name": "validateInviter",
      "outputs": [
        {
          "internalType": "bool",
          "name": "",
          "type": "bool"
        }
      ],
      "stateMutability": "view",
      "type": "function",
      "constant": true
    }
  ],
  "bytecode": "0x608060405234801561001057600080fd5b5061087c806100206000396000f3fe608060405234801561001057600080fd5b50600436106100df5760003560e01c80638867ac381161008c578063b7d6caec11610066578063b7d6caec1461018a578063c4d66de814610192578063f2fde38b146101a5578063fb6b04ba146101b8576100df565b80638867ac38146101675780638f15b4141461016f578063afb6354a14610182576100df565b806368bb2666116100bd57806368bb26661461012a578063779552451461013f5780637ecebe0014610154576100df565b806302e65b8a146100e457806311541ce0146100f9578063307a22a214610117575b600080fd5b6100f76100f23660046106b8565b6101c0565b005b610101610257565b60405161010e919061076f565b60405180910390f35b6101016101253660046106b8565b61026e565b610132610288565b60405161010e919061080e565b61014761028e565b60405161010e919061075b565b6101326101623660046106b8565b61029d565b6101326102af565b6100f761017d3660046106d9565b6102b5565b610147610373565b610101610382565b6100f76101a03660046106b8565b610393565b6100f76101b33660046106b8565b61045e565b6101476104f7565b6101c8610257565b6101ed5760405162461bcd60e51b81526004016101e4906107d7565b60405180910390fd5b6001600160a01b03811661020057600080fd5b6001805473ffffffffffffffffffffffffffffffffffffffff19166001600160a01b0383169081179091556040517fe3f4a4b5b74aa6830627cb87c50cf7d4ed56e9b246729179ba634bbdc873177a90600090a250565b6000546201000090046001600160a01b0316331490565b6000546201000090046001600160a01b031615155b919050565b60385481565b6001546001600160a01b031681565b60396020526000908152604090205481565b60375481565b600054610100900460ff16806102ce575060005460ff16155b6102ea5760405162461bcd60e51b81526004016101e49061077a565b600054610100900460ff16158015610315576000805460ff1961ff0019909116610100171660011790555b61031e83610393565b610328858561050c565b6036805473ffffffffffffffffffffffffffffffffffffffff19166001600160a01b038416179055601d6037556001603855801561036c576000805461ff00191690555b5050505050565b6036546001600160a01b031681565b6001546001600160a01b0316331490565b600054610100900460ff16806103ac575060005460ff16155b6103c85760405162461bcd60e51b81526004016101e49061077a565b600054610100900460ff161580156103f3576000805460ff1961ff0019909116610100171660011790555b6000805475ffffffffffffffffffffffffffffffffffffffff00001916620100006001600160a01b038516908102919091179091556001805473ffffffffffffffffffffffffffffffffffffffff19169091179055801561045a576000805461ff00191690555b5050565b610466610257565b6104825760405162461bcd60e51b81526004016101e4906107d7565b6001600160a01b03811661049557600080fd5b6000805475ffffffffffffffffffffffffffffffffffffffff00001916620100006001600160a01b038416908102919091178255604051909133917f8be0079c531659141344cd1fd0a4f28419497f9722a3daafe3b4186f6b6457e09190a350565b6000546201000090046001600160a01b031681565b600054610100900460ff1680610525575060005460ff16155b6105415760405162461bcd60e51b81526004016101e49061077a565b600054610100900460ff1615801561056c576000805460ff1961ff0019909116610100171660011790555b610576838361058d565b8015610588576000805461ff00191690555b505050565b600054610100900460ff16806105a6575060005460ff16155b6105c25760405162461bcd60e51b81526004016101e49061077a565b600054610100900460ff161580156105ed576000805460ff1961ff0019909116610100171660011790555b82516020808501919091208351918401919091206002919091556003558015610588576000805461ff0019169055505050565b80356001600160a01b038116811461028357600080fd5b600082601f830112610647578081fd5b813567ffffffffffffffff8082111561066257610662610817565b604051601f8301601f19168101602001828111828210171561068657610686610817565b60405282815284830160200186101561069d578384fd5b82602086016020830137918201602001929092529392505050565b6000602082840312156106c9578081fd5b6106d282610620565b9392505050565b600080600080608085870312156106ee578283fd5b843567ffffffffffffffff80821115610705578485fd5b61071188838901610637565b95506020870135915080821115610726578485fd5b5061073387828801610637565b93505061074260408601610620565b915061075060608601610620565b905092959194509250565b6001600160a01b0391909116815260200190565b901515815260200190565b6020808252602e908201527f496e697469616c697a61626c653a20636f6e747261637420697320616c72656160408201527f647920696e697469616c697a6564000000000000000000000000000000000000606082015260800190565b6020808252600d908201527f6f6e6c794d61696e41646d696e00000000000000000000000000000000000000604082015260600190565b90815260200190565b7f4e487b7100000000000000000000000000000000000000000000000000000000600052604160045260246000fdfea2646970667358221220bd1214db008eac91930a8ccd93af51bd9c0713501de7febc7b94fea10452447264736f6c63430008000033",
  "immutableReferences": {},
  "source": "// SPDX-License-Identifier: GPL\n\npragma solidity 0.8.0;\n\nimport \"@openzeppelin/contracts-upgradeable/utils/cryptography/ECDSAUpgradeable.sol\";\nimport \"@openzeppelin/contracts-upgradeable/utils/cryptography/draft-EIP712Upgradeable.sol\";\nimport \"../libs/fota/Auth.sol\";\nimport \"../interfaces/IEnergyManager.sol\";\n\ncontract FOTAGamePVE is Auth, EIP712Upgradeable {\n\n  IEnergyManager public energyManager;\n  uint public totalStations;\n  uint public energyConsumption;\n  mapping (address => uint) public nonces;\n\n  event TotalStationsUpdated(uint totalStations, uint timestamp);\n  event EnergyConsumptionUpdated(uint energyConsumption);\n\n  function initialize(\n    string memory _name,\n    string memory _version,\n    address _mainAdmin,\n    address _energyManager\n  ) public initializer {\n    Auth.initialize(_mainAdmin);\n    EIP712Upgradeable.__EIP712_init(_name, _version);\n    energyManager = IEnergyManager(_energyManager);\n    totalStations = 29;\n    energyConsumption = 1;\n  }\n\n  function validateInviter(address _inviter) external view returns (bool) {\n    _inviter;\n    return mainAdmin != address(0);\n  }\n}\n",
  "sourcePath": "/Users/binh/Documents/Development/Solidity/fota-dapp/contracts/games/pve.sol",
  "compiler": {
    "name": "solc",
    "version": "0.8.0+commit.c7dfd78e.Emscripten.clang"
  },
  "schemaVersion": "3.3.4",
  "updatedAt": "2022-01-05T07:37:06.402Z",
  "networkType": "ethereum",
  "devdoc": {
    "kind": "dev",
    "methods": {},
    "version": 1
  },
  "userdoc": {
    "kind": "user",
    "methods": {},
    "version": 1
  }
}