{
  "contractName": "GameMiningPool",
  "abi": [
    {
      "anonymous": false,
      "inputs": [
        {
          "indexed": true,
          "internalType": "address",
          "name": "_newOwner",
          "type": "address"
        }
      ],
      "name": "ContractAdminUpdated",
      "type": "event"
    },
    {
      "anonymous": false,
      "inputs": [
        {
          "indexed": true,
          "internalType": "address",
          "name": "_previousOwner",
          "type": "address"
        },
        {
          "indexed": true,
          "internalType": "address",
          "name": "_newOwner",
          "type": "address"
        }
      ],
      "name": "OwnershipTransferred",
      "type": "event"
    },
    {
      "inputs": [],
      "name": "_isContractAdmin",
      "outputs": [
        {
          "internalType": "bool",
          "name": "",
          "type": "bool"
        }
      ],
      "stateMutability": "view",
      "type": "function"
    },
    {
      "inputs": [],
      "name": "_isMainAdmin",
      "outputs": [
        {
          "internalType": "bool",
          "name": "",
          "type": "bool"
        }
      ],
      "stateMutability": "view",
      "type": "function"
    },
    {
      "inputs": [],
      "name": "contractAdmin",
      "outputs": [
        {
          "internalType": "address",
          "name": "",
          "type": "address"
        }
      ],
      "stateMutability": "view",
      "type": "function"
    },
    {
      "inputs": [],
      "name": "fotaToken",
      "outputs": [
        {
          "internalType": "contract IBEP20",
          "name": "",
          "type": "address"
        }
      ],
      "stateMutability": "view",
      "type": "function"
    },
    {
      "inputs": [
        {
          "internalType": "address",
          "name": "",
          "type": "address"
        }
      ],
      "name": "gameAddresses",
      "outputs": [
        {
          "internalType": "bool",
          "name": "",
          "type": "bool"
        }
      ],
      "stateMutability": "view",
      "type": "function"
    },
    {
      "inputs": [],
      "name": "mainAdmin",
      "outputs": [
        {
          "internalType": "address",
          "name": "",
          "type": "address"
        }
      ],
      "stateMutability": "view",
      "type": "function"
    },
    {
      "inputs": [
        {
          "internalType": "address",
          "name": "_newOwner",
          "type": "address"
        }
      ],
      "name": "transferOwnership",
      "outputs": [],
      "stateMutability": "nonpayable",
      "type": "function"
    },
    {
      "inputs": [
        {
          "internalType": "address",
          "name": "_newAdmin",
          "type": "address"
        }
      ],
      "name": "updateContractAdmin",
      "outputs": [],
      "stateMutability": "nonpayable",
      "type": "function"
    },
    {
      "inputs": [
        {
          "internalType": "address",
          "name": "_mainAdmin",
          "type": "address"
        }
      ],
      "name": "initialize",
      "outputs": [],
      "stateMutability": "nonpayable",
      "type": "function"
    },
    {
      "inputs": [
        {
          "internalType": "address",
          "name": "_gameAddress",
          "type": "address"
        },
        {
          "internalType": "bool",
          "name": "_status",
          "type": "bool"
        }
      ],
      "name": "setGameAddress",
      "outputs": [],
      "stateMutability": "nonpayable",
      "type": "function"
    },
    {
      "inputs": [
        {
          "internalType": "address",
          "name": "_gamerAddress",
          "type": "address"
        },
        {
          "internalType": "uint256",
          "name": "_amount",
          "type": "uint256"
        }
      ],
      "name": "releaseGameAllocation",
      "outputs": [
        {
          "internalType": "bool",
          "name": "",
          "type": "bool"
        }
      ],
      "stateMutability": "nonpayable",
      "type": "function"
    }
  ],
  "bytecode": "0x608060405234801561001057600080fd5b50610853806100206000396000f3fe608060405234801561001057600080fd5b50600436106100c95760003560e01c80637795524511610081578063d768e1211161005b578063d768e1211461015f578063f2fde38b14610172578063fb6b04ba14610185576100c9565b8063779552451461013c578063b7d6caec14610144578063c4d66de81461014c576100c9565b806348d002f2116100b257806348d002f21461010157806361341722146101165780636757a2ba14610129576100c9565b806302e65b8a146100ce57806311541ce0146100e3575b600080fd5b6100e16100dc366004610610565b61018d565b005b6100eb610224565b6040516100f891906106d9565b60405180910390f35b61010961023b565b6040516100f891906106ac565b6100e1610124366004610631565b61024a565b6100eb610137366004610667565b6102bf565b610109610395565b6100eb6103a4565b6100e161015a366004610610565b6103b5565b6100eb61016d366004610610565b610467565b6100e1610180366004610610565b61047c565b610109610515565b610195610224565b6101ba5760405162461bcd60e51b81526004016101b190610741565b60405180910390fd5b6001600160a01b0381166101cd57600080fd5b6001805473ffffffffffffffffffffffffffffffffffffffff19166001600160a01b0383169081179091556040517fe3f4a4b5b74aa6830627cb87c50cf7d4ed56e9b246729179ba634bbdc873177a90600090a250565b6000546201000090046001600160a01b0316331490565b6003546001600160a01b031681565b610252610224565b61026e5760405162461bcd60e51b81526004016101b190610741565b6001600160a01b0382166102945760405162461bcd60e51b81526004016101b190610778565b6001600160a01b03919091166000908152600260205260409020805460ff1916911515919091179055565b3360009081526002602052604081205460ff166102ee5760405162461bcd60e51b81526004016101b1906107d5565b6003546040517fa9059cbb0000000000000000000000000000000000000000000000000000000081526001600160a01b039091169063a9059cbb9061033990869086906004016106c0565b602060405180830381600087803b15801561035357600080fd5b505af1158015610367573d6000803e3d6000fd5b505050506040513d601f19601f8201168201806040525081019061038b9190610690565b5060019392505050565b6001546001600160a01b031681565b6001546001600160a01b0316331490565b600054610100900460ff16806103ce575060005460ff16155b6103ea5760405162461bcd60e51b81526004016101b1906106e4565b600054610100900460ff16158015610415576000805460ff1961ff0019909116610100171660011790555b61041e8261052a565b6003805473ffffffffffffffffffffffffffffffffffffffff1916730a4e1bdfa75292a98c15870aef24bd94bffe0bd41790558015610463576000805461ff00191690555b5050565b60026020526000908152604090205460ff1681565b610484610224565b6104a05760405162461bcd60e51b81526004016101b190610741565b6001600160a01b0381166104b357600080fd5b6000805475ffffffffffffffffffffffffffffffffffffffff00001916620100006001600160a01b038416908102919091178255604051909133917f8be0079c531659141344cd1fd0a4f28419497f9722a3daafe3b4186f6b6457e09190a350565b6000546201000090046001600160a01b031681565b600054610100900460ff1680610543575060005460ff16155b61055f5760405162461bcd60e51b81526004016101b1906106e4565b600054610100900460ff1615801561058a576000805460ff1961ff0019909116610100171660011790555b6000805475ffffffffffffffffffffffffffffffffffffffff00001916620100006001600160a01b038516908102919091179091556001805473ffffffffffffffffffffffffffffffffffffffff191690911790558015610463576000805461ff00191690555050565b80356001600160a01b038116811461060b57600080fd5b919050565b600060208284031215610621578081fd5b61062a826105f4565b9392505050565b60008060408385031215610643578081fd5b61064c836105f4565b9150602083013561065c8161080c565b809150509250929050565b60008060408385031215610679578182fd5b610682836105f4565b946020939093013593505050565b6000602082840312156106a1578081fd5b815161062a8161080c565b6001600160a01b0391909116815260200190565b6001600160a01b03929092168252602082015260400190565b901515815260200190565b6020808252602e908201527f496e697469616c697a61626c653a20636f6e747261637420697320616c72656160408201527f647920696e697469616c697a6564000000000000000000000000000000000000606082015260800190565b6020808252600d908201527f6f6e6c794d61696e41646d696e00000000000000000000000000000000000000604082015260600190565b60208082526030908201527f47616d654d696e696e67506f6f6c3a2067616d6520616464726573732069732060408201527f746865207a65726f206164647265737300000000000000000000000000000000606082015260800190565b6020808252601e908201527f47616d654d696e696e67506f6f6c3a20696e76616c69642063616c6c65720000604082015260600190565b801515811461081a57600080fd5b5056fea264697066735822122087a02a2343d215d6582b035708f131dfc3449e0dfc2e84e048bcadd35b64a9b064736f6c63430008000033",
  "immutableReferences": {},
  "source": "// SPDX-License-Identifier: GPL\n\npragma solidity 0.8.0;\n\nimport \"./libs/fota/Auth.sol\";\nimport \"./libs/zeppelin/token/BEP20/IBEP20.sol\";\n\ncontract GameMiningPool is Auth {\n\n  mapping (address => bool) public gameAddresses;\n  IBEP20 public fotaToken;\n\n  modifier onlyGameContract() {\n    require(gameAddresses[msg.sender], \"GameMiningPool: invalid caller\");\n    _;\n  }\n\n  function initialize(\n    address _mainAdmin\n  ) override public initializer {\n    Auth.initialize(_mainAdmin);\n    fotaToken = IBEP20(0x0A4E1BdFA75292A98C15870AeF24bd94BFFe0Bd4);\n  }\n\n  function setGameAddress(address _gameAddress, bool _status) external onlyMainAdmin {\n    require(_gameAddress != address(0), \"GameMiningPool: game address is the zero address\");\n    gameAddresses[_gameAddress] = _status;\n  }\n\n  function releaseGameAllocation(address _gamerAddress, uint _amount) external onlyGameContract returns (bool) {\n    fotaToken.transfer(_gamerAddress, _amount);\n    return true;\n  }\n}\n",
  "sourcePath": "/Users/binh/Documents/Development/Solidity/fota-dapp/contracts/GameMiningPool.sol",
  "compiler": {
    "name": "solc",
    "version": "0.8.0+commit.c7dfd78e.Emscripten.clang"
  },
  "schemaVersion": "3.3.4",
  "updatedAt": "2022-01-05T05:27:45.961Z",
  "devdoc": {
    "kind": "dev",
    "methods": {},
    "version": 1
  },
  "userdoc": {
    "kind": "user",
    "methods": {},
    "version": 1
  }
}