{
  "contractName": "HeroNFT",
  "abi": [
    {
      "anonymous": false,
      "inputs": [
        {
          "indexed": true,
          "internalType": "address",
          "name": "owner",
          "type": "address"
        },
        {
          "indexed": true,
          "internalType": "address",
          "name": "approved",
          "type": "address"
        },
        {
          "indexed": true,
          "internalType": "uint256",
          "name": "tokenId",
          "type": "uint256"
        }
      ],
      "name": "Approval",
      "type": "event"
    },
    {
      "anonymous": false,
      "inputs": [
        {
          "indexed": true,
          "internalType": "address",
          "name": "owner",
          "type": "address"
        },
        {
          "indexed": true,
          "internalType": "address",
          "name": "operator",
          "type": "address"
        },
        {
          "indexed": false,
          "internalType": "bool",
          "name": "approved",
          "type": "bool"
        }
      ],
      "name": "ApprovalForAll",
      "type": "event"
    },
    {
      "anonymous": false,
      "inputs": [
        {
          "indexed": false,
          "internalType": "uint16",
          "name": "classId",
          "type": "uint16"
        },
        {
          "indexed": false,
          "internalType": "uint256[6]",
          "name": "baseStrength",
          "type": "uint256[6]"
        }
      ],
      "name": "BaseStrengthUpdated",
      "type": "event"
    },
    {
      "anonymous": false,
      "inputs": [
        {
          "indexed": true,
          "internalType": "address",
          "name": "_newOwner",
          "type": "address"
        }
      ],
      "name": "ContractAdminUpdated",
      "type": "event"
    },
    {
      "anonymous": false,
      "inputs": [
        {
          "indexed": false,
          "internalType": "uint16",
          "name": "level",
          "type": "uint16"
        },
        {
          "indexed": false,
          "internalType": "uint32",
          "name": "experience",
          "type": "uint32"
        }
      ],
      "name": "ExperienceCheckpointUpdated",
      "type": "event"
    },
    {
      "anonymous": false,
      "inputs": [
        {
          "indexed": false,
          "internalType": "uint256",
          "name": "tokenId",
          "type": "uint256"
        },
        {
          "indexed": false,
          "internalType": "uint32",
          "name": "experience",
          "type": "uint32"
        }
      ],
      "name": "ExperienceUp",
      "type": "event"
    },
    {
      "anonymous": false,
      "inputs": [
        {
          "indexed": false,
          "internalType": "uint256",
          "name": "tokenId",
          "type": "uint256"
        },
        {
          "indexed": false,
          "internalType": "uint256",
          "name": "amount",
          "type": "uint256"
        }
      ],
      "name": "FailedUpgradingAmountUpdated",
      "type": "event"
    },
    {
      "anonymous": false,
      "inputs": [
        {
          "indexed": false,
          "internalType": "uint16",
          "name": "classId",
          "type": "uint16"
        },
        {
          "indexed": false,
          "internalType": "string",
          "name": "klass",
          "type": "string"
        }
      ],
      "name": "HeroClassUpdated",
      "type": "event"
    },
    {
      "anonymous": false,
      "inputs": [
        {
          "indexed": false,
          "internalType": "uint256",
          "name": "tokenId",
          "type": "uint256"
        },
        {
          "indexed": false,
          "internalType": "uint8",
          "name": "level",
          "type": "uint8"
        },
        {
          "indexed": false,
          "internalType": "uint32",
          "name": "experience",
          "type": "uint32"
        },
        {
          "indexed": false,
          "internalType": "uint256[3]",
          "name": "skills",
          "type": "uint256[3]"
        }
      ],
      "name": "HeroInfoUpdated",
      "type": "event"
    },
    {
      "anonymous": false,
      "inputs": [
        {
          "indexed": false,
          "internalType": "uint16",
          "name": "classId",
          "type": "uint16"
        },
        {
          "indexed": false,
          "internalType": "string",
          "name": "name",
          "type": "string"
        }
      ],
      "name": "HeroNameUpdated",
      "type": "event"
    },
    {
      "anonymous": false,
      "inputs": [
        {
          "indexed": false,
          "internalType": "uint16",
          "name": "classId",
          "type": "uint16"
        },
        {
          "indexed": false,
          "internalType": "string",
          "name": "race",
          "type": "string"
        }
      ],
      "name": "HeroRaceUpdated",
      "type": "event"
    },
    {
      "anonymous": false,
      "inputs": [
        {
          "indexed": false,
          "internalType": "uint256",
          "name": "tokenId",
          "type": "uint256"
        },
        {
          "indexed": false,
          "internalType": "uint256",
          "name": "level",
          "type": "uint256"
        }
      ],
      "name": "LevelUp",
      "type": "event"
    },
    {
      "anonymous": false,
      "inputs": [
        {
          "indexed": false,
          "internalType": "uint256",
          "name": "tokenId",
          "type": "uint256"
        },
        {
          "indexed": false,
          "internalType": "uint256",
          "name": "minPrice",
          "type": "uint256"
        }
      ],
      "name": "MinPriceUpdated",
      "type": "event"
    },
    {
      "anonymous": false,
      "inputs": [
        {
          "indexed": false,
          "internalType": "uint16",
          "name": "classId",
          "type": "uint16"
        },
        {
          "indexed": false,
          "internalType": "string",
          "name": "klass",
          "type": "string"
        },
        {
          "indexed": false,
          "internalType": "uint256[6]",
          "name": "strengths",
          "type": "uint256[6]"
        }
      ],
      "name": "NewClassAdded",
      "type": "event"
    },
    {
      "anonymous": false,
      "inputs": [
        {
          "indexed": false,
          "internalType": "uint256",
          "name": "tokenId",
          "type": "uint256"
        },
        {
          "indexed": false,
          "internalType": "uint256",
          "name": "ownPrice",
          "type": "uint256"
        }
      ],
      "name": "OwnPriceUpdated",
      "type": "event"
    },
    {
      "anonymous": false,
      "inputs": [
        {
          "indexed": true,
          "internalType": "address",
          "name": "_previousOwner",
          "type": "address"
        },
        {
          "indexed": true,
          "internalType": "address",
          "name": "_newOwner",
          "type": "address"
        }
      ],
      "name": "OwnershipTransferred",
      "type": "event"
    },
    {
      "anonymous": false,
      "inputs": [
        {
          "indexed": false,
          "internalType": "uint256",
          "name": "tokenId",
          "type": "uint256"
        },
        {
          "indexed": false,
          "internalType": "uint256",
          "name": "index",
          "type": "uint256"
        },
        {
          "indexed": false,
          "internalType": "uint256",
          "name": "level",
          "type": "uint256"
        }
      ],
      "name": "SkillUp",
      "type": "event"
    },
    {
      "anonymous": false,
      "inputs": [
        {
          "indexed": false,
          "internalType": "uint16",
          "name": "classId",
          "type": "uint16"
        },
        {
          "indexed": false,
          "internalType": "uint256[6]",
          "name": "strengthBonus",
          "type": "uint256[6]"
        }
      ],
      "name": "StrengthBonusUpdated",
      "type": "event"
    },
    {
      "anonymous": false,
      "inputs": [
        {
          "indexed": true,
          "internalType": "address",
          "name": "from",
          "type": "address"
        },
        {
          "indexed": true,
          "internalType": "address",
          "name": "to",
          "type": "address"
        },
        {
          "indexed": true,
          "internalType": "uint256",
          "name": "tokenId",
          "type": "uint256"
        }
      ],
      "name": "Transfer",
      "type": "event"
    },
    {
      "inputs": [],
      "name": "_isContractAdmin",
      "outputs": [
        {
          "internalType": "bool",
          "name": "",
          "type": "bool"
        }
      ],
      "stateMutability": "view",
      "type": "function",
      "constant": true
    },
    {
      "inputs": [],
      "name": "_isMainAdmin",
      "outputs": [
        {
          "internalType": "bool",
          "name": "",
          "type": "bool"
        }
      ],
      "stateMutability": "view",
      "type": "function",
      "constant": true
    },
    {
      "inputs": [
        {
          "internalType": "address",
          "name": "to",
          "type": "address"
        },
        {
          "internalType": "uint256",
          "name": "tokenId",
          "type": "uint256"
        }
      ],
      "name": "approve",
      "outputs": [],
      "stateMutability": "nonpayable",
      "type": "function"
    },
    {
      "inputs": [
        {
          "internalType": "address",
          "name": "owner",
          "type": "address"
        }
      ],
      "name": "balanceOf",
      "outputs": [
        {
          "internalType": "uint256",
          "name": "",
          "type": "uint256"
        }
      ],
      "stateMutability": "view",
      "type": "function",
      "constant": true
    },
    {
      "inputs": [
        {
          "internalType": "uint256",
          "name": "tokenId",
          "type": "uint256"
        }
      ],
      "name": "burn",
      "outputs": [],
      "stateMutability": "nonpayable",
      "type": "function"
    },
    {
      "inputs": [],
      "name": "contractAdmin",
      "outputs": [
        {
          "internalType": "address",
          "name": "",
          "type": "address"
        }
      ],
      "stateMutability": "view",
      "type": "function",
      "constant": true
    },
    {
      "inputs": [],
      "name": "countId",
      "outputs": [
        {
          "internalType": "uint16",
          "name": "",
          "type": "uint16"
        }
      ],
      "stateMutability": "view",
      "type": "function",
      "constant": true
    },
    {
      "inputs": [
        {
          "internalType": "uint16",
          "name": "",
          "type": "uint16"
        }
      ],
      "name": "creators",
      "outputs": [
        {
          "internalType": "address",
          "name": "",
          "type": "address"
        }
      ],
      "stateMutability": "view",
      "type": "function",
      "constant": true
    },
    {
      "inputs": [
        {
          "internalType": "uint8",
          "name": "",
          "type": "uint8"
        }
      ],
      "name": "experienceCheckpoint",
      "outputs": [
        {
          "internalType": "uint32",
          "name": "",
          "type": "uint32"
        }
      ],
      "stateMutability": "view",
      "type": "function",
      "constant": true
    },
    {
      "inputs": [
        {
          "internalType": "address",
          "name": "",
          "type": "address"
        }
      ],
      "name": "gameContracts",
      "outputs": [
        {
          "internalType": "bool",
          "name": "",
          "type": "bool"
        }
      ],
      "stateMutability": "view",
      "type": "function",
      "constant": true
    },
    {
      "inputs": [
        {
          "internalType": "uint256",
          "name": "tokenId",
          "type": "uint256"
        }
      ],
      "name": "getApproved",
      "outputs": [
        {
          "internalType": "address",
          "name": "",
          "type": "address"
        }
      ],
      "stateMutability": "view",
      "type": "function",
      "constant": true
    },
    {
      "inputs": [
        {
          "internalType": "uint256",
          "name": "",
          "type": "uint256"
        }
      ],
      "name": "heroes",
      "outputs": [
        {
          "internalType": "uint16",
          "name": "id",
          "type": "uint16"
        },
        {
          "internalType": "uint256",
          "name": "createdAt",
          "type": "uint256"
        },
        {
          "internalType": "uint8",
          "name": "level",
          "type": "uint8"
        },
        {
          "internalType": "uint32",
          "name": "experience",
          "type": "uint32"
        },
        {
          "internalType": "uint256",
          "name": "ownPrice",
          "type": "uint256"
        },
        {
          "internalType": "uint256",
          "name": "failedUpgradingAmount",
          "type": "uint256"
        }
      ],
      "stateMutability": "view",
      "type": "function",
      "constant": true
    },
    {
      "inputs": [
        {
          "internalType": "address",
          "name": "owner",
          "type": "address"
        },
        {
          "internalType": "address",
          "name": "operator",
          "type": "address"
        }
      ],
      "name": "isApprovedForAll",
      "outputs": [
        {
          "internalType": "bool",
          "name": "",
          "type": "bool"
        }
      ],
      "stateMutability": "view",
      "type": "function",
      "constant": true
    },
    {
      "inputs": [],
      "name": "mainAdmin",
      "outputs": [
        {
          "internalType": "address",
          "name": "",
          "type": "address"
        }
      ],
      "stateMutability": "view",
      "type": "function",
      "constant": true
    },
    {
      "inputs": [
        {
          "internalType": "uint16",
          "name": "",
          "type": "uint16"
        }
      ],
      "name": "mappingHeroClass",
      "outputs": [
        {
          "internalType": "string",
          "name": "",
          "type": "string"
        }
      ],
      "stateMutability": "view",
      "type": "function",
      "constant": true
    },
    {
      "inputs": [
        {
          "internalType": "uint16",
          "name": "",
          "type": "uint16"
        }
      ],
      "name": "mappingHeroName",
      "outputs": [
        {
          "internalType": "string",
          "name": "",
          "type": "string"
        }
      ],
      "stateMutability": "view",
      "type": "function",
      "constant": true
    },
    {
      "inputs": [
        {
          "internalType": "uint16",
          "name": "",
          "type": "uint16"
        }
      ],
      "name": "mappingHeroRace",
      "outputs": [
        {
          "internalType": "string",
          "name": "",
          "type": "string"
        }
      ],
      "stateMutability": "view",
      "type": "function",
      "constant": true
    },
    {
      "inputs": [
        {
          "internalType": "address",
          "name": "",
          "type": "address"
        }
      ],
      "name": "mintAdmins",
      "outputs": [
        {
          "internalType": "bool",
          "name": "",
          "type": "bool"
        }
      ],
      "stateMutability": "view",
      "type": "function",
      "constant": true
    },
    {
      "inputs": [],
      "name": "name",
      "outputs": [
        {
          "internalType": "string",
          "name": "",
          "type": "string"
        }
      ],
      "stateMutability": "view",
      "type": "function",
      "constant": true
    },
    {
      "inputs": [
        {
          "internalType": "address",
          "name": "",
          "type": "address"
        }
      ],
      "name": "nonces",
      "outputs": [
        {
          "internalType": "uint256",
          "name": "",
          "type": "uint256"
        }
      ],
      "stateMutability": "view",
      "type": "function",
      "constant": true
    },
    {
      "inputs": [
        {
          "internalType": "uint256",
          "name": "tokenId",
          "type": "uint256"
        }
      ],
      "name": "ownerOf",
      "outputs": [
        {
          "internalType": "address",
          "name": "",
          "type": "address"
        }
      ],
      "stateMutability": "view",
      "type": "function",
      "constant": true
    },
    {
      "inputs": [
        {
          "internalType": "address",
          "name": "from",
          "type": "address"
        },
        {
          "internalType": "address",
          "name": "to",
          "type": "address"
        },
        {
          "internalType": "uint256",
          "name": "tokenId",
          "type": "uint256"
        }
      ],
      "name": "safeTransferFrom",
      "outputs": [],
      "stateMutability": "nonpayable",
      "type": "function"
    },
    {
      "inputs": [
        {
          "internalType": "address",
          "name": "from",
          "type": "address"
        },
        {
          "internalType": "address",
          "name": "to",
          "type": "address"
        },
        {
          "internalType": "uint256",
          "name": "tokenId",
          "type": "uint256"
        },
        {
          "internalType": "bytes",
          "name": "_data",
          "type": "bytes"
        }
      ],
      "name": "safeTransferFrom",
      "outputs": [],
      "stateMutability": "nonpayable",
      "type": "function"
    },
    {
      "inputs": [
        {
          "internalType": "address",
          "name": "operator",
          "type": "address"
        },
        {
          "internalType": "bool",
          "name": "approved",
          "type": "bool"
        }
      ],
      "name": "setApprovalForAll",
      "outputs": [],
      "stateMutability": "nonpayable",
      "type": "function"
    },
    {
      "inputs": [
        {
          "internalType": "uint16",
          "name": "_class",
          "type": "uint16"
        },
        {
          "internalType": "address",
          "name": "_creator",
          "type": "address"
        }
      ],
      "name": "setCreator",
      "outputs": [],
      "stateMutability": "nonpayable",
      "type": "function"
    },
    {
      "inputs": [
        {
          "internalType": "bytes4",
          "name": "interfaceId",
          "type": "bytes4"
        }
      ],
      "name": "supportsInterface",
      "outputs": [
        {
          "internalType": "bool",
          "name": "",
          "type": "bool"
        }
      ],
      "stateMutability": "view",
      "type": "function",
      "constant": true
    },
    {
      "inputs": [],
      "name": "symbol",
      "outputs": [
        {
          "internalType": "string",
          "name": "",
          "type": "string"
        }
      ],
      "stateMutability": "view",
      "type": "function",
      "constant": true
    },
    {
      "inputs": [
        {
          "internalType": "uint256",
          "name": "tokenId",
          "type": "uint256"
        }
      ],
      "name": "tokenURI",
      "outputs": [
        {
          "internalType": "string",
          "name": "",
          "type": "string"
        }
      ],
      "stateMutability": "view",
      "type": "function",
      "constant": true
    },
    {
      "inputs": [
        {
          "internalType": "address",
          "name": "from",
          "type": "address"
        },
        {
          "internalType": "address",
          "name": "to",
          "type": "address"
        },
        {
          "internalType": "uint256",
          "name": "tokenId",
          "type": "uint256"
        }
      ],
      "name": "transferFrom",
      "outputs": [],
      "stateMutability": "nonpayable",
      "type": "function"
    },
    {
      "inputs": [
        {
          "internalType": "address",
          "name": "_newOwner",
          "type": "address"
        }
      ],
      "name": "transferOwnership",
      "outputs": [],
      "stateMutability": "nonpayable",
      "type": "function"
    },
    {
      "inputs": [
        {
          "internalType": "address",
          "name": "",
          "type": "address"
        }
      ],
      "name": "transferable",
      "outputs": [
        {
          "internalType": "bool",
          "name": "",
          "type": "bool"
        }
      ],
      "stateMutability": "view",
      "type": "function",
      "constant": true
    },
    {
      "inputs": [
        {
          "internalType": "address",
          "name": "_newAdmin",
          "type": "address"
        }
      ],
      "name": "updateContractAdmin",
      "outputs": [],
      "stateMutability": "nonpayable",
      "type": "function"
    },
    {
      "inputs": [
        {
          "internalType": "address",
          "name": "_contract",
          "type": "address"
        },
        {
          "internalType": "bool",
          "name": "_status",
          "type": "bool"
        }
      ],
      "name": "updateGameContract",
      "outputs": [],
      "stateMutability": "nonpayable",
      "type": "function"
    },
    {
      "inputs": [
        {
          "internalType": "address",
          "name": "_address",
          "type": "address"
        },
        {
          "internalType": "bool",
          "name": "_mintAble",
          "type": "bool"
        }
      ],
      "name": "updateMintAdmin",
      "outputs": [],
      "stateMutability": "nonpayable",
      "type": "function"
    },
    {
      "inputs": [
        {
          "internalType": "address",
          "name": "_address",
          "type": "address"
        },
        {
          "internalType": "bool",
          "name": "_transferable",
          "type": "bool"
        }
      ],
      "name": "updateTransferable",
      "outputs": [],
      "stateMutability": "nonpayable",
      "type": "function"
    },
    {
      "inputs": [
        {
          "internalType": "address",
          "name": "_contract",
          "type": "address"
        }
      ],
      "name": "updateUpgradingContract",
      "outputs": [],
      "stateMutability": "nonpayable",
      "type": "function"
    },
    {
      "inputs": [],
      "name": "upgradingContract",
      "outputs": [
        {
          "internalType": "address",
          "name": "",
          "type": "address"
        }
      ],
      "stateMutability": "view",
      "type": "function",
      "constant": true
    },
    {
      "inputs": [
        {
          "internalType": "address",
          "name": "_mainAdmin",
          "type": "address"
        },
        {
          "internalType": "string",
          "name": "_name",
          "type": "string"
        },
        {
          "internalType": "string",
          "name": "_symbol",
          "type": "string"
        }
      ],
      "name": "initialize",
      "outputs": [],
      "stateMutability": "nonpayable",
      "type": "function"
    },
    {
      "inputs": [
        {
          "internalType": "address",
          "name": "_mainAdmin",
          "type": "address"
        }
      ],
      "name": "initialize",
      "outputs": [],
      "stateMutability": "nonpayable",
      "type": "function"
    },
    {
      "inputs": [
        {
          "internalType": "address",
          "name": "_owner",
          "type": "address"
        },
        {
          "internalType": "uint16",
          "name": "_classId",
          "type": "uint16"
        },
        {
          "internalType": "uint256",
          "name": "_price",
          "type": "uint256"
        },
        {
          "internalType": "uint256",
          "name": "_index",
          "type": "uint256"
        }
      ],
      "name": "mintHero",
      "outputs": [
        {
          "internalType": "uint256",
          "name": "",
          "type": "uint256"
        }
      ],
      "stateMutability": "nonpayable",
      "type": "function"
    },
    {
      "inputs": [
        {
          "internalType": "address",
          "name": "_owner",
          "type": "address"
        },
        {
          "internalType": "uint16",
          "name": "_classId",
          "type": "uint16"
        },
        {
          "internalType": "uint256",
          "name": "_price",
          "type": "uint256"
        },
        {
          "internalType": "uint256",
          "name": "_quantity",
          "type": "uint256"
        }
      ],
      "name": "mintHeroes",
      "outputs": [],
      "stateMutability": "nonpayable",
      "type": "function"
    },
    {
      "inputs": [
        {
          "internalType": "uint256",
          "name": "_tokenId",
          "type": "uint256"
        }
      ],
      "name": "getHero",
      "outputs": [
        {
          "internalType": "string",
          "name": "",
          "type": "string"
        },
        {
          "internalType": "string",
          "name": "",
          "type": "string"
        },
        {
          "internalType": "string",
          "name": "",
          "type": "string"
        },
        {
          "internalType": "uint16",
          "name": "",
          "type": "uint16"
        },
        {
          "internalType": "uint256",
          "name": "",
          "type": "uint256"
        },
        {
          "internalType": "uint8",
          "name": "",
          "type": "uint8"
        },
        {
          "internalType": "uint32",
          "name": "",
          "type": "uint32"
        }
      ],
      "stateMutability": "view",
      "type": "function",
      "constant": true
    },
    {
      "inputs": [
        {
          "internalType": "uint256",
          "name": "_tokenId",
          "type": "uint256"
        }
      ],
      "name": "getHeroSkills",
      "outputs": [
        {
          "internalType": "uint256",
          "name": "",
          "type": "uint256"
        },
        {
          "internalType": "uint256",
          "name": "",
          "type": "uint256"
        },
        {
          "internalType": "uint256",
          "name": "",
          "type": "uint256"
        }
      ],
      "stateMutability": "view",
      "type": "function",
      "constant": true
    },
    {
      "inputs": [
        {
          "internalType": "uint256",
          "name": "_tokenId",
          "type": "uint256"
        }
      ],
      "name": "getHeroPrices",
      "outputs": [
        {
          "internalType": "uint256",
          "name": "",
          "type": "uint256"
        },
        {
          "internalType": "uint256",
          "name": "",
          "type": "uint256"
        }
      ],
      "stateMutability": "view",
      "type": "function",
      "constant": true
    },
    {
      "inputs": [
        {
          "internalType": "uint256",
          "name": "_tokenId",
          "type": "uint256"
        }
      ],
      "name": "getClassId",
      "outputs": [
        {
          "internalType": "uint16",
          "name": "",
          "type": "uint16"
        }
      ],
      "stateMutability": "view",
      "type": "function",
      "constant": true
    },
    {
      "inputs": [
        {
          "internalType": "uint256",
          "name": "_tokenId",
          "type": "uint256"
        }
      ],
      "name": "getCreator",
      "outputs": [
        {
          "internalType": "address",
          "name": "",
          "type": "address"
        }
      ],
      "stateMutability": "view",
      "type": "function",
      "constant": true
    },
    {
      "inputs": [
        {
          "internalType": "uint16",
          "name": "_classId",
          "type": "uint16"
        }
      ],
      "name": "getStrengthIndexReferences",
      "outputs": [
        {
          "internalType": "uint256",
          "name": "",
          "type": "uint256"
        },
        {
          "internalType": "uint256",
          "name": "",
          "type": "uint256"
        },
        {
          "internalType": "uint256",
          "name": "",
          "type": "uint256"
        },
        {
          "internalType": "uint256",
          "name": "",
          "type": "uint256"
        },
        {
          "internalType": "uint256",
          "name": "",
          "type": "uint256"
        },
        {
          "internalType": "uint256",
          "name": "",
          "type": "uint256"
        }
      ],
      "stateMutability": "view",
      "type": "function",
      "constant": true
    },
    {
      "inputs": [
        {
          "internalType": "uint16",
          "name": "_classId",
          "type": "uint16"
        }
      ],
      "name": "getStrengthBonuses",
      "outputs": [
        {
          "internalType": "uint256",
          "name": "",
          "type": "uint256"
        },
        {
          "internalType": "uint256",
          "name": "",
          "type": "uint256"
        },
        {
          "internalType": "uint256",
          "name": "",
          "type": "uint256"
        },
        {
          "internalType": "uint256",
          "name": "",
          "type": "uint256"
        },
        {
          "internalType": "uint256",
          "name": "",
          "type": "uint256"
        },
        {
          "internalType": "uint256",
          "name": "",
          "type": "uint256"
        }
      ],
      "stateMutability": "view",
      "type": "function",
      "constant": true
    },
    {
      "inputs": [
        {
          "internalType": "uint16",
          "name": "_classId",
          "type": "uint16"
        },
        {
          "internalType": "uint256[6]",
          "name": "_strengths",
          "type": "uint256[6]"
        }
      ],
      "name": "updateBaseStrengths",
      "outputs": [],
      "stateMutability": "nonpayable",
      "type": "function"
    },
    {
      "inputs": [
        {
          "internalType": "uint16",
          "name": "_classId",
          "type": "uint16"
        },
        {
          "internalType": "uint256[6]",
          "name": "_strengthBonuses",
          "type": "uint256[6]"
        }
      ],
      "name": "updateStrengthBonus",
      "outputs": [],
      "stateMutability": "nonpayable",
      "type": "function"
    },
    {
      "inputs": [
        {
          "internalType": "uint8",
          "name": "_level",
          "type": "uint8"
        },
        {
          "internalType": "uint32",
          "name": "_experience",
          "type": "uint32"
        }
      ],
      "name": "updateExperienceCheckpoint",
      "outputs": [],
      "stateMutability": "nonpayable",
      "type": "function"
    },
    {
      "inputs": [
        {
          "internalType": "uint256",
          "name": "_tokenId",
          "type": "uint256"
        },
        {
          "internalType": "uint256",
          "name": "_ownPrice",
          "type": "uint256"
        }
      ],
      "name": "updateOwnPrice",
      "outputs": [],
      "stateMutability": "nonpayable",
      "type": "function"
    },
    {
      "inputs": [
        {
          "internalType": "uint256",
          "name": "_tokenId",
          "type": "uint256"
        },
        {
          "internalType": "uint256",
          "name": "_amount",
          "type": "uint256"
        }
      ],
      "name": "updateFailedUpgradingAmount",
      "outputs": [],
      "stateMutability": "nonpayable",
      "type": "function"
    },
    {
      "inputs": [
        {
          "internalType": "uint256",
          "name": "_tokenId",
          "type": "uint256"
        },
        {
          "internalType": "uint32",
          "name": "_experience",
          "type": "uint32"
        }
      ],
      "name": "experienceUp",
      "outputs": [],
      "stateMutability": "nonpayable",
      "type": "function"
    },
    {
      "inputs": [
        {
          "internalType": "uint256",
          "name": "_tokenId",
          "type": "uint256"
        },
        {
          "internalType": "uint8",
          "name": "_index",
          "type": "uint8"
        }
      ],
      "name": "skillUp",
      "outputs": [],
      "stateMutability": "nonpayable",
      "type": "function"
    },
    {
      "inputs": [
        {
          "internalType": "string",
          "name": "_race",
          "type": "string"
        },
        {
          "internalType": "string",
          "name": "_class",
          "type": "string"
        },
        {
          "internalType": "string",
          "name": "_name",
          "type": "string"
        },
        {
          "internalType": "uint256[6]",
          "name": "_strengths",
          "type": "uint256[6]"
        },
        {
          "internalType": "address",
          "name": "_creator",
          "type": "address"
        }
      ],
      "name": "addHeroClass",
      "outputs": [],
      "stateMutability": "nonpayable",
      "type": "function"
    },
    {
      "inputs": [
        {
          "internalType": "uint16",
          "name": "_classId",
          "type": "uint16"
        },
        {
          "internalType": "string",
          "name": "_race",
          "type": "string"
        }
      ],
      "name": "updateHeroRace",
      "outputs": [],
      "stateMutability": "nonpayable",
      "type": "function"
    },
    {
      "inputs": [
        {
          "internalType": "uint16",
          "name": "_classId",
          "type": "uint16"
        },
        {
          "internalType": "string",
          "name": "_class",
          "type": "string"
        }
      ],
      "name": "updateHeroClass",
      "outputs": [],
      "stateMutability": "nonpayable",
      "type": "function"
    },
    {
      "inputs": [
        {
          "internalType": "uint16",
          "name": "_classId",
          "type": "uint16"
        },
        {
          "internalType": "string",
          "name": "_name",
          "type": "string"
        }
      ],
      "name": "updateHeroName",
      "outputs": [],
      "stateMutability": "nonpayable",
      "type": "function"
    },
    {
      "inputs": [
        {
          "internalType": "uint256",
          "name": "_tokenId",
          "type": "uint256"
        },
        {
          "internalType": "uint8",
          "name": "_level",
          "type": "uint8"
        },
        {
          "internalType": "uint32",
          "name": "_experience",
          "type": "uint32"
        },
        {
          "internalType": "uint256[3]",
          "name": "_skills",
          "type": "uint256[3]"
        }
      ],
      "name": "updateHeroInfo",
      "outputs": [],
      "stateMutability": "nonpayable",
      "type": "function"
    }
  ],
  "bytecode": "0x608060405234801561001057600080fd5b50615b6a80620000216000396000f3fe608060405234801561001057600080fd5b50600436106103a45760003560e01c80638a8e1730116101e9578063b88d4fde1161010f578063d48e638a116100ad578063f2fde38b1161007c578063f2fde38b14610831578063fb6b04ba14610844578063fc9ebda11461084c578063fefc036d1461085f576103a4565b8063d48e638a146107e5578063e021b693146107f8578063e24994371461080b578063e985e9c51461081e576103a4565b8063c4d66de8116100e9578063c4d66de8146107a4578063c86b685e146107b7578063c87b56dd146107bf578063cc96cfe4146107d2576103a4565b8063b88d4fde1461076b578063bc8b2a431461077e578063bcc2c95914610791576103a4565b8063a22cb46511610187578063acb1e61f11610156578063acb1e61f1461071d578063ae58e70914610730578063b123f7ea14610743578063b7d6caec14610763576103a4565b8063a22cb465146106bf578063a6621b35146106d2578063a71d1a25146106e5578063a8d4a03b146106f8576103a4565b806395d89b41116101c357806395d89b411461066f5780639656d4661461067757806399052acd14610699578063a045ae98146106ac576103a4565b80638a8e17301461063457806390657147146106545780639226704314610667576103a4565b806339dcb0b9116102ce578063666c92391161026c578063779552451161023b57806377955245146105f35780637b03ae13146105fb5780637ecebe001461060e57806388e4a10f14610621576103a4565b8063666c92391461059a5780636ddd474d146105ad57806370a08231146105c057806373ef7bac146105e0576103a4565b806342966c68116102a857806342966c68146105405780634437c771146105535780635569dfd6146105745780636352211e14610587576103a4565b806339dcb0b9146105075780633ade8c681461051a57806342842e0e1461052d576103a4565b806311541ce01161034657806323b872dd1161031557806323b872dd146104bb578063299dce66146104ce57806336214046146104e1578063385ea57c146104f4576103a4565b806311541ce01461046757806317581de71461046f5780631ab5f3a31461048257806321d8011114610495576103a4565b8063081812fc11610382578063081812fc146103fc578063095ea7b31461041c5780630d8766561461042f5780630f8da34214610454576103a4565b806301ffc9a7146103a957806302e65b8a146103d257806306fdde03146103e7575b600080fd5b6103bc6103b7366004614bef565b610872565b6040516103c99190614f78565b60405180910390f35b6103e56103e036600461497a565b6108ec565b005b6103ef610976565b6040516103c99190614f83565b61040f61040a366004614d91565b610a08565b6040516103c99190614f28565b6103e561042a366004614bc6565b610a4b565b61044261043d366004614ce1565b610ae3565b6040516103c99695949392919061587f565b6103e5610462366004614e7a565b610b37565b6103bc610bbe565b6103bc61047d36600461497a565b610bd5565b6103e5610490366004614da9565b610bea565b6104a86104a3366004614d91565b610c62565b6040516103c99796959493929190614f96565b6103e56104c93660046149c6565b610e87565b6103ef6104dc366004614ce1565b610ebf565b6103e56104ef366004614cfb565b610f59565b6103ef610502366004614ce1565b610fb1565b610442610515366004614ce1565b610fca565b61040f610528366004614ce1565b61100c565b6103e561053b3660046149c6565b611027565b6103e561054e366004614d91565b611042565b610566610561366004614d91565b61108c565b6040516103c992919061585b565b6103ef610582366004614ce1565b6110a9565b61040f610595366004614d91565b6110c2565b6103e56105a8366004614d40565b6110f7565b6103bc6105bb36600461497a565b61117a565b6105d36105ce36600461497a565b61118f565b6040516103c99190615852565b6103e56105ee366004614d40565b6111d3565b61040f611249565b6103e561060936600461497a565b611258565b6105d361061c36600461497a565b6112c4565b6103e561062f366004614acd565b6112d6565b610647610642366004614d91565b61134b565b6040516103c99190615798565b6103e5610662366004614b07565b611361565b6106476113f0565b6103ef6113fa565b61068a610685366004614d91565b611409565b6040516103c993929190615869565b6103e56106a7366004614b85565b61142b565b6105d36106ba366004614b85565b61148e565b6103e56106cd366004614acd565b6114d9565b6103e56106e0366004614da9565b6115a7565b6103e56106f3366004614dca565b611621565b61070b610706366004614d91565b611822565b6040516103c99695949392919061581b565b6103bc61072b36600461497a565b611866565b6103e561073e366004614d40565b61187b565b610756610751366004614e60565b611ac6565b6040516103c99190615915565b6103bc611ade565b6103e5610779366004614a01565b611aef565b6103e561078c366004614d16565b611b2e565b6103e561079f366004614d16565b611ba3565b6103e56107b236600461497a565b611c18565b61040f611c24565b6103ef6107cd366004614d91565b611c33565b6103e56107e0366004614dec565b611cb6565b61040f6107f3366004614d91565b611e09565b6103e5610806366004614acd565b611e35565b6103e5610819366004614acd565b611eaa565b6103bc61082c366004614994565b611f1f565b6103e561083f36600461497a565b611f4f565b61040f611fe8565b6103e561085a366004614e0e565b611ffd565b6103e561086d366004614c27565b6120a7565b60006001600160e01b031982167f80ac58cd0000000000000000000000000000000000000000000000000000000014806108d557506001600160e01b031982167f5b5e139f00000000000000000000000000000000000000000000000000000000145b806108e457506108e48261227e565b90505b919050565b6108f4610bbe565b6109195760405162461bcd60e51b81526004016109109061546a565b60405180910390fd5b6001600160a01b03811661092c57600080fd5b600180546001600160a01b0319166001600160a01b0383169081179091556040517fe3f4a4b5b74aa6830627cb87c50cf7d4ed56e9b246729179ba634bbdc873177a90600090a250565b6060606a805461098590615a2e565b80601f01602080910402602001604051908101604052809291908181526020018280546109b190615a2e565b80156109fe5780601f106109d3576101008083540402835291602001916109fe565b820191906000526020600020905b8154815290600101906020018083116109e157829003601f168201915b5050505050905090565b6000610a13826122b0565b610a2f5760405162461bcd60e51b8152600401610910906154d6565b506000908152606e60205260409020546001600160a01b031690565b6000610a56826110c2565b9050806001600160a01b0316836001600160a01b03161415610a8a5760405162461bcd60e51b81526004016109109061564a565b806001600160a01b0316610a9c6122cd565b6001600160a01b03161480610ab85750610ab88161082c6122cd565b610ad45760405162461bcd60e51b81526004016109109061528a565b610ade83836122d1565b505050565b61ffff8116600090815260a5602052604081208054600182015460028301546003840154600485015486958695869586958695929491939092919060055b0154949c939b5091995097509550909350915050565b610b3f610bbe565b610b5b5760405162461bcd60e51b81526004016109109061546a565b60ff8216600090815260a6602052604090819020805463ffffffff191663ffffffff8416179055517f17d2bf124429a62e9b1d2b2d50c99a0644acc1b995842c5d7ac0c5f3fc6a28a390610bb29084908490615926565b60405180910390a15050565b6000546201000090046001600160a01b0316331490565b60346020526000908152604090205460ff1681565b610bf261233f565b80610c005750610c00610bbe565b610c1c5760405162461bcd60e51b815260040161091090615097565b6000828152609f602052604090819020600401829055517f8f21cd2a7841e8779d88a0b8dff3a4627b5fd4ead98b161abf5a398d6c8b8f8d90610bb2908490849061585b565b6000818152609f60208181526040808420805461ffff1680865260a1845282862060a2855283872060a38652938720888852959094526001820154600290920154845460609788978897919687968796879694959294909260ff821691610100900463ffffffff16908790610cd690615a2e565b80601f0160208091040260200160405190810160405280929190818152602001828054610d0290615a2e565b8015610d4f5780601f10610d2457610100808354040283529160200191610d4f565b820191906000526020600020905b815481529060010190602001808311610d3257829003601f168201915b50505050509650858054610d6290615a2e565b80601f0160208091040260200160405190810160405280929190818152602001828054610d8e90615a2e565b8015610ddb5780601f10610db057610100808354040283529160200191610ddb565b820191906000526020600020905b815481529060010190602001808311610dbe57829003601f168201915b50505050509550848054610dee90615a2e565b80601f0160208091040260200160405190810160405280929190818152602001828054610e1a90615a2e565b8015610e675780601f10610e3c57610100808354040283529160200191610e67565b820191906000526020600020905b815481529060010190602001808311610e4a57829003601f168201915b505050505094509650965096509650965096509650919395979092949650565b610e98610e926122cd565b8261236f565b610eb45760405162461bcd60e51b8152600401610910906156de565b610ade8383836123ec565b60a16020526000908152604090208054610ed890615a2e565b80601f0160208091040260200160405190810160405280929190818152602001828054610f0490615a2e565b8015610f515780601f10610f2657610100808354040283529160200191610f51565b820191906000526020600020905b815481529060010190602001808311610f3457829003601f168201915b505050505081565b610f61610bbe565b610f7d5760405162461bcd60e51b81526004016109109061546a565b61ffff919091166000908152609c6020526040902080546001600160a01b0319166001600160a01b03909216919091179055565b60a26020526000908152604090208054610ed890615a2e565b61ffff8116600090815260a460205260408120805460018201546002830154600384015460048501548695869586958695869592949193909291906005610b21565b609c602052600090815260409020546001600160a01b031681565b610ade83838360405180602001604052806000815250611aef565b61104d610e926122cd565b6110695760405162461bcd60e51b81526004016109109061573b565b609e805460ff1916600117905561107f81612519565b50609e805460ff19169055565b6000908152609f6020526040902060038101546004909101549091565b60a36020526000908152604090208054610ed890615a2e565b6000818152606c60205260408120546001600160a01b0316806108e45760405162461bcd60e51b81526004016109109061537b565b6110ff610bbe565b61111b5760405162461bcd60e51b81526004016109109061546a565b61ffff8316600090815260a260205260409020611139908383614725565b507fc0c4650245eb76bdf6e4d23dbc9343f027bb4659dced9b44907fa9ed143847d783838360405161116d939291906157c5565b60405180910390a1505050565b60366020526000908152604090205460ff1681565b60006001600160a01b0382166111b75760405162461bcd60e51b81526004016109109061531e565b506001600160a01b03166000908152606d602052604090205490565b6111db610bbe565b6111f75760405162461bcd60e51b81526004016109109061546a565b61ffff8316600090815260a160205260409020611215908383614725565b507fa1c87fa45ec62d5c157eb1210185e696c95a64268c29fe19fa936710de1dba1583838360405161116d939291906157c5565b6001546001600160a01b031681565b611260610bbe565b61127c5760405162461bcd60e51b81526004016109109061546a565b6001600160a01b0381166112a25760405162461bcd60e51b815260040161091090615613565b603780546001600160a01b0319166001600160a01b0392909216919091179055565b609d6020526000908152604090205481565b6112de610bbe565b6112fa5760405162461bcd60e51b81526004016109109061546a565b6001600160a01b0382166113205760405162461bcd60e51b815260040161091090615613565b6001600160a01b03919091166000908152603460205260409020805460ff1916911515919091179055565b6000908152609f602052604090205461ffff1690565b600054610100900460ff168061137a575060005460ff16155b6113965760405162461bcd60e51b81526004016109109061540d565b600054610100900460ff161580156113c1576000805460ff1961ff0019909116610100171660011790555b6113ce86868686866125c0565b6113d661263c565b80156113e8576000805461ff00191690555b505050505050565b60a75461ffff1681565b6060606b805461098590615a2e565b6000908152609f60205260409020600581015460068201546007909201549092565b611433613d84565b806114415750611441610bbe565b61145d5760405162461bcd60e51b815260040161091090615253565b60005b818110156114875761147485858584613d92565b508061147f81615a8b565b915050611460565b5050505050565b6000611498613d84565b806114a657506114a6610bbe565b6114c25760405162461bcd60e51b815260040161091090615253565b6114ce85858585613d92565b90505b949350505050565b6114e16122cd565b6001600160a01b0316826001600160a01b031614156115125760405162461bcd60e51b815260040161091090615162565b80606f600061151f6122cd565b6001600160a01b03908116825260208083019390935260409182016000908120918716808252919093529120805460ff1916921515929092179091556115636122cd565b6001600160a01b03167f17307eab39ab6107e8899845ad3d59bd9653f200f220920489ca2b5937696c318360405161159b9190614f78565b60405180910390a35050565b6115af613d84565b806115bd57506115bd610bbe565b6115d95760405162461bcd60e51b815260040161091090615253565b6000828152609f6020526040908190206003810183905590517ffdaaf93720302021b7d6406c19b136fef68421732d76d76d21761176f8e2a5639061116d908590859061585b565b61162961233f565b806116375750611637610bbe565b6116535760405162461bcd60e51b815260040161091090615097565b6000828152609f602052604081206002015460a691906116779060ff166001615993565b60ff1681526020808201929092526040908101600090812054858252609f909352206002015463ffffffff918216916116b891849161010090910416615974565b63ffffffff1610611785576000828152609f602052604081206002015460a691906116e79060ff166001615993565b60ff90811682526020808301939093526040918201600090812054868252609f90945291909120600201805463ffffffff9093166101000264ffffffff0019909316929092179182905561173e9160059116615aba565b60ff166001148061177257506000828152609f602052604090206002015461176b9060059060ff16615aba565b60ff166003145b156117805761178082613e1b565b6117d3565b6000828152609f6020526040902060020180548291906001906117b4908490610100900463ffffffff16615974565b92506101000a81548163ffffffff021916908363ffffffff1602179055505b6000828152609f6020526040908190206002015490517ffccf24a600777b3047c29a150be1f41197ea19f7680cfe4844626cdecfdc709f91610bb2918591610100900463ffffffff16906158a7565b609f602052600090815260409020805460018201546002830154600384015460049094015461ffff90931693919260ff82169261010090920463ffffffff16919086565b60356020526000908152604090205460ff1681565b611883610bbe565b61189f5760405162461bcd60e51b81526004016109109061546a565b60a060006118e284848080601f016020809104026020016040519081016040528093929190818152602001838380828437600092019190915250613eab92505050565b67ffffffffffffffff1916815260208101919091526040016000205460ff161561191e5760405162461bcd60e51b8152600401610910906151d0565b61ffff8316600090815260a360205260408120805460a09183916119c9919061194690615a2e565b80601f016020809104026020016040519081016040528092919081815260200182805461197290615a2e565b80156119bf5780601f10611994576101008083540402835291602001916119bf565b820191906000526020600020905b8154815290600101906020018083116119a257829003601f168201915b5050505050613eab565b67ffffffffffffffff191667ffffffffffffffff1916815260200190815260200160002060006101000a81548160ff021916908315150217905550600160a06000611a4985858080601f016020809104026020016040519081016040528093929190818152602001838380828437600092019190915250613eab92505050565b67ffffffffffffffff1916815260208082019290925260409081016000908120805460ff19169415159490941790935561ffff8616835260a39091529020611a92908383614725565b507fea8e4848802a06a3dd2c7a7a958ed834e0124bb6d042d18961bac05ee68b076f83838360405161116d939291906157c5565b60a66020526000908152604090205463ffffffff1681565b6001546001600160a01b0316331490565b611b00611afa6122cd565b8361236f565b611b1c5760405162461bcd60e51b8152600401610910906156de565b611b2884848484613ec9565b50505050565b611b36610bbe565b611b525760405162461bcd60e51b81526004016109109061546a565b61ffff8216600090815260a460205260409020611b71908260066147a9565b507f7c4af8196f3db199a3cedafccc6a0f8a3841c2d4f6b4a67bf19588077e695e798282604051610bb29291906157a7565b611bab610bbe565b611bc75760405162461bcd60e51b81526004016109109061546a565b61ffff8216600090815260a560205260409020611be6908260066147a9565b507f4ae68ccc3ed3ff0fda5f80f29ace113b781edcc203478d5331f41e5540220ecc8282604051610bb29291906157a7565b611c2181613efc565b50565b6037546001600160a01b031681565b6060611c3e826122b0565b611c5a5760405162461bcd60e51b8152600401610910906155b6565b6000611c64613fba565b90506000815111611c845760405180602001604052806000815250611caf565b80611c8e84613fcc565b604051602001611c9f929190614ef9565b6040516020818303038152906040525b9392505050565b611cbe61411b565b80611ccc5750611ccc610bbe565b611ce85760405162461bcd60e51b8152600401610910906153d8565b611cf28282614141565b6000828152609f6020526040902060019060050160ff831660038110611d2857634e487b7160e01b600052603260045260246000fd5b016000828254611d38919061595c565b90915550611d47905082613e1b565b6000828152609f602052604090206004015415611d9f576000828152609f6020526040812060048101546003909101805491929091611d8790849061595c565b90915550506000828152609f60205260408120600401555b6000828152609f602052604090207f8a4ef40b2cb3f34b9f898452db4fbaa756201df8aac4125202379465f2f1ec51908390839060050160ff821660038110611df857634e487b7160e01b600052603260045260246000fd5b0154604051610bb2939291906158cc565b6000908152609f602090815260408083205461ffff168352609c9091529020546001600160a01b031690565b611e3d610bbe565b611e595760405162461bcd60e51b81526004016109109061546a565b6001600160a01b038216611e7f5760405162461bcd60e51b815260040161091090615613565b6001600160a01b03919091166000908152603660205260409020805460ff1916911515919091179055565b611eb2610bbe565b611ece5760405162461bcd60e51b81526004016109109061546a565b6001600160a01b038216611ef45760405162461bcd60e51b815260040161091090615613565b6001600160a01b03919091166000908152603560205260409020805460ff1916911515919091179055565b6001600160a01b038083166000908152606f602090815260408083209385168352929052205460ff165b92915050565b611f57610bbe565b611f735760405162461bcd60e51b81526004016109109061546a565b6001600160a01b038116611f8657600080fd5b6000805475ffffffffffffffffffffffffffffffffffffffff00001916620100006001600160a01b038416908102919091178255604051909133917f8be0079c531659141344cd1fd0a4f28419497f9722a3daafe3b4186f6b6457e09190a350565b6000546201000090046001600160a01b031681565b612005610bbe565b6120215760405162461bcd60e51b81526004016109109061546a565b6000848152609f6020526040902060028101805460ff191660ff86161764ffffffff00191661010063ffffffff861602179055612063906005018260036147d6565b507f9907bd1bed2835301ca12e8bce0fa3026c52d7f88f819b4786ec5ba771fc10a38484848460405161209994939291906158e5565b60405180910390a150505050565b6120af610bbe565b6120cb5760405162461bcd60e51b81526004016109109061546a565b60a0600061210e86868080601f016020809104026020016040519081016040528093929190818152602001838380828437600092019190915250613eab92505050565b67ffffffffffffffff1916815260208101919091526040016000205460ff161561214a5760405162461bcd60e51b8152600401610910906151d0565b60a780546001919060009061216490849061ffff1661593f565b82546101009290920a61ffff81810219909316918316021790915560a75416600090815260a16020526040902061219d91508989614725565b5060a75461ffff16600090815260a2602052604090206121be908787614725565b5060a75461ffff16600090815260a3602052604090206121df908585614725565b5060a75461ffff16600090815260a460205260409020612201908360066147a9565b5060a7805461ffff9081166000908152609c60205260409081902080546001600160a01b0319166001600160a01b038616179055915491517f6721ce022ddfe14b31e622e153c8542167c7797094104020171ccb3c1b0c47619261226c9216908990899087906157e3565b60405180910390a15050505050505050565b6001600160e01b031981167f01ffc9a70000000000000000000000000000000000000000000000000000000014919050565b6000908152606c60205260409020546001600160a01b0316151590565b3390565b6000818152606e6020526040902080546001600160a01b0319166001600160a01b0384169081179091558190612306826110c2565b6001600160a01b03167f8c5be1e5ebec7d5bd14f71427d1e84f3dd0314c0f7b2291e5b200ac8c7c3b92560405160405180910390a45050565b60006036600061234d6122cd565b6001600160a01b0316815260208101919091526040016000205460ff16905090565b600061237a826122b0565b6123965760405162461bcd60e51b815260040161091090615207565b60006123a1836110c2565b9050806001600160a01b0316846001600160a01b031614806123dc5750836001600160a01b03166123d184610a08565b6001600160a01b0316145b806114d157506114d18185611f1f565b826001600160a01b03166123ff826110c2565b6001600160a01b0316146124255760405162461bcd60e51b815260040161091090615559565b6001600160a01b03821661244b5760405162461bcd60e51b815260040161091090615105565b61245683838361425d565b6124616000826122d1565b6001600160a01b0383166000908152606d6020526040812080546001929061248a9084906159eb565b90915550506001600160a01b0382166000908152606d602052604081208054600192906124b890849061595c565b90915550506000818152606c602052604080822080546001600160a01b0319166001600160a01b0386811691821790925591518493918716917fddf252ad1be2c89b69c2b068fc378daa952ba7f163c4a11628f55a4df523b3ef91a4505050565b6000612524826110c2565b90506125328160008461425d565b61253d6000836122d1565b6001600160a01b0381166000908152606d602052604081208054600192906125669084906159eb565b90915550506000828152606c602052604080822080546001600160a01b0319169055518391906001600160a01b038416907fddf252ad1be2c89b69c2b068fc378daa952ba7f163c4a11628f55a4df523b3ef908390a45050565b6125c985611c18565b61148784848080601f01602080910402602001604051908101604052809392919081815260200183838082843760009201919091525050604080516020601f880181900481028201810190925286815292508691508590819084018382808284376000920191909152506142c092505050565b60a7805461ffff19166012179055604080518082019091526005815264243ab6b0b760d91b6020808301918252600160005260a19052905161269f917ff4875fff8b0cf986238a93aa5a1c4dd6cdbe2f1045b9974e1f43ef715569af6691614803565b50604080518082019091526005815264243ab6b0b760d91b6020808301918252600260005260a1905290516126f5917f56cd10bd7c5a283404157adf2ba847ac6f7bfee0953fbdea6cae6f66ee17d9ce91614803565b50604080518082019091526005815264243ab6b0b760d91b6020808301918252600360005260a19052905161274b917f82810f81d5d6068ad5b62b5073b1161d037affd3559d84ef47a831e06ad04e8691614803565b50604080518082019091526005815264243ab6b0b760d91b6020808301918252600460005260a1905290516127a1917f452a9a645b43619dc9681d051339fd2836f59d845037283e59145a406fad0d0091614803565b50604080518082019091526005808252642232b6b7b760d91b602080840191825260009290925260a190915290516127fa917f22c173befadc645641c2fbf3c64efe326bc6b625704f0b91377e02a9612c49a791614803565b506040805180820190915260058152642232b6b7b760d91b6020808301918252600660005260a190529051612850917fc1c5dc6072b055a41c3c3bebcb56b9915ea1e7010445708f9466212b669eb28f91614803565b506040805180820190915260058152642232b6b7b760d91b6020808301918252600760005260a1905290516128a6917f972b9fbe2803a99ac215e0c6e4560de6fe83a715440f9b03a9c488f7782a556791614803565b506040805180820190915260058152641099585cdd60da1b6020808301918252600860005260a1905290516128fc917f46bc0982185ead238d259b5fb68c5315571a787559af7bdd54fc3ac84a6967aa91614803565b506040805180820190915260058152641099585cdd60da1b6020808301918252600960005260a190529051612952917fb621ae302217d8caf68b8ab9d73fec6a0bced048c3063caa6363fa737aaad44691614803565b506040805180820190915260058152641099585cdd60da1b6020808301918252600a60005260a1905290516129a8917f89b628aec863dfce1cf6e4090e0d6de0c16a7e93e77fd28ffd7467b9aaec301091614803565b506040805180820190915260058152641099585cdd60da1b6020808301918252600b60005260a1905290516129fe917fd1a456f010e12da9d139498d7be2b4a5c4709546152435b3449ddcfe75c6f77291614803565b506040805180820190915260058152641099585cdd60da1b6020808301918252600c60005260a190529051612a54917f910b1f9a81c069d8b384fe11a08d0bc2b03af86d1f067e49e9617fde18b4f9e591614803565b506040805180820190915260058152641099585cdd60da1b6020808301918252600d60005260a190529051612aaa917f288f81a07dd6654bb815a4765f70f1707f3522b7590e63d9ca4b457e71e28e1d91614803565b5060408051808201909152600481527f4b65656e000000000000000000000000000000000000000000000000000000006020808301918252600e60005260a190529051612b18917f781bd649b66653a84756ac62d315238a0b554eff1b9a312b98db7ee5b0787cd691614803565b5060408051808201909152600481527f4f726765000000000000000000000000000000000000000000000000000000006020808301918252600f60005260a190529051612b86917f320a9a8e1c9c11809358e13dde6f368908feef308358eee895841e9be29de9e691614803565b5060408051808201909152600381527f456c6600000000000000000000000000000000000000000000000000000000006020808301918252601060005260a190529051612bf4917f56f7cad68f8ece78a8811753a671dd98890dc05baf0c9a8d2ee19b284b2379ca91614803565b5060408051808201909152600681527f447261676f6e00000000000000000000000000000000000000000000000000006020808301918252601160005260a190529051612c62917fceeeb62d75682cb6ca962beeeddf8eda071dacf9d68f9e27f42a295f7e366a3a91614803565b5060408051808201909152600481527f4f6d6e69000000000000000000000000000000000000000000000000000000006020808301918252601260005260a190529051612cd0917fd54995677f87050d3a3fb2530b30a14d19b83f587275ec496c8017570dd1817a91614803565b50604080518082019091526006815265243ab73a32b960d11b6020808301918252600160005260a290529051612d27917f87286cc7b9cf8a377e677776b2644ce858185998d33108f493bdc3c2f07b983691614803565b5060408051808201909152600681527f50726965737400000000000000000000000000000000000000000000000000006020808301918252600260005260a290529051612d95917f984fb507cc15174c9c2666d8998832bf192b808658c1b8547c17c86e40ea581491614803565b506040805180820190915260078152665761726c6f636b60c81b6020808301918252600360005260a290529051612ded917f4ed878d3ddcb61d84861a74cb3bb4189ee298a8a85e8f1b99bcffb157f7e188491614803565b5060408051808201909152600881526720b9b9b0b9b9b4b760c11b6020808301918252600460005260a290529051612e46917f01923f2d31549987f5214f443c82ee326b286bb7c04d654ba4ca62126518897091614803565b5060408051808201909152600881526720b9b9b0b9b9b4b760c11b6020808301918252600560005260a290529051612e9f917fc33083533384e347980833407d2d9e9cdf9dbacc3663d0e1f554ee105709e82691614803565b5060408051808201909152600881526720b9b9b0b9b9b4b760c11b6020808301918252600660005260a290529051612ef8917f71fd0a8440c921e3cd1a788064382f9a5d9669403a7360a6f2d84698ec31bc4491614803565b50604080518082019091526007808252665761726c6f636b60c81b602080840191825260009290925260a29091529051612f53917fb6696057ec70a0333ac924b34ed9ce9e2c42634949b0b683443ca73ef03ae36391614803565b506040805180820190915260078152662bb0b93934b7b960c91b6020808301918252600860005260a290529051612fab917f26337e1e70fcbbb2fc6283c0a90c86f29b90368ec7d360cbe8fc7b6e67fc112f91614803565b5060408051808201909152600781527f4368656d697374000000000000000000000000000000000000000000000000006020808301918252600960005260a290529051613019917fdf2cd8d7fef74acb9909cc52cf86c25964c90c53448c2d76e7453598a3a8c9c891614803565b506040805180820190915260078152662bb0b93934b7b960c91b6020808301918252600a60005260a290529051613071917f82795cab62bdd4cda89f328945816f18b250bf249e52f6b4b15b2afcda6744a091614803565b506040805180820190915260078152662bb0b93934b7b960c91b6020808301918252600b60005260a2905290516130c9917ff4770b11b73703c4f0fd1218f47fc971cd10cb8526e369acb604337d47605a3991614803565b50604080518082019091526006815265243ab73a32b960d11b6020808301918252600c60005260a290529051613120917f6d0a9d2c0cce1a71e8308ad7e5573fa18a88bc35737aea28ce6beffb8aa3b02f91614803565b506040805180820190915260078152662bb0b93934b7b960c91b6020808301918252600d60005260a290529051613178917f4da184b8a7787c1ce801ea0b32ecfffe19e6af9c1a5ea1d0af0d869d7020d89491614803565b5060408051808201909152600481527f4d656368000000000000000000000000000000000000000000000000000000006020808301918252600e60005260a2905290516131e6917f4ab3fdd8de8d7d6b96a6b8dab8f10298567d2687732142d1204a020c644e3fee91614803565b506040805180820190915260078152662bb0b93934b7b960c91b6020808301918252600f60005260a29052905161323e917f4bcfba7bd467851385dc6a49aede9e2dc010f251fe0cd0a79ebd7e8ce704d4ad91614803565b506040805180820190915260048152634d61676560e01b6020808301918252601060005260a290529051613293917f8f0950f06770b52af44444279dc64409ee82ec0732746ce59f3911e4d22bbce991614803565b506040805180820190915260048152634d61676560e01b6020808301918252601160005260a2905290516132e8917f86cbf699bc1d56789c39166d6347288e5e086fc8dd82a01897ab98d47dd62eda91614803565b506040805180820190915260048152634d61676560e01b6020808301918252601260005260a29052905161333d917fe74158bccccfd2d764705bb0edfae8b9f9310e5c7f6c292e4db982f94c7fb56f91614803565b5060408051808201909152600481527f45697261000000000000000000000000000000000000000000000000000000006020808301918252600160005260a3905290516133ab917fc3869149e653ab70ab3abed8edc49ed99ccd0c8cf7ca81486b7adbd034773b1091614803565b5060408051808201909152600581527f41656475730000000000000000000000000000000000000000000000000000006020808301918252600260005260a390529051613419917fe262b42e4ca35e2f1e405b90c91327b65c89bdbf5dd51dedc3459002050f6b7b91614803565b5060408051808201909152600781527f4d616c68656c61000000000000000000000000000000000000000000000000006020808301918252600360005260a390529051613487917fe9af58d115897398a1f35176114f462ebaa379402284755e74d53e3847c6a97091614803565b5060408051808201909152600681527f4b656973686100000000000000000000000000000000000000000000000000006020808301918252600460005260a3905290516134f5917fe706244977ef2ec74fcd9d874225747978d4bd47f3242d5481f8a8879f40b4b591614803565b506040805180820190915260058082527f437972696c000000000000000000000000000000000000000000000000000000602080840191825260009290925260a39091529051613566917fcbada046dc901828fd2d28a24cf93e580e11702593054d26a781b8563709851191614803565b5060408051808201909152600581527f43696172610000000000000000000000000000000000000000000000000000006020808301918252600660005260a3905290516135d4917fd30f387f8bde2b80d4f7a061a6de091056bdb5d1bbbd4946470ef0879c94760191614803565b5060408051808201909152600581527f4772696d6d0000000000000000000000000000000000000000000000000000006020808301918252600760005260a390529051613642917f78b7dd6d11476f4003d973a619bd8573c0ca4d407bb9fcefc1aac871c868caf391614803565b5060408051808201909152600581527f4f72736f6e0000000000000000000000000000000000000000000000000000006020808301918252600860005260a3905290516136b0917f9abf6d086948ee9fcb117451e82b69d4c7fce51366110176bb6a3a2cac1fb62891614803565b5060408051808201909152600381527f5a656c00000000000000000000000000000000000000000000000000000000006020808301918252600960005260a39052905161371e917f25ed38933b46ca7b3edcca2dcb64f22887fd8d856672307fb900376cd64c897891614803565b5060408051808201909152600581527f417072756d0000000000000000000000000000000000000000000000000000006020808301918252600a60005260a39052905161378c917f43aa3b3db02da9f4807c40c9a0d4f97c59067d080ac515f56dce49e73b7c33c491614803565b5060408051808201909152600781527f4f63746f6e7573000000000000000000000000000000000000000000000000006020808301918252600b60005260a3905290516137fa917f478ece678e81dd49796676a492d870c92c56a38f58dc384b8d9bc0ece67c4d4391614803565b5060408051808201909152600981527f416d616c746865757300000000000000000000000000000000000000000000006020808301918252600c60005260a390529051613868917fd55fe29bdc7ca0bb081feeef63a76eeacfecfe820fe093ad9e0d806c88a28af891614803565b5060408051808201909152600681527f54696772697300000000000000000000000000000000000000000000000000006020808301918252600d60005260a3905290516138d6917f821a0f1c735e06361d76da0563d2c050fe2ff49c5e877a042bf79a79c1e4d72e91614803565b5060408051808201909152600681527f46617272657200000000000000000000000000000000000000000000000000006020808301918252600e60005260a390529051613944917f6f0af4bfad55f1e976e24c7d05e6d5e5226f33056214cb6b3d2954af58d4c50391614803565b5060408051808201909152600581527f4b656b6f720000000000000000000000000000000000000000000000000000006020808301918252600f60005260a3905290516139b2917fafb81c9605eb29dec5265f247985f4a7ca9b7d234a1c60dac1070909f74d207b91614803565b5060408051808201909152600481527f416c7661000000000000000000000000000000000000000000000000000000006020808301918252601060005260a390529051613a20917f2b2e1306cd20252a8ea518ba42dbe98b8cd834293b7e8698cadcccdbfe52cca891614803565b5060408051808201909152600481527f4b796c61000000000000000000000000000000000000000000000000000000006020808301918252601160005260a390529051613a8e917fb1b0075c5cce15db6312c5ac54cb9231f6dfc5182e76ae00b13aad607a97b56591614803565b5060408051808201909152600681527f476964656f6e00000000000000000000000000000000000000000000000000006020808301918252601260005260a390529051613afc917f6385344b117ae482c5fc1c893dc25b0fb22e82b6de66146a2f2ae3f3c01bd59f91614803565b5060015b60128161ffff1611613b7757600160a06000613b3b60a360008661ffff1661ffff168152602001908152602001600020805461194690615a2e565b67ffffffffffffffff191681526020810191909152604001600020805460ff191691151591909117905580613b6f81615a69565b915050613b00565b506040805160c08101825260648082526020808301829052928201819052606082018190526080820181905260a0820152600160005260a4909152613bdf907f3ab5dcf47126747c0704cb686c5b362a3f19c34c1a7f9e61bd557bb2aac5bcac906006614877565b506040805160c08101825260648082526020808301829052928201819052606082018190526080820181905260a0820152600160005260a5909152613c47907f3cdd87bd16aed04484229287c5bc39384778a2cba3efb90ce9f23f83f81cfedb906006614877565b5060a66020527fdac15aa8ef163b63c452ddefab2459748cd1ad9a971362007811cc356a135b34805463ffffffff19908116600a179091557f6d30e138cfb0797549657eb46e2b31f97aaa0a372b79cdb420024a6f6cee6eed80548216601e1790557fb46def45b6ec4c7e4aa8915adbe3bd82b1cdc668ec77b2cb4339042f5ad5b26d80548216603c1790557f05044ec828900e2dd4926afa36ccf95636a99a34522d399aecfc9482081088988054821660641790557fb7d4028083da13f0945434d8fef7f47a4fd2f2a6cb6e55c9e3d83cb390b5bdc28054821660961790557fa711f124b41308cccb827b5ead65f8e1c4d985daf5bef30dc321cc4d734a090f8054821660d217905560076000527f7bd5f8539171d2d4a6aa7fbae25410c990eea27a69c5fee2554cb88700848b678054909116610118179055565b60006034600061234d6122cd565b600060018461ffff1610158015613db3575060a75461ffff90811690851611155b613dcf5760405162461bcd60e51b8152600401610910906150ce565b6000613dda83614350565b9050613de686826143b3565b6000818152609f60205260409020805461ffff871661ffff199091161781554260018201556003018490559050949350505050565b6000818152609f60205260408120600201805460019290613e4090849060ff16615993565b82546101009290920a60ff8181021990931691831602179091556000838152609f6020526040908190206002015490517f3b7ca85b5e3d1ebb3a81e8d9e27bfeb9ef2f447026c115421132a20b0733b73f9350613ea092859216906158bb565b60405180910390a150565b80516000908290613ec05750600090506108e7565b50506018015190565b613ed48484846123ec565b613ee084848484614492565b611b285760405162461bcd60e51b815260040161091090615003565b600054610100900460ff1680613f15575060005460ff16155b613f315760405162461bcd60e51b81526004016109109061540d565b600054610100900460ff16158015613f5c576000805460ff1961ff0019909116610100171660011790555b6000805475ffffffffffffffffffffffffffffffffffffffff00001916620100006001600160a01b03851690810291909117909155600180546001600160a01b03191690911790558015613fb6576000805461ff00191690555b5050565b60408051602081019091526000815290565b60608161400d575060408051808201909152600181527f300000000000000000000000000000000000000000000000000000000000000060208201526108e7565b8160005b8115614037578061402181615a8b565b91506140309050600a836159b8565b9150614011565b60008167ffffffffffffffff81111561406057634e487b7160e01b600052604160045260246000fd5b6040519080825280601f01601f19166020018201604052801561408a576020820181803683370190505b5090505b84156114d15761409f6001836159eb565b91506140ac600a86615aa6565b6140b790603061595c565b60f81b8183815181106140da57634e487b7160e01b600052603260045260246000fd5b60200101907effffffffffffffffffffffffffffffffffffffffffffffffffffffffffffff1916908160001a905350614114600a866159b8565b945061408e565b6037546000906001600160a01b03166141326122cd565b6001600160a01b031614905090565b6000828152609f60205260408120600201546141629060059060ff16615aba565b90508060ff1660011415801561417c57508060ff16600314155b6141985760405162461bcd60e51b815260040161091090615199565b600060ff8216156141bd578160ff166002146141b55760026141b8565b60015b6141c0565b60005b90508060ff168360ff16146141e75760405162461bcd60e51b815260040161091090615522565b6000848152609f602052604081206002015460a6919061420b9060ff166001615993565b60ff1681526020808201929092526040908101600090812054878252609f9093522060020154610100900463ffffffff908116911614611b285760405162461bcd60e51b8152600401610910906152e7565b6142688383836145c3565b6001600160a01b038216610ade576000818152609f60205260408120805461ffff191681556001810182905560028101805464ffffffffff1916905560038101829055600481018290559061148760058301826148aa565b600054610100900460ff16806142d9575060005460ff16155b6142f55760405162461bcd60e51b81526004016109109061540d565b600054610100900460ff16158015614320576000805460ff1961ff0019909116610100171660011790555b6143286145ff565b6143306145ff565b61433a8383614673565b8015610ade576000805461ff0019169055505050565b600080826143626305f5e10042615aa6565b61436c919061595c565b90505b614378816122b0565b156108e45761438683615a8b565b9250826143976305f5e10042615aa6565b6143a290600a6159cc565b6143ac919061595c565b905061436f565b6001600160a01b0382166143d95760405162461bcd60e51b8152600401610910906154a1565b6143e2816122b0565b156143ff5760405162461bcd60e51b815260040161091090615060565b61440b6000838361425d565b6001600160a01b0382166000908152606d6020526040812080546001929061443490849061595c565b90915550506000818152606c602052604080822080546001600160a01b0319166001600160a01b03861690811790915590518392907fddf252ad1be2c89b69c2b068fc378daa952ba7f163c4a11628f55a4df523b3ef908290a45050565b60006144a6846001600160a01b0316614711565b156145bb57836001600160a01b031663150b7a026144c26122cd565b8786866040518563ffffffff1660e01b81526004016144e49493929190614f3c565b602060405180830381600087803b1580156144fe57600080fd5b505af192505050801561452e575060408051601f3d908101601f1916820190925261452b91810190614c0b565b60015b614588573d80801561455c576040519150601f19603f3d011682016040523d82523d6000602084013e614561565b606091505b5080516145805760405162461bcd60e51b815260040161091090615003565b805181602001fd5b6001600160e01b0319167f150b7a02000000000000000000000000000000000000000000000000000000001490506114d1565b5060016114d1565b609e5460ff16610ade576145d5613d84565b806145e357506145e3614717565b610ade5760405162461bcd60e51b8152600401610910906156a7565b600054610100900460ff1680614618575060005460ff16155b6146345760405162461bcd60e51b81526004016109109061540d565b600054610100900460ff1615801561465f576000805460ff1961ff0019909116610100171660011790555b8015611c21576000805461ff001916905550565b600054610100900460ff168061468c575060005460ff16155b6146a85760405162461bcd60e51b81526004016109109061540d565b600054610100900460ff161580156146d3576000805460ff1961ff0019909116610100171660011790555b82516146e690606a906020860190614803565b5081516146fa90606b906020850190614803565b508015610ade576000805461ff0019169055505050565b3b151590565b60006035600061234d6122cd565b82805461473190615a2e565b90600052602060002090601f0160209004810192826147535760008555614799565b82601f1061476c5782800160ff19823516178555614799565b82800160010185558215614799579182015b8281111561479957823582559160200191906001019061477e565b506147a59291506148bf565b5090565b8260068101928215614799579160200282018281111561479957823582559160200191906001019061477e565b8260038101928215614799579160200282018281111561479957823582559160200191906001019061477e565b82805461480f90615a2e565b90600052602060002090601f0160209004810192826148315760008555614799565b82601f1061484a57805160ff1916838001178555614799565b82800160010185558215614799579182015b8281111561479957825182559160200191906001019061485c565b8260068101928215614799579160200282015b82811115614799578251829060ff1690559160200191906001019061488a565b50600081556001016000815560010160009055565b5b808211156147a557600081556001016148c0565b80356001600160a01b03811681146108e757600080fd5b8060c08101831015611f4957600080fd5b60008083601f84011261490d578182fd5b50813567ffffffffffffffff811115614924578182fd5b60208301915083602082850101111561493c57600080fd5b9250929050565b803561ffff811681146108e757600080fd5b803563ffffffff811681146108e757600080fd5b803560ff811681146108e757600080fd5b60006020828403121561498b578081fd5b611caf826148d4565b600080604083850312156149a6578081fd5b6149af836148d4565b91506149bd602084016148d4565b90509250929050565b6000806000606084860312156149da578081fd5b6149e3846148d4565b92506149f1602085016148d4565b9150604084013590509250925092565b60008060008060808587031215614a16578081fd5b614a1f856148d4565b93506020614a2e8187016148d4565b935060408601359250606086013567ffffffffffffffff80821115614a51578384fd5b818801915088601f830112614a64578384fd5b813581811115614a7657614a76615b08565b604051601f8201601f1916810185018381118282101715614a9957614a99615b08565b60405281815283820185018b1015614aaf578586fd5b81858501868301379081019093019390935250939692955090935050565b60008060408385031215614adf578182fd5b614ae8836148d4565b915060208301358015158114614afc578182fd5b809150509250929050565b600080600080600060608688031215614b1e578081fd5b614b27866148d4565b9450602086013567ffffffffffffffff80821115614b43578283fd5b614b4f89838a016148fc565b90965094506040880135915080821115614b67578283fd5b50614b74888289016148fc565b969995985093965092949392505050565b60008060008060808587031215614b9a578384fd5b614ba3856148d4565b9350614bb160208601614943565b93969395505050506040820135916060013590565b60008060408385031215614bd8578182fd5b614be1836148d4565b946020939093013593505050565b600060208284031215614c00578081fd5b8135611caf81615b1e565b600060208284031215614c1c578081fd5b8151611caf81615b1e565b600080600080600080600080610140898b031215614c43578586fd5b883567ffffffffffffffff80821115614c5a578788fd5b614c668c838d016148fc565b909a50985060208b0135915080821115614c7e578788fd5b614c8a8c838d016148fc565b909850965060408b0135915080821115614ca2578485fd5b50614caf8b828c016148fc565b9095509350614cc390508a60608b016148eb565b9150614cd26101208a016148d4565b90509295985092959890939650565b600060208284031215614cf2578081fd5b611caf82614943565b60008060408385031215614d0d578182fd5b6149af83614943565b60008060e08385031215614d28578182fd5b614d3183614943565b91506149bd84602085016148eb565b600080600060408486031215614d54578081fd5b614d5d84614943565b9250602084013567ffffffffffffffff811115614d78578182fd5b614d84868287016148fc565b9497909650939450505050565b600060208284031215614da2578081fd5b5035919050565b60008060408385031215614dbb578182fd5b50508035926020909101359150565b60008060408385031215614ddc578182fd5b823591506149bd60208401614955565b60008060408385031215614dfe578182fd5b823591506149bd60208401614969565b60008060008060c08587031215614e23578182fd5b84359350614e3360208601614969565b9250614e4160408601614955565b91508560c086011115614e52578081fd5b509194909350909160600190565b600060208284031215614e71578081fd5b611caf82614969565b60008060408385031215614e8c578182fd5b614e9583614969565b91506149bd60208401614955565b60008151808452614ebb816020860160208601615a02565b601f01601f19169290920160200192915050565b60008284528282602086013780602084860101526020601f19601f85011685010190509392505050565b60008351614f0b818460208801615a02565b835190830190614f1f818360208801615a02565b01949350505050565b6001600160a01b0391909116815260200190565b60006001600160a01b03808716835280861660208401525083604083015260806060830152614f6e6080830184614ea3565b9695505050505050565b901515815260200190565b600060208252611caf6020830184614ea3565b600060e08252614fa960e083018a614ea3565b8281036020840152614fbb818a614ea3565b90508281036040840152614fcf8189614ea3565b91505061ffff8616606083015284608083015260ff841660a083015263ffffffff831660c083015298975050505050505050565b60208082526032908201527f4552433732313a207472616e7366657220746f206e6f6e20455243373231526560408201527f63656976657220696d706c656d656e7465720000000000000000000000000000606082015260800190565b6020808252601c908201527f4552433732313a20746f6b656e20616c7265616479206d696e74656400000000604082015260600190565b6020808252601b908201527f4e4654417574683a204f6e6c792067616d6520636f6e74726163740000000000604082015260600190565b60208082526012908201527f4e46543a20496e76616c696420636c6173730000000000000000000000000000604082015260600190565b60208082526024908201527f4552433732313a207472616e7366657220746f20746865207a65726f2061646460408201527f7265737300000000000000000000000000000000000000000000000000000000606082015260800190565b60208082526019908201527f4552433732313a20617070726f766520746f2063616c6c657200000000000000604082015260600190565b6020808252600d908201527f4c6576656c20696e76616c696400000000000000000000000000000000000000604082015260600190565b6020808252600b908201527f4e616d6520657869737473000000000000000000000000000000000000000000604082015260600190565b6020808252602c908201527f4552433732313a206f70657261746f7220717565727920666f72206e6f6e657860408201526b34b9ba32b73a103a37b5b2b760a11b606082015260800190565b60208082526018908201527f4e4654417574683a204f6e6c79206d696e742061646d696e0000000000000000604082015260600190565b60208082526038908201527f4552433732313a20617070726f76652063616c6c6572206973206e6f74206f7760408201527f6e6572206e6f7220617070726f76656420666f7220616c6c0000000000000000606082015260800190565b60208082526012908201527f457870657269656e636520696e76616c69640000000000000000000000000000604082015260600190565b6020808252602a908201527f4552433732313a2062616c616e636520717565727920666f7220746865207a6560408201527f726f206164647265737300000000000000000000000000000000000000000000606082015260800190565b60208082526029908201527f4552433732313a206f776e657220717565727920666f72206e6f6e657869737460408201527f656e7420746f6b656e0000000000000000000000000000000000000000000000606082015260800190565b6020808252818101527f4e4654417574683a204f6e6c7920757067726164696e6720436f6e7472616374604082015260600190565b6020808252602e908201527f496e697469616c697a61626c653a20636f6e747261637420697320616c72656160408201527f647920696e697469616c697a6564000000000000000000000000000000000000606082015260800190565b6020808252600d908201527f6f6e6c794d61696e41646d696e00000000000000000000000000000000000000604082015260600190565b6020808252818101527f4552433732313a206d696e7420746f20746865207a65726f2061646472657373604082015260600190565b6020808252602c908201527f4552433732313a20617070726f76656420717565727920666f72206e6f6e657860408201526b34b9ba32b73a103a37b5b2b760a11b606082015260800190565b60208082526012908201527f536b696c6c207479706520696e76616c69640000000000000000000000000000604082015260600190565b60208082526029908201527f4552433732313a207472616e73666572206f6620746f6b656e2074686174206960408201527f73206e6f74206f776e0000000000000000000000000000000000000000000000606082015260800190565b6020808252602f908201527f4552433732314d657461646174613a2055524920717565727920666f72206e6f60408201527f6e6578697374656e7420746f6b656e0000000000000000000000000000000000606082015260800190565b60208082526018908201527f4e4654417574683a204164647265737320696e76616c69640000000000000000604082015260600190565b60208082526021908201527f4552433732313a20617070726f76616c20746f2063757272656e74206f776e6560408201527f7200000000000000000000000000000000000000000000000000000000000000606082015260800190565b6020808252601a908201527f4e46543a206e6f207472616e7366657261626c65207269676874000000000000604082015260600190565b60208082526031908201527f4552433732313a207472616e736665722063616c6c6572206973206e6f74206f60408201527f776e6572206e6f7220617070726f766564000000000000000000000000000000606082015260800190565b60208082526030908201527f4552433732314275726e61626c653a2063616c6c6572206973206e6f74206f7760408201527f6e6572206e6f7220617070726f76656400000000000000000000000000000000606082015260800190565b61ffff91909116815260200190565b61ffff8316815260e0810160c0836020840137600081529392505050565b600061ffff85168252604060208301526114ce604083018486614ecf565b600061010080830161ffff88168452816020850152615803818789614ecf565b925060c0856040860137600090525095945050505050565b61ffff969096168652602086019490945260ff92909216604085015263ffffffff166060840152608083015260a082015260c00190565b90815260200190565b918252602082015260400190565b9283526020830191909152604082015260600190565b958652602086019490945260408501929092526060840152608083015260a082015260c00190565b91825263ffffffff16602082015260400190565b91825260ff16602082015260400190565b92835260ff919091166020830152604082015260600190565b84815260ff8416602082015263ffffffff8316604082015260c08101606083818401376000815295945050505050565b63ffffffff91909116815260200190565b60ff92909216825263ffffffff16602082015260400190565b600061ffff808316818516808303821115614f1f57614f1f615adc565b6000821982111561596f5761596f615adc565b500190565b600063ffffffff808316818516808303821115614f1f57614f1f615adc565b600060ff821660ff84168060ff038211156159b0576159b0615adc565b019392505050565b6000826159c7576159c7615af2565b500490565b60008160001904831182151516156159e6576159e6615adc565b500290565b6000828210156159fd576159fd615adc565b500390565b60005b83811015615a1d578181015183820152602001615a05565b83811115611b285750506000910152565b600281046001821680615a4257607f821691505b60208210811415615a6357634e487b7160e01b600052602260045260246000fd5b50919050565b600061ffff80831681811415615a8157615a81615adc565b6001019392505050565b6000600019821415615a9f57615a9f615adc565b5060010190565b600082615ab557615ab5615af2565b500690565b600060ff831680615acd57615acd615af2565b8060ff84160691505092915050565b634e487b7160e01b600052601160045260246000fd5b634e487b7160e01b600052601260045260246000fd5b634e487b7160e01b600052604160045260246000fd5b6001600160e01b031981168114611c2157600080fdfea264697066735822122022d3a0da2d51ecb0638cb3abde0ccb10913b7d86b03482e83d91157da10e655964736f6c63430008000033",
  "immutableReferences": {},
  "source": "// SPDX-License-Identifier: MIT\n\npragma solidity 0.8.0;\n\nimport \"../libs/fota/ArrayUtil.sol\";\nimport \"./BaseNFT.sol\";\nimport \"../libs/fota/StringUtil.sol\";\n\ncontract HeroNFT is BaseNFT {\n  using StringUtil for string;\n\n  struct Hero {\n    uint16 id;\n    uint createdAt;\n    uint8 level;\n    uint32 experience;\n    uint ownPrice;\n    uint failedUpgradingAmount;\n    uint[3] skills;\n  }\n\n  mapping (uint => Hero) public heroes;\n  mapping (bytes24 => bool) private heroNames;\n  mapping (uint16 => string) public mappingHeroRace;\n  mapping (uint16 => string) public mappingHeroClass;\n  mapping (uint16 => string) public mappingHeroName;\n  mapping (uint16 => uint[6]) private strengthIndexReferences;\n  mapping (uint16 => uint[6]) private strengthBonuses;\n  mapping (uint8 => uint32) public experienceCheckpoint;\n\n  uint16 public countId;\n\n  event NewClassAdded(\n    uint16 classId,\n    string klass,\n    uint[6] strengths\n  );\n  event LevelUp(\n    uint tokenId,\n    uint level\n  );\n  event ExperienceUp(\n    uint tokenId,\n    uint32 experience\n  );\n  event ExperienceCheckpointUpdated(\n    uint16 level,\n    uint32 experience\n  );\n  event BaseStrengthUpdated(\n    uint16 classId,\n    uint[6] baseStrength\n  );\n  event StrengthBonusUpdated(\n    uint16 classId,\n    uint[6] strengthBonus\n  );\n  event SkillUp(\n    uint tokenId,\n    uint index,\n    uint level\n  );\n  event HeroRaceUpdated(\n    uint16 classId,\n    string race\n  );\n  event HeroClassUpdated(\n    uint16 classId,\n    string klass\n  );\n  event HeroNameUpdated(\n    uint16 classId,\n    string name\n  );\n  event HeroInfoUpdated(\n    uint tokenId,\n    uint8 level,\n    uint32 experience,\n    uint[3] skills\n  );\n\n  function initialize(\n    address _mainAdmin,\n    string calldata _name,\n    string calldata _symbol\n  ) override public initializer {\n    BaseNFT.initialize(_mainAdmin, _name, _symbol);\n    _initData();\n  }\n\n  function mintHero(address _owner, uint16 _classId, uint _price, uint _index) onlyMintAdmin public returns (uint) {\n    return _mint(_owner, _classId, _price, _index);\n  }\n\n  function mintHeroes(address _owner, uint16 _classId, uint _price, uint _quantity) onlyMintAdmin external {\n    for(uint i = 0; i < _quantity; i++) {\n      _mint(_owner, _classId, _price, i);\n    }\n  }\n\n  function getHero(uint _tokenId) external view returns (string memory, string memory, string memory, uint16, uint, uint8, uint32) {\n    return (\n      mappingHeroRace[heroes[_tokenId].id],\n      mappingHeroClass[heroes[_tokenId].id],\n      mappingHeroName[heroes[_tokenId].id],\n      heroes[_tokenId].id,\n      heroes[_tokenId].createdAt,\n      heroes[_tokenId].level,\n      heroes[_tokenId].experience\n    );\n  }\n\n  function getHeroSkills(uint _tokenId) external view returns (uint, uint, uint) {\n    return (\n      heroes[_tokenId].skills[0],\n      heroes[_tokenId].skills[1],\n      heroes[_tokenId].skills[2]\n    );\n  }\n\n  function getHeroPrices(uint _tokenId) external view returns (uint, uint) {\n    return (\n      heroes[_tokenId].ownPrice,\n      heroes[_tokenId].failedUpgradingAmount\n    );\n  }\n\n  function getClassId(uint _tokenId) external view returns (uint16) {\n    return heroes[_tokenId].id;\n  }\n\n  function getCreator(uint _tokenId) override external view returns (address) {\n    return creators[heroes[_tokenId].id];\n  }\n\n  function getStrengthIndexReferences(uint16 _classId) external view returns (uint, uint, uint, uint, uint, uint) {\n    return (\n      strengthIndexReferences[_classId][0],\n      strengthIndexReferences[_classId][1],\n      strengthIndexReferences[_classId][2],\n      strengthIndexReferences[_classId][3],\n      strengthIndexReferences[_classId][4],\n      strengthIndexReferences[_classId][5]\n    );\n  }\n\n  function getStrengthBonuses(uint16 _classId) external view returns (uint, uint, uint, uint, uint, uint) {\n    return (\n      strengthBonuses[_classId][0],\n      strengthBonuses[_classId][1],\n      strengthBonuses[_classId][2],\n      strengthBonuses[_classId][3],\n      strengthBonuses[_classId][4],\n      strengthBonuses[_classId][5]\n    );\n  }\n\n  function _beforeTokenTransfer(\n    address _from,\n    address _to,\n    uint256 _tokenId\n  ) internal override {\n    super._beforeTokenTransfer(_from, _to, _tokenId);\n    if (_to == address(0)) {\n      delete heroes[_tokenId];\n    }\n  }\n\n  // PRIVATE FUNCTIONS\n\n  function _mint(address _owner, uint16 _classId, uint _price, uint _index) private returns (uint) {\n    require(_classId >= 1 && _classId <= countId, 'NFT: Invalid class');\n    uint newId = _genNewId(_index);\n    _mint(_owner, newId);\n\n    heroes[newId].id = _classId;\n    heroes[newId].createdAt = block.timestamp;\n    heroes[newId].ownPrice = _price;\n    return newId;\n  }\n\n  function _levelUp(uint _tokenId) private {\n    heroes[_tokenId].level += 1;\n    emit LevelUp(_tokenId, heroes[_tokenId].level);\n  }\n\n  function _initData() private {\n    countId = 18;\n\n    mappingHeroRace[1] = 'Human';\n    mappingHeroRace[2] = 'Human';\n    mappingHeroRace[3] = 'Human';\n    mappingHeroRace[4] = 'Human';\n    mappingHeroRace[5] = 'Demon';\n    mappingHeroRace[6] = 'Demon';\n    mappingHeroRace[7] = 'Demon';\n    mappingHeroRace[8] = 'Beast';\n    mappingHeroRace[9] = 'Beast';\n    mappingHeroRace[10] = 'Beast';\n    mappingHeroRace[11] = 'Beast';\n    mappingHeroRace[12] = 'Beast';\n    mappingHeroRace[13] = 'Beast';\n    mappingHeroRace[14] = 'Keen';\n    mappingHeroRace[15] = 'Orge';\n    mappingHeroRace[16] = 'Elf';\n    mappingHeroRace[17] = 'Dragon';\n    mappingHeroRace[18] = 'Omni';\n\n    mappingHeroClass[1] = 'Hunter';\n    mappingHeroClass[2] = 'Priest';\n    mappingHeroClass[3] = 'Warlock';\n    mappingHeroClass[4] = 'Assassin';\n    mappingHeroClass[5] = 'Assassin';\n    mappingHeroClass[6] = 'Assassin';\n    mappingHeroClass[7] = 'Warlock';\n    mappingHeroClass[8] = 'Warrior';\n    mappingHeroClass[9] = 'Chemist';\n    mappingHeroClass[10] = 'Warrior';\n    mappingHeroClass[11] = 'Warrior';\n    mappingHeroClass[12] = 'Hunter';\n    mappingHeroClass[13] = 'Warrior';\n    mappingHeroClass[14] = 'Mech';\n    mappingHeroClass[15] = 'Warrior';\n    mappingHeroClass[16] = 'Mage';\n    mappingHeroClass[17] = 'Mage';\n    mappingHeroClass[18] = 'Mage';\n\n    mappingHeroName[1] = 'Eira';\n    mappingHeroName[2] = 'Aedus';\n    mappingHeroName[3] = 'Malhela';\n    mappingHeroName[4] = 'Keisha';\n    mappingHeroName[5] = 'Cyril';\n    mappingHeroName[6] = 'Ciara';\n    mappingHeroName[7] = 'Grimm';\n    mappingHeroName[8] = 'Orson';\n    mappingHeroName[9] = 'Zel';\n    mappingHeroName[10] = 'Aprum';\n    mappingHeroName[11] = 'Octonus';\n    mappingHeroName[12] = 'Amaltheus';\n    mappingHeroName[13] = 'Tigris';\n    mappingHeroName[14] = 'Farrer';\n    mappingHeroName[15] = 'Kekor';\n    mappingHeroName[16] = 'Alva';\n    mappingHeroName[17] = 'Kyla';\n    mappingHeroName[18] = 'Gideon';\n    for (uint16 i = 1; i <= 18; i++) {\n      heroNames[mappingHeroName[i].toBytes24()] = true;\n    }\n\n    strengthIndexReferences[1] = [100, 100, 100, 100, 100, 100];\n\n    strengthBonuses[1] = [100, 100, 100, 100, 100, 100];\n\n    experienceCheckpoint[1] = 10;\n    experienceCheckpoint[2] = 30;\n    experienceCheckpoint[3] = 60;\n    experienceCheckpoint[4] = 100;\n    experienceCheckpoint[5] = 150;\n    experienceCheckpoint[6] = 210;\n    experienceCheckpoint[7] = 280;\n  }\n\n  // ADMIN FUNCTIONS\n\n  function updateBaseStrengths(uint16 _classId, uint[6] calldata _strengths) external onlyMainAdmin {\n    strengthIndexReferences[_classId] = _strengths;\n    emit BaseStrengthUpdated(_classId, _strengths);\n  }\n\n  function updateStrengthBonus(uint16 _classId, uint[6] calldata _strengthBonuses) external onlyMainAdmin {\n    strengthBonuses[_classId] = _strengthBonuses;\n    emit StrengthBonusUpdated(_classId, _strengthBonuses);\n  }\n\n  function updateExperienceCheckpoint(uint8 _level, uint32 _experience) external onlyMainAdmin {\n    experienceCheckpoint[_level] = _experience;\n    emit ExperienceCheckpointUpdated(_level, _experience);\n  }\n\n  function updateOwnPrice(uint _tokenId, uint _ownPrice) override onlyMintAdmin external {\n    Hero storage hero = heroes[_tokenId];\n    hero.ownPrice = _ownPrice;\n    emit OwnPriceUpdated(_tokenId, _ownPrice);\n  }\n\n  function updateFailedUpgradingAmount(uint _tokenId, uint _amount) override onlyGameContract external {\n    heroes[_tokenId].failedUpgradingAmount = _amount;\n    emit FailedUpgradingAmountUpdated(_tokenId, _amount);\n  }\n\n  function experienceUp(uint _tokenId, uint32 _experience) external onlyGameContract {\n    if (heroes[_tokenId].experience + _experience >= experienceCheckpoint[heroes[_tokenId].level + 1]) {\n      heroes[_tokenId].experience = experienceCheckpoint[heroes[_tokenId].level + 1];\n      if (heroes[_tokenId].level % 5 == 1 || heroes[_tokenId].level % 5 == 3) {\n        _levelUp(_tokenId);\n      }\n    } else {\n      heroes[_tokenId].experience += _experience;\n    }\n    emit ExperienceUp(_tokenId, heroes[_tokenId].experience);\n  }\n\n  function skillUp(uint _tokenId, uint8 _index) external onlyUpgradingContract {\n    _validateSkillIndex(_tokenId, _index);\n    heroes[_tokenId].skills[_index] += 1;\n    _levelUp(_tokenId);\n    if (heroes[_tokenId].failedUpgradingAmount > 0) {\n      heroes[_tokenId].ownPrice += heroes[_tokenId].failedUpgradingAmount;\n      heroes[_tokenId].failedUpgradingAmount = 0;\n    }\n    emit SkillUp(_tokenId, _index, heroes[_tokenId].skills[_index]);\n  }\n\n  function addHeroClass(string calldata _race, string calldata _class, string calldata _name, uint[6] calldata _strengths, address _creator) external onlyMainAdmin {\n    require(!heroNames[_name.toBytes24()], \"Name exists\");\n    countId += 1;\n\n    mappingHeroRace[countId] = _race;\n    mappingHeroClass[countId] = _class;\n    mappingHeroName[countId] = _name;\n    strengthIndexReferences[countId] = _strengths;\n    creators[countId] = _creator;\n    emit NewClassAdded(countId, _class, _strengths);\n  }\n\n  function updateHeroRace(uint16 _classId, string calldata _race) external onlyMainAdmin {\n    mappingHeroRace[_classId] = _race;\n    emit HeroRaceUpdated(_classId, _race);\n  }\n\n  function updateHeroClass(uint16 _classId, string calldata _class) external onlyMainAdmin {\n    mappingHeroClass[_classId] = _class;\n    emit HeroClassUpdated(_classId, _class);\n  }\n\n  function updateHeroName(uint16 _classId, string calldata _name) external onlyMainAdmin {\n    require(!heroNames[_name.toBytes24()], \"Name exists\");\n    heroNames[mappingHeroName[_classId].toBytes24()] = false;\n    heroNames[_name.toBytes24()] = true;\n    mappingHeroName[_classId] = _name;\n    emit HeroNameUpdated(_classId, _name);\n  }\n\n  function updateHeroInfo(uint _tokenId, uint8 _level, uint32 _experience, uint[3] calldata _skills) external onlyMainAdmin {\n    heroes[_tokenId].level = _level;\n    heroes[_tokenId].experience = _experience;\n    heroes[_tokenId].skills = _skills;\n    emit HeroInfoUpdated(_tokenId, _level, _experience, _skills);\n  }\n\n  // PRIVATE FUNCTIONS\n\n  function _validateSkillIndex(uint _tokenId, uint8 _index) private view {\n    uint8 levelMod5 = uint8(heroes[_tokenId].level % 5);\n    require(levelMod5 != 1 && levelMod5 != 3, \"Level invalid\");\n    uint8 skillIndex = levelMod5 == 0 ? 0 : levelMod5 == 2 ? 1 : 2;\n    require(_index == skillIndex, \"Skill type invalid\");\n    require(heroes[_tokenId].experience == experienceCheckpoint[heroes[_tokenId].level + 1], \"Experience invalid\");\n  }\n}\n",
  "sourcePath": "/Users/binh/Documents/Development/Solidity/fota-dapp/contracts/NFTs/HeroNFT.sol",
  "compiler": {
    "name": "solc",
    "version": "0.8.0+commit.c7dfd78e.Emscripten.clang"
  },
  "schemaVersion": "3.3.4",
  "updatedAt": "2022-01-05T07:37:06.113Z",
  "networkType": "ethereum",
  "devdoc": {
    "kind": "dev",
    "methods": {
      "approve(address,uint256)": {
        "details": "See {IERC721-approve}."
      },
      "balanceOf(address)": {
        "details": "See {IERC721-balanceOf}."
      },
      "getApproved(uint256)": {
        "details": "See {IERC721-getApproved}."
      },
      "isApprovedForAll(address,address)": {
        "details": "See {IERC721-isApprovedForAll}."
      },
      "name()": {
        "details": "See {IERC721Metadata-name}."
      },
      "ownerOf(uint256)": {
        "details": "See {IERC721-ownerOf}."
      },
      "safeTransferFrom(address,address,uint256)": {
        "details": "See {IERC721-safeTransferFrom}."
      },
      "safeTransferFrom(address,address,uint256,bytes)": {
        "details": "See {IERC721-safeTransferFrom}."
      },
      "setApprovalForAll(address,bool)": {
        "details": "See {IERC721-setApprovalForAll}."
      },
      "supportsInterface(bytes4)": {
        "details": "See {IERC165-supportsInterface}."
      },
      "symbol()": {
        "details": "See {IERC721Metadata-symbol}."
      },
      "tokenURI(uint256)": {
        "details": "See {IERC721Metadata-tokenURI}."
      },
      "transferFrom(address,address,uint256)": {
        "details": "See {IERC721-transferFrom}."
      }
    },
    "version": 1
  },
  "userdoc": {
    "kind": "user",
    "methods": {},
    "version": 1
  }
}