{
  "contractName": "HeroAirdropDistributor",
  "abi": [
    {
      "anonymous": false,
      "inputs": [
        {
          "indexed": false,
          "internalType": "uint256",
          "name": "_index",
          "type": "uint256"
        },
        {
          "indexed": false,
          "internalType": "address",
          "name": "_address",
          "type": "address"
        },
        {
          "indexed": false,
          "internalType": "uint256",
          "name": "_tokenId",
          "type": "uint256"
        }
      ],
      "name": "Claimed",
      "type": "event"
    },
    {
      "anonymous": false,
      "inputs": [
        {
          "indexed": true,
          "internalType": "address",
          "name": "_newOwner",
          "type": "address"
        }
      ],
      "name": "ContractAdminUpdated",
      "type": "event"
    },
    {
      "anonymous": false,
      "inputs": [
        {
          "indexed": true,
          "internalType": "address",
          "name": "_previousOwner",
          "type": "address"
        },
        {
          "indexed": true,
          "internalType": "address",
          "name": "_newOwner",
          "type": "address"
        }
      ],
      "name": "OwnershipTransferred",
      "type": "event"
    },
    {
      "inputs": [],
      "name": "_isContractAdmin",
      "outputs": [
        {
          "internalType": "bool",
          "name": "",
          "type": "bool"
        }
      ],
      "stateMutability": "view",
      "type": "function"
    },
    {
      "inputs": [],
      "name": "_isMainAdmin",
      "outputs": [
        {
          "internalType": "bool",
          "name": "",
          "type": "bool"
        }
      ],
      "stateMutability": "view",
      "type": "function"
    },
    {
      "inputs": [],
      "name": "contractAdmin",
      "outputs": [
        {
          "internalType": "address",
          "name": "",
          "type": "address"
        }
      ],
      "stateMutability": "view",
      "type": "function"
    },
    {
      "inputs": [],
      "name": "heroClassId",
      "outputs": [
        {
          "internalType": "uint16",
          "name": "",
          "type": "uint16"
        }
      ],
      "stateMutability": "view",
      "type": "function"
    },
    {
      "inputs": [],
      "name": "heroNFT",
      "outputs": [
        {
          "internalType": "contract IGameNFT",
          "name": "",
          "type": "address"
        }
      ],
      "stateMutability": "view",
      "type": "function"
    },
    {
      "inputs": [],
      "name": "heroPrice",
      "outputs": [
        {
          "internalType": "uint256",
          "name": "",
          "type": "uint256"
        }
      ],
      "stateMutability": "view",
      "type": "function"
    },
    {
      "inputs": [],
      "name": "mainAdmin",
      "outputs": [
        {
          "internalType": "address",
          "name": "",
          "type": "address"
        }
      ],
      "stateMutability": "view",
      "type": "function"
    },
    {
      "inputs": [],
      "name": "rootHash",
      "outputs": [
        {
          "internalType": "bytes32",
          "name": "",
          "type": "bytes32"
        }
      ],
      "stateMutability": "view",
      "type": "function"
    },
    {
      "inputs": [
        {
          "internalType": "address",
          "name": "_newOwner",
          "type": "address"
        }
      ],
      "name": "transferOwnership",
      "outputs": [],
      "stateMutability": "nonpayable",
      "type": "function"
    },
    {
      "inputs": [
        {
          "internalType": "address",
          "name": "_newAdmin",
          "type": "address"
        }
      ],
      "name": "updateContractAdmin",
      "outputs": [],
      "stateMutability": "nonpayable",
      "type": "function"
    },
    {
      "inputs": [
        {
          "internalType": "address",
          "name": "_mainAdmin",
          "type": "address"
        },
        {
          "internalType": "address",
          "name": "_heroNFT",
          "type": "address"
        }
      ],
      "name": "initialize",
      "outputs": [],
      "stateMutability": "nonpayable",
      "type": "function"
    },
    {
      "inputs": [
        {
          "internalType": "address",
          "name": "_mainAdmin",
          "type": "address"
        }
      ],
      "name": "initialize",
      "outputs": [],
      "stateMutability": "nonpayable",
      "type": "function"
    },
    {
      "inputs": [
        {
          "internalType": "bytes32",
          "name": "_rootHash",
          "type": "bytes32"
        }
      ],
      "name": "setRootHash",
      "outputs": [],
      "stateMutability": "nonpayable",
      "type": "function"
    },
    {
      "inputs": [
        {
          "internalType": "uint256",
          "name": "_heroPrice",
          "type": "uint256"
        }
      ],
      "name": "setHeroPrice",
      "outputs": [],
      "stateMutability": "nonpayable",
      "type": "function"
    },
    {
      "inputs": [
        {
          "internalType": "uint16",
          "name": "_heroClassId",
          "type": "uint16"
        }
      ],
      "name": "setHeroClassId",
      "outputs": [],
      "stateMutability": "nonpayable",
      "type": "function"
    },
    {
      "inputs": [
        {
          "internalType": "uint256",
          "name": "index",
          "type": "uint256"
        }
      ],
      "name": "isClaimed",
      "outputs": [
        {
          "internalType": "bool",
          "name": "",
          "type": "bool"
        }
      ],
      "stateMutability": "view",
      "type": "function"
    },
    {
      "inputs": [
        {
          "internalType": "address",
          "name": "_user",
          "type": "address"
        },
        {
          "internalType": "uint256",
          "name": "_index",
          "type": "uint256"
        },
        {
          "internalType": "bytes32[]",
          "name": "_path",
          "type": "bytes32[]"
        }
      ],
      "name": "isQualified",
      "outputs": [
        {
          "internalType": "bool",
          "name": "",
          "type": "bool"
        }
      ],
      "stateMutability": "view",
      "type": "function"
    },
    {
      "inputs": [
        {
          "internalType": "uint256",
          "name": "_index",
          "type": "uint256"
        },
        {
          "internalType": "bytes32[]",
          "name": "_path",
          "type": "bytes32[]"
        }
      ],
      "name": "claim",
      "outputs": [],
      "stateMutability": "nonpayable",
      "type": "function"
    }
  ],
  "bytecode": "0x608060405234801561001057600080fd5b50610df8806100206000396000f3fe608060405234801561001057600080fd5b50600436106101365760003560e01c8063858c6a87116100b2578063c4d66de811610081578063d43f75ff11610066578063d43f75ff1461024a578063f2fde38b1461025d578063fb6b04ba1461027057610136565b8063c4d66de814610224578063d16d839c1461023757610136565b8063858c6a87146101ec5780638909d3a4146102015780639e34070f14610209578063b7d6caec1461021c57610136565b80632d7eae661161010957806331a8bfc3116100ee57806331a8bfc3146101bc578063485cc955146101d157806377955245146101e457610136565b80632d7eae66146101965780632f52ebb7146101a957610136565b806302e65b8a1461013b5780630fa5af841461015057806311541ce0146101795780631d80009a14610181575b600080fd5b61014e610149366004610a3e565b610278565b005b61016361015e366004610a91565b61030f565b6040516101709190610bf3565b60405180910390f35b610163610399565b6101896103b0565b6040516101709190610bfe565b61014e6101a4366004610ae9565b6103b6565b61014e6101b7366004610b3b565b6103df565b6101c461058b565b6040516101709190610bb5565b61014e6101df366004610a5f565b61059a565b6101c4610683565b6101f4610692565b6040516101709190610d2f565b6101896106a3565b610163610217366004610ae9565b6106a9565b6101636106ec565b61014e610232366004610a3e565b6106fd565b61014e610245366004610ae9565b6107c8565b61014e610258366004610b01565b6107f1565b61014e61026b366004610a3e565b610837565b6101c46108d0565b610280610399565b6102a55760405162461bcd60e51b815260040161029c90610cc1565b60405180910390fd5b6001600160a01b0381166102b857600080fd5b6001805473ffffffffffffffffffffffffffffffffffffffff19166001600160a01b0383169081179091556040517fe3f4a4b5b74aa6830627cb87c50cf7d4ed56e9b246729179ba634bbdc873177a90600090a250565b6000808585604051602001610325929190610b85565b604051602081830303815290604052805190602001209050610346856106a9565b15801561038f575061038f8484808060200260200160405190810160405280939291908181526020018383602002808284376000920191909152505060045491508490506108e5565b9695505050505050565b6000546201000090046001600160a01b0316331490565b60045481565b6103be610399565b6103da5760405162461bcd60e51b815260040161029c90610cc1565b600455565b6103e8836106a9565b156104055760405162461bcd60e51b815260040161029c90610c07565b6000338460405160200161041a929190610b85565b6040516020818303038152906040528051906020012090506104738383808060200260200160405190810160405280939291908181526020018383602002808284376000920191909152505060045491508490506108e5565b61048f5760405162461bcd60e51b815260040161029c90610cf8565b610498846109a0565b6002546003546040517fa045ae980000000000000000000000000000000000000000000000000000000081526000926001600160a01b0381169263a045ae98926104f5923392600160a01b90910461ffff16918790600401610bc9565b602060405180830381600087803b15801561050f57600080fd5b505af1158015610523573d6000803e3d6000fd5b505050506040513d601f19601f820116820180604052508101906105479190610b23565b90507f4ec90e965519d92681267467f775ada5bd214aa92c0dc93d90a5e880ce9ed02685338360405161057c93929190610d3e565b60405180910390a15050505050565b6002546001600160a01b031681565b600054610100900460ff16806105b3575060005460ff16155b6105cf5760405162461bcd60e51b815260040161029c90610c64565b600054610100900460ff161580156105fa576000805460ff1961ff0019909116610100171660011790555b610603836106fd565b6002805468097c9ce4cf6d5c00006003557f8627ae73ef8bb3d092704dcc557d590277bf54ecf53a3d801346b176e9fb683c600455600160a01b61ffff60a01b199091161773ffffffffffffffffffffffffffffffffffffffff19166001600160a01b038416179055801561067e576000805461ff00191690555b505050565b6001546001600160a01b031681565b600254600160a01b900461ffff1681565b60035481565b6000806106b861010084610d5d565b905060006106c861010085610d98565b60009283526005602052604090922054600190921b9182169091149150505b919050565b6001546001600160a01b0316331490565b600054610100900460ff1680610716575060005460ff16155b6107325760405162461bcd60e51b815260040161029c90610c64565b600054610100900460ff1615801561075d576000805460ff1961ff0019909116610100171660011790555b6000805475ffffffffffffffffffffffffffffffffffffffff00001916620100006001600160a01b038516908102919091179091556001805473ffffffffffffffffffffffffffffffffffffffff1916909117905580156107c4576000805461ff00191690555b5050565b6107d0610399565b6107ec5760405162461bcd60e51b815260040161029c90610cc1565b600355565b6107f9610399565b6108155760405162461bcd60e51b815260040161029c90610cc1565b6002805461ffff909216600160a01b0261ffff60a01b19909216919091179055565b61083f610399565b61085b5760405162461bcd60e51b815260040161029c90610cc1565b6001600160a01b03811661086e57600080fd5b6000805475ffffffffffffffffffffffffffffffffffffffff00001916620100006001600160a01b038416908102919091178255604051909133917f8be0079c531659141344cd1fd0a4f28419497f9722a3daafe3b4186f6b6457e09190a350565b6000546201000090046001600160a01b031681565b600081815b855181101561099557600086828151811061091557634e487b7160e01b600052603260045260246000fd5b60200260200101519050808311610956578281604051602001610939929190610ba7565b604051602081830303815290604052805190602001209250610982565b8083604051602001610969929190610ba7565b6040516020818303038152906040528051906020012092505b508061098d81610d71565b9150506108ea565b509092149392505050565b60006109ae61010083610d5d565b905060006109be61010084610d98565b6000928352600560205260409092208054600190931b9092179091555050565b80356001600160a01b03811681146106e757600080fd5b60008083601f840112610a06578182fd5b50813567ffffffffffffffff811115610a1d578182fd5b6020830191508360208083028501011115610a3757600080fd5b9250929050565b600060208284031215610a4f578081fd5b610a58826109de565b9392505050565b60008060408385031215610a71578081fd5b610a7a836109de565b9150610a88602084016109de565b90509250929050565b60008060008060608587031215610aa6578182fd5b610aaf856109de565b935060208501359250604085013567ffffffffffffffff811115610ad1578283fd5b610add878288016109f5565b95989497509550505050565b600060208284031215610afa578081fd5b5035919050565b600060208284031215610b12578081fd5b813561ffff81168114610a58578182fd5b600060208284031215610b34578081fd5b5051919050565b600080600060408486031215610b4f578283fd5b83359250602084013567ffffffffffffffff811115610b6c578283fd5b610b78868287016109f5565b9497909650939450505050565b60609290921b6bffffffffffffffffffffffff19168252601482015260340190565b918252602082015260400190565b6001600160a01b0391909116815260200190565b6001600160a01b0394909416845261ffff9290921660208401526040830152606082015260800190565b901515815260200190565b90815260200190565b60208082526029908201527f41697264726f704469737472696275746f723a2044726f7020616c726561647960408201527f20636c61696d65642e0000000000000000000000000000000000000000000000606082015260800190565b6020808252602e908201527f496e697469616c697a61626c653a20636f6e747261637420697320616c72656160408201527f647920696e697469616c697a6564000000000000000000000000000000000000606082015260800190565b6020808252600d908201527f6f6e6c794d61696e41646d696e00000000000000000000000000000000000000604082015260600190565b60208082526017908201527f41697264726f704469737472696275746f723a20343030000000000000000000604082015260600190565b61ffff91909116815260200190565b9283526001600160a01b03919091166020830152604082015260600190565b600082610d6c57610d6c610dac565b500490565b6000600019821415610d9157634e487b7160e01b81526011600452602481fd5b5060010190565b600082610da757610da7610dac565b500690565b634e487b7160e01b600052601260045260246000fdfea264697066735822122064b1dadf595d0c419349d4c1364c1cacb57bcb5a7ef0cac839b7451308390c6d64736f6c63430008000033",
  "immutableReferences": {},
  "source": "// SPDX-License-Identifier: MIT\n\npragma solidity 0.8.0;\n\nimport \"../libs/fota/Auth.sol\";\nimport \"../libs/fota/MerkelProof.sol\";\nimport \"../interfaces/IGameNFT.sol\";\n\ncontract HeroAirdropDistributor is Auth {\n\n  IGameNFT public heroNFT;\n  uint16 public heroClassId;\n  uint public heroPrice;\n\n  bytes32 public rootHash;\n  mapping(uint => uint) private claimedBitMap;\n\n  event Claimed(uint _index, address _address, uint _tokenId);\n\n  function initialize(\n    address _mainAdmin,\n    address _heroNFT\n  ) public initializer {\n    Auth.initialize(_mainAdmin);\n    heroClassId = 1;\n    heroPrice = 175e18;\n    rootHash = 0x8627ae73ef8bb3d092704dcc557d590277bf54ecf53a3d801346b176e9fb683c;\n    heroNFT = IGameNFT(_heroNFT);\n  }\n\n  // OWNER FUNCTIONS\n\n  function setRootHash(bytes32 _rootHash) onlyMainAdmin external {\n    rootHash = _rootHash;\n  }\n\n  function setHeroPrice(uint _heroPrice) onlyMainAdmin external {\n    heroPrice = _heroPrice;\n  }\n\n  function setHeroClassId(uint16 _heroClassId) onlyMainAdmin external {\n    heroClassId = _heroClassId;\n  }\n\n  // PUBLIC FUNCTIONS\n\n  function isClaimed(uint index) public view returns (bool) {\n    uint claimedWordIndex = index / 256;\n    uint claimedBitIndex = index % 256;\n    uint claimedWord = claimedBitMap[claimedWordIndex];\n    uint mask = (1 << claimedBitIndex);\n    return claimedWord & mask == mask;\n  }\n\n  function isQualified(address _user, uint _index, bytes32[] calldata _path) external view returns (bool) {\n    bytes32 hash = keccak256(abi.encodePacked(_user, _index));\n    return !isClaimed(_index) && MerkleProof.verify(_path, rootHash, hash);\n  }\n\n  function claim(uint _index, bytes32[] calldata _path) external {\n    require(!isClaimed(_index), 'AirdropDistributor: Drop already claimed.');\n    bytes32 hash = keccak256(abi.encodePacked(msg.sender, _index));\n    require(MerkleProof.verify(_path, rootHash, hash), 'AirdropDistributor: 400');\n    _setClaimed(_index);\n    uint tokenId = heroNFT.mintHero(msg.sender, heroClassId, heroPrice, 0);\n    emit Claimed(_index, msg.sender, tokenId);\n  }\n\n  // PRIVATE FUNCTIONS\n\n  function _setClaimed(uint index) private {\n    uint claimedWordIndex = index / 256;\n    uint claimedBitIndex = index % 256;\n    claimedBitMap[claimedWordIndex] = claimedBitMap[claimedWordIndex] | (1 << claimedBitIndex);\n  }\n}\n",
  "sourcePath": "/Users/binh/Documents/Development/Solidity/fota-dapp/contracts/airdrop/HeroAirdropDistributor.sol",
  "compiler": {
    "name": "solc",
    "version": "0.8.0+commit.c7dfd78e.Emscripten.clang"
  },
  "schemaVersion": "3.3.4",
  "updatedAt": "2022-01-05T05:27:46.049Z",
  "devdoc": {
    "kind": "dev",
    "methods": {},
    "version": 1
  },
  "userdoc": {
    "kind": "user",
    "methods": {},
    "version": 1
  }
}