{
  "contractName": "ItemUpgrading",
  "abi": [
    {
      "anonymous": false,
      "inputs": [
        {
          "indexed": true,
          "internalType": "address",
          "name": "_newOwner",
          "type": "address"
        }
      ],
      "name": "ContractAdminUpdated",
      "type": "event"
    },
    {
      "anonymous": false,
      "inputs": [
        {
          "indexed": true,
          "internalType": "address",
          "name": "_previousOwner",
          "type": "address"
        },
        {
          "indexed": true,
          "internalType": "address",
          "name": "_newOwner",
          "type": "address"
        }
      ],
      "name": "OwnershipTransferred",
      "type": "event"
    },
    {
      "anonymous": false,
      "inputs": [
        {
          "indexed": false,
          "internalType": "enum IMarketPlace.PaymentType",
          "name": "newMethod",
          "type": "uint8"
        }
      ],
      "name": "PaymentTypeChanged",
      "type": "event"
    },
    {
      "anonymous": false,
      "inputs": [
        {
          "indexed": true,
          "internalType": "address",
          "name": "_user",
          "type": "address"
        },
        {
          "indexed": false,
          "internalType": "uint8",
          "name": "_gene",
          "type": "uint8"
        },
        {
          "components": [
            {
              "internalType": "uint16",
              "name": "itemClass",
              "type": "uint16"
            },
            {
              "internalType": "uint256[]",
              "name": "materials",
              "type": "uint256[]"
            },
            {
              "internalType": "uint256",
              "name": "eatherId",
              "type": "uint256"
            },
            {
              "internalType": "enum IMarketPlace.PaymentCurrency",
              "name": "paymentCurrency",
              "type": "uint8"
            },
            {
              "internalType": "uint8",
              "name": "_acceptedRatio",
              "type": "uint8"
            }
          ],
          "indexed": false,
          "internalType": "struct ItemUpgrading.UpgradingInfo",
          "name": "upgradingInfo",
          "type": "tuple"
        },
        {
          "indexed": false,
          "internalType": "uint256",
          "name": "_newTokenId",
          "type": "uint256"
        },
        {
          "indexed": false,
          "internalType": "uint256",
          "name": "_fee",
          "type": "uint256"
        },
        {
          "indexed": false,
          "internalType": "bool",
          "name": "success",
          "type": "bool"
        }
      ],
      "name": "Upgraded",
      "type": "event"
    },
    {
      "inputs": [],
      "name": "_isContractAdmin",
      "outputs": [
        {
          "internalType": "bool",
          "name": "",
          "type": "bool"
        }
      ],
      "stateMutability": "view",
      "type": "function"
    },
    {
      "inputs": [],
      "name": "_isMainAdmin",
      "outputs": [
        {
          "internalType": "bool",
          "name": "",
          "type": "bool"
        }
      ],
      "stateMutability": "view",
      "type": "function"
    },
    {
      "inputs": [],
      "name": "busdToken",
      "outputs": [
        {
          "internalType": "contract IBEP20",
          "name": "",
          "type": "address"
        }
      ],
      "stateMutability": "view",
      "type": "function"
    },
    {
      "inputs": [],
      "name": "contractAdmin",
      "outputs": [
        {
          "internalType": "address",
          "name": "",
          "type": "address"
        }
      ],
      "stateMutability": "view",
      "type": "function"
    },
    {
      "inputs": [],
      "name": "fotaPricer",
      "outputs": [
        {
          "internalType": "contract IFOTAPricer",
          "name": "",
          "type": "address"
        }
      ],
      "stateMutability": "view",
      "type": "function"
    },
    {
      "inputs": [],
      "name": "fotaToken",
      "outputs": [
        {
          "internalType": "contract IBEP20",
          "name": "",
          "type": "address"
        }
      ],
      "stateMutability": "view",
      "type": "function"
    },
    {
      "inputs": [],
      "name": "fundAdmin",
      "outputs": [
        {
          "internalType": "address",
          "name": "",
          "type": "address"
        }
      ],
      "stateMutability": "view",
      "type": "function"
    },
    {
      "inputs": [],
      "name": "itemNft",
      "outputs": [
        {
          "internalType": "contract IGameNFT",
          "name": "",
          "type": "address"
        }
      ],
      "stateMutability": "view",
      "type": "function"
    },
    {
      "inputs": [],
      "name": "mainAdmin",
      "outputs": [
        {
          "internalType": "address",
          "name": "",
          "type": "address"
        }
      ],
      "stateMutability": "view",
      "type": "function"
    },
    {
      "inputs": [
        {
          "internalType": "address",
          "name": "",
          "type": "address"
        }
      ],
      "name": "nonces",
      "outputs": [
        {
          "internalType": "uint256",
          "name": "",
          "type": "uint256"
        }
      ],
      "stateMutability": "view",
      "type": "function"
    },
    {
      "inputs": [],
      "name": "paymentType",
      "outputs": [
        {
          "internalType": "enum IMarketPlace.PaymentType",
          "name": "",
          "type": "uint8"
        }
      ],
      "stateMutability": "view",
      "type": "function"
    },
    {
      "inputs": [
        {
          "internalType": "address",
          "name": "_fotaToken",
          "type": "address"
        }
      ],
      "name": "setFOTAToken",
      "outputs": [],
      "stateMutability": "nonpayable",
      "type": "function"
    },
    {
      "inputs": [
        {
          "internalType": "address",
          "name": "_busdToken",
          "type": "address"
        },
        {
          "internalType": "address",
          "name": "_usdtToken",
          "type": "address"
        }
      ],
      "name": "setUsdToken",
      "outputs": [],
      "stateMutability": "nonpayable",
      "type": "function"
    },
    {
      "inputs": [
        {
          "internalType": "address",
          "name": "_newOwner",
          "type": "address"
        }
      ],
      "name": "transferOwnership",
      "outputs": [],
      "stateMutability": "nonpayable",
      "type": "function"
    },
    {
      "inputs": [
        {
          "internalType": "address",
          "name": "_newAdmin",
          "type": "address"
        }
      ],
      "name": "updateContractAdmin",
      "outputs": [],
      "stateMutability": "nonpayable",
      "type": "function"
    },
    {
      "inputs": [
        {
          "internalType": "address",
          "name": "_address",
          "type": "address"
        }
      ],
      "name": "updateFundAdmin",
      "outputs": [],
      "stateMutability": "nonpayable",
      "type": "function"
    },
    {
      "inputs": [
        {
          "internalType": "enum IMarketPlace.PaymentType",
          "name": "_type",
          "type": "uint8"
        }
      ],
      "name": "updatePaymentType",
      "outputs": [],
      "stateMutability": "nonpayable",
      "type": "function"
    },
    {
      "inputs": [],
      "name": "usdtToken",
      "outputs": [
        {
          "internalType": "contract IBEP20",
          "name": "",
          "type": "address"
        }
      ],
      "stateMutability": "view",
      "type": "function"
    },
    {
      "inputs": [
        {
          "internalType": "address",
          "name": "_mainAdmin",
          "type": "address"
        }
      ],
      "name": "initialize",
      "outputs": [],
      "stateMutability": "nonpayable",
      "type": "function"
    },
    {
      "inputs": [
        {
          "internalType": "string",
          "name": "_name",
          "type": "string"
        },
        {
          "internalType": "string",
          "name": "_version",
          "type": "string"
        },
        {
          "internalType": "address",
          "name": "_mainAdmin",
          "type": "address"
        },
        {
          "internalType": "address",
          "name": "_fundAdmin",
          "type": "address"
        },
        {
          "internalType": "address",
          "name": "_itemNft",
          "type": "address"
        },
        {
          "internalType": "address",
          "name": "_itemMap",
          "type": "address"
        },
        {
          "internalType": "address",
          "name": "_fotaPricer",
          "type": "address"
        }
      ],
      "name": "initialize",
      "outputs": [],
      "stateMutability": "nonpayable",
      "type": "function"
    },
    {
      "inputs": [
        {
          "internalType": "string",
          "name": "_name",
          "type": "string"
        },
        {
          "internalType": "string",
          "name": "_version",
          "type": "string"
        },
        {
          "internalType": "address",
          "name": "_mainAdmin",
          "type": "address"
        },
        {
          "internalType": "address",
          "name": "_fundAdmin",
          "type": "address"
        },
        {
          "internalType": "address",
          "name": "_fotaPricer",
          "type": "address"
        }
      ],
      "name": "initialize",
      "outputs": [],
      "stateMutability": "nonpayable",
      "type": "function"
    },
    {
      "inputs": [
        {
          "internalType": "uint16",
          "name": "_itemClass",
          "type": "uint16"
        },
        {
          "internalType": "uint256[]",
          "name": "_materials",
          "type": "uint256[]"
        },
        {
          "internalType": "uint256",
          "name": "_eatherId",
          "type": "uint256"
        },
        {
          "internalType": "enum IMarketPlace.PaymentCurrency",
          "name": "_paymentCurrency",
          "type": "uint8"
        },
        {
          "internalType": "uint8",
          "name": "_acceptedRatio",
          "type": "uint8"
        },
        {
          "internalType": "string",
          "name": "_seed",
          "type": "string"
        },
        {
          "internalType": "bytes",
          "name": "_signature",
          "type": "bytes"
        }
      ],
      "name": "upgradeItem",
      "outputs": [],
      "stateMutability": "nonpayable",
      "type": "function"
    }
  ],
  "bytecode": "0x608060405234801561001057600080fd5b5061374a806100206000396000f3fe608060405234801561001057600080fd5b50600436106101825760003560e01c8063a98ad46c116100d8578063db0ed6a01161008c578063f2fde38b11610066578063f2fde38b146102c1578063fb6b04ba146102d4578063fc87c407146102dc57610182565b8063db0ed6a014610293578063de0e7014146102a6578063e5e20f5d146102ae57610182565b8063b7d6caec116100bd578063b7d6caec14610265578063c4d66de81461026d578063c91f0c531461028057610182565b8063a98ad46c1461024a578063aca986c81461025257610182565b806348d002f21161013a5780637ecebe00116101145780637ecebe001461020f5780639c4565831461022f578063a00245fa1461023757610182565b806348d002f2146101f75780635e1c2f0a146101ff578063779552451461020757610182565b806311541ce01161016b57806311541ce0146101ba5780632763b8da146101cf57806343a98b9b146101e457610182565b806302e65b8a146101875780630b39217e1461019c575b600080fd5b61019a610195366004612769565b6102ef565b005b6101a4610379565b6040516101b19190612c4a565b60405180910390f35b6101c2610388565b6040516101b19190612cea565b6101d761039f565b6040516101b19190612d63565b61019a6101f2366004612769565b6103af565b6101a46103f5565b6101a4610404565b6101a4610413565b61022261021d366004612769565b610422565b6040516101b19190612bba565b6101a4610434565b61019a6102453660046128c8565b610443565b6101a46104f4565b61019a610260366004612769565b610503565b6101c261056f565b61019a61027b366004612769565b610580565b61019a61028e36600461297f565b61063e565b61019a6102a13660046128e4565b6106f7565b6101a461087f565b61019a6102bc3660046127a1565b61088e565b61019a6102cf366004612769565b6108e0565b6101a4610979565b61019a6102ea366004612a3f565b61098e565b6102f7610388565b61031c5760405162461bcd60e51b8152600401610313906131cf565b60405180910390fd5b6001600160a01b03811661032f57600080fd5b600180546001600160a01b0319166001600160a01b0383169081179091556040517fe3f4a4b5b74aa6830627cb87c50cf7d4ed56e9b246729179ba634bbdc873177a90600090a250565b603c546001600160a01b031681565b6000546201000090046001600160a01b0316331490565b603a54600160a01b900460ff1681565b6103b7610388565b6103d35760405162461bcd60e51b8152600401610313906131cf565b603980546001600160a01b0319166001600160a01b0392909216919091179055565b6039546001600160a01b031681565b603a546001600160a01b031681565b6001546001600160a01b031681565b60366020526000908152604090205481565b603b546001600160a01b031681565b61044b610388565b6104675760405162461bcd60e51b8152600401610313906131cf565b603a80548291907fffffffffffffffffffffff00ffffffffffffffffffffffffffffffffffffffff16600160a01b8360028111156104b557634e487b7160e01b600052602160045260246000fd5b02179055507f42d1d4a3df940c5fa3c262d3d5b271a206cfc2e3da70683f81854b3f52f8f5d5816040516104e99190612d63565b60405180910390a150565b6038546001600160a01b031681565b61050b610388565b6105275760405162461bcd60e51b8152600401610313906131cf565b6001600160a01b03811661054d5760405162461bcd60e51b815260040161031390612ed5565b603b80546001600160a01b0319166001600160a01b0392909216919091179055565b6001546001600160a01b0316331490565b600054610100900460ff1680610599575060005460ff16155b6105b55760405162461bcd60e51b8152600401610313906130d3565b600054610100900460ff161580156105e0576000805460ff1961ff0019909116610100171660011790555b6000805475ffffffffffffffffffffffffffffffffffffffff00001916620100006001600160a01b03851690810291909117909155600180546001600160a01b0319169091179055801561063a576000805461ff00191690555b5050565b600054610100900460ff1680610657575060005460ff16155b6106735760405162461bcd60e51b8152600401610313906130d3565b600054610100900460ff1615801561069e576000805460ff1961ff0019909116610100171660011790555b6106ab88888888866106f7565b603c80546001600160a01b038087166001600160a01b031992831617909255603d80549286169290911691909117905580156106ed576000805461ff00191690555b5050505050505050565b600054610100900460ff1680610710575060005460ff16155b61072c5760405162461bcd60e51b8152600401610313906130d3565b600054610100900460ff16158015610757576000805460ff1961ff0019909116610100171660011790555b61076084610580565b61076a8686610a70565b603b80546001600160a01b038086166001600160a01b031992831617909255603a80549285169282169290921790915560378054821673e9e7cea3dedca5984780bafc599bd69add087d561790556038805482167355d398326f99059ff775485246999027b319795517905560398054909116730a4e1bdfa75292a98c15870aef24bd94bffe0bd4179055606146141561086557603780546001600160a01b031990811673d8ad05ff852ae4eb264089c377501494ea1d03c91790915560388054821673a1d3c78f0f98f6ba7b08ec15df48e22880a0024c17905560398054909116730a4e1bdfa75292a98c15870aef24bd94bffe0bd41790555b8015610877576000805461ff00191690555b505050505050565b6037546001600160a01b031681565b610896610388565b6108b25760405162461bcd60e51b8152600401610313906131cf565b603780546001600160a01b039384166001600160a01b03199182161790915560388054929093169116179055565b6108e8610388565b6109045760405162461bcd60e51b8152600401610313906131cf565b6001600160a01b03811661091757600080fd5b6000805475ffffffffffffffffffffffffffffffffffffffff00001916620100006001600160a01b038416908102919091178255604051909133917f8be0079c531659141344cd1fd0a4f28419497f9722a3daafe3b4186f6b6457e09190a350565b6000546201000090046001600160a01b031681565b610999838383610af1565b6109a38985610bfa565b60008060006109b68c8c8c8c8c8c610ca9565b92509250925060006040518060a001604052808e61ffff1681526020018d8d80806020026020016040519081016040528093929190818152602001838360200280828437600092019190915250505090825250602081018c90526040018a6002811115610a3357634e487b7160e01b600052602160045260246000fd5b81526020018960ff1681525090506000610a52828a8a8a898989611453565b9050610a60818686856115c6565b5050505050505050505050505050565b600054610100900460ff1680610a89575060005460ff16155b610aa55760405162461bcd60e51b8152600401610313906130d3565b600054610100900460ff16158015610ad0576000805460ff1961ff0019909116610100171660011790555b610ada83836118dc565b8015610aec576000805461ff00191690555b505050565b6000610b6e7f3542463edeca86467f10ee54f802a00104ee498b45b3e447642f9c71d079861b338686604051610b28929190612bc3565b604080519182900382203360009081526036602090815292902054610b539594939192909101612cf5565b6040516020818303038152906040528051906020012061196f565b336000908152603660205260408120805492935090610b8c83613644565b91905055506000610b9d828461198a565b6001549091506001600160a01b03808316911614610bcd5760405162461bcd60e51b815260040161031390613076565b6001600160a01b038116610bf35760405162461bcd60e51b815260040161031390612f85565b5050505050565b603d54604051634086f4ef60e11b81526000916001600160a01b03169063810de9de90610c2b9086906004016134c4565b60006040518083038186803b158015610c4357600080fd5b505afa158015610c57573d6000803e3d6000fd5b505050506040513d6000823e601f3d908101601f19168201604052610c7f91908101906127d9565b925050508060ff168260ff161115610aec5760405162461bcd60e51b81526004016103139061303f565b603d54604051634086f4ef60e11b81526000918291829182916001600160a01b039091169063810de9de90610ce2908d906004016134c4565b60006040518083038186803b158015610cfa57600080fd5b505afa158015610d0e573d6000803e3d6000fd5b505050506040513d6000823e601f3d908101601f19168201604052610d3691908101906127d9565b50508051600095508594508493509091508814610d655760405162461bcd60e51b81526004016103139061339c565b6000805b898110156110f95760008b8b83818110610d9357634e487b7160e01b600052603260045260246000fd5b603c546040516331a9108f60e11b815260209092029390930135935033926001600160a01b03169150636352211e90610dd0908590600401612bba565b60206040518083038186803b158015610de857600080fd5b505afa158015610dfc573d6000803e3d6000fd5b505050506040513d601f19601f82011682018060405250810190610e209190612785565b6001600160a01b031614610e465760405162461bcd60e51b815260040161031390612f4e565b603c54604051633129e77360e01b8152600091829182916001600160a01b031690633129e77390610e7b908790600401612bba565b60a06040518083038186803b158015610e9357600080fd5b505afa158015610ea7573d6000803e3d6000fd5b505050506040513d601f19601f82011682018060405250810190610ecb9190612b4e565b945094505093505085821115610ee2578195508398505b610eec828b6135c1565b9950610ef8818b6135c1565b9950868581518110610f1a57634e487b7160e01b600052603260045260246000fd5b602002602001015161ffff168361ffff1614610f485760405162461bcd60e51b815260040161031390612e41565b603c5460405163e985e9c560e01b81526000916001600160a01b03169063e985e9c590610f7b9033903090600401612c5e565b60206040518083038186803b158015610f9357600080fd5b505afa158015610fa7573d6000803e3d6000fd5b505050506040513d601f19601f82011682018060405250810190610fcb91906128a8565b8061105c5750603c5460405163020604bf60e21b815230916001600160a01b03169063081812fc90611001908990600401612bba565b60206040518083038186803b15801561101957600080fd5b505afa15801561102d573d6000803e3d6000fd5b505050506040513d601f19601f820116820180604052508101906110519190612785565b6001600160a01b0316145b90508061107b5760405162461bcd60e51b815260040161031390613130565b603c546040516323b872dd60e01b81526001600160a01b03909116906323b872dd906110af90339030908a90600401612c78565b600060405180830381600087803b1580156110c957600080fd5b505af11580156110dd573d6000803e3d6000fd5b50505050505050505080806110f190613644565b915050610d69565b506000841161111a5760405162461bcd60e51b815260040161031390612dad565b603c546040516331a9108f60e11b815233916001600160a01b031690636352211e9061114a908c90600401612bba565b60206040518083038186803b15801561116257600080fd5b505afa158015611176573d6000803e3d6000fd5b505050506040513d601f19601f8201168201806040525081019061119a9190612785565b6001600160a01b0316146111c05760405162461bcd60e51b81526004016103139061340a565b603c54604051633129e77360e01b815260009182916001600160a01b0390911690633129e773906111f5908d90600401612bba565b60a06040518083038186803b15801561120d57600080fd5b505afa158015611221573d6000803e3d6000fd5b505050506040513d601f19601f820116820180604052508101906112459190612b4e565b509350505060ff1691508161ffff166000146112735760405162461bcd60e51b815260040161031390612e78565b603c5460405163e985e9c560e01b81526000916001600160a01b03169063e985e9c5906112a69033903090600401612c5e565b60206040518083038186803b1580156112be57600080fd5b505afa1580156112d2573d6000803e3d6000fd5b505050506040513d601f19601f820116820180604052508101906112f691906128a8565b806113875750603c5460405163020604bf60e21b815230916001600160a01b03169063081812fc9061132c908f90600401612bba565b60206040518083038186803b15801561134457600080fd5b505afa158015611358573d6000803e3d6000fd5b505050506040513d601f19601f8201168201806040525081019061137c9190612785565b6001600160a01b0316145b9050806113a65760405162461bcd60e51b815260040161031390613467565b603c60009054906101000a90046001600160a01b03166001600160a01b03166323b872dd33308e6040518463ffffffff1660e01b81526004016113eb93929190612c78565b600060405180830381600087803b15801561140557600080fd5b505af1158015611419573d6000803e3d6000fd5b505050506114288a8f8b6119ae565b955061143482896135c1565b975061144086896135c1565b9750505050505096509650969350505050565b865160009061146387878a611a6e565b915060006114726064836135d9565b9050821561156f57603c546040517f882c3b0e0000000000000000000000000000000000000000000000000000000081526000916001600160a01b03169063882c3b0e906114cc903390869088908d908890600401612cb5565b602060405180830381600087803b1580156114e657600080fd5b505af11580156114fa573d6000803e3d6000fd5b505050506040513d601f19601f8201168201806040525081019061151e9190612b36565b9050336001600160a01b03167f7a6ad46c49291f7f1aeba7050d683b1eefe834c344e98980a34fc010502322ec838d8489896040516115619594939291906134e1565b60405180910390a2506115b9565b336001600160a01b03167f7a6ad46c49291f7f1aeba7050d683b1eefe834c344e98980a34fc010502322ec828c8888886040516115b09594939291906134e1565b60405180910390a25b5050979650505050505050565b602081015160006115d78585611a8d565b905085156116915760005b825181101561168b57603c5483516001600160a01b03909116906342966c689085908490811061162257634e487b7160e01b600052603260045260246000fd5b60200260200101516040518263ffffffff1660e01b81526004016116469190612bba565b600060405180830381600087803b15801561166057600080fd5b505af1158015611674573d6000803e3d6000fd5b50505050808061168390613644565b9150506115e2565b50611856565b603c546040517f1ab5f3a30000000000000000000000000000000000000000000000000000000081526001600160a01b0390911690631ab5f3a3906116dc90879085906004016134d3565b600060405180830381600087803b1580156116f657600080fd5b505af115801561170a573d6000803e3d6000fd5b5050505060005b8251811015611854578483828151811061173b57634e487b7160e01b600052603260045260246000fd5b602002602001015114156117b457603c546040516323b872dd60e01b81526001600160a01b03909116906323b872dd9061177d90309033908a90600401612c78565b600060405180830381600087803b15801561179757600080fd5b505af11580156117ab573d6000803e3d6000fd5b50505050611842565b603c5483516001600160a01b03909116906342966c68908590849081106117eb57634e487b7160e01b600052603260045260246000fd5b60200260200101516040518263ffffffff1660e01b815260040161180f9190612bba565b600060405180830381600087803b15801561182957600080fd5b505af115801561183d573d6000803e3d6000fd5b505050505b8061184c81613644565b915050611711565b505b603c5460408085015190517f42966c680000000000000000000000000000000000000000000000000000000081526001600160a01b03909216916342966c68916118a291600401612bba565b600060405180830381600087803b1580156118bc57600080fd5b505af11580156118d0573d6000803e3d6000fd5b50505050505050505050565b600054610100900460ff16806118f5575060005460ff16155b6119115760405162461bcd60e51b8152600401610313906130d3565b600054610100900460ff1615801561193c576000805460ff1961ff0019909116610100171660011790555b82516020808501919091208351918401919091206002919091556003558015610aec576000805461ff0019169055505050565b600061198261197c611b2c565b83611b6c565b90505b919050565b60008060006119998585611b9f565b915091506119a681611c0f565b509392505050565b603d54604051634086f4ef60e11b8152600091829182916001600160a01b03169063810de9de906119e39088906004016134c4565b60006040518083038186803b1580156119fb57600080fd5b505afa158015611a0f573d6000803e3d6000fd5b505050506040513d6000823e601f3d908101601f19168201604052611a3791908101906127d9565b92509250508060ff168460ff1683611a4f919061360e565b611a5991906135fa565b9250611a658684611d3f565b50509392505050565b600080611a7b8585611ec7565b60ff8085169116109150509392505050565b603c54604051633129e77360e01b815260009182916001600160a01b0390911690633129e77390611ac2908690600401612bba565b60a06040518083038186803b158015611ada57600080fd5b505afa158015611aee573d6000803e3d6000fd5b505050506040513d601f19601f82011682018060405250810190611b129190612b4e565b5093505050508084611b24919061362d565b949350505050565b6000611b677f8b73c3c69bb8fe3d512ecc4cf759cc79239f7b179b0ffacaa9a75d522b39400f611b5a611ede565b611b62611ee4565b611eea565b905090565b60008282604051602001611b81929190612bd3565b60405160208183030381529060405280519060200120905092915050565b600080825160411415611bd65760208301516040840151606085015160001a611bca87828585611f24565b94509450505050611c08565b825160401415611c005760208301516040840151611bf5868383612004565b935093505050611c08565b506000905060025b9250929050565b6000816004811115611c3157634e487b7160e01b600052602160045260246000fd5b1415611c3c57611d3c565b6001816004811115611c5e57634e487b7160e01b600052602160045260246000fd5b1415611c7c5760405162461bcd60e51b815260040161031390612d76565b6002816004811115611c9e57634e487b7160e01b600052602160045260246000fd5b1415611cbc5760405162461bcd60e51b815260040161031390612e0a565b6003816004811115611cde57634e487b7160e01b600052602160045260246000fd5b1415611cfc5760405162461bcd60e51b815260040161031390612f0c565b6004816004811115611d1e57634e487b7160e01b600052602160045260246000fd5b1415611d3c5760405162461bcd60e51b81526004016103139061318d565b50565b6000603a54600160a01b900460ff166002811115611d6d57634e487b7160e01b600052602160045260246000fd5b1415611e1157603a54604080516319c2286960e31b81529051611e0c926001600160a01b03169163ce114348916004808301926020929190829003018186803b158015611db957600080fd5b505afa158015611dcd573d6000803e3d6000fd5b505050506040513d601f19601f82011682018060405250810190611df19190612b36565b611dfd6103e88461360e565b611e0791906135fa565b61204c565b61063a565b6001603a54600160a01b900460ff166002811115611e3f57634e487b7160e01b600052602160045260246000fd5b1415611e4f57611e0c82826122e9565b6000826002811115611e7157634e487b7160e01b600052602160045260246000fd5b1415611ebd57603a54604080516319c2286960e31b81529051611e0c926001600160a01b03169163ce114348916004808301926020929190829003018186803b158015611db957600080fd5b61063a82826122e9565b6000611ed78383600060636125eb565b9392505050565b60025490565b60035490565b60008383834630604051602001611f05959493929190612d19565b6040516020818303038152906040528051906020012090509392505050565b6000807f7fffffffffffffffffffffffffffffff5d576e7357a4501ddfe92f46681b20a0831115611f5b5750600090506003611ffb565b8460ff16601b14158015611f7357508460ff16601c14155b15611f845750600090506004611ffb565b600060018787878760405160008152602001604052604051611fa99493929190612d45565b6020604051602081039080840390855afa158015611fcb573d6000803e3d6000fd5b5050604051601f1901519150506001600160a01b038116611ff457600060019250925050611ffb565b9150600090505b94509492505050565b6000807f7fffffffffffffffffffffffffffffffffffffffffffffffffffffffffffffff831660ff84901c601b0161203e87828885611f24565b935093505050935093915050565b6039546040517fdd62ed3e00000000000000000000000000000000000000000000000000000000815282916001600160a01b03169063dd62ed3e906120979033903090600401612c5e565b60206040518083038186803b1580156120af57600080fd5b505afa1580156120c3573d6000803e3d6000fd5b505050506040513d601f19601f820116820180604052508101906120e79190612b36565b10156121055760405162461bcd60e51b8152600401610313906133d3565b6039546040516370a0823160e01b815282916001600160a01b0316906370a0823190612135903390600401612c4a565b60206040518083038186803b15801561214d57600080fd5b505afa158015612161573d6000803e3d6000fd5b505050506040513d601f19601f820116820180604052508101906121859190612b36565b10156121a35760405162461bcd60e51b81526004016103139061332e565b6039546040516323b872dd60e01b81526001600160a01b03909116906323b872dd906121d790339030908690600401612c78565b602060405180830381600087803b1580156121f157600080fd5b505af1158015612205573d6000803e3d6000fd5b505050506040513d601f19601f8201168201806040525081019061222991906128a8565b6122455760405162461bcd60e51b8152600401610313906132f7565b603954603b5460405163a9059cbb60e01b81526001600160a01b039283169263a9059cbb9261227b929116908590600401612c9c565b602060405180830381600087803b15801561229557600080fd5b505af11580156122a9573d6000803e3d6000fd5b505050506040513d601f19601f820116820180604052508101906122cd91906128a8565b611d3c5760405162461bcd60e51b815260040161031390612fe2565b600082600281111561230b57634e487b7160e01b600052602160045260246000fd5b14156123295760405162461bcd60e51b815260040161031390613263565b6000600183600281111561234d57634e487b7160e01b600052602160045260246000fd5b14612363576038546001600160a01b0316612370565b6037546001600160a01b03165b905081816001600160a01b031663dd62ed3e33306040518363ffffffff1660e01b81526004016123a1929190612c5e565b60206040518083038186803b1580156123b957600080fd5b505afa1580156123cd573d6000803e3d6000fd5b505050506040513d601f19601f820116820180604052508101906123f19190612b36565b101561240f5760405162461bcd60e51b815260040161031390613206565b6040516370a0823160e01b815282906001600160a01b038316906370a082319061243d903390600401612c4a565b60206040518083038186803b15801561245557600080fd5b505afa158015612469573d6000803e3d6000fd5b505050506040513d601f19601f8201168201806040525081019061248d9190612b36565b10156124ab5760405162461bcd60e51b81526004016103139061329a565b6040516323b872dd60e01b81526001600160a01b038216906323b872dd906124db90339030908790600401612c78565b602060405180830381600087803b1580156124f557600080fd5b505af1158015612509573d6000803e3d6000fd5b505050506040513d601f19601f8201168201806040525081019061252d91906128a8565b6125495760405162461bcd60e51b815260040161031390612fe2565b603b5460405163a9059cbb60e01b81526001600160a01b038381169263a9059cbb9261257d92909116908690600401612c9c565b602060405180830381600087803b15801561259757600080fd5b505af11580156125ab573d6000803e3d6000fd5b505050506040513d601f19601f820116820180604052508101906125cf91906128a8565b610aec5760405162461bcd60e51b815260040161031390612fe2565b600082821161260c5760405162461bcd60e51b815260040161031390613365565b6000612618848461362d565b6126239060016135c1565b434442338a8a60405160200161263e96959493929190612c09565b604051602081830303815290604052805190602001206040516020016126649190612bba565b6040516020818303038152906040528051906020012060001c612687919061365f565b905061269384826135c1565b9695505050505050565b600082601f8301126126ad578081fd5b813567ffffffffffffffff8111156126c7576126c761369f565b6126da601f8201601f1916602001613597565b8181528460208386010111156126ee578283fd5b816020850160208301379081016020019190915292915050565b8035611985816136e8565b60008083601f840112612724578182fd5b50813567ffffffffffffffff81111561273b578182fd5b602083019150836020828501011115611c0857600080fd5b803561198581613705565b805161198581613705565b60006020828403121561277a578081fd5b8135611ed7816136d3565b600060208284031215612796578081fd5b8151611ed7816136d3565b600080604083850312156127b3578081fd5b82356127be816136d3565b915060208301356127ce816136d3565b809150509250929050565b6000806000606084860312156127ed578081fd5b835167ffffffffffffffff80821115612804578283fd5b818601915086601f830112612817578283fd5b815160208282111561282b5761282b61369f565b808202925061283b818401613597565b8281528181019085830185870184018c1015612855578788fd5b8796505b84871015612883578051955061286e866136f5565b85835260019690960195918301918301612859565b5080985050508088015195505050505061289f6040850161275e565b90509250925092565b6000602082840312156128b9578081fd5b81518015158114611ed7578182fd5b6000602082840312156128d9578081fd5b8135611ed7816136e8565b600080600080600060a086880312156128fb578081fd5b853567ffffffffffffffff80821115612912578283fd5b61291e89838a0161269d565b96506020880135915080821115612933578283fd5b506129408882890161269d565b9450506040860135612951816136d3565b92506060860135612961816136d3565b91506080860135612971816136d3565b809150509295509295909350565b600080600080600080600060e0888a031215612999578485fd5b873567ffffffffffffffff808211156129b0578687fd5b6129bc8b838c0161269d565b985060208a01359150808211156129d1578687fd5b506129de8a828b0161269d565b96505060408801356129ef816136d3565b945060608801356129ff816136d3565b93506080880135612a0f816136d3565b925060a0880135612a1f816136d3565b915060c0880135612a2f816136d3565b8091505092959891949750929550565b600080600080600080600080600060e08a8c031215612a5c578283fd5b8935612a67816136f5565b985060208a013567ffffffffffffffff80821115612a83578485fd5b818c0191508c601f830112612a96578485fd5b813581811115612aa4578586fd5b8d60208083028501011115612ab7578586fd5b602083019a50985060408c01359750612ad260608d01612708565b9650612ae060808d01612753565b955060a08c0135915080821115612af5578485fd5b612b018d838e01612713565b909550935060c08c0135915080821115612b19578283fd5b50612b268c828d0161269d565b9150509295985092959850929598565b600060208284031215612b47578081fd5b5051919050565b600080600080600060a08688031215612b65578283fd5b8551612b7081613705565b6020870151909550612b81816136f5565b6040870151606088015160809098015196999198509695945092505050565b15159052565b612baf816136b5565b9052565b60ff169052565b90815260200190565b6000828483379101908152919050565b7f190100000000000000000000000000000000000000000000000000000000000081526002810192909252602282015260420190565b60008782528660208301528560408301526bffffffffffffffffffffffff198560601b16606083015282846074840137910160740190815295945050505050565b6001600160a01b0391909116815260200190565b6001600160a01b0392831681529116602082015260400190565b6001600160a01b039384168152919092166020820152604081019190915260600190565b6001600160a01b03929092168252602082015260400190565b6001600160a01b0395909516855260ff93909316602085015261ffff9190911660408401526060830152608082015260a00190565b901515815260200190565b9384526001600160a01b039290921660208401526040830152606082015260800190565b9485526020850193909352604084019190915260608301526001600160a01b0316608082015260a00190565b93845260ff9290921660208401526040830152606082015260800190565b60208101612d70836136b5565b91905290565b60208082526018908201527f45434453413a20696e76616c6964207369676e61747572650000000000000000604082015260600190565b6020808252602b908201527f4974656d20557067726164696e673a2077726f6e67206b656570206974656d2060408201527f7768656e206661696c6564000000000000000000000000000000000000000000606082015260800190565b6020808252601f908201527f45434453413a20696e76616c6964207369676e6174757265206c656e67746800604082015260600190565b6020808252601d908201527f4974656d20557067726164696e673a20696e76616c696420636c617373000000604082015260600190565b60208082526024908201527f4974656d20557067726164696e673a20696e76616c696420666f726d756c612060408201527f6974656d00000000000000000000000000000000000000000000000000000000606082015260800190565b6020808252601c908201527f4d61726b6574506c6163653a20696e76616c6964206164647265737300000000604082015260600190565b60208082526022908201527f45434453413a20696e76616c6964207369676e6174757265202773272076616c604082015261756560f01b606082015260800190565b60208082526019908201527f4974656d20557067726164696e673a206e6f74206f776e657200000000000000604082015260600190565b60208082526023908201527f45434453415570677261646561626c653a20696e76616c6964207369676e617460408201527f7572650000000000000000000000000000000000000000000000000000000000606082015260800190565b60208082526028908201527f4e465420557067726164696e673a207472616e736665722075736420746f6b6560408201527f6e206661696c6564000000000000000000000000000000000000000000000000606082015260800190565b6020808252601d908201527f4974656d20557067726164696e673a20696e76616c696420726174696f000000604082015260600190565b60208082526022908201527f4d65737361676556657269666965723a20696e76616c6964207369676e61747560408201527f7265000000000000000000000000000000000000000000000000000000000000606082015260800190565b6020808252602e908201527f496e697469616c697a61626c653a20636f6e747261637420697320616c72656160408201527f647920696e697469616c697a6564000000000000000000000000000000000000606082015260800190565b6020808252602a908201527f4974656d20557067726164696e673a20706c6561736520617070726f7665207460408201527f6f6b656e20666972737400000000000000000000000000000000000000000000606082015260800190565b60208082526022908201527f45434453413a20696e76616c6964207369676e6174757265202776272076616c604082015261756560f01b606082015260800190565b6020808252600d908201527f6f6e6c794d61696e41646d696e00000000000000000000000000000000000000604082015260600190565b6020808252602d908201527f4e465420557067726164696e673a20706c6561736520617070726f766520757360408201527f6420746f6b656e20666972737400000000000000000000000000000000000000606082015260800190565b60208082526018908201527f7061796d656e742063757272656e637920696e76616c69640000000000000000604082015260600190565b60208082526023908201527f4e465420557067726164696e673a20696e73756666696369656e742062616c6160408201527f6e63650000000000000000000000000000000000000000000000000000000000606082015260800190565b60208082526014908201527f7472616e7366657220666f7461206661696c6564000000000000000000000000604082015260600190565b60208082526018908201527f706c656173652066756e6420796f7572206163636f756e740000000000000000604082015260600190565b60208082526013908201527f4d6174683a20496e76616c69642072616e676500000000000000000000000000604082015260600190565b6020808252601d908201527f4974656d20557067726164696e673a20696e76616c696420696e707574000000604082015260600190565b60208082526019908201527f706c6561736520617070726f766520666f746120666972737400000000000000604082015260600190565b6020808252602a908201527f4974656d20557067726164696e673a206e6f74206f776e6572206f6620666f7260408201527f6d756c6120746f6b656e00000000000000000000000000000000000000000000606082015260800190565b60208082526032908201527f4974656d20557067726164696e673a20706c6561736520617070726f7665206660408201527f6f726d756c6120746f6b656e2066697273740000000000000000000000000000606082015260800190565b61ffff91909116815260200190565b918252602082015260400190565b600060ff87168252602060a081840152610140830161ffff88511660a08501528188015160a060c08601528181518084526101608701915084830193508592505b808310156135425783518252928401926001929092019190840190613522565b5060408a015160e087015260608a01519350613562610100870185612ba6565b60808a01519350613577610120870185612bb3565b809450505050508460408301528360608301526126936080830184612ba0565b60405181810167ffffffffffffffff811182821017156135b9576135b961369f565b604052919050565b600082198211156135d4576135d4613673565b500190565b600061ffff808416806135ee576135ee613689565b92169190910492915050565b60008261360957613609613689565b500490565b600081600019048311821515161561362857613628613673565b500290565b60008282101561363f5761363f613673565b500390565b600060001982141561365857613658613673565b5060010190565b60008261366e5761366e613689565b500690565b634e487b7160e01b600052601160045260246000fd5b634e487b7160e01b600052601260045260246000fd5b634e487b7160e01b600052604160045260246000fd5b60038110611d3c57634e487b7160e01b600052602160045260246000fd5b6001600160a01b0381168114611d3c57600080fd5b60038110611d3c57600080fd5b61ffff81168114611d3c57600080fd5b60ff81168114611d3c57600080fdfea264697066735822122095095a88bf9ae2cfb34aa550a61a85214163b0e9bb22daf32559a39aeee2064864736f6c63430008000033",
  "immutableReferences": {},
  "source": "// SPDX-License-Identifier: GPL\n\npragma solidity 0.8.0;\n\nimport \"../interfaces/IGameNFT.sol\";\nimport \"../interfaces/IItemUpgradingMap.sol\";\nimport \"../interfaces/IMarketPlace.sol\";\nimport \"./BaseUpgrading.sol\";\n\ncontract ItemUpgrading is BaseUpgrading {\n  IGameNFT public itemNft;\n\n  struct UpgradingInfo {\n    uint16 itemClass;\n    uint[] materials;\n    uint eatherId;\n    IMarketPlace.PaymentCurrency paymentCurrency;\n    uint8 _acceptedRatio;\n  }\n\n  IItemUpgradingMap itemMap;\n\n  event Upgraded(address indexed _user, uint8 _gene, UpgradingInfo upgradingInfo, uint _newTokenId, uint _fee, bool success);\n\n  function initialize(\n    string memory _name,\n    string memory _version,\n    address _mainAdmin,\n    address _fundAdmin,\n    address _itemNft,\n    address _itemMap,\n    address _fotaPricer\n  ) public initializer {\n    super.initialize(_name, _version, _mainAdmin, _fundAdmin, _fotaPricer);\n    itemNft = IGameNFT(_itemNft);\n    itemMap = IItemUpgradingMap(_itemMap);\n  }\n\n  function upgradeItem(\n    uint16 _itemClass,\n    uint[] calldata _materials,\n    uint _eatherId,\n    IMarketPlace.PaymentCurrency _paymentCurrency,\n    uint8 _acceptedRatio,\n    string calldata _seed,\n    bytes memory _signature\n  ) external {\n    _validateSeed(_seed, _signature);\n    _validateRatio(_itemClass, _acceptedRatio);\n    (uint ownPriceFeeWhenSuccess, uint willKeepMaterialIdIfFailed, uint fee) = _validateAndTakeMaterials(_itemClass, _materials, _eatherId, _paymentCurrency, _acceptedRatio);\n    UpgradingInfo memory upgradingInfo = UpgradingInfo(_itemClass, _materials, _eatherId, _paymentCurrency, _acceptedRatio);\n    bool success = _upgradeItem(upgradingInfo, _acceptedRatio, _seed, ownPriceFeeWhenSuccess, willKeepMaterialIdIfFailed, fee);\n\n    _finishUpgrade(success, ownPriceFeeWhenSuccess, willKeepMaterialIdIfFailed, upgradingInfo);\n  }\n\n  // PRIVATE FUNCTIONS\n\n  function _validateSeed(\n    string calldata _seed,\n    bytes memory _signature\n  ) override internal {\n    bytes32 digest = _hashTypedDataV4(keccak256(abi.encode(\n        keccak256(\"UpgradeItem(address user,string seed,uint256 nonce)\"),\n        msg.sender,\n        keccak256(bytes(_seed)),\n        nonces[msg.sender]\n      )));\n    nonces[msg.sender]++;\n    address signer = ECDSAUpgradeable.recover(digest, _signature);\n    require(signer == contractAdmin, \"MessageVerifier: invalid signature\");\n    require(signer != address(0), \"ECDSAUpgradeable: invalid signature\");\n  }\n\n  function _validateAndTakeMaterials(\n    uint16 _itemClass,\n    uint[] calldata _suppliedMaterialIds,\n    uint _eatherId,\n    IMarketPlace.PaymentCurrency _paymentCurrency,\n    uint8 _acceptedRatio\n  ) private returns (uint ownPriceFeeWhenSuccess, uint willKeepMaterialIdIfFailed, uint fee) {\n    (uint16[] memory materials,,) = itemMap.getItem(_itemClass);\n    ownPriceFeeWhenSuccess = 0;\n    willKeepMaterialIdIfFailed = 0;\n    fee = 0;\n    require(materials.length == _suppliedMaterialIds.length, \"Item Upgrading: invalid input\");\n    uint highestMaterialPrice = 0;\n    for(uint i = 0; i < _suppliedMaterialIds.length; i++) {\n      uint tokenId = _suppliedMaterialIds[i];\n      require(itemNft.ownerOf(tokenId) == msg.sender, \"Item Upgrading: not owner\");\n      (,uint16 suppliedMaterialClass,,uint suppliedItemOwnPrice,uint suppliedFailedUpgradingAmount) = itemNft.getItem(tokenId);\n      if (suppliedItemOwnPrice > highestMaterialPrice) {\n        highestMaterialPrice = suppliedItemOwnPrice;\n        willKeepMaterialIdIfFailed = tokenId;\n      }\n      ownPriceFeeWhenSuccess += suppliedItemOwnPrice;\n      ownPriceFeeWhenSuccess += suppliedFailedUpgradingAmount;\n      require(suppliedMaterialClass == materials[i], \"Item Upgrading: invalid class\");\n      bool approvedItem = itemNft.isApprovedForAll(msg.sender, address(this)) || itemNft.getApproved(tokenId) == address(this);\n      require(approvedItem, \"Item Upgrading: please approve token first\");\n      itemNft.transferFrom(msg.sender, address(this), tokenId);\n    }\n    require(willKeepMaterialIdIfFailed > 0, \"Item Upgrading: wrong keep item when failed\");\n    require(itemNft.ownerOf(_eatherId) == msg.sender, \"Item Upgrading: not owner of formula token\");\n    (uint16 formulaGene,,,uint formulaOwnPrice,) = itemNft.getItem(_eatherId);\n    require(formulaGene == 0, \"Item Upgrading: invalid formula item\");\n    bool approvedEather = itemNft.isApprovedForAll(msg.sender, address(this)) || itemNft.getApproved(_eatherId) == address(this);\n    require(approvedEather, \"Item Upgrading: please approve formula token first\");\n    itemNft.transferFrom(msg.sender, address(this), _eatherId);\n\n    fee = _takeFund(_paymentCurrency, _itemClass, _acceptedRatio);\n    ownPriceFeeWhenSuccess += formulaOwnPrice;\n    ownPriceFeeWhenSuccess += fee;\n  }\n\n  function _getUpgradeFeeWhenFailed(uint _ownPriceFeeWhenSuccess, uint _willKeepMaterialIdIfFailed) private view returns (uint) {\n    (,,,uint suppliedItemOwnPrice,) = itemNft.getItem(_willKeepMaterialIdIfFailed);\n    return _ownPriceFeeWhenSuccess - suppliedItemOwnPrice;\n  }\n\n  function _takeFund(IMarketPlace.PaymentCurrency _paymentCurrency, uint16 _itemClass, uint8 _acceptedRatio) private returns (uint _upgradingFee){\n    (,uint fee,uint8 successRatio) = itemMap.getItem(_itemClass);\n    _upgradingFee = fee * uint(_acceptedRatio) / uint(successRatio);\n    takeFund(_paymentCurrency, _upgradingFee);\n  }\n\n  function _upgradeItem(\n    UpgradingInfo memory _upgradingInfo,\n    uint8 _acceptedRatio,\n    string calldata _seed,\n    uint _ownPrice,\n    uint _willKeepMaterialIdIfFailed,\n    uint fee\n  ) private returns (bool success) {\n    uint16 itemClass = _upgradingInfo.itemClass;\n\n    success = isSuccess(_seed, _acceptedRatio);\n    uint8 gene = uint8(itemClass / 100);\n    if (success) {\n      uint newTokenId = itemNft.mintItem(msg.sender, gene, itemClass, _ownPrice, 0);\n      emit Upgraded(msg.sender, gene, _upgradingInfo, newTokenId, fee, success);\n    } else {\n      emit Upgraded(msg.sender, gene, _upgradingInfo, _willKeepMaterialIdIfFailed, fee, success);\n    }\n  }\n\n  function _validateRatio(uint16 _itemClass, uint8 _acceptedRatio) private view {\n    (,,uint8 successRatio) = itemMap.getItem(_itemClass);\n    require(_acceptedRatio <= successRatio, \"Item Upgrading: invalid ratio\");\n  }\n\n  function _finishUpgrade(\n    bool _success,\n    uint _ownPriceFeeWhenSuccess,\n    uint _willKeepMaterialIdIfFailed,\n    UpgradingInfo memory _upgradingInfo\n  ) private {\n    uint[] memory materials = _upgradingInfo.materials;\n    uint upgradeFeeWhenFailed = _getUpgradeFeeWhenFailed(_ownPriceFeeWhenSuccess, _willKeepMaterialIdIfFailed);\n    if (_success) {\n      for(uint i = 0; i < materials.length; i++) {\n        itemNft.burn(materials[i]);\n      }\n    } else {\n      itemNft.updateFailedUpgradingAmount(_willKeepMaterialIdIfFailed, upgradeFeeWhenFailed);\n      for(uint i = 0; i < materials.length; i++) {\n        if (materials[i] == _willKeepMaterialIdIfFailed) {\n          itemNft.transferFrom(address(this), msg.sender, _willKeepMaterialIdIfFailed);\n        } else {\n          itemNft.burn(materials[i]);\n        }\n      }\n    }\n\n    itemNft.burn(_upgradingInfo.eatherId);\n  }\n}\n",
  "sourcePath": "/Users/binh/Documents/Development/Solidity/fota-dapp/contracts/upgradings/ItemUpgrading.sol",
  "compiler": {
    "name": "solc",
    "version": "0.8.0+commit.c7dfd78e.Emscripten.clang"
  },
  "schemaVersion": "3.3.4",
  "updatedAt": "2022-01-05T07:37:06.166Z",
  "networkType": "ethereum",
  "devdoc": {
    "kind": "dev",
    "methods": {},
    "version": 1
  },
  "userdoc": {
    "kind": "user",
    "methods": {},
    "version": 1
  }
}