{
  "contractName": "ItemAirdropDistributor",
  "abi": [
    {
      "anonymous": false,
      "inputs": [
        {
          "indexed": false,
          "internalType": "uint256",
          "name": "_index",
          "type": "uint256"
        },
        {
          "indexed": false,
          "internalType": "address",
          "name": "_address",
          "type": "address"
        },
        {
          "indexed": false,
          "internalType": "uint256",
          "name": "_tokenId",
          "type": "uint256"
        }
      ],
      "name": "Claimed",
      "type": "event"
    },
    {
      "anonymous": false,
      "inputs": [
        {
          "indexed": true,
          "internalType": "address",
          "name": "_newOwner",
          "type": "address"
        }
      ],
      "name": "ContractAdminUpdated",
      "type": "event"
    },
    {
      "anonymous": false,
      "inputs": [
        {
          "indexed": true,
          "internalType": "address",
          "name": "_previousOwner",
          "type": "address"
        },
        {
          "indexed": true,
          "internalType": "address",
          "name": "_newOwner",
          "type": "address"
        }
      ],
      "name": "OwnershipTransferred",
      "type": "event"
    },
    {
      "inputs": [],
      "name": "_isContractAdmin",
      "outputs": [
        {
          "internalType": "bool",
          "name": "",
          "type": "bool"
        }
      ],
      "stateMutability": "view",
      "type": "function"
    },
    {
      "inputs": [],
      "name": "_isMainAdmin",
      "outputs": [
        {
          "internalType": "bool",
          "name": "",
          "type": "bool"
        }
      ],
      "stateMutability": "view",
      "type": "function"
    },
    {
      "inputs": [],
      "name": "contractAdmin",
      "outputs": [
        {
          "internalType": "address",
          "name": "",
          "type": "address"
        }
      ],
      "stateMutability": "view",
      "type": "function"
    },
    {
      "inputs": [],
      "name": "itemClassId",
      "outputs": [
        {
          "internalType": "uint16",
          "name": "",
          "type": "uint16"
        }
      ],
      "stateMutability": "view",
      "type": "function"
    },
    {
      "inputs": [],
      "name": "itemGene",
      "outputs": [
        {
          "internalType": "uint8",
          "name": "",
          "type": "uint8"
        }
      ],
      "stateMutability": "view",
      "type": "function"
    },
    {
      "inputs": [],
      "name": "itemNFT",
      "outputs": [
        {
          "internalType": "contract IGameNFT",
          "name": "",
          "type": "address"
        }
      ],
      "stateMutability": "view",
      "type": "function"
    },
    {
      "inputs": [],
      "name": "itemPrice",
      "outputs": [
        {
          "internalType": "uint256",
          "name": "",
          "type": "uint256"
        }
      ],
      "stateMutability": "view",
      "type": "function"
    },
    {
      "inputs": [],
      "name": "mainAdmin",
      "outputs": [
        {
          "internalType": "address",
          "name": "",
          "type": "address"
        }
      ],
      "stateMutability": "view",
      "type": "function"
    },
    {
      "inputs": [],
      "name": "rootHash",
      "outputs": [
        {
          "internalType": "bytes32",
          "name": "",
          "type": "bytes32"
        }
      ],
      "stateMutability": "view",
      "type": "function"
    },
    {
      "inputs": [
        {
          "internalType": "address",
          "name": "_newOwner",
          "type": "address"
        }
      ],
      "name": "transferOwnership",
      "outputs": [],
      "stateMutability": "nonpayable",
      "type": "function"
    },
    {
      "inputs": [
        {
          "internalType": "address",
          "name": "_newAdmin",
          "type": "address"
        }
      ],
      "name": "updateContractAdmin",
      "outputs": [],
      "stateMutability": "nonpayable",
      "type": "function"
    },
    {
      "inputs": [
        {
          "internalType": "address",
          "name": "_mainAdmin",
          "type": "address"
        },
        {
          "internalType": "address",
          "name": "_itemNFT",
          "type": "address"
        }
      ],
      "name": "initialize",
      "outputs": [],
      "stateMutability": "nonpayable",
      "type": "function"
    },
    {
      "inputs": [
        {
          "internalType": "address",
          "name": "_mainAdmin",
          "type": "address"
        }
      ],
      "name": "initialize",
      "outputs": [],
      "stateMutability": "nonpayable",
      "type": "function"
    },
    {
      "inputs": [
        {
          "internalType": "bytes32",
          "name": "_rootHash",
          "type": "bytes32"
        }
      ],
      "name": "setRootHash",
      "outputs": [],
      "stateMutability": "nonpayable",
      "type": "function"
    },
    {
      "inputs": [
        {
          "internalType": "uint256",
          "name": "_itemPrice",
          "type": "uint256"
        }
      ],
      "name": "setItemPrice",
      "outputs": [],
      "stateMutability": "nonpayable",
      "type": "function"
    },
    {
      "inputs": [
        {
          "internalType": "uint16",
          "name": "_itemClassId",
          "type": "uint16"
        }
      ],
      "name": "setItemClassId",
      "outputs": [],
      "stateMutability": "nonpayable",
      "type": "function"
    },
    {
      "inputs": [
        {
          "internalType": "uint256",
          "name": "index",
          "type": "uint256"
        }
      ],
      "name": "isClaimed",
      "outputs": [
        {
          "internalType": "bool",
          "name": "",
          "type": "bool"
        }
      ],
      "stateMutability": "view",
      "type": "function"
    },
    {
      "inputs": [
        {
          "internalType": "address",
          "name": "_user",
          "type": "address"
        },
        {
          "internalType": "uint256",
          "name": "_index",
          "type": "uint256"
        },
        {
          "internalType": "bytes32[]",
          "name": "_path",
          "type": "bytes32[]"
        }
      ],
      "name": "isQualified",
      "outputs": [
        {
          "internalType": "bool",
          "name": "",
          "type": "bool"
        }
      ],
      "stateMutability": "view",
      "type": "function"
    },
    {
      "inputs": [
        {
          "internalType": "uint256",
          "name": "_index",
          "type": "uint256"
        },
        {
          "internalType": "bytes32[]",
          "name": "_path",
          "type": "bytes32[]"
        }
      ],
      "name": "claim",
      "outputs": [],
      "stateMutability": "nonpayable",
      "type": "function"
    }
  ],
  "bytecode": "0x608060405234801561001057600080fd5b50610e58806100206000396000f3fe608060405234801561001057600080fd5b50600436106101515760003560e01c806379afde39116100cd578063c4d66de811610081578063dac6db1c11610066578063dac6db1c14610285578063f2fde38b1461028d578063fb6b04ba146102a057610151565b8063c4d66de81461025d578063d8fca4eb1461027057610151565b80639e34070f116100b25780639e34070f1461022f578063b7d6caec14610242578063c156ef571461024a57610151565b806379afde391461020757806398ca77951461021c57610151565b80632d7eae6611610124578063485cc95511610109578063485cc955146101d757806357d1f910146101ea57806377955245146101ff57610151565b80632d7eae66146101b15780632f52ebb7146101c457610151565b806302e65b8a146101565780630fa5af841461016b57806311541ce0146101945780631d80009a1461019c575b600080fd5b610169610164366004610a85565b6102a8565b005b61017e610179366004610ad8565b61033f565b60405161018b9190610c45565b60405180910390f35b61017e6103c9565b6101a46103e0565b60405161018b9190610c50565b6101696101bf366004610b30565b6103e6565b6101696101d2366004610b82565b61040f565b6101696101e5366004610aa6565b6105be565b6101f26106b6565b60405161018b9190610bfc565b6101f26106c5565b61020f6106d4565b60405161018b9190610daf565b61016961022a366004610b30565b6106d9565b61017e61023d366004610b30565b610702565b61017e610745565b610169610258366004610b48565b610756565b61016961026b366004610a85565b61079c565b610278610867565b60405161018b9190610d81565b6101a4610878565b61016961029b366004610a85565b61087e565b6101f2610917565b6102b06103c9565b6102d55760405162461bcd60e51b81526004016102cc90610d13565b60405180910390fd5b6001600160a01b0381166102e857600080fd5b6001805473ffffffffffffffffffffffffffffffffffffffff19166001600160a01b0383169081179091556040517fe3f4a4b5b74aa6830627cb87c50cf7d4ed56e9b246729179ba634bbdc873177a90600090a250565b6000808585604051602001610355929190610bcc565b60405160208183030381529060405280519060200120905061037685610702565b1580156103bf57506103bf84848080602002602001604051908101604052809392919081815260200183836020028082843760009201919091525050600454915084905061092c565b9695505050505050565b6000546201000090046001600160a01b0316331490565b60045481565b6103ee6103c9565b61040a5760405162461bcd60e51b81526004016102cc90610d13565b600455565b61041883610702565b156104355760405162461bcd60e51b81526004016102cc90610c59565b6000338460405160200161044a929190610bcc565b6040516020818303038152906040528051906020012090506104a383838080602002602001604051908101604052809392919081815260200183836020028082843760009201919091525050600454915084905061092c565b6104bf5760405162461bcd60e51b81526004016102cc90610d4a565b6104c8846109e7565b6002546003546040517f882c3b0e0000000000000000000000000000000000000000000000000000000081526000926001600160a01b0381169263882c3b0e92610528923392600192600160a01b90920461ffff16918890600401610c10565b602060405180830381600087803b15801561054257600080fd5b505af1158015610556573d6000803e3d6000fd5b505050506040513d601f19601f8201168201806040525081019061057a9190610b6a565b90507f4ec90e965519d92681267467f775ada5bd214aa92c0dc93d90a5e880ce9ed0268533836040516105af93929190610d90565b60405180910390a15050505050565b600054610100900460ff16806105d7575060005460ff16155b6105f35760405162461bcd60e51b81526004016102cc90610cb6565b600054610100900460ff1615801561061e576000805460ff1961ff0019909116610100171660011790555b6106278361079c565b6002805468056bc75e2d631000006003557f8627ae73ef8bb3d092704dcc557d590277bf54ecf53a3d801346b176e9fb683c60045561ffff60a01b1916747900000000000000000000000000000000000000001773ffffffffffffffffffffffffffffffffffffffff19166001600160a01b03841617905580156106b1576000805461ff00191690555b505050565b6002546001600160a01b031681565b6001546001600160a01b031681565b600181565b6106e16103c9565b6106fd5760405162461bcd60e51b81526004016102cc90610d13565b600355565b60008061071161010084610dbd565b9050600061072161010085610df8565b60009283526005602052604090922054600190921b9182169091149150505b919050565b6001546001600160a01b0316331490565b61075e6103c9565b61077a5760405162461bcd60e51b81526004016102cc90610d13565b6002805461ffff909216600160a01b0261ffff60a01b19909216919091179055565b600054610100900460ff16806107b5575060005460ff16155b6107d15760405162461bcd60e51b81526004016102cc90610cb6565b600054610100900460ff161580156107fc576000805460ff1961ff0019909116610100171660011790555b6000805475ffffffffffffffffffffffffffffffffffffffff00001916620100006001600160a01b038516908102919091179091556001805473ffffffffffffffffffffffffffffffffffffffff191690911790558015610863576000805461ff00191690555b5050565b600254600160a01b900461ffff1681565b60035481565b6108866103c9565b6108a25760405162461bcd60e51b81526004016102cc90610d13565b6001600160a01b0381166108b557600080fd5b6000805475ffffffffffffffffffffffffffffffffffffffff00001916620100006001600160a01b038416908102919091178255604051909133917f8be0079c531659141344cd1fd0a4f28419497f9722a3daafe3b4186f6b6457e09190a350565b6000546201000090046001600160a01b031681565b600081815b85518110156109dc57600086828151811061095c57634e487b7160e01b600052603260045260246000fd5b6020026020010151905080831161099d578281604051602001610980929190610bee565b6040516020818303038152906040528051906020012092506109c9565b80836040516020016109b0929190610bee565b6040516020818303038152906040528051906020012092505b50806109d481610dd1565b915050610931565b509092149392505050565b60006109f561010083610dbd565b90506000610a0561010084610df8565b6000928352600560205260409092208054600190931b9092179091555050565b80356001600160a01b038116811461074057600080fd5b60008083601f840112610a4d578182fd5b50813567ffffffffffffffff811115610a64578182fd5b6020830191508360208083028501011115610a7e57600080fd5b9250929050565b600060208284031215610a96578081fd5b610a9f82610a25565b9392505050565b60008060408385031215610ab8578081fd5b610ac183610a25565b9150610acf60208401610a25565b90509250929050565b60008060008060608587031215610aed578182fd5b610af685610a25565b935060208501359250604085013567ffffffffffffffff811115610b18578283fd5b610b2487828801610a3c565b95989497509550505050565b600060208284031215610b41578081fd5b5035919050565b600060208284031215610b59578081fd5b813561ffff81168114610a9f578182fd5b600060208284031215610b7b578081fd5b5051919050565b600080600060408486031215610b96578283fd5b83359250602084013567ffffffffffffffff811115610bb3578283fd5b610bbf86828701610a3c565b9497909650939450505050565b60609290921b6bffffffffffffffffffffffff19168252601482015260340190565b918252602082015260400190565b6001600160a01b0391909116815260200190565b6001600160a01b0395909516855260ff93909316602085015261ffff9190911660408401526060830152608082015260a00190565b901515815260200190565b90815260200190565b60208082526029908201527f41697264726f704469737472696275746f723a2044726f7020616c726561647960408201527f20636c61696d65642e0000000000000000000000000000000000000000000000606082015260800190565b6020808252602e908201527f496e697469616c697a61626c653a20636f6e747261637420697320616c72656160408201527f647920696e697469616c697a6564000000000000000000000000000000000000606082015260800190565b6020808252600d908201527f6f6e6c794d61696e41646d696e00000000000000000000000000000000000000604082015260600190565b60208082526017908201527f41697264726f704469737472696275746f723a20343030000000000000000000604082015260600190565b61ffff91909116815260200190565b9283526001600160a01b03919091166020830152604082015260600190565b60ff91909116815260200190565b600082610dcc57610dcc610e0c565b500490565b6000600019821415610df157634e487b7160e01b81526011600452602481fd5b5060010190565b600082610e0757610e07610e0c565b500690565b634e487b7160e01b600052601260045260246000fdfea264697066735822122035c7fd2aec47307bd05e7f2c52ab7fb72adfa159ba1fbb80bdf3cf0d2ec3ae6164736f6c63430008000033",
  "immutableReferences": {},
  "source": "// SPDX-License-Identifier: MIT\n\npragma solidity 0.8.0;\n\nimport \"../libs/fota/Auth.sol\";\nimport \"../libs/fota/MerkelProof.sol\";\nimport \"../interfaces/IGameNFT.sol\";\n\ncontract ItemAirdropDistributor is Auth {\n\n  IGameNFT public itemNFT;\n  uint8 constant public itemGene = 1;\n  uint16 public itemClassId;\n  uint public itemPrice;\n\n  bytes32 public rootHash;\n  mapping(uint => uint) private claimedBitMap;\n\n  event Claimed(uint _index, address _address, uint _tokenId);\n\n  function initialize(\n    address _mainAdmin,\n    address _itemNFT\n  ) public initializer {\n    Auth.initialize(_mainAdmin);\n    itemClassId = 121;\n    itemPrice = 100e18;\n    rootHash = 0x8627ae73ef8bb3d092704dcc557d590277bf54ecf53a3d801346b176e9fb683c;\n    itemNFT = IGameNFT(_itemNFT);\n  }\n\n  // OWNER FUNCTIONS\n\n  function setRootHash(bytes32 _rootHash) onlyMainAdmin external {\n    rootHash = _rootHash;\n  }\n\n  function setItemPrice(uint _itemPrice) onlyMainAdmin external {\n    itemPrice = _itemPrice;\n  }\n\n  function setItemClassId(uint16 _itemClassId) onlyMainAdmin external {\n    itemClassId = _itemClassId;\n  }\n\n  // PUBLIC FUNCTIONS\n\n  function isClaimed(uint index) public view returns (bool) {\n    uint claimedWordIndex = index / 256;\n    uint claimedBitIndex = index % 256;\n    uint claimedWord = claimedBitMap[claimedWordIndex];\n    uint mask = (1 << claimedBitIndex);\n    return claimedWord & mask == mask;\n  }\n\n  function isQualified(address _user, uint _index, bytes32[] calldata _path) external view returns (bool) {\n    bytes32 hash = keccak256(abi.encodePacked(_user, _index));\n    return !isClaimed(_index) && MerkleProof.verify(_path, rootHash, hash);\n  }\n\n  function claim(uint _index, bytes32[] calldata _path) external {\n    require(!isClaimed(_index), 'AirdropDistributor: Drop already claimed.');\n    bytes32 hash = keccak256(abi.encodePacked(msg.sender, _index));\n    require(MerkleProof.verify(_path, rootHash, hash), 'AirdropDistributor: 400');\n    _setClaimed(_index);\n    uint tokenId = itemNFT.mintItem(msg.sender, itemGene, itemClassId, itemPrice, 0);\n    emit Claimed(_index, msg.sender, tokenId);\n  }\n\n  // PRIVATE FUNCTIONS\n\n  function _setClaimed(uint index) private {\n    uint claimedWordIndex = index / 256;\n    uint claimedBitIndex = index % 256;\n    claimedBitMap[claimedWordIndex] = claimedBitMap[claimedWordIndex] | (1 << claimedBitIndex);\n  }\n}\n",
  "sourcePath": "/Users/binh/Documents/Development/Solidity/fota-dapp/contracts/airdrop/ItemAirdropDistributor.sol",
  "compiler": {
    "name": "solc",
    "version": "0.8.0+commit.c7dfd78e.Emscripten.clang"
  },
  "schemaVersion": "3.3.4",
  "updatedAt": "2022-01-05T07:37:06.136Z",
  "networkType": "ethereum",
  "devdoc": {
    "kind": "dev",
    "methods": {},
    "version": 1
  },
  "userdoc": {
    "kind": "user",
    "methods": {},
    "version": 1
  }
}