{
  "contractName": "ItemUpgradingMap",
  "abi": [
    {
      "anonymous": false,
      "inputs": [
        {
          "indexed": true,
          "internalType": "address",
          "name": "_newOwner",
          "type": "address"
        }
      ],
      "name": "ContractAdminUpdated",
      "type": "event"
    },
    {
      "anonymous": false,
      "inputs": [
        {
          "indexed": false,
          "internalType": "uint8",
          "name": "_gene",
          "type": "uint8"
        },
        {
          "indexed": false,
          "internalType": "uint256",
          "name": "_fee",
          "type": "uint256"
        },
        {
          "indexed": false,
          "internalType": "uint256",
          "name": "timestamp",
          "type": "uint256"
        }
      ],
      "name": "FeeUpdated",
      "type": "event"
    },
    {
      "anonymous": false,
      "inputs": [
        {
          "indexed": false,
          "internalType": "uint16",
          "name": "_itemClass",
          "type": "uint16"
        },
        {
          "indexed": false,
          "internalType": "uint16[]",
          "name": "_materials",
          "type": "uint16[]"
        },
        {
          "indexed": false,
          "internalType": "uint256",
          "name": "_fee",
          "type": "uint256"
        },
        {
          "indexed": false,
          "internalType": "uint256",
          "name": "_successRatio",
          "type": "uint256"
        }
      ],
      "name": "ItemSet",
      "type": "event"
    },
    {
      "anonymous": false,
      "inputs": [
        {
          "indexed": false,
          "internalType": "uint16",
          "name": "_itemClass",
          "type": "uint16"
        },
        {
          "indexed": false,
          "internalType": "uint16[]",
          "name": "_materials",
          "type": "uint16[]"
        },
        {
          "indexed": false,
          "internalType": "uint256",
          "name": "_fee",
          "type": "uint256"
        },
        {
          "indexed": false,
          "internalType": "uint256",
          "name": "_successRatio",
          "type": "uint256"
        }
      ],
      "name": "ItemUpdated",
      "type": "event"
    },
    {
      "anonymous": false,
      "inputs": [
        {
          "indexed": true,
          "internalType": "address",
          "name": "_previousOwner",
          "type": "address"
        },
        {
          "indexed": true,
          "internalType": "address",
          "name": "_newOwner",
          "type": "address"
        }
      ],
      "name": "OwnershipTransferred",
      "type": "event"
    },
    {
      "anonymous": false,
      "inputs": [
        {
          "indexed": false,
          "internalType": "uint16",
          "name": "_classId",
          "type": "uint16"
        },
        {
          "indexed": false,
          "internalType": "uint8",
          "name": "_successRatio",
          "type": "uint8"
        },
        {
          "indexed": false,
          "internalType": "uint256",
          "name": "timestamp",
          "type": "uint256"
        }
      ],
      "name": "RatioUpdated",
      "type": "event"
    },
    {
      "inputs": [],
      "name": "_isContractAdmin",
      "outputs": [
        {
          "internalType": "bool",
          "name": "",
          "type": "bool"
        }
      ],
      "stateMutability": "view",
      "type": "function"
    },
    {
      "inputs": [],
      "name": "_isMainAdmin",
      "outputs": [
        {
          "internalType": "bool",
          "name": "",
          "type": "bool"
        }
      ],
      "stateMutability": "view",
      "type": "function"
    },
    {
      "inputs": [],
      "name": "contractAdmin",
      "outputs": [
        {
          "internalType": "address",
          "name": "",
          "type": "address"
        }
      ],
      "stateMutability": "view",
      "type": "function"
    },
    {
      "inputs": [
        {
          "internalType": "uint8",
          "name": "",
          "type": "uint8"
        },
        {
          "internalType": "uint256",
          "name": "",
          "type": "uint256"
        }
      ],
      "name": "itemClasses",
      "outputs": [
        {
          "internalType": "uint16",
          "name": "",
          "type": "uint16"
        }
      ],
      "stateMutability": "view",
      "type": "function"
    },
    {
      "inputs": [
        {
          "internalType": "uint16",
          "name": "",
          "type": "uint16"
        }
      ],
      "name": "items",
      "outputs": [
        {
          "internalType": "uint256",
          "name": "fee",
          "type": "uint256"
        },
        {
          "internalType": "uint8",
          "name": "successRatio",
          "type": "uint8"
        }
      ],
      "stateMutability": "view",
      "type": "function"
    },
    {
      "inputs": [],
      "name": "mainAdmin",
      "outputs": [
        {
          "internalType": "address",
          "name": "",
          "type": "address"
        }
      ],
      "stateMutability": "view",
      "type": "function"
    },
    {
      "inputs": [
        {
          "internalType": "address",
          "name": "_newOwner",
          "type": "address"
        }
      ],
      "name": "transferOwnership",
      "outputs": [],
      "stateMutability": "nonpayable",
      "type": "function"
    },
    {
      "inputs": [
        {
          "internalType": "address",
          "name": "_newAdmin",
          "type": "address"
        }
      ],
      "name": "updateContractAdmin",
      "outputs": [],
      "stateMutability": "nonpayable",
      "type": "function"
    },
    {
      "inputs": [
        {
          "internalType": "address",
          "name": "_mainAdmin",
          "type": "address"
        }
      ],
      "name": "initialize",
      "outputs": [],
      "stateMutability": "nonpayable",
      "type": "function"
    },
    {
      "inputs": [
        {
          "internalType": "uint16",
          "name": "_itemClass",
          "type": "uint16"
        }
      ],
      "name": "getItem",
      "outputs": [
        {
          "internalType": "uint16[]",
          "name": "",
          "type": "uint16[]"
        },
        {
          "internalType": "uint256",
          "name": "",
          "type": "uint256"
        },
        {
          "internalType": "uint8",
          "name": "",
          "type": "uint8"
        }
      ],
      "stateMutability": "view",
      "type": "function"
    },
    {
      "inputs": [
        {
          "internalType": "uint8",
          "name": "_gene",
          "type": "uint8"
        },
        {
          "internalType": "uint16",
          "name": "_itemClass",
          "type": "uint16"
        },
        {
          "internalType": "uint16[]",
          "name": "_materials",
          "type": "uint16[]"
        },
        {
          "internalType": "uint256",
          "name": "_fee",
          "type": "uint256"
        },
        {
          "internalType": "uint8",
          "name": "_successRatio",
          "type": "uint8"
        }
      ],
      "name": "setItem",
      "outputs": [],
      "stateMutability": "nonpayable",
      "type": "function"
    },
    {
      "inputs": [
        {
          "internalType": "uint16",
          "name": "_itemClass",
          "type": "uint16"
        },
        {
          "internalType": "uint16[]",
          "name": "_materials",
          "type": "uint16[]"
        },
        {
          "internalType": "uint256",
          "name": "_fee",
          "type": "uint256"
        },
        {
          "internalType": "uint8",
          "name": "_successRatio",
          "type": "uint8"
        }
      ],
      "name": "updateItem",
      "outputs": [],
      "stateMutability": "nonpayable",
      "type": "function"
    },
    {
      "inputs": [
        {
          "internalType": "uint8",
          "name": "_gene",
          "type": "uint8"
        },
        {
          "internalType": "uint256",
          "name": "_fee",
          "type": "uint256"
        }
      ],
      "name": "updateFee",
      "outputs": [],
      "stateMutability": "nonpayable",
      "type": "function"
    },
    {
      "inputs": [
        {
          "internalType": "uint16",
          "name": "_classId",
          "type": "uint16"
        },
        {
          "internalType": "uint8",
          "name": "_successRatio",
          "type": "uint8"
        }
      ],
      "name": "updateRatio",
      "outputs": [],
      "stateMutability": "nonpayable",
      "type": "function"
    }
  ],
  "bytecode": "0x608060405234801561001057600080fd5b50615271806100206000396000f3fe608060405234801561001057600080fd5b50600436106100ea5760003560e01c8063b365f25b1161008c578063e8c91e5311610066578063e8c91e53146101cd578063f2fde38b146101ee578063f84bcf1314610201578063fb6b04ba14610214576100ea565b8063b365f25b1461019f578063b7d6caec146101b2578063c4d66de8146101ba576100ea565b80637052a5e5116100c85780637052a5e5146101355780637795524514610148578063810de9de1461015d5780639dee790d1461017f576100ea565b806302e65b8a146100ef57806311541ce0146101045780635238b3fc14610122575b600080fd5b6101026100fd366004614ce9565b61021c565b005b61010c6102be565b6040516101199190614ee0565b60405180910390f35b610102610130366004614dcf565b6102d5565b610102610143366004614e4a565b610462565b61015061056b565b6040516101199190614e73565b61017061016b366004614d17565b61057a565b60405161011993929190614e87565b61019261018d366004614e4a565b610648565b6040516101199190615092565b6101026101ad366004614d9d565b61068f565b61010c610713565b6101026101c8366004614ce9565b610724565b6101e06101db366004614d17565b6107e1565b604051610119929190615128565b6101026101fc366004614ce9565b610800565b61010261020f366004614d31565b610899565b6101506109e3565b6102246102be565b6102495760405162461bcd60e51b815260040161024090614fed565b60405180910390fd5b6001600160a01b03811661025c57600080fd5b600180547fffffffffffffffffffffffff0000000000000000000000000000000000000000166001600160a01b0383169081179091556040517fe3f4a4b5b74aa6830627cb87c50cf7d4ed56e9b246729179ba634bbdc873177a90600090a250565b6000546201000090046001600160a01b0316331490565b6102dd6102be565b6102f95760405162461bcd60e51b815260040161024090614fed565b610302856109f8565b61ffff8516600090815260026020526040902060010154156103365760405162461bcd60e51b815260040161024090615024565b61033f81610a20565b60405180606001604052808585808060200260200160405190810160405280939291908181526020018383602002808284376000920182905250938552505050602080830186905260ff851660409384015261ffff89168252600281529190208251805191926103b492849290910190614bba565b506020828101516001838101919091556040938401516002938401805460ff191660ff9283161790558a166000908152600383528481208054928301815581529190912060108204018054600f9092169092026101000a61ffff8181021990921691891602179055517fb14e2a51ebe085209bbc0c64b7288731208dbd26100a13af611a12a09e8e485c9061045290879087908790879087906150a1565b60405180910390a1505050505050565b61046a6102be565b6104865760405162461bcd60e51b815260040161024090614fed565b61048f82610a43565b60005b60ff831660009081526003602052604090205481101561052b5760ff83166000908152600360205260408120805484926002929091859081106104e557634e487b7160e01b600052603260045260246000fd5b60009182526020808320601083040154600f9092166002026101000a90910461ffff1683528201929092526040019020600101558061052381615154565b915050610492565b507f2df9ab6e42f0be5e726cbdc55c72a8d2ff8e9347abbea531966363f9d5e1049482824260405161055f93929190615139565b60405180910390a15050565b6001546001600160a01b031681565b61ffff81166000908152600260209081526040808320815181546080948102820185019093526060818101848152909594859485949284929091849184018282801561060d57602002820191906000526020600020906000905b82829054906101000a900461ffff1661ffff16815260200190600201906020826001010492830192600103820291508084116105d45790505b5050509183525050600182015460208083019190915260029092015460ff166040918201528251918301519201519097919650945092505050565b6003602052816000526040600020818154811061066457600080fd5b9060005260206000209060109182820401919006600202915091509054906101000a900461ffff1681565b6106976102be565b6106b35760405162461bcd60e51b815260040161024090614fed565b6106bc81610a20565b61ffff821660009081526002602081905260409182902001805460ff191660ff8416179055517f890cff2e28b4e6b44dd7bd4437748b00443dda47d3002abd7ba8409d4854f2a09061055f90849084904290615109565b6001546001600160a01b0316331490565b600054610100900460ff168061073d575060005460ff16155b6107595760405162461bcd60e51b815260040161024090614f90565b600054610100900460ff16158015610784576000805460ff1961ff0019909116610100171660011790555b6000805475ffffffffffffffffffffffffffffffffffffffff00001916620100006001600160a01b038516021790556107bb610a83565b6107c36122be565b6107cb6133fc565b80156107dd576000805461ff00191690555b5050565b6002602081905260009182526040909120600181015491015460ff1682565b6108086102be565b6108245760405162461bcd60e51b815260040161024090614fed565b6001600160a01b03811661083757600080fd5b6000805475ffffffffffffffffffffffffffffffffffffffff00001916620100006001600160a01b038416908102919091178255604051909133917f8be0079c531659141344cd1fd0a4f28419497f9722a3daafe3b4186f6b6457e09190a350565b6108a16102be565b6108bd5760405162461bcd60e51b815260040161024090614fed565b6108c6856109f8565b61ffff85166000908152600260205260409020600101546108f95760405162461bcd60e51b815260040161024090614f22565b61090281610a20565b60405180606001604052808585808060200260200160405190810160405280939291908181526020018383602002808284376000920182905250938552505050602080830186905260ff851660409384015261ffff891682526002815291902082518051919261097792849290910190614bba565b50602082015160018201556040918201516002909101805460ff191660ff909216919091179055517f7feb8d65393a476f364caaa49fbf99debf0f0ac442281e213216305d0a24eb5f906109d490879087908790879087906150a1565b60405180910390a15050505050565b6000546201000090046001600160a01b031681565b60c88161ffff161015610a1d5760405162461bcd60e51b815260040161024090614eeb565b50565b60648160ff1610610a1d5760405162461bcd60e51b815260040161024090614f59565b60018160ff16118015610a67575060ff811660009081526003602052604090205415155b610a1d5760405162461bcd60e51b81526004016102409061505b565b60008051602061517c8339815191528054600181019091556000805160206151dc8339815191526010820401805461ffff6002600f90941684026101000a9081021990911660c991820217909155604080516000606082018181526080830184528252681b1ae4d6e2ef50000060208381018290526032948401859052949091529383528051805192949391927f09d91cf585d487fdc42b8aa6e2bc19dbe6bc50e14ca706ebbf9bdaeef6b78e5892610b40928492910190614bba565b506020828101516001838101919091556040938401516002938401805460ff92831660ff199091161790557f09d91cf585d487fdc42b8aa6e2bc19dbe6bc50e14ca706ebbf9bdaeef6b78e58805480840190915560108082047f26835e00915f107ea966d97ad939ff7bf23e809a442fbec2436a37c3d44978910180546069600f948516890261010090810a91820261ffff928302199093169290921790925560008051602061517c833981519152805496870190559185046000805160206151dc83398151915201805460ca96909416880290920a858102910219909216919091179055845160006060820181815260808301885282528185018890529188169581019590955252908152815180517fa369cd4c3f01bfd8bdb4455d1060ebfa07d412a1b974b8bc5bfcf41870dba6bf92610c80928492910190614bba565b506020828101516001838101919091556040938401516002938401805460ff92831660ff199091161790557fa369cd4c3f01bfd8bdb4455d1060ebfa07d412a1b974b8bc5bfcf41870dba6bf805480840190915560108082047fb955e26ee03842f56b11ec10cc5aa0607aa6c67c442dd920927eaf86b8ad0775018054606a600f948516890261010090810a91820261ffff928302199093169290921790925560008051602061517c833981519152805496870190559185046000805160206151dc83398151915201805460cb96909416880290920a858102910219909216919091179055845160006060820181815260808301885282528185018890529188169581019590955252908152815180517f3e9f865c071dca605ac9e4156c981564f4f49033540be997531d1db7d752228f92610dc0928492910190614bba565b506020828101516001838101919091556040938401516002938401805460ff92831660ff199091161790557f3e9f865c071dca605ac9e4156c981564f4f49033540be997531d1db7d752228f805480840190915560108082047f9716474b685530300306e79ba425f8bd1567666c68ea29be01b4f7c26b1b6166018054606f600f948516890261010090810a91820261ffff928302199093169290921790925560008051602061517c833981519152805496870190559185046000805160206151dc83398151915201805460cc96909416880290920a858102910219909216919091179055845160006060820181815260808301885282528185018890529188169581019590955252908152815180517f15531e88bae16d971c335931052549d408d7d05a38b4dacc091f6db9dbbb6ddc92610f00928492910190614bba565b506020828101516001838101919091556040938401516002938401805460ff92831660ff199091161790557f15531e88bae16d971c335931052549d408d7d05a38b4dacc091f6db9dbbb6ddc805480840190915560108082047f0c54488b66254968b0db8de24d8585251f033e6f4e64a85681a7fe96ad409d3a0180546073600f948516890261010090810a91820261ffff928302199093169290921790925560008051602061517c833981519152805496870190559185046000805160206151dc83398151915201805460cd96909416880290920a858102910219909216919091179055845160006060820181815260808301885282528185018890529188169581019590955252908152815180517f3b77fbda46b9ec81be06aaa750123ed7df8486d593acd5a63efe1ee068667c8d92611040928492910190614bba565b506020828101516001838101919091556040938401516002938401805460ff92831660ff199091161790557f3b77fbda46b9ec81be06aaa750123ed7df8486d593acd5a63efe1ee068667c8d805480840190915560108082047f8df67bfcb90b62a23d7280ce71789917dc2023ed28da878cfd0078d9bdabd07e018054606e600f948516890261010090810a91820261ffff928302199093169290921790925560008051602061517c833981519152805496870190559185046000805160206151dc83398151915201805460ce96909416880290920a858102910219909216919091179055845160006060820181815260808301885282528185018890529188169581019590955252908152815180517f78d33096d032578600d887ff61b5b7094943c20ecc8130b7b2ac2f0cabba92e292611180928492910190614bba565b506020828101516001838101919091556040938401516002938401805460ff92831660ff199091161790557f78d33096d032578600d887ff61b5b7094943c20ecc8130b7b2ac2f0cabba92e2805480840190915560108082047ff0e1d66a91754c3554cdc5be3bd4a56460012a12951f87982961efe099eabfb10180546074600f948516890261010090810a91820261ffff928302199093169290921790925560008051602061517c833981519152805496870190559185046000805160206151dc83398151915201805460cf96909416880290920a858102910219909216919091179055845160006060820181815260808301885282528185018890529188169581019590955252908152815180517f3e7f753fda5407023c5f9fac1581d61bbb95c3bdf02282e1c5f25b00c364d647926112c0928492910190614bba565b506020828101516001838101919091556040938401516002938401805460ff92831660ff199091161790557f3e7f753fda5407023c5f9fac1581d61bbb95c3bdf02282e1c5f25b00c364d647805480840190915560108082047f28aa68dacfbe747ff5bbe7eab263f5bf75a0ddfca31c6adcbb6db720d4df50ec0180546068600f948516890261010090810a91820261ffff928302199093169290921790925560008051602061517c833981519152805496870190559185046000805160206151dc83398151915201805460d096909416880290920a858102910219909216919091179055845160006060820181815260808301885282528185018890529188169581019590955252908152815180517f5de2ca0ede56f97d59bdfd9aac56b7aa44c257efb44f6685a2c7a229f96a74a692611400928492910190614bba565b506020828101516001838101919091556040938401516002938401805460ff92831660ff199091161790557f5de2ca0ede56f97d59bdfd9aac56b7aa44c257efb44f6685a2c7a229f96a74a6805480840190915560108082047f96e2a94ef4fba68612c71a01db4f18a8cb5eb6a6b91cd869204a500a42dda5a00180546075600f948516890261010090810a91820261ffff928302199093169290921790925560008051602061517c833981519152805496870190559185046000805160206151dc83398151915201805460d196909416880290920a858102910219909216919091179055845160006060820181815260808301885282528185018890529188169581019590955252908152815180517f542b27c21ec188e9b1aaf467814be208de30ef593c09e8a2ed5889ba30bb7afd92611540928492910190614bba565b506020828101516001838101919091556040938401516002938401805460ff191660ff9283161790557f542b27c21ec188e9b1aaf467814be208de30ef593c09e8a2ed5889ba30bb7afd805480840182557ffe806ad7cef6f94fa76104ffd5d5ee46b3f57c2a5a77f8bdbb3cd6fe4ee83f1260108083048201805461ffff600f9586168b0261010090810a8281021990931660799390930292909217909255855480890190965582860490930180549585168a02840a80830219909616607a969096029590951790945560008051602061517c833981519152805496870190556000805160206151dc833981519152908604018054959092168702900a9182021990931660d291820217909255845160006060820181815260808301885282528185018890529188169581019590955252908152815180517f1a375f73d2f85976361768f376ae29d3d78e21e06cd053138be3c5b4766564d0926116a8928492910190614bba565b506020828101516001838101919091556040938401516002938401805460ff191660ff9283161790557f1a375f73d2f85976361768f376ae29d3d78e21e06cd053138be3c5b4766564d0805480840182557fa48bc04605235dede702549a8e22ca40ab95f315e1a2c40005cade9a1c264bf160108083048201805461ffff600f9586168b0261010090810a8281021990931660659390930292909217909255855480890190965582860490930180549585168a02840a808302199096166066969096029590951790945560008051602061517c833981519152805496870190556000805160206151dc833981519152908604018054959092168702900a9182021990931660d391820217909255845160006060820181815260808301885282528185018890529188169581019590955252908152815180517feb6856e0ae0d71a8a9e0bc42aca98fe96c3be13699c5c2d551c94a190e39043d92611810928492910190614bba565b506020828101516001838101919091556040938401516002938401805460ff191660ff9283161790557feb6856e0ae0d71a8a9e0bc42aca98fe96c3be13699c5c2d551c94a190e39043d805480840182557f60cc640e19ceeee6310b56a62697e7c39f3a955a74283cc55fa65f59ca647e1b60108083048201805461ffff600f9586168b0261010090810a8281021990931660679390930292909217909255855480890190965582860490930180549585168a02840a808302199096166068969096029590951790945560008051602061517c833981519152805496870190556000805160206151dc833981519152908604018054959092168702900a9182021990931660d491820217909255845160006060820181815260808301885282528185018890529188169581019590955252908152815180517f07f164294c9f742449ae2b41ea995596da138b514d14d5f233585da8f929719692611978928492910190614bba565b506020828101516001838101919091556040938401516002938401805460ff191660ff9283161790557f07f164294c9f742449ae2b41ea995596da138b514d14d5f233585da8f9297196805480840182557f394d807afac884771d4410b76975957dc5b8fe0dd612241b0623ccc7ad39644160108083048201805461ffff600f9586168b0261010090810a82810219909316606b9390930292909217909255855480890190965582860490930180549585168a02840a80830219909616606c969096029590951790945560008051602061517c833981519152805496870190556000805160206151dc833981519152908604018054959092168702900a9182021990931660d591820217909255845160006060820181815260808301885282528185018890529188169581019590955252908152815180517f3926cb2852d780b0b027970c63edfde054d1b6dcba3e6f9d5494b62c7dc3deaf92611ae0928492910190614bba565b506020828101516001838101919091556040938401516002938401805460ff191660ff9283161790557f3926cb2852d780b0b027970c63edfde054d1b6dcba3e6f9d5494b62c7dc3deaf805480840182557ff8e98dffe5c511f8b525d46ba7c719c04a4b8a04bb6bdccc58b114073c90be7760108083048201805461ffff600f9586168b0261010090810a82810219909316606d9390930292909217909255855480890190965582860490930180549585168a02840a80830219909616606e969096029590951790945560008051602061517c833981519152805496870190556000805160206151dc833981519152908604018054959092168702900a9182021990931660d691820217909255845160006060820181815260808301885282528185018890529188169581019590955252908152815180517f062ea79497517940eb9ca80eb84178feb240a440809ebfdb05aa2fbd8124871b92611c48928492910190614bba565b506020828101516001838101919091556040938401516002938401805460ff191660ff9283161790557f062ea79497517940eb9ca80eb84178feb240a440809ebfdb05aa2fbd8124871b805480840182557f20bb6d1a39e78abdee9203b77cf6080a3511ce60f858dd2c200b6b91b382de8260108083048201805461ffff600f9586168b0261010090810a8281021990931660709390930292909217909255855480890190965582860490930180549585168a02840a808302199096166071969096029590951790945560008051602061517c833981519152805496870190556000805160206151dc833981519152908604018054959092168702900a9182021990931660d791820217909255845160006060820181815260808301885282528185018890529188169581019590955252908152815180517f8622f55c65610f385e1d95c8f07ca152f97aa824081a0afcd103f33f6b8ca72a92611db0928492910190614bba565b506020828101516001838101919091556040938401516002938401805460ff191660ff9283161790557f8622f55c65610f385e1d95c8f07ca152f97aa824081a0afcd103f33f6b8ca72a805480840182557fb87abb804bd66963ef8cf3b6eb40964c3de1b66f6ee6c4ff4c0c1d51a8ea7e3a60108083048201805461ffff600f9586168b0261010090810a82810219909316606e9390930292909217909255855480890190965582860490930180549585168a02840a808302199096166072969096029590951790945560008051602061517c833981519152805496870190556000805160206151dc833981519152908604018054959092168702900a9182021990931660d891820217909255845160006060820181815260808301885282528185018890529188169581019590955252908152815180517fa7ab9585d176f7553243ab24f6ba2b1d026cba57011704693e8f7e688fc6c10292611f18928492910190614bba565b506020828101516001838101919091556040938401516002938401805460ff191660ff9283161790557fa7ab9585d176f7553243ab24f6ba2b1d026cba57011704693e8f7e688fc6c102805480840182557f2c6f78aa2a874483ec2a2c023a3dec9f174406e74420b1445864c13040a74a5760108083048201805461ffff600f9586168b0261010090810a8281021990931660769390930292909217909255855480890190965582860490930180549585168a02840a808302199096166077969096029590951790945560008051602061517c833981519152805496870190556000805160206151dc833981519152908604018054959092168702900a9182021990931660d991820217909255845160006060820181815260808301885282528185018890529188169581019590955252908152815180517fecd674fc05cbf25884a6c998a0811e827484a4241ea862d5e4aaf854ad2019e992612080928492910190614bba565b506020828101516001838101919091556040938401516002938401805460ff191660ff9283161790557fecd674fc05cbf25884a6c998a0811e827484a4241ea862d5e4aaf854ad2019e9805480840182557fd74f5b988bc0dea54f8ea909f1d62c2f24bf2920f0d7d300f3b1f4987051abb360108083048201805461ffff600f9586168b0261010090810a82810219909316606e9390930292909217909255855480890190965582860490930180549585168a02840a808302199096166078969096029590951790945560008051602061517c833981519152805496870190556000805160206151dc833981519152908604018054959092168702900a9182021990931660da91820217909255845160006060820181815260808301885282528185018890529188169581019590955252908152815180517f97ba37c2812553afd816a41209bfa05988866ac62f5bb660b03b28125eccec51926121e8928492910190614bba565b506020828101516001838101919091556040909301516002928301805460ff191660ff9092169190911790558190527f97ba37c2812553afd816a41209bfa05988866ac62f5bb660b03b28125eccec51805480840182557f95ad479e034451086b04264542883e92250b3675e923ffb65012256e73276d9b60108083048201805461ffff600f958616880261010090810a82810219909316606e909302929092179092558554978801865560009590955290860490910180549590921690930290910a9182021990921660779091021790555050565b60008051602061521c83398151915280546001810190915560008051602061519c8339815191526010820401805461ffff600f90931660029081026101000a9384021990911661012d93840217909155604080516000606082018181526080830184528252683635c9adc5dea000006020808401829052601e9484018590529590915292845280518051600a959394937f139454b4e15acc126ab6360d347a2568da4464094cc5a224e35849bd6f3452de926123809284929190910190614bba565b506020828101516001838101919091556040938401516002938401805460ff92831660ff199091161790557f139454b4e15acc126ab6360d347a2568da4464094cc5a224e35849bd6f3452de805480840190915560108082047fb058674298fa06ab7a88d236d0c8a5de9c028f7dbe18959a1936af1705129e6701805460d7600f948516890261010090810a91820261ffff928302199093169290921790925560008051602061521c8339815191528054968701905591850460008051602061519c83398151915201805461012e96909416880290920a858102910219909216919091179055845160006060820181815260808301885282528185018890529189169581019590955252908152815180517ff74ac539dc32586d9b274ca134676e2f27cb7fb424674b2598351627dd5166b6926124c1928492910190614bba565b506020828101516001838101919091556040938401516002938401805460ff92831660ff199091161790557ff74ac539dc32586d9b274ca134676e2f27cb7fb424674b2598351627dd5166b6805480840190915560108082047f5ebe0d1f8efe3d511d204d75eeb84fa2a4429f5b599a92a718174a32c298f0b601805460da600f948516890261010090810a91820261ffff928302199093169290921790925560008051602061521c8339815191528054968701905591850460008051602061519c83398151915201805461012f96909416880290920a858102910219909216919091179055845160006060820181815260808301885282528185018890529188169581019590955252908152815180517fac7511a01df823fb51359303411b7e2f723cd4e10f128e3084b8ebbea214c26392612602928492910190614bba565b506020828101516001838101919091556040938401516002938401805460ff92831660ff199091161790557fac7511a01df823fb51359303411b7e2f723cd4e10f128e3084b8ebbea214c263805480840190915560108082047fa7a7e17d05eab09a9dc95cbfe3d8d32098ec655f710d44e2c42b41c03ee725c701805460d2600f948516890261010090810a91820261ffff928302199093169290921790925560008051602061521c8339815191528054968701905591850460008051602061519c83398151915201805461013096909416880290920a858102910219909216919091179055845160006060820181815260808301885282528185018890529188169581019590955252908152815180517f1cc42237b0fb8f0a02adc3d03ce8e36f1c04cdd89283fe1c1b0481c9c7b7687f92612743928492910190614bba565b506020828101516001838101919091556040938401516002938401805460ff92831660ff199091161790557f1cc42237b0fb8f0a02adc3d03ce8e36f1c04cdd89283fe1c1b0481c9c7b7687f805480840190915560108082047f7b0734845003873eb62823324a541e0352830501b9272a79fe433bbf78c7c18601805460d3600f948516890261010090810a91820261ffff928302199093169290921790925560008051602061521c8339815191528054968701905591850460008051602061519c83398151915201805461013196909416880290920a858102910219909216919091179055845160006060820181815260808301885282528185018890529188169581019590955252908152815180517f426a0ce062acc91dc098f9414c8a502011c853c3c2d3593f3d6cef3e0d2b0e5d92612884928492910190614bba565b506020828101516001838101919091556040938401516002938401805460ff92831660ff199091161790557f426a0ce062acc91dc098f9414c8a502011c853c3c2d3593f3d6cef3e0d2b0e5d805480840190915560108082047f55528bd79e0a15a47838d5f7a57c0b684847b1a8e2c43a5b5195a9b1cdfc45d501805460d4600f948516890261010090810a91820261ffff928302199093169290921790925560008051602061521c8339815191528054968701905591850460008051602061519c83398151915201805461013296909416880290920a858102910219909216919091179055845160006060820181815260808301885282528185018890529188169581019590955252908152815180517ff9cc0d11ff5a0dcef3e7e8c066efe8c7a7f23162605cc3bca7cacd3f72cb808f926129c5928492910190614bba565b506020828101516001838101919091556040938401516002938401805460ff92831660ff199091161790557ff9cc0d11ff5a0dcef3e7e8c066efe8c7a7f23162605cc3bca7cacd3f72cb808f805480840190915560108082047f58865834d374d5b7e2d139415aba1cbe1887c63fb3b534d5c66ed95249e1348d01805460ca600f948516890261010090810a91820261ffff928302199093169290921790925560008051602061521c8339815191528054968701905591850460008051602061519c83398151915201805461013496909416880290920a858102910219909216919091179055845160006060820181815260808301885282528185018890529188169581019590955252908152815180517f3c7f0459e92bf4ef9b445c6cab3c76f85e508de9eda982ce8ceff984fffba2f292612b06928492910190614bba565b506020828101516001838101919091556040938401516002938401805460ff191660ff9283161790557f3c7f0459e92bf4ef9b445c6cab3c76f85e508de9eda982ce8ceff984fffba2f2805480840182557f3dd148c438812cc2fc917d4adfd20e11614ee4554b30cd965610014e65ac5ccb60108083048201805461ffff600f9586168b0261010090810a8281021990931660c99390930292909217909255855480890190965582860490930180549585168a02840a8083021990961660ca969096029590951790945560008051602061521c8339815191528054968701905560008051602061519c833981519152908604018054959092168702900a9182021990931661013391820217909255845160006060820181815260808301885282528185018890529189169581019590955252908152815180517fbccace6edc012c960101bc8529297d9340af1ffee2b45bae9c664a5c3ed01b0592612c6f928492910190614bba565b506020828101516001838101919091556040938401516002938401805460ff92831660ff199091161790557fbccace6edc012c960101bc8529297d9340af1ffee2b45bae9c664a5c3ed01b05805480840190915560108082047fadf1683e29175e5f303a26e4053848b0f0555cac5fae81f99fb4e072f2ebd05301805460d5600f948516890261010090810a91820261ffff928302199093169290921790925560008051602061521c8339815191528054968701905591850460008051602061519c83398151915201805461013596909416880290920a858102910219909216919091179055845160006060820181815260808301885282528185018890529189169581019590955252908152815180517f0d0921ce3f010b7c08413dbe58d207181fecc962b79a2be373cde349ee975df992612db0928492910190614bba565b506020828101516001838101919091556040938401516002938401805460ff191660ff9283161790557f0d0921ce3f010b7c08413dbe58d207181fecc962b79a2be373cde349ee975df9805480840182557fa1b8e07853fe8e413bf7204d8a17e4d74af4d75c961acf3aaf782f5d88e34ed960108083048201805461ffff600f9586168b0261010090810a8281021990931660ca9390930292909217909255855480890190965582860490930180549585168a02840a8083021990961660d2969096029590951790945560008051602061521c8339815191528054968701905560008051602061519c833981519152908604018054959092168702900a9182021990931661013691820217909255845160006060820181815260808301885282528185018890529189169581019590955252908152815180517ff78f079a3c8393e86bfdd650f6234390f3e330b7ee02f1180ebccd9a52ec981792612f19928492910190614bba565b506020828101516001838101919091556040938401516002938401805460ff191660ff9283161790557ff78f079a3c8393e86bfdd650f6234390f3e330b7ee02f1180ebccd9a52ec9817805480840182557fbea99ae87f0d93179dc7d01ccb2726976e499d786bb8c265ed4394077c8af41b60108083048201805461ffff600f9586168b0261010090810a82810219909316606e9390930292909217909255855480890190965582860490930180549585168a02840a8083021990961660ce969096029590951790945560008051602061521c8339815191528054968701905560008051602061519c833981519152908604018054959092168702900a9182021990931661013791820217909255845160006060820181815260808301885282528185018890529189169581019590955252908152815180517f3989ce6cccd22c5792a86197934db30faab60e278e277416d85eef4d27ca2e3592613082928492910190614bba565b506020828101516001838101919091556040938401516002938401805460ff191660ff9283161790557f3989ce6cccd22c5792a86197934db30faab60e278e277416d85eef4d27ca2e35805480840182557f6e37564a4a16bc20bdc0d24c857893f52c944e96b8c5ab083ee455eee49074cf60108083048201805461ffff600f9586168b0261010090810a82810219909316606e9390930292909217909255855480890190965582860490930180549585168a02840a8083021990961660cf969096029590951790945560008051602061521c8339815191528054968701905560008051602061519c833981519152908604018054959092168702900a9182021990931661013891820217909255845160006060820181815260808301885282528185018890529189169581019590955252908152815180517f4f0e98aed191219c2c0e1396353c32f52e85b8b65d606acca9d47005d56f2ef9926131eb928492910190614bba565b506020828101516001838101919091556040938401516002938401805460ff191660ff9283161790557f4f0e98aed191219c2c0e1396353c32f52e85b8b65d606acca9d47005d56f2ef9805480840182557f75c9582564408f1323236111a7e0bcc1a942f5a25622aae23008b7dd7be388cd60108083048201805461ffff600f9586168b0261010090810a8281021990931660749390930292909217909255855480890190965582860490930180549585168a02840a8083021990961660d0969096029590951790945560008051602061521c8339815191528054968701905560008051602061519c833981519152908604018054959092168702900a9182021990931661013991820217909255845160006060820181815260808301885282528185018890529189169581019590955252908152815180517f6b8e3e46bc58d183519012c556e0077520fedc977edba8c756c06d7c3198934b92613354928492910190614bba565b506020828101516001838101919091556040909301516002928301805460ff191660ff9092169190911790558190527f6b8e3e46bc58d183519012c556e0077520fedc977edba8c756c06d7c3198934b805492830181556000527f973c99722e46bbf7a90b716abe47e16621bd673d769982b47e44ceec2959c7cf6010830401805461ffff600f9094169092026101000a9283021990911660c9909202919091179055505050565b6000805160206151bc8339815191528054600181019091556000805160206151fc8339815191526010820401805461ffff600f90931660029081026101000a938402199091166101919384021790915560408051600060608201818152608083018452825269010f0cf064dd592000006020808401829052600a9484018590529590915292845280518051929491927f4d8396df62afc03d8b4f6d3294b10c2ec0775680d47bc02834af95715487c8e2926134bb928492910190614bba565b506020828101516001838101919091556040938401516002938401805460ff92831660ff199091161790557f4d8396df62afc03d8b4f6d3294b10c2ec0775680d47bc02834af95715487c8e2805480840190915560108082047fc6958bb836a793947dc639ed1d1ce80cf84719196bca175e14553ecfdb4c87a2018054610132600f948516890261010090810a91820261ffff92830219909316929092179092556000805160206151bc833981519152805496870190559185046000805160206151fc83398151915201805461019296909416880290920a858102910219909216919091179055845160006060820181815260808301885282528185018890529188169581019590955252908152815180517f01c50f6fac5dab042d56d6672b634cb37b505c5aae3d7ba4611136701b0571de926135fd928492910190614bba565b506020828101516001838101919091556040938401516002938401805460ff92831660ff199091161790557f01c50f6fac5dab042d56d6672b634cb37b505c5aae3d7ba4611136701b0571de805480840190915560108082047fcfb60d4a617be2a4219fa7861209b620244a2d5facf9c92de6fb5be983d2a6ee01805461012d600f948516890261010090810a91820261ffff92830219909316929092179092556000805160206151bc833981519152805496870190559185046000805160206151fc83398151915201805461019396909416880290920a858102910219909216919091179055845160006060820181815260808301885282528185018890529188169581019590955252908152815180517fda50f95f737dd96a2ff448425767f58b49e6bc691060be2dd7aee3b8374d3aa39261373f928492910190614bba565b506020828101516001838101919091556040938401516002938401805460ff92831660ff199091161790557fda50f95f737dd96a2ff448425767f58b49e6bc691060be2dd7aee3b8374d3aa3805480840190915560108082047fff1a7c499df807637eac91bb92681f7bd834a329884411834d142c503883bef3018054610130600f948516890261010090810a91820261ffff92830219909316929092179092556000805160206151bc833981519152805496870190559185046000805160206151fc83398151915201805461019496909416880290920a858102910219909216919091179055845160006060820181815260808301885282528185018890529188169581019590955252908152815180517ffe79820679590069c3ab6829c3fe4ecba591c6f8b11fcb349b1bbec2e175a41792613881928492910190614bba565b506020828101516001838101919091556040938401516002938401805460ff191660ff9283161790557ffe79820679590069c3ab6829c3fe4ecba591c6f8b11fcb349b1bbec2e175a417805480840182557f9222dc680f90ce3aff814c0b4923db9f116a6b75ccb44a1165763626299a0e7d60108083048201805461ffff600f9586168b0261010090810a8281021990931660689390930292909217909255855480890190965582860490930180549585168a02840a8083021990961661013496909602959095179094556000805160206151bc833981519152805496870190556000805160206151fc833981519152908604018054959092168702900a9182021990931661019591820217909255845160006060820181815260808301885282528185018890529188169581019590955252908152815180517ff6fdcea8e7b77bcb591e7e18f733bbb1a6424b484c057cd5ea07601153e714bc926139eb928492910190614bba565b506020828101516001838101919091556040938401516002938401805460ff191660ff9283161790557ff6fdcea8e7b77bcb591e7e18f733bbb1a6424b484c057cd5ea07601153e714bc805480840182557fb5304deeee8a494d6c16ce21d94d681534881b947530c2328721a362844a8a1c60108083048201805461ffff600f9586168b0261010090810a8281021990931660d49390930292909217909255855480890190965582860490930180549585168a02840a8083021990961661012d96909602959095179094556000805160206151bc833981519152805496870190556000805160206151fc833981519152908604018054959092168702900a9182021990931661019691820217909255845160006060820181815260808301885282528185018890529188169581019590955252908152815180517ff7e247e763319d92e63afe85a147c589426de0dee5e9495e83c927a5d69d507f92613b55928492910190614bba565b506020828101516001838101919091556040938401516002938401805460ff191660ff9283161790557ff7e247e763319d92e63afe85a147c589426de0dee5e9495e83c927a5d69d507f805480840182557f6f34976aa23a67e83c64954dc85d606d58c423e46906afacf012eac468862e1760108083048201805461ffff600f9586168b0261010090810a8281021990931660cc9390930292909217909255855480890190965582860490930180549585168a02840a8083021990961661012d96909602959095179094556000805160206151bc833981519152805496870190556000805160206151fc833981519152908604018054959092168702900a9182021990931661019791820217909255845160006060820181815260808301885282528185018890529188169581019590955252908152815180517fbc4c474299802bbfb09c43b6ccdd908c8d8237c619e957c8efa427ae9422ead992613cbf928492910190614bba565b506020828101516001838101919091556040938401516002938401805460ff191660ff9283161790557fbc4c474299802bbfb09c43b6ccdd908c8d8237c619e957c8efa427ae9422ead9805480840182557f76b31c8d09a4c72bbbf595423baafa8d2a4d5afdec9f8358683166d826377c4c60108083048201805461ffff600f9586168b0261010090810a8281021990931660d89390930292909217909255855480890190965582860490930180549585168a02840a8083021990961661012d96909602959095179094556000805160206151bc833981519152805496870190556000805160206151fc833981519152908604018054959092168702900a9182021990931661019891820217909255845160006060820181815260808301885282528185018890529188169581019590955252908152815180517f60a78aa11ff8f625989661450dcfa394057d3abb05c16ff1c9d1ed60de35660b92613e29928492910190614bba565b506020828101516001838101919091556040938401516002938401805460ff191660ff9283161790557f60a78aa11ff8f625989661450dcfa394057d3abb05c16ff1c9d1ed60de35660b805480840182557faac7711751aa113ffeb3586acf2b8204ee5126d0c001b7ab732bb171a7492b3160108083048201805461ffff600f9586168b0261010090810a8281021990931660cd9390930292909217909255855480890190965582860490930180549585168a02840a8083021990961661012d96909602959095179094556000805160206151bc833981519152805496870190556000805160206151fc833981519152908604018054959092168702900a9182021990931661019991820217909255845160006060820181815260808301885282528185018890529188169581019590955252908152815180517f363f6a2fbce661d6200ca7424f8beeda3bf559fb821c0a81285ab7835a2e8e8092613f93928492910190614bba565b506020828101516001838101919091556040938401516002938401805460ff191660ff9283161790557f363f6a2fbce661d6200ca7424f8beeda3bf559fb821c0a81285ab7835a2e8e80805480840182557f45a7937c68d5a8118392dcd41859a7c3a2e7c9ad63f6e73425435452752a2f4360108083048201805461ffff600f9586168b0261010090810a8281021990931660cb9390930292909217909255855480890190965582860490930180549585168a02840a8083021990961661013496909602959095179094556000805160206151bc833981519152805496870190556000805160206151fc833981519152908604018054959092168702900a9182021990931661019a91820217909255845160006060820181815260808301885282528185018890529188169581019590955252908152815180517f5454d5a14b72f91fb4c3934aaae56f12f88ffa1f5f0182140599ae658ff9bca1926140fd928492910190614bba565b506020828101516001838101919091556040938401516002938401805460ff191660ff9283161790557f5454d5a14b72f91fb4c3934aaae56f12f88ffa1f5f0182140599ae658ff9bca1805480840182557f41f41bf6aaa0626f71e89fbab0649632812c04619992d3bd6b1a85e16ec2258260108083048201805461ffff600f9586168b0261010090810a8281021990931660d39390930292909217909255855480890190965582860490930180549585168a02840a8083021990961661012f96909602959095179094556000805160206151bc833981519152805496870190556000805160206151fc833981519152908604018054959092168702900a9182021990931661019b91820217909255845160006060820181815260808301885282528185018890529188169581019590955252908152815180517ff6704e838ed6eca52bd521a20a3f62378710da42830b13987ece71081a5bd23d92614267928492910190614bba565b506020828101516001838101919091556040938401516002938401805460ff191660ff9283161790557ff6704e838ed6eca52bd521a20a3f62378710da42830b13987ece71081a5bd23d805480840182557f909ba5c53e49841125c9ad20f45b2ce757a8004d1ed88da8b2bfc29de472e34560108083048201805461ffff600f9586168b0261010090810a8281021990931660d29390930292909217909255855480890190965582860490930180549585168a02840a8083021990961661013496909602959095179094556000805160206151bc833981519152805496870190556000805160206151fc833981519152908604018054959092168702900a9182021990931661019c91820217909255845160006060820181815260808301885282528185018890529188169581019590955252908152815180517f278184e055744b2e5559d47ba2d3dcbf997d14611a2749c52e01cf606d127df0926143d1928492910190614bba565b506020828101516001838101919091556040938401516002938401805460ff191660ff9283161790557f278184e055744b2e5559d47ba2d3dcbf997d14611a2749c52e01cf606d127df0805480840182557f03a11d0ae6ae3796a5a9763bdfc6e898c6c48014e71d5fcbdbb3de6483223a4760108083048201805461ffff600f9586168b0261010090810a8281021990931660c99390930292909217909255855480890190965582860490930180549585168a02840a8083021990961661013196909602959095179094556000805160206151bc833981519152805496870190556000805160206151fc833981519152908604018054959092168702900a9182021990931661019d91820217909255845160006060820181815260808301885282528185018890529188169581019590955252908152815180517f4b399fdd2bd107baa82b219995c39b6fc0ea647f084bf576820030b40ec5eb1c9261453b928492910190614bba565b506020828101516001838101919091556040938401516002938401805460ff191660ff9283161790557f4b399fdd2bd107baa82b219995c39b6fc0ea647f084bf576820030b40ec5eb1c805480840182557f8bf8442961f2ac2bf6064d8bdb09d12ffddd089772d46cd18e15fab392358bc160108083048201805461ffff600f9586168b0261010090810a8281021990931660d59390930292909217909255855480890190965582860490930180549585168a02840a8083021990961661013496909602959095179094556000805160206151bc833981519152805496870190556000805160206151fc833981519152908604018054959092168702900a9182021990931661019e91820217909255845160006060820181815260808301885282528185018890529188169581019590955252908152815180517fb64fbcd928f024c431e809fae07258ca41432c098236d3d43c3c8e52253217b6926146a5928492910190614bba565b506020828101516001838101919091556040938401516002938401805460ff191660ff9283161790557fb64fbcd928f024c431e809fae07258ca41432c098236d3d43c3c8e52253217b6805480840182557ffd5b03075fea43322edf6df9aa037d827bcc1c9df7093c51ab7c650f3448232360108083048201805461ffff600f9586168b0261010090810a8281021990931660d39390930292909217909255855480890190965582860490930180549585168a02840a8083021990961661013496909602959095179094556000805160206151bc833981519152805496870190556000805160206151fc833981519152908604018054959092168702900a9182021990931661019f91820217909255845160006060820181815260808301885282528185018890529188169581019590955252908152815180517f3593aba6713044d9e40c8806499a581d3fb910aa0b8f721d6d265b6ebc19a5869261480f928492910190614bba565b506020828101516001838101919091556040938401516002938401805460ff191660ff9283161790557f3593aba6713044d9e40c8806499a581d3fb910aa0b8f721d6d265b6ebc19a586805480840182557f43f8f07f3bd47ca6a55ecc6cce69b9422ddc219a61bdf1a40b4c564ef0d3172b60108083048201805461ffff600f9586168b0261010090810a8281021990931660d69390930292909217909255855480890190965582860490930180549585168a02840a8083021990961661013496909602959095179094556000805160206151bc833981519152805496870190556000805160206151fc833981519152908604018054959092168702900a918202199093166101a091820217909255845160006060820181815260808301885282528185018890529188169581019590955252908152815180517f7e72c170e50e783cf504eb68debaa912c51d944e8c17cb0e9dd64aa194b0a37e92614979928492910190614bba565b506020828101516001838101919091556040938401516002938401805460ff191660ff9283161790557f7e72c170e50e783cf504eb68debaa912c51d944e8c17cb0e9dd64aa194b0a37e805480840182557fd4789bf236a580a2e46061250f936872c52fc40e6eaa0928defa93c5a2ec328a60108083048201805461ffff600f9586168b0261010090810a8281021990931660719390930292909217909255855480890190965582860490930180549585168a02840a8083021990961661013496909602959095179094556000805160206151bc833981519152805496870190556000805160206151fc833981519152908604018054959092168702900a918202199093166101a191820217909255845160006060820181815260808301885282528185018890529188169581019590955252908152815180517fc729c8ab100bb8c266e682772317859e88334733ab69cfc556903ddfb1a5e64d92614ae3928492910190614bba565b506020828101516001838101919091556040909301516002928301805460ff191660ff9092169190911790558190527fc729c8ab100bb8c266e682772317859e88334733ab69cfc556903ddfb1a5e64d805480840182557f25ddbd12e54c0cc28ad1a7800733d6ee517d0a7537785b813fc8b48c5c20ea8e60108083048201805461ffff600f958616880261010090810a8281021990931660d9909302929092179092558554978801865560009590955290860490910180549590921690930290910a918202199092166101349091021790555050565b82805482825590600052602060002090600f01601090048101928215614c535791602002820160005b83821115614c2357835183826101000a81548161ffff021916908361ffff1602179055509260200192600201602081600101049283019260010302614be3565b8015614c515782816101000a81549061ffff0219169055600201602081600101049283019260010302614c23565b505b50614c5f929150614c63565b5090565b5b80821115614c5f5760008155600101614c64565b60008083601f840112614c89578182fd5b50813567ffffffffffffffff811115614ca0578182fd5b6020830191508360208083028501011115614cba57600080fd5b9250929050565b803561ffff81168114614cd357600080fd5b919050565b803560ff81168114614cd357600080fd5b600060208284031215614cfa578081fd5b81356001600160a01b0381168114614d10578182fd5b9392505050565b600060208284031215614d28578081fd5b614d1082614cc1565b600080600080600060808688031215614d48578081fd5b614d5186614cc1565b9450602086013567ffffffffffffffff811115614d6c578182fd5b614d7888828901614c78565b90955093505060408601359150614d9160608701614cd8565b90509295509295909350565b60008060408385031215614daf578182fd5b614db883614cc1565b9150614dc660208401614cd8565b90509250929050565b60008060008060008060a08789031215614de7578081fd5b614df087614cd8565b9550614dfe60208801614cc1565b9450604087013567ffffffffffffffff811115614e19578182fd5b614e2589828a01614c78565b90955093505060608701359150614e3e60808801614cd8565b90509295509295509295565b60008060408385031215614e5c578182fd5b614e6583614cd8565b946020939093013593505050565b6001600160a01b0391909116815260200190565b606080825284519082018190526000906020906080840190828801845b82811015614ec457815161ffff1684529284019290840190600101614ea4565b505050908301949094525060ff91909116604090910152919050565b901515815260200190565b6020808252601d908201527f4974656d20557067726164696e673a20696e76616c696420636c617373000000604082015260600190565b6020808252601f908201527f4974656d20557067726164696e673a206974656d206e6f742065786973747300604082015260600190565b6020808252601d908201527f4974656d20557067726164696e673a20696e76616c696420726174696f000000604082015260600190565b6020808252602e908201527f496e697469616c697a61626c653a20636f6e747261637420697320616c72656160408201527f647920696e697469616c697a6564000000000000000000000000000000000000606082015260800190565b6020808252600d908201527f6f6e6c794d61696e41646d696e00000000000000000000000000000000000000604082015260600190565b6020808252601b908201527f4974656d20557067726164696e673a206974656d206578697374730000000000604082015260600190565b6020808252601c908201527f4974656d20557067726164696e673a20696e76616c69642067656e6500000000604082015260600190565b61ffff91909116815260200190565b61ffff868116825260806020808401829052908301869052600091879160a08501845b898110156150e957836150d686614cc1565b16825293820193908201906001016150c4565b5060408601979097525050505060ff919091166060909101529392505050565b61ffff93909316835260ff919091166020830152604082015260600190565b91825260ff16602082015260400190565b60ff9390931683526020830191909152604082015260600190565b600060001982141561517457634e487b7160e01b81526011600452602481fd5b506001019056fec3a24b0501bd2c13a7e57f2db4369ec4c223447539fc0724a9d55ac4a06ebd4dfa8d260207fe657f2346775cc7df9e07ba0a08e64ccd28972b30bb03ba9b295b83ec6a1f0257b830b5e016457c9cf1435391bf56cc98f369a58a54fe9377246519b5847ec9d8983e32da86b2c2bedc7b0bcabd1d214557fda78706fe7ba568ce5fa3dab1e0e1070445c119c6fd10edd16d6aa2f25a5899217f919c041d474318cbc4e5fb02c3d1de23a9f1e014b4d2ee5aeaea9505df5e855c9210bf472495afa2646970667358221220f75e3d22f490ebf28b4148102b2f6f2d910bebb35477ffa108b7b759cff2619364736f6c63430008000033",
  "immutableReferences": {},
  "source": "// SPDX-License-Identifier: GPL\n\npragma solidity 0.8.0;\n\nimport \"./Auth.sol\";\n\ncontract ItemUpgradingMap is Auth {\n  struct Item {\n    uint16[] materials;\n    uint fee;\n    uint8 successRatio;\n  }\n  mapping (uint16 => Item) public items;\n  mapping (uint8 => uint16[]) public itemClasses;\n\n  event ItemSet(\n    uint16 _itemClass,\n    uint16[] _materials,\n    uint _fee,\n    uint _successRatio\n  );\n\n  event ItemUpdated(\n    uint16 _itemClass,\n    uint16[] _materials,\n    uint _fee,\n    uint _successRatio\n  );\n\n  event FeeUpdated(uint8 _gene, uint _fee, uint timestamp);\n  event RatioUpdated(uint16 _classId, uint8 _successRatio, uint timestamp);\n\n  function initialize(\n    address _mainAdmin\n  ) public override initializer {\n    mainAdmin = _mainAdmin;\n    _initRareItems();\n    _initEpicItems();\n    _initLegendaryItems();\n  }\n\n  function _initRareItems() private {\n    uint8 rareRatio = 50;\n    uint rareFee = 500e18;\n    itemClasses[2].push(201);\n    items[201] = Item(new uint16[](0), rareFee, rareRatio);\n    items[201].materials.push(105);\n    itemClasses[2].push(202);\n    items[202] = Item(new uint16[](0), rareFee, rareRatio);\n    items[202].materials.push(106);\n    itemClasses[2].push(203);\n    items[203] = Item(new uint16[](0), rareFee, rareRatio);\n    items[203].materials.push(111);\n    itemClasses[2].push(204);\n    items[204] = Item(new uint16[](0), rareFee, rareRatio);\n    items[204].materials.push(115);\n    itemClasses[2].push(205);\n    items[205] = Item(new uint16[](0), rareFee, rareRatio);\n    items[205].materials.push(110);\n    itemClasses[2].push(206);\n    items[206] = Item(new uint16[](0), rareFee, rareRatio);\n    items[206].materials.push(116);\n    itemClasses[2].push(207);\n    items[207] = Item(new uint16[](0), rareFee, rareRatio);\n    items[207].materials.push(104);\n    itemClasses[2].push(208);\n    items[208] = Item(new uint16[](0), rareFee, rareRatio);\n    items[208].materials.push(117);\n    itemClasses[2].push(209);\n    items[209] = Item(new uint16[](0), rareFee, rareRatio);\n    items[209].materials.push(121);\n    items[209].materials.push(122);\n    itemClasses[2].push(210);\n    items[210] = Item(new uint16[](0), rareFee, rareRatio);\n    items[210].materials.push(101);\n    items[210].materials.push(102);\n    itemClasses[2].push(211);\n    items[211] = Item(new uint16[](0), rareFee, rareRatio);\n    items[211].materials.push(103);\n    items[211].materials.push(104);\n    itemClasses[2].push(212);\n    items[212] = Item(new uint16[](0), rareFee, rareRatio);\n    items[212].materials.push(107);\n    items[212].materials.push(108);\n    itemClasses[2].push(213);\n    items[213] = Item(new uint16[](0), rareFee, rareRatio);\n    items[213].materials.push(109);\n    items[213].materials.push(110);\n    itemClasses[2].push(214);\n    items[214] = Item(new uint16[](0), rareFee, rareRatio);\n    items[214].materials.push(112);\n    items[214].materials.push(113);\n    itemClasses[2].push(215);\n    items[215] = Item(new uint16[](0), rareFee, rareRatio);\n    items[215].materials.push(110);\n    items[215].materials.push(114);\n    itemClasses[2].push(216);\n    items[216] = Item(new uint16[](0), rareFee, rareRatio);\n    items[216].materials.push(118);\n    items[216].materials.push(119);\n    itemClasses[2].push(217);\n    items[217] = Item(new uint16[](0), rareFee, rareRatio);\n    items[217].materials.push(110);\n    items[217].materials.push(120);\n    itemClasses[2].push(218);\n    items[218] = Item(new uint16[](0), rareFee, rareRatio);\n    items[218].materials.push(110);\n    items[218].materials.push(119);\n  }\n\n  function _initEpicItems() private {\n    uint8 epicRatioNoUpgradable = 10;\n    uint8 epicRatioUpgradable = 30;\n    uint epicFee = 1000e18;\n    itemClasses[3].push(301);\n    items[301] = Item(new uint16[](0), epicFee, epicRatioUpgradable);\n    items[301].materials.push(215);\n    itemClasses[3].push(302);\n    items[302] = Item(new uint16[](0), epicFee, epicRatioNoUpgradable);\n    items[302].materials.push(218);\n    itemClasses[3].push(303);\n    items[303] = Item(new uint16[](0), epicFee, epicRatioUpgradable);\n    items[303].materials.push(210);\n    itemClasses[3].push(304);\n    items[304] = Item(new uint16[](0), epicFee, epicRatioUpgradable);\n    items[304].materials.push(211);\n    itemClasses[3].push(305);\n    items[305] = Item(new uint16[](0), epicFee, epicRatioUpgradable);\n    items[305].materials.push(212);\n    itemClasses[3].push(306);\n    items[306] = Item(new uint16[](0), epicFee, epicRatioUpgradable);\n    items[306].materials.push(202);\n    itemClasses[3].push(308);\n    items[308] = Item(new uint16[](0), epicFee, epicRatioUpgradable);\n    items[308].materials.push(201);\n    items[308].materials.push(202);\n    itemClasses[3].push(307);\n    items[307] = Item(new uint16[](0), epicFee, epicRatioNoUpgradable);\n    items[307].materials.push(213);\n    itemClasses[3].push(309);\n    items[309] = Item(new uint16[](0), epicFee, epicRatioNoUpgradable);\n    items[309].materials.push(202);\n    items[309].materials.push(210);\n    itemClasses[3].push(310);\n    items[310] = Item(new uint16[](0), epicFee, epicRatioNoUpgradable);\n    items[310].materials.push(110);\n    items[310].materials.push(206);\n    itemClasses[3].push(311);\n    items[311] = Item(new uint16[](0), epicFee, epicRatioNoUpgradable);\n    items[311].materials.push(110);\n    items[311].materials.push(207);\n    itemClasses[3].push(312);\n    items[312] = Item(new uint16[](0), epicFee, epicRatioNoUpgradable);\n    items[312].materials.push(116);\n    items[312].materials.push(208);\n    itemClasses[3].push(313);\n    items[313] = Item(new uint16[](0), epicFee, epicRatioNoUpgradable);\n    items[313].materials.push(201);\n  }\n\n  function _initLegendaryItems() private {\n    uint8 legendaryRatio = 10;\n    uint legendaryFee = 5000e18;\n    itemClasses[4].push(401);\n    items[401] = Item(new uint16[](0), legendaryFee, legendaryRatio);\n    items[401].materials.push(306);\n    itemClasses[4].push(402);\n    items[402] = Item(new uint16[](0), legendaryFee, legendaryRatio);\n    items[402].materials.push(301);\n    itemClasses[4].push(403);\n    items[403] = Item(new uint16[](0), legendaryFee, legendaryRatio);\n    items[403].materials.push(304);\n    itemClasses[4].push(404);\n    items[404] = Item(new uint16[](0), legendaryFee, legendaryRatio);\n    items[404].materials.push(104);\n    items[404].materials.push(308);\n    itemClasses[4].push(405);\n    items[405] = Item(new uint16[](0), legendaryFee, legendaryRatio);\n    items[405].materials.push(212);\n    items[405].materials.push(301);\n    itemClasses[4].push(406);\n    items[406] = Item(new uint16[](0), legendaryFee, legendaryRatio);\n    items[406].materials.push(204);\n    items[406].materials.push(301);\n    itemClasses[4].push(407);\n    items[407] = Item(new uint16[](0), legendaryFee, legendaryRatio);\n    items[407].materials.push(216);\n    items[407].materials.push(301);\n    itemClasses[4].push(408);\n    items[408] = Item(new uint16[](0), legendaryFee, legendaryRatio);\n    items[408].materials.push(205);\n    items[408].materials.push(301);\n    itemClasses[4].push(409);\n    items[409] = Item(new uint16[](0), legendaryFee, legendaryRatio);\n    items[409].materials.push(203);\n    items[409].materials.push(308);\n    itemClasses[4].push(410);\n    items[410] = Item(new uint16[](0), legendaryFee, legendaryRatio);\n    items[410].materials.push(211);\n    items[410].materials.push(303);\n    itemClasses[4].push(411);\n    items[411] = Item(new uint16[](0), legendaryFee, legendaryRatio);\n    items[411].materials.push(210);\n    items[411].materials.push(308);\n    itemClasses[4].push(412);\n    items[412] = Item(new uint16[](0), legendaryFee, legendaryRatio);\n    items[412].materials.push(201);\n    items[412].materials.push(305);\n    itemClasses[4].push(413);\n    items[413] = Item(new uint16[](0), legendaryFee, legendaryRatio);\n    items[413].materials.push(213);\n    items[413].materials.push(308);\n    itemClasses[4].push(414);\n    items[414] = Item(new uint16[](0), legendaryFee, legendaryRatio);\n    items[414].materials.push(211);\n    items[414].materials.push(308);\n    itemClasses[4].push(415);\n    items[415] = Item(new uint16[](0), legendaryFee, legendaryRatio);\n    items[415].materials.push(214);\n    items[415].materials.push(308);\n    itemClasses[4].push(416);\n    items[416] = Item(new uint16[](0), legendaryFee, legendaryRatio);\n    items[416].materials.push(113);\n    items[416].materials.push(308);\n    itemClasses[4].push(417);\n    items[417] = Item(new uint16[](0), legendaryFee, legendaryRatio);\n    items[417].materials.push(217);\n    items[417].materials.push(308);\n  }\n\n  function getItem(uint16 _itemClass) external view returns(uint16[] memory, uint, uint8) {\n    Item memory item = items[_itemClass];\n    return (\n      item.materials,\n      item.fee,\n      item.successRatio\n    );\n  }\n\n  function setItem(uint8 _gene, uint16 _itemClass, uint16[] calldata _materials, uint _fee, uint8 _successRatio) onlyMainAdmin external {\n    _validateClass(_itemClass);\n    require(items[_itemClass].fee == 0, \"Item Upgrading: item exists\");\n    _validateRatio(_successRatio);\n    items[_itemClass] = Item(_materials, _fee, _successRatio);\n    itemClasses[_gene].push(_itemClass);\n    emit ItemSet(_itemClass, _materials, _fee, _successRatio);\n  }\n\n  function updateItem(uint16 _itemClass, uint16[] calldata _materials, uint _fee, uint8 _successRatio) onlyMainAdmin external {\n    _validateClass(_itemClass);\n    require(items[_itemClass].fee > 0, \"Item Upgrading: item not exists\");\n    _validateRatio(_successRatio);\n    items[_itemClass] = Item(_materials, _fee, _successRatio);\n    emit ItemUpdated(_itemClass, _materials, _fee, _successRatio);\n  }\n\n  function updateFee(uint8 _gene, uint _fee) onlyMainAdmin external {\n    _validateGene(_gene);\n    for(uint i = 0; i < itemClasses[_gene].length; i++) {\n      items[itemClasses[_gene][i]].fee = _fee;\n    }\n    emit FeeUpdated(_gene, _fee, block.timestamp);\n  }\n\n  function updateRatio(uint16 _classId, uint8 _successRatio) onlyMainAdmin external {\n    _validateRatio(_successRatio);\n    items[_classId].successRatio = _successRatio;\n    emit RatioUpdated(_classId, _successRatio, block.timestamp);\n  }\n\n  function _validateGene(uint8 _gene) private view {\n    require(_gene > 1 && itemClasses[_gene].length > 0, \"Item Upgrading: invalid gene\");\n  }\n\n  function _validateClass(uint16 _itemClass) private pure {\n    require(_itemClass >= 200, \"Item Upgrading: invalid class\");\n  }\n\n  function _validateRatio(uint8 _successRatio) private pure {\n    require(_successRatio < 100, \"Item Upgrading: invalid ratio\");\n  }\n}\n",
  "sourcePath": "/Users/binh/Documents/Development/Solidity/fota-dapp/contracts/libs/fota/ItemUpgradingMap.sol",
  "compiler": {
    "name": "solc",
    "version": "0.8.0+commit.c7dfd78e.Emscripten.clang"
  },
  "schemaVersion": "3.3.4",
  "updatedAt": "2022-01-05T07:37:06.195Z",
  "networkType": "ethereum",
  "devdoc": {
    "kind": "dev",
    "methods": {},
    "version": 1
  },
  "userdoc": {
    "kind": "user",
    "methods": {},
    "version": 1
  }
}