{
  "contractName": "MarketPlace",
  "abi": [
    {
      "anonymous": false,
      "inputs": [
        {
          "indexed": true,
          "internalType": "address",
          "name": "_newOwner",
          "type": "address"
        }
      ],
      "name": "ContractAdminUpdated",
      "type": "event"
    },
    {
      "anonymous": false,
      "inputs": [
        {
          "indexed": false,
          "internalType": "enum IMarketPlace.OrderKind",
          "name": "kind",
          "type": "uint8"
        },
        {
          "indexed": true,
          "internalType": "uint256",
          "name": "tokenId",
          "type": "uint256"
        },
        {
          "indexed": true,
          "internalType": "address",
          "name": "taker",
          "type": "address"
        },
        {
          "indexed": false,
          "internalType": "enum IMarketPlace.PaymentType",
          "name": "paymentType",
          "type": "uint8"
        },
        {
          "indexed": false,
          "internalType": "uint256",
          "name": "amount",
          "type": "uint256"
        },
        {
          "indexed": false,
          "internalType": "enum IMarketPlace.PaymentCurrency",
          "name": "paymentCurrency",
          "type": "uint8"
        }
      ],
      "name": "FoundingOrderTaken",
      "type": "event"
    },
    {
      "anonymous": false,
      "inputs": [
        {
          "indexed": false,
          "internalType": "uint16",
          "name": "classId",
          "type": "uint16"
        },
        {
          "indexed": false,
          "internalType": "bool",
          "name": "locked",
          "type": "bool"
        }
      ],
      "name": "HeroClassIdLocked",
      "type": "event"
    },
    {
      "anonymous": false,
      "inputs": [
        {
          "indexed": false,
          "internalType": "uint16",
          "name": "class",
          "type": "uint16"
        },
        {
          "indexed": false,
          "internalType": "uint256",
          "name": "price",
          "type": "uint256"
        }
      ],
      "name": "HeroMinPriceUpdated",
      "type": "event"
    },
    {
      "anonymous": false,
      "inputs": [
        {
          "indexed": false,
          "internalType": "uint256",
          "name": "id",
          "type": "uint256"
        },
        {
          "indexed": false,
          "internalType": "bool",
          "name": "locked",
          "type": "bool"
        }
      ],
      "name": "HeroNFTLocked",
      "type": "event"
    },
    {
      "anonymous": false,
      "inputs": [
        {
          "indexed": false,
          "internalType": "uint16",
          "name": "class",
          "type": "uint16"
        },
        {
          "indexed": false,
          "internalType": "uint256",
          "name": "price",
          "type": "uint256"
        }
      ],
      "name": "HeroPriceUpdated",
      "type": "event"
    },
    {
      "anonymous": false,
      "inputs": [
        {
          "indexed": false,
          "internalType": "uint16",
          "name": "classId",
          "type": "uint16"
        },
        {
          "indexed": false,
          "internalType": "bool",
          "name": "locked",
          "type": "bool"
        }
      ],
      "name": "ItemClassIdLocked",
      "type": "event"
    },
    {
      "anonymous": false,
      "inputs": [
        {
          "indexed": false,
          "internalType": "uint16",
          "name": "class",
          "type": "uint16"
        },
        {
          "indexed": false,
          "internalType": "uint256",
          "name": "price",
          "type": "uint256"
        }
      ],
      "name": "ItemMinPriceUpdated",
      "type": "event"
    },
    {
      "anonymous": false,
      "inputs": [
        {
          "indexed": false,
          "internalType": "uint256",
          "name": "id",
          "type": "uint256"
        },
        {
          "indexed": false,
          "internalType": "bool",
          "name": "locked",
          "type": "bool"
        }
      ],
      "name": "ItemNFTLocked",
      "type": "event"
    },
    {
      "anonymous": false,
      "inputs": [
        {
          "indexed": false,
          "internalType": "uint16",
          "name": "class",
          "type": "uint16"
        },
        {
          "indexed": false,
          "internalType": "uint256",
          "name": "price",
          "type": "uint256"
        }
      ],
      "name": "ItemPriceUpdated",
      "type": "event"
    },
    {
      "anonymous": false,
      "inputs": [
        {
          "indexed": false,
          "internalType": "uint8",
          "name": "minGene",
          "type": "uint8"
        }
      ],
      "name": "MinGeneChanged",
      "type": "event"
    },
    {
      "anonymous": false,
      "inputs": [
        {
          "indexed": false,
          "internalType": "uint8",
          "name": "minLevel",
          "type": "uint8"
        }
      ],
      "name": "MinLevelChanged",
      "type": "event"
    },
    {
      "anonymous": false,
      "inputs": [
        {
          "indexed": true,
          "internalType": "enum IMarketPlace.OrderType",
          "name": "orderType",
          "type": "uint8"
        },
        {
          "indexed": true,
          "internalType": "enum IMarketPlace.OrderKind",
          "name": "orderKind",
          "type": "uint8"
        },
        {
          "indexed": true,
          "internalType": "uint256",
          "name": "tokenId",
          "type": "uint256"
        }
      ],
      "name": "OrderCanceled",
      "type": "event"
    },
    {
      "anonymous": false,
      "inputs": [
        {
          "indexed": true,
          "internalType": "enum IMarketPlace.OrderKind",
          "name": "orderKind",
          "type": "uint8"
        },
        {
          "indexed": true,
          "internalType": "uint256",
          "name": "tokenId",
          "type": "uint256"
        }
      ],
      "name": "OrderCanceledByAdmin",
      "type": "event"
    },
    {
      "anonymous": false,
      "inputs": [
        {
          "indexed": true,
          "internalType": "enum IMarketPlace.OrderKind",
          "name": "orderKind",
          "type": "uint8"
        },
        {
          "indexed": true,
          "internalType": "uint256",
          "name": "tokenId",
          "type": "uint256"
        }
      ],
      "name": "OrderCompleted",
      "type": "event"
    },
    {
      "anonymous": false,
      "inputs": [
        {
          "indexed": true,
          "internalType": "enum IMarketPlace.OrderType",
          "name": "orderType",
          "type": "uint8"
        },
        {
          "indexed": true,
          "internalType": "enum IMarketPlace.OrderKind",
          "name": "orderKind",
          "type": "uint8"
        },
        {
          "indexed": true,
          "internalType": "uint256",
          "name": "tokenId",
          "type": "uint256"
        },
        {
          "indexed": false,
          "internalType": "address",
          "name": "maker",
          "type": "address"
        },
        {
          "indexed": false,
          "internalType": "uint256",
          "name": "startingPrice",
          "type": "uint256"
        },
        {
          "indexed": false,
          "internalType": "uint256",
          "name": "endingPrice",
          "type": "uint256"
        },
        {
          "indexed": false,
          "internalType": "uint256",
          "name": "auctionDuration",
          "type": "uint256"
        },
        {
          "indexed": false,
          "internalType": "uint256",
          "name": "rentingDuration",
          "type": "uint256"
        }
      ],
      "name": "OrderCreated",
      "type": "event"
    },
    {
      "anonymous": false,
      "inputs": [
        {
          "indexed": false,
          "internalType": "enum IMarketPlace.OrderKind",
          "name": "orderKind",
          "type": "uint8"
        },
        {
          "indexed": true,
          "internalType": "enum IMarketPlace.OrderType",
          "name": "orderType",
          "type": "uint8"
        },
        {
          "indexed": true,
          "internalType": "uint256",
          "name": "tokenId",
          "type": "uint256"
        },
        {
          "indexed": true,
          "internalType": "address",
          "name": "taker",
          "type": "address"
        },
        {
          "indexed": false,
          "internalType": "enum IMarketPlace.PaymentType",
          "name": "paymentType",
          "type": "uint8"
        },
        {
          "indexed": false,
          "internalType": "uint256",
          "name": "amount",
          "type": "uint256"
        },
        {
          "indexed": false,
          "internalType": "enum IMarketPlace.PaymentCurrency",
          "name": "paymentCurrency",
          "type": "uint8"
        }
      ],
      "name": "OrderTaken",
      "type": "event"
    },
    {
      "anonymous": false,
      "inputs": [
        {
          "indexed": true,
          "internalType": "address",
          "name": "_previousOwner",
          "type": "address"
        },
        {
          "indexed": true,
          "internalType": "address",
          "name": "_newOwner",
          "type": "address"
        }
      ],
      "name": "OwnershipTransferred",
      "type": "event"
    },
    {
      "anonymous": false,
      "inputs": [
        {
          "indexed": false,
          "internalType": "address",
          "name": "account",
          "type": "address"
        }
      ],
      "name": "Paused",
      "type": "event"
    },
    {
      "anonymous": false,
      "inputs": [
        {
          "indexed": false,
          "internalType": "enum IMarketPlace.PaymentType",
          "name": "newMethod",
          "type": "uint8"
        }
      ],
      "name": "PaymentTypeChanged",
      "type": "event"
    },
    {
      "anonymous": false,
      "inputs": [
        {
          "indexed": true,
          "internalType": "address",
          "name": "inviter",
          "type": "address"
        },
        {
          "indexed": true,
          "internalType": "address",
          "name": "invitee",
          "type": "address"
        },
        {
          "indexed": false,
          "internalType": "uint256",
          "name": "referralSharingAmount",
          "type": "uint256"
        },
        {
          "indexed": false,
          "internalType": "enum IMarketPlace.PaymentCurrency",
          "name": "paymentCurrency",
          "type": "uint8"
        }
      ],
      "name": "ReferralSent",
      "type": "event"
    },
    {
      "anonymous": false,
      "inputs": [
        {
          "indexed": false,
          "internalType": "enum IMarketPlace.OrderKind",
          "name": "kind",
          "type": "uint8"
        },
        {
          "indexed": false,
          "internalType": "uint16",
          "name": "classId",
          "type": "uint16"
        },
        {
          "indexed": false,
          "internalType": "uint256",
          "name": "remainingSale",
          "type": "uint256"
        }
      ],
      "name": "RemainingSaleUpdated",
      "type": "event"
    },
    {
      "anonymous": false,
      "inputs": [
        {
          "indexed": false,
          "internalType": "address",
          "name": "account",
          "type": "address"
        }
      ],
      "name": "Unpaused",
      "type": "event"
    },
    {
      "anonymous": false,
      "inputs": [
        {
          "indexed": false,
          "internalType": "address",
          "name": "user",
          "type": "address"
        },
        {
          "indexed": false,
          "internalType": "bool",
          "name": "locked",
          "type": "bool"
        }
      ],
      "name": "UserLocked",
      "type": "event"
    },
    {
      "inputs": [],
      "name": "_isContractAdmin",
      "outputs": [
        {
          "internalType": "bool",
          "name": "",
          "type": "bool"
        }
      ],
      "stateMutability": "view",
      "type": "function",
      "constant": true
    },
    {
      "inputs": [],
      "name": "_isMainAdmin",
      "outputs": [
        {
          "internalType": "bool",
          "name": "",
          "type": "bool"
        }
      ],
      "stateMutability": "view",
      "type": "function",
      "constant": true
    },
    {
      "inputs": [],
      "name": "busdToken",
      "outputs": [
        {
          "internalType": "contract IBEP20",
          "name": "",
          "type": "address"
        }
      ],
      "stateMutability": "view",
      "type": "function",
      "constant": true
    },
    {
      "inputs": [],
      "name": "citizen",
      "outputs": [
        {
          "internalType": "contract ICitizen",
          "name": "",
          "type": "address"
        }
      ],
      "stateMutability": "view",
      "type": "function",
      "constant": true
    },
    {
      "inputs": [],
      "name": "contractAdmin",
      "outputs": [
        {
          "internalType": "address",
          "name": "",
          "type": "address"
        }
      ],
      "stateMutability": "view",
      "type": "function",
      "constant": true
    },
    {
      "inputs": [],
      "name": "creativeShare",
      "outputs": [
        {
          "internalType": "uint256",
          "name": "",
          "type": "uint256"
        }
      ],
      "stateMutability": "view",
      "type": "function",
      "constant": true
    },
    {
      "inputs": [],
      "name": "eatherTransporter",
      "outputs": [
        {
          "internalType": "contract IEatherTransporter",
          "name": "",
          "type": "address"
        }
      ],
      "stateMutability": "view",
      "type": "function",
      "constant": true
    },
    {
      "inputs": [],
      "name": "fotaPricer",
      "outputs": [
        {
          "internalType": "contract IFOTAPricer",
          "name": "",
          "type": "address"
        }
      ],
      "stateMutability": "view",
      "type": "function",
      "constant": true
    },
    {
      "inputs": [],
      "name": "fotaToken",
      "outputs": [
        {
          "internalType": "contract IBEP20",
          "name": "",
          "type": "address"
        }
      ],
      "stateMutability": "view",
      "type": "function",
      "constant": true
    },
    {
      "inputs": [],
      "name": "fundAdmin",
      "outputs": [
        {
          "internalType": "address",
          "name": "",
          "type": "address"
        }
      ],
      "stateMutability": "view",
      "type": "function",
      "constant": true
    },
    {
      "inputs": [],
      "name": "gameProxyContract",
      "outputs": [
        {
          "internalType": "contract IFOTAGame",
          "name": "",
          "type": "address"
        }
      ],
      "stateMutability": "view",
      "type": "function",
      "constant": true
    },
    {
      "inputs": [
        {
          "internalType": "uint16",
          "name": "",
          "type": "uint16"
        }
      ],
      "name": "heroMinPrices",
      "outputs": [
        {
          "internalType": "uint256",
          "name": "",
          "type": "uint256"
        }
      ],
      "stateMutability": "view",
      "type": "function",
      "constant": true
    },
    {
      "inputs": [
        {
          "internalType": "uint16",
          "name": "",
          "type": "uint16"
        }
      ],
      "name": "heroPrices",
      "outputs": [
        {
          "internalType": "uint256",
          "name": "",
          "type": "uint256"
        }
      ],
      "stateMutability": "view",
      "type": "function",
      "constant": true
    },
    {
      "inputs": [
        {
          "internalType": "uint16",
          "name": "",
          "type": "uint16"
        }
      ],
      "name": "itemMinPrices",
      "outputs": [
        {
          "internalType": "uint256",
          "name": "",
          "type": "uint256"
        }
      ],
      "stateMutability": "view",
      "type": "function",
      "constant": true
    },
    {
      "inputs": [
        {
          "internalType": "uint16",
          "name": "",
          "type": "uint16"
        }
      ],
      "name": "itemPrices",
      "outputs": [
        {
          "internalType": "uint256",
          "name": "",
          "type": "uint256"
        }
      ],
      "stateMutability": "view",
      "type": "function",
      "constant": true
    },
    {
      "inputs": [
        {
          "internalType": "uint16",
          "name": "",
          "type": "uint16"
        }
      ],
      "name": "lockedHeroClassId",
      "outputs": [
        {
          "internalType": "bool",
          "name": "",
          "type": "bool"
        }
      ],
      "stateMutability": "view",
      "type": "function",
      "constant": true
    },
    {
      "inputs": [
        {
          "internalType": "uint256",
          "name": "",
          "type": "uint256"
        }
      ],
      "name": "lockedHeroNFTId",
      "outputs": [
        {
          "internalType": "bool",
          "name": "",
          "type": "bool"
        }
      ],
      "stateMutability": "view",
      "type": "function",
      "constant": true
    },
    {
      "inputs": [
        {
          "internalType": "uint16",
          "name": "",
          "type": "uint16"
        }
      ],
      "name": "lockedItemClassId",
      "outputs": [
        {
          "internalType": "bool",
          "name": "",
          "type": "bool"
        }
      ],
      "stateMutability": "view",
      "type": "function",
      "constant": true
    },
    {
      "inputs": [
        {
          "internalType": "uint256",
          "name": "",
          "type": "uint256"
        }
      ],
      "name": "lockedItemNFTId",
      "outputs": [
        {
          "internalType": "bool",
          "name": "",
          "type": "bool"
        }
      ],
      "stateMutability": "view",
      "type": "function",
      "constant": true
    },
    {
      "inputs": [
        {
          "internalType": "address",
          "name": "",
          "type": "address"
        }
      ],
      "name": "lockedUser",
      "outputs": [
        {
          "internalType": "bool",
          "name": "",
          "type": "bool"
        }
      ],
      "stateMutability": "view",
      "type": "function",
      "constant": true
    },
    {
      "inputs": [],
      "name": "mainAdmin",
      "outputs": [
        {
          "internalType": "address",
          "name": "",
          "type": "address"
        }
      ],
      "stateMutability": "view",
      "type": "function",
      "constant": true
    },
    {
      "inputs": [],
      "name": "minGene",
      "outputs": [
        {
          "internalType": "uint256",
          "name": "",
          "type": "uint256"
        }
      ],
      "stateMutability": "view",
      "type": "function",
      "constant": true
    },
    {
      "inputs": [],
      "name": "minLevel",
      "outputs": [
        {
          "internalType": "uint256",
          "name": "",
          "type": "uint256"
        }
      ],
      "stateMutability": "view",
      "type": "function",
      "constant": true
    },
    {
      "inputs": [
        {
          "internalType": "enum IMarketPlace.OrderKind",
          "name": "",
          "type": "uint8"
        }
      ],
      "name": "nftTokens",
      "outputs": [
        {
          "internalType": "contract IGameNFT",
          "name": "",
          "type": "address"
        }
      ],
      "stateMutability": "view",
      "type": "function",
      "constant": true
    },
    {
      "inputs": [],
      "name": "paused",
      "outputs": [
        {
          "internalType": "bool",
          "name": "",
          "type": "bool"
        }
      ],
      "stateMutability": "view",
      "type": "function",
      "constant": true
    },
    {
      "inputs": [],
      "name": "paymentType",
      "outputs": [
        {
          "internalType": "enum IMarketPlace.PaymentType",
          "name": "",
          "type": "uint8"
        }
      ],
      "stateMutability": "view",
      "type": "function",
      "constant": true
    },
    {
      "inputs": [],
      "name": "referralShare",
      "outputs": [
        {
          "internalType": "uint256",
          "name": "",
          "type": "uint256"
        }
      ],
      "stateMutability": "view",
      "type": "function",
      "constant": true
    },
    {
      "inputs": [
        {
          "internalType": "enum IMarketPlace.OrderKind",
          "name": "",
          "type": "uint8"
        },
        {
          "internalType": "uint16",
          "name": "",
          "type": "uint16"
        }
      ],
      "name": "remainingSale",
      "outputs": [
        {
          "internalType": "uint256",
          "name": "",
          "type": "uint256"
        }
      ],
      "stateMutability": "view",
      "type": "function",
      "constant": true
    },
    {
      "inputs": [
        {
          "internalType": "enum IMarketPlace.OrderKind",
          "name": "",
          "type": "uint8"
        },
        {
          "internalType": "uint256",
          "name": "",
          "type": "uint256"
        }
      ],
      "name": "rentingOrders",
      "outputs": [
        {
          "internalType": "address",
          "name": "maker",
          "type": "address"
        },
        {
          "internalType": "uint256",
          "name": "startingPrice",
          "type": "uint256"
        },
        {
          "internalType": "uint256",
          "name": "endingPrice",
          "type": "uint256"
        },
        {
          "internalType": "uint256",
          "name": "auctionDuration",
          "type": "uint256"
        },
        {
          "internalType": "uint256",
          "name": "rentingDuration",
          "type": "uint256"
        },
        {
          "internalType": "uint256",
          "name": "activatedAt",
          "type": "uint256"
        },
        {
          "internalType": "bool",
          "name": "rented",
          "type": "bool"
        }
      ],
      "stateMutability": "view",
      "type": "function",
      "constant": true
    },
    {
      "inputs": [
        {
          "internalType": "enum IMarketPlace.OrderKind",
          "name": "",
          "type": "uint8"
        },
        {
          "internalType": "uint256",
          "name": "",
          "type": "uint256"
        }
      ],
      "name": "tradingOrders",
      "outputs": [
        {
          "internalType": "address",
          "name": "maker",
          "type": "address"
        },
        {
          "internalType": "uint256",
          "name": "startingPrice",
          "type": "uint256"
        },
        {
          "internalType": "uint256",
          "name": "endingPrice",
          "type": "uint256"
        },
        {
          "internalType": "uint256",
          "name": "auctionDuration",
          "type": "uint256"
        },
        {
          "internalType": "uint256",
          "name": "rentingDuration",
          "type": "uint256"
        },
        {
          "internalType": "uint256",
          "name": "activatedAt",
          "type": "uint256"
        },
        {
          "internalType": "bool",
          "name": "rented",
          "type": "bool"
        }
      ],
      "stateMutability": "view",
      "type": "function",
      "constant": true
    },
    {
      "inputs": [
        {
          "internalType": "address",
          "name": "_newOwner",
          "type": "address"
        }
      ],
      "name": "transferOwnership",
      "outputs": [],
      "stateMutability": "nonpayable",
      "type": "function"
    },
    {
      "inputs": [],
      "name": "treasuryAddress",
      "outputs": [
        {
          "internalType": "address",
          "name": "",
          "type": "address"
        }
      ],
      "stateMutability": "view",
      "type": "function",
      "constant": true
    },
    {
      "inputs": [],
      "name": "treasuryShare",
      "outputs": [
        {
          "internalType": "uint256",
          "name": "",
          "type": "uint256"
        }
      ],
      "stateMutability": "view",
      "type": "function",
      "constant": true
    },
    {
      "inputs": [
        {
          "internalType": "address",
          "name": "_newAdmin",
          "type": "address"
        }
      ],
      "name": "updateContractAdmin",
      "outputs": [],
      "stateMutability": "nonpayable",
      "type": "function"
    },
    {
      "inputs": [],
      "name": "usdtToken",
      "outputs": [
        {
          "internalType": "contract IBEP20",
          "name": "",
          "type": "address"
        }
      ],
      "stateMutability": "view",
      "type": "function",
      "constant": true
    },
    {
      "inputs": [
        {
          "internalType": "address",
          "name": "_mainAdmin",
          "type": "address"
        },
        {
          "internalType": "address",
          "name": "_citizen",
          "type": "address"
        },
        {
          "internalType": "contract IGameNFT",
          "name": "_heroNFTToken",
          "type": "address"
        },
        {
          "internalType": "contract IGameNFT",
          "name": "_itemNFTToken",
          "type": "address"
        },
        {
          "internalType": "contract IGameNFT",
          "name": "_landNFTToken",
          "type": "address"
        },
        {
          "internalType": "address",
          "name": "_treasuryAddress",
          "type": "address"
        },
        {
          "internalType": "address",
          "name": "_fotaPricer",
          "type": "address"
        },
        {
          "internalType": "address",
          "name": "_eatherTransporter",
          "type": "address"
        }
      ],
      "name": "initialize",
      "outputs": [],
      "stateMutability": "nonpayable",
      "type": "function"
    },
    {
      "inputs": [
        {
          "internalType": "address",
          "name": "_mainAdmin",
          "type": "address"
        }
      ],
      "name": "initialize",
      "outputs": [],
      "stateMutability": "nonpayable",
      "type": "function"
    },
    {
      "inputs": [
        {
          "internalType": "enum IMarketPlace.OrderType",
          "name": "_type",
          "type": "uint8"
        },
        {
          "internalType": "enum IMarketPlace.OrderKind",
          "name": "_kind",
          "type": "uint8"
        },
        {
          "internalType": "uint256",
          "name": "_tokenId",
          "type": "uint256"
        },
        {
          "internalType": "uint256",
          "name": "_startPrice",
          "type": "uint256"
        },
        {
          "internalType": "uint256",
          "name": "_endingPrice",
          "type": "uint256"
        },
        {
          "internalType": "uint256",
          "name": "_auctionDuration",
          "type": "uint256"
        },
        {
          "internalType": "uint256",
          "name": "_rentingDuration",
          "type": "uint256"
        }
      ],
      "name": "makeOrder",
      "outputs": [],
      "stateMutability": "nonpayable",
      "type": "function"
    },
    {
      "inputs": [
        {
          "internalType": "enum IMarketPlace.OrderKind",
          "name": "_kind",
          "type": "uint8"
        },
        {
          "internalType": "uint256",
          "name": "_tokenId",
          "type": "uint256"
        }
      ],
      "name": "cancelOrder",
      "outputs": [],
      "stateMutability": "nonpayable",
      "type": "function"
    },
    {
      "inputs": [
        {
          "internalType": "enum IMarketPlace.OrderKind",
          "name": "_kind",
          "type": "uint8"
        },
        {
          "internalType": "uint256",
          "name": "_tokenId",
          "type": "uint256"
        },
        {
          "internalType": "enum IMarketPlace.PaymentCurrency",
          "name": "_paymentCurrency",
          "type": "uint8"
        }
      ],
      "name": "takeOrder",
      "outputs": [],
      "stateMutability": "nonpayable",
      "type": "function"
    },
    {
      "inputs": [
        {
          "internalType": "enum IMarketPlace.OrderKind",
          "name": "_kind",
          "type": "uint8"
        },
        {
          "internalType": "uint16",
          "name": "_classId",
          "type": "uint16"
        },
        {
          "internalType": "enum IMarketPlace.PaymentCurrency",
          "name": "_paymentCurrency",
          "type": "uint8"
        }
      ],
      "name": "takeFounding",
      "outputs": [],
      "stateMutability": "nonpayable",
      "type": "function"
    },
    {
      "inputs": [
        {
          "internalType": "enum IMarketPlace.OrderKind",
          "name": "_kind",
          "type": "uint8"
        },
        {
          "internalType": "uint256",
          "name": "_tokenId",
          "type": "uint256"
        }
      ],
      "name": "getNFTBack",
      "outputs": [],
      "stateMutability": "nonpayable",
      "type": "function"
    },
    {
      "inputs": [
        {
          "internalType": "bytes4",
          "name": "interfaceId",
          "type": "bytes4"
        }
      ],
      "name": "supportsInterface",
      "outputs": [
        {
          "internalType": "bool",
          "name": "",
          "type": "bool"
        }
      ],
      "stateMutability": "pure",
      "type": "function",
      "constant": true
    },
    {
      "inputs": [
        {
          "internalType": "uint8",
          "name": "_minLevel",
          "type": "uint8"
        }
      ],
      "name": "setMinLevel",
      "outputs": [],
      "stateMutability": "nonpayable",
      "type": "function"
    },
    {
      "inputs": [
        {
          "internalType": "uint8",
          "name": "_minGene",
          "type": "uint8"
        }
      ],
      "name": "setMinGene",
      "outputs": [],
      "stateMutability": "nonpayable",
      "type": "function"
    },
    {
      "inputs": [
        {
          "internalType": "enum IMarketPlace.PaymentType",
          "name": "_type",
          "type": "uint8"
        }
      ],
      "name": "updatePaymentType",
      "outputs": [],
      "stateMutability": "nonpayable",
      "type": "function"
    },
    {
      "inputs": [
        {
          "internalType": "enum IMarketPlace.OrderKind",
          "name": "_kind",
          "type": "uint8"
        },
        {
          "internalType": "uint256",
          "name": "_tokenId",
          "type": "uint256"
        }
      ],
      "name": "adminCancelOrder",
      "outputs": [],
      "stateMutability": "nonpayable",
      "type": "function"
    },
    {
      "inputs": [
        {
          "internalType": "address",
          "name": "_user",
          "type": "address"
        },
        {
          "internalType": "bool",
          "name": "_locked",
          "type": "bool"
        }
      ],
      "name": "updateLockUserStatus",
      "outputs": [],
      "stateMutability": "nonpayable",
      "type": "function"
    },
    {
      "inputs": [
        {
          "internalType": "uint16",
          "name": "_id",
          "type": "uint16"
        },
        {
          "internalType": "bool",
          "name": "_locked",
          "type": "bool"
        }
      ],
      "name": "updateLockHeroStatus",
      "outputs": [],
      "stateMutability": "nonpayable",
      "type": "function"
    },
    {
      "inputs": [
        {
          "internalType": "uint256",
          "name": "_id",
          "type": "uint256"
        },
        {
          "internalType": "bool",
          "name": "_locked",
          "type": "bool"
        }
      ],
      "name": "updateLockHeroNFTIdStatus",
      "outputs": [],
      "stateMutability": "nonpayable",
      "type": "function"
    },
    {
      "inputs": [
        {
          "internalType": "uint16",
          "name": "_id",
          "type": "uint16"
        },
        {
          "internalType": "bool",
          "name": "_locked",
          "type": "bool"
        }
      ],
      "name": "updateLockItemStatus",
      "outputs": [],
      "stateMutability": "nonpayable",
      "type": "function"
    },
    {
      "inputs": [
        {
          "internalType": "uint256",
          "name": "_id",
          "type": "uint256"
        },
        {
          "internalType": "bool",
          "name": "_locked",
          "type": "bool"
        }
      ],
      "name": "updateLockItemNFTIdStatus",
      "outputs": [],
      "stateMutability": "nonpayable",
      "type": "function"
    },
    {
      "inputs": [
        {
          "internalType": "uint256",
          "name": "_referralShare",
          "type": "uint256"
        },
        {
          "internalType": "uint256",
          "name": "_creatorShare",
          "type": "uint256"
        },
        {
          "internalType": "uint256",
          "name": "_treasuryShare",
          "type": "uint256"
        }
      ],
      "name": "setShares",
      "outputs": [],
      "stateMutability": "nonpayable",
      "type": "function"
    },
    {
      "inputs": [
        {
          "internalType": "address",
          "name": "_address",
          "type": "address"
        }
      ],
      "name": "updateFundAdmin",
      "outputs": [],
      "stateMutability": "nonpayable",
      "type": "function"
    },
    {
      "inputs": [
        {
          "internalType": "uint16",
          "name": "_class",
          "type": "uint16"
        },
        {
          "internalType": "uint256",
          "name": "_price",
          "type": "uint256"
        }
      ],
      "name": "updateHeroPrice",
      "outputs": [],
      "stateMutability": "nonpayable",
      "type": "function"
    },
    {
      "inputs": [
        {
          "internalType": "uint16",
          "name": "_class",
          "type": "uint16"
        },
        {
          "internalType": "uint256",
          "name": "_price",
          "type": "uint256"
        }
      ],
      "name": "updateHeroMinPrice",
      "outputs": [],
      "stateMutability": "nonpayable",
      "type": "function"
    },
    {
      "inputs": [
        {
          "internalType": "uint16",
          "name": "_class",
          "type": "uint16"
        },
        {
          "internalType": "uint256",
          "name": "_price",
          "type": "uint256"
        }
      ],
      "name": "updateItemPrice",
      "outputs": [],
      "stateMutability": "nonpayable",
      "type": "function"
    },
    {
      "inputs": [
        {
          "internalType": "uint16",
          "name": "_class",
          "type": "uint16"
        },
        {
          "internalType": "uint256",
          "name": "_price",
          "type": "uint256"
        }
      ],
      "name": "updateItemMinPrice",
      "outputs": [],
      "stateMutability": "nonpayable",
      "type": "function"
    },
    {
      "inputs": [
        {
          "internalType": "address",
          "name": "_gameProxy",
          "type": "address"
        }
      ],
      "name": "setGameContract",
      "outputs": [],
      "stateMutability": "nonpayable",
      "type": "function"
    },
    {
      "inputs": [
        {
          "internalType": "address",
          "name": "_eatherTransporter",
          "type": "address"
        }
      ],
      "name": "setEatherTransporter",
      "outputs": [],
      "stateMutability": "nonpayable",
      "type": "function"
    },
    {
      "inputs": [
        {
          "internalType": "address",
          "name": "_fotaPricer",
          "type": "address"
        }
      ],
      "name": "setFOTAPricer",
      "outputs": [],
      "stateMutability": "nonpayable",
      "type": "function"
    },
    {
      "inputs": [
        {
          "internalType": "bool",
          "name": "_paused",
          "type": "bool"
        }
      ],
      "name": "updatePauseStatus",
      "outputs": [],
      "stateMutability": "nonpayable",
      "type": "function"
    },
    {
      "inputs": [
        {
          "internalType": "enum IMarketPlace.OrderKind",
          "name": "_kind",
          "type": "uint8"
        },
        {
          "internalType": "uint16",
          "name": "_classId",
          "type": "uint16"
        },
        {
          "internalType": "uint256",
          "name": "_remainingSale",
          "type": "uint256"
        }
      ],
      "name": "setRemainingSale",
      "outputs": [],
      "stateMutability": "nonpayable",
      "type": "function"
    },
    {
      "inputs": [
        {
          "internalType": "address",
          "name": "_land",
          "type": "address"
        }
      ],
      "name": "addLandContract",
      "outputs": [],
      "stateMutability": "nonpayable",
      "type": "function"
    }
  ],
  "bytecode": "0x608060405234801561001057600080fd5b50615b9c80620000216000396000f3fe608060405234801561001057600080fd5b50600436106103d05760003560e01c80639814c9a6116101ff578063c4d66de81161011a578063de0e7014116100ad578063f563768c1161007c578063f563768c146107ca578063fb4402aa146107dd578063fb6b04ba146107f0578063fbdd9368146107f8576103d0565b8063de0e701414610794578063e859e56c1461079c578063ea8991c4146107a4578063f2fde38b146107b7576103d0565b8063dab95776116100e9578063dab9577614610748578063db37dc271461075b578063db98441b1461076e578063dd1aa71a14610781576103d0565b8063c4d66de814610712578063c5f956af14610725578063ca35fb311461072d578063d5da5afd14610735576103d0565b8063aca986c811610192578063b7d6caec11610161578063b7d6caec146106d1578063bc6e6830146106d9578063bd740b5d146106ec578063c0513f36146106ff576103d0565b8063aca986c814610685578063ad378c6814610698578063adc3920a146106ab578063af830bde146106be576103d0565b8063a6330002116101ce578063a63300021461064f578063a79b547314610662578063a82c7e821461066a578063a98ad46c1461067d576103d0565b80639814c9a61461060e5780639c45658314610621578063a00245fa14610629578063a0885e931461063c576103d0565b806348d002f2116102ef5780637796ff37116102825780639350f78f116102515780639350f78f146105cd57806395b445dc146105e057806396fe4288146105f357806397ffe8d7146105fb576103d0565b80637796ff371461058c57806381c9727414610594578063834c0c6d146105a75780638a29e2de146105ba576103d0565b80636845a85c116102be5780636845a85c1461054b5780636f62d9161461055e5780636facbaf4146105715780637795524514610584576103d0565b806348d002f2146105205780635c975abb146105285780635d7496d0146105305780635e1c2f0a14610543576103d0565b806316a88465116103675780633930f4ba116103365780633930f4ba146104d45780633da5e2b6146104e7578063405ebd4d146104fa57806346a5a0721461050d576103d0565b806316a88465146104915780632763b8da146104a45780632bbc4971146104b957806331310b0b146104c1576103d0565b80630b906f6d116103a35780630b906f6d146104395780630eccb4d21461045f57806310e3ba5e1461047457806311541ce014610489576103d0565b806301ffc9a7146103d557806302e65b8a146103fe57806307509cdb146104135780630900915314610426575b600080fd5b6103e86103e3366004614aae565b61080b565b6040516103f59190614ffa565b60405180910390f35b61041161040c366004614957565b610856565b005b610411610421366004614ded565b6108e0565b610411610434366004614da0565b61095c565b61044c610447366004614bc1565b6109c8565b6040516103f59796959493929190614fbd565b610467610a1d565b6040516103f59190614eaa565b61047c610a2c565b6040516103f591906158bd565b6103e8610a32565b61041161049f366004614d83565b610a49565b6104ac610abe565b6040516103f59190615067565b610467610ace565b6104116104cf366004614b37565b610add565b61047c6104e2366004614d4b565b610f98565b6103e86104f5366004614d4b565b610faa565b610411610508366004614957565b610fbf565b61041161051b366004614957565b611005565b61046761104b565b6103e861105a565b61041161053e366004614e3c565b611063565b6104676110da565b610411610559366004614b81565b6110e9565b61047c61056c366004614b0a565b6112e7565b61044c61057f366004614bc1565b611304565b610467611359565b61047c611368565b61047c6105a2366004614d4b565b61136e565b6103e86105b5366004614dbd565b611380565b6104116105c8366004614996565b611395565b6104116105db366004614e3c565b611559565b61047c6105ee366004614d4b565b6115b4565b61047c6115c6565b610467610609366004614aee565b6115cc565b61041161061c366004614da0565b6115e7565b610467611653565b610411610637366004614aee565b611662565b61041161064a366004614e11565b611708565b6103e861065d366004614957565b61178c565b6104676117a1565b6103e8610678366004614d4b565b6117b0565b6104676117c5565b610411610693366004614957565b6117d4565b6104116106a6366004614bc1565b61182d565b6104116106b9366004614ded565b6118e5565b61047c6106cc366004614d4b565b611955565b6103e8611967565b6104116106e7366004614a76565b611978565b6104116106fa366004614bc1565b6119ba565b61041161070d366004614d83565b611b29565b610411610720366004614957565b611b9e565b610467611c5c565b61047c611c6b565b610411610743366004614da0565b611c71565b610411610756366004614957565b611cdd565b610411610769366004614bec565b611d72565b61041161077c366004614c22565b612468565b61041161078f366004614a3e565b61291c565b610467612996565b61047c6129a5565b6104116107b2366004614bc1565b6129ab565b6104116107c5366004614957565b612b59565b6103e86107d8366004614dbd565b612bf2565b6104116107eb366004614da0565b612c07565b610467612c73565b610411610806366004614957565b612c88565b7fffffffff0000000000000000000000000000000000000000000000000000000081167f80ac58cd00000000000000000000000000000000000000000000000000000000145b919050565b61085e610a32565b6108835760405162461bcd60e51b815260040161087a90615410565b60405180910390fd5b6001600160a01b03811661089657600080fd5b600180546001600160a01b0319166001600160a01b0383169081179091556040517fe3f4a4b5b74aa6830627cb87c50cf7d4ed56e9b246729179ba634bbdc873177a90600090a250565b6108e8610a32565b6109045760405162461bcd60e51b815260040161087a90615410565b6000828152606f602052604090819020805460ff1916831515179055517f864e8dfd59936e9ab51fc84833e250c1fe2c2f0b8d0cf0d69ba83cca6bf0685a9061095090849084906158c6565b60405180910390a15050565b610964610a32565b6109805760405162461bcd60e51b815260040161087a90615410565b61ffff82166000908152607c602052604090819020829055517fa9578d5cf1d35ba1575baaa491dd314bf0f440ab1bf15af87484af5448a6f20e9061095090849084906158a9565b606a60209081526000928352604080842090915290825290208054600182015460028301546003840154600485015460058601546006909601546001600160a01b039095169593949293919290919060ff1687565b6077546001600160a01b031681565b60805481565b6000546201000090046001600160a01b0316331490565b610a51610a32565b610a6d5760405162461bcd60e51b815260040161087a90615410565b61ffff82166000908152606e602052604090819020805460ff1916831515179055517f0d1bce3b699e2ddaaf7edce4a3991e039cb5c6fd6be0f3213d97c74bde5f5ce9906109509084908490615893565b607454600160a01b900460ff1681565b6074546001600160a01b031681565b610ae561105a565b15610b025760405162461bcd60e51b815260040161087a90615345565b600060716000856002811115610b2857634e487b7160e01b600052602160045260246000fd5b6002811115610b4757634e487b7160e01b600052602160045260246000fd5b815260200190815260200160002060008461ffff1661ffff1681526020019081526020016000205411610b8c5760405162461bcd60e51b815260040161087a9061530e565b60716000846002811115610bb057634e487b7160e01b600052602160045260246000fd5b6002811115610bcf57634e487b7160e01b600052602160045260246000fd5b81526020808201929092526040908101600090812061ffff861682529092528120805491610bfc83615aa0565b9190505550610c0a81612cce565b60008080856002811115610c2e57634e487b7160e01b600052602160045260246000fd5b1415610d445761ffff84166000908152607b60205260408120549250606b90866002811115610c6d57634e487b7160e01b600052602160045260246000fd5b6002811115610c8c57634e487b7160e01b600052602160045260246000fd5b81526020810191909152604090810160009081205491517fa045ae980000000000000000000000000000000000000000000000000000000081526001600160a01b039092169163a045ae9891610ceb9133918991889190600401614f4c565b602060405180830381600087803b158015610d0557600080fd5b505af1158015610d19573d6000803e3d6000fd5b505050506040513d601f19601f82011682018060405250810190610d3d9190614dd5565b9050610e52565b61ffff84166000908152607d60205260408120549250606b90866002811115610d7d57634e487b7160e01b600052602160045260246000fd5b6002811115610d9c57634e487b7160e01b600052602160045260246000fd5b81526020810191909152604090810160009081205491517f882c3b0e0000000000000000000000000000000000000000000000000000000081526001600160a01b039092169163882c3b0e91610dfd9133916001918a918991600401614f17565b602060405180830381600087803b158015610e1757600080fd5b505af1158015610e2b573d6000803e3d6000fd5b505050506040513d601f19601f82011682018060405250810190610e4f9190614dd5565b90505b610e5b83612d94565b15610eff57607660009054906101000a90046001600160a01b03166001600160a01b031663ce1143486040518163ffffffff1660e01b815260040160206040518083038186803b158015610eae57600080fd5b505afa158015610ec2573d6000803e3d6000fd5b505050506040513d601f19601f82011682018060405250810190610ee69190614dd5565b610ef2836103e8615a2b565b610efc9190615994565b91505b60008211610f1f5760405162461bcd60e51b815260040161087a90615825565b610f298284612e2a565b607254610f439086906001600160a01b0316848487612ee5565b607454604051339183917fefa30b68a244cbdd14abd93befdab1cf40a1bd9acae29040bed4b7ac690dc23d91610f89918a91600160a01b900460ff169088908a90615005565b60405180910390a35050505050565b607b6020526000908152604090205481565b606d6020526000908152604090205460ff1681565b610fc7610a32565b610fe35760405162461bcd60e51b815260040161087a90615410565b607580546001600160a01b0319166001600160a01b0392909216919091179055565b61100d610a32565b6110295760405162461bcd60e51b815260040161087a90615410565b607780546001600160a01b0319166001600160a01b0392909216919091179055565b6066546001600160a01b031681565b60345460ff1690565b61106b610a32565b6110875760405162461bcd60e51b815260040161087a90615410565b60198160ff16111561109857600080fd5b60ff8116607f556040517f074aef0a3a7a9a88c0af1ad5b2e19417886b720a6942876ed914a782c907094c906110cf908390615901565b60405180910390a150565b6076546001600160a01b031681565b6110f1610a32565b61110d5760405162461bcd60e51b815260040161087a90615410565b600083600281111561112f57634e487b7160e01b600052602160045260246000fd5b1415611238576000606b600085600281111561115b57634e487b7160e01b600052602160045260246000fd5b600281111561117a57634e487b7160e01b600052602160045260246000fd5b815260200190815260200160002060009054906101000a90046001600160a01b03166001600160a01b031663922670436040518163ffffffff1660e01b815260040160206040518083038186803b1580156111d457600080fd5b505afa1580156111e8573d6000803e3d6000fd5b505050506040513d601f19601f8201168201806040525081019061120c9190614d67565b90508061ffff168361ffff1611156112365760405162461bcd60e51b815260040161087a9061507a565b505b806071600085600281111561125d57634e487b7160e01b600052602160045260246000fd5b600281111561127c57634e487b7160e01b600052602160045260246000fd5b815260200190815260200160002060008461ffff1661ffff168152602001908152602001600020819055507f03abe3a477562aeeaeefdfe39fe672ba6db0a3ec45c66bf252cb3cdee78704188383836040516112da93929190615042565b60405180910390a1505050565b607160209081526000928352604080842090915290825290205481565b606960209081526000928352604080842090915290825290208054600182015460028301546003840154600485015460058601546006909601546001600160a01b039095169593949293919290919060ff1687565b6001546001600160a01b031681565b607a5481565b607c6020526000908152604090205481565b60706020526000908152604090205460ff1681565b600054610100900460ff16806113ae575060005460ff16155b6113ca5760405162461bcd60e51b815260040161087a906153b3565b600054610100900460ff161580156113f5576000805460ff1961ff0019909116610100171660011790555b6113fe89611b9e565b607280546001600160a01b038b81166001600160a01b03199283161790925560738054878416908316179055607480548b8416908316179055606b6020527fc8cc8bda7ad4886bea3ebbdafa02e79d37c39bf4011696b26a31a0802fd9458b805482168a84161790557fa775687211c2b3346a0f5a2a0e7590e6c1838453e3785e6dd2a8efd6265ddf158054821689841617905560026000527fb507b92927105c30ff6e8afc661972d5ba73e86e28bafa70cb531ddda52bdf048054888416908316179055607680548684169083161790556077805492851692821692909217909155606680548216730a4e1bdfa75292a98c15870aef24bd94bffe0bd417905560678054821673e9e7cea3dedca5984780bafc599bd69add087d56179055606880549091167355d398326f99059ff775485246999027b3197955179055801561154e576000805461ff00191690555b505050505050505050565b611561610a32565b61157d5760405162461bcd60e51b815260040161087a90615410565b60ff81166080556040517f8f09fcde88463ffc55c3f8967e1db9988dc2c31b17fe4ffcf6c3019cf91f68e6906110cf908390615901565b607d6020526000908152604090205481565b607f5481565b606b602052600090815260409020546001600160a01b031681565b6115ef610a32565b61160b5760405162461bcd60e51b815260040161087a90615410565b61ffff82166000908152607b602052604090819020829055517ff6aa05f84cff0fb333d5a1902db845bbc20217a0eeff918b4bfecea0198805ad9061095090849084906158a9565b6072546001600160a01b031681565b61166a610a32565b6116865760405162461bcd60e51b815260040161087a90615410565b607480548291907fffffffffffffffffffffff00ffffffffffffffffffffffffffffffffffffffff16600160a01b8360028111156116d457634e487b7160e01b600052602160045260246000fd5b02179055507f42d1d4a3df940c5fa3c262d3d5b271a206cfc2e3da70683f81854b3f52f8f5d5816040516110cf9190615067565b611710610a32565b61172c5760405162461bcd60e51b815260040161087a90615410565b60008311801561173e57506127108311155b61174757600080fd5b6078839055811580159061175d57506127108211155b61176657600080fd5b6079829055801580159061177c57506127108111155b61178557600080fd5b607a555050565b606c6020526000908152604090205460ff1681565b6075546001600160a01b031681565b606e6020526000908152604090205460ff1681565b6068546001600160a01b031681565b6117dc610a32565b6117f85760405162461bcd60e51b815260040161087a90615410565b6001600160a01b03811661180b57600080fd5b607280546001600160a01b0319166001600160a01b0392909216919091179055565b61183561105a565b156118525760405162461bcd60e51b815260040161087a90615345565b60006069600084600281111561187857634e487b7160e01b600052602160045260246000fd5b600281111561189757634e487b7160e01b600052602160045260246000fd5b8152602001908152602001600020600083815260200190815260200160002090506118c181612f46565b156118d6576118d1838383612f4f565b6118e0565b6118e08383612fe0565b505050565b6118ed610a32565b6119095760405162461bcd60e51b815260040161087a90615410565b60008281526070602052604090819020805460ff1916831515179055517f0ad5c66ebd887434fc734c558a7d8d02303d8960d137ca76a15c5cb4266d25dd9061095090849084906158c6565b607e6020526000908152604090205481565b6001546001600160a01b0316331490565b611980610a32565b61199c5760405162461bcd60e51b815260040161087a90615410565b80156119af576119aa6130d2565b6119b7565b6119b7613144565b50565b6119c261105a565b156119df5760405162461bcd60e51b815260040161087a90615345565b6000606a6000846002811115611a0557634e487b7160e01b600052602160045260246000fd5b6002811115611a2457634e487b7160e01b600052602160045260246000fd5b815260208082019290925260409081016000908120858252909252902080549091506001600160a01b03163314611a6d5760405162461bcd60e51b815260040161087a906157ee565b600681015460ff16611a915760405162461bcd60e51b815260040161087a906151c4565b80600401548160050154611aa5919061594e565b421015611ac45760405162461bcd60e51b815260040161087a90615269565b611ace838361319b565b611ada8330338561323c565b81836002811115611afb57634e487b7160e01b600052602160045260246000fd5b6040517f8fba4745132996fd9feb91c62d3a68118ed66cdb6a99c544ad57af8006dfedd390600090a3505050565b611b31610a32565b611b4d5760405162461bcd60e51b815260040161087a90615410565b61ffff82166000908152606d602052604090819020805460ff1916831515179055517fc953b8fd7c3111b240c5a8b88fcc74b45d399f7231aec5bb090c915091c6b0be906109509084908490615893565b600054610100900460ff1680611bb7575060005460ff16155b611bd35760405162461bcd60e51b815260040161087a906153b3565b600054610100900460ff16158015611bfe576000805460ff1961ff0019909116610100171660011790555b6000805475ffffffffffffffffffffffffffffffffffffffff00001916620100006001600160a01b03851690810291909117909155600180546001600160a01b03191690911790558015611c58576000805461ff00191690555b5050565b6073546001600160a01b031681565b60795481565b611c79610a32565b611c955760405162461bcd60e51b815260040161087a90615410565b61ffff82166000908152607e602052604090819020829055517f40e3828bbc608725368a4e9a9f61430638b44e1fa8a1400503dd42214efb63059061095090849084906158a9565b611ce5610a32565b611d015760405162461bcd60e51b815260040161087a90615410565b6001600160a01b038116611d275760405162461bcd60e51b815260040161087a9061511f565b6002600052606b6020527fb507b92927105c30ff6e8afc661972d5ba73e86e28bafa70cb531ddda52bdf0480546001600160a01b0319166001600160a01b0392909216919091179055565b611d7a61105a565b15611d975760405162461bcd60e51b815260040161087a90615345565b611da081612cce565b6000606b6000856002811115611dc657634e487b7160e01b600052602160045260246000fd5b6002811115611de557634e487b7160e01b600052602160045260246000fd5b8152602081019190915260409081016000205490517f8a8e17300000000000000000000000000000000000000000000000000000000081526001600160a01b0390911690638a8e173090611e3d9086906004016158bd565b60206040518083038186803b158015611e5557600080fd5b505afa158015611e69573d6000803e3d6000fd5b505050506040513d601f19601f82011682018060405250810190611e8d9190614d67565b90506000846002811115611eb157634e487b7160e01b600052602160045260246000fd5b1415611f1f576000838152606f602052604090205460ff1615611ee65760405162461bcd60e51b815260040161087a906156db565b61ffff81166000908152606d602052604090205460ff1615611f1a5760405162461bcd60e51b815260040161087a906155ff565b611faa565b6001846002811115611f4157634e487b7160e01b600052602160045260246000fd5b1415611faa5760008381526070602052604090205460ff1615611f765760405162461bcd60e51b815260040161087a906155c8565b61ffff81166000908152606e602052604090205460ff1615611faa5760405162461bcd60e51b815260040161087a90615749565b600060696000866002811115611fd057634e487b7160e01b600052602160045260246000fd5b6002811115611fef57634e487b7160e01b600052602160045260246000fd5b815260200190815260200160002060008581526020019081526020016000209050600061201b82612f46565b61208857606a600087600281111561204357634e487b7160e01b600052602160045260246000fd5b600281111561206257634e487b7160e01b600052602160045260246000fd5b815260200190815260200160002060008681526020019081526020016000209150600190505b61209182612f46565b6120ad5760405162461bcd60e51b815260040161087a90615232565b81546001600160a01b03163314156120d75760405162461bcd60e51b815260040161087a90615712565b60006120e5878685896132fa565b90506120f18186612e2a565b82546001600160a01b0316600083600181111561211e57634e487b7160e01b600052602160045260246000fd5b14156121335761212e888861347d565b61213d565b61213d88886134a1565b8115612150576121508882848a8a612ee5565b600083600181111561217257634e487b7160e01b600052602160045260246000fd5b14156123f25761218186612d94565b1561224657606b60008960028111156121aa57634e487b7160e01b600052602160045260246000fd5b60028111156121c957634e487b7160e01b600052602160045260246000fd5b81526020810191909152604001600020546001600160a01b031663a6621b35886121f28561358d565b6040518363ffffffff1660e01b815260040161220f9291906158f3565b600060405180830381600087803b15801561222957600080fd5b505af115801561223d573d6000803e3d6000fd5b50505050612316565b606b600089600281111561226a57634e487b7160e01b600052602160045260246000fd5b600281111561228957634e487b7160e01b600052602160045260246000fd5b8152602081019190915260409081016000205490517fa6621b350000000000000000000000000000000000000000000000000000000081526001600160a01b039091169063a6621b35906122e3908a9086906004016158f3565b600060405180830381600087803b1580156122fd57600080fd5b505af1158015612311573d6000803e3d6000fd5b505050505b606b600089600281111561233a57634e487b7160e01b600052602160045260246000fd5b600281111561235957634e487b7160e01b600052602160045260246000fd5b81526020810191909152604090810160009081205491517f1ab5f3a30000000000000000000000000000000000000000000000000000000081526001600160a01b0390921691631ab5f3a3916123b4918b91906004016158f3565b600060405180830381600087803b1580156123ce57600080fd5b505af11580156123e2573d6000803e3d6000fd5b505050506123f28830338a61323c565b338784600181111561241457634e487b7160e01b600052602160045260246000fd5b6074546040517f83634d84f89a270f814c0a2fae90aafdd9fb300c701269b6311e70c1551f32bb91612456918e91600160a01b900460ff169089908e90615005565b60405180910390a45050505050505050565b61247061105a565b1561248d5760405162461bcd60e51b815260040161087a90615345565b61249561362c565b60008660028111156124b757634e487b7160e01b600052602160045260246000fd5b14156124cf576124ca878787878761365e565b612504565b60018660028111156124f157634e487b7160e01b600052602160045260246000fd5b141561250457612504878787878761384b565b82841461253e5762015180821015801561252257506301e133808211155b61253e5760405162461bcd60e51b815260040161087a90615447565b600187600181111561256057634e487b7160e01b600052602160045260246000fd5b14156125995762093a80811015801561257d57506301e133808111155b6125995760405162461bcd60e51b815260040161087a906152d7565b33606b60008860028111156125be57634e487b7160e01b600052602160045260246000fd5b60028111156125dd57634e487b7160e01b600052602160045260246000fd5b8152602081019190915260409081016000205490517f6352211e0000000000000000000000000000000000000000000000000000000081526001600160a01b0390911690636352211e906126359089906004016158bd565b60206040518083038186803b15801561264d57600080fd5b505afa158015612661573d6000803e3d6000fd5b505050506040513d601f19601f82011682018060405250810190612685919061497a565b6001600160a01b0316146126ab5760405162461bcd60e51b815260040161087a906157ee565b6126b78633308861323c565b6040805160e0810182523381526020810186905290810184905260608101839052608081018290524260a0820152600060c0820181905288600181111561270e57634e487b7160e01b600052602160045260246000fd5b146127dd5780606a600089600281111561273857634e487b7160e01b600052602160045260246000fd5b600281111561275757634e487b7160e01b600052602160045260246000fd5b8152602080820192909252604090810160009081208a82528352819020835181546001600160a01b0319166001600160a01b039091161781559183015160018301558201516002820155606082015160038201556080820151600482015560a0820151600582015560c09091015160068201805460ff19169115159190911790556128a3565b806069600089600281111561280257634e487b7160e01b600052602160045260246000fd5b600281111561282157634e487b7160e01b600052602160045260246000fd5b8152602080820192909252604090810160009081208a82528352819020835181546001600160a01b0319166001600160a01b039091161781559183015160018301558201516002820155606082015160038201556080820151600482015560a0820151600582015560c09091015160068201805460ff19169115159190911790555b50858760028111156128c557634e487b7160e01b600052602160045260246000fd5b8960018111156128e557634e487b7160e01b600052602160045260246000fd5b7ff692e0930fed8821bc95ff1126818a75b07c9c2e63d1ccbf0e254f80138075393389898989604051612456959493929190614f8f565b612924610a32565b6129405760405162461bcd60e51b815260040161087a90615410565b6001600160a01b0382166000908152606c602052604090819020805460ff1916831515179055517f7a88b5d823cf9ac257655ad4db41e1eb7ac81651886f381fb9de613ad8e7e5fa906109509084908490614efc565b6067546001600160a01b031681565b60785481565b6129b3610a32565b6129cf5760405162461bcd60e51b815260040161087a90615410565b6000606960008460028111156129f557634e487b7160e01b600052602160045260246000fd5b6002811115612a1457634e487b7160e01b600052602160045260246000fd5b8152602001908152602001600020600083815260200190815260200160002090506000612a4082612f46565b15612a6c575080546001600160a01b0316612a5b848461347d565b612a678430838661323c565b612b09565b6000606a6000866002811115612a9257634e487b7160e01b600052602160045260246000fd5b6002811115612ab157634e487b7160e01b600052602160045260246000fd5b815260200190815260200160002060008581526020019081526020016000209050612adb81612f46565b612ae457600080fd5b80546001600160a01b03169150612afb858561319b565b612b078530848761323c565b505b82846002811115612b2a57634e487b7160e01b600052602160045260246000fd5b6040517f33db719da0e4c16cf1b24df43e97d091f12afcc97f4a09cf711a7ff16a26ee0b90600090a350505050565b612b61610a32565b612b7d5760405162461bcd60e51b815260040161087a90615410565b6001600160a01b038116612b9057600080fd5b6000805475ffffffffffffffffffffffffffffffffffffffff00001916620100006001600160a01b038416908102919091178255604051909133917f8be0079c531659141344cd1fd0a4f28419497f9722a3daafe3b4186f6b6457e09190a350565b606f6020526000908152604090205460ff1681565b612c0f610a32565b612c2b5760405162461bcd60e51b815260040161087a90615410565b61ffff82166000908152607d602052604090819020829055517f22b7cadb44f3efc1ecc48da89d06844a4d052977d8a8ecc2dd680a612f5f25ce9061095090849084906158a9565b6000546201000090046001600160a01b031681565b612c90610a32565b612cac5760405162461bcd60e51b815260040161087a90615410565b607680546001600160a01b0319166001600160a01b0392909216919091179055565b612cd781613ae3565b612cdf61362c565b6074546040517ff3caad030000000000000000000000000000000000000000000000000000000081526001600160a01b039091169063f3caad0390612d28903390600401614eaa565b60206040518083038186803b158015612d4057600080fd5b505afa158015612d54573d6000803e3d6000fd5b505050506040513d601f19601f82011682018060405250810190612d789190614a92565b6119b75760405162461bcd60e51b815260040161087a9061537c565b600080607454600160a01b900460ff166002811115612dc357634e487b7160e01b600052602160045260246000fd5b1480612e2457506002607454600160a01b900460ff166002811115612df857634e487b7160e01b600052602160045260246000fd5b148015612e2457506000826002811115612e2257634e487b7160e01b600052602160045260246000fd5b145b92915050565b6000607454600160a01b900460ff166002811115612e5857634e487b7160e01b600052602160045260246000fd5b1415612e6c57612e6782613bca565b611c58565b6001607454600160a01b900460ff166002811115612e9a57634e487b7160e01b600052602160045260246000fd5b1415612eaa57612e678282613dc3565b6000816002811115612ecc57634e487b7160e01b600052602160045260246000fd5b1415612edb57612e6782613bca565b611c588282613dc3565b6000620186a0607a54607954607854612efe919061594e565b612f08919061594e565b612f129086615a2b565b612f1c9190615994565b9050612f3285612f2c8387615a89565b84614023565b612f3e868483856140fd565b505050505050565b60050154151590565b80546001600160a01b03163314612f785760405162461bcd60e51b815260040161087a906157ee565b612f82838361347d565b612f8e8330338561323c565b81836002811115612faf57634e487b7160e01b600052602160045260246000fd5b60005b6040517f1fab97954a9506c1242a40f23b600cae256f81b4b9aedbc5d2a49c5eb078803d90600090a4505050565b6000606a600084600281111561300657634e487b7160e01b600052602160045260246000fd5b600281111561302557634e487b7160e01b600052602160045260246000fd5b81526020019081526020016000206000838152602001908152602001600020905061304f81612f46565b61306b5760405162461bcd60e51b815260040161087a906152a0565b80546001600160a01b031633146130945760405162461bcd60e51b815260040161087a906157ee565b61309e838361319b565b6130aa8330338561323c565b818360028111156130cb57634e487b7160e01b600052602160045260246000fd5b6001612fb2565b6130da61105a565b156130f75760405162461bcd60e51b815260040161087a90615345565b6034805460ff191660011790557f62e78cea01bee320cd4e420270b5ea74000d11b0c9f74754ebdbfc544b05a25861312d6143ea565b60405161313a9190614eaa565b60405180910390a1565b61314c61105a565b6131685760405162461bcd60e51b815260040161087a906150b1565b6034805460ff191690557f5db9ee0a495bf2e6ff9c91a7834c1ba4fdd244a5e8aa4e537bd38aeae4b073aa61312d6143ea565b606a60008360028111156131bf57634e487b7160e01b600052602160045260246000fd5b60028111156131de57634e487b7160e01b600052602160045260246000fd5b81526020808201929092526040908101600090812093815292909152812080546001600160a01b0319168155600181018290556002810182905560038101829055600481018290556005810191909155600601805460ff1916905550565b606b600085600281111561326057634e487b7160e01b600052602160045260246000fd5b600281111561327f57634e487b7160e01b600052602160045260246000fd5b8152602081019190915260409081016000205490516323b872dd60e01b81526001600160a01b03909116906323b872dd906132c290869086908690600401614ed8565b600060405180830381600087803b1580156132dc57600080fd5b505af11580156132f0573d6000803e3d6000fd5b5050505050505050565b815460009081906001600160a01b03163014156133225761331b86846143ee565b90506133aa565b6000846005015442111561334257600585015461333f9042615a89565b90505b8460030154811061335957846002015491506133a8565b60008560010154866002015461336f9190615a4a565b905060008660030154838361338491906159a8565b61338e9190615966565b905060008188600101546133a2919061590f565b94505050505b505b60008560028111156133cc57634e487b7160e01b600052602160045260246000fd5b146133d75780613473565b607660009054906101000a90046001600160a01b03166001600160a01b031663ce1143486040518163ffffffff1660e01b815260040160206040518083038186803b15801561342557600080fd5b505afa158015613439573d6000803e3d6000fd5b505050506040513d601f19601f8201168201806040525081019061345d9190614dd5565b613469826103e8615a2b565b6134739190615994565b9695505050505050565b606960008360028111156131bf57634e487b7160e01b600052602160045260246000fd5b6001606a60008460028111156134c757634e487b7160e01b600052602160045260246000fd5b60028111156134e657634e487b7160e01b600052602160045260246000fd5b8152602001908152602001600020600083815260200190815260200160002060060160006101000a81548160ff02191690831515021790555042606a600084600281111561354457634e487b7160e01b600052602160045260246000fd5b600281111561356357634e487b7160e01b600052602160045260246000fd5b81526020019081526020016000206000838152602001908152602001600020600501819055505050565b60006103e8607660009054906101000a90046001600160a01b03166001600160a01b031663ce1143486040518163ffffffff1660e01b815260040160206040518083038186803b1580156135e057600080fd5b505afa1580156135f4573d6000803e3d6000fd5b505050506040513d601f19601f820116820180604052508101906136189190614dd5565b6136229084615a2b565b612e249190615994565b336000908152606c602052604090205460ff161561365c5760405162461bcd60e51b815260040161087a9061585c565b565b600080606b600087600281111561368557634e487b7160e01b600052602160045260246000fd5b60028111156136a457634e487b7160e01b600052602160045260246000fd5b8152602081019190915260409081016000205490516321d8011160e01b81526001600160a01b03909116906321d80111906136e39088906004016158bd565b60006040518083038186803b1580156136fb57600080fd5b505afa15801561370f573d6000803e3d6000fd5b505050506040513d6000823e601f3d908101601f191682016040526137379190810190614c86565b509550509450505050607f548160ff1610156137655760405162461bcd60e51b815260040161087a90615780565b61ffff82166000908152606d602052604090205460ff16156137995760405162461bcd60e51b815260040161087a906150e8565b6000858152606f602052604090205460ff16156137c85760405162461bcd60e51b815260040161087a906156db565b60008760018111156137ea57634e487b7160e01b600052602160045260246000fd5b14156138425761ffff82166000908152607c60205260409020548410801590613826575061ffff82166000908152607c60205260409020548310155b6138425760405162461bcd60e51b815260040161087a9061566d565b50505050505050565b600080606b600087600281111561387257634e487b7160e01b600052602160045260246000fd5b600281111561389157634e487b7160e01b600052602160045260246000fd5b815260208101919091526040908101600020549051633129e77360e01b81526001600160a01b0390911690633129e773906138d09088906004016158bd565b60a06040518083038186803b1580156138e857600080fd5b505afa1580156138fc573d6000803e3d6000fd5b505050506040513d601f19601f820116820180604052508101906139209190614e58565b505050915060ff169150607760009054906101000a90046001600160a01b03166001600160a01b0316638868ff2b6040518163ffffffff1660e01b815260040160206040518083038186803b15801561397857600080fd5b505afa15801561398c573d6000803e3d6000fd5b505050506040513d601f19601f820116820180604052508101906139b09190614a92565b156139e5578115806139c457506080548210155b6139e05760405162461bcd60e51b815260040161087a9061518d565b613a07565b608054821015613a075760405162461bcd60e51b815260040161087a9061518d565b61ffff81166000908152606e602052604090205460ff1615613a3b5760405162461bcd60e51b815260040161087a9061518d565b60008581526070602052604090205460ff1615613a6a5760405162461bcd60e51b815260040161087a906155c8565b6000876001811115613a8c57634e487b7160e01b600052602160045260246000fd5b14156138425761ffff81166000908152607e60205260409020548410801590613826575061ffff81166000908152607e60205260409020548310156138425760405162461bcd60e51b815260040161087a9061566d565b6000607454600160a01b900460ff166002811115613b1157634e487b7160e01b600052602160045260246000fd5b1415613b56576000816002811115613b3957634e487b7160e01b600052602160045260246000fd5b146119aa5760405162461bcd60e51b815260040161087a906156a4565b6001607454600160a01b900460ff166002811115613b8457634e487b7160e01b600052602160045260246000fd5b14156119b7576000816002811115613bac57634e487b7160e01b600052602160045260246000fd5b14156119b75760405162461bcd60e51b815260040161087a906156a4565b6066546040517fdd62ed3e00000000000000000000000000000000000000000000000000000000815282916001600160a01b03169063dd62ed3e90613c159033903090600401614ebe565b60206040518083038186803b158015613c2d57600080fd5b505afa158015613c41573d6000803e3d6000fd5b505050506040513d601f19601f82011682018060405250810190613c659190614dd5565b1015613c835760405162461bcd60e51b815260040161087a906157b7565b6066546040516370a0823160e01b815282916001600160a01b0316906370a0823190613cb3903390600401614eaa565b60206040518083038186803b158015613ccb57600080fd5b505afa158015613cdf573d6000803e3d6000fd5b505050506040513d601f19601f82011682018060405250810190613d039190614dd5565b1015613d215760405162461bcd60e51b815260040161087a90615636565b6066546040516323b872dd60e01b81526001600160a01b03909116906323b872dd90613d5590339030908690600401614ed8565b602060405180830381600087803b158015613d6f57600080fd5b505af1158015613d83573d6000803e3d6000fd5b505050506040513d601f19601f82011682018060405250810190613da79190614a92565b6119b75760405162461bcd60e51b815260040161087a90615523565b6000816002811115613de557634e487b7160e01b600052602160045260246000fd5b1415613e035760405162461bcd60e51b815260040161087a906154b5565b60006001826002811115613e2757634e487b7160e01b600052602160045260246000fd5b14613e3d576068546001600160a01b0316613e4a565b6067546001600160a01b03165b905082816001600160a01b031663dd62ed3e33306040518363ffffffff1660e01b8152600401613e7b929190614ebe565b60206040518083038186803b158015613e9357600080fd5b505afa158015613ea7573d6000803e3d6000fd5b505050506040513d601f19601f82011682018060405250810190613ecb9190614dd5565b1015613ee95760405162461bcd60e51b815260040161087a9061547e565b6040516370a0823160e01b815283906001600160a01b038316906370a0823190613f17903390600401614eaa565b60206040518083038186803b158015613f2f57600080fd5b505afa158015613f43573d6000803e3d6000fd5b505050506040513d601f19601f82011682018060405250810190613f679190614dd5565b1015613f855760405162461bcd60e51b815260040161087a9061555a565b6040516323b872dd60e01b81526001600160a01b038216906323b872dd90613fb590339030908890600401614ed8565b602060405180830381600087803b158015613fcf57600080fd5b505af1158015613fe3573d6000803e3d6000fd5b505050506040513d601f19601f820116820180604052508101906140079190614a92565b6118e05760405162461bcd60e51b815260040161087a90615591565b6001600160a01b038316301415614043576072546001600160a01b031692505b6001607454600160a01b900460ff16600281111561407157634e487b7160e01b600052602160045260246000fd5b1415614082576118d183838361466e565b6000607454600160a01b900460ff1660028111156140b057634e487b7160e01b600052602160045260246000fd5b14156140c0576118d18383614768565b60008160028111156140e257634e487b7160e01b600052602160045260246000fd5b14156140f2576118d18383614768565b6118e083838361466e565b6000607a54607954607854614112919061594e565b61411c919061594e565b90506000818460785461412f9190615a2b565b6141399190615994565b905060008285607a5461414c9190615a2b565b6141569190615994565b9050600083866079546141699190615a2b565b6141739190615994565b6074546040517fd216ce6f0000000000000000000000000000000000000000000000000000000081529192506000916001600160a01b039091169063d216ce6f906141c2903390600401614eaa565b602060405180830381600087803b1580156141dc57600080fd5b505af11580156141f0573d6000803e3d6000fd5b505050506040513d601f19601f82011682018060405250810190614214919061497a565b90506001600160a01b03811661423657506073546001600160a01b0316614259565b600061424182614808565b905080614257576073546001600160a01b031691505b505b336001600160a01b0316816001600160a01b03167fd70cba18a38225933834c13768dd7dd18ec4517ed15837a30adebe1c199f8c96868960405161429e9291906158d6565b60405180910390a36142b1818588614023565b6000606b60008b60028111156142d757634e487b7160e01b600052602160045260246000fd5b60028111156142f657634e487b7160e01b600052602160045260246000fd5b8152602081019190915260409081016000205490517fd48e638a0000000000000000000000000000000000000000000000000000000081526001600160a01b039091169063d48e638a9061434e908c906004016158bd565b60206040518083038186803b15801561436657600080fd5b505afa15801561437a573d6000803e3d6000fd5b505050506040513d601f19601f8201168201806040525081019061439e919061497a565b90506001600160a01b0381166143bc57506072546001600160a01b03165b6143c7818489614023565b6073546143de906001600160a01b03168589614023565b50505050505050505050565b3390565b60008083600281111561441157634e487b7160e01b600052602160045260246000fd5b148061443c5750600183600281111561443a57634e487b7160e01b600052602160045260246000fd5b145b6144585760405162461bcd60e51b815260040161087a906154ec565b600083600281111561447a57634e487b7160e01b600052602160045260246000fd5b141561457a576000606b60008560028111156144a657634e487b7160e01b600052602160045260246000fd5b60028111156144c557634e487b7160e01b600052602160045260246000fd5b8152602081019190915260409081016000205490516321d8011160e01b81526001600160a01b03909116906321d80111906145049086906004016158bd565b60006040518083038186803b15801561451c57600080fd5b505afa158015614530573d6000803e3d6000fd5b505050506040513d6000823e601f3d908101601f191682016040526145589190810190614c86565b50505061ffff166000908152607b60205260409020549450612e249350505050565b6000606b60008560028111156145a057634e487b7160e01b600052602160045260246000fd5b60028111156145bf57634e487b7160e01b600052602160045260246000fd5b815260208101919091526040908101600020549051633129e77360e01b81526001600160a01b0390911690633129e773906145fe9086906004016158bd565b60a06040518083038186803b15801561461657600080fd5b505afa15801561462a573d6000803e3d6000fd5b505050506040513d601f19601f8201168201806040525081019061464e9190614e58565b50505061ffff166000908152607d60205260409020549250612e24915050565b600281600281111561469057634e487b7160e01b600052602160045260246000fd5b14156147365760685460405163a9059cbb60e01b81526001600160a01b039091169063a9059cbb906146c89086908690600401614f76565b602060405180830381600087803b1580156146e257600080fd5b505af11580156146f6573d6000803e3d6000fd5b505050506040513d601f19601f8201168201806040525081019061471a9190614a92565b6118d15760405162461bcd60e51b815260040161087a906151fb565b60675460405163a9059cbb60e01b81526001600160a01b039091169063a9059cbb90613fb59086908690600401614f76565b60665460405163a9059cbb60e01b81526001600160a01b039091169063a9059cbb9061479a9085908590600401614f76565b602060405180830381600087803b1580156147b457600080fd5b505af11580156147c8573d6000803e3d6000fd5b505050506040513d601f19601f820116820180604052508101906147ec9190614a92565b611c585760405162461bcd60e51b815260040161087a90615156565b6075546040517f307a22a20000000000000000000000000000000000000000000000000000000081526000916001600160a01b03169063307a22a290614852908590600401614eaa565b60206040518083038186803b15801561486a57600080fd5b505afa15801561487e573d6000803e3d6000fd5b505050506040513d601f19601f82011682018060405250810190612e249190614a92565b600082601f8301126148b2578081fd5b815167ffffffffffffffff808211156148cd576148cd615ae3565b6040516020601f8401601f19168201810183811183821017156148f2576148f2615ae3565b6040528382528584018101871015614908578485fd5b8492505b83831015614929578583018101518284018201529182019161490c565b8383111561493957848185840101525b5095945050505050565b805163ffffffff8116811461085157600080fd5b600060208284031215614968578081fd5b813561497381615b17565b9392505050565b60006020828403121561498b578081fd5b815161497381615b17565b600080600080600080600080610100898b0312156149b2578384fd5b88356149bd81615b17565b975060208901356149cd81615b17565b965060408901356149dd81615b17565b955060608901356149ed81615b17565b945060808901356149fd81615b17565b935060a0890135614a0d81615b17565b925060c0890135614a1d81615b17565b915060e0890135614a2d81615b17565b809150509295985092959890939650565b60008060408385031215614a50578182fd5b8235614a5b81615b17565b91506020830135614a6b81615b2c565b809150509250929050565b600060208284031215614a87578081fd5b813561497381615b2c565b600060208284031215614aa3578081fd5b815161497381615b2c565b600060208284031215614abf578081fd5b81357fffffffff0000000000000000000000000000000000000000000000000000000081168114614973578182fd5b600060208284031215614aff578081fd5b813561497381615b3a565b60008060408385031215614b1c578182fd5b8235614b2781615b3a565b91506020830135614a6b81615b47565b600080600060608486031215614b4b578081fd5b8335614b5681615b3a565b92506020840135614b6681615b47565b91506040840135614b7681615b3a565b809150509250925092565b600080600060608486031215614b95578081fd5b8335614ba081615b3a565b92506020840135614bb081615b47565b929592945050506040919091013590565b60008060408385031215614bd3578182fd5b8235614bde81615b3a565b946020939093013593505050565b600080600060608486031215614c00578081fd5b8335614c0b81615b3a565b9250602084013591506040840135614b7681615b3a565b600080600080600080600060e0888a031215614c3c578081fd5b873560028110614c4a578182fd5b96506020880135614c5a81615b3a565b96999698505050506040850135946060810135946080820135945060a0820135935060c0909101359150565b600080600080600080600060e0888a031215614ca0578081fd5b875167ffffffffffffffff80821115614cb7578283fd5b614cc38b838c016148a2565b985060208a0151915080821115614cd8578283fd5b614ce48b838c016148a2565b975060408a0151915080821115614cf9578283fd5b50614d068a828b016148a2565b9550506060880151614d1781615b47565b608089015160a08a01519195509350614d2f81615b57565b9150614d3d60c08901614943565b905092959891949750929550565b600060208284031215614d5c578081fd5b813561497381615b47565b600060208284031215614d78578081fd5b815161497381615b47565b60008060408385031215614d95578182fd5b8235614a5b81615b47565b60008060408385031215614db2578182fd5b8235614bde81615b47565b600060208284031215614dce578081fd5b5035919050565b600060208284031215614de6578081fd5b5051919050565b60008060408385031215614dff578182fd5b823591506020830135614a6b81615b2c565b600080600060608486031215614e25578081fd5b505081359360208301359350604090920135919050565b600060208284031215614e4d578081fd5b813561497381615b57565b600080600080600060a08688031215614e6f578283fd5b8551614e7a81615b57565b6020870151909550614e8b81615b47565b6040870151606088015160809098015196999198509695945092505050565b6001600160a01b0391909116815260200190565b6001600160a01b0392831681529116602082015260400190565b6001600160a01b039384168152919092166020820152604081019190915260600190565b6001600160a01b039290921682521515602082015260400190565b6001600160a01b0395909516855260ff93909316602085015261ffff9190911660408401526060830152608082015260a00190565b6001600160a01b0394909416845261ffff9290921660208401526040830152606082015260800190565b6001600160a01b03929092168252602082015260400190565b6001600160a01b03959095168552602085019390935260408401919091526060830152608082015260a00190565b6001600160a01b03979097168752602087019590955260408601939093526060850191909152608084015260a0830152151560c082015260e00190565b901515815260200190565b6080810161501286615af9565b85825261501e85615af9565b84602083015283604083015261503383615af9565b82606083015295945050505050565b6060810161504f85615af9565b93815261ffff92909216602083015260409091015290565b6020810161507483615af9565b91905290565b6020808252600f908201527f636c617373496420696e76616c69640000000000000000000000000000000000604082015260600190565b60208082526014908201527f5061757361626c653a206e6f7420706175736564000000000000000000000000604082015260600190565b6020808252600c908201527f6865726f20696e76616c69640000000000000000000000000000000000000000604082015260600190565b6020808252600f908201527f496e76616c696420616464726573730000000000000000000000000000000000604082015260600190565b60208082526015908201527f7472616e7366657220746f6b656e206661696c65640000000000000000000000604082015260600190565b6020808252600c908201527f6974656d20696e76616c69640000000000000000000000000000000000000000604082015260600190565b60208082526010908201527f6f72646572206e6f742072656e74656400000000000000000000000000000000604082015260600190565b60208082526014908201527f7472616e736665722075736474206661696c6564000000000000000000000000604082015260600190565b6020808252600a908201527f6e6f742061637469766500000000000000000000000000000000000000000000604082015260600190565b60208082526015908201527f706c656173652077616974206d6f72652074696d650000000000000000000000604082015260600190565b60208082526015908201527f6e6f20616374697665206f7264657220666f756e640000000000000000000000604082015260600190565b6020808252601b908201527f72656e74696e67206475726174696f6e20697320696e76616c69640000000000604082015260600190565b60208082526008908201527f736f6c64206f7574000000000000000000000000000000000000000000000000604082015260600190565b60208082526010908201527f5061757361626c653a2070617573656400000000000000000000000000000000604082015260600190565b60208082526011908201527f7265676973746572207265717569726564000000000000000000000000000000604082015260600190565b6020808252602e908201527f496e697469616c697a61626c653a20636f6e747261637420697320616c72656160408201527f647920696e697469616c697a6564000000000000000000000000000000000000606082015260800190565b6020808252600d908201527f6f6e6c794d61696e41646d696e00000000000000000000000000000000000000604082015260600190565b60208082526013908201527f6475726174696f6e20697320696e76616c696400000000000000000000000000604082015260600190565b6020808252601a908201527f706c6561736520617070726f7665206275736474206669727374000000000000604082015260600190565b60208082526018908201527f7061796d656e742063757272656e637920696e76616c69640000000000000000604082015260600190565b6020808252600c908201527f696e76616c6964206b696e640000000000000000000000000000000000000000604082015260600190565b60208082526014908201527f7472616e7366657220666f7461206661696c6564000000000000000000000000604082015260600190565b60208082526014908201527f696e73756666696369656e742062616c616e6365000000000000000000000000604082015260600190565b60208082526014908201527f7472616e736665722062757364206661696c6564000000000000000000000000604082015260600190565b6020808252600b908201527f6974656d206c6f636b6564000000000000000000000000000000000000000000604082015260600190565b6020808252600e908201527f6865726f206e6f742076616c6964000000000000000000000000000000000000604082015260600190565b60208082526018908201527f706c656173652066756e6420796f7572206163636f756e740000000000000000604082015260600190565b60208082526010908201527f707269636520697320746f6f206c6f7700000000000000000000000000000000604082015260600190565b60208082526014908201527f77726f6e67207061796d656e74206d6574686f64000000000000000000000000604082015260600190565b6020808252600b908201527f6865726f206c6f636b6564000000000000000000000000000000000000000000604082015260600190565b60208082526014908201527f63616e206e6f742062757920796f757273656c66000000000000000000000000604082015260600190565b6020808252600e908201527f6974656d206e6f742076616c6964000000000000000000000000000000000000604082015260600190565b6020808252600d908201527f6c6576656c20696e76616c696400000000000000000000000000000000000000604082015260600190565b60208082526019908201527f706c6561736520617070726f766520666f746120666972737400000000000000604082015260600190565b60208082526009908201527f6e6f74206f776e65720000000000000000000000000000000000000000000000604082015260600190565b60208082526016908201527f706c656173652073657420707269636520666972737400000000000000000000604082015260600190565b6020808252600b908201527f75736572206c6f636b6564000000000000000000000000000000000000000000604082015260600190565b61ffff9290921682521515602082015260400190565b61ffff929092168252602082015260400190565b90815260200190565b9182521515602082015260400190565b828152604081016158e683615af9565b8260208301529392505050565b918252602082015260400190565b60ff91909116815260200190565b6000808212826001600160ff1b030384138115161561593057615930615ab7565b82600160ff1b03841281161561594857615948615ab7565b50500190565b6000821982111561596157615961615ab7565b500190565b60008261597557615975615acd565b600160ff1b82146000198414161561598f5761598f615ab7565b500590565b6000826159a3576159a3615acd565b500490565b60006001600160ff1b03818413828413858304851182821616156159ce576159ce615ab7565b600160ff1b848712868205881281841616156159ec576159ec615ab7565b858712925087820587128484161615615a0757615a07615ab7565b87850587128184161615615a1d57615a1d615ab7565b505050929093029392505050565b6000816000190483118215151615615a4557615a45615ab7565b500290565b600080831283600160ff1b01831281151615615a6857615a68615ab7565b836001600160ff1b03018313811615615a8357615a83615ab7565b50500390565b600082821015615a9b57615a9b615ab7565b500390565b600081615aaf57615aaf615ab7565b506000190190565b634e487b7160e01b600052601160045260246000fd5b634e487b7160e01b600052601260045260246000fd5b634e487b7160e01b600052604160045260246000fd5b600381106119b757634e487b7160e01b600052602160045260246000fd5b6001600160a01b03811681146119b757600080fd5b80151581146119b757600080fd5b600381106119b757600080fd5b61ffff811681146119b757600080fd5b60ff811681146119b757600080fdfea26469706673582212201ff8bcf2b774173d5eaa4bd224f965018d696bbafa7687ac85e03977ebb20efa64736f6c63430008000033",
  "immutableReferences": {},
  "source": "// SPDX-License-Identifier: GPL\n\npragma solidity 0.8.0;\n\nimport \"@openzeppelin/contracts-upgradeable/security/PausableUpgradeable.sol\";\nimport \"@openzeppelin/contracts-upgradeable/token/ERC721/IERC721Upgradeable.sol\";\nimport \"./libs/zeppelin/token/BEP20/IBEP20.sol\";\nimport \"./interfaces/IGameNFT.sol\";\nimport \"./interfaces/ICitizen.sol\";\nimport \"./interfaces/IMarketPlace.sol\";\nimport \"./interfaces/IFOTAGame.sol\";\nimport \"./interfaces/IFOTAPricer.sol\";\nimport \"./interfaces/IEatherTransporter.sol\";\nimport \"./libs/fota/Auth.sol\";\n\ncontract MarketPlace is Auth, PausableUpgradeable {\n  struct Order {\n    address maker;\n    uint startingPrice;\n    uint endingPrice;\n    uint auctionDuration;\n    uint rentingDuration;\n    uint activatedAt;\n    bool rented;\n  }\n  IBEP20 public fotaToken;\n  IBEP20 public busdToken;\n  IBEP20 public usdtToken;\n  mapping (IMarketPlace.OrderKind => mapping (uint => Order)) public tradingOrders;\n  mapping (IMarketPlace.OrderKind => mapping (uint => Order)) public rentingOrders;\n  mapping (IMarketPlace.OrderKind => IGameNFT) public nftTokens;\n  mapping (address => bool) public lockedUser;\n  mapping (uint16 => bool) public lockedHeroClassId;\n  mapping (uint16 => bool) public lockedItemClassId;\n  mapping (uint => bool) public lockedHeroNFTId;\n  mapping (uint => bool) public lockedItemNFTId;\n  mapping (IMarketPlace.OrderKind => mapping(uint16 => uint)) public remainingSale;\n  address public fundAdmin;\n  address public treasuryAddress;\n  ICitizen public citizen;\n  IMarketPlace.PaymentType public paymentType;\n  IFOTAGame public gameProxyContract;\n  IFOTAPricer public fotaPricer;\n  IEatherTransporter public eatherTransporter;\n  uint public referralShare; // decimal 3\n  uint public creativeShare; // decimal 3\n  uint public treasuryShare; // decimal 3\n  mapping(uint16 => uint) public heroPrices;\n  mapping(uint16 => uint) public heroMinPrices;\n  mapping(uint16 => uint) public itemPrices;\n  mapping(uint16 => uint) public itemMinPrices;\n  uint public minLevel;\n  uint public minGene;\n\n  event RemainingSaleUpdated(\n    IMarketPlace.OrderKind kind,\n    uint16 classId,\n    uint remainingSale\n  );\n  event OrderCreated(\n    IMarketPlace.OrderType indexed orderType,\n    IMarketPlace.OrderKind indexed orderKind,\n    uint indexed tokenId,\n    address maker,\n    uint startingPrice,\n    uint endingPrice,\n    uint auctionDuration,\n    uint rentingDuration\n  );\n  event OrderCanceled(\n    IMarketPlace.OrderType indexed orderType,\n    IMarketPlace.OrderKind indexed orderKind,\n    uint indexed tokenId\n  );\n  event OrderCanceledByAdmin(\n    IMarketPlace.OrderKind indexed orderKind,\n    uint indexed tokenId\n  );\n  event OrderTaken(\n    IMarketPlace.OrderKind orderKind,\n    IMarketPlace.OrderType indexed orderType,\n    uint indexed tokenId,\n    address indexed taker,\n    IMarketPlace.PaymentType paymentType,\n    uint amount,\n    IMarketPlace.PaymentCurrency paymentCurrency\n  );\n  event FoundingOrderTaken(\n    IMarketPlace.OrderKind kind,\n    uint indexed tokenId,\n    address indexed taker,\n    IMarketPlace.PaymentType paymentType,\n    uint amount,\n    IMarketPlace.PaymentCurrency paymentCurrency\n  );\n  event OrderCompleted(\n    IMarketPlace.OrderKind indexed orderKind,\n    uint indexed tokenId\n  );\n  event MinLevelChanged(\n    uint8 minLevel\n  );\n  event MinGeneChanged(\n    uint8 minGene\n  );\n  event PaymentTypeChanged(\n    IMarketPlace.PaymentType newMethod\n  );\n  event UserLocked(\n    address user,\n    bool locked\n  );\n  event HeroClassIdLocked(\n    uint16 classId,\n    bool locked\n  );\n  event HeroNFTLocked(\n    uint id,\n    bool locked\n  );\n  event ItemClassIdLocked(\n    uint16 classId,\n    bool locked\n  );\n  event ItemNFTLocked(\n    uint id,\n    bool locked\n  );\n  event HeroPriceUpdated(uint16 class, uint price);\n  event HeroMinPriceUpdated(uint16 class, uint price);\n  event ItemPriceUpdated(uint16 class, uint price);\n  event ItemMinPriceUpdated(uint16 class, uint price);\n  event ReferralSent(\n    address indexed inviter,\n    address indexed invitee,\n    uint referralSharingAmount,\n    IMarketPlace.PaymentCurrency paymentCurrency\n  );\n\n  function initialize(\n    address _mainAdmin,\n    address _citizen,\n    IGameNFT _heroNFTToken,\n    IGameNFT _itemNFTToken,\n    IGameNFT _landNFTToken,\n    address _treasuryAddress,\n    address _fotaPricer,\n    address _eatherTransporter\n  ) public initializer {\n    Auth.initialize(_mainAdmin);\n    fundAdmin = _mainAdmin;\n    treasuryAddress = _treasuryAddress;\n    citizen = ICitizen(_citizen);\n    nftTokens[IMarketPlace.OrderKind.hero] = _heroNFTToken;\n    nftTokens[IMarketPlace.OrderKind.item] = _itemNFTToken;\n    nftTokens[IMarketPlace.OrderKind.land] = _landNFTToken;\n    fotaPricer = IFOTAPricer(_fotaPricer);\n    eatherTransporter = IEatherTransporter(_eatherTransporter);\n    fotaToken = IBEP20(0x0A4E1BdFA75292A98C15870AeF24bd94BFFe0Bd4);\n    busdToken = IBEP20(0xe9e7CEA3DedcA5984780Bafc599bD69ADd087D56);\n    usdtToken = IBEP20(0x55d398326f99059fF775485246999027B3197955);\n  }\n\n  function makeOrder(\n    IMarketPlace.OrderType _type,\n    IMarketPlace.OrderKind _kind,\n    uint _tokenId,\n    uint _startPrice,\n    uint _endingPrice,\n    uint _auctionDuration,\n    uint _rentingDuration\n  ) public whenNotPaused {\n    _validateUser();\n    if (_kind == IMarketPlace.OrderKind.hero) {\n      _validateHero(_type, _kind, _tokenId, _startPrice, _endingPrice);\n    } else if (_kind == IMarketPlace.OrderKind.item) {\n      _validateItem(_type, _kind, _tokenId, _startPrice, _endingPrice);\n    }\n    if (_startPrice != _endingPrice) {\n      require(_auctionDuration >= 1 days && _auctionDuration <= 365 days, \"duration is invalid\");\n    }\n    if (_type == IMarketPlace.OrderType.renting) {\n      require(_rentingDuration >= 7 days && _rentingDuration <= 365 days, \"renting duration is invalid\");\n    }\n    require(nftTokens[_kind].ownerOf(_tokenId) == msg.sender, \"not owner\");\n    _transferNFTToken(_kind, msg.sender, address(this), _tokenId);\n    Order memory order = Order(\n      msg.sender,\n      _startPrice,\n      _endingPrice,\n      _auctionDuration,\n      _rentingDuration,\n      block.timestamp,\n      false\n    );\n    _type == IMarketPlace.OrderType.trading ? tradingOrders[_kind][_tokenId] = order : rentingOrders[_kind][_tokenId] = order;\n    emit OrderCreated(_type, _kind, _tokenId, msg.sender, _startPrice, _endingPrice, _auctionDuration, _rentingDuration);\n  }\n\n  function cancelOrder(IMarketPlace.OrderKind _kind, uint _tokenId) external whenNotPaused {\n    Order storage tradingOrder = tradingOrders[_kind][_tokenId];\n    if (_isActive(tradingOrder)) {\n      _cancelTradingOrder(_kind, _tokenId, tradingOrder);\n    } else {\n      _checkCancelRentingOrder(_kind, _tokenId);\n    }\n  }\n\n  function takeOrder(IMarketPlace.OrderKind _kind, uint _tokenId, IMarketPlace.PaymentCurrency _paymentCurrency) external whenNotPaused {\n    _validateTaker(_paymentCurrency);\n    uint16 _classId = nftTokens[_kind].getClassId(_tokenId);\n    if (_kind == IMarketPlace.OrderKind.hero) {\n      require(!lockedHeroNFTId[_tokenId], \"hero locked\");\n      require(!lockedHeroClassId[_classId], \"hero not valid\");\n    } else if (_kind == IMarketPlace.OrderKind.item) {\n      require(!lockedItemNFTId[_tokenId], \"item locked\");\n      require(!lockedItemClassId[_classId], \"item not valid\");\n    }\n    Order storage order = tradingOrders[_kind][_tokenId];\n    IMarketPlace.OrderType orderType = IMarketPlace.OrderType.trading;\n    if (!_isActive(order)) {\n      order = rentingOrders[_kind][_tokenId];\n      orderType = IMarketPlace.OrderType.renting;\n    }\n    require(_isActive(order), \"not active\");\n    require(order.maker != msg.sender, \"can not buy yourself\");\n    uint currentPrice = _getCurrentPrice(_kind, _paymentCurrency, order, _tokenId);\n    _takeFund(currentPrice, _paymentCurrency);\n    address maker = order.maker;\n    if (orderType == IMarketPlace.OrderType.trading) {\n      _removeTradingOrder(_kind, _tokenId);\n    } else {\n      _markRentingOrderAsRented(_kind, _tokenId);\n    }\n    if (currentPrice > 0) {\n      _releaseFund(_kind, maker, currentPrice, _tokenId, _paymentCurrency);\n    }\n    if (orderType == IMarketPlace.OrderType.trading) {\n      if (_isFotaPayment(_paymentCurrency)) {\n        nftTokens[_kind].updateOwnPrice(_tokenId, _convertFotaToUsd(currentPrice));\n      } else {\n        nftTokens[_kind].updateOwnPrice(_tokenId, currentPrice);\n      }\n      nftTokens[_kind].updateFailedUpgradingAmount(_tokenId, 0);\n      _transferNFTToken(_kind, address(this), msg.sender, _tokenId);\n    }\n    emit OrderTaken(_kind, orderType, _tokenId, msg.sender, paymentType, currentPrice, _paymentCurrency);\n  }\n\n  function takeFounding(IMarketPlace.OrderKind _kind, uint16 _classId, IMarketPlace.PaymentCurrency _paymentCurrency) external whenNotPaused {\n    require(remainingSale[_kind][_classId] > 0, \"sold out\");\n    remainingSale[_kind][_classId]--;\n    _validateTaker(_paymentCurrency);\n    uint currentPrice;\n    uint tokenId;\n    if (_kind == IMarketPlace.OrderKind.hero) {\n      currentPrice = heroPrices[_classId];\n      tokenId = nftTokens[_kind].mintHero(msg.sender, _classId, currentPrice, 0);\n    } else {\n      currentPrice = itemPrices[_classId];\n      tokenId = nftTokens[_kind].mintItem(msg.sender, 1, _classId, currentPrice, 0);\n    }\n    if (_isFotaPayment(_paymentCurrency)) {\n      currentPrice = currentPrice * 1000 / fotaPricer.fotaPrice();\n    }\n    require(currentPrice > 0, \"please set price first\");\n    _takeFund(currentPrice, _paymentCurrency);\n    _releaseFund(_kind, fundAdmin, currentPrice, tokenId, _paymentCurrency);\n    emit FoundingOrderTaken(_kind, tokenId, msg.sender, paymentType, currentPrice, _paymentCurrency);\n  }\n\n  function getNFTBack(IMarketPlace.OrderKind _kind, uint _tokenId) external whenNotPaused {\n    Order storage order = rentingOrders[_kind][_tokenId];\n    require(order.maker == msg.sender, \"not owner\");\n    require(order.rented, \"order not rented\");\n    require(block.timestamp >= order.activatedAt + order.rentingDuration, \"please wait more time\");\n    _removeRentingOrder(_kind, _tokenId);\n    _transferNFTToken(_kind, address(this), msg.sender, _tokenId);\n    emit OrderCompleted(_kind, _tokenId);\n  }\n\n  function supportsInterface(bytes4 interfaceId) public pure returns (bool) {\n    return interfaceId == type(IERC721Upgradeable).interfaceId;\n  }\n\n  // PRIVATE FUNCTIONS\n\n  function _convertFotaToUsd(uint _amount) private view returns (uint) {\n    return _amount * fotaPricer.fotaPrice() / 1000;\n  }\n\n  function _validateTaker(IMarketPlace.PaymentCurrency _paymentCurrency) private view {\n    _validatePaymentMethod(_paymentCurrency);\n    _validateUser();\n    require(citizen.isCitizen(msg.sender), \"register required\");\n  }\n\n  function _releaseFund(IMarketPlace.OrderKind _kind, address _maker, uint _currentPrice, uint _tokenId, IMarketPlace.PaymentCurrency _paymentCurrency) private {\n    uint sharingAmount = _currentPrice * (referralShare + creativeShare + treasuryShare) / 100000;\n    _transferFund(_maker, _currentPrice - sharingAmount, _paymentCurrency);\n    _shareOrderValue(_kind, _tokenId, sharingAmount, _paymentCurrency);\n  }\n\n  function _isFotaPayment(IMarketPlace.PaymentCurrency _paymentCurrency) private view returns (bool) {\n    return paymentType == IMarketPlace.PaymentType.fota || (paymentType == IMarketPlace.PaymentType.all && _paymentCurrency == IMarketPlace.PaymentCurrency.fota);\n  }\n\n  function _cancelTradingOrder(IMarketPlace.OrderKind _kind, uint _tokenId, Order storage _tradingOrder) private {\n    require(_tradingOrder.maker == msg.sender, \"not owner\");\n    _removeTradingOrder(_kind, _tokenId);\n    _transferNFTToken(_kind, address(this), msg.sender, _tokenId);\n    emit OrderCanceled(IMarketPlace.OrderType.trading, _kind, _tokenId);\n  }\n\n  function _checkCancelRentingOrder(IMarketPlace.OrderKind _kind, uint _tokenId) private {\n    Order storage rentingOrder = rentingOrders[_kind][_tokenId];\n    require(_isActive(rentingOrder), \"no active order found\");\n    require(rentingOrder.maker == msg.sender, \"not owner\");\n    _removeRentingOrder(_kind, _tokenId);\n    _transferNFTToken(_kind, address(this), msg.sender, _tokenId);\n    emit OrderCanceled(IMarketPlace.OrderType.renting, _kind, _tokenId);\n  }\n\n  function _isActive(Order storage _order) private view returns (bool) {\n    return _order.activatedAt > 0;\n  }\n\n  function _removeTradingOrder(IMarketPlace.OrderKind _kind, uint _tokenId) private {\n    delete tradingOrders[_kind][_tokenId];\n  }\n\n  function _markRentingOrderAsRented(IMarketPlace.OrderKind _kind, uint _tokenId) private {\n    rentingOrders[_kind][_tokenId].rented = true;\n    rentingOrders[_kind][_tokenId].activatedAt = block.timestamp;\n\t}\n  function _removeRentingOrder(IMarketPlace.OrderKind _kind, uint _tokenId) private {\n    delete rentingOrders[_kind][_tokenId];\n  }\n\n  function _getCurrentPrice(IMarketPlace.OrderKind _kind, IMarketPlace.PaymentCurrency _paymentCurrency, Order storage _order, uint _tokenId) private view returns (uint) {\n    uint currentPrice;\n\n    if (_order.maker == address(this)) {\n      currentPrice = _getPriceFromTokenId(_kind, _tokenId);\n    } else {\n      uint secondPassed;\n      if (block.timestamp > _order.activatedAt) {\n        secondPassed = block.timestamp - _order.activatedAt;\n      }\n      if (secondPassed >= _order.auctionDuration) {\n        currentPrice = _order.endingPrice;\n      } else {\n        int changedPrice = int(_order.endingPrice) - int(_order.startingPrice);\n        int currentPriceChange = changedPrice * int(secondPassed) / int(_order.auctionDuration);\n        int currentPriceInt = int(_order.startingPrice) + currentPriceChange;\n        currentPrice = uint(currentPriceInt);\n      }\n    }\n\n    return _paymentCurrency == IMarketPlace.PaymentCurrency.fota ? currentPrice * 1000 / fotaPricer.fotaPrice() : currentPrice;\n  }\n\n  function _getPriceFromTokenId(IMarketPlace.OrderKind _kind, uint _tokenId) private view returns (uint) {\n    require(_kind == IMarketPlace.OrderKind.hero || _kind == IMarketPlace.OrderKind.item, \"invalid kind\");\n    if (_kind == IMarketPlace.OrderKind.hero) {\n      (,,, uint16 class,,,) = nftTokens[_kind].getHero(_tokenId);\n      return heroPrices[class];\n    } else {\n      (, uint16 class,,,) = nftTokens[_kind].getItem(_tokenId);\n      return itemPrices[class];\n    }\n  }\n\n  function _takeFund(uint _amount, IMarketPlace.PaymentCurrency _paymentCurrency) private {\n    if (paymentType == IMarketPlace.PaymentType.fota) {\n      _takeFundFOTA(_amount);\n    } else if (paymentType == IMarketPlace.PaymentType.usd) {\n      _takeFundUSD(_amount, _paymentCurrency);\n    } else if (_paymentCurrency == IMarketPlace.PaymentCurrency.fota) {\n      _takeFundFOTA(_amount);\n    } else {\n      _takeFundUSD(_amount, _paymentCurrency);\n    }\n  }\n\n  function _takeFundUSD(uint _amount, IMarketPlace.PaymentCurrency _paymentCurrency) private {\n    require(_paymentCurrency != IMarketPlace.PaymentCurrency.fota, \"payment currency invalid\");\n    IBEP20 usdToken = _paymentCurrency == IMarketPlace.PaymentCurrency.busd ? busdToken : usdtToken;\n    require(usdToken.allowance(msg.sender, address(this)) >= _amount, \"please approve busdt first\");\n    require(usdToken.balanceOf(msg.sender) >= _amount, \"insufficient balance\");\n    require(usdToken.transferFrom(msg.sender, address(this), _amount), \"transfer busd failed\");\n  }\n\n  function _takeFundFOTA(uint _amount) private {\n    require(fotaToken.allowance(msg.sender, address(this)) >= _amount, \"please approve fota first\");\n    require(fotaToken.balanceOf(msg.sender) >= _amount, \"please fund your account\");\n    require(fotaToken.transferFrom(msg.sender, address(this), _amount), \"transfer fota failed\");\n  }\n\n  function _transferFund(address _receiver, uint _amount, IMarketPlace.PaymentCurrency _paymentCurrency) private {\n    if (_receiver == address(this)) {\n      _receiver = fundAdmin;\n    }\n    if (paymentType == IMarketPlace.PaymentType.usd) {\n      _transferFundUSD(_receiver, _amount, _paymentCurrency);\n    } else if (paymentType == IMarketPlace.PaymentType.fota) {\n      _transferFundFOTA(_receiver, _amount);\n    } else if (_paymentCurrency == IMarketPlace.PaymentCurrency.fota) {\n      _transferFundFOTA(_receiver, _amount);\n    } else {\n      _transferFundUSD(_receiver, _amount, _paymentCurrency);\n    }\n  }\n\n  function _transferFundUSD(address _receiver, uint _amount, IMarketPlace.PaymentCurrency _paymentCurrency) private {\n    if (_paymentCurrency == IMarketPlace.PaymentCurrency.usdt) {\n      require(usdtToken.transfer(_receiver, _amount), \"transfer usdt failed\");\n    } else {\n      require(busdToken.transfer(_receiver, _amount), \"transfer busd failed\");\n    }\n  }\n\n  function _transferFundFOTA(address _receiver, uint _amount) private {\n    require(fotaToken.transfer(_receiver, _amount), \"transfer token failed\");\n  }\n\n  function _transferNFTToken(IMarketPlace.OrderKind _kind, address _from, address _to, uint _tokenId) private {\n    nftTokens[_kind].transferFrom(_from, _to, _tokenId);\n  }\n\n  function _shareOrderValue(IMarketPlace.OrderKind _kind, uint _tokenId, uint _totalShareAmount, IMarketPlace.PaymentCurrency _paymentCurrency) private {\n    uint totalSharePercent = referralShare + creativeShare + treasuryShare;\n    uint referralSharingAmount = referralShare * _totalShareAmount / totalSharePercent;\n    uint treasurySharingAmount = treasuryShare * _totalShareAmount / totalSharePercent;\n    uint creativeSharingAmount = creativeShare * _totalShareAmount / totalSharePercent;\n    address inviter = citizen.getInviter(msg.sender);\n    if (inviter == address(0)) {\n      inviter = treasuryAddress;\n    } else {\n      bool validInviter = _validateInviter(inviter);\n      if (!validInviter) {\n        inviter = treasuryAddress;\n      }\n    }\n    emit ReferralSent(inviter, msg.sender, referralSharingAmount, _paymentCurrency);\n    _transferFund(inviter, referralSharingAmount, _paymentCurrency);\n\n    address creator = nftTokens[_kind].getCreator(_tokenId);\n    if (creator == address(0)) {\n      creator = fundAdmin;\n    }\n    _transferFund(creator, creativeSharingAmount, _paymentCurrency);\n\n    _transferFund(treasuryAddress, treasurySharingAmount, _paymentCurrency);\n  }\n\n  function _validateInviter(address _inviter) private view returns (bool) {\n    return gameProxyContract.validateInviter(_inviter);\n  }\n\n  function _validatePaymentMethod(IMarketPlace.PaymentCurrency _paymentCurrency) private view {\n    if (paymentType == IMarketPlace.PaymentType.fota) {\n      require(_paymentCurrency == IMarketPlace.PaymentCurrency.fota, \"wrong payment method\");\n    } else if (paymentType == IMarketPlace.PaymentType.usd) {\n      require(_paymentCurrency != IMarketPlace.PaymentCurrency.fota, \"wrong payment method\");\n    }\n  }\n\n  function _validateUser() private view {\n    require(!lockedUser[msg.sender], \"user locked\");\n  }\n\n  function _validateHero(IMarketPlace.OrderType _type, IMarketPlace.OrderKind _kind, uint _tokenId, uint _startPrice, uint _endingPrice) private view {\n    (,,,uint16 _id,, uint8 level,) = nftTokens[_kind].getHero(_tokenId);\n    require(level >= minLevel, \"level invalid\");\n    require(!lockedHeroClassId[_id], \"hero invalid\");\n    require(!lockedHeroNFTId[_tokenId], \"hero locked\");\n\n    if (_type == IMarketPlace.OrderType.trading) {\n      require(_startPrice >= heroMinPrices[_id] && _endingPrice >= heroMinPrices[_id], \"price is too low\");\n    }\n  }\n\n  function _validateItem(IMarketPlace.OrderType _type, IMarketPlace.OrderKind _kind, uint _tokenId, uint _startPrice, uint _endingPrice) private view {\n    (uint gene, uint16 _class,,,) = nftTokens[_kind].getItem(_tokenId);\n    if (eatherTransporter.openEather()) {\n      require(gene == 0 || gene >= minGene, \"item invalid\");\n    } else {\n      require(gene >= minGene, \"item invalid\");\n    }\n    require(!lockedItemClassId[_class], \"item invalid\");\n    require(!lockedItemNFTId[_tokenId], \"item locked\");\n\n    if (_type == IMarketPlace.OrderType.trading) {\n      require(_startPrice >= itemMinPrices[_class] && _endingPrice >= itemMinPrices[_class], \"price is too low\");\n    }\n  }\n\n  // ADMIN FUNCTIONS\n\n  function setMinLevel(uint8 _minLevel) external onlyMainAdmin {\n    require(_minLevel <= 25);\n    minLevel = _minLevel;\n    emit MinLevelChanged(_minLevel);\n  }\n\n  function setMinGene(uint8 _minGene) external onlyMainAdmin {\n    minGene = _minGene;\n    emit MinGeneChanged(_minGene);\n  }\n\n  function updatePaymentType(IMarketPlace.PaymentType _type) external onlyMainAdmin {\n    paymentType = _type;\n    emit PaymentTypeChanged(_type);\n  }\n\n  function adminCancelOrder(IMarketPlace.OrderKind _kind, uint _tokenId) external onlyMainAdmin {\n    Order storage tradingOrder = tradingOrders[_kind][_tokenId];\n    address maker;\n    if (_isActive(tradingOrder)) {\n      maker = tradingOrder.maker;\n      _removeTradingOrder(_kind, _tokenId);\n      _transferNFTToken(_kind, address(this), maker, _tokenId);\n    } else {\n      Order storage rentingOrder = rentingOrders[_kind][_tokenId];\n      require(_isActive(rentingOrder));\n      maker = rentingOrder.maker;\n      _removeRentingOrder(_kind, _tokenId);\n      _transferNFTToken(_kind, address(this), maker, _tokenId);\n    }\n    emit OrderCanceledByAdmin(_kind, _tokenId);\n  }\n\n  function updateLockUserStatus(address _user, bool _locked) external onlyMainAdmin {\n    lockedUser[_user] = _locked;\n    emit UserLocked(_user, _locked);\n  }\n\n  function updateLockHeroStatus(uint16 _id, bool _locked) external onlyMainAdmin {\n    lockedHeroClassId[_id] = _locked;\n    emit HeroClassIdLocked(_id, _locked);\n  }\n\n  function updateLockHeroNFTIdStatus(uint _id, bool _locked) external onlyMainAdmin {\n    lockedHeroNFTId[_id] = _locked;\n    emit HeroNFTLocked(_id, _locked);\n  }\n\n  function updateLockItemStatus(uint16 _id, bool _locked) external onlyMainAdmin {\n    lockedItemClassId[_id] = _locked;\n    emit ItemClassIdLocked(_id, _locked);\n  }\n\n  function updateLockItemNFTIdStatus(uint _id, bool _locked) external onlyMainAdmin {\n    lockedItemNFTId[_id] = _locked;\n    emit ItemNFTLocked(_id, _locked);\n  }\n\n  function setShares(uint _referralShare, uint _creatorShare, uint _treasuryShare) external onlyMainAdmin {\n    require(_referralShare > 0 && _referralShare <= 10000);\n    referralShare = _referralShare;\n    require(_creatorShare > 0 && _creatorShare <= 10000);\n    creativeShare = _creatorShare;\n    require(_treasuryShare > 0 && _treasuryShare <= 10000);\n    treasuryShare = _treasuryShare;\n  }\n\n  function updateFundAdmin(address _address) external onlyMainAdmin {\n    require(_address != address(0));\n    fundAdmin = _address;\n  }\n\n  function updateHeroPrice(uint16 _class, uint _price) external onlyMainAdmin {\n    heroPrices[_class] = _price;\n    emit HeroPriceUpdated(_class, _price);\n  }\n\n  function updateHeroMinPrice(uint16 _class, uint _price) external onlyMainAdmin {\n    heroMinPrices[_class] = _price;\n    emit HeroMinPriceUpdated(_class, _price);\n  }\n\n  function updateItemPrice(uint16 _class, uint _price) external onlyMainAdmin {\n    itemPrices[_class] = _price;\n    emit ItemPriceUpdated(_class, _price);\n  }\n\n  function updateItemMinPrice(uint16 _class, uint _price) external onlyMainAdmin {\n    itemMinPrices[_class] = _price;\n    emit ItemMinPriceUpdated(_class, _price);\n  }\n\n  function setGameContract(address _gameProxy) external onlyMainAdmin {\n    gameProxyContract = IFOTAGame(_gameProxy);\n  }\n\n  function setEatherTransporter(address _eatherTransporter) external onlyMainAdmin {\n    eatherTransporter = IEatherTransporter(_eatherTransporter);\n  }\n\n  function setFOTAPricer(address _fotaPricer) external onlyMainAdmin {\n    fotaPricer = IFOTAPricer(_fotaPricer);\n  }\n\n  function updatePauseStatus(bool _paused) external onlyMainAdmin {\n    if(_paused) {\n      _pause();\n    } else {\n      _unpause();\n    }\n  }\n\n  function setRemainingSale(IMarketPlace.OrderKind _kind, uint16 _classId, uint _remainingSale) external onlyMainAdmin {\n    if (_kind == IMarketPlace.OrderKind.hero) {\n      uint16 totalId = nftTokens[_kind].countId();\n      require(_classId <= totalId, \"classId invalid\");\n    }\n    remainingSale[_kind][_classId] = _remainingSale;\n    emit RemainingSaleUpdated(_kind, _classId, _remainingSale);\n  }\n\n  function addLandContract(address _land) external onlyMainAdmin {\n    require(_land != address(0), \"Invalid address\");\n    nftTokens[IMarketPlace.OrderKind.land] = IGameNFT(_land);\n  }\n}\n",
  "sourcePath": "/Users/binh/Documents/Development/Solidity/fota-dapp/contracts/MarketPlace.sol",
  "compiler": {
    "name": "solc",
    "version": "0.8.0+commit.c7dfd78e.Emscripten.clang"
  },
  "schemaVersion": "3.3.4",
  "updatedAt": "2022-01-05T07:37:06.243Z",
  "networkType": "ethereum",
  "devdoc": {
    "kind": "dev",
    "methods": {
      "paused()": {
        "details": "Returns true if the contract is paused, and false otherwise."
      }
    },
    "version": 1
  },
  "userdoc": {
    "kind": "user",
    "methods": {},
    "version": 1
  }
}