{
  "contractName": "MUSDTToken",
  "abi": [
    {
      "inputs": [],
      "stateMutability": "nonpayable",
      "type": "constructor"
    },
    {
      "anonymous": false,
      "inputs": [
        {
          "indexed": true,
          "internalType": "address",
          "name": "owner",
          "type": "address"
        },
        {
          "indexed": true,
          "internalType": "address",
          "name": "spender",
          "type": "address"
        },
        {
          "indexed": false,
          "internalType": "uint256",
          "name": "value",
          "type": "uint256"
        }
      ],
      "name": "Approval",
      "type": "event"
    },
    {
      "anonymous": false,
      "inputs": [
        {
          "indexed": true,
          "internalType": "address",
          "name": "from",
          "type": "address"
        },
        {
          "indexed": true,
          "internalType": "address",
          "name": "to",
          "type": "address"
        },
        {
          "indexed": false,
          "internalType": "uint256",
          "name": "value",
          "type": "uint256"
        }
      ],
      "name": "Transfer",
      "type": "event"
    },
    {
      "inputs": [],
      "name": "decimals",
      "outputs": [
        {
          "internalType": "uint256",
          "name": "",
          "type": "uint256"
        }
      ],
      "stateMutability": "view",
      "type": "function"
    },
    {
      "inputs": [
        {
          "internalType": "address",
          "name": "",
          "type": "address"
        }
      ],
      "name": "lastReleaseAdvisorBlocks",
      "outputs": [
        {
          "internalType": "uint256",
          "name": "",
          "type": "uint256"
        }
      ],
      "stateMutability": "view",
      "type": "function"
    },
    {
      "inputs": [
        {
          "internalType": "address",
          "name": "",
          "type": "address"
        }
      ],
      "name": "lastReleaseFounderBlocks",
      "outputs": [
        {
          "internalType": "uint256",
          "name": "",
          "type": "uint256"
        }
      ],
      "stateMutability": "view",
      "type": "function"
    },
    {
      "inputs": [],
      "name": "lastReleaseLiquidityPoolBlock",
      "outputs": [
        {
          "internalType": "uint256",
          "name": "",
          "type": "uint256"
        }
      ],
      "stateMutability": "view",
      "type": "function"
    },
    {
      "inputs": [],
      "name": "lastReleaseMarketingBlock",
      "outputs": [
        {
          "internalType": "uint256",
          "name": "",
          "type": "uint256"
        }
      ],
      "stateMutability": "view",
      "type": "function"
    },
    {
      "inputs": [],
      "name": "maxSupply",
      "outputs": [
        {
          "internalType": "uint256",
          "name": "",
          "type": "uint256"
        }
      ],
      "stateMutability": "view",
      "type": "function"
    },
    {
      "inputs": [],
      "name": "name",
      "outputs": [
        {
          "internalType": "string",
          "name": "",
          "type": "string"
        }
      ],
      "stateMutability": "view",
      "type": "function"
    },
    {
      "inputs": [],
      "name": "symbol",
      "outputs": [
        {
          "internalType": "string",
          "name": "",
          "type": "string"
        }
      ],
      "stateMutability": "view",
      "type": "function"
    },
    {
      "inputs": [],
      "name": "totalSupply",
      "outputs": [
        {
          "internalType": "uint256",
          "name": "",
          "type": "uint256"
        }
      ],
      "stateMutability": "view",
      "type": "function"
    },
    {
      "inputs": [
        {
          "internalType": "address",
          "name": "_owner",
          "type": "address"
        }
      ],
      "name": "balanceOf",
      "outputs": [
        {
          "internalType": "uint256",
          "name": "",
          "type": "uint256"
        }
      ],
      "stateMutability": "view",
      "type": "function"
    },
    {
      "inputs": [
        {
          "internalType": "address",
          "name": "_owner",
          "type": "address"
        },
        {
          "internalType": "address",
          "name": "_spender",
          "type": "address"
        }
      ],
      "name": "allowance",
      "outputs": [
        {
          "internalType": "uint256",
          "name": "",
          "type": "uint256"
        }
      ],
      "stateMutability": "view",
      "type": "function"
    },
    {
      "inputs": [
        {
          "internalType": "address",
          "name": "_to",
          "type": "address"
        },
        {
          "internalType": "uint256",
          "name": "_value",
          "type": "uint256"
        }
      ],
      "name": "transfer",
      "outputs": [
        {
          "internalType": "bool",
          "name": "",
          "type": "bool"
        }
      ],
      "stateMutability": "nonpayable",
      "type": "function"
    },
    {
      "inputs": [
        {
          "internalType": "address",
          "name": "_spender",
          "type": "address"
        },
        {
          "internalType": "uint256",
          "name": "_value",
          "type": "uint256"
        }
      ],
      "name": "approve",
      "outputs": [
        {
          "internalType": "bool",
          "name": "",
          "type": "bool"
        }
      ],
      "stateMutability": "nonpayable",
      "type": "function"
    },
    {
      "inputs": [
        {
          "internalType": "address",
          "name": "_from",
          "type": "address"
        },
        {
          "internalType": "address",
          "name": "_to",
          "type": "address"
        },
        {
          "internalType": "uint256",
          "name": "_value",
          "type": "uint256"
        }
      ],
      "name": "transferFrom",
      "outputs": [
        {
          "internalType": "bool",
          "name": "",
          "type": "bool"
        }
      ],
      "stateMutability": "nonpayable",
      "type": "function"
    },
    {
      "inputs": [
        {
          "internalType": "address",
          "name": "_spender",
          "type": "address"
        },
        {
          "internalType": "uint256",
          "name": "_addedValue",
          "type": "uint256"
        }
      ],
      "name": "increaseAllowance",
      "outputs": [
        {
          "internalType": "bool",
          "name": "",
          "type": "bool"
        }
      ],
      "stateMutability": "nonpayable",
      "type": "function"
    },
    {
      "inputs": [
        {
          "internalType": "address",
          "name": "_spender",
          "type": "address"
        },
        {
          "internalType": "uint256",
          "name": "_subtractedValue",
          "type": "uint256"
        }
      ],
      "name": "decreaseAllowance",
      "outputs": [
        {
          "internalType": "bool",
          "name": "",
          "type": "bool"
        }
      ],
      "stateMutability": "nonpayable",
      "type": "function"
    },
    {
      "inputs": [
        {
          "internalType": "uint256",
          "name": "_amount",
          "type": "uint256"
        }
      ],
      "name": "burn",
      "outputs": [],
      "stateMutability": "nonpayable",
      "type": "function"
    },
    {
      "inputs": [
        {
          "internalType": "address",
          "name": "_owner",
          "type": "address"
        },
        {
          "internalType": "uint256",
          "name": "_amount",
          "type": "uint256"
        }
      ],
      "name": "mint",
      "outputs": [],
      "stateMutability": "nonpayable",
      "type": "function"
    }
  ],
  "bytecode": "0x608060405234801561001057600080fd5b50610027336b024306c4097859c43c00000061002c565b61015c565b6b024306c4097859c43c000000816000546100479190610138565b111561006e5760405162461bcd60e51b815260040161006590610107565b60405180910390fd5b6001600160a01b038216600090815260056020526040902054610092908290610138565b6001600160a01b038316600090815260056020526040812091909155546100ba908290610138565b60009081556040516001600160a01b03841691907fddf252ad1be2c89b69c2b068fc378daa952ba7f163c4a11628f55a4df523b3ef906100fb90859061012f565b60405180910390a35050565b6020808252600e908201526d105b5bdd5b9d081a5b9d985b1a5960921b604082015260600190565b90815260200190565b6000821982111561015757634e487b7160e01b81526011600452602481fd5b500190565b6108ad8061016b6000396000f3fe608060405234801561001057600080fd5b50600436106101365760003560e01c80637c22ef6f116100b2578063a9059cbb11610081578063c211cd8c11610066578063c211cd8c14610253578063d5abeb011461025b578063dd62ed3e1461026357610136565b8063a9059cbb1461022d578063b6ab05301461024057610136565b80637c22ef6f146101f75780638cf7ad231461020a57806395d89b4114610212578063a457c2d71461021a57610136565b8063313ce5671161010957806340c10f19116100ee57806340c10f19146101bc57806342966c68146101d157806370a08231146101e457610136565b8063313ce567146101a157806339509351146101a957610136565b806306fdde031461013b578063095ea7b31461015957806318160ddd1461017957806323b872dd1461018e575b600080fd5b610143610276565b60405161015091906107bd565b60405180910390f35b61016c610167366004610771565b6102af565b60405161015091906107b2565b6101816102c5565b6040516101509190610810565b61016c61019c366004610736565b6102cb565b61018161031d565b61016c6101b7366004610771565b610322565b6101cf6101ca366004610771565b610359565b005b6101cf6101df36600461079a565b6103f2565b6101816101f23660046106e3565b61046e565b6101816102053660046106e3565b61048d565b61018161049f565b6101436104a5565b61016c610228366004610771565b6104de565b61016c61023b366004610771565b610515565b61018161024e3660046106e3565b610522565b610181610534565b61018161053a565b610181610271366004610704565b61054a565b6040518060400160405280600981526020017f4d6f636b2055534454000000000000000000000000000000000000000000000081525081565b60006102bc338484610575565b50600192915050565b60005481565b60006102d8848484610603565b6001600160a01b03841660009081526006602090815260408083203380855292529091205461031391869161030e908690610831565b610575565b5060019392505050565b601281565b3360008181526006602090815260408083206001600160a01b038716845290915281205490916102bc91859061030e908690610819565b6001600160a01b03821660009081526005602052604090205461037d908290610819565b6001600160a01b038316600090815260056020526040812091909155546103a5908290610819565b60009081556040516001600160a01b03841691907fddf252ad1be2c89b69c2b068fc378daa952ba7f163c4a11628f55a4df523b3ef906103e6908590610810565b60405180910390a35050565b3360009081526005602052604090205461040d908290610831565b336000908152600560205260408120919091555461042c908290610831565b600090815560405133907fddf252ad1be2c89b69c2b068fc378daa952ba7f163c4a11628f55a4df523b3ef90610463908590610810565b60405180910390a350565b6001600160a01b0381166000908152600560205260409020545b919050565b60046020526000908152604090205481565b60025481565b6040518060400160405280600581526020017f4d5553445400000000000000000000000000000000000000000000000000000081525081565b3360008181526006602090815260408083206001600160a01b038716845290915281205490916102bc91859061030e908690610831565b60006102bc338484610603565b60036020526000908152604090205481565b60015481565b6b024306c4097859c43c00000081565b6001600160a01b03918216600090815260066020908152604080832093909416825291909152205490565b6001600160a01b03821661058857600080fd5b6001600160a01b03831661059b57600080fd5b6001600160a01b0380841660008181526006602090815260408083209487168084529490915290819020849055517f8c5be1e5ebec7d5bd14f71427d1e84f3dd0314c0f7b2291e5b200ac8c7c3b925906105f6908590610810565b60405180910390a3505050565b6001600160a01b038316600090815260056020526040902054610627908290610831565b6001600160a01b038085166000908152600560205260408082209390935590841681522054610657908290610819565b6001600160a01b03831660008181526005602052604090209190915561068957806000546106859190610831565b6000555b816001600160a01b0316836001600160a01b03167fddf252ad1be2c89b69c2b068fc378daa952ba7f163c4a11628f55a4df523b3ef836040516105f69190610810565b80356001600160a01b038116811461048857600080fd5b6000602082840312156106f4578081fd5b6106fd826106cc565b9392505050565b60008060408385031215610716578081fd5b61071f836106cc565b915061072d602084016106cc565b90509250929050565b60008060006060848603121561074a578081fd5b610753846106cc565b9250610761602085016106cc565b9150604084013590509250925092565b60008060408385031215610783578182fd5b61078c836106cc565b946020939093013593505050565b6000602082840312156107ab578081fd5b5035919050565b901515815260200190565b6000602080835283518082850152825b818110156107e9578581018301518582016040015282016107cd565b818111156107fa5783604083870101525b50601f01601f1916929092016040019392505050565b90815260200190565b6000821982111561082c5761082c610848565b500190565b60008282101561084357610843610848565b500390565b7f4e487b7100000000000000000000000000000000000000000000000000000000600052601160045260246000fdfea26469706673582212206a0cef38ff57b954602a6f916bfbf83c34409d9835c21bbbeb00f05a3b67802564736f6c63430008000033",
  "immutableReferences": {},
  "source": "// SPDX-License-Identifier: MIT\n\npragma solidity 0.8.0;\n\nimport \"../libs/zeppelin/token/BEP20/IBEP20.sol\";\n\ncontract MUSDTToken is IBEP20 {\n\n  string public constant name = \"Mock USDT\";\n  string public constant symbol = \"MUSDT\";\n  uint public constant decimals = 18;\n  uint public constant maxSupply = 700e24;\n  uint public totalSupply;\n  uint public lastReleaseMarketingBlock;\n  uint public lastReleaseLiquidityPoolBlock;\n  mapping (address => uint) public lastReleaseAdvisorBlocks;\n  mapping (address => uint) public lastReleaseFounderBlocks;\n\n  mapping (address => uint) internal _balances;\n  mapping (address => mapping (address => uint)) private _allowed;\n\n  constructor() {\n    _mint(msg.sender, maxSupply);\n  }\n\n  function balanceOf(address _owner) override external view returns (uint) {\n    return _balances[_owner];\n  }\n\n  function allowance(address _owner, address _spender) override external view returns (uint) {\n    return _allowed[_owner][_spender];\n  }\n\n  function transfer(address _to, uint _value) override external returns (bool) {\n    _transfer(msg.sender, _to, _value);\n    return true;\n  }\n\n  function approve(address _spender, uint _value) override external returns (bool) {\n    _approve(msg.sender, _spender, _value);\n    return true;\n  }\n\n  function transferFrom(address _from, address _to, uint _value) override external returns (bool) {\n    _transfer(_from, _to, _value);\n    _approve(_from, msg.sender, _allowed[_from][msg.sender] - _value);\n    return true;\n  }\n\n  function increaseAllowance(address _spender, uint _addedValue) external returns (bool) {\n    _approve(msg.sender, _spender, _allowed[msg.sender][_spender] + _addedValue);\n    return true;\n  }\n\n  function decreaseAllowance(address _spender, uint _subtractedValue) external returns (bool) {\n    _approve(msg.sender, _spender, _allowed[msg.sender][_spender] - _subtractedValue);\n    return true;\n  }\n\n  function burn(uint _amount) external {\n    _balances[msg.sender] = _balances[msg.sender] - _amount;\n    totalSupply = totalSupply - _amount;\n    emit Transfer(msg.sender, address(0), _amount);\n  }\n\n  function _transfer(address _from, address _to, uint _value) private {\n    _balances[_from] = _balances[_from] - _value;\n    _balances[_to] = _balances[_to] + _value;\n    if (_to == address(0)) {\n      totalSupply = totalSupply - _value;\n    }\n    emit Transfer(_from, _to, _value);\n  }\n\n  function _approve(address _owner, address _spender, uint _value) private {\n    require(_spender != address(0));\n    require(_owner != address(0));\n\n    _allowed[_owner][_spender] = _value;\n    emit Approval(_owner, _spender, _value);\n  }\n\n  function _mint(address _owner, uint _amount) private {\n    require(totalSupply + _amount <= maxSupply, \"Amount invalid\");\n    _balances[_owner] = _balances[_owner] + _amount;\n    totalSupply = totalSupply + _amount;\n    emit Transfer(address(0), _owner, _amount);\n  }\n\n  function mint(address _owner, uint _amount) external {\n    _balances[_owner] = _balances[_owner] + _amount;\n    totalSupply = totalSupply + _amount;\n    emit Transfer(address(0), _owner, _amount);\n  }\n}\n\n",
  "sourcePath": "/Users/binh/Documents/Development/Solidity/fota-dapp/contracts/mocks/MUSDTToken.sol",
  "compiler": {
    "name": "solc",
    "version": "0.8.0+commit.c7dfd78e.Emscripten.clang"
  },
  "schemaVersion": "3.3.4",
  "updatedAt": "2022-01-05T07:37:06.384Z",
  "networkType": "ethereum",
  "devdoc": {
    "kind": "dev",
    "methods": {},
    "version": 1
  },
  "userdoc": {
    "kind": "user",
    "methods": {},
    "version": 1
  }
}