{
  "contractName": "SendHolder",
  "abi": [
    {
      "inputs": [],
      "stateMutability": "nonpayable",
      "type": "constructor"
    },
    {
      "inputs": [],
      "name": "mainAdmin",
      "outputs": [
        {
          "internalType": "address",
          "name": "",
          "type": "address"
        }
      ],
      "stateMutability": "view",
      "type": "function"
    },
    {
      "inputs": [],
      "name": "usdtToken",
      "outputs": [
        {
          "internalType": "contract IBEP20",
          "name": "",
          "type": "address"
        }
      ],
      "stateMutability": "view",
      "type": "function"
    },
    {
      "inputs": [],
      "name": "_isMainAdmin",
      "outputs": [
        {
          "internalType": "bool",
          "name": "",
          "type": "bool"
        }
      ],
      "stateMutability": "view",
      "type": "function"
    },
    {
      "inputs": [
        {
          "internalType": "address[]",
          "name": "_addresses",
          "type": "address[]"
        },
        {
          "internalType": "uint256",
          "name": "amount",
          "type": "uint256"
        }
      ],
      "name": "send",
      "outputs": [],
      "stateMutability": "nonpayable",
      "type": "function"
    }
  ],
  "bytecode": "0x6080604052600080546001600160a01b0319167355d398326f99059ff775485246999027b319795517905534801561003657600080fd5b50600180546001600160a01b03191633179055610380806100586000396000f3fe608060405234801561001057600080fd5b506004361061004c5760003560e01c806311541ce014610051578063a98ad46c1461006f578063efd5a17014610084578063fb6b04ba14610099575b600080fd5b6100596100a1565b60405161006691906102e1565b60405180910390f35b6100776100b2565b60405161006691906102b4565b61009761009236600461021f565b6100c1565b005b6100776101e2565b6001546001600160a01b0316331490565b6000546001600160a01b031681565b6100c96100a1565b610108576040517f08c379a00000000000000000000000000000000000000000000000000000000081526004016100ff906102ec565b60405180910390fd5b60005b828110156101dc576000546001600160a01b031663a9059cbb85858481811061014457634e487b7160e01b600052603260045260246000fd5b905060200201602081019061015991906101f1565b846040518363ffffffff1660e01b81526004016101779291906102c8565b602060405180830381600087803b15801561019157600080fd5b505af11580156101a5573d6000803e3d6000fd5b505050506040513d601f19601f820116820180604052508101906101c99190610294565b50806101d481610323565b91505061010b565b50505050565b6001546001600160a01b031681565b600060208284031215610202578081fd5b81356001600160a01b0381168114610218578182fd5b9392505050565b600080600060408486031215610233578182fd5b833567ffffffffffffffff8082111561024a578384fd5b818601915086601f83011261025d578384fd5b81358181111561026b578485fd5b876020808302850101111561027e578485fd5b6020928301989097509590910135949350505050565b6000602082840312156102a5578081fd5b81518015158114610218578182fd5b6001600160a01b0391909116815260200190565b6001600160a01b03929092168252602082015260400190565b901515815260200190565b6020808252600d908201527f6f6e6c794d61696e41646d696e00000000000000000000000000000000000000604082015260600190565b600060001982141561034357634e487b7160e01b81526011600452602481fd5b506001019056fea2646970667358221220363efc1a7cde74fa10d9a7fa4e2fcc2da370c85ea7c4775ba74b3cb46f96e0f364736f6c63430008000033",
  "immutableReferences": {},
  "source": "// SPDX-License-Identifier: GPL\n\npragma solidity 0.8.0;\n\nimport \"./libs/zeppelin/token/BEP20/IBEP20.sol\";\n\ncontract SendHolder {\n  IBEP20 public usdtToken = IBEP20(0x55d398326f99059fF775485246999027B3197955);\n\n  address public mainAdmin;\n\n  constructor() {\n    mainAdmin = msg.sender;\n  }\n\n  function _isMainAdmin() public view returns (bool) {\n    return msg.sender == mainAdmin;\n  }\n\n  modifier onlyMainAdmin() {\n    require(_isMainAdmin(), \"onlyMainAdmin\");\n    _;\n  }\n\n  function send(address[] calldata _addresses, uint amount) onlyMainAdmin public {\n    for (uint i = 0; i < _addresses.length; i++) {\n      usdtToken.transfer(_addresses[i], amount);\n    }\n  }\n}\n\n\n",
  "sourcePath": "/Users/binh/Documents/Development/Solidity/fota-dapp/contracts/SendHolder.sol",
  "compiler": {
    "name": "solc",
    "version": "0.8.0+commit.c7dfd78e.Emscripten.clang"
  },
  "schemaVersion": "3.3.4",
  "updatedAt": "2022-01-05T07:37:06.420Z",
  "networkType": "ethereum",
  "devdoc": {
    "kind": "dev",
    "methods": {},
    "version": 1
  },
  "userdoc": {
    "kind": "user",
    "methods": {},
    "version": 1
  }
}