{
  "contractName": "SkillUpgrading",
  "abi": [
    {
      "anonymous": false,
      "inputs": [
        {
          "indexed": true,
          "internalType": "address",
          "name": "_newOwner",
          "type": "address"
        }
      ],
      "name": "ContractAdminUpdated",
      "type": "event"
    },
    {
      "anonymous": false,
      "inputs": [
        {
          "indexed": true,
          "internalType": "address",
          "name": "_previousOwner",
          "type": "address"
        },
        {
          "indexed": true,
          "internalType": "address",
          "name": "_newOwner",
          "type": "address"
        }
      ],
      "name": "OwnershipTransferred",
      "type": "event"
    },
    {
      "anonymous": false,
      "inputs": [
        {
          "indexed": false,
          "internalType": "enum IMarketPlace.PaymentType",
          "name": "newMethod",
          "type": "uint8"
        }
      ],
      "name": "PaymentTypeChanged",
      "type": "event"
    },
    {
      "anonymous": false,
      "inputs": [
        {
          "indexed": true,
          "internalType": "uint8",
          "name": "section",
          "type": "uint8"
        },
        {
          "indexed": false,
          "internalType": "uint256",
          "name": "fee",
          "type": "uint256"
        },
        {
          "indexed": false,
          "internalType": "uint8",
          "name": "successRatio",
          "type": "uint8"
        }
      ],
      "name": "RequirementUpdated",
      "type": "event"
    },
    {
      "anonymous": false,
      "inputs": [
        {
          "indexed": true,
          "internalType": "uint256",
          "name": "tokenId",
          "type": "uint256"
        },
        {
          "indexed": false,
          "internalType": "uint8",
          "name": "acceptedRatio",
          "type": "uint8"
        },
        {
          "indexed": false,
          "internalType": "bool",
          "name": "success",
          "type": "bool"
        }
      ],
      "name": "Upgraded",
      "type": "event"
    },
    {
      "inputs": [],
      "name": "_isContractAdmin",
      "outputs": [
        {
          "internalType": "bool",
          "name": "",
          "type": "bool"
        }
      ],
      "stateMutability": "view",
      "type": "function"
    },
    {
      "inputs": [],
      "name": "_isMainAdmin",
      "outputs": [
        {
          "internalType": "bool",
          "name": "",
          "type": "bool"
        }
      ],
      "stateMutability": "view",
      "type": "function"
    },
    {
      "inputs": [],
      "name": "busdToken",
      "outputs": [
        {
          "internalType": "contract IBEP20",
          "name": "",
          "type": "address"
        }
      ],
      "stateMutability": "view",
      "type": "function"
    },
    {
      "inputs": [],
      "name": "contractAdmin",
      "outputs": [
        {
          "internalType": "address",
          "name": "",
          "type": "address"
        }
      ],
      "stateMutability": "view",
      "type": "function"
    },
    {
      "inputs": [],
      "name": "fotaPricer",
      "outputs": [
        {
          "internalType": "contract IFOTAPricer",
          "name": "",
          "type": "address"
        }
      ],
      "stateMutability": "view",
      "type": "function"
    },
    {
      "inputs": [],
      "name": "fotaToken",
      "outputs": [
        {
          "internalType": "contract IBEP20",
          "name": "",
          "type": "address"
        }
      ],
      "stateMutability": "view",
      "type": "function"
    },
    {
      "inputs": [],
      "name": "fundAdmin",
      "outputs": [
        {
          "internalType": "address",
          "name": "",
          "type": "address"
        }
      ],
      "stateMutability": "view",
      "type": "function"
    },
    {
      "inputs": [],
      "name": "heroNft",
      "outputs": [
        {
          "internalType": "contract IGameNFT",
          "name": "",
          "type": "address"
        }
      ],
      "stateMutability": "view",
      "type": "function"
    },
    {
      "inputs": [],
      "name": "itemNft",
      "outputs": [
        {
          "internalType": "contract IGameNFT",
          "name": "",
          "type": "address"
        }
      ],
      "stateMutability": "view",
      "type": "function"
    },
    {
      "inputs": [],
      "name": "mainAdmin",
      "outputs": [
        {
          "internalType": "address",
          "name": "",
          "type": "address"
        }
      ],
      "stateMutability": "view",
      "type": "function"
    },
    {
      "inputs": [
        {
          "internalType": "address",
          "name": "",
          "type": "address"
        }
      ],
      "name": "nonces",
      "outputs": [
        {
          "internalType": "uint256",
          "name": "",
          "type": "uint256"
        }
      ],
      "stateMutability": "view",
      "type": "function"
    },
    {
      "inputs": [],
      "name": "paymentType",
      "outputs": [
        {
          "internalType": "enum IMarketPlace.PaymentType",
          "name": "",
          "type": "uint8"
        }
      ],
      "stateMutability": "view",
      "type": "function"
    },
    {
      "inputs": [
        {
          "internalType": "uint8",
          "name": "",
          "type": "uint8"
        }
      ],
      "name": "requirements",
      "outputs": [
        {
          "internalType": "uint256",
          "name": "fee",
          "type": "uint256"
        },
        {
          "internalType": "uint8",
          "name": "successRatio",
          "type": "uint8"
        }
      ],
      "stateMutability": "view",
      "type": "function"
    },
    {
      "inputs": [
        {
          "internalType": "address",
          "name": "_fotaToken",
          "type": "address"
        }
      ],
      "name": "setFOTAToken",
      "outputs": [],
      "stateMutability": "nonpayable",
      "type": "function"
    },
    {
      "inputs": [
        {
          "internalType": "address",
          "name": "_busdToken",
          "type": "address"
        },
        {
          "internalType": "address",
          "name": "_usdtToken",
          "type": "address"
        }
      ],
      "name": "setUsdToken",
      "outputs": [],
      "stateMutability": "nonpayable",
      "type": "function"
    },
    {
      "inputs": [
        {
          "internalType": "address",
          "name": "_newOwner",
          "type": "address"
        }
      ],
      "name": "transferOwnership",
      "outputs": [],
      "stateMutability": "nonpayable",
      "type": "function"
    },
    {
      "inputs": [
        {
          "internalType": "address",
          "name": "_newAdmin",
          "type": "address"
        }
      ],
      "name": "updateContractAdmin",
      "outputs": [],
      "stateMutability": "nonpayable",
      "type": "function"
    },
    {
      "inputs": [
        {
          "internalType": "address",
          "name": "_address",
          "type": "address"
        }
      ],
      "name": "updateFundAdmin",
      "outputs": [],
      "stateMutability": "nonpayable",
      "type": "function"
    },
    {
      "inputs": [
        {
          "internalType": "enum IMarketPlace.PaymentType",
          "name": "_type",
          "type": "uint8"
        }
      ],
      "name": "updatePaymentType",
      "outputs": [],
      "stateMutability": "nonpayable",
      "type": "function"
    },
    {
      "inputs": [],
      "name": "usdtToken",
      "outputs": [
        {
          "internalType": "contract IBEP20",
          "name": "",
          "type": "address"
        }
      ],
      "stateMutability": "view",
      "type": "function"
    },
    {
      "inputs": [
        {
          "internalType": "address",
          "name": "_mainAdmin",
          "type": "address"
        }
      ],
      "name": "initialize",
      "outputs": [],
      "stateMutability": "nonpayable",
      "type": "function"
    },
    {
      "inputs": [
        {
          "internalType": "string",
          "name": "_name",
          "type": "string"
        },
        {
          "internalType": "string",
          "name": "_version",
          "type": "string"
        },
        {
          "internalType": "address",
          "name": "_mainAdmin",
          "type": "address"
        },
        {
          "internalType": "address",
          "name": "_fundAdmin",
          "type": "address"
        },
        {
          "internalType": "address",
          "name": "_heroNft",
          "type": "address"
        },
        {
          "internalType": "address",
          "name": "_itemNft",
          "type": "address"
        },
        {
          "internalType": "address",
          "name": "_fotaPricer",
          "type": "address"
        }
      ],
      "name": "initialize",
      "outputs": [],
      "stateMutability": "nonpayable",
      "type": "function"
    },
    {
      "inputs": [
        {
          "internalType": "string",
          "name": "_name",
          "type": "string"
        },
        {
          "internalType": "string",
          "name": "_version",
          "type": "string"
        },
        {
          "internalType": "address",
          "name": "_mainAdmin",
          "type": "address"
        },
        {
          "internalType": "address",
          "name": "_fundAdmin",
          "type": "address"
        },
        {
          "internalType": "address",
          "name": "_fotaPricer",
          "type": "address"
        }
      ],
      "name": "initialize",
      "outputs": [],
      "stateMutability": "nonpayable",
      "type": "function"
    },
    {
      "inputs": [
        {
          "internalType": "uint256",
          "name": "_tokenId",
          "type": "uint256"
        },
        {
          "internalType": "uint256",
          "name": "_eatherId",
          "type": "uint256"
        },
        {
          "internalType": "enum IMarketPlace.PaymentCurrency",
          "name": "_paymentCurrency",
          "type": "uint8"
        },
        {
          "internalType": "uint8",
          "name": "_acceptedRatio",
          "type": "uint8"
        },
        {
          "internalType": "string",
          "name": "_seed",
          "type": "string"
        },
        {
          "internalType": "bytes",
          "name": "_signature",
          "type": "bytes"
        }
      ],
      "name": "skillUp",
      "outputs": [],
      "stateMutability": "nonpayable",
      "type": "function"
    },
    {
      "inputs": [
        {
          "internalType": "uint8",
          "name": "_section",
          "type": "uint8"
        },
        {
          "internalType": "uint256",
          "name": "_fee",
          "type": "uint256"
        },
        {
          "internalType": "uint8",
          "name": "_successRatio",
          "type": "uint8"
        }
      ],
      "name": "updateRequirements",
      "outputs": [],
      "stateMutability": "nonpayable",
      "type": "function"
    }
  ],
  "bytecode": "0x608060405234801561001057600080fd5b50612f34806100206000396000f3fe608060405234801561001057600080fd5b50600436106101a35760003560e01c8063a00245fa116100ee578063c91f0c5311610097578063de0e701411610071578063de0e701414610316578063e5e20f5d1461031e578063f2fde38b14610331578063fb6b04ba14610344576101a3565b8063c91f0c53146102e8578063db0ed6a0146102fb578063dcb2072d1461030e576101a3565b8063b7d6caec116100c8578063b7d6caec146102ba578063be15abdd146102c2578063c4d66de8146102d5576101a3565b8063a00245fa1461028c578063a98ad46c1461029f578063aca986c8146102a7576101a3565b806348d002f211610150578063779552451161012a578063779552451461025c5780637ecebe00146102645780639c45658314610284576101a3565b806348d002f2146102395780635e1c2f0a1461024157806366d0ae5a14610249576101a3565b80632763b8da116101815780632763b8da146101f057806330e590db1461020557806343a98b9b14610226576101a3565b806302e65b8a146101a85780630b39217e146101bd57806311541ce0146101db575b600080fd5b6101bb6101b63660046121a7565b61034c565b005b6101c56103d6565b6040516101d29190612685565b60405180910390f35b6101e36103e5565b6040516101d291906126f0565b6101f86103fc565b6040516101d29190612769565b610218610213366004612549565b61040c565b6040516101d2929190612d42565b6101bb6102343660046121a7565b610428565b6101c561046e565b6101c561047d565b6101bb610257366004612465565b61048c565b6101c56107a7565b6102776102723660046121a7565b6107b6565b6040516101d291906125f5565b6101c56107c8565b6101bb61029a366004612213565b6107d7565b6101c5610888565b6101bb6102b53660046121a7565b610897565b6101e3610903565b6101bb6102d03660046125b4565b610914565b6101bb6102e33660046121a7565b6109ee565b6101bb6102f63660046122c2565b610aac565b6101bb61030936600461222f565b610b6d565b6101c5610cf5565b6101c5610d04565b6101bb61032c3660046121c1565b610d13565b6101bb61033f3660046121a7565b610d65565b6101c5610dfe565b6103546103e5565b6103795760405162461bcd60e51b815260040161037090612a9c565b60405180910390fd5b6001600160a01b03811661038c57600080fd5b600180546001600160a01b0319166001600160a01b0383169081179091556040517fe3f4a4b5b74aa6830627cb87c50cf7d4ed56e9b246729179ba634bbdc873177a90600090a250565b603d546001600160a01b031681565b6000546201000090046001600160a01b0316331490565b603a54600160a01b900460ff1681565b603e602052600090815260409020805460019091015460ff1682565b6104306103e5565b61044c5760405162461bcd60e51b815260040161037090612a9c565b603980546001600160a01b0319166001600160a01b0392909216919091179055565b6039546001600160a01b031681565b603a546001600160a01b031681565b610497838383610e13565b6000806104a389610f1c565b915091506000826000146104c1576104bc600584612e05565b6104c4565b60005b60ff8082166000908152603e602052604090206001015491925090811690881611156105025760405162461bcd60e51b815260040161037090612969565b60006105118b89898987611106565b60ff8084166000908152603e602052604081206001810154905493945090929082169161054191908c1690612e19565b61054b9190612e05565b905081156105625761055d8a826111dc565b61071e565b6000603c60009054906101000a90046001600160a01b03166001600160a01b0316634437c7718e6040518263ffffffff1660e01b81526004016105a591906125f5565b604080518083038186803b1580156105bc57600080fd5b505afa1580156105d0573d6000803e3d6000fd5b505050506040513d601f19601f820116820180604052508101906105f49190612442565b9150506000603d60009054906101000a90046001600160a01b03166001600160a01b0316633129e7738e6040518263ffffffff1660e01b815260040161063a91906125f5565b60a06040518083038186803b15801561065257600080fd5b505afa158015610666573d6000803e3d6000fd5b505050506040513d601f19601f8201168201806040525081019061068a9190612565565b509350505050603c60009054906101000a90046001600160a01b03166001600160a01b0316631ab5f3a38f8386866106c29190612dc8565b6106cc9190612dc8565b6040518363ffffffff1660e01b81526004016106e9929190612d34565b600060405180830381600087803b15801561070357600080fd5b505af1158015610717573d6000803e3d6000fd5b5050505050505b603d546040517f42966c680000000000000000000000000000000000000000000000000000000081526001600160a01b03909116906342966c6890610767908e906004016125f5565b600060405180830381600087803b15801561078157600080fd5b505af1158015610795573d6000803e3d6000fd5b50505050505050505050505050505050565b6001546001600160a01b031681565b60366020526000908152604090205481565b603b546001600160a01b031681565b6107df6103e5565b6107fb5760405162461bcd60e51b815260040161037090612a9c565b603a80548291907fffffffffffffffffffffff00ffffffffffffffffffffffffffffffffffffffff16600160a01b83600281111561084957634e487b7160e01b600052602160045260246000fd5b02179055507f42d1d4a3df940c5fa3c262d3d5b271a206cfc2e3da70683f81854b3f52f8f5d58160405161087d9190612769565b60405180910390a150565b6038546001600160a01b031681565b61089f6103e5565b6108bb5760405162461bcd60e51b815260040161037090612a9c565b6001600160a01b0381166108e15760405162461bcd60e51b815260040161037090612836565b603b80546001600160a01b0319166001600160a01b0392909216919091179055565b6001546001600160a01b0316331490565b61091c6103e5565b6109385760405162461bcd60e51b815260040161037090612a9c565b60008160ff1611801561094f575060648160ff1611155b61096b5760405162461bcd60e51b815260040161037090612b67565b60408051808201825283815260ff83811660208084019182528783166000818152603e909252908590209351845590516001909301805460ff19169390921692909217905590517f5bae8263be9abe066dd15b389ac9bdf2b4937ed6a90ff640fd74cb022eebc119906109e19085908590612d42565b60405180910390a2505050565b600054610100900460ff1680610a07575060005460ff16155b610a235760405162461bcd60e51b8152600401610370906129fd565b600054610100900460ff16158015610a4e576000805460ff1961ff0019909116610100171660011790555b6000805475ffffffffffffffffffffffffffffffffffffffff00001916620100006001600160a01b03851690810291909117909155600180546001600160a01b03191690911790558015610aa8576000805461ff00191690555b5050565b600054610100900460ff1680610ac5575060005460ff16155b610ae15760405162461bcd60e51b8152600401610370906129fd565b600054610100900460ff16158015610b0c576000805460ff1961ff0019909116610100171660011790555b610b198888888886610b6d565b603c80546001600160a01b038087166001600160a01b031992831617909255603d805492861692909116919091179055610b516111e6565b8015610b63576000805461ff00191690555b5050505050505050565b600054610100900460ff1680610b86575060005460ff16155b610ba25760405162461bcd60e51b8152600401610370906129fd565b600054610100900460ff16158015610bcd576000805460ff1961ff0019909116610100171660011790555b610bd6846109ee565b610be086866113cb565b603b80546001600160a01b038086166001600160a01b031992831617909255603a80549285169282169290921790915560378054821673e9e7cea3dedca5984780bafc599bd69add087d561790556038805482167355d398326f99059ff775485246999027b319795517905560398054909116730a4e1bdfa75292a98c15870aef24bd94bffe0bd41790556061461415610cdb57603780546001600160a01b031990811673d8ad05ff852ae4eb264089c377501494ea1d03c91790915560388054821673a1d3c78f0f98f6ba7b08ec15df48e22880a0024c17905560398054909116730a4e1bdfa75292a98c15870aef24bd94bffe0bd41790555b8015610ced576000805461ff00191690555b505050505050565b603c546001600160a01b031681565b6037546001600160a01b031681565b610d1b6103e5565b610d375760405162461bcd60e51b815260040161037090612a9c565b603780546001600160a01b039384166001600160a01b03199182161790915560388054929093169116179055565b610d6d6103e5565b610d895760405162461bcd60e51b815260040161037090612a9c565b6001600160a01b038116610d9c57600080fd5b6000805475ffffffffffffffffffffffffffffffffffffffff00001916620100006001600160a01b038416908102919091178255604051909133917f8be0079c531659141344cd1fd0a4f28419497f9722a3daafe3b4186f6b6457e09190a350565b6000546201000090046001600160a01b031681565b6000610e907f1a823066fbc1aa5b66fa1ba3e226098d4e8cb86add37fba146337ee566d7341f338686604051610e4a9291906125fe565b604080519182900382203360009081526036602090815292902054610e7595949391929091016126fb565b6040516020818303038152906040528051906020012061144c565b336000908152603660205260408120805492935090610eae83612e4f565b91905055506000610ebf8284611467565b6001549091506001600160a01b03808316911614610eef5760405162461bcd60e51b8152600401610370906129a0565b6001600160a01b038116610f155760405162461bcd60e51b8152600401610370906128af565b5050505050565b603c546040517f21d801110000000000000000000000000000000000000000000000000000000081526000918291829182916001600160a01b03909116906321d8011190610f6e9088906004016125f5565b60006040518083038186803b158015610f8657600080fd5b505afa158015610f9a573d6000803e3d6000fd5b505050506040513d6000823e601f3d908101601f19168201604052610fc29190810190612376565b603c5491985063ffffffff169650600095506001600160a01b0316935063b123f7ea9250610ff591508690506001612de0565b6040518263ffffffff1660e01b81526004016110119190612d53565b60206040518083038186803b15801561102957600080fd5b505afa15801561103d573d6000803e3d6000fd5b505050506040513d601f19601f82011682018060405250810190611061919061252f565b90508063ffffffff1682146110885760405162461bcd60e51b815260040161037090612c32565b6000611095600585612e7e565b90508060ff166001141580156110af57508060ff16600314155b6110cb5760405162461bcd60e51b8152600401610370906127c8565b600060ff8216156110f0578160ff166002146110e85760026110eb565b60015b6110f3565b60005b60ff909516965093945050505050915091565b600061111384848761148b565b9050801561119957603c546040517fcc96cfe40000000000000000000000000000000000000000000000000000000081526001600160a01b039091169063cc96cfe4906111669089908690600401612d42565b600060405180830381600087803b15801561118057600080fd5b505af1158015611194573d6000803e3d6000fd5b505050505b857f682099bd64984386bd372b5a8d130e3ef91fbb2e267d4d323d252ed0fca789d086836040516111cb929190612d61565b60405180910390a295945050505050565b610aa882826114aa565b60408051808201825268056bc75e2d631000008152603260208083019182526000808052603e80835293517f5f97c64b3c4bdfff50b5c8f505e633128432c6b07fc6c8abc77dce786c7317d45591517f5f97c64b3c4bdfff50b5c8f505e633128432c6b07fc6c8abc77dce786c7317d5805460ff92831660ff199182161790915585518087018752681b1ae4d6e2ef5000008152601e8185019081526001865286855290517fae78b1325812a8a7d69d497dd950a8406b6cd373f338d119e8d81f39e42806fa55517fae78b1325812a8a7d69d497dd950a8406b6cd373f338d119e8d81f39e42806fb805491841691831691909117905585518087018752683635c9adc5dea000008152600a8185018181526002875287865291517fe2dd079769adc29c98f3e5900e2ea53e4880b1989d8a5de753fc27b0d83ee9135590517fe2dd079769adc29c98f3e5900e2ea53e4880b1989d8a5de753fc27b0d83ee9148054918516918416919091179055865180880190975269010f0cf064dd59200000875286840190815260039094529390915292517fa85ba2164933dad3462192a5146147f252b8ada5145fc70dfe9be195bf10a8db55517fa85ba2164933dad3462192a5146147f252b8ada5145fc70dfe9be195bf10a8dc8054919093169116179055565b600054610100900460ff16806113e4575060005460ff16155b6114005760405162461bcd60e51b8152600401610370906129fd565b600054610100900460ff1615801561142b576000805460ff1961ff0019909116610100171660011790555b6114358383611632565b8015611447576000805461ff00191690555b505050565b600061145f6114596116c5565b83611705565b90505b919050565b60008060006114768585611738565b91509150611483816117a8565b509392505050565b60008061149885856118d8565b60ff8085169116109150509392505050565b6000603a54600160a01b900460ff1660028111156114d857634e487b7160e01b600052602160045260246000fd5b141561157c57603a54604080516319c2286960e31b81529051611577926001600160a01b03169163ce114348916004808301926020929190829003018186803b15801561152457600080fd5b505afa158015611538573d6000803e3d6000fd5b505050506040513d601f19601f8201168201806040525081019061155c919061242a565b6115686103e884612e19565b6115729190612e05565b6118ef565b610aa8565b6001603a54600160a01b900460ff1660028111156115aa57634e487b7160e01b600052602160045260246000fd5b14156115ba576115778282611b8c565b60008260028111156115dc57634e487b7160e01b600052602160045260246000fd5b141561162857603a54604080516319c2286960e31b81529051611577926001600160a01b03169163ce114348916004808301926020929190829003018186803b15801561152457600080fd5b610aa88282611b8c565b600054610100900460ff168061164b575060005460ff16155b6116675760405162461bcd60e51b8152600401610370906129fd565b600054610100900460ff16158015611692576000805460ff1961ff0019909116610100171660011790555b82516020808501919091208351918401919091206002919091556003558015611447576000805461ff0019169055505050565b60006117007f8b73c3c69bb8fe3d512ecc4cf759cc79239f7b179b0ffacaa9a75d522b39400f6116f3611e8e565b6116fb611e94565b611e9a565b905090565b6000828260405160200161171a92919061260e565b60405160208183030381529060405280519060200120905092915050565b60008082516041141561176f5760208301516040840151606085015160001a61176387828585611ed4565b945094505050506117a1565b825160401415611799576020830151604084015161178e868383611fb4565b9350935050506117a1565b506000905060025b9250929050565b60008160048111156117ca57634e487b7160e01b600052602160045260246000fd5b14156117d5576118d5565b60018160048111156117f757634e487b7160e01b600052602160045260246000fd5b14156118155760405162461bcd60e51b815260040161037090612791565b600281600481111561183757634e487b7160e01b600052602160045260246000fd5b14156118555760405162461bcd60e51b8152600401610370906127ff565b600381600481111561187757634e487b7160e01b600052602160045260246000fd5b14156118955760405162461bcd60e51b81526004016103709061286d565b60048160048111156118b757634e487b7160e01b600052602160045260246000fd5b14156118d55760405162461bcd60e51b815260040161037090612a5a565b50565b60006118e8838360006063611ffc565b9392505050565b6039546040517fdd62ed3e00000000000000000000000000000000000000000000000000000000815282916001600160a01b03169063dd62ed3e9061193a9033903090600401612699565b60206040518083038186803b15801561195257600080fd5b505afa158015611966573d6000803e3d6000fd5b505050506040513d601f19601f8201168201806040525081019061198a919061242a565b10156119a85760405162461bcd60e51b815260040161037090612cfd565b6039546040516370a0823160e01b815282916001600160a01b0316906370a08231906119d8903390600401612685565b60206040518083038186803b1580156119f057600080fd5b505afa158015611a04573d6000803e3d6000fd5b505050506040513d601f19601f82011682018060405250810190611a28919061242a565b1015611a465760405162461bcd60e51b815260040161037090612c8f565b6039546040516323b872dd60e01b81526001600160a01b03909116906323b872dd90611a7a903390309086906004016126b3565b602060405180830381600087803b158015611a9457600080fd5b505af1158015611aa8573d6000803e3d6000fd5b505050506040513d601f19601f82011682018060405250810190611acc91906121f3565b611ae85760405162461bcd60e51b815260040161037090612bfb565b603954603b5460405163a9059cbb60e01b81526001600160a01b039283169263a9059cbb92611b1e9291169085906004016126d7565b602060405180830381600087803b158015611b3857600080fd5b505af1158015611b4c573d6000803e3d6000fd5b505050506040513d601f19601f82011682018060405250810190611b7091906121f3565b6118d55760405162461bcd60e51b81526004016103709061290c565b6000826002811115611bae57634e487b7160e01b600052602160045260246000fd5b1415611bcc5760405162461bcd60e51b815260040161037090612b30565b60006001836002811115611bf057634e487b7160e01b600052602160045260246000fd5b14611c06576038546001600160a01b0316611c13565b6037546001600160a01b03165b905081816001600160a01b031663dd62ed3e33306040518363ffffffff1660e01b8152600401611c44929190612699565b60206040518083038186803b158015611c5c57600080fd5b505afa158015611c70573d6000803e3d6000fd5b505050506040513d601f19601f82011682018060405250810190611c94919061242a565b1015611cb25760405162461bcd60e51b815260040161037090612ad3565b6040516370a0823160e01b815282906001600160a01b038316906370a0823190611ce0903390600401612685565b60206040518083038186803b158015611cf857600080fd5b505afa158015611d0c573d6000803e3d6000fd5b505050506040513d601f19601f82011682018060405250810190611d30919061242a565b1015611d4e5760405162461bcd60e51b815260040161037090612b9e565b6040516323b872dd60e01b81526001600160a01b038216906323b872dd90611d7e903390309087906004016126b3565b602060405180830381600087803b158015611d9857600080fd5b505af1158015611dac573d6000803e3d6000fd5b505050506040513d601f19601f82011682018060405250810190611dd091906121f3565b611dec5760405162461bcd60e51b81526004016103709061290c565b603b5460405163a9059cbb60e01b81526001600160a01b038381169263a9059cbb92611e20929091169086906004016126d7565b602060405180830381600087803b158015611e3a57600080fd5b505af1158015611e4e573d6000803e3d6000fd5b505050506040513d601f19601f82011682018060405250810190611e7291906121f3565b6114475760405162461bcd60e51b81526004016103709061290c565b60025490565b60035490565b60008383834630604051602001611eb595949392919061271f565b6040516020818303038152906040528051906020012090509392505050565b6000807f7fffffffffffffffffffffffffffffff5d576e7357a4501ddfe92f46681b20a0831115611f0b5750600090506003611fab565b8460ff16601b14158015611f2357508460ff16601c14155b15611f345750600090506004611fab565b600060018787878760405160008152602001604052604051611f59949392919061274b565b6020604051602081039080840390855afa158015611f7b573d6000803e3d6000fd5b5050604051601f1901519150506001600160a01b038116611fa457600060019250925050611fab565b9150600090505b94509492505050565b6000807f7fffffffffffffffffffffffffffffffffffffffffffffffffffffffffffffff831660ff84901c601b01611fee87828885611ed4565b935093505050935093915050565b600082821161201d5760405162461bcd60e51b815260040161037090612cc6565b60006120298484612e38565b612034906001612dc8565b434442338a8a60405160200161204f96959493929190612644565b6040516020818303038152906040528051906020012060405160200161207591906125f5565b6040516020818303038152906040528051906020012060001c6120989190612e6a565b90506120a48482612dc8565b9695505050505050565b80356001600160a01b038116811461146257600080fd5b600082601f8301126120d5578081fd5b81356120e86120e382612da0565b612d76565b8181528460208386010111156120fc578283fd5b816020850160208301379081016020019190915292915050565b600082601f830112612126578081fd5b81516121346120e382612da0565b81815260208581848701011115612149578384fd5b835b8381101561216657858101820151838201830152810161214b565b8381111561217657848285850101525b509095945050505050565b805161ffff8116811461146257600080fd5b805163ffffffff8116811461146257600080fd5b6000602082840312156121b8578081fd5b6118e8826120ae565b600080604083850312156121d3578081fd5b6121dc836120ae565b91506121ea602084016120ae565b90509250929050565b600060208284031215612204578081fd5b815180151581146118e8578182fd5b600060208284031215612224578081fd5b81356118e881612ee2565b600080600080600060a08688031215612246578081fd5b853567ffffffffffffffff8082111561225d578283fd5b61226989838a016120c5565b9650602088013591508082111561227e578283fd5b5061228b888289016120c5565b94505061229a604087016120ae565b92506122a8606087016120ae565b91506122b6608087016120ae565b90509295509295909350565b600080600080600080600060e0888a0312156122dc578182fd5b873567ffffffffffffffff808211156122f3578384fd5b6122ff8b838c016120c5565b985060208a0135915080821115612314578384fd5b506123218a828b016120c5565b965050612330604089016120ae565b945061233e606089016120ae565b935061234c608089016120ae565b925061235a60a089016120ae565b915061236860c089016120ae565b905092959891949750929550565b600080600080600080600060e0888a031215612390578283fd5b875167ffffffffffffffff808211156123a7578485fd5b6123b38b838c01612116565b985060208a01519150808211156123c8578485fd5b6123d48b838c01612116565b975060408a01519150808211156123e9578485fd5b506123f68a828b01612116565b95505061240560608901612181565b93506080880151925060a088015161241c81612eef565b915061236860c08901612193565b60006020828403121561243b578081fd5b5051919050565b60008060408385031215612454578182fd5b505080516020909101519092909150565b600080600080600080600060c0888a03121561247f578081fd5b8735965060208801359550604088013561249881612ee2565b945060608801356124a881612eef565b9350608088013567ffffffffffffffff808211156124c4578283fd5b818a0191508a601f8301126124d7578283fd5b8135818111156124e5578384fd5b8b60208285010111156124f6578384fd5b6020830195508094505060a08a0135915080821115612513578283fd5b506125208a828b016120c5565b91505092959891949750929550565b600060208284031215612540578081fd5b6118e882612193565b60006020828403121561255a578081fd5b81356118e881612eef565b600080600080600060a0868803121561257c578283fd5b855161258781612eef565b945061259560208701612181565b6040870151606088015160809098015196999198509695945092505050565b6000806000606084860312156125c8578081fd5b83356125d381612eef565b92506020840135915060408401356125ea81612eef565b809150509250925092565b90815260200190565b6000828483379101908152919050565b7f190100000000000000000000000000000000000000000000000000000000000081526002810192909252602282015260420190565b60008782528660208301528560408301526bffffffffffffffffffffffff198560601b16606083015282846074840137910160740190815295945050505050565b6001600160a01b0391909116815260200190565b6001600160a01b0392831681529116602082015260400190565b6001600160a01b039384168152919092166020820152604081019190915260600190565b6001600160a01b03929092168252602082015260400190565b901515815260200190565b9384526001600160a01b039290921660208401526040830152606082015260800190565b9485526020850193909352604084019190915260608301526001600160a01b0316608082015260a00190565b93845260ff9290921660208401526040830152606082015260800190565b602081016003831061278b57634e487b7160e01b600052602160045260246000fd5b91905290565b60208082526018908201527f45434453413a20696e76616c6964207369676e61747572650000000000000000604082015260600190565b6020808252601e908201527f536b696c6c20557067726164696e673a204c6576656c20696e76616c69640000604082015260600190565b6020808252601f908201527f45434453413a20696e76616c6964207369676e6174757265206c656e67746800604082015260600190565b6020808252601c908201527f4d61726b6574506c6163653a20696e76616c6964206164647265737300000000604082015260600190565b60208082526022908201527f45434453413a20696e76616c6964207369676e6174757265202773272076616c604082015261756560f01b606082015260800190565b60208082526023908201527f45434453415570677261646561626c653a20696e76616c6964207369676e617460408201527f7572650000000000000000000000000000000000000000000000000000000000606082015260800190565b60208082526028908201527f4e465420557067726164696e673a207472616e736665722075736420746f6b6560408201527f6e206661696c6564000000000000000000000000000000000000000000000000606082015260800190565b6020808252601e908201527f536b696c6c20557067726164696e673a20696e76616c696420726174696f0000604082015260600190565b60208082526022908201527f4d65737361676556657269666965723a20696e76616c6964207369676e61747560408201527f7265000000000000000000000000000000000000000000000000000000000000606082015260800190565b6020808252602e908201527f496e697469616c697a61626c653a20636f6e747261637420697320616c72656160408201527f647920696e697469616c697a6564000000000000000000000000000000000000606082015260800190565b60208082526022908201527f45434453413a20696e76616c6964207369676e6174757265202776272076616c604082015261756560f01b606082015260800190565b6020808252600d908201527f6f6e6c794d61696e41646d696e00000000000000000000000000000000000000604082015260600190565b6020808252602d908201527f4e465420557067726164696e673a20706c6561736520617070726f766520757360408201527f6420746f6b656e20666972737400000000000000000000000000000000000000606082015260800190565b60208082526018908201527f7061796d656e742063757272656e637920696e76616c69640000000000000000604082015260600190565b6020808252600d908201527f526174696f20696e76616c696400000000000000000000000000000000000000604082015260600190565b60208082526023908201527f4e465420557067726164696e673a20696e73756666696369656e742062616c6160408201527f6e63650000000000000000000000000000000000000000000000000000000000606082015260800190565b60208082526014908201527f7472616e7366657220666f7461206661696c6564000000000000000000000000604082015260600190565b60208082526023908201527f536b696c6c20557067726164696e673a20457870657269656e636520696e766160408201527f6c69640000000000000000000000000000000000000000000000000000000000606082015260800190565b60208082526018908201527f706c656173652066756e6420796f7572206163636f756e740000000000000000604082015260600190565b60208082526013908201527f4d6174683a20496e76616c69642072616e676500000000000000000000000000604082015260600190565b60208082526019908201527f706c6561736520617070726f766520666f746120666972737400000000000000604082015260600190565b918252602082015260400190565b91825260ff16602082015260400190565b60ff91909116815260200190565b60ff9290921682521515602082015260400190565b60405181810167ffffffffffffffff81118282101715612d9857612d98612ecc565b604052919050565b600067ffffffffffffffff821115612dba57612dba612ecc565b50601f01601f191660200190565b60008219821115612ddb57612ddb612ea0565b500190565b600060ff821660ff84168060ff03821115612dfd57612dfd612ea0565b019392505050565b600082612e1457612e14612eb6565b500490565b6000816000190483118215151615612e3357612e33612ea0565b500290565b600082821015612e4a57612e4a612ea0565b500390565b6000600019821415612e6357612e63612ea0565b5060010190565b600082612e7957612e79612eb6565b500690565b600060ff831680612e9157612e91612eb6565b8060ff84160691505092915050565b634e487b7160e01b600052601160045260246000fd5b634e487b7160e01b600052601260045260246000fd5b634e487b7160e01b600052604160045260246000fd5b600381106118d557600080fd5b60ff811681146118d557600080fdfea2646970667358221220a3d0a75706cb2d88925c0cf9b8229609a15dd9609ad961d7c68748a5526ad39064736f6c63430008000033",
  "immutableReferences": {},
  "source": "// SPDX-License-Identifier: GPL\n\npragma solidity 0.8.0;\n\nimport \"../interfaces/IGameNFT.sol\";\nimport \"./BaseUpgrading.sol\";\n\ncontract SkillUpgrading is BaseUpgrading {\n  IGameNFT public heroNft;\n  IGameNFT public itemNft;\n\n  struct Requirement {\n    uint fee;\n    uint8 successRatio;\n  }\n  mapping (uint8 => Requirement) public requirements;\n\n  event RequirementUpdated(uint8 indexed section, uint fee, uint8 successRatio);\n  event Upgraded(uint indexed tokenId, uint8 acceptedRatio, bool success);\n\n  function initialize(\n    string memory _name,\n    string memory _version,\n    address _mainAdmin,\n    address _fundAdmin,\n    address _heroNft,\n    address _itemNft,\n    address _fotaPricer\n  ) public initializer {\n    super.initialize(_name, _version, _mainAdmin, _fundAdmin, _fotaPricer);\n    heroNft = IGameNFT(_heroNft);\n    itemNft = IGameNFT(_itemNft);\n    _initData();\n  }\n\n  function skillUp(\n    uint _tokenId,\n    uint _eatherId,\n    IMarketPlace.PaymentCurrency _paymentCurrency,\n    uint8 _acceptedRatio,\n    string calldata _seed,\n    bytes memory _signature\n  ) external {\n    _validateSeed(_seed, _signature);\n    (uint level, uint8 skillIndex) = _validateHero(_tokenId);\n    uint8 section = level == 0 ? 0 : uint8(level / 5);\n    require(_acceptedRatio <= requirements[section].successRatio, \"Skill Upgrading: invalid ratio\");\n    bool success = _upgradeSkill(_tokenId, _acceptedRatio, _seed, skillIndex);\n    uint _upgradingFee = requirements[section].fee * uint(_acceptedRatio) / uint(requirements[section].successRatio);\n    if (success) {\n      _takeFee(_paymentCurrency, _upgradingFee);\n    } else {\n      (,uint failedUpgradingAmount) = heroNft.getHeroPrices(_tokenId);\n      (,,, uint eatherPrice,) = itemNft.getItem(_eatherId);\n      heroNft.updateFailedUpgradingAmount(_tokenId, failedUpgradingAmount + _upgradingFee + eatherPrice);\n    }\n    itemNft.burn(_eatherId);\n  }\n\n  // ADMIN FUNCTIONS\n\n  function updateRequirements(uint8 _section, uint _fee, uint8 _successRatio) external onlyMainAdmin {\n    require(_successRatio > 0 && _successRatio <= 100, \"Ratio invalid\");\n    requirements[_section] = Requirement(_fee, _successRatio);\n    emit RequirementUpdated(_section, _fee, _successRatio);\n  }\n\n  // PRIVATE FUNCTIONS\n\n  function _upgradeSkill(\n    uint _tokenId,\n    uint8 _acceptedRatio,\n    string calldata _seed,\n    uint8 _skillIndex\n  ) private returns (bool success) {\n    success = isSuccess(_seed, _acceptedRatio);\n    if (success) {\n      heroNft.skillUp(_tokenId, _skillIndex);\n    }\n    emit Upgraded(_tokenId, _acceptedRatio, success);\n  }\n\n  function _initData() private {\n    requirements[0] = Requirement(100e18, 50);\n    requirements[1] = Requirement(500e18, 30);\n    requirements[2] = Requirement(1000e18, 10);\n    requirements[3] = Requirement(5000e18, 10);\n  }\n\n  function _validateSeed(\n    string calldata _seed,\n    bytes memory _signature\n  ) override internal {\n    bytes32 digest = _hashTypedDataV4(keccak256(abi.encode(\n        keccak256(\"SkillUp(address user,string seed,uint256 nonce)\"),\n        msg.sender,\n        keccak256(bytes(_seed)),\n        nonces[msg.sender]\n      )));\n    nonces[msg.sender]++;\n    address signer = ECDSAUpgradeable.recover(digest, _signature);\n    require(signer == contractAdmin, \"MessageVerifier: invalid signature\");\n    require(signer != address(0), \"ECDSAUpgradeable: invalid signature\");\n  }\n\n  function _validateHero(uint _tokenId) private view returns (uint, uint8) {\n    (,,,,,uint8 level, uint experience) = heroNft.getHero(_tokenId);\n    uint32 experienceCheckpoint = heroNft.experienceCheckpoint(level + 1);\n    require(experience == experienceCheckpoint, \"Skill Upgrading: Experience invalid\");\n    uint8 levelMod5 = uint8(level % 5);\n    require(levelMod5 != 1 && levelMod5 != 3, \"Skill Upgrading: Level invalid\");\n    uint8 skillIndex = levelMod5 == 0 ? 0 : levelMod5 == 2 ? 1 : 2;\n    return (level, skillIndex);\n  }\n\n  function _takeFee(IMarketPlace.PaymentCurrency _paymentCurrency, uint _upgradingFee) private {\n    takeFund(_paymentCurrency, _upgradingFee);\n  }\n}\n",
  "sourcePath": "/Users/binh/Documents/Development/Solidity/fota-dapp/contracts/upgradings/SkillUpgrading.sol",
  "compiler": {
    "name": "solc",
    "version": "0.8.0+commit.c7dfd78e.Emscripten.clang"
  },
  "schemaVersion": "3.3.4",
  "updatedAt": "2022-01-05T07:37:06.355Z",
  "networkType": "ethereum",
  "devdoc": {
    "kind": "dev",
    "methods": {},
    "version": 1
  },
  "userdoc": {
    "kind": "user",
    "methods": {},
    "version": 1
  }
}