{
  "contractName": "TokenAuth",
  "abi": [
    {
      "inputs": [
        {
          "internalType": "address",
          "name": "_owner",
          "type": "address"
        },
        {
          "internalType": "address",
          "name": "_liquidityPoolAddress",
          "type": "address"
        }
      ],
      "stateMutability": "nonpayable",
      "type": "constructor"
    },
    {
      "anonymous": false,
      "inputs": [
        {
          "indexed": true,
          "internalType": "address",
          "name": "_previousOwner",
          "type": "address"
        },
        {
          "indexed": true,
          "internalType": "address",
          "name": "_newOwner",
          "type": "address"
        }
      ],
      "name": "OwnershipTransferred",
      "type": "event"
    },
    {
      "inputs": [
        {
          "internalType": "address",
          "name": "",
          "type": "address"
        }
      ],
      "name": "advisorAddresses",
      "outputs": [
        {
          "internalType": "uint256",
          "name": "",
          "type": "uint256"
        }
      ],
      "stateMutability": "view",
      "type": "function"
    },
    {
      "inputs": [
        {
          "internalType": "address",
          "name": "",
          "type": "address"
        }
      ],
      "name": "founderAddresses",
      "outputs": [
        {
          "internalType": "uint256",
          "name": "",
          "type": "uint256"
        }
      ],
      "stateMutability": "view",
      "type": "function"
    },
    {
      "inputs": [
        {
          "internalType": "address",
          "name": "",
          "type": "address"
        }
      ],
      "name": "gameAddresses",
      "outputs": [
        {
          "internalType": "bool",
          "name": "",
          "type": "bool"
        }
      ],
      "stateMutability": "view",
      "type": "function"
    },
    {
      "inputs": [
        {
          "internalType": "address",
          "name": "",
          "type": "address"
        }
      ],
      "name": "saleAddresses",
      "outputs": [
        {
          "internalType": "bool",
          "name": "",
          "type": "bool"
        }
      ],
      "stateMutability": "view",
      "type": "function"
    },
    {
      "inputs": [
        {
          "internalType": "address",
          "name": "_newOwner",
          "type": "address"
        }
      ],
      "name": "transferOwnership",
      "outputs": [],
      "stateMutability": "nonpayable",
      "type": "function"
    },
    {
      "inputs": [
        {
          "internalType": "address",
          "name": "_newBackup",
          "type": "address"
        }
      ],
      "name": "updateBackup",
      "outputs": [],
      "stateMutability": "nonpayable",
      "type": "function"
    },
    {
      "inputs": [
        {
          "internalType": "address",
          "name": "_gameAddress",
          "type": "address"
        },
        {
          "internalType": "bool",
          "name": "_status",
          "type": "bool"
        }
      ],
      "name": "setGameAddress",
      "outputs": [],
      "stateMutability": "nonpayable",
      "type": "function"
    },
    {
      "inputs": [
        {
          "internalType": "address",
          "name": "_address",
          "type": "address"
        },
        {
          "internalType": "bool",
          "name": "_status",
          "type": "bool"
        }
      ],
      "name": "setSaleAddress",
      "outputs": [],
      "stateMutability": "nonpayable",
      "type": "function"
    },
    {
      "inputs": [
        {
          "internalType": "address",
          "name": "_address",
          "type": "address"
        }
      ],
      "name": "setMarketingAddress",
      "outputs": [],
      "stateMutability": "nonpayable",
      "type": "function"
    },
    {
      "inputs": [
        {
          "internalType": "address",
          "name": "_address",
          "type": "address"
        }
      ],
      "name": "setLiquidityPoolAddress",
      "outputs": [],
      "stateMutability": "nonpayable",
      "type": "function"
    },
    {
      "inputs": [
        {
          "internalType": "address",
          "name": "_address",
          "type": "address"
        },
        {
          "internalType": "uint256",
          "name": "_allocation",
          "type": "uint256"
        }
      ],
      "name": "setFounderAddress",
      "outputs": [],
      "stateMutability": "nonpayable",
      "type": "function"
    },
    {
      "inputs": [
        {
          "internalType": "address",
          "name": "_oldAddress",
          "type": "address"
        },
        {
          "internalType": "address",
          "name": "_newAddress",
          "type": "address"
        }
      ],
      "name": "updateFounderAddress",
      "outputs": [],
      "stateMutability": "nonpayable",
      "type": "function"
    },
    {
      "inputs": [
        {
          "internalType": "address",
          "name": "_address",
          "type": "address"
        },
        {
          "internalType": "uint256",
          "name": "_allocation",
          "type": "uint256"
        }
      ],
      "name": "setAdvisorAddress",
      "outputs": [],
      "stateMutability": "nonpayable",
      "type": "function"
    },
    {
      "inputs": [
        {
          "internalType": "address",
          "name": "_oldAddress",
          "type": "address"
        },
        {
          "internalType": "address",
          "name": "_newAddress",
          "type": "address"
        }
      ],
      "name": "updateAdvisorAddress",
      "outputs": [],
      "stateMutability": "nonpayable",
      "type": "function"
    },
    {
      "inputs": [],
      "name": "isOwner",
      "outputs": [
        {
          "internalType": "bool",
          "name": "",
          "type": "bool"
        }
      ],
      "stateMutability": "view",
      "type": "function"
    },
    {
      "inputs": [],
      "name": "isBackup",
      "outputs": [
        {
          "internalType": "bool",
          "name": "",
          "type": "bool"
        }
      ],
      "stateMutability": "view",
      "type": "function"
    }
  ],
  "bytecode": "0x608060405234801561001057600080fd5b50604051610d78380380610d7883398101604081905261002f91610089565b600180546001600160a01b039384166001600160a01b03199182168117909255600080548216909217909155600780549290931691161790556100bb565b80516001600160a01b038116811461008457600080fd5b919050565b6000806040838503121561009b578182fd5b6100a48361006d565b91506100b26020840161006d565b90509250929050565b610cae806100ca6000396000f3fe608060405234801561001057600080fd5b50600436106101005760003560e01c80636da36f2911610097578063d768e12111610066578063d768e121146101f8578063e77063f01461020b578063f2fde38b1461021e578063f739810c1461023157610100565b80636da36f29146101b7578063786a1e21146101ca5780638f32d59b146101dd578063906e9dd0146101e557610100565b806361341722116100d3578063613417221461015e57806363986aba1461017157806368b8adbc146101845780636c345a28146101a457610100565b806303c01e68146101055780630708fec4146101235780634660fc5c146101385780634911f87c1461014b575b600080fd5b61010d610244565b60405161011a919061090a565b60405180910390f35b610136610131366004610854565b610268565b005b610136610146366004610875565b6102ea565b6101366101593660046108e1565b610362565b61013661016c3660046108a7565b610414565b61013661017f366004610854565b610489565b610197610192366004610854565b610502565b60405161011a9190610c32565b6101976101b2366004610854565b610514565b6101366101c53660046108a7565b610526565b6101366101d8366004610875565b61059b565b61010d610613565b6101366101f3366004610854565b61062a565b61010d610206366004610854565b6106a3565b61010d610219366004610854565b6106b8565b61013661022c366004610854565b6106cd565b61013661023f3660046108e1565b610782565b600080546001600160a01b0316610259610834565b6001600160a01b031614905090565b610270610244565b6102955760405162461bcd60e51b815260040161028c9061094c565b60405180910390fd5b6001600160a01b0381166102bb5760405162461bcd60e51b815260040161028c906109e0565b6000805473ffffffffffffffffffffffffffffffffffffffff19166001600160a01b0392909216919091179055565b6102f2610613565b61030e5760405162461bcd60e51b815260040161028c90610bfb565b6001600160a01b0382166103345760405162461bcd60e51b815260040161028c90610983565b6001600160a01b03918216600081815260046020526040808220805494909516825281209290925581529055565b61036a610613565b6103865760405162461bcd60e51b815260040161028c90610bfb565b6001600160a01b0382166103ac5760405162461bcd60e51b815260040161028c90610abf565b6a39e7139a8c08fa06000000816009546103c69190610c3b565b11156103e45760405162461bcd60e51b815260040161028c90610915565b6001600160a01b038216600090815260056020526040902081905560095461040d908290610c3b565b6009555050565b61041c610613565b6104385760405162461bcd60e51b815260040161028c90610bfb565b6001600160a01b03821661045e5760405162461bcd60e51b815260040161028c90610a74565b6001600160a01b03919091166000908152600260205260409020805460ff1916911515919091179055565b610491610613565b6104ad5760405162461bcd60e51b815260040161028c90610bfb565b6001600160a01b0381166104d35760405162461bcd60e51b815260040161028c90610a17565b6007805473ffffffffffffffffffffffffffffffffffffffff19166001600160a01b0392909216919091179055565b60046020526000908152604090205481565b60056020526000908152604090205481565b61052e610613565b61054a5760405162461bcd60e51b815260040161028c90610bfb565b6001600160a01b0382166105705760405162461bcd60e51b815260040161028c90610b79565b6001600160a01b03919091166000908152600360205260409020805460ff1916911515919091179055565b6105a3610613565b6105bf5760405162461bcd60e51b815260040161028c90610bfb565b6001600160a01b0382166105e55760405162461bcd60e51b815260040161028c90610abf565b6001600160a01b03918216600081815260056020526040808220805494909516825281209290925581529055565b6001546000906001600160a01b0316610259610834565b610632610613565b61064e5760405162461bcd60e51b815260040161028c90610bfb565b6001600160a01b0381166106745760405162461bcd60e51b815260040161028c90610b1c565b6006805473ffffffffffffffffffffffffffffffffffffffff19166001600160a01b0392909216919091179055565b60026020526000908152604090205460ff1681565b60036020526000908152604090205460ff1681565b6106d5610244565b6106f15760405162461bcd60e51b815260040161028c9061094c565b6001600160a01b0381166107175760405162461bcd60e51b815260040161028c90610bc4565b6001805473ffffffffffffffffffffffffffffffffffffffff19166001600160a01b03831690811790915561074a610834565b6001600160a01b03167f8be0079c531659141344cd1fd0a4f28419497f9722a3daafe3b4186f6b6457e060405160405180910390a350565b61078a610613565b6107a65760405162461bcd60e51b815260040161028c90610bfb565b6001600160a01b0382166107cc5760405162461bcd60e51b815260040161028c90610983565b6a1cf389cd46047d03000000816008546107e69190610c3b565b11156108045760405162461bcd60e51b815260040161028c90610915565b6001600160a01b038216600090815260046020526040902081905560085461082d908290610c3b565b6008555050565b3390565b80356001600160a01b038116811461084f57600080fd5b919050565b600060208284031215610865578081fd5b61086e82610838565b9392505050565b60008060408385031215610887578081fd5b61089083610838565b915061089e60208401610838565b90509250929050565b600080604083850312156108b9578182fd5b6108c283610838565b9150602083013580151581146108d6578182fd5b809150509250929050565b600080604083850312156108f3578182fd5b6108fc83610838565b946020939093013593505050565b901515815260200190565b6020808252600e908201527f496e76616c696420616d6f756e74000000000000000000000000000000000000604082015260600190565b6020808252600a908201527f6f6e6c794261636b757000000000000000000000000000000000000000000000604082015260600190565b6020808252602e908201527f546f6b656e417574683a2061647669736f72206164647265737320697320746860408201527f65207a65726f2061646472657373000000000000000000000000000000000000606082015260800190565b6020808252601d908201527f546f6b656e417574683a20696e76616c6964206e6577206261636b7570000000604082015260600190565b60208082526030908201527f546f6b656e417574683a206c697175696469747920616464726573732069732060408201527f746865207a65726f206164647265737300000000000000000000000000000000606082015260800190565b6020808252602b908201527f546f6b656e417574683a2067616d65206164647265737320697320746865207a60408201526a65726f206164647265737360a81b606082015260800190565b6020808252602e908201527f546f6b656e417574683a20666f756e646572206164647265737320697320746860408201527f65207a65726f2061646472657373000000000000000000000000000000000000606082015260800190565b60208082526030908201527f546f6b656e417574683a206d61726b6574696e6720616464726573732069732060408201527f746865207a65726f206164647265737300000000000000000000000000000000606082015260800190565b6020808252602b908201527f546f6b656e417574683a2073616c65206164647265737320697320746865207a60408201526a65726f206164647265737360a81b606082015260800190565b6020808252601c908201527f546f6b656e417574683a20696e76616c6964206e6577206f776e657200000000604082015260600190565b60208082526009908201527f6f6e6c794f776e65720000000000000000000000000000000000000000000000604082015260600190565b90815260200190565b60008219821115610c73577f4e487b710000000000000000000000000000000000000000000000000000000081526011600452602481fd5b50019056fea2646970667358221220c1421df67be75fb5101ea976b39c18d05728625c6cd722cee21d42901b9f595564736f6c63430008000033",
  "immutableReferences": {},
  "source": "// SPDX-License-Identifier: MIT\n\npragma solidity 0.8.0;\n\nimport \"@openzeppelin/contracts/utils/Context.sol\";\n\ncontract TokenAuth is Context {\n\n  address internal backup;\n  address internal owner;\n  mapping (address => bool) public gameAddresses;\n  mapping (address => bool) public saleAddresses;\n  mapping (address => uint) public advisorAddresses;\n  mapping (address => uint) public founderAddresses;\n  address marketingAddress;\n  address liquidityPoolAddress;\n\n  uint constant maxAdvisorAllocation = 35e24;\n  uint constant maxFounderTeamAllocation = 70e24;\n  uint advisorAllocated;\n  uint founderAllocated;\n\n  event OwnershipTransferred(address indexed _previousOwner, address indexed _newOwner);\n\n  constructor(\n    address _owner,\n    address _liquidityPoolAddress\n  ) {\n    owner = _owner;\n    backup = _owner;\n    liquidityPoolAddress = _liquidityPoolAddress;\n  }\n\n  modifier onlyOwner() {\n    require(isOwner(), \"onlyOwner\");\n    _;\n  }\n\n  modifier onlyBackup() {\n    require(isBackup(), \"onlyBackup\");\n    _;\n  }\n\n  modifier onlyGameContract() {\n    require(gameAddresses[_msgSender()], \"TokenAuth: invalid caller\");\n    _;\n  }\n\n  modifier onlySaleContract() {\n    require(saleAddresses[_msgSender()], \"TokenAuth: invalid caller\");\n    _;\n  }\n\n  modifier onlyMarketingAddress() {\n    require(_msgSender() == marketingAddress, \"TokenAuth: invalid caller\");\n    _;\n  }\n\n  modifier onlyLiquidityPoolAddress() {\n    require(_msgSender() == liquidityPoolAddress, \"TokenAuth: invalid caller\");\n    _;\n  }\n\n  modifier onlyAdvisorAddress() {\n    require(advisorAddresses[_msgSender()] > 0, \"TokenAuth: invalid caller\");\n    _;\n  }\n\n  modifier onlyFounderAddress() {\n    require(founderAddresses[_msgSender()] > 0, \"TokenAuth: invalid caller\");\n    _;\n  }\n\n  function transferOwnership(address _newOwner) external onlyBackup {\n    require(_newOwner != address(0), \"TokenAuth: invalid new owner\");\n    owner = _newOwner;\n    emit OwnershipTransferred(_msgSender(), _newOwner);\n  }\n\n  function updateBackup(address _newBackup) external onlyBackup {\n    require(_newBackup != address(0), \"TokenAuth: invalid new backup\");\n    backup = _newBackup;\n  }\n\n  function setGameAddress(address _gameAddress, bool _status) external onlyOwner {\n    require(_gameAddress != address(0), \"TokenAuth: game address is the zero address\");\n    gameAddresses[_gameAddress] = _status;\n  }\n\n  function setSaleAddress(address _address, bool _status) external onlyOwner {\n    require(_address != address(0), \"TokenAuth: sale address is the zero address\");\n    saleAddresses[_address] = _status;\n  }\n\n  function setMarketingAddress(address _address) external onlyOwner {\n    require(_address != address(0), \"TokenAuth: marketing address is the zero address\");\n    marketingAddress = _address;\n  }\n\n  function setLiquidityPoolAddress(address _address) external onlyOwner {\n    require(_address != address(0), \"TokenAuth: liquidity address is the zero address\");\n    liquidityPoolAddress = _address;\n  }\n\n  function setFounderAddress(address _address, uint _allocation) public virtual onlyOwner {\n    require(_address != address(0), \"TokenAuth: founder address is the zero address\");\n    require(founderAllocated + _allocation <= maxFounderTeamAllocation, \"Invalid amount\");\n    founderAddresses[_address] = _allocation;\n    founderAllocated = founderAllocated + _allocation;\n  }\n\n  function updateFounderAddress(address _oldAddress, address _newAddress) public virtual onlyOwner {\n    require(_oldAddress != address(0), \"TokenAuth: founder address is the zero address\");\n    founderAddresses[_newAddress] = founderAddresses[_oldAddress];\n    delete founderAddresses[_oldAddress];\n  }\n\n  function setAdvisorAddress(address _address, uint _allocation) public virtual onlyOwner {\n    require(_address != address(0), \"TokenAuth: advisor address is the zero address\");\n    require(advisorAllocated + _allocation <= maxAdvisorAllocation, \"Invalid amount\");\n    advisorAddresses[_address] = _allocation;\n    advisorAllocated = advisorAllocated + _allocation;\n  }\n\n  function updateAdvisorAddress(address _oldAddress, address _newAddress) public virtual onlyOwner {\n    require(_oldAddress != address(0), \"TokenAuth: advisor address is the zero address\");\n    advisorAddresses[_newAddress] = advisorAddresses[_oldAddress];\n    delete advisorAddresses[_oldAddress];\n  }\n\n  function isOwner() public view returns (bool) {\n    return _msgSender() == owner;\n  }\n\n  function isBackup() public view returns (bool) {\n    return _msgSender() == backup;\n  }\n}\n",
  "sourcePath": "/Users/binh/Documents/Development/Solidity/fota-dapp/contracts/libs/fota/TokenAuth.sol",
  "compiler": {
    "name": "solc",
    "version": "0.8.0+commit.c7dfd78e.Emscripten.clang"
  },
  "schemaVersion": "3.3.4",
  "updatedAt": "2022-01-05T05:27:46.110Z",
  "devdoc": {
    "kind": "dev",
    "methods": {},
    "version": 1
  },
  "userdoc": {
    "kind": "user",
    "methods": {},
    "version": 1
  }
}