{
  "contractName": "Treasury",
  "abi": [
    {
      "anonymous": false,
      "inputs": [
        {
          "indexed": true,
          "internalType": "address",
          "name": "_newOwner",
          "type": "address"
        }
      ],
      "name": "ContractAdminUpdated",
      "type": "event"
    },
    {
      "anonymous": false,
      "inputs": [
        {
          "indexed": true,
          "internalType": "address",
          "name": "_previousOwner",
          "type": "address"
        },
        {
          "indexed": true,
          "internalType": "address",
          "name": "_newOwner",
          "type": "address"
        }
      ],
      "name": "OwnershipTransferred",
      "type": "event"
    },
    {
      "inputs": [],
      "name": "_isContractAdmin",
      "outputs": [
        {
          "internalType": "bool",
          "name": "",
          "type": "bool"
        }
      ],
      "stateMutability": "view",
      "type": "function",
      "constant": true
    },
    {
      "inputs": [],
      "name": "_isMainAdmin",
      "outputs": [
        {
          "internalType": "bool",
          "name": "",
          "type": "bool"
        }
      ],
      "stateMutability": "view",
      "type": "function",
      "constant": true
    },
    {
      "inputs": [],
      "name": "busdToken",
      "outputs": [
        {
          "internalType": "contract IFOTAToken",
          "name": "",
          "type": "address"
        }
      ],
      "stateMutability": "view",
      "type": "function",
      "constant": true
    },
    {
      "inputs": [],
      "name": "contractAdmin",
      "outputs": [
        {
          "internalType": "address",
          "name": "",
          "type": "address"
        }
      ],
      "stateMutability": "view",
      "type": "function",
      "constant": true
    },
    {
      "inputs": [],
      "name": "fotaToken",
      "outputs": [
        {
          "internalType": "contract IFOTAToken",
          "name": "",
          "type": "address"
        }
      ],
      "stateMutability": "view",
      "type": "function",
      "constant": true
    },
    {
      "inputs": [],
      "name": "heroToken",
      "outputs": [
        {
          "internalType": "contract IGameNFT",
          "name": "",
          "type": "address"
        }
      ],
      "stateMutability": "view",
      "type": "function",
      "constant": true
    },
    {
      "inputs": [],
      "name": "itemToken",
      "outputs": [
        {
          "internalType": "contract IGameNFT",
          "name": "",
          "type": "address"
        }
      ],
      "stateMutability": "view",
      "type": "function",
      "constant": true
    },
    {
      "inputs": [],
      "name": "mainAdmin",
      "outputs": [
        {
          "internalType": "address",
          "name": "",
          "type": "address"
        }
      ],
      "stateMutability": "view",
      "type": "function",
      "constant": true
    },
    {
      "inputs": [],
      "name": "marketPlace",
      "outputs": [
        {
          "internalType": "contract IMarketPlace",
          "name": "",
          "type": "address"
        }
      ],
      "stateMutability": "view",
      "type": "function",
      "constant": true
    },
    {
      "inputs": [
        {
          "internalType": "address",
          "name": "_newOwner",
          "type": "address"
        }
      ],
      "name": "transferOwnership",
      "outputs": [],
      "stateMutability": "nonpayable",
      "type": "function"
    },
    {
      "inputs": [
        {
          "internalType": "address",
          "name": "_newAdmin",
          "type": "address"
        }
      ],
      "name": "updateContractAdmin",
      "outputs": [],
      "stateMutability": "nonpayable",
      "type": "function"
    },
    {
      "inputs": [],
      "name": "usdtToken",
      "outputs": [
        {
          "internalType": "contract IFOTAToken",
          "name": "",
          "type": "address"
        }
      ],
      "stateMutability": "view",
      "type": "function",
      "constant": true
    },
    {
      "inputs": [
        {
          "internalType": "address",
          "name": "_mainAdmin",
          "type": "address"
        },
        {
          "internalType": "address",
          "name": "_heroToken",
          "type": "address"
        },
        {
          "internalType": "address",
          "name": "_itemToken",
          "type": "address"
        }
      ],
      "name": "initialize",
      "outputs": [],
      "stateMutability": "nonpayable",
      "type": "function"
    },
    {
      "inputs": [
        {
          "internalType": "address",
          "name": "_mainAdmin",
          "type": "address"
        }
      ],
      "name": "initialize",
      "outputs": [],
      "stateMutability": "nonpayable",
      "type": "function"
    },
    {
      "inputs": [
        {
          "internalType": "address",
          "name": "_marketPlace",
          "type": "address"
        }
      ],
      "name": "setMarketPlace",
      "outputs": [],
      "stateMutability": "nonpayable",
      "type": "function"
    },
    {
      "inputs": [
        {
          "internalType": "uint256",
          "name": "_amount",
          "type": "uint256"
        }
      ],
      "name": "burnFOTA",
      "outputs": [],
      "stateMutability": "nonpayable",
      "type": "function"
    },
    {
      "inputs": [
        {
          "internalType": "uint256",
          "name": "_amount",
          "type": "uint256"
        }
      ],
      "name": "burnBUSD",
      "outputs": [],
      "stateMutability": "nonpayable",
      "type": "function"
    },
    {
      "inputs": [
        {
          "internalType": "uint256",
          "name": "_amount",
          "type": "uint256"
        }
      ],
      "name": "burnUSDT",
      "outputs": [],
      "stateMutability": "nonpayable",
      "type": "function"
    },
    {
      "inputs": [
        {
          "internalType": "address",
          "name": "_address",
          "type": "address"
        },
        {
          "internalType": "uint256",
          "name": "_amount",
          "type": "uint256"
        }
      ],
      "name": "claimFOTA",
      "outputs": [],
      "stateMutability": "nonpayable",
      "type": "function"
    },
    {
      "inputs": [
        {
          "internalType": "address",
          "name": "_address",
          "type": "address"
        },
        {
          "internalType": "uint256",
          "name": "_amount",
          "type": "uint256"
        }
      ],
      "name": "claimBUSD",
      "outputs": [],
      "stateMutability": "nonpayable",
      "type": "function"
    },
    {
      "inputs": [
        {
          "internalType": "address",
          "name": "_address",
          "type": "address"
        },
        {
          "internalType": "uint256",
          "name": "_amount",
          "type": "uint256"
        }
      ],
      "name": "claimUSDT",
      "outputs": [],
      "stateMutability": "nonpayable",
      "type": "function"
    },
    {
      "inputs": [
        {
          "internalType": "enum IMarketPlace.OrderKind",
          "name": "_kind",
          "type": "uint8"
        },
        {
          "internalType": "uint256[]",
          "name": "_tokenIds",
          "type": "uint256[]"
        },
        {
          "internalType": "enum IMarketPlace.PaymentCurrency",
          "name": "_paymentCurrency",
          "type": "uint8"
        }
      ],
      "name": "buyBack",
      "outputs": [],
      "stateMutability": "nonpayable",
      "type": "function"
    }
  ],
  "bytecode": "0x608060405234801561001057600080fd5b5061142c806100206000396000f3fe608060405234801561001057600080fd5b50600436106101825760003560e01c80637a263b8c116100d8578063c0c53b8b1161008c578063f2fde38b11610066578063f2fde38b146102b2578063f325e04e146102c5578063fb6b04ba146102d857610182565b8063c0c53b8b14610284578063c4d66de814610297578063de0e7014146102aa57610182565b8063a98ad46c116100bd578063a98ad46c1461026c578063b7d6caec14610274578063bbca57151461027c57610182565b80637a263b8c146102465780637f8602a41461025957610182565b806346dd89bd1161013a57806367f517341161011457806367f5173414610223578063777f544014610236578063779552451461023e57610182565b806346dd89bd146101f557806348d002f21461020857806356abcd131461021057610182565b806311541ce01161016b57806311541ce0146101af5780632e25d2a6146101cd57806330568a8d146101e257610182565b806302e65b8a146101875780630726edd71461019c575b600080fd5b61019a6101953660046110c0565b6102e0565b005b61019a6101aa366004611123565b610377565b6101b76104c2565b6040516101c4919061125e565b60405180910390f35b6101d56104d9565b6040516101c49190611231565b61019a6101f03660046110c0565b6104e8565b61019a610203366004611201565b6106ed565b6101d5610814565b61019a61021e366004611123565b610823565b61019a610231366004611201565b610917565b6101d5610a09565b6101d5610a18565b61019a610254366004611123565b610a27565b61019a610267366004611201565b610b1b565b6101d5610c0d565b6101b7610c1c565b6101d5610c2d565b61019a6102923660046110e1565b610c3c565b61019a6102a53660046110c0565b610d83565b6101d5610e4d565b61019a6102c03660046110c0565b610e5c565b61019a6102d336600461116c565b610ef5565b6101d561108f565b6102e86104c2565b61030d5760405162461bcd60e51b81526004016103049061132a565b60405180910390fd5b6001600160a01b03811661032057600080fd5b6001805473ffffffffffffffffffffffffffffffffffffffff19166001600160a01b0383169081179091556040517fe3f4a4b5b74aa6830627cb87c50cf7d4ed56e9b246729179ba634bbdc873177a90600090a250565b61037f6104c2565b61039b5760405162461bcd60e51b81526004016103049061132a565b6005546040516370a0823160e01b815282916001600160a01b0316906370a08231906103cb903090600401611231565b60206040518083038186803b1580156103e357600080fd5b505afa1580156103f7573d6000803e3d6000fd5b505050506040513d601f19601f8201168201806040525081019061041b9190611219565b10156104395760405162461bcd60e51b815260040161030490611361565b60055460405163a9059cbb60e01b81526001600160a01b039091169063a9059cbb9061046b9085908590600401611245565b602060405180830381600087803b15801561048557600080fd5b505af1158015610499573d6000803e3d6000fd5b505050506040513d601f19601f820116820180604052508101906104bd919061114c565b505050565b6000546201000090046001600160a01b0316331490565b6002546001600160a01b031681565b6104f06104c2565b61050c5760405162461bcd60e51b81526004016103049061132a565b6001600160a01b0381166105325760405162461bcd60e51b815260040161030490611296565b6002805473ffffffffffffffffffffffffffffffffffffffff19166001600160a01b038381169190911790915560035460405163095ea7b360e01b815291169063095ea7b39061058a90849060001990600401611245565b602060405180830381600087803b1580156105a457600080fd5b505af11580156105b8573d6000803e3d6000fd5b505050506040513d601f19601f820116820180604052508101906105dc919061114c565b506004805460405163095ea7b360e01b81526001600160a01b039091169163095ea7b3916106109185916000199101611245565b602060405180830381600087803b15801561062a57600080fd5b505af115801561063e573d6000803e3d6000fd5b505050506040513d601f19601f82011682018060405250810190610662919061114c565b5060055460405163095ea7b360e01b81526001600160a01b039091169063095ea7b39061069790849060001990600401611245565b602060405180830381600087803b1580156106b157600080fd5b505af11580156106c5573d6000803e3d6000fd5b505050506040513d601f19601f820116820180604052508101906106e9919061114c565b5050565b6106f56104c2565b6107115760405162461bcd60e51b81526004016103049061132a565b6003546040516370a0823160e01b815282916001600160a01b0316906370a0823190610741903090600401611231565b60206040518083038186803b15801561075957600080fd5b505afa15801561076d573d6000803e3d6000fd5b505050506040513d601f19601f820116820180604052508101906107919190611219565b10156107af5760405162461bcd60e51b815260040161030490611361565b600354604051630852cd8d60e31b81526001600160a01b03909116906342966c68906107df908490600401611398565b600060405180830381600087803b1580156107f957600080fd5b505af115801561080d573d6000803e3d6000fd5b5050505050565b6003546001600160a01b031681565b61082b6104c2565b6108475760405162461bcd60e51b81526004016103049061132a565b600480546040516370a0823160e01b815283926001600160a01b03909216916370a082319161087891309101611231565b60206040518083038186803b15801561089057600080fd5b505afa1580156108a4573d6000803e3d6000fd5b505050506040513d601f19601f820116820180604052508101906108c89190611219565b10156108e65760405162461bcd60e51b815260040161030490611361565b6004805460405163a9059cbb60e01b81526001600160a01b039091169163a9059cbb9161046b918691869101611245565b61091f6104c2565b61093b5760405162461bcd60e51b81526004016103049061132a565b600480546040516370a0823160e01b815283926001600160a01b03909216916370a082319161096c91309101611231565b60206040518083038186803b15801561098457600080fd5b505afa158015610998573d6000803e3d6000fd5b505050506040513d601f19601f820116820180604052508101906109bc9190611219565b10156109da5760405162461bcd60e51b815260040161030490611361565b60048054604051630852cd8d60e31b81526001600160a01b03909116916342966c68916107df91859101611398565b6007546001600160a01b031681565b6001546001600160a01b031681565b610a2f6104c2565b610a4b5760405162461bcd60e51b81526004016103049061132a565b6003546040516370a0823160e01b815282916001600160a01b0316906370a0823190610a7b903090600401611231565b60206040518083038186803b158015610a9357600080fd5b505afa158015610aa7573d6000803e3d6000fd5b505050506040513d601f19601f82011682018060405250810190610acb9190611219565b1015610ae95760405162461bcd60e51b815260040161030490611361565b60035460405163a9059cbb60e01b81526001600160a01b039091169063a9059cbb9061046b9085908590600401611245565b610b236104c2565b610b3f5760405162461bcd60e51b81526004016103049061132a565b6005546040516370a0823160e01b815282916001600160a01b0316906370a0823190610b6f903090600401611231565b60206040518083038186803b158015610b8757600080fd5b505afa158015610b9b573d6000803e3d6000fd5b505050506040513d601f19601f82011682018060405250810190610bbf9190611219565b1015610bdd5760405162461bcd60e51b815260040161030490611361565b600554604051630852cd8d60e31b81526001600160a01b03909116906342966c68906107df908490600401611398565b6005546001600160a01b031681565b6001546001600160a01b0316331490565b6006546001600160a01b031681565b600054610100900460ff1680610c55575060005460ff16155b610c715760405162461bcd60e51b8152600401610304906112cd565b600054610100900460ff16158015610c9c576000805460ff1961ff0019909116610100171660011790555b610ca584610d83565b600080546001600160a01b03808716620100000275ffffffffffffffffffffffffffffffffffffffff000019909216919091179091556003805473ffffffffffffffffffffffffffffffffffffffff19908116730a4e1bdfa75292a98c15870aef24bd94bffe0bd41790915560048054821673e9e7cea3dedca5984780bafc599bd69add087d561790556005805482167355d398326f99059ff775485246999027b31979551790556006805486841690831617905560078054928516929091169190911790558015610d7d576000805461ff00191690555b50505050565b600054610100900460ff1680610d9c575060005460ff16155b610db85760405162461bcd60e51b8152600401610304906112cd565b600054610100900460ff16158015610de3576000805460ff1961ff0019909116610100171660011790555b6000805475ffffffffffffffffffffffffffffffffffffffff00001916620100006001600160a01b038516908102919091179091556001805473ffffffffffffffffffffffffffffffffffffffff1916909117905580156106e9576000805461ff00191690555050565b6004546001600160a01b031681565b610e646104c2565b610e805760405162461bcd60e51b81526004016103049061132a565b6001600160a01b038116610e9357600080fd5b6000805475ffffffffffffffffffffffffffffffffffffffff00001916620100006001600160a01b038416908102919091178255604051909133917f8be0079c531659141344cd1fd0a4f28419497f9722a3daafe3b4186f6b6457e09190a350565b610efd6104c2565b610f195760405162461bcd60e51b81526004016103049061132a565b6006546001600160a01b03166001856002811115610f4757634e487b7160e01b600052602160045260246000fd5b1415610f5b57506007546001600160a01b03165b60005b83811015611087576002546001600160a01b031663db37dc2787878785818110610f9857634e487b7160e01b600052603260045260246000fd5b90506020020135866040518463ffffffff1660e01b8152600401610fbe93929190611269565b600060405180830381600087803b158015610fd857600080fd5b505af1158015610fec573d6000803e3d6000fd5b50505050816001600160a01b03166342966c6886868481811061101f57634e487b7160e01b600052603260045260246000fd5b905060200201356040518263ffffffff1660e01b81526004016110429190611398565b600060405180830381600087803b15801561105c57600080fd5b505af1158015611070573d6000803e3d6000fd5b50505050808061107f906113a1565b915050610f5e565b505050505050565b6000546201000090046001600160a01b031681565b80356001600160a01b03811681146110bb57600080fd5b919050565b6000602082840312156110d1578081fd5b6110da826110a4565b9392505050565b6000806000606084860312156110f5578182fd5b6110fe846110a4565b925061110c602085016110a4565b915061111a604085016110a4565b90509250925092565b60008060408385031215611135578182fd5b61113e836110a4565b946020939093013593505050565b60006020828403121561115d578081fd5b815180151581146110da578182fd5b60008060008060608587031215611181578081fd5b843561118c816113e9565b9350602085013567ffffffffffffffff808211156111a8578283fd5b818701915087601f8301126111bb578283fd5b8135818111156111c9578384fd5b88602080830285010111156111dc578384fd5b60208301955080945050505060408501356111f6816113e9565b939692955090935050565b600060208284031215611212578081fd5b5035919050565b60006020828403121561122a578081fd5b5051919050565b6001600160a01b0391909116815260200190565b6001600160a01b03929092168252602082015260400190565b901515815260200190565b60608101611276856113c8565b848252836020830152611288836113c8565b826040830152949350505050565b60208082526019908201527f54726561737572793a20696e76616c6964206164647265737300000000000000604082015260600190565b6020808252602e908201527f496e697469616c697a61626c653a20636f6e747261637420697320616c72656160408201527f647920696e697469616c697a6564000000000000000000000000000000000000606082015260800190565b6020808252600d908201527f6f6e6c794d61696e41646d696e00000000000000000000000000000000000000604082015260600190565b60208082526018908201527f54726561737572793a20616d6f756e7420696e76616c69640000000000000000604082015260600190565b90815260200190565b60006000198214156113c157634e487b7160e01b81526011600452602481fd5b5060010190565b600381106113e657634e487b7160e01b600052602160045260246000fd5b50565b600381106113e657600080fdfea264697066735822122009d0f71a8abbc17d0d280ac0b6701590d39d42bec2925f11f4d14cfbf7bd1b4c64736f6c63430008000033",
  "immutableReferences": {},
  "source": "// SPDX-License-Identifier: GPL\n\npragma solidity 0.8.0;\n\nimport \"./interfaces/IMarketPlace.sol\";\nimport \"./libs/fota/Auth.sol\";\nimport \"./interfaces/IFOTAToken.sol\";\nimport \"./MarketPlace.sol\";\n\ncontract Treasury is Auth {\n  IMarketPlace public marketPlace;\n  IFOTAToken public fotaToken;\n  IFOTAToken public busdToken;\n  IFOTAToken public usdtToken;\n  IGameNFT public heroToken;\n  IGameNFT public itemToken;\n\n  function initialize(address _mainAdmin, address _heroToken, address _itemToken) public initializer {\n    Auth.initialize(_mainAdmin);\n    mainAdmin = _mainAdmin;\n    fotaToken = IFOTAToken(0x0A4E1BdFA75292A98C15870AeF24bd94BFFe0Bd4);\n    busdToken = IFOTAToken(0xe9e7CEA3DedcA5984780Bafc599bD69ADd087D56);\n    usdtToken = IFOTAToken(0x55d398326f99059fF775485246999027B3197955);\n    heroToken = IGameNFT(_heroToken);\n    itemToken = IGameNFT(_itemToken);\n  }\n\n  function setMarketPlace(address _marketPlace) external onlyMainAdmin {\n    require(_marketPlace != address(0), \"Treasury: invalid address\");\n    marketPlace = IMarketPlace(_marketPlace);\n    fotaToken.approve(_marketPlace, type(uint).max);\n    busdToken.approve(_marketPlace, type(uint).max);\n    usdtToken.approve(_marketPlace, type(uint).max);\n  }\n\n  function burnFOTA(uint _amount) external onlyMainAdmin {\n    require(fotaToken.balanceOf(address(this)) >= _amount, \"Treasury: amount invalid\");\n    fotaToken.burn(_amount);\n  }\n\n  function burnBUSD(uint _amount) external onlyMainAdmin {\n    require(busdToken.balanceOf(address(this)) >= _amount, \"Treasury: amount invalid\");\n    busdToken.burn(_amount);\n  }\n\n  function burnUSDT(uint _amount) external onlyMainAdmin {\n    require(usdtToken.balanceOf(address(this)) >= _amount, \"Treasury: amount invalid\");\n    usdtToken.burn(_amount);\n  }\n\n  function claimFOTA(address _address, uint _amount) external onlyMainAdmin {\n    require(fotaToken.balanceOf(address(this)) >= _amount, \"Treasury: amount invalid\");\n    fotaToken.transfer(_address, _amount);\n  }\n\n  function claimBUSD(address _address, uint _amount) external onlyMainAdmin {\n    require(busdToken.balanceOf(address(this)) >= _amount, \"Treasury: amount invalid\");\n    busdToken.transfer(_address, _amount);\n  }\n\n  function claimUSDT(address _address, uint _amount) external onlyMainAdmin {\n    require(usdtToken.balanceOf(address(this)) >= _amount, \"Treasury: amount invalid\");\n    usdtToken.transfer(_address, _amount);\n  }\n\n  function buyBack(IMarketPlace.OrderKind _kind, uint[] calldata _tokenIds, IMarketPlace.PaymentCurrency _paymentCurrency) external onlyMainAdmin {\n    IGameNFT token = heroToken;\n    if (_kind == IMarketPlace.OrderKind.item) {\n      token = itemToken;\n    }\n    for(uint i = 0; i < _tokenIds.length; i++) {\n      marketPlace.takeOrder(_kind, _tokenIds[i], _paymentCurrency);\n      token.burn(_tokenIds[i]);\n    }\n  }\n}\n",
  "sourcePath": "/Users/binh/Documents/Development/Solidity/fota-dapp/contracts/Treasury.sol",
  "compiler": {
    "name": "solc",
    "version": "0.8.0+commit.c7dfd78e.Emscripten.clang"
  },
  "schemaVersion": "3.3.4",
  "updatedAt": "2022-01-05T07:37:06.375Z",
  "networkType": "ethereum",
  "devdoc": {
    "kind": "dev",
    "methods": {},
    "version": 1
  },
  "userdoc": {
    "kind": "user",
    "methods": {},
    "version": 1
  }
}